{"src/SmartContracts/PublicVerification.sol":{"PublicVerification":{"abi":[{"inputs":[{"internalType":"address","name":"_stakeholderRegistryAddress","type":"address"},{"internalType":"address","name":"_registryAddress","type":"address"}],"stateMutability":"nonpayable","type":"constructor"},{"anonymous":false,"inputs":[{"indexed":true,"internalType":"address","name":"auditor","type":"address"},{"indexed":true,"internalType":"address","name":"productAddress","type":"address"},{"indexed":false,"internalType":"string","name":"auditResult","type":"string"},{"indexed":false,"internalType":"uint256","name":"timestamp","type":"uint256"}],"name":"AuditPerformed","type":"event"},{"anonymous":false,"inputs":[{"indexed":true,"internalType":"address","name":"productAddress","type":"address"},{"indexed":true,"internalType":"address","name":"verifier","type":"address"},{"indexed":false,"internalType":"uint256","name":"timestamp","type":"uint256"}],"name":"ProductVerificationRequested","type":"event"},{"anonymous":false,"inputs":[{"indexed":true,"internalType":"address","name":"shipmentAddress","type":"address"},{"indexed":true,"internalType":"address","name":"productAddress","type":"address"},{"indexed":false,"internalType":"bool","name":"isValid","type":"bool"},{"indexed":false,"internalType":"uint256","name":"timestamp","type":"uint256"}],"name":"ShipmentVerificationPerformed","type":"event"},{"anonymous":false,"inputs":[{"indexed":true,"internalType":"address","name":"productAddress","type":"address"},{"indexed":false,"internalType":"bool","name":"isAuthentic","type":"bool"},{"indexed":false,"internalType":"string","name":"details","type":"string"},{"indexed":false,"internalType":"uint256","name":"timestamp","type":"uint256"}],"name":"VerificationResult","type":"event"},{"inputs":[{"internalType":"address","name":"_productAddress","type":"address"}],"name":"findShipmentByProduct","outputs":[{"internalType":"address","name":"","type":"address"}],"stateMutability":"view","type":"function"},{"inputs":[{"internalType":"string","name":"_trackingNumber","type":"string"}],"name":"findShipmentByTrackingNumber","outputs":[{"internalType":"address","name":"","type":"address"}],"stateMutability":"view","type":"function"},{"inputs":[{"internalType":"address","name":"_productAddress","type":"address"}],"name":"getCompleteTraceabilityReport","outputs":[{"internalType":"string","name":"productName","type":"string"},{"internalType":"address","name":"farmer","type":"address"},{"components":[{"internalType":"address","name":"stakeholderAddress","type":"address"},{"internalType":"enum Stakeholder.StakeholderRole","name":"role","type":"uint8"},{"internalType":"string","name":"businessName","type":"string"},{"internalType":"string","name":"businessLicense","type":"string"},{"internalType":"string","name":"location","type":"string"},{"internalType":"string","name":"certifications","type":"string"},{"internalType":"bool","name":"isActive","type":"bool"},{"internalType":"uint256","name":"registeredAt","type":"uint256"},{"internalType":"uint256","name":"lastActivity","type":"uint256"}],"internalType":"struct PublicVerification.StakeholderInfo","name":"farmerInfo","type":"tuple"},{"components":[{"internalType":"address","name":"stakeholderAddress","type":"address"},{"internalType":"enum Stakeholder.StakeholderRole","name":"role","type":"uint8"},{"internalType":"string","name":"businessName","type":"string"},{"internalType":"string","name":"businessLicense","type":"string"},{"internalType":"string","name":"location","type":"string"},{"internalType":"string","name":"certifications","type":"string"},{"internalType":"bool","name":"isActive","type":"bool"},{"internalType":"uint256","name":"registeredAt","type":"uint256"},{"internalType":"uint256","name":"lastActivity","type":"uint256"}],"internalType":"struct PublicVerification.StakeholderInfo","name":"processorInfo","type":"tuple"},{"components":[{"internalType":"address","name":"stakeholderAddress","type":"address"},{"internalType":"enum Stakeholder.StakeholderRole","name":"role","type":"uint8"},{"internalType":"string","name":"businessName","type":"string"},{"internalType":"string","name":"businessLicense","type":"string"},{"internalType":"string","name":"location","type":"string"},{"internalType":"string","name":"certifications","type":"string"},{"internalType":"bool","name":"isActive","type":"bool"},{"internalType":"uint256","name":"registeredAt","type":"uint256"},{"internalType":"uint256","name":"lastActivity","type":"uint256"}],"internalType":"struct PublicVerification.StakeholderInfo","name":"distributorInfo","type":"tuple"},{"components":[{"internalType":"address","name":"stakeholderAddress","type":"address"},{"internalType":"enum Stakeholder.StakeholderRole","name":"role","type":"uint8"},{"internalType":"string","name":"businessName","type":"string"},{"internalType":"string","name":"businessLicense","type":"string"},{"internalType":"string","name":"location","type":"string"},{"internalType":"string","name":"certifications","type":"string"},{"internalType":"bool","name":"isActive","type":"bool"},{"internalType":"uint256","name":"registeredAt","type":"uint256"},{"internalType":"uint256","name":"lastActivity","type":"uint256"}],"internalType":"struct PublicVerification.StakeholderInfo","name":"retailerInfo","type":"tuple"},{"internalType":"bool","name":"isFullyTraced","type":"bool"},{"internalType":"bool","name":"hasShipment","type":"bool"},{"internalType":"address","name":"shipmentAddress","type":"address"},{"components":[{"internalType":"uint256","name":"timestamp","type":"uint256"},{"internalType":"enum Shipment.ShipmentStatus","name":"status","type":"uint8"},{"internalType":"address","name":"updater","type":"address"},{"internalType":"string","name":"trackingInfo","type":"string"},{"internalType":"string","name":"location","type":"string"}],"internalType":"struct Shipment.ShipmentUpdate[]","name":"shipmentHistory","type":"tuple[]"}],"stateMutability":"view","type":"function"},{"inputs":[{"internalType":"address","name":"_shipmentAddress","type":"address"}],"name":"getShipmentInfo","outputs":[{"internalType":"address","name":"product","type":"address"},{"internalType":"address","name":"sender","type":"address"},{"internalType":"address","name":"receiver","type":"address"},{"internalType":"string","name":"trackingNumber","type":"string"},{"internalType":"string","name":"transportMode","type":"string"},{"internalType":"enum Shipment.ShipmentStatus","name":"status","type":"uint8"},{"internalType":"uint256","name":"createdAt","type":"uint256"},{"internalType":"uint256","name":"lastUpdated","type":"uint256"},{"internalType":"bool","name":"isActive","type":"bool"}],"stateMutability":"view","type":"function"},{"inputs":[{"internalType":"address","name":"_productAddress","type":"address"}],"name":"getTraceabilityReport","outputs":[{"internalType":"string","name":"productName","type":"string"},{"internalType":"address","name":"farmer","type":"address"},{"components":[{"internalType":"address","name":"stakeholderAddress","type":"address"},{"internalType":"enum Stakeholder.StakeholderRole","name":"role","type":"uint8"},{"internalType":"string","name":"businessName","type":"string"},{"internalType":"string","name":"businessLicense","type":"string"},{"internalType":"string","name":"location","type":"string"},{"internalType":"string","name":"certifications","type":"string"},{"internalType":"bool","name":"isActive","type":"bool"},{"internalType":"uint256","name":"registeredAt","type":"uint256"},{"internalType":"uint256","name":"lastActivity","type":"uint256"}],"internalType":"struct PublicVerification.StakeholderInfo","name":"farmerInfo","type":"tuple"},{"components":[{"internalType":"address","name":"stakeholderAddress","type":"address"},{"internalType":"enum Stakeholder.StakeholderRole","name":"role","type":"uint8"},{"internalType":"string","name":"businessName","type":"string"},{"internalType":"string","name":"businessLicense","type":"string"},{"internalType":"string","name":"location","type":"string"},{"internalType":"string","name":"certifications","type":"string"},{"internalType":"bool","name":"isActive","type":"bool"},{"internalType":"uint256","name":"registeredAt","type":"uint256"},{"internalType":"uint256","name":"lastActivity","type":"uint256"}],"internalType":"struct PublicVerification.StakeholderInfo","name":"processorInfo","type":"tuple"},{"components":[{"internalType":"address","name":"stakeholderAddress","type":"address"},{"internalType":"enum Stakeholder.StakeholderRole","name":"role","type":"uint8"},{"internalType":"string","name":"businessName","type":"string"},{"internalType":"string","name":"businessLicense","type":"string"},{"internalType":"string","name":"location","type":"string"},{"internalType":"string","name":"certifications","type":"string"},{"internalType":"bool","name":"isActive","type":"bool"},{"internalType":"uint256","name":"registeredAt","type":"uint256"},{"internalType":"uint256","name":"lastActivity","type":"uint256"}],"internalType":"struct PublicVerification.StakeholderInfo","name":"distributorInfo","type":"tuple"},{"components":[{"internalType":"address","name":"stakeholderAddress","type":"address"},{"internalType":"enum Stakeholder.StakeholderRole","name":"role","type":"uint8"},{"internalType":"string","name":"businessName","type":"string"},{"internalType":"string","name":"businessLicense","type":"string"},{"internalType":"string","name":"location","type":"string"},{"internalType":"string","name":"certifications","type":"string"},{"internalType":"bool","name":"isActive","type":"bool"},{"internalType":"uint256","name":"registeredAt","type":"uint256"},{"internalType":"uint256","name":"lastActivity","type":"uint256"}],"internalType":"struct PublicVerification.StakeholderInfo","name":"retailerInfo","type":"tuple"},{"internalType":"bool","name":"isFullyTraced","type":"bool"}],"stateMutability":"view","type":"function"},{"inputs":[{"internalType":"address","name":"_productAddress","type":"address"},{"internalType":"string","name":"_auditResult","type":"string"}],"name":"performAudit","outputs":[],"stateMutability":"nonpayable","type":"function"},{"inputs":[],"name":"registry","outputs":[{"internalType":"contract Registry","name":"","type":"address"}],"stateMutability":"view","type":"function"},{"inputs":[],"name":"stakeholderRegistry","outputs":[{"internalType":"contract StakeholderRegistry","name":"","type":"address"}],"stateMutability":"view","type":"function"},{"inputs":[{"internalType":"string","name":"_trackingNumber","type":"string"}],"name":"trackShipmentByTrackingNumber","outputs":[{"internalType":"address","name":"shipmentAddress","type":"address"},{"internalType":"address","name":"productAddress","type":"address"},{"internalType":"enum Product.ProductStage","name":"productStage","type":"uint8"},{"internalType":"enum Shipment.ShipmentStatus","name":"shipmentStatus","type":"uint8"},{"internalType":"string","name":"productName","type":"string"},{"internalType":"string","name":"statusDescription","type":"string"},{"internalType":"bool","name":"isProductValid","type":"bool"},{"internalType":"bool","name":"isShipmentValid","type":"bool"}],"stateMutability":"view","type":"function"},{"inputs":[{"internalType":"address","name":"_productAddress","type":"address"}],"name":"verifyCompleteSupplyChain","outputs":[{"internalType":"bool","name":"isValid","type":"bool"},{"internalType":"string","name":"details","type":"string"}],"stateMutability":"nonpayable","type":"function"},{"inputs":[{"internalType":"address","name":"_productAddress","type":"address"}],"name":"verifyProductAuthenticity","outputs":[{"internalType":"bool","name":"isAuthentic","type":"bool"},{"internalType":"string","name":"details","type":"string"}],"stateMutability":"nonpayable","type":"function"}],"devdoc":{"kind":"dev","methods":{},"version":1},"evm":{"bytecode":{"linkReferences":{},"object":"6080346200009657601f62002ab038819003918201601f19168301916001600160401b038311848410176200009b57808492604094855283398101031262000096576200005a60206200005283620000b1565b9201620000b1565b600080546001600160a01b039384166001600160a01b031991821617909155600180549290931691161790556040516129e99081620000c78239f35b600080fd5b634e487b7160e01b600052604160045260246000fd5b51906001600160a01b0382168203620000965756fe608080604052600436101561001357600080fd5b60003560e01c90816323feda0a14610e075750806345ce151514610de65780634d0d16b314610db1578063500bc5b014610c3557806360d69d7214610c125780636a8b2bd7146107755780637b1039991461074e578063b36e609f146106af578063bf3fa54d1461044b578063c31fc219146104045763cb21551c1461009857600080fd5b346102ab576020806003193601126102ab5760043567ffffffffffffffff81116102ab576100d8906100dd6001600160a01b039283923690600401610f86565b6128a5565b1691821561039a5760405190631c43118360e01b82528082600481875afa9182156102b757600092610363575b5060405192631006976960e11b84528184600481885afa9384156102b757600094610334575b50604051927f903ac798000000000000000000000000000000000000000000000000000000008452600084600481895afa9384156102b757600094610317575b501691604051906316fd755360e21b82528282600481875afa9182156102b7576000926102e8575b50604051946306fdde0360e01b8652600086600481885afa9586156102b7576000966102c3575b5060405194632bb3cb4560e21b86528486600481845afa9586156102b75760009661027b575b50600782101561025a5760048214948515610270575b604051988952880152600583101561025a57869561022961023a926102489560408a0152606089019061106a565b610100806080890152870190610e64565b9085820360a0870152610e64565b91151560c08401521560e08301520390f35b634e487b7160e01b600052602160045260246000fd5b6005831495506101fb565b9095508481813d83116102b0575b6102938183610f48565b810103126102ab576102a490611077565b94386101e5565b600080fd5b503d610289565b6040513d6000823e3d90fd5b6102e19196503d806000833e6102d98183610f48565b810190611e08565b94386101bf565b610309919250833d8511610310575b6103018183610f48565b810190611098565b9038610198565b503d6102f7565b61032d9194503d806000833e6102d98183610f48565b9238610170565b610355919450823d841161035c575b61034d8183610f48565b810190611acc565b9238610130565b503d610343565b9080925081813d8311610393575b61037b8183610f48565b810103126102ab5761038c90611084565b903861010a565b503d610371565b6084906040519062461bcd60e51b82526004820152602d60248201527f496e76616c696420747261636b696e67206e756d626572206f7220736869706d60448201527f656e74206e6f7420666f756e64000000000000000000000000000000000000006064820152fd5b346102ab5760203660031901126102ab5760043567ffffffffffffffff81116102ab5761043a6100d86020923690600401610f86565b6001600160a01b0360405191168152f35b346102ab576020806003193601126102ab57610465610e2b565b906001600160a01b039182828160015416926024604051809481937ff7bde1da00000000000000000000000000000000000000000000000000000000835216958660048301525afa9081156102b75760009161067a575b501561063657906000600492604051938480927f608ff4050000000000000000000000000000000000000000000000000000000082525afa80156102b757600092600080600087600092600097600095600097600099610577575b5083906040519c8d9c168c5216908a0152166040880152610120806060890152870161054291610e64565b868103608088015261055391610e64565b9360a086016105619161106a565b60c085015260e084015215156101008301520390f35b9a50509750505050505050503d806000843e6105938184610f48565b8201610120838203126102ab576105a983611084565b6105b4838501611084565b936105c160408201611084565b92606082015167ffffffffffffffff908181116102ab57826105e49185016110b0565b9160808401519182116102ab576105fc9184016110b0565b60a08301519160078310156102ab57889060c0850151978261062661010060e08901519801611077565b979a989294959996979890610517565b6064826040519062461bcd60e51b82526004820152601760248201527f536869706d656e74206e6f7420726567697374657265640000000000000000006044820152fd5b90508281813d83116106a8575b6106918183610f48565b810103126102ab576106a290611077565b846104bc565b503d610687565b346102ab5760203660031901126102ab5761072660e06107346107426107186106de6106d9610e2b565b611ee8565b98959a936001600160a01b0361070460409994979399519d8d8f9e8f9081520190610e64565b921660208c01528a820360408c0152610fcd565b9088820360608a0152610fcd565b908682036080880152610fcd565b9084820360a0860152610fcd565b90151560c08301520390f35b346102ab5760003660031901126102ab5760206001600160a01b0360015416604051908152f35b346102ab5760203660031901126102ab5761078e610e2b565b610796611dc1565b5061079f611dc1565b506107a8611dc1565b506107b1611dc1565b50600090606090604051907fb36e609f0000000000000000000000000000000000000000000000000000000082526001600160a01b0381166004830152600082602481305afa80156102b757600094600090600080600095600097600096610b36575b506108266001600160a01b0391612772565b16938461096e575b9897969493929190604051998a99610140808c528b0161084d91610e64565b906001600160a01b031660208b015289810360408b015261086d91610fcd565b88810360608a015261087e91610fcd565b94608095888103878a015261089291610fcd565b9360a094888103868a01526108a691610fcd565b92151560c0880152151560e087015261010086015284810361012086015283519182825260208201908360051b830160200195602001946000935b8585106108ee5788880389f35b919395975091939560208061095a600193601f198682030189528b51908151815261091f848301518583019061106a565b6001600160a01b0360408301511660408201528761094a60608401518b60608501528b840190610e64565b9201519088818403910152610e64565b9901950195019290918897969495926108e1565b6040517f1d60a29a000000000000000000000000000000000000000000000000000000008152909860019450600082600481895afa9182156102b7576000926109ba575b50509761082e565b9091503d90816000823e6109ce8282610f48565b60208183810103126102ab5780519067ffffffffffffffff82116102ab57828101601f8383010112156102ab578181015191610a0983612689565b94610a176040519687610f48565b838652602086019185840160208660051b8387010101116102ab57602081850101925b60208660051b83870101018410610a5957505050505050508a806109b2565b835167ffffffffffffffff81116102ab5760a0868401820189880103601f1901126102ab5760405191610a8b83610ea5565b8684018201602081015184526040015160078110156102ab576020840152610ab88583868a010101611084565b604084015260808285890101015167ffffffffffffffff81116102ab57610aeb9060208b8a019185888c010101016110b0565b8584015260a0828589010101519067ffffffffffffffff82116102ab57602093610b24898680969581968f8b90850194010101016110b0565b60808201528152019401939050610a3a565b965098505050935050503d806000833e610b508183610f48565b81019360e0828603126102ab57815167ffffffffffffffff908181116102ab5786610b7c9185016110b0565b93610b8960208501611084565b9660408501518381116102ab5781610ba29187016125a9565b92878601518181116102ab5782610bba9188016125a9565b9060808701518181116102ab5783610bd39189016125a9565b9260a08801519182116102ab57610c0360c0610bfc610826936001600160a01b03958c016125a9565b9901611077565b989a9592939798969150610814565b346102ab5760203660031901126102ab57602061043a610c30610e2b565b612772565b346102ab5760403660031901126102ab57610c4e610e2b565b60243567ffffffffffffffff81116102ab57610c6e903690600401610f86565b906001600160a01b0380600054169160405180937f75c81b7b00000000000000000000000000000000000000000000000000000000825233600483015281602460209687935afa9081156102b757600091610d7c575b5015610d1257907fe8862bff108980a0995d14137b0b1cdfd57056831c5bb5935aedce1a46a96adc91610d0260405195604087526040870190610e64565b93429086015216928033930390a3005b6084836040519062461bcd60e51b82526004820152602f60248201527f4f6e6c792072656769737465726564207374616b65686f6c646572732063616e60448201527f20706572666f726d2061756469747300000000000000000000000000000000006064820152fd5b90508381813d8311610daa575b610d938183610f48565b810103126102ab57610da490611077565b85610cc4565b503d610d89565b346102ab5760203660031901126102ab57610dd2610dcd610e2b565b6111e9565b90610de260405192839283610e89565b0390f35b346102ab5760203660031901126102ab57610dd2610e02610e2b565b611ae4565b346102ab5760003660031901126102ab576020906001600160a01b03600054168152f35b600435906001600160a01b03821682036102ab57565b60005b838110610e545750506000910152565b8181015183820152602001610e44565b90602091610e7d81518092818552858086019101610e41565b601f01601f1916010190565b604090610ea29392151581528160208201520190610e64565b90565b60a0810190811067ffffffffffffffff821117610ec157604052565b634e487b7160e01b600052604160045260246000fd5b610120810190811067ffffffffffffffff821117610ec157604052565b6060810190811067ffffffffffffffff821117610ec157604052565b6020810190811067ffffffffffffffff821117610ec157604052565b6040810190811067ffffffffffffffff821117610ec157604052565b90601f8019910116810190811067ffffffffffffffff821117610ec157604052565b67ffffffffffffffff8111610ec157601f01601f191660200190565b81601f820112156102ab57803590610f9d82610f6a565b92610fab6040519485610f48565b828452602083830101116102ab57816000926020809301838601378301015290565b906001600160a01b0382511681526020820151600481101561025a5760208201526110466110346110226110106040860151610120806040880152860190610e64565b60608601518582036060870152610e64565b60808501518482036080860152610e64565b60a084015183820360a0850152610e64565b9160c0810151151560c083015260e081015160e08301526101008091015191015290565b90600782101561025a5752565b519081151582036102ab57565b51906001600160a01b03821682036102ab57565b908160209103126102ab575160058110156102ab5790565b81601f820112156102ab5780516110c681610f6a565b926110d46040519485610f48565b818452602082840101116102ab57610ea29160208085019101610e41565b91908281039261014084126102ab57604080519260c084019567ffffffffffffffff9685811088821117610ec1578352849661112d85611084565b8652602085015163ffffffff811681036102ab576020870152838501519081116102ab5760a09261115f9186016110b0565b8386015260608401516060860152607f1901126102ab5760a0918161012092519061118982610ea5565b6080830151825284830151602083015260c08301519082015260e08201516060820152610100820151608082015260808501520151910152565b906020828203126102ab57815167ffffffffffffffff81116102ab57610ea292016110f2565b906001600160a01b03809216604092835190428252602091837f5b24ec9325290e90f98603e1cea596aeced3764cd98cf986481806902c417cac843393a3845190632bb3cb4560e21b825260049183818481885afa60009181611a95575b506112f55750505060607f973665348f42bfc7c7a342c88470083764bb1751a06ac27bbbeff69a4284648e9185519561127f87610ef4565b602887527f50726f64756374206e6f7420666f756e64206f7220766572696669636174696f828801527f6e206661696c6564000000000000000000000000000000000000000000000000818801528051928392600084528301526112e66060830188610e64565b9042908301520390a260009190565b156119fc57600190865161130881610f10565b6000815292875190630d811fcf60e41b8252858282818a5afa9182156119f1576000926119ba575b50826000541690895192847f30044bcc000000000000000000000000000000000000000000000000000000009182865216828501526024936000858201528881604481875afa90811561165357600091611985575b5015611944575b8a516316fd755360e21b8152888184818d5afa8c811561193a578b87918a9460009461191b575b5084806118fd575b6117c7575b84806117a9575b611687575b5050508161165e575b5061151d575b505050505060001461148e575060607f973665348f42bfc7c7a342c88470083764bb1751a06ac27bbbeff69a4284648e9185519561141887610ef4565b603287527f50726f647563742069732061757468656e74696320616e6420616c6c20737461828801527f6b65686f6c6465727320766572696669656400000000000000000000000000008188015280519283926001845283015261147f6060830188610e64565b9042908301520390a260019190565b937f973665348f42bfc7c7a342c88470083764bb1751a06ac27bbbeff69a4284648e918161150460376060945180997f50726f6475637420646174612076616c69642062757420000000000000000000868301526114f481518092888686019101610e41565b810103601781018a520188610f48565b8051928392600084528301526112e66060830188610e64565b8a5192632df9fd5160e01b845260038385015260008486818d5afa958615611653578994600097611630575b5063ffffffff8588015116151596876115b1575b50505050505050611573575b38808080806113db565b50506000845161158281610f2c565b601d81527f52657461696c657220726567697374726174696f6e20696e76616c69640000008382015290611569565b60449495969750906002915116968d51978896879586528501528301525afa908115611625576000916115ed575b50153884818080808061155d565b908482813d831161161e575b6116038183610f48565b8101031261161b575061161590611077565b386115df565b80fd5b503d6115f9565b87513d6000823e3d90fd5b61164c91973d8091833e6116448183610f48565b8101906111c3565b9538611549565b8c513d6000823e3d90fd5b905060058110156116735760031115386113d5565b84602184634e487b7160e01b600052526000fd5b6000929394505192838092632df9fd5160e01b82526002898301525afa90811561178557600091611790575b508663ffffffff8b830151161515918261171c575b50506116d9575b8690858b8e6113cc565b96509450600094858b516116ec81610f2c565b8981527f4469737472696275746f7220726567697374726174696f6e20696e76616c69648a8201529790506116cf565b518e5185815291168582015260038782015290508981604481885afa90811561178557600091611750575b501586386116c8565b908a82813d831161177e575b6117668183610f48565b8101031261161b575061177890611077565b38611747565b503d61175c565b8d513d6000823e3d90fd5b6117a3913d8091833e6116448183610f48565b386116b3565b50505050905060058110156116735780858b8e60028b9510156113c7565b91929350600090825193848092632df9fd5160e01b825260018a8301525afa80156118d9578c926000916118e4575b508863ffffffff8d8301511615159182611866575b505061181c575b88929187916113c0565b985050955060008096858b8a5161183281610f2c565b601e81527f50726f636573736f7220726567697374726174696f6e20696e76616c696400008d8201529a9150919250611812565b925092505051168c5190838252848201526001868201528c8a82604481895afa80156118d9578c9260009161189f575b5015883861180b565b925090508a82813d81116118d2575b6118b88183610f48565b8101031261161b57508c6118cc8c92611077565b38611896565b503d6118ae565b50513d6000823e3d90fd5b6118f7913d8091833e6116448183610f48565b386117f6565b50505050905060058110156116735780858b8e60018b9510156113bb565b6119339194508d803d10610310576103018183610f48565b92386113b3565b513d6000823e3d90fd5b95509350600093895161195681610f2c565b601b81527f4661726d657220726567697374726174696f6e20696e76616c69640000000000888201529561138c565b908982813d83116119b3575b61199b8183610f48565b8101031261161b57506119ad90611077565b38611385565b503d611991565b90918682813d83116119ea575b6119d18183610f48565b8101031261161b57506119e390611084565b9038611330565b503d6119c7565b89513d6000823e3d90fd5b505060607f973665348f42bfc7c7a342c88470083764bb1751a06ac27bbbeff69a4284648e91855195611a2e87610ef4565b602287527f50726f64756374206461746120696e7465677269747920636f6d70726f6d6973828801527f6564000000000000000000000000000000000000000000000000000000000000818801528051928392600084528301526112e66060830188610e64565b90918582813d8311611ac5575b611aac8183610f48565b8101031261161b5750611abe90611077565b9038611247565b503d611aa2565b908160209103126102ab575160078110156102ab5790565b906040918251907f4d0d16b30000000000000000000000000000000000000000000000000000000082526001600160a01b0380821691826004850152600093848160248183305af1908115611db75785908692611d61575b5015611d585750611b4c90612772565b16918215611cf557845192631006976960e11b84526020938481600481855afa908115611ceb578391611cce575b506007811015611cba5760048114908115611caf575b5015611c2157917f7373756573000000000000000000000000000000000000000000000000000000927fabaa20b5bf33f95d0ec3e91871efc88e95690b75be065f906fe7d560fe3a25988780518581524288820152a3937f50726f647563742076616c69642062757420736869706d656e74206861732069815193611c1485610ef4565b6025855284015282015290565b90507fabaa20b5bf33f95d0ec3e91871efc88e95690b75be065f906fe7d560fe3a2598858051600181524286820152a37f6564207375636365737366756c6c7900000000000000000000000000000000006001937f50726f6475637420616e6420736869706d656e7420626f746820766572696669815193611ca285610ef4565b602f855284015282015290565b600591501438611b90565b602483634e487b7160e01b81526021600452fd5b611ce59150853d871161035c5761034d8183610f48565b38611b7a565b87513d85823e3d90fd5b5050506001917f746120617661696c61626c650000000000000000000000000000000000000000815191611d2883610ef4565b602c83527f50726f647563742076657269666965642c206e6f20736869706d656e74206461602084015282015290565b95505050509190565b9150503d8086833e611d738183610f48565b81018782820312611db357611d8782611077565b9160208101519067ffffffffffffffff8211611daf57611da89291016110b0565b9038611b3c565b8780fd5b8580fd5b87513d87823e3d90fd5b60405190611dce82610ed7565b6000610100838281528260208201526060604082015260608082015260606080820152606060a08201528260c08201528260e08201520152565b906020828203126102ab57815167ffffffffffffffff81116102ab57610ea292016110b0565b91610120838303126102ab57611e4383611084565b92602081015160048110156102ab579260408201519167ffffffffffffffff928381116102ab5782611e769183016110b0565b9360608201518481116102ab5783611e8f9184016110b0565b9360808301518181116102ab5784611ea89185016110b0565b9360a08401519182116102ab57611ec09184016110b0565b91611ecd60c08201611077565b9161010060e083015192015190565b600482101561025a5752565b611ef0611dc1565b50611ef9611dc1565b50611f02611dc1565b50611f0b611dc1565b506040517f3820f3610000000000000000000000000000000000000000000000000000000081526000816004816001600160a01b0386165afa91600090600084600094600096612512575b50611f87575050505050611f68611dc1565b90604051611f7581610f10565b60008152916000918180918190600090565b604051956306fdde0360e01b87526000876004816001600160a01b0387165afa9687156102b7576000976124f5575b5060405196630d811fcf60e41b88526020886004816001600160a01b0388165afa9788156102b7576000986124b9575b50611fef611dc1565b96611ff8611dc1565b96612001611dc1565b9661200a611dc1565b96602082019163ffffffff8351166123f2575b5063ffffffff602088015116612325575b602083019263ffffffff845116612252575b50602084019363ffffffff85511661216e575b509060206001600160a01b0393926004604051809681936316fd755360e21b8352165afa9283156102b757600093612147575b505163ffffffff1615159586612115575b50856120e3575b50846120b0575b505096959493929190565b90919350600581101561025a57600210908115916120d2575b509138806120a5565b63ffffffff915051161515386120c9565b909450600585101561025a576001851190811591612104575b50933861209e565b63ffffffff915051161515386120fc565b909550600582101561025a578115908115612133575b509438612097565b63ffffffff9150602001511615153861212b565b63ffffffff9193506121679060203d602011610310576103018183610f48565b9290612086565b929190975060006001600160a01b0380825416945116602460405180968193632d1542e760e21b835260048301525afa80156102b7576001600160a01b0393602091600091600080600080600092600094600096600098612218575b506121e8908d6040519a6121dd8c610ed7565b168a528a8a01611edc565b60408801526060870152608086015260a0850152151560c084015260e08301526101008201529891929350612053565b96505050505050506121e8925061224291503d806000833e61223a8183610f48565b810190611e2e565b97989096919592949291906121ca565b90985060006001600160a01b0380825416925116602460405180948193632d1542e760e21b835260048301525afa80156102b7576000916000806000806000926000946000966000986122f3575b506122c6906001600160a01b036040519a6122ba8c610ed7565b168a5260208a01611edc565b60408801526060870152608086015260a0850152151560c084015260e08301526101008201529738612040565b96505050505050506122c6925061231591503d806000833e61223a8183610f48565b97989096919592949291906122a0565b98506001600160a01b036000541660006001600160a01b03885116602460405180948193632d1542e760e21b835260048301525afa80156102b7576000916000806000806000926000946000966000986123c0575b50612394906001600160a01b036040519a6122ba8c610ed7565b60408801526060870152608086015260a0850152151560c084015260e08301526101008201529861202e565b965050505050505061239492506123e291503d806000833e61223a8183610f48565b979890969195929492919061237a565b909a5060006001600160a01b0380825416925116602460405180948193632d1542e760e21b835260048301525afa80156102b757600091600080600080600092600094600096600098612487575b5061245a906001600160a01b036040519a6122ba8c610ed7565b60408801526060870152608086015260a0850152151560c084015260e0830152610100820152993861201d565b965050505050505061245a92506124a991503d806000833e61223a8183610f48565b9798909691959294929190612440565b9097506020813d6020116124ed575b816124d560209383610f48565b810103126102ab576124e690611084565b9638611fe6565b3d91506124c8565b61250b9197503d806000833e6102d98183610f48565b9538611fb6565b945094505090503d806000843e6125298184610f48565b8201906080838303126102ab57825167ffffffffffffffff908181116102ab57836125559186016110f2565b9360208101518281116102ab578461256e9183016110f2565b9360408201518381116102ab57816125879184016110f2565b9260608301519081116102ab5761259e92016110f2565b939290939438611f56565b919091610120818403126102ab57604051906125c482610ed7565b81936125cf82611084565b8352602082015160048110156102ab57602084015260408201519067ffffffffffffffff918281116102ab57816126079185016110b0565b604085015260608301518281116102ab57816126249185016110b0565b606085015260808301518281116102ab57816126419185016110b0565b608085015260a08301519182116102ab5761265d9183016110b0565b60a083015261266e60c08201611077565b60c083015260e081015160e083015261010080910151910152565b67ffffffffffffffff8111610ec15760051b60200190565b60209081818403126102ab5780519067ffffffffffffffff82116102ab57019180601f840112156102ab5782516126d781612689565b936126e56040519586610f48565b818552838086019260051b8201019283116102ab578301905b82821061270c575050505090565b83809161271884611084565b8152019101906126fe565b60001981146127325760010190565b634e487b7160e01b600052601160045260246000fd5b805182101561275c5760209160051b010190565b634e487b7160e01b600052603260045260246000fd5b6001600160a01b03600190808254166040938451948580936312536b5b60e21b8252600097889160049384915afa93841561289b578794612877575b5086865b6127c1575b5050505050505090565b845181101561287257856127d58287612748565b511683518091631c43118360e01b8252818560209384935afa9182918b93612836575b505061280e575061280890612723565b866127b2565b8616848716146128215761280890612723565b9496505050506128319250612748565b511690565b9080929350813d831161286b575b61284e8183610f48565b810103126128675761285f90611084565b9038806127f8565b8980fd5b503d612844565b6127b7565b6128949194503d8089833e61288c8183610f48565b8101906126a1565b92386127ae565b82513d89823e3d90fd5b6001600160a01b0360019080825416604090815194859283926312536b5b60e21b8452600097889160049586915afa9384156129a957879461298d575b5086865b6128f4575050505050505090565b84518110156128725783888761290a8489612748565b51168451928380927f526ff16f0000000000000000000000000000000000000000000000000000000082525afa899181612971575b50612954575061294e90612723565b866128e6565b805160208092012090845190850120146128215761294e90612723565b6129869192503d808c833e6102d98183610f48565b903861293f565b6129a29194503d8089833e61288c8183610f48565b92386128e2565b81513d89823e3d90fdfea264697066735822122015933ee9216e6a3dae6f8e0da9a416234dcf11b73d28a9330fd5fb87b492e83b64736f6c63430008130033","opcodes":"PUSH1 0x80 CALLVALUE PUSH3 0x96 JUMPI PUSH1 0x1F PUSH3 0x2AB0 CODESIZE DUP2 SWAP1 SUB SWAP2 DUP3 ADD PUSH1 0x1F NOT AND DUP4 ADD SWAP2 PUSH1 0x1 PUSH1 0x1 PUSH1 0x40 SHL SUB DUP4 GT DUP5 DUP5 LT OR PUSH3 0x9B JUMPI DUP1 DUP5 SWAP3 PUSH1 0x40 SWAP5 DUP6 MSTORE DUP4 CODECOPY DUP2 ADD SUB SLT PUSH3 0x96 JUMPI PUSH3 0x5A PUSH1 0x20 PUSH3 0x52 DUP4 PUSH3 0xB1 JUMP JUMPDEST SWAP3 ADD PUSH3 0xB1 JUMP JUMPDEST PUSH1 0x0 DUP1 SLOAD PUSH1 0x1 PUSH1 0x1 PUSH1 0xA0 SHL SUB SWAP4 DUP5 AND PUSH1 0x1 PUSH1 0x1 PUSH1 0xA0 SHL SUB NOT SWAP2 DUP3 AND OR SWAP1 SWAP2 SSTORE PUSH1 0x1 DUP1 SLOAD SWAP3 SWAP1 SWAP4 AND SWAP2 AND OR SWAP1 SSTORE PUSH1 0x40 MLOAD PUSH2 0x29E9 SWAP1 DUP2 PUSH3 0xC7 DUP3 CODECOPY RETURN JUMPDEST PUSH1 0x0 DUP1 REVERT JUMPDEST PUSH4 0x4E487B71 PUSH1 0xE0 SHL PUSH1 0x0 MSTORE PUSH1 0x41 PUSH1 0x4 MSTORE PUSH1 0x24 PUSH1 0x0 REVERT JUMPDEST MLOAD SWAP1 PUSH1 0x1 PUSH1 0x1 PUSH1 0xA0 SHL SUB DUP3 AND DUP3 SUB PUSH3 0x96 JUMPI JUMP INVALID PUSH1 0x80 DUP1 PUSH1 0x40 MSTORE PUSH1 0x4 CALLDATASIZE LT ISZERO PUSH2 0x13 JUMPI PUSH1 0x0 DUP1 REVERT JUMPDEST PUSH1 0x0 CALLDATALOAD PUSH1 0xE0 SHR SWAP1 DUP2 PUSH4 0x23FEDA0A EQ PUSH2 0xE07 JUMPI POP DUP1 PUSH4 0x45CE1515 EQ PUSH2 0xDE6 JUMPI DUP1 PUSH4 0x4D0D16B3 EQ PUSH2 0xDB1 JUMPI DUP1 PUSH4 0x500BC5B0 EQ PUSH2 0xC35 JUMPI DUP1 PUSH4 0x60D69D72 EQ PUSH2 0xC12 JUMPI DUP1 PUSH4 0x6A8B2BD7 EQ PUSH2 0x775 JUMPI DUP1 PUSH4 0x7B103999 EQ PUSH2 0x74E JUMPI DUP1 PUSH4 0xB36E609F EQ PUSH2 0x6AF JUMPI DUP1 PUSH4 0xBF3FA54D EQ PUSH2 0x44B JUMPI DUP1 PUSH4 0xC31FC219 EQ PUSH2 0x404 JUMPI PUSH4 0xCB21551C EQ PUSH2 0x98 JUMPI PUSH1 0x0 DUP1 REVERT JUMPDEST CALLVALUE PUSH2 0x2AB JUMPI PUSH1 0x20 DUP1 PUSH1 0x3 NOT CALLDATASIZE ADD SLT PUSH2 0x2AB JUMPI PUSH1 0x4 CALLDATALOAD PUSH8 0xFFFFFFFFFFFFFFFF DUP2 GT PUSH2 0x2AB JUMPI PUSH2 0xD8 SWAP1 PUSH2 0xDD PUSH1 0x1 PUSH1 0x1 PUSH1 0xA0 SHL SUB SWAP3 DUP4 SWAP3 CALLDATASIZE SWAP1 PUSH1 0x4 ADD PUSH2 0xF86 JUMP JUMPDEST PUSH2 0x28A5 JUMP JUMPDEST AND SWAP2 DUP3 ISZERO PUSH2 0x39A JUMPI PUSH1 0x40 MLOAD SWAP1 PUSH4 0x1C431183 PUSH1 0xE0 SHL DUP3 MSTORE DUP1 DUP3 PUSH1 0x4 DUP2 DUP8 GAS STATICCALL SWAP2 DUP3 ISZERO PUSH2 0x2B7 JUMPI PUSH1 0x0 SWAP3 PUSH2 0x363 JUMPI JUMPDEST POP PUSH1 0x40 MLOAD SWAP3 PUSH4 0x10069769 PUSH1 0xE1 SHL DUP5 MSTORE DUP2 DUP5 PUSH1 0x4 DUP2 DUP9 GAS STATICCALL SWAP4 DUP5 ISZERO PUSH2 0x2B7 JUMPI PUSH1 0x0 SWAP5 PUSH2 0x334 JUMPI JUMPDEST POP PUSH1 0x40 MLOAD SWAP3 PUSH32 0x903AC79800000000000000000000000000000000000000000000000000000000 DUP5 MSTORE PUSH1 0x0 DUP5 PUSH1 0x4 DUP2 DUP10 GAS STATICCALL SWAP4 DUP5 ISZERO PUSH2 0x2B7 JUMPI PUSH1 0x0 SWAP5 PUSH2 0x317 JUMPI JUMPDEST POP AND SWAP2 PUSH1 0x40 MLOAD SWAP1 PUSH4 0x16FD7553 PUSH1 0xE2 SHL DUP3 MSTORE DUP3 DUP3 PUSH1 0x4 DUP2 DUP8 GAS STATICCALL SWAP2 DUP3 ISZERO PUSH2 0x2B7 JUMPI PUSH1 0x0 SWAP3 PUSH2 0x2E8 JUMPI JUMPDEST POP PUSH1 0x40 MLOAD SWAP5 PUSH4 0x6FDDE03 PUSH1 0xE0 SHL DUP7 MSTORE PUSH1 0x0 DUP7 PUSH1 0x4 DUP2 DUP9 GAS STATICCALL SWAP6 DUP7 ISZERO PUSH2 0x2B7 JUMPI PUSH1 0x0 SWAP7 PUSH2 0x2C3 JUMPI JUMPDEST POP PUSH1 0x40 MLOAD SWAP5 PUSH4 0x2BB3CB45 PUSH1 0xE2 SHL DUP7 MSTORE DUP5 DUP7 PUSH1 0x4 DUP2 DUP5 GAS STATICCALL SWAP6 DUP7 ISZERO PUSH2 0x2B7 JUMPI PUSH1 0x0 SWAP7 PUSH2 0x27B JUMPI JUMPDEST POP PUSH1 0x7 DUP3 LT ISZERO PUSH2 0x25A JUMPI PUSH1 0x4 DUP3 EQ SWAP5 DUP6 ISZERO PUSH2 0x270 JUMPI JUMPDEST PUSH1 0x40 MLOAD SWAP9 DUP10 MSTORE DUP9 ADD MSTORE PUSH1 0x5 DUP4 LT ISZERO PUSH2 0x25A JUMPI DUP7 SWAP6 PUSH2 0x229 PUSH2 0x23A SWAP3 PUSH2 0x248 SWAP6 PUSH1 0x40 DUP11 ADD MSTORE PUSH1 0x60 DUP10 ADD SWAP1 PUSH2 0x106A JUMP JUMPDEST PUSH2 0x100 DUP1 PUSH1 0x80 DUP10 ADD MSTORE DUP8 ADD SWAP1 PUSH2 0xE64 JUMP JUMPDEST SWAP1 DUP6 DUP3 SUB PUSH1 0xA0 DUP8 ADD MSTORE PUSH2 0xE64 JUMP JUMPDEST SWAP2 ISZERO ISZERO PUSH1 0xC0 DUP5 ADD MSTORE ISZERO PUSH1 0xE0 DUP4 ADD MSTORE SUB SWAP1 RETURN JUMPDEST PUSH4 0x4E487B71 PUSH1 0xE0 SHL PUSH1 0x0 MSTORE PUSH1 0x21 PUSH1 0x4 MSTORE PUSH1 0x24 PUSH1 0x0 REVERT JUMPDEST PUSH1 0x5 DUP4 EQ SWAP6 POP PUSH2 0x1FB JUMP JUMPDEST SWAP1 SWAP6 POP DUP5 DUP2 DUP2 RETURNDATASIZE DUP4 GT PUSH2 0x2B0 JUMPI JUMPDEST PUSH2 0x293 DUP2 DUP4 PUSH2 0xF48 JUMP JUMPDEST DUP2 ADD SUB SLT PUSH2 0x2AB JUMPI PUSH2 0x2A4 SWAP1 PUSH2 0x1077 JUMP JUMPDEST SWAP5 CODESIZE PUSH2 0x1E5 JUMP JUMPDEST PUSH1 0x0 DUP1 REVERT JUMPDEST POP RETURNDATASIZE PUSH2 0x289 JUMP JUMPDEST PUSH1 0x40 MLOAD RETURNDATASIZE PUSH1 0x0 DUP3 RETURNDATACOPY RETURNDATASIZE SWAP1 REVERT JUMPDEST PUSH2 0x2E1 SWAP2 SWAP7 POP RETURNDATASIZE DUP1 PUSH1 0x0 DUP4 RETURNDATACOPY PUSH2 0x2D9 DUP2 DUP4 PUSH2 0xF48 JUMP JUMPDEST DUP2 ADD SWAP1 PUSH2 0x1E08 JUMP JUMPDEST SWAP5 CODESIZE PUSH2 0x1BF JUMP JUMPDEST PUSH2 0x309 SWAP2 SWAP3 POP DUP4 RETURNDATASIZE DUP6 GT PUSH2 0x310 JUMPI JUMPDEST PUSH2 0x301 DUP2 DUP4 PUSH2 0xF48 JUMP JUMPDEST DUP2 ADD SWAP1 PUSH2 0x1098 JUMP JUMPDEST SWAP1 CODESIZE PUSH2 0x198 JUMP JUMPDEST POP RETURNDATASIZE PUSH2 0x2F7 JUMP JUMPDEST PUSH2 0x32D SWAP2 SWAP5 POP RETURNDATASIZE DUP1 PUSH1 0x0 DUP4 RETURNDATACOPY PUSH2 0x2D9 DUP2 DUP4 PUSH2 0xF48 JUMP JUMPDEST SWAP3 CODESIZE PUSH2 0x170 JUMP JUMPDEST PUSH2 0x355 SWAP2 SWAP5 POP DUP3 RETURNDATASIZE DUP5 GT PUSH2 0x35C JUMPI JUMPDEST PUSH2 0x34D DUP2 DUP4 PUSH2 0xF48 JUMP JUMPDEST DUP2 ADD SWAP1 PUSH2 0x1ACC JUMP JUMPDEST SWAP3 CODESIZE PUSH2 0x130 JUMP JUMPDEST POP RETURNDATASIZE PUSH2 0x343 JUMP JUMPDEST SWAP1 DUP1 SWAP3 POP DUP2 DUP2 RETURNDATASIZE DUP4 GT PUSH2 0x393 JUMPI JUMPDEST PUSH2 0x37B DUP2 DUP4 PUSH2 0xF48 JUMP JUMPDEST DUP2 ADD SUB SLT PUSH2 0x2AB JUMPI PUSH2 0x38C SWAP1 PUSH2 0x1084 JUMP JUMPDEST SWAP1 CODESIZE PUSH2 0x10A JUMP JUMPDEST POP RETURNDATASIZE PUSH2 0x371 JUMP JUMPDEST PUSH1 0x84 SWAP1 PUSH1 0x40 MLOAD SWAP1 PUSH3 0x461BCD PUSH1 0xE5 SHL DUP3 MSTORE PUSH1 0x4 DUP3 ADD MSTORE PUSH1 0x2D PUSH1 0x24 DUP3 ADD MSTORE PUSH32 0x496E76616C696420747261636B696E67206E756D626572206F7220736869706D PUSH1 0x44 DUP3 ADD MSTORE PUSH32 0x656E74206E6F7420666F756E6400000000000000000000000000000000000000 PUSH1 0x64 DUP3 ADD MSTORE REVERT JUMPDEST CALLVALUE PUSH2 0x2AB JUMPI PUSH1 0x20 CALLDATASIZE PUSH1 0x3 NOT ADD SLT PUSH2 0x2AB JUMPI PUSH1 0x4 CALLDATALOAD PUSH8 0xFFFFFFFFFFFFFFFF DUP2 GT PUSH2 0x2AB JUMPI PUSH2 0x43A PUSH2 0xD8 PUSH1 0x20 SWAP3 CALLDATASIZE SWAP1 PUSH1 0x4 ADD PUSH2 0xF86 JUMP JUMPDEST PUSH1 0x1 PUSH1 0x1 PUSH1 0xA0 SHL SUB PUSH1 0x40 MLOAD SWAP2 AND DUP2 MSTORE RETURN JUMPDEST CALLVALUE PUSH2 0x2AB JUMPI PUSH1 0x20 DUP1 PUSH1 0x3 NOT CALLDATASIZE ADD SLT PUSH2 0x2AB JUMPI PUSH2 0x465 PUSH2 0xE2B JUMP JUMPDEST SWAP1 PUSH1 0x1 PUSH1 0x1 PUSH1 0xA0 SHL SUB SWAP2 DUP3 DUP3 DUP2 PUSH1 0x1 SLOAD AND SWAP3 PUSH1 0x24 PUSH1 0x40 MLOAD DUP1 SWAP5 DUP2 SWAP4 PUSH32 0xF7BDE1DA00000000000000000000000000000000000000000000000000000000 DUP4 MSTORE AND SWAP6 DUP7 PUSH1 0x4 DUP4 ADD MSTORE GAS STATICCALL SWAP1 DUP2 ISZERO PUSH2 0x2B7 JUMPI PUSH1 0x0 SWAP2 PUSH2 0x67A JUMPI JUMPDEST POP ISZERO PUSH2 0x636 JUMPI SWAP1 PUSH1 0x0 PUSH1 0x4 SWAP3 PUSH1 0x40 MLOAD SWAP4 DUP5 DUP1 SWAP3 PUSH32 0x608FF40500000000000000000000000000000000000000000000000000000000 DUP3 MSTORE GAS STATICCALL DUP1 ISZERO PUSH2 0x2B7 JUMPI PUSH1 0x0 SWAP3 PUSH1 0x0 DUP1 PUSH1 0x0 DUP8 PUSH1 0x0 SWAP3 PUSH1 0x0 SWAP8 PUSH1 0x0 SWAP6 PUSH1 0x0 SWAP8 PUSH1 0x0 SWAP10 PUSH2 0x577 JUMPI JUMPDEST POP DUP4 SWAP1 PUSH1 0x40 MLOAD SWAP13 DUP14 SWAP13 AND DUP13 MSTORE AND SWAP1 DUP11 ADD MSTORE AND PUSH1 0x40 DUP9 ADD MSTORE PUSH2 0x120 DUP1 PUSH1 0x60 DUP10 ADD MSTORE DUP8 ADD PUSH2 0x542 SWAP2 PUSH2 0xE64 JUMP JUMPDEST DUP7 DUP2 SUB PUSH1 0x80 DUP9 ADD MSTORE PUSH2 0x553 SWAP2 PUSH2 0xE64 JUMP JUMPDEST SWAP4 PUSH1 0xA0 DUP7 ADD PUSH2 0x561 SWAP2 PUSH2 0x106A JUMP JUMPDEST PUSH1 0xC0 DUP6 ADD MSTORE PUSH1 0xE0 DUP5 ADD MSTORE ISZERO ISZERO PUSH2 0x100 DUP4 ADD MSTORE SUB SWAP1 RETURN JUMPDEST SWAP11 POP POP SWAP8 POP POP POP POP POP POP POP POP RETURNDATASIZE DUP1 PUSH1 0x0 DUP5 RETURNDATACOPY PUSH2 0x593 DUP2 DUP5 PUSH2 0xF48 JUMP JUMPDEST DUP3 ADD PUSH2 0x120 DUP4 DUP3 SUB SLT PUSH2 0x2AB JUMPI PUSH2 0x5A9 DUP4 PUSH2 0x1084 JUMP JUMPDEST PUSH2 0x5B4 DUP4 DUP6 ADD PUSH2 0x1084 JUMP JUMPDEST SWAP4 PUSH2 0x5C1 PUSH1 0x40 DUP3 ADD PUSH2 0x1084 JUMP JUMPDEST SWAP3 PUSH1 0x60 DUP3 ADD MLOAD PUSH8 0xFFFFFFFFFFFFFFFF SWAP1 DUP2 DUP2 GT PUSH2 0x2AB JUMPI DUP3 PUSH2 0x5E4 SWAP2 DUP6 ADD PUSH2 0x10B0 JUMP JUMPDEST SWAP2 PUSH1 0x80 DUP5 ADD MLOAD SWAP2 DUP3 GT PUSH2 0x2AB JUMPI PUSH2 0x5FC SWAP2 DUP5 ADD PUSH2 0x10B0 JUMP JUMPDEST PUSH1 0xA0 DUP4 ADD MLOAD SWAP2 PUSH1 0x7 DUP4 LT ISZERO PUSH2 0x2AB JUMPI DUP9 SWAP1 PUSH1 0xC0 DUP6 ADD MLOAD SWAP8 DUP3 PUSH2 0x626 PUSH2 0x100 PUSH1 0xE0 DUP10 ADD MLOAD SWAP9 ADD PUSH2 0x1077 JUMP JUMPDEST SWAP8 SWAP11 SWAP9 SWAP3 SWAP5 SWAP6 SWAP10 SWAP7 SWAP8 SWAP9 SWAP1 PUSH2 0x517 JUMP JUMPDEST PUSH1 0x64 DUP3 PUSH1 0x40 MLOAD SWAP1 PUSH3 0x461BCD PUSH1 0xE5 SHL DUP3 MSTORE PUSH1 0x4 DUP3 ADD MSTORE PUSH1 0x17 PUSH1 0x24 DUP3 ADD MSTORE PUSH32 0x536869706D656E74206E6F742072656769737465726564000000000000000000 PUSH1 0x44 DUP3 ADD MSTORE REVERT JUMPDEST SWAP1 POP DUP3 DUP2 DUP2 RETURNDATASIZE DUP4 GT PUSH2 0x6A8 JUMPI JUMPDEST PUSH2 0x691 DUP2 DUP4 PUSH2 0xF48 JUMP JUMPDEST DUP2 ADD SUB SLT PUSH2 0x2AB JUMPI PUSH2 0x6A2 SWAP1 PUSH2 0x1077 JUMP JUMPDEST DUP5 PUSH2 0x4BC JUMP JUMPDEST POP RETURNDATASIZE PUSH2 0x687 JUMP JUMPDEST CALLVALUE PUSH2 0x2AB JUMPI PUSH1 0x20 CALLDATASIZE PUSH1 0x3 NOT ADD SLT PUSH2 0x2AB JUMPI PUSH2 0x726 PUSH1 0xE0 PUSH2 0x734 PUSH2 0x742 PUSH2 0x718 PUSH2 0x6DE PUSH2 0x6D9 PUSH2 0xE2B JUMP JUMPDEST PUSH2 0x1EE8 JUMP JUMPDEST SWAP9 SWAP6 SWAP11 SWAP4 PUSH1 0x1 PUSH1 0x1 PUSH1 0xA0 SHL SUB PUSH2 0x704 PUSH1 0x40 SWAP10 SWAP5 SWAP8 SWAP4 SWAP10 MLOAD SWAP14 DUP14 DUP16 SWAP15 DUP16 SWAP1 DUP2 MSTORE ADD SWAP1 PUSH2 0xE64 JUMP JUMPDEST SWAP3 AND PUSH1 0x20 DUP13 ADD MSTORE DUP11 DUP3 SUB PUSH1 0x40 DUP13 ADD MSTORE PUSH2 0xFCD JUMP JUMPDEST SWAP1 DUP9 DUP3 SUB PUSH1 0x60 DUP11 ADD MSTORE PUSH2 0xFCD JUMP JUMPDEST SWAP1 DUP7 DUP3 SUB PUSH1 0x80 DUP9 ADD MSTORE PUSH2 0xFCD JUMP JUMPDEST SWAP1 DUP5 DUP3 SUB PUSH1 0xA0 DUP7 ADD MSTORE PUSH2 0xFCD JUMP JUMPDEST SWAP1 ISZERO ISZERO PUSH1 0xC0 DUP4 ADD MSTORE SUB SWAP1 RETURN JUMPDEST CALLVALUE PUSH2 0x2AB JUMPI PUSH1 0x0 CALLDATASIZE PUSH1 0x3 NOT ADD SLT PUSH2 0x2AB JUMPI PUSH1 0x20 PUSH1 0x1 PUSH1 0x1 PUSH1 0xA0 SHL SUB PUSH1 0x1 SLOAD AND PUSH1 0x40 MLOAD SWAP1 DUP2 MSTORE RETURN JUMPDEST CALLVALUE PUSH2 0x2AB JUMPI PUSH1 0x20 CALLDATASIZE PUSH1 0x3 NOT ADD SLT PUSH2 0x2AB JUMPI PUSH2 0x78E PUSH2 0xE2B JUMP JUMPDEST PUSH2 0x796 PUSH2 0x1DC1 JUMP JUMPDEST POP PUSH2 0x79F PUSH2 0x1DC1 JUMP JUMPDEST POP PUSH2 0x7A8 PUSH2 0x1DC1 JUMP JUMPDEST POP PUSH2 0x7B1 PUSH2 0x1DC1 JUMP JUMPDEST POP PUSH1 0x0 SWAP1 PUSH1 0x60 SWAP1 PUSH1 0x40 MLOAD SWAP1 PUSH32 0xB36E609F00000000000000000000000000000000000000000000000000000000 DUP3 MSTORE PUSH1 0x1 PUSH1 0x1 PUSH1 0xA0 SHL SUB DUP2 AND PUSH1 0x4 DUP4 ADD MSTORE PUSH1 0x0 DUP3 PUSH1 0x24 DUP2 ADDRESS GAS STATICCALL DUP1 ISZERO PUSH2 0x2B7 JUMPI PUSH1 0x0 SWAP5 PUSH1 0x0 SWAP1 PUSH1 0x0 DUP1 PUSH1 0x0 SWAP6 PUSH1 0x0 SWAP8 PUSH1 0x0 SWAP7 PUSH2 0xB36 JUMPI JUMPDEST POP PUSH2 0x826 PUSH1 0x1 PUSH1 0x1 PUSH1 0xA0 SHL SUB SWAP2 PUSH2 0x2772 JUMP JUMPDEST AND SWAP4 DUP5 PUSH2 0x96E JUMPI JUMPDEST SWAP9 SWAP8 SWAP7 SWAP5 SWAP4 SWAP3 SWAP2 SWAP1 PUSH1 0x40 MLOAD SWAP10 DUP11 SWAP10 PUSH2 0x140 DUP1 DUP13 MSTORE DUP12 ADD PUSH2 0x84D SWAP2 PUSH2 0xE64 JUMP JUMPDEST SWAP1 PUSH1 0x1 PUSH1 0x1 PUSH1 0xA0 SHL SUB AND PUSH1 0x20 DUP12 ADD MSTORE DUP10 DUP2 SUB PUSH1 0x40 DUP12 ADD MSTORE PUSH2 0x86D SWAP2 PUSH2 0xFCD JUMP JUMPDEST DUP9 DUP2 SUB PUSH1 0x60 DUP11 ADD MSTORE PUSH2 0x87E SWAP2 PUSH2 0xFCD JUMP JUMPDEST SWAP5 PUSH1 0x80 SWAP6 DUP9 DUP2 SUB DUP8 DUP11 ADD MSTORE PUSH2 0x892 SWAP2 PUSH2 0xFCD JUMP JUMPDEST SWAP4 PUSH1 0xA0 SWAP5 DUP9 DUP2 SUB DUP7 DUP11 ADD MSTORE PUSH2 0x8A6 SWAP2 PUSH2 0xFCD JUMP JUMPDEST SWAP3 ISZERO ISZERO PUSH1 0xC0 DUP9 ADD MSTORE ISZERO ISZERO PUSH1 0xE0 DUP8 ADD MSTORE PUSH2 0x100 DUP7 ADD MSTORE DUP5 DUP2 SUB PUSH2 0x120 DUP7 ADD MSTORE DUP4 MLOAD SWAP2 DUP3 DUP3 MSTORE PUSH1 0x20 DUP3 ADD SWAP1 DUP4 PUSH1 0x5 SHL DUP4 ADD PUSH1 0x20 ADD SWAP6 PUSH1 0x20 ADD SWAP5 PUSH1 0x0 SWAP4 JUMPDEST DUP6 DUP6 LT PUSH2 0x8EE JUMPI DUP9 DUP9 SUB DUP10 RETURN JUMPDEST SWAP2 SWAP4 SWAP6 SWAP8 POP SWAP2 SWAP4 SWAP6 PUSH1 0x20 DUP1 PUSH2 0x95A PUSH1 0x1 SWAP4 PUSH1 0x1F NOT DUP7 DUP3 SUB ADD DUP10 MSTORE DUP12 MLOAD SWAP1 DUP2 MLOAD DUP2 MSTORE PUSH2 0x91F DUP5 DUP4 ADD MLOAD DUP6 DUP4 ADD SWAP1 PUSH2 0x106A JUMP JUMPDEST PUSH1 0x1 PUSH1 0x1 PUSH1 0xA0 SHL SUB PUSH1 0x40 DUP4 ADD MLOAD AND PUSH1 0x40 DUP3 ADD MSTORE DUP8 PUSH2 0x94A PUSH1 0x60 DUP5 ADD MLOAD DUP12 PUSH1 0x60 DUP6 ADD MSTORE DUP12 DUP5 ADD SWAP1 PUSH2 0xE64 JUMP JUMPDEST SWAP3 ADD MLOAD SWAP1 DUP9 DUP2 DUP5 SUB SWAP2 ADD MSTORE PUSH2 0xE64 JUMP JUMPDEST SWAP10 ADD SWAP6 ADD SWAP6 ADD SWAP3 SWAP1 SWAP2 DUP9 SWAP8 SWAP7 SWAP5 SWAP6 SWAP3 PUSH2 0x8E1 JUMP JUMPDEST PUSH1 0x40 MLOAD PUSH32 0x1D60A29A00000000000000000000000000000000000000000000000000000000 DUP2 MSTORE SWAP1 SWAP9 PUSH1 0x1 SWAP5 POP PUSH1 0x0 DUP3 PUSH1 0x4 DUP2 DUP10 GAS STATICCALL SWAP2 DUP3 ISZERO PUSH2 0x2B7 JUMPI PUSH1 0x0 SWAP3 PUSH2 0x9BA JUMPI JUMPDEST POP POP SWAP8 PUSH2 0x82E JUMP JUMPDEST SWAP1 SWAP2 POP RETURNDATASIZE SWAP1 DUP2 PUSH1 0x0 DUP3 RETURNDATACOPY PUSH2 0x9CE DUP3 DUP3 PUSH2 0xF48 JUMP JUMPDEST PUSH1 0x20 DUP2 DUP4 DUP2 ADD SUB SLT PUSH2 0x2AB JUMPI DUP1 MLOAD SWAP1 PUSH8 0xFFFFFFFFFFFFFFFF DUP3 GT PUSH2 0x2AB JUMPI DUP3 DUP2 ADD PUSH1 0x1F DUP4 DUP4 ADD ADD SLT ISZERO PUSH2 0x2AB JUMPI DUP2 DUP2 ADD MLOAD SWAP2 PUSH2 0xA09 DUP4 PUSH2 0x2689 JUMP JUMPDEST SWAP5 PUSH2 0xA17 PUSH1 0x40 MLOAD SWAP7 DUP8 PUSH2 0xF48 JUMP JUMPDEST DUP4 DUP7 MSTORE PUSH1 0x20 DUP7 ADD SWAP2 DUP6 DUP5 ADD PUSH1 0x20 DUP7 PUSH1 0x5 SHL DUP4 DUP8 ADD ADD ADD GT PUSH2 0x2AB JUMPI PUSH1 0x20 DUP2 DUP6 ADD ADD SWAP3 JUMPDEST PUSH1 0x20 DUP7 PUSH1 0x5 SHL DUP4 DUP8 ADD ADD ADD DUP5 LT PUSH2 0xA59 JUMPI POP POP POP POP POP POP POP DUP11 DUP1 PUSH2 0x9B2 JUMP JUMPDEST DUP4 MLOAD PUSH8 0xFFFFFFFFFFFFFFFF DUP2 GT PUSH2 0x2AB JUMPI PUSH1 0xA0 DUP7 DUP5 ADD DUP3 ADD DUP10 DUP9 ADD SUB PUSH1 0x1F NOT ADD SLT PUSH2 0x2AB JUMPI PUSH1 0x40 MLOAD SWAP2 PUSH2 0xA8B DUP4 PUSH2 0xEA5 JUMP JUMPDEST DUP7 DUP5 ADD DUP3 ADD PUSH1 0x20 DUP2 ADD MLOAD DUP5 MSTORE PUSH1 0x40 ADD MLOAD PUSH1 0x7 DUP2 LT ISZERO PUSH2 0x2AB JUMPI PUSH1 0x20 DUP5 ADD MSTORE PUSH2 0xAB8 DUP6 DUP4 DUP7 DUP11 ADD ADD ADD PUSH2 0x1084 JUMP JUMPDEST PUSH1 0x40 DUP5 ADD MSTORE PUSH1 0x80 DUP3 DUP6 DUP10 ADD ADD ADD MLOAD PUSH8 0xFFFFFFFFFFFFFFFF DUP2 GT PUSH2 0x2AB JUMPI PUSH2 0xAEB SWAP1 PUSH1 0x20 DUP12 DUP11 ADD SWAP2 DUP6 DUP9 DUP13 ADD ADD ADD ADD PUSH2 0x10B0 JUMP JUMPDEST DUP6 DUP5 ADD MSTORE PUSH1 0xA0 DUP3 DUP6 DUP10 ADD ADD ADD MLOAD SWAP1 PUSH8 0xFFFFFFFFFFFFFFFF DUP3 GT PUSH2 0x2AB JUMPI PUSH1 0x20 SWAP4 PUSH2 0xB24 DUP10 DUP7 DUP1 SWAP7 SWAP6 DUP2 SWAP7 DUP16 DUP12 SWAP1 DUP6 ADD SWAP5 ADD ADD ADD ADD PUSH2 0x10B0 JUMP JUMPDEST PUSH1 0x80 DUP3 ADD MSTORE DUP2 MSTORE ADD SWAP5 ADD SWAP4 SWAP1 POP PUSH2 0xA3A JUMP JUMPDEST SWAP7 POP SWAP9 POP POP POP SWAP4 POP POP POP RETURNDATASIZE DUP1 PUSH1 0x0 DUP4 RETURNDATACOPY PUSH2 0xB50 DUP2 DUP4 PUSH2 0xF48 JUMP JUMPDEST DUP2 ADD SWAP4 PUSH1 0xE0 DUP3 DUP7 SUB SLT PUSH2 0x2AB JUMPI DUP2 MLOAD PUSH8 0xFFFFFFFFFFFFFFFF SWAP1 DUP2 DUP2 GT PUSH2 0x2AB JUMPI DUP7 PUSH2 0xB7C SWAP2 DUP6 ADD PUSH2 0x10B0 JUMP JUMPDEST SWAP4 PUSH2 0xB89 PUSH1 0x20 DUP6 ADD PUSH2 0x1084 JUMP JUMPDEST SWAP7 PUSH1 0x40 DUP6 ADD MLOAD DUP4 DUP2 GT PUSH2 0x2AB JUMPI DUP2 PUSH2 0xBA2 SWAP2 DUP8 ADD PUSH2 0x25A9 JUMP JUMPDEST SWAP3 DUP8 DUP7 ADD MLOAD DUP2 DUP2 GT PUSH2 0x2AB JUMPI DUP3 PUSH2 0xBBA SWAP2 DUP9 ADD PUSH2 0x25A9 JUMP JUMPDEST SWAP1 PUSH1 0x80 DUP8 ADD MLOAD DUP2 DUP2 GT PUSH2 0x2AB JUMPI DUP4 PUSH2 0xBD3 SWAP2 DUP10 ADD PUSH2 0x25A9 JUMP JUMPDEST SWAP3 PUSH1 0xA0 DUP9 ADD MLOAD SWAP2 DUP3 GT PUSH2 0x2AB JUMPI PUSH2 0xC03 PUSH1 0xC0 PUSH2 0xBFC PUSH2 0x826 SWAP4 PUSH1 0x1 PUSH1 0x1 PUSH1 0xA0 SHL SUB SWAP6 DUP13 ADD PUSH2 0x25A9 JUMP JUMPDEST SWAP10 ADD PUSH2 0x1077 JUMP JUMPDEST SWAP9 SWAP11 SWAP6 SWAP3 SWAP4 SWAP8 SWAP9 SWAP7 SWAP2 POP PUSH2 0x814 JUMP JUMPDEST CALLVALUE PUSH2 0x2AB JUMPI PUSH1 0x20 CALLDATASIZE PUSH1 0x3 NOT ADD SLT PUSH2 0x2AB JUMPI PUSH1 0x20 PUSH2 0x43A PUSH2 0xC30 PUSH2 0xE2B JUMP JUMPDEST PUSH2 0x2772 JUMP JUMPDEST CALLVALUE PUSH2 0x2AB JUMPI PUSH1 0x40 CALLDATASIZE PUSH1 0x3 NOT ADD SLT PUSH2 0x2AB JUMPI PUSH2 0xC4E PUSH2 0xE2B JUMP JUMPDEST PUSH1 0x24 CALLDATALOAD PUSH8 0xFFFFFFFFFFFFFFFF DUP2 GT PUSH2 0x2AB JUMPI PUSH2 0xC6E SWAP1 CALLDATASIZE SWAP1 PUSH1 0x4 ADD PUSH2 0xF86 JUMP JUMPDEST SWAP1 PUSH1 0x1 PUSH1 0x1 PUSH1 0xA0 SHL SUB DUP1 PUSH1 0x0 SLOAD AND SWAP2 PUSH1 0x40 MLOAD DUP1 SWAP4 PUSH32 0x75C81B7B00000000000000000000000000000000000000000000000000000000 DUP3 MSTORE CALLER PUSH1 0x4 DUP4 ADD MSTORE DUP2 PUSH1 0x24 PUSH1 0x20 SWAP7 DUP8 SWAP4 GAS STATICCALL SWAP1 DUP2 ISZERO PUSH2 0x2B7 JUMPI PUSH1 0x0 SWAP2 PUSH2 0xD7C JUMPI JUMPDEST POP ISZERO PUSH2 0xD12 JUMPI SWAP1 PUSH32 0xE8862BFF108980A0995D14137B0B1CDFD57056831C5BB5935AEDCE1A46A96ADC SWAP2 PUSH2 0xD02 PUSH1 0x40 MLOAD SWAP6 PUSH1 0x40 DUP8 MSTORE PUSH1 0x40 DUP8 ADD SWAP1 PUSH2 0xE64 JUMP JUMPDEST SWAP4 TIMESTAMP SWAP1 DUP7 ADD MSTORE AND SWAP3 DUP1 CALLER SWAP4 SUB SWAP1 LOG3 STOP JUMPDEST PUSH1 0x84 DUP4 PUSH1 0x40 MLOAD SWAP1 PUSH3 0x461BCD PUSH1 0xE5 SHL DUP3 MSTORE PUSH1 0x4 DUP3 ADD MSTORE PUSH1 0x2F PUSH1 0x24 DUP3 ADD MSTORE PUSH32 0x4F6E6C792072656769737465726564207374616B65686F6C646572732063616E PUSH1 0x44 DUP3 ADD MSTORE PUSH32 0x20706572666F726D206175646974730000000000000000000000000000000000 PUSH1 0x64 DUP3 ADD MSTORE REVERT JUMPDEST SWAP1 POP DUP4 DUP2 DUP2 RETURNDATASIZE DUP4 GT PUSH2 0xDAA JUMPI JUMPDEST PUSH2 0xD93 DUP2 DUP4 PUSH2 0xF48 JUMP JUMPDEST DUP2 ADD SUB SLT PUSH2 0x2AB JUMPI PUSH2 0xDA4 SWAP1 PUSH2 0x1077 JUMP JUMPDEST DUP6 PUSH2 0xCC4 JUMP JUMPDEST POP RETURNDATASIZE PUSH2 0xD89 JUMP JUMPDEST CALLVALUE PUSH2 0x2AB JUMPI PUSH1 0x20 CALLDATASIZE PUSH1 0x3 NOT ADD SLT PUSH2 0x2AB JUMPI PUSH2 0xDD2 PUSH2 0xDCD PUSH2 0xE2B JUMP JUMPDEST PUSH2 0x11E9 JUMP JUMPDEST SWAP1 PUSH2 0xDE2 PUSH1 0x40 MLOAD SWAP3 DUP4 SWAP3 DUP4 PUSH2 0xE89 JUMP JUMPDEST SUB SWAP1 RETURN JUMPDEST CALLVALUE PUSH2 0x2AB JUMPI PUSH1 0x20 CALLDATASIZE PUSH1 0x3 NOT ADD SLT PUSH2 0x2AB JUMPI PUSH2 0xDD2 PUSH2 0xE02 PUSH2 0xE2B JUMP JUMPDEST PUSH2 0x1AE4 JUMP JUMPDEST CALLVALUE PUSH2 0x2AB JUMPI PUSH1 0x0 CALLDATASIZE PUSH1 0x3 NOT ADD SLT PUSH2 0x2AB JUMPI PUSH1 0x20 SWAP1 PUSH1 0x1 PUSH1 0x1 PUSH1 0xA0 SHL SUB PUSH1 0x0 SLOAD AND DUP2 MSTORE RETURN JUMPDEST PUSH1 0x4 CALLDATALOAD SWAP1 PUSH1 0x1 PUSH1 0x1 PUSH1 0xA0 SHL SUB DUP3 AND DUP3 SUB PUSH2 0x2AB JUMPI JUMP JUMPDEST PUSH1 0x0 JUMPDEST DUP4 DUP2 LT PUSH2 0xE54 JUMPI POP POP PUSH1 0x0 SWAP2 ADD MSTORE JUMP JUMPDEST DUP2 DUP2 ADD MLOAD DUP4 DUP3 ADD MSTORE PUSH1 0x20 ADD PUSH2 0xE44 JUMP JUMPDEST SWAP1 PUSH1 0x20 SWAP2 PUSH2 0xE7D DUP2 MLOAD DUP1 SWAP3 DUP2 DUP6 MSTORE DUP6 DUP1 DUP7 ADD SWAP2 ADD PUSH2 0xE41 JUMP JUMPDEST PUSH1 0x1F ADD PUSH1 0x1F NOT AND ADD ADD SWAP1 JUMP JUMPDEST PUSH1 0x40 SWAP1 PUSH2 0xEA2 SWAP4 SWAP3 ISZERO ISZERO DUP2 MSTORE DUP2 PUSH1 0x20 DUP3 ADD MSTORE ADD SWAP1 PUSH2 0xE64 JUMP JUMPDEST SWAP1 JUMP JUMPDEST PUSH1 0xA0 DUP2 ADD SWAP1 DUP2 LT PUSH8 0xFFFFFFFFFFFFFFFF DUP3 GT OR PUSH2 0xEC1 JUMPI PUSH1 0x40 MSTORE JUMP JUMPDEST PUSH4 0x4E487B71 PUSH1 0xE0 SHL PUSH1 0x0 MSTORE PUSH1 0x41 PUSH1 0x4 MSTORE PUSH1 0x24 PUSH1 0x0 REVERT JUMPDEST PUSH2 0x120 DUP2 ADD SWAP1 DUP2 LT PUSH8 0xFFFFFFFFFFFFFFFF DUP3 GT OR PUSH2 0xEC1 JUMPI PUSH1 0x40 MSTORE JUMP JUMPDEST PUSH1 0x60 DUP2 ADD SWAP1 DUP2 LT PUSH8 0xFFFFFFFFFFFFFFFF DUP3 GT OR PUSH2 0xEC1 JUMPI PUSH1 0x40 MSTORE JUMP JUMPDEST PUSH1 0x20 DUP2 ADD SWAP1 DUP2 LT PUSH8 0xFFFFFFFFFFFFFFFF DUP3 GT OR PUSH2 0xEC1 JUMPI PUSH1 0x40 MSTORE JUMP JUMPDEST PUSH1 0x40 DUP2 ADD SWAP1 DUP2 LT PUSH8 0xFFFFFFFFFFFFFFFF DUP3 GT OR PUSH2 0xEC1 JUMPI PUSH1 0x40 MSTORE JUMP JUMPDEST SWAP1 PUSH1 0x1F DUP1 NOT SWAP2 ADD AND DUP2 ADD SWAP1 DUP2 LT PUSH8 0xFFFFFFFFFFFFFFFF DUP3 GT OR PUSH2 0xEC1 JUMPI PUSH1 0x40 MSTORE JUMP JUMPDEST PUSH8 0xFFFFFFFFFFFFFFFF DUP2 GT PUSH2 0xEC1 JUMPI PUSH1 0x1F ADD PUSH1 0x1F NOT AND PUSH1 0x20 ADD SWAP1 JUMP JUMPDEST DUP2 PUSH1 0x1F DUP3 ADD SLT ISZERO PUSH2 0x2AB JUMPI DUP1 CALLDATALOAD SWAP1 PUSH2 0xF9D DUP3 PUSH2 0xF6A JUMP JUMPDEST SWAP3 PUSH2 0xFAB PUSH1 0x40 MLOAD SWAP5 DUP6 PUSH2 0xF48 JUMP JUMPDEST DUP3 DUP5 MSTORE PUSH1 0x20 DUP4 DUP4 ADD ADD GT PUSH2 0x2AB JUMPI DUP2 PUSH1 0x0 SWAP3 PUSH1 0x20 DUP1 SWAP4 ADD DUP4 DUP7 ADD CALLDATACOPY DUP4 ADD ADD MSTORE SWAP1 JUMP JUMPDEST SWAP1 PUSH1 0x1 PUSH1 0x1 PUSH1 0xA0 SHL SUB DUP3 MLOAD AND DUP2 MSTORE PUSH1 0x20 DUP3 ADD MLOAD PUSH1 0x4 DUP2 LT ISZERO PUSH2 0x25A JUMPI PUSH1 0x20 DUP3 ADD MSTORE PUSH2 0x1046 PUSH2 0x1034 PUSH2 0x1022 PUSH2 0x1010 PUSH1 0x40 DUP7 ADD MLOAD PUSH2 0x120 DUP1 PUSH1 0x40 DUP9 ADD MSTORE DUP7 ADD SWAP1 PUSH2 0xE64 JUMP JUMPDEST PUSH1 0x60 DUP7 ADD MLOAD DUP6 DUP3 SUB PUSH1 0x60 DUP8 ADD MSTORE PUSH2 0xE64 JUMP JUMPDEST PUSH1 0x80 DUP6 ADD MLOAD DUP5 DUP3 SUB PUSH1 0x80 DUP7 ADD MSTORE PUSH2 0xE64 JUMP JUMPDEST PUSH1 0xA0 DUP5 ADD MLOAD DUP4 DUP3 SUB PUSH1 0xA0 DUP6 ADD MSTORE PUSH2 0xE64 JUMP JUMPDEST SWAP2 PUSH1 0xC0 DUP2 ADD MLOAD ISZERO ISZERO PUSH1 0xC0 DUP4 ADD MSTORE PUSH1 0xE0 DUP2 ADD MLOAD PUSH1 0xE0 DUP4 ADD MSTORE PUSH2 0x100 DUP1 SWAP2 ADD MLOAD SWAP2 ADD MSTORE SWAP1 JUMP JUMPDEST SWAP1 PUSH1 0x7 DUP3 LT ISZERO PUSH2 0x25A JUMPI MSTORE JUMP JUMPDEST MLOAD SWAP1 DUP2 ISZERO ISZERO DUP3 SUB PUSH2 0x2AB JUMPI JUMP JUMPDEST MLOAD SWAP1 PUSH1 0x1 PUSH1 0x1 PUSH1 0xA0 SHL SUB DUP3 AND DUP3 SUB PUSH2 0x2AB JUMPI JUMP JUMPDEST SWAP1 DUP2 PUSH1 0x20 SWAP2 SUB SLT PUSH2 0x2AB JUMPI MLOAD PUSH1 0x5 DUP2 LT ISZERO PUSH2 0x2AB JUMPI SWAP1 JUMP JUMPDEST DUP2 PUSH1 0x1F DUP3 ADD SLT ISZERO PUSH2 0x2AB JUMPI DUP1 MLOAD PUSH2 0x10C6 DUP2 PUSH2 0xF6A JUMP JUMPDEST SWAP3 PUSH2 0x10D4 PUSH1 0x40 MLOAD SWAP5 DUP6 PUSH2 0xF48 JUMP JUMPDEST DUP2 DUP5 MSTORE PUSH1 0x20 DUP3 DUP5 ADD ADD GT PUSH2 0x2AB JUMPI PUSH2 0xEA2 SWAP2 PUSH1 0x20 DUP1 DUP6 ADD SWAP2 ADD PUSH2 0xE41 JUMP JUMPDEST SWAP2 SWAP1 DUP3 DUP2 SUB SWAP3 PUSH2 0x140 DUP5 SLT PUSH2 0x2AB JUMPI PUSH1 0x40 DUP1 MLOAD SWAP3 PUSH1 0xC0 DUP5 ADD SWAP6 PUSH8 0xFFFFFFFFFFFFFFFF SWAP7 DUP6 DUP2 LT DUP9 DUP3 GT OR PUSH2 0xEC1 JUMPI DUP4 MSTORE DUP5 SWAP7 PUSH2 0x112D DUP6 PUSH2 0x1084 JUMP JUMPDEST DUP7 MSTORE PUSH1 0x20 DUP6 ADD MLOAD PUSH4 0xFFFFFFFF DUP2 AND DUP2 SUB PUSH2 0x2AB JUMPI PUSH1 0x20 DUP8 ADD MSTORE DUP4 DUP6 ADD MLOAD SWAP1 DUP2 GT PUSH2 0x2AB JUMPI PUSH1 0xA0 SWAP3 PUSH2 0x115F SWAP2 DUP7 ADD PUSH2 0x10B0 JUMP JUMPDEST DUP4 DUP7 ADD MSTORE PUSH1 0x60 DUP5 ADD MLOAD PUSH1 0x60 DUP7 ADD MSTORE PUSH1 0x7F NOT ADD SLT PUSH2 0x2AB JUMPI PUSH1 0xA0 SWAP2 DUP2 PUSH2 0x120 SWAP3 MLOAD SWAP1 PUSH2 0x1189 DUP3 PUSH2 0xEA5 JUMP JUMPDEST PUSH1 0x80 DUP4 ADD MLOAD DUP3 MSTORE DUP5 DUP4 ADD MLOAD PUSH1 0x20 DUP4 ADD MSTORE PUSH1 0xC0 DUP4 ADD MLOAD SWAP1 DUP3 ADD MSTORE PUSH1 0xE0 DUP3 ADD MLOAD PUSH1 0x60 DUP3 ADD MSTORE PUSH2 0x100 DUP3 ADD MLOAD PUSH1 0x80 DUP3 ADD MSTORE PUSH1 0x80 DUP6 ADD MSTORE ADD MLOAD SWAP2 ADD MSTORE JUMP JUMPDEST SWAP1 PUSH1 0x20 DUP3 DUP3 SUB SLT PUSH2 0x2AB JUMPI DUP2 MLOAD PUSH8 0xFFFFFFFFFFFFFFFF DUP2 GT PUSH2 0x2AB JUMPI PUSH2 0xEA2 SWAP3 ADD PUSH2 0x10F2 JUMP JUMPDEST SWAP1 PUSH1 0x1 PUSH1 0x1 PUSH1 0xA0 SHL SUB DUP1 SWAP3 AND PUSH1 0x40 SWAP3 DUP4 MLOAD SWAP1 TIMESTAMP DUP3 MSTORE PUSH1 0x20 SWAP2 DUP4 PUSH32 0x5B24EC9325290E90F98603E1CEA596AECED3764CD98CF986481806902C417CAC DUP5 CALLER SWAP4 LOG3 DUP5 MLOAD SWAP1 PUSH4 0x2BB3CB45 PUSH1 0xE2 SHL DUP3 MSTORE PUSH1 0x4 SWAP2 DUP4 DUP2 DUP5 DUP2 DUP9 GAS STATICCALL PUSH1 0x0 SWAP2 DUP2 PUSH2 0x1A95 JUMPI JUMPDEST POP PUSH2 0x12F5 JUMPI POP POP POP PUSH1 0x60 PUSH32 0x973665348F42BFC7C7A342C88470083764BB1751A06AC27BBBEFF69A4284648E SWAP2 DUP6 MLOAD SWAP6 PUSH2 0x127F DUP8 PUSH2 0xEF4 JUMP JUMPDEST PUSH1 0x28 DUP8 MSTORE PUSH32 0x50726F64756374206E6F7420666F756E64206F7220766572696669636174696F DUP3 DUP9 ADD MSTORE PUSH32 0x6E206661696C6564000000000000000000000000000000000000000000000000 DUP2 DUP9 ADD MSTORE DUP1 MLOAD SWAP3 DUP4 SWAP3 PUSH1 0x0 DUP5 MSTORE DUP4 ADD MSTORE PUSH2 0x12E6 PUSH1 0x60 DUP4 ADD DUP9 PUSH2 0xE64 JUMP JUMPDEST SWAP1 TIMESTAMP SWAP1 DUP4 ADD MSTORE SUB SWAP1 LOG2 PUSH1 0x0 SWAP2 SWAP1 JUMP JUMPDEST ISZERO PUSH2 0x19FC JUMPI PUSH1 0x1 SWAP1 DUP7 MLOAD PUSH2 0x1308 DUP2 PUSH2 0xF10 JUMP JUMPDEST PUSH1 0x0 DUP2 MSTORE SWAP3 DUP8 MLOAD SWAP1 PUSH4 0xD811FCF PUSH1 0xE4 SHL DUP3 MSTORE DUP6 DUP3 DUP3 DUP2 DUP11 GAS STATICCALL SWAP2 DUP3 ISZERO PUSH2 0x19F1 JUMPI PUSH1 0x0 SWAP3 PUSH2 0x19BA JUMPI JUMPDEST POP DUP3 PUSH1 0x0 SLOAD AND SWAP1 DUP10 MLOAD SWAP3 DUP5 PUSH32 0x30044BCC00000000000000000000000000000000000000000000000000000000 SWAP2 DUP3 DUP7 MSTORE AND DUP3 DUP6 ADD MSTORE PUSH1 0x24 SWAP4 PUSH1 0x0 DUP6 DUP3 ADD MSTORE DUP9 DUP2 PUSH1 0x44 DUP2 DUP8 GAS STATICCALL SWAP1 DUP2 ISZERO PUSH2 0x1653 JUMPI PUSH1 0x0 SWAP2 PUSH2 0x1985 JUMPI JUMPDEST POP ISZERO PUSH2 0x1944 JUMPI JUMPDEST DUP11 MLOAD PUSH4 0x16FD7553 PUSH1 0xE2 SHL DUP2 MSTORE DUP9 DUP2 DUP5 DUP2 DUP14 GAS STATICCALL DUP13 DUP2 ISZERO PUSH2 0x193A JUMPI DUP12 DUP8 SWAP2 DUP11 SWAP5 PUSH1 0x0 SWAP5 PUSH2 0x191B JUMPI JUMPDEST POP DUP5 DUP1 PUSH2 0x18FD JUMPI JUMPDEST PUSH2 0x17C7 JUMPI JUMPDEST DUP5 DUP1 PUSH2 0x17A9 JUMPI JUMPDEST PUSH2 0x1687 JUMPI JUMPDEST POP POP POP DUP2 PUSH2 0x165E JUMPI JUMPDEST POP PUSH2 0x151D JUMPI JUMPDEST POP POP POP POP POP PUSH1 0x0 EQ PUSH2 0x148E JUMPI POP PUSH1 0x60 PUSH32 0x973665348F42BFC7C7A342C88470083764BB1751A06AC27BBBEFF69A4284648E SWAP2 DUP6 MLOAD SWAP6 PUSH2 0x1418 DUP8 PUSH2 0xEF4 JUMP JUMPDEST PUSH1 0x32 DUP8 MSTORE PUSH32 0x50726F647563742069732061757468656E74696320616E6420616C6C20737461 DUP3 DUP9 ADD MSTORE PUSH32 0x6B65686F6C646572732076657269666965640000000000000000000000000000 DUP2 DUP9 ADD MSTORE DUP1 MLOAD SWAP3 DUP4 SWAP3 PUSH1 0x1 DUP5 MSTORE DUP4 ADD MSTORE PUSH2 0x147F PUSH1 0x60 DUP4 ADD DUP9 PUSH2 0xE64 JUMP JUMPDEST SWAP1 TIMESTAMP SWAP1 DUP4 ADD MSTORE SUB SWAP1 LOG2 PUSH1 0x1 SWAP2 SWAP1 JUMP JUMPDEST SWAP4 PUSH32 0x973665348F42BFC7C7A342C88470083764BB1751A06AC27BBBEFF69A4284648E SWAP2 DUP2 PUSH2 0x1504 PUSH1 0x37 PUSH1 0x60 SWAP5 MLOAD DUP1 SWAP10 PUSH32 0x50726F6475637420646174612076616C69642062757420000000000000000000 DUP7 DUP4 ADD MSTORE PUSH2 0x14F4 DUP2 MLOAD DUP1 SWAP3 DUP9 DUP7 DUP7 ADD SWAP2 ADD PUSH2 0xE41 JUMP JUMPDEST DUP2 ADD SUB PUSH1 0x17 DUP2 ADD DUP11 MSTORE ADD DUP9 PUSH2 0xF48 JUMP JUMPDEST DUP1 MLOAD SWAP3 DUP4 SWAP3 PUSH1 0x0 DUP5 MSTORE DUP4 ADD MSTORE PUSH2 0x12E6 PUSH1 0x60 DUP4 ADD DUP9 PUSH2 0xE64 JUMP JUMPDEST DUP11 MLOAD SWAP3 PUSH4 0x2DF9FD51 PUSH1 0xE0 SHL DUP5 MSTORE PUSH1 0x3 DUP4 DUP6 ADD MSTORE PUSH1 0x0 DUP5 DUP7 DUP2 DUP14 GAS STATICCALL SWAP6 DUP7 ISZERO PUSH2 0x1653 JUMPI DUP10 SWAP5 PUSH1 0x0 SWAP8 PUSH2 0x1630 JUMPI JUMPDEST POP PUSH4 0xFFFFFFFF DUP6 DUP9 ADD MLOAD AND ISZERO ISZERO SWAP7 DUP8 PUSH2 0x15B1 JUMPI JUMPDEST POP POP POP POP POP POP POP PUSH2 0x1573 JUMPI JUMPDEST CODESIZE DUP1 DUP1 DUP1 DUP1 PUSH2 0x13DB JUMP JUMPDEST POP POP PUSH1 0x0 DUP5 MLOAD PUSH2 0x1582 DUP2 PUSH2 0xF2C JUMP JUMPDEST PUSH1 0x1D DUP2 MSTORE PUSH32 0x52657461696C657220726567697374726174696F6E20696E76616C6964000000 DUP4 DUP3 ADD MSTORE SWAP1 PUSH2 0x1569 JUMP JUMPDEST PUSH1 0x44 SWAP5 SWAP6 SWAP7 SWAP8 POP SWAP1 PUSH1 0x2 SWAP2 MLOAD AND SWAP7 DUP14 MLOAD SWAP8 DUP9 SWAP7 DUP8 SWAP6 DUP7 MSTORE DUP6 ADD MSTORE DUP4 ADD MSTORE GAS STATICCALL SWAP1 DUP2 ISZERO PUSH2 0x1625 JUMPI PUSH1 0x0 SWAP2 PUSH2 0x15ED JUMPI JUMPDEST POP ISZERO CODESIZE DUP5 DUP2 DUP1 DUP1 DUP1 DUP1 PUSH2 0x155D JUMP JUMPDEST SWAP1 DUP5 DUP3 DUP2 RETURNDATASIZE DUP4 GT PUSH2 0x161E JUMPI JUMPDEST PUSH2 0x1603 DUP2 DUP4 PUSH2 0xF48 JUMP JUMPDEST DUP2 ADD SUB SLT PUSH2 0x161B JUMPI POP PUSH2 0x1615 SWAP1 PUSH2 0x1077 JUMP JUMPDEST CODESIZE PUSH2 0x15DF JUMP JUMPDEST DUP1 REVERT JUMPDEST POP RETURNDATASIZE PUSH2 0x15F9 JUMP JUMPDEST DUP8 MLOAD RETURNDATASIZE PUSH1 0x0 DUP3 RETURNDATACOPY RETURNDATASIZE SWAP1 REVERT JUMPDEST PUSH2 0x164C SWAP2 SWAP8 RETURNDATASIZE DUP1 SWAP2 DUP4 RETURNDATACOPY PUSH2 0x1644 DUP2 DUP4 PUSH2 0xF48 JUMP JUMPDEST DUP2 ADD SWAP1 PUSH2 0x11C3 JUMP JUMPDEST SWAP6 CODESIZE PUSH2 0x1549 JUMP JUMPDEST DUP13 MLOAD RETURNDATASIZE PUSH1 0x0 DUP3 RETURNDATACOPY RETURNDATASIZE SWAP1 REVERT JUMPDEST SWAP1 POP PUSH1 0x5 DUP2 LT ISZERO PUSH2 0x1673 JUMPI PUSH1 0x3 GT ISZERO CODESIZE PUSH2 0x13D5 JUMP JUMPDEST DUP5 PUSH1 0x21 DUP5 PUSH4 0x4E487B71 PUSH1 0xE0 SHL PUSH1 0x0 MSTORE MSTORE PUSH1 0x0 REVERT JUMPDEST PUSH1 0x0 SWAP3 SWAP4 SWAP5 POP MLOAD SWAP3 DUP4 DUP1 SWAP3 PUSH4 0x2DF9FD51 PUSH1 0xE0 SHL DUP3 MSTORE PUSH1 0x2 DUP10 DUP4 ADD MSTORE GAS STATICCALL SWAP1 DUP2 ISZERO PUSH2 0x1785 JUMPI PUSH1 0x0 SWAP2 PUSH2 0x1790 JUMPI JUMPDEST POP DUP7 PUSH4 0xFFFFFFFF DUP12 DUP4 ADD MLOAD AND ISZERO ISZERO SWAP2 DUP3 PUSH2 0x171C JUMPI JUMPDEST POP POP PUSH2 0x16D9 JUMPI JUMPDEST DUP7 SWAP1 DUP6 DUP12 DUP15 PUSH2 0x13CC JUMP JUMPDEST SWAP7 POP SWAP5 POP PUSH1 0x0 SWAP5 DUP6 DUP12 MLOAD PUSH2 0x16EC DUP2 PUSH2 0xF2C JUMP JUMPDEST DUP10 DUP2 MSTORE PUSH32 0x4469737472696275746F7220726567697374726174696F6E20696E76616C6964 DUP11 DUP3 ADD MSTORE SWAP8 SWAP1 POP PUSH2 0x16CF JUMP JUMPDEST MLOAD DUP15 MLOAD DUP6 DUP2 MSTORE SWAP2 AND DUP6 DUP3 ADD MSTORE PUSH1 0x3 DUP8 DUP3 ADD MSTORE SWAP1 POP DUP10 DUP2 PUSH1 0x44 DUP2 DUP9 GAS STATICCALL SWAP1 DUP2 ISZERO PUSH2 0x1785 JUMPI PUSH1 0x0 SWAP2 PUSH2 0x1750 JUMPI JUMPDEST POP ISZERO DUP7 CODESIZE PUSH2 0x16C8 JUMP JUMPDEST SWAP1 DUP11 DUP3 DUP2 RETURNDATASIZE DUP4 GT PUSH2 0x177E JUMPI JUMPDEST PUSH2 0x1766 DUP2 DUP4 PUSH2 0xF48 JUMP JUMPDEST DUP2 ADD SUB SLT PUSH2 0x161B JUMPI POP PUSH2 0x1778 SWAP1 PUSH2 0x1077 JUMP JUMPDEST CODESIZE PUSH2 0x1747 JUMP JUMPDEST POP RETURNDATASIZE PUSH2 0x175C JUMP JUMPDEST DUP14 MLOAD RETURNDATASIZE PUSH1 0x0 DUP3 RETURNDATACOPY RETURNDATASIZE SWAP1 REVERT JUMPDEST PUSH2 0x17A3 SWAP2 RETURNDATASIZE DUP1 SWAP2 DUP4 RETURNDATACOPY PUSH2 0x1644 DUP2 DUP4 PUSH2 0xF48 JUMP JUMPDEST CODESIZE PUSH2 0x16B3 JUMP JUMPDEST POP POP POP POP SWAP1 POP PUSH1 0x5 DUP2 LT ISZERO PUSH2 0x1673 JUMPI DUP1 DUP6 DUP12 DUP15 PUSH1 0x2 DUP12 SWAP6 LT ISZERO PUSH2 0x13C7 JUMP JUMPDEST SWAP2 SWAP3 SWAP4 POP PUSH1 0x0 SWAP1 DUP3 MLOAD SWAP4 DUP5 DUP1 SWAP3 PUSH4 0x2DF9FD51 PUSH1 0xE0 SHL DUP3 MSTORE PUSH1 0x1 DUP11 DUP4 ADD MSTORE GAS STATICCALL DUP1 ISZERO PUSH2 0x18D9 JUMPI DUP13 SWAP3 PUSH1 0x0 SWAP2 PUSH2 0x18E4 JUMPI JUMPDEST POP DUP9 PUSH4 0xFFFFFFFF DUP14 DUP4 ADD MLOAD AND ISZERO ISZERO SWAP2 DUP3 PUSH2 0x1866 JUMPI JUMPDEST POP POP PUSH2 0x181C JUMPI JUMPDEST DUP9 SWAP3 SWAP2 DUP8 SWAP2 PUSH2 0x13C0 JUMP JUMPDEST SWAP9 POP POP SWAP6 POP PUSH1 0x0 DUP1 SWAP7 DUP6 DUP12 DUP11 MLOAD PUSH2 0x1832 DUP2 PUSH2 0xF2C JUMP JUMPDEST PUSH1 0x1E DUP2 MSTORE PUSH32 0x50726F636573736F7220726567697374726174696F6E20696E76616C69640000 DUP14 DUP3 ADD MSTORE SWAP11 SWAP2 POP SWAP2 SWAP3 POP PUSH2 0x1812 JUMP JUMPDEST SWAP3 POP SWAP3 POP POP MLOAD AND DUP13 MLOAD SWAP1 DUP4 DUP3 MSTORE DUP5 DUP3 ADD MSTORE PUSH1 0x1 DUP7 DUP3 ADD MSTORE DUP13 DUP11 DUP3 PUSH1 0x44 DUP2 DUP10 GAS STATICCALL DUP1 ISZERO PUSH2 0x18D9 JUMPI DUP13 SWAP3 PUSH1 0x0 SWAP2 PUSH2 0x189F JUMPI JUMPDEST POP ISZERO DUP9 CODESIZE PUSH2 0x180B JUMP JUMPDEST SWAP3 POP SWAP1 POP DUP11 DUP3 DUP2 RETURNDATASIZE DUP2 GT PUSH2 0x18D2 JUMPI JUMPDEST PUSH2 0x18B8 DUP2 DUP4 PUSH2 0xF48 JUMP JUMPDEST DUP2 ADD SUB SLT PUSH2 0x161B JUMPI POP DUP13 PUSH2 0x18CC DUP13 SWAP3 PUSH2 0x1077 JUMP JUMPDEST CODESIZE PUSH2 0x1896 JUMP JUMPDEST POP RETURNDATASIZE PUSH2 0x18AE JUMP JUMPDEST POP MLOAD RETURNDATASIZE PUSH1 0x0 DUP3 RETURNDATACOPY RETURNDATASIZE SWAP1 REVERT JUMPDEST PUSH2 0x18F7 SWAP2 RETURNDATASIZE DUP1 SWAP2 DUP4 RETURNDATACOPY PUSH2 0x1644 DUP2 DUP4 PUSH2 0xF48 JUMP JUMPDEST CODESIZE PUSH2 0x17F6 JUMP JUMPDEST POP POP POP POP SWAP1 POP PUSH1 0x5 DUP2 LT ISZERO PUSH2 0x1673 JUMPI DUP1 DUP6 DUP12 DUP15 PUSH1 0x1 DUP12 SWAP6 LT ISZERO PUSH2 0x13BB JUMP JUMPDEST PUSH2 0x1933 SWAP2 SWAP5 POP DUP14 DUP1 RETURNDATASIZE LT PUSH2 0x310 JUMPI PUSH2 0x301 DUP2 DUP4 PUSH2 0xF48 JUMP JUMPDEST SWAP3 CODESIZE PUSH2 0x13B3 JUMP JUMPDEST MLOAD RETURNDATASIZE PUSH1 0x0 DUP3 RETURNDATACOPY RETURNDATASIZE SWAP1 REVERT JUMPDEST SWAP6 POP SWAP4 POP PUSH1 0x0 SWAP4 DUP10 MLOAD PUSH2 0x1956 DUP2 PUSH2 0xF2C JUMP JUMPDEST PUSH1 0x1B DUP2 MSTORE PUSH32 0x4661726D657220726567697374726174696F6E20696E76616C69640000000000 DUP9 DUP3 ADD MSTORE SWAP6 PUSH2 0x138C JUMP JUMPDEST SWAP1 DUP10 DUP3 DUP2 RETURNDATASIZE DUP4 GT PUSH2 0x19B3 JUMPI JUMPDEST PUSH2 0x199B DUP2 DUP4 PUSH2 0xF48 JUMP JUMPDEST DUP2 ADD SUB SLT PUSH2 0x161B JUMPI POP PUSH2 0x19AD SWAP1 PUSH2 0x1077 JUMP JUMPDEST CODESIZE PUSH2 0x1385 JUMP JUMPDEST POP RETURNDATASIZE PUSH2 0x1991 JUMP JUMPDEST SWAP1 SWAP2 DUP7 DUP3 DUP2 RETURNDATASIZE DUP4 GT PUSH2 0x19EA JUMPI JUMPDEST PUSH2 0x19D1 DUP2 DUP4 PUSH2 0xF48 JUMP JUMPDEST DUP2 ADD SUB SLT PUSH2 0x161B JUMPI POP PUSH2 0x19E3 SWAP1 PUSH2 0x1084 JUMP JUMPDEST SWAP1 CODESIZE PUSH2 0x1330 JUMP JUMPDEST POP RETURNDATASIZE PUSH2 0x19C7 JUMP JUMPDEST DUP10 MLOAD RETURNDATASIZE PUSH1 0x0 DUP3 RETURNDATACOPY RETURNDATASIZE SWAP1 REVERT JUMPDEST POP POP PUSH1 0x60 PUSH32 0x973665348F42BFC7C7A342C88470083764BB1751A06AC27BBBEFF69A4284648E SWAP2 DUP6 MLOAD SWAP6 PUSH2 0x1A2E DUP8 PUSH2 0xEF4 JUMP JUMPDEST PUSH1 0x22 DUP8 MSTORE PUSH32 0x50726F64756374206461746120696E7465677269747920636F6D70726F6D6973 DUP3 DUP9 ADD MSTORE PUSH32 0x6564000000000000000000000000000000000000000000000000000000000000 DUP2 DUP9 ADD MSTORE DUP1 MLOAD SWAP3 DUP4 SWAP3 PUSH1 0x0 DUP5 MSTORE DUP4 ADD MSTORE PUSH2 0x12E6 PUSH1 0x60 DUP4 ADD DUP9 PUSH2 0xE64 JUMP JUMPDEST SWAP1 SWAP2 DUP6 DUP3 DUP2 RETURNDATASIZE DUP4 GT PUSH2 0x1AC5 JUMPI JUMPDEST PUSH2 0x1AAC DUP2 DUP4 PUSH2 0xF48 JUMP JUMPDEST DUP2 ADD SUB SLT PUSH2 0x161B JUMPI POP PUSH2 0x1ABE SWAP1 PUSH2 0x1077 JUMP JUMPDEST SWAP1 CODESIZE PUSH2 0x1247 JUMP JUMPDEST POP RETURNDATASIZE PUSH2 0x1AA2 JUMP JUMPDEST SWAP1 DUP2 PUSH1 0x20 SWAP2 SUB SLT PUSH2 0x2AB JUMPI MLOAD PUSH1 0x7 DUP2 LT ISZERO PUSH2 0x2AB JUMPI SWAP1 JUMP JUMPDEST SWAP1 PUSH1 0x40 SWAP2 DUP3 MLOAD SWAP1 PUSH32 0x4D0D16B300000000000000000000000000000000000000000000000000000000 DUP3 MSTORE PUSH1 0x1 PUSH1 0x1 PUSH1 0xA0 SHL SUB DUP1 DUP3 AND SWAP2 DUP3 PUSH1 0x4 DUP6 ADD MSTORE PUSH1 0x0 SWAP4 DUP5 DUP2 PUSH1 0x24 DUP2 DUP4 ADDRESS GAS CALL SWAP1 DUP2 ISZERO PUSH2 0x1DB7 JUMPI DUP6 SWAP1 DUP7 SWAP3 PUSH2 0x1D61 JUMPI JUMPDEST POP ISZERO PUSH2 0x1D58 JUMPI POP PUSH2 0x1B4C SWAP1 PUSH2 0x2772 JUMP JUMPDEST AND SWAP2 DUP3 ISZERO PUSH2 0x1CF5 JUMPI DUP5 MLOAD SWAP3 PUSH4 0x10069769 PUSH1 0xE1 SHL DUP5 MSTORE PUSH1 0x20 SWAP4 DUP5 DUP2 PUSH1 0x4 DUP2 DUP6 GAS STATICCALL SWAP1 DUP2 ISZERO PUSH2 0x1CEB JUMPI DUP4 SWAP2 PUSH2 0x1CCE JUMPI JUMPDEST POP PUSH1 0x7 DUP2 LT ISZERO PUSH2 0x1CBA JUMPI PUSH1 0x4 DUP2 EQ SWAP1 DUP2 ISZERO PUSH2 0x1CAF JUMPI JUMPDEST POP ISZERO PUSH2 0x1C21 JUMPI SWAP2 PUSH32 0x7373756573000000000000000000000000000000000000000000000000000000 SWAP3 PUSH32 0xABAA20B5BF33F95D0EC3E91871EFC88E95690B75BE065F906FE7D560FE3A2598 DUP8 DUP1 MLOAD DUP6 DUP2 MSTORE TIMESTAMP DUP9 DUP3 ADD MSTORE LOG3 SWAP4 PUSH32 0x50726F647563742076616C69642062757420736869706D656E74206861732069 DUP2 MLOAD SWAP4 PUSH2 0x1C14 DUP6 PUSH2 0xEF4 JUMP JUMPDEST PUSH1 0x25 DUP6 MSTORE DUP5 ADD MSTORE DUP3 ADD MSTORE SWAP1 JUMP JUMPDEST SWAP1 POP PUSH32 0xABAA20B5BF33F95D0EC3E91871EFC88E95690B75BE065F906FE7D560FE3A2598 DUP6 DUP1 MLOAD PUSH1 0x1 DUP2 MSTORE TIMESTAMP DUP7 DUP3 ADD MSTORE LOG3 PUSH32 0x6564207375636365737366756C6C790000000000000000000000000000000000 PUSH1 0x1 SWAP4 PUSH32 0x50726F6475637420616E6420736869706D656E7420626F746820766572696669 DUP2 MLOAD SWAP4 PUSH2 0x1CA2 DUP6 PUSH2 0xEF4 JUMP JUMPDEST PUSH1 0x2F DUP6 MSTORE DUP5 ADD MSTORE DUP3 ADD MSTORE SWAP1 JUMP JUMPDEST PUSH1 0x5 SWAP2 POP EQ CODESIZE PUSH2 0x1B90 JUMP JUMPDEST PUSH1 0x24 DUP4 PUSH4 0x4E487B71 PUSH1 0xE0 SHL DUP2 MSTORE PUSH1 0x21 PUSH1 0x4 MSTORE REVERT JUMPDEST PUSH2 0x1CE5 SWAP2 POP DUP6 RETURNDATASIZE DUP8 GT PUSH2 0x35C JUMPI PUSH2 0x34D DUP2 DUP4 PUSH2 0xF48 JUMP JUMPDEST CODESIZE PUSH2 0x1B7A JUMP JUMPDEST DUP8 MLOAD RETURNDATASIZE DUP6 DUP3 RETURNDATACOPY RETURNDATASIZE SWAP1 REVERT JUMPDEST POP POP POP PUSH1 0x1 SWAP2 PUSH32 0x746120617661696C61626C650000000000000000000000000000000000000000 DUP2 MLOAD SWAP2 PUSH2 0x1D28 DUP4 PUSH2 0xEF4 JUMP JUMPDEST PUSH1 0x2C DUP4 MSTORE PUSH32 0x50726F647563742076657269666965642C206E6F20736869706D656E74206461 PUSH1 0x20 DUP5 ADD MSTORE DUP3 ADD MSTORE SWAP1 JUMP JUMPDEST SWAP6 POP POP POP POP SWAP2 SWAP1 JUMP JUMPDEST SWAP2 POP POP RETURNDATASIZE DUP1 DUP7 DUP4 RETURNDATACOPY PUSH2 0x1D73 DUP2 DUP4 PUSH2 0xF48 JUMP JUMPDEST DUP2 ADD DUP8 DUP3 DUP3 SUB SLT PUSH2 0x1DB3 JUMPI PUSH2 0x1D87 DUP3 PUSH2 0x1077 JUMP JUMPDEST SWAP2 PUSH1 0x20 DUP2 ADD MLOAD SWAP1 PUSH8 0xFFFFFFFFFFFFFFFF DUP3 GT PUSH2 0x1DAF JUMPI PUSH2 0x1DA8 SWAP3 SWAP2 ADD PUSH2 0x10B0 JUMP JUMPDEST SWAP1 CODESIZE PUSH2 0x1B3C JUMP JUMPDEST DUP8 DUP1 REVERT JUMPDEST DUP6 DUP1 REVERT JUMPDEST DUP8 MLOAD RETURNDATASIZE DUP8 DUP3 RETURNDATACOPY RETURNDATASIZE SWAP1 REVERT JUMPDEST PUSH1 0x40 MLOAD SWAP1 PUSH2 0x1DCE DUP3 PUSH2 0xED7 JUMP JUMPDEST PUSH1 0x0 PUSH2 0x100 DUP4 DUP3 DUP2 MSTORE DUP3 PUSH1 0x20 DUP3 ADD MSTORE PUSH1 0x60 PUSH1 0x40 DUP3 ADD MSTORE PUSH1 0x60 DUP1 DUP3 ADD MSTORE PUSH1 0x60 PUSH1 0x80 DUP3 ADD MSTORE PUSH1 0x60 PUSH1 0xA0 DUP3 ADD MSTORE DUP3 PUSH1 0xC0 DUP3 ADD MSTORE DUP3 PUSH1 0xE0 DUP3 ADD MSTORE ADD MSTORE JUMP JUMPDEST SWAP1 PUSH1 0x20 DUP3 DUP3 SUB SLT PUSH2 0x2AB JUMPI DUP2 MLOAD PUSH8 0xFFFFFFFFFFFFFFFF DUP2 GT PUSH2 0x2AB JUMPI PUSH2 0xEA2 SWAP3 ADD PUSH2 0x10B0 JUMP JUMPDEST SWAP2 PUSH2 0x120 DUP4 DUP4 SUB SLT PUSH2 0x2AB JUMPI PUSH2 0x1E43 DUP4 PUSH2 0x1084 JUMP JUMPDEST SWAP3 PUSH1 0x20 DUP2 ADD MLOAD PUSH1 0x4 DUP2 LT ISZERO PUSH2 0x2AB JUMPI SWAP3 PUSH1 0x40 DUP3 ADD MLOAD SWAP2 PUSH8 0xFFFFFFFFFFFFFFFF SWAP3 DUP4 DUP2 GT PUSH2 0x2AB JUMPI DUP3 PUSH2 0x1E76 SWAP2 DUP4 ADD PUSH2 0x10B0 JUMP JUMPDEST SWAP4 PUSH1 0x60 DUP3 ADD MLOAD DUP5 DUP2 GT PUSH2 0x2AB JUMPI DUP4 PUSH2 0x1E8F SWAP2 DUP5 ADD PUSH2 0x10B0 JUMP JUMPDEST SWAP4 PUSH1 0x80 DUP4 ADD MLOAD DUP2 DUP2 GT PUSH2 0x2AB JUMPI DUP5 PUSH2 0x1EA8 SWAP2 DUP6 ADD PUSH2 0x10B0 JUMP JUMPDEST SWAP4 PUSH1 0xA0 DUP5 ADD MLOAD SWAP2 DUP3 GT PUSH2 0x2AB JUMPI PUSH2 0x1EC0 SWAP2 DUP5 ADD PUSH2 0x10B0 JUMP JUMPDEST SWAP2 PUSH2 0x1ECD PUSH1 0xC0 DUP3 ADD PUSH2 0x1077 JUMP JUMPDEST SWAP2 PUSH2 0x100 PUSH1 0xE0 DUP4 ADD MLOAD SWAP3 ADD MLOAD SWAP1 JUMP JUMPDEST PUSH1 0x4 DUP3 LT ISZERO PUSH2 0x25A JUMPI MSTORE JUMP JUMPDEST PUSH2 0x1EF0 PUSH2 0x1DC1 JUMP JUMPDEST POP PUSH2 0x1EF9 PUSH2 0x1DC1 JUMP JUMPDEST POP PUSH2 0x1F02 PUSH2 0x1DC1 JUMP JUMPDEST POP PUSH2 0x1F0B PUSH2 0x1DC1 JUMP JUMPDEST POP PUSH1 0x40 MLOAD PUSH32 0x3820F36100000000000000000000000000000000000000000000000000000000 DUP2 MSTORE PUSH1 0x0 DUP2 PUSH1 0x4 DUP2 PUSH1 0x1 PUSH1 0x1 PUSH1 0xA0 SHL SUB DUP7 AND GAS STATICCALL SWAP2 PUSH1 0x0 SWAP1 PUSH1 0x0 DUP5 PUSH1 0x0 SWAP5 PUSH1 0x0 SWAP7 PUSH2 0x2512 JUMPI JUMPDEST POP PUSH2 0x1F87 JUMPI POP POP POP POP POP PUSH2 0x1F68 PUSH2 0x1DC1 JUMP JUMPDEST SWAP1 PUSH1 0x40 MLOAD PUSH2 0x1F75 DUP2 PUSH2 0xF10 JUMP JUMPDEST PUSH1 0x0 DUP2 MSTORE SWAP2 PUSH1 0x0 SWAP2 DUP2 DUP1 SWAP2 DUP2 SWAP1 PUSH1 0x0 SWAP1 JUMP JUMPDEST PUSH1 0x40 MLOAD SWAP6 PUSH4 0x6FDDE03 PUSH1 0xE0 SHL DUP8 MSTORE PUSH1 0x0 DUP8 PUSH1 0x4 DUP2 PUSH1 0x1 PUSH1 0x1 PUSH1 0xA0 SHL SUB DUP8 AND GAS STATICCALL SWAP7 DUP8 ISZERO PUSH2 0x2B7 JUMPI PUSH1 0x0 SWAP8 PUSH2 0x24F5 JUMPI JUMPDEST POP PUSH1 0x40 MLOAD SWAP7 PUSH4 0xD811FCF PUSH1 0xE4 SHL DUP9 MSTORE PUSH1 0x20 DUP9 PUSH1 0x4 DUP2 PUSH1 0x1 PUSH1 0x1 PUSH1 0xA0 SHL SUB DUP9 AND GAS STATICCALL SWAP8 DUP9 ISZERO PUSH2 0x2B7 JUMPI PUSH1 0x0 SWAP9 PUSH2 0x24B9 JUMPI JUMPDEST POP PUSH2 0x1FEF PUSH2 0x1DC1 JUMP JUMPDEST SWAP7 PUSH2 0x1FF8 PUSH2 0x1DC1 JUMP JUMPDEST SWAP7 PUSH2 0x2001 PUSH2 0x1DC1 JUMP JUMPDEST SWAP7 PUSH2 0x200A PUSH2 0x1DC1 JUMP JUMPDEST SWAP7 PUSH1 0x20 DUP3 ADD SWAP2 PUSH4 0xFFFFFFFF DUP4 MLOAD AND PUSH2 0x23F2 JUMPI JUMPDEST POP PUSH4 0xFFFFFFFF PUSH1 0x20 DUP9 ADD MLOAD AND PUSH2 0x2325 JUMPI JUMPDEST PUSH1 0x20 DUP4 ADD SWAP3 PUSH4 0xFFFFFFFF DUP5 MLOAD AND PUSH2 0x2252 JUMPI JUMPDEST POP PUSH1 0x20 DUP5 ADD SWAP4 PUSH4 0xFFFFFFFF DUP6 MLOAD AND PUSH2 0x216E JUMPI JUMPDEST POP SWAP1 PUSH1 0x20 PUSH1 0x1 PUSH1 0x1 PUSH1 0xA0 SHL SUB SWAP4 SWAP3 PUSH1 0x4 PUSH1 0x40 MLOAD DUP1 SWAP7 DUP2 SWAP4 PUSH4 0x16FD7553 PUSH1 0xE2 SHL DUP4 MSTORE AND GAS STATICCALL SWAP3 DUP4 ISZERO PUSH2 0x2B7 JUMPI PUSH1 0x0 SWAP4 PUSH2 0x2147 JUMPI JUMPDEST POP MLOAD PUSH4 0xFFFFFFFF AND ISZERO ISZERO SWAP6 DUP7 PUSH2 0x2115 JUMPI JUMPDEST POP DUP6 PUSH2 0x20E3 JUMPI JUMPDEST POP DUP5 PUSH2 0x20B0 JUMPI JUMPDEST POP POP SWAP7 SWAP6 SWAP5 SWAP4 SWAP3 SWAP2 SWAP1 JUMP JUMPDEST SWAP1 SWAP2 SWAP4 POP PUSH1 0x5 DUP2 LT ISZERO PUSH2 0x25A JUMPI PUSH1 0x2 LT SWAP1 DUP2 ISZERO SWAP2 PUSH2 0x20D2 JUMPI JUMPDEST POP SWAP2 CODESIZE DUP1 PUSH2 0x20A5 JUMP JUMPDEST PUSH4 0xFFFFFFFF SWAP2 POP MLOAD AND ISZERO ISZERO CODESIZE PUSH2 0x20C9 JUMP JUMPDEST SWAP1 SWAP5 POP PUSH1 0x5 DUP6 LT ISZERO PUSH2 0x25A JUMPI PUSH1 0x1 DUP6 GT SWAP1 DUP2 ISZERO SWAP2 PUSH2 0x2104 JUMPI JUMPDEST POP SWAP4 CODESIZE PUSH2 0x209E JUMP JUMPDEST PUSH4 0xFFFFFFFF SWAP2 POP MLOAD AND ISZERO ISZERO CODESIZE PUSH2 0x20FC JUMP JUMPDEST SWAP1 SWAP6 POP PUSH1 0x5 DUP3 LT ISZERO PUSH2 0x25A JUMPI DUP2 ISZERO SWAP1 DUP2 ISZERO PUSH2 0x2133 JUMPI JUMPDEST POP SWAP5 CODESIZE PUSH2 0x2097 JUMP JUMPDEST PUSH4 0xFFFFFFFF SWAP2 POP PUSH1 0x20 ADD MLOAD AND ISZERO ISZERO CODESIZE PUSH2 0x212B JUMP JUMPDEST PUSH4 0xFFFFFFFF SWAP2 SWAP4 POP PUSH2 0x2167 SWAP1 PUSH1 0x20 RETURNDATASIZE PUSH1 0x20 GT PUSH2 0x310 JUMPI PUSH2 0x301 DUP2 DUP4 PUSH2 0xF48 JUMP JUMPDEST SWAP3 SWAP1 PUSH2 0x2086 JUMP JUMPDEST SWAP3 SWAP2 SWAP1 SWAP8 POP PUSH1 0x0 PUSH1 0x1 PUSH1 0x1 PUSH1 0xA0 SHL SUB DUP1 DUP3 SLOAD AND SWAP5 MLOAD AND PUSH1 0x24 PUSH1 0x40 MLOAD DUP1 SWAP7 DUP2 SWAP4 PUSH4 0x2D1542E7 PUSH1 0xE2 SHL DUP4 MSTORE PUSH1 0x4 DUP4 ADD MSTORE GAS STATICCALL DUP1 ISZERO PUSH2 0x2B7 JUMPI PUSH1 0x1 PUSH1 0x1 PUSH1 0xA0 SHL SUB SWAP4 PUSH1 0x20 SWAP2 PUSH1 0x0 SWAP2 PUSH1 0x0 DUP1 PUSH1 0x0 DUP1 PUSH1 0x0 SWAP3 PUSH1 0x0 SWAP5 PUSH1 0x0 SWAP7 PUSH1 0x0 SWAP9 PUSH2 0x2218 JUMPI JUMPDEST POP PUSH2 0x21E8 SWAP1 DUP14 PUSH1 0x40 MLOAD SWAP11 PUSH2 0x21DD DUP13 PUSH2 0xED7 JUMP JUMPDEST AND DUP11 MSTORE DUP11 DUP11 ADD PUSH2 0x1EDC JUMP JUMPDEST PUSH1 0x40 DUP9 ADD MSTORE PUSH1 0x60 DUP8 ADD MSTORE PUSH1 0x80 DUP7 ADD MSTORE PUSH1 0xA0 DUP6 ADD MSTORE ISZERO ISZERO PUSH1 0xC0 DUP5 ADD MSTORE PUSH1 0xE0 DUP4 ADD MSTORE PUSH2 0x100 DUP3 ADD MSTORE SWAP9 SWAP2 SWAP3 SWAP4 POP PUSH2 0x2053 JUMP JUMPDEST SWAP7 POP POP POP POP POP POP POP PUSH2 0x21E8 SWAP3 POP PUSH2 0x2242 SWAP2 POP RETURNDATASIZE DUP1 PUSH1 0x0 DUP4 RETURNDATACOPY PUSH2 0x223A DUP2 DUP4 PUSH2 0xF48 JUMP JUMPDEST DUP2 ADD SWAP1 PUSH2 0x1E2E JUMP JUMPDEST SWAP8 SWAP9 SWAP1 SWAP7 SWAP2 SWAP6 SWAP3 SWAP5 SWAP3 SWAP2 SWAP1 PUSH2 0x21CA JUMP JUMPDEST SWAP1 SWAP9 POP PUSH1 0x0 PUSH1 0x1 PUSH1 0x1 PUSH1 0xA0 SHL SUB DUP1 DUP3 SLOAD AND SWAP3 MLOAD AND PUSH1 0x24 PUSH1 0x40 MLOAD DUP1 SWAP5 DUP2 SWAP4 PUSH4 0x2D1542E7 PUSH1 0xE2 SHL DUP4 MSTORE PUSH1 0x4 DUP4 ADD MSTORE GAS STATICCALL DUP1 ISZERO PUSH2 0x2B7 JUMPI PUSH1 0x0 SWAP2 PUSH1 0x0 DUP1 PUSH1 0x0 DUP1 PUSH1 0x0 SWAP3 PUSH1 0x0 SWAP5 PUSH1 0x0 SWAP7 PUSH1 0x0 SWAP9 PUSH2 0x22F3 JUMPI JUMPDEST POP PUSH2 0x22C6 SWAP1 PUSH1 0x1 PUSH1 0x1 PUSH1 0xA0 SHL SUB PUSH1 0x40 MLOAD SWAP11 PUSH2 0x22BA DUP13 PUSH2 0xED7 JUMP JUMPDEST AND DUP11 MSTORE PUSH1 0x20 DUP11 ADD PUSH2 0x1EDC JUMP JUMPDEST PUSH1 0x40 DUP9 ADD MSTORE PUSH1 0x60 DUP8 ADD MSTORE PUSH1 0x80 DUP7 ADD MSTORE PUSH1 0xA0 DUP6 ADD MSTORE ISZERO ISZERO PUSH1 0xC0 DUP5 ADD MSTORE PUSH1 0xE0 DUP4 ADD MSTORE PUSH2 0x100 DUP3 ADD MSTORE SWAP8 CODESIZE PUSH2 0x2040 JUMP JUMPDEST SWAP7 POP POP POP POP POP POP POP PUSH2 0x22C6 SWAP3 POP PUSH2 0x2315 SWAP2 POP RETURNDATASIZE DUP1 PUSH1 0x0 DUP4 RETURNDATACOPY PUSH2 0x223A DUP2 DUP4 PUSH2 0xF48 JUMP JUMPDEST SWAP8 SWAP9 SWAP1 SWAP7 SWAP2 SWAP6 SWAP3 SWAP5 SWAP3 SWAP2 SWAP1 PUSH2 0x22A0 JUMP JUMPDEST SWAP9 POP PUSH1 0x1 PUSH1 0x1 PUSH1 0xA0 SHL SUB PUSH1 0x0 SLOAD AND PUSH1 0x0 PUSH1 0x1 PUSH1 0x1 PUSH1 0xA0 SHL SUB DUP9 MLOAD AND PUSH1 0x24 PUSH1 0x40 MLOAD DUP1 SWAP5 DUP2 SWAP4 PUSH4 0x2D1542E7 PUSH1 0xE2 SHL DUP4 MSTORE PUSH1 0x4 DUP4 ADD MSTORE GAS STATICCALL DUP1 ISZERO PUSH2 0x2B7 JUMPI PUSH1 0x0 SWAP2 PUSH1 0x0 DUP1 PUSH1 0x0 DUP1 PUSH1 0x0 SWAP3 PUSH1 0x0 SWAP5 PUSH1 0x0 SWAP7 PUSH1 0x0 SWAP9 PUSH2 0x23C0 JUMPI JUMPDEST POP PUSH2 0x2394 SWAP1 PUSH1 0x1 PUSH1 0x1 PUSH1 0xA0 SHL SUB PUSH1 0x40 MLOAD SWAP11 PUSH2 0x22BA DUP13 PUSH2 0xED7 JUMP JUMPDEST PUSH1 0x40 DUP9 ADD MSTORE PUSH1 0x60 DUP8 ADD MSTORE PUSH1 0x80 DUP7 ADD MSTORE PUSH1 0xA0 DUP6 ADD MSTORE ISZERO ISZERO PUSH1 0xC0 DUP5 ADD MSTORE PUSH1 0xE0 DUP4 ADD MSTORE PUSH2 0x100 DUP3 ADD MSTORE SWAP9 PUSH2 0x202E JUMP JUMPDEST SWAP7 POP POP POP POP POP POP POP PUSH2 0x2394 SWAP3 POP PUSH2 0x23E2 SWAP2 POP RETURNDATASIZE DUP1 PUSH1 0x0 DUP4 RETURNDATACOPY PUSH2 0x223A DUP2 DUP4 PUSH2 0xF48 JUMP JUMPDEST SWAP8 SWAP9 SWAP1 SWAP7 SWAP2 SWAP6 SWAP3 SWAP5 SWAP3 SWAP2 SWAP1 PUSH2 0x237A JUMP JUMPDEST SWAP1 SWAP11 POP PUSH1 0x0 PUSH1 0x1 PUSH1 0x1 PUSH1 0xA0 SHL SUB DUP1 DUP3 SLOAD AND SWAP3 MLOAD AND PUSH1 0x24 PUSH1 0x40 MLOAD DUP1 SWAP5 DUP2 SWAP4 PUSH4 0x2D1542E7 PUSH1 0xE2 SHL DUP4 MSTORE PUSH1 0x4 DUP4 ADD MSTORE GAS STATICCALL DUP1 ISZERO PUSH2 0x2B7 JUMPI PUSH1 0x0 SWAP2 PUSH1 0x0 DUP1 PUSH1 0x0 DUP1 PUSH1 0x0 SWAP3 PUSH1 0x0 SWAP5 PUSH1 0x0 SWAP7 PUSH1 0x0 SWAP9 PUSH2 0x2487 JUMPI JUMPDEST POP PUSH2 0x245A SWAP1 PUSH1 0x1 PUSH1 0x1 PUSH1 0xA0 SHL SUB PUSH1 0x40 MLOAD SWAP11 PUSH2 0x22BA DUP13 PUSH2 0xED7 JUMP JUMPDEST PUSH1 0x40 DUP9 ADD MSTORE PUSH1 0x60 DUP8 ADD MSTORE PUSH1 0x80 DUP7 ADD MSTORE PUSH1 0xA0 DUP6 ADD MSTORE ISZERO ISZERO PUSH1 0xC0 DUP5 ADD MSTORE PUSH1 0xE0 DUP4 ADD MSTORE PUSH2 0x100 DUP3 ADD MSTORE SWAP10 CODESIZE PUSH2 0x201D JUMP JUMPDEST SWAP7 POP POP POP POP POP POP POP PUSH2 0x245A SWAP3 POP PUSH2 0x24A9 SWAP2 POP RETURNDATASIZE DUP1 PUSH1 0x0 DUP4 RETURNDATACOPY PUSH2 0x223A DUP2 DUP4 PUSH2 0xF48 JUMP JUMPDEST SWAP8 SWAP9 SWAP1 SWAP7 SWAP2 SWAP6 SWAP3 SWAP5 SWAP3 SWAP2 SWAP1 PUSH2 0x2440 JUMP JUMPDEST SWAP1 SWAP8 POP PUSH1 0x20 DUP2 RETURNDATASIZE PUSH1 0x20 GT PUSH2 0x24ED JUMPI JUMPDEST DUP2 PUSH2 0x24D5 PUSH1 0x20 SWAP4 DUP4 PUSH2 0xF48 JUMP JUMPDEST DUP2 ADD SUB SLT PUSH2 0x2AB JUMPI PUSH2 0x24E6 SWAP1 PUSH2 0x1084 JUMP JUMPDEST SWAP7 CODESIZE PUSH2 0x1FE6 JUMP JUMPDEST RETURNDATASIZE SWAP2 POP PUSH2 0x24C8 JUMP JUMPDEST PUSH2 0x250B SWAP2 SWAP8 POP RETURNDATASIZE DUP1 PUSH1 0x0 DUP4 RETURNDATACOPY PUSH2 0x2D9 DUP2 DUP4 PUSH2 0xF48 JUMP JUMPDEST SWAP6 CODESIZE PUSH2 0x1FB6 JUMP JUMPDEST SWAP5 POP SWAP5 POP POP SWAP1 POP RETURNDATASIZE DUP1 PUSH1 0x0 DUP5 RETURNDATACOPY PUSH2 0x2529 DUP2 DUP5 PUSH2 0xF48 JUMP JUMPDEST DUP3 ADD SWAP1 PUSH1 0x80 DUP4 DUP4 SUB SLT PUSH2 0x2AB JUMPI DUP3 MLOAD PUSH8 0xFFFFFFFFFFFFFFFF SWAP1 DUP2 DUP2 GT PUSH2 0x2AB JUMPI DUP4 PUSH2 0x2555 SWAP2 DUP7 ADD PUSH2 0x10F2 JUMP JUMPDEST SWAP4 PUSH1 0x20 DUP2 ADD MLOAD DUP3 DUP2 GT PUSH2 0x2AB JUMPI DUP5 PUSH2 0x256E SWAP2 DUP4 ADD PUSH2 0x10F2 JUMP JUMPDEST SWAP4 PUSH1 0x40 DUP3 ADD MLOAD DUP4 DUP2 GT PUSH2 0x2AB JUMPI DUP2 PUSH2 0x2587 SWAP2 DUP5 ADD PUSH2 0x10F2 JUMP JUMPDEST SWAP3 PUSH1 0x60 DUP4 ADD MLOAD SWAP1 DUP2 GT PUSH2 0x2AB JUMPI PUSH2 0x259E SWAP3 ADD PUSH2 0x10F2 JUMP JUMPDEST SWAP4 SWAP3 SWAP1 SWAP4 SWAP5 CODESIZE PUSH2 0x1F56 JUMP JUMPDEST SWAP2 SWAP1 SWAP2 PUSH2 0x120 DUP2 DUP5 SUB SLT PUSH2 0x2AB JUMPI PUSH1 0x40 MLOAD SWAP1 PUSH2 0x25C4 DUP3 PUSH2 0xED7 JUMP JUMPDEST DUP2 SWAP4 PUSH2 0x25CF DUP3 PUSH2 0x1084 JUMP JUMPDEST DUP4 MSTORE PUSH1 0x20 DUP3 ADD MLOAD PUSH1 0x4 DUP2 LT ISZERO PUSH2 0x2AB JUMPI PUSH1 0x20 DUP5 ADD MSTORE PUSH1 0x40 DUP3 ADD MLOAD SWAP1 PUSH8 0xFFFFFFFFFFFFFFFF SWAP2 DUP3 DUP2 GT PUSH2 0x2AB JUMPI DUP2 PUSH2 0x2607 SWAP2 DUP6 ADD PUSH2 0x10B0 JUMP JUMPDEST PUSH1 0x40 DUP6 ADD MSTORE PUSH1 0x60 DUP4 ADD MLOAD DUP3 DUP2 GT PUSH2 0x2AB JUMPI DUP2 PUSH2 0x2624 SWAP2 DUP6 ADD PUSH2 0x10B0 JUMP JUMPDEST PUSH1 0x60 DUP6 ADD MSTORE PUSH1 0x80 DUP4 ADD MLOAD DUP3 DUP2 GT PUSH2 0x2AB JUMPI DUP2 PUSH2 0x2641 SWAP2 DUP6 ADD PUSH2 0x10B0 JUMP JUMPDEST PUSH1 0x80 DUP6 ADD MSTORE PUSH1 0xA0 DUP4 ADD MLOAD SWAP2 DUP3 GT PUSH2 0x2AB JUMPI PUSH2 0x265D SWAP2 DUP4 ADD PUSH2 0x10B0 JUMP JUMPDEST PUSH1 0xA0 DUP4 ADD MSTORE PUSH2 0x266E PUSH1 0xC0 DUP3 ADD PUSH2 0x1077 JUMP JUMPDEST PUSH1 0xC0 DUP4 ADD MSTORE PUSH1 0xE0 DUP2 ADD MLOAD PUSH1 0xE0 DUP4 ADD MSTORE PUSH2 0x100 DUP1 SWAP2 ADD MLOAD SWAP2 ADD MSTORE JUMP JUMPDEST PUSH8 0xFFFFFFFFFFFFFFFF DUP2 GT PUSH2 0xEC1 JUMPI PUSH1 0x5 SHL PUSH1 0x20 ADD SWAP1 JUMP JUMPDEST PUSH1 0x20 SWAP1 DUP2 DUP2 DUP5 SUB SLT PUSH2 0x2AB JUMPI DUP1 MLOAD SWAP1 PUSH8 0xFFFFFFFFFFFFFFFF DUP3 GT PUSH2 0x2AB JUMPI ADD SWAP2 DUP1 PUSH1 0x1F DUP5 ADD SLT ISZERO PUSH2 0x2AB JUMPI DUP3 MLOAD PUSH2 0x26D7 DUP2 PUSH2 0x2689 JUMP JUMPDEST SWAP4 PUSH2 0x26E5 PUSH1 0x40 MLOAD SWAP6 DUP7 PUSH2 0xF48 JUMP JUMPDEST DUP2 DUP6 MSTORE DUP4 DUP1 DUP7 ADD SWAP3 PUSH1 0x5 SHL DUP3 ADD ADD SWAP3 DUP4 GT PUSH2 0x2AB JUMPI DUP4 ADD SWAP1 JUMPDEST DUP3 DUP3 LT PUSH2 0x270C JUMPI POP POP POP POP SWAP1 JUMP JUMPDEST DUP4 DUP1 SWAP2 PUSH2 0x2718 DUP5 PUSH2 0x1084 JUMP JUMPDEST DUP2 MSTORE ADD SWAP2 ADD SWAP1 PUSH2 0x26FE JUMP JUMPDEST PUSH1 0x0 NOT DUP2 EQ PUSH2 0x2732 JUMPI PUSH1 0x1 ADD SWAP1 JUMP JUMPDEST PUSH4 0x4E487B71 PUSH1 0xE0 SHL PUSH1 0x0 MSTORE PUSH1 0x11 PUSH1 0x4 MSTORE PUSH1 0x24 PUSH1 0x0 REVERT JUMPDEST DUP1 MLOAD DUP3 LT ISZERO PUSH2 0x275C JUMPI PUSH1 0x20 SWAP2 PUSH1 0x5 SHL ADD ADD SWAP1 JUMP JUMPDEST PUSH4 0x4E487B71 PUSH1 0xE0 SHL PUSH1 0x0 MSTORE PUSH1 0x32 PUSH1 0x4 MSTORE PUSH1 0x24 PUSH1 0x0 REVERT JUMPDEST PUSH1 0x1 PUSH1 0x1 PUSH1 0xA0 SHL SUB PUSH1 0x1 SWAP1 DUP1 DUP3 SLOAD AND PUSH1 0x40 SWAP4 DUP5 MLOAD SWAP5 DUP6 DUP1 SWAP4 PUSH4 0x12536B5B PUSH1 0xE2 SHL DUP3 MSTORE PUSH1 0x0 SWAP8 DUP9 SWAP2 PUSH1 0x4 SWAP4 DUP5 SWAP2 GAS STATICCALL SWAP4 DUP5 ISZERO PUSH2 0x289B JUMPI DUP8 SWAP5 PUSH2 0x2877 JUMPI JUMPDEST POP DUP7 DUP7 JUMPDEST PUSH2 0x27C1 JUMPI JUMPDEST POP POP POP POP POP POP POP SWAP1 JUMP JUMPDEST DUP5 MLOAD DUP2 LT ISZERO PUSH2 0x2872 JUMPI DUP6 PUSH2 0x27D5 DUP3 DUP8 PUSH2 0x2748 JUMP JUMPDEST MLOAD AND DUP4 MLOAD DUP1 SWAP2 PUSH4 0x1C431183 PUSH1 0xE0 SHL DUP3 MSTORE DUP2 DUP6 PUSH1 0x20 SWAP4 DUP5 SWAP4 GAS STATICCALL SWAP2 DUP3 SWAP2 DUP12 SWAP4 PUSH2 0x2836 JUMPI JUMPDEST POP POP PUSH2 0x280E JUMPI POP PUSH2 0x2808 SWAP1 PUSH2 0x2723 JUMP JUMPDEST DUP7 PUSH2 0x27B2 JUMP JUMPDEST DUP7 AND DUP5 DUP8 AND EQ PUSH2 0x2821 JUMPI PUSH2 0x2808 SWAP1 PUSH2 0x2723 JUMP JUMPDEST SWAP5 SWAP7 POP POP POP POP PUSH2 0x2831 SWAP3 POP PUSH2 0x2748 JUMP JUMPDEST MLOAD AND SWAP1 JUMP JUMPDEST SWAP1 DUP1 SWAP3 SWAP4 POP DUP2 RETURNDATASIZE DUP4 GT PUSH2 0x286B JUMPI JUMPDEST PUSH2 0x284E DUP2 DUP4 PUSH2 0xF48 JUMP JUMPDEST DUP2 ADD SUB SLT PUSH2 0x2867 JUMPI PUSH2 0x285F SWAP1 PUSH2 0x1084 JUMP JUMPDEST SWAP1 CODESIZE DUP1 PUSH2 0x27F8 JUMP JUMPDEST DUP10 DUP1 REVERT JUMPDEST POP RETURNDATASIZE PUSH2 0x2844 JUMP JUMPDEST PUSH2 0x27B7 JUMP JUMPDEST PUSH2 0x2894 SWAP2 SWAP5 POP RETURNDATASIZE DUP1 DUP10 DUP4 RETURNDATACOPY PUSH2 0x288C DUP2 DUP4 PUSH2 0xF48 JUMP JUMPDEST DUP2 ADD SWAP1 PUSH2 0x26A1 JUMP JUMPDEST SWAP3 CODESIZE PUSH2 0x27AE JUMP JUMPDEST DUP3 MLOAD RETURNDATASIZE DUP10 DUP3 RETURNDATACOPY RETURNDATASIZE SWAP1 REVERT JUMPDEST PUSH1 0x1 PUSH1 0x1 PUSH1 0xA0 SHL SUB PUSH1 0x1 SWAP1 DUP1 DUP3 SLOAD AND PUSH1 0x40 SWAP1 DUP2 MLOAD SWAP5 DUP6 SWAP3 DUP4 SWAP3 PUSH4 0x12536B5B PUSH1 0xE2 SHL DUP5 MSTORE PUSH1 0x0 SWAP8 DUP9 SWAP2 PUSH1 0x4 SWAP6 DUP7 SWAP2 GAS STATICCALL SWAP4 DUP5 ISZERO PUSH2 0x29A9 JUMPI DUP8 SWAP5 PUSH2 0x298D JUMPI JUMPDEST POP DUP7 DUP7 JUMPDEST PUSH2 0x28F4 JUMPI POP POP POP POP POP POP POP SWAP1 JUMP JUMPDEST DUP5 MLOAD DUP2 LT ISZERO PUSH2 0x2872 JUMPI DUP4 DUP9 DUP8 PUSH2 0x290A DUP5 DUP10 PUSH2 0x2748 JUMP JUMPDEST MLOAD AND DUP5 MLOAD SWAP3 DUP4 DUP1 SWAP3 PUSH32 0x526FF16F00000000000000000000000000000000000000000000000000000000 DUP3 MSTORE GAS STATICCALL DUP10 SWAP2 DUP2 PUSH2 0x2971 JUMPI JUMPDEST POP PUSH2 0x2954 JUMPI POP PUSH2 0x294E SWAP1 PUSH2 0x2723 JUMP JUMPDEST DUP7 PUSH2 0x28E6 JUMP JUMPDEST DUP1 MLOAD PUSH1 0x20 DUP1 SWAP3 ADD KECCAK256 SWAP1 DUP5 MLOAD SWAP1 DUP6 ADD KECCAK256 EQ PUSH2 0x2821 JUMPI PUSH2 0x294E SWAP1 PUSH2 0x2723 JUMP JUMPDEST PUSH2 0x2986 SWAP2 SWAP3 POP RETURNDATASIZE DUP1 DUP13 DUP4 RETURNDATACOPY PUSH2 0x2D9 DUP2 DUP4 PUSH2 0xF48 JUMP JUMPDEST SWAP1 CODESIZE PUSH2 0x293F JUMP JUMPDEST PUSH2 0x29A2 SWAP2 SWAP5 POP RETURNDATASIZE DUP1 DUP10 DUP4 RETURNDATACOPY PUSH2 0x288C DUP2 DUP4 PUSH2 0xF48 JUMP JUMPDEST SWAP3 CODESIZE PUSH2 0x28E2 JUMP JUMPDEST DUP2 MLOAD RETURNDATASIZE DUP10 DUP3 RETURNDATACOPY RETURNDATASIZE SWAP1 REVERT INVALID LOG2 PUSH5 0x6970667358 0x22 SLT KECCAK256 ISZERO SWAP4 RETURNDATACOPY 0xE9 0x21 PUSH15 0x6A3DAE6F8E0DA9A416234DCF11B73D 0x28 0xA9 CALLER 0xF 0xD5 0xFB DUP8 0xB4 SWAP3 0xE8 EXTCODESIZE PUSH5 0x736F6C6343 STOP ADDMOD SGT STOP CALLER "},"gasEstimates":{"creation":{"codeDepositCost":"2145800","executionCost":"infinite","totalCost":"infinite"},"external":{"findShipmentByProduct(address)":"infinite","findShipmentByTrackingNumber(string)":"infinite","getCompleteTraceabilityReport(address)":"infinite","getShipmentInfo(address)":"infinite","getTraceabilityReport(address)":"infinite","performAudit(address,string)":"infinite","registry()":"2408","stakeholderRegistry()":"2268","trackShipmentByTrackingNumber(string)":"infinite","verifyCompleteSupplyChain(address)":"infinite","verifyProductAuthenticity(address)":"infinite"}},"methodIdentifiers":{"findShipmentByProduct(address)":"60d69d72","findShipmentByTrackingNumber(string)":"c31fc219","getCompleteTraceabilityReport(address)":"6a8b2bd7","getShipmentInfo(address)":"bf3fa54d","getTraceabilityReport(address)":"b36e609f","performAudit(address,string)":"500bc5b0","registry()":"7b103999","stakeholderRegistry()":"23feda0a","trackShipmentByTrackingNumber(string)":"cb21551c","verifyCompleteSupplyChain(address)":"45ce1515","verifyProductAuthenticity(address)":"4d0d16b3"}},"storageLayout":{"storage":[{"astId":2452,"contract":"src/SmartContracts/PublicVerification.sol:PublicVerification","label":"stakeholderRegistry","offset":0,"slot":"0","type":"t_contract(StakeholderRegistry)5946"},{"astId":2455,"contract":"src/SmartContracts/PublicVerification.sol:PublicVerification","label":"registry","offset":0,"slot":"1","type":"t_contract(Registry)3980"}],"types":{"t_contract(Registry)3980":{"encoding":"inplace","label":"contract Registry","numberOfBytes":"20"},"t_contract(StakeholderRegistry)5946":{"encoding":"inplace","label":"contract StakeholderRegistry","numberOfBytes":"20"}}},"userdoc":{"kind":"user","methods":{},"version":1}}}}