{"src/SmartContracts/FileStorageManager.sol":{"FileStorageManager":{"abi":[{"inputs":[{"internalType":"address","name":"_stakeholderRegistryAddress","type":"address"},{"internalType":"address","name":"_oracleOperator","type":"address"}],"stateMutability":"nonpayable","type":"constructor"},{"anonymous":false,"inputs":[{"indexed":true,"internalType":"uint256","name":"requestId","type":"uint256"},{"indexed":true,"internalType":"uint256","name":"productId","type":"uint256"},{"indexed":true,"internalType":"address","name":"requester","type":"address"},{"indexed":false,"internalType":"string","name":"fileName","type":"string"},{"indexed":false,"internalType":"bytes32","name":"fileHash","type":"bytes32"},{"indexed":false,"internalType":"enum FileStorageManager.FileType","name":"fileType","type":"uint8"},{"indexed":false,"internalType":"enum FileStorageManager.ProductStage","name":"stage","type":"uint8"},{"indexed":false,"internalType":"uint256","name":"timestamp","type":"uint256"}],"name":"FileUploadRequested","type":"event"},{"anonymous":false,"inputs":[{"indexed":true,"internalType":"uint256","name":"requestId","type":"uint256"},{"indexed":false,"internalType":"bool","name":"success","type":"bool"},{"indexed":false,"internalType":"string","name":"s3Url","type":"string"},{"indexed":false,"internalType":"string","name":"errorMessage","type":"string"},{"indexed":false,"internalType":"uint256","name":"timestamp","type":"uint256"}],"name":"S3OperationCompleted","type":"event"},{"anonymous":false,"inputs":[{"indexed":true,"internalType":"uint256","name":"requestId","type":"uint256"},{"indexed":false,"internalType":"string","name":"action","type":"string"},{"indexed":false,"internalType":"bool","name":"success","type":"bool"},{"indexed":false,"internalType":"uint256","name":"timestamp","type":"uint256"},{"indexed":false,"internalType":"string","name":"details","type":"string"},{"indexed":false,"internalType":"address","name":"actor","type":"address"}],"name":"TransactionLogged","type":"event"},{"inputs":[{"internalType":"uint256","name":"","type":"uint256"}],"name":"fileRequests","outputs":[{"internalType":"uint256","name":"requestId","type":"uint256"},{"internalType":"uint256","name":"productId","type":"uint256"},{"internalType":"string","name":"fileName","type":"string"},{"internalType":"bytes32","name":"fileHash","type":"bytes32"},{"internalType":"enum FileStorageManager.FileType","name":"fileType","type":"uint8"},{"internalType":"enum FileStorageManager.ProductStage","name":"stage","type":"uint8"},{"internalType":"address","name":"requester","type":"address"},{"internalType":"uint256","name":"requestedAt","type":"uint256"},{"internalType":"enum FileStorageManager.RequestStatus","name":"status","type":"uint8"},{"internalType":"string","name":"s3Url","type":"string"},{"internalType":"string","name":"errorMessage","type":"string"},{"internalType":"uint256","name":"completedAt","type":"uint256"}],"stateMutability":"view","type":"function"},{"inputs":[{"internalType":"uint256","name":"_requestId","type":"uint256"}],"name":"getFileRequest","outputs":[{"components":[{"internalType":"uint256","name":"requestId","type":"uint256"},{"internalType":"uint256","name":"productId","type":"uint256"},{"internalType":"string","name":"fileName","type":"string"},{"internalType":"bytes32","name":"fileHash","type":"bytes32"},{"internalType":"enum FileStorageManager.FileType","name":"fileType","type":"uint8"},{"internalType":"enum FileStorageManager.ProductStage","name":"stage","type":"uint8"},{"internalType":"address","name":"requester","type":"address"},{"internalType":"uint256","name":"requestedAt","type":"uint256"},{"internalType":"enum FileStorageManager.RequestStatus","name":"status","type":"uint8"},{"internalType":"string","name":"s3Url","type":"string"},{"internalType":"string","name":"errorMessage","type":"string"},{"internalType":"uint256","name":"completedAt","type":"uint256"}],"internalType":"struct FileStorageManager.FileStorageRequest","name":"","type":"tuple"}],"stateMutability":"view","type":"function"},{"inputs":[{"internalType":"uint256","name":"_productId","type":"uint256"}],"name":"getProductFileUrls","outputs":[{"internalType":"string[]","name":"","type":"string[]"}],"stateMutability":"view","type":"function"},{"inputs":[{"internalType":"uint256","name":"_productId","type":"uint256"}],"name":"getProductFiles","outputs":[{"internalType":"uint256[]","name":"","type":"uint256[]"}],"stateMutability":"view","type":"function"},{"inputs":[{"internalType":"uint256","name":"_productId","type":"uint256"},{"internalType":"enum FileStorageManager.ProductStage","name":"_stage","type":"uint8"}],"name":"getProductFilesByStage","outputs":[{"internalType":"uint256[]","name":"","type":"uint256[]"}],"stateMutability":"view","type":"function"},{"inputs":[],"name":"getStats","outputs":[{"internalType":"uint256","name":"totalRequests","type":"uint256"},{"internalType":"uint256","name":"completedRequests","type":"uint256"},{"internalType":"uint256","name":"failedRequests","type":"uint256"},{"internalType":"uint256","name":"pendingRequests","type":"uint256"}],"stateMutability":"view","type":"function"},{"inputs":[{"internalType":"uint256","name":"_requestId","type":"uint256"}],"name":"getTransactionLogs","outputs":[{"components":[{"internalType":"uint256","name":"requestId","type":"uint256"},{"internalType":"string","name":"action","type":"string"},{"internalType":"bool","name":"success","type":"bool"},{"internalType":"uint256","name":"timestamp","type":"uint256"},{"internalType":"string","name":"details","type":"string"},{"internalType":"address","name":"actor","type":"address"}],"internalType":"struct FileStorageManager.TransactionLog[]","name":"","type":"tuple[]"}],"stateMutability":"view","type":"function"},{"inputs":[],"name":"nextRequestId","outputs":[{"internalType":"uint256","name":"","type":"uint256"}],"stateMutability":"view","type":"function"},{"inputs":[],"name":"oracleOperator","outputs":[{"internalType":"address","name":"","type":"address"}],"stateMutability":"view","type":"function"},{"inputs":[{"internalType":"uint256","name":"","type":"uint256"},{"internalType":"uint256","name":"","type":"uint256"}],"name":"productFiles","outputs":[{"internalType":"uint256","name":"","type":"uint256"}],"stateMutability":"view","type":"function"},{"inputs":[{"internalType":"uint256","name":"_requestId","type":"uint256"},{"internalType":"bool","name":"_success","type":"bool"},{"internalType":"string","name":"_s3Url","type":"string"},{"internalType":"string","name":"_errorMessage","type":"string"}],"name":"reportS3Result","outputs":[],"stateMutability":"nonpayable","type":"function"},{"inputs":[{"internalType":"uint256","name":"_productId","type":"uint256"},{"internalType":"string","name":"_fileName","type":"string"},{"internalType":"bytes32","name":"_fileHash","type":"bytes32"},{"internalType":"uint8","name":"_fileType","type":"uint8"},{"internalType":"uint8","name":"_stage","type":"uint8"}],"name":"requestFileStorage","outputs":[{"internalType":"uint256","name":"","type":"uint256"}],"stateMutability":"nonpayable","type":"function"},{"inputs":[],"name":"stakeholderRegistry","outputs":[{"internalType":"contract StakeholderRegistry","name":"","type":"address"}],"stateMutability":"view","type":"function"},{"inputs":[{"internalType":"uint256","name":"","type":"uint256"},{"internalType":"uint256","name":"","type":"uint256"}],"name":"transactionLogs","outputs":[{"internalType":"uint256","name":"requestId","type":"uint256"},{"internalType":"string","name":"action","type":"string"},{"internalType":"bool","name":"success","type":"bool"},{"internalType":"uint256","name":"timestamp","type":"uint256"},{"internalType":"string","name":"details","type":"string"},{"internalType":"address","name":"actor","type":"address"}],"stateMutability":"view","type":"function"},{"inputs":[{"internalType":"address","name":"_newOperator","type":"address"}],"name":"updateOracleOperator","outputs":[],"stateMutability":"nonpayable","type":"function"},{"inputs":[{"internalType":"address","name":"","type":"address"},{"internalType":"uint256","name":"","type":"uint256"}],"name":"userRequests","outputs":[{"internalType":"uint256","name":"","type":"uint256"}],"stateMutability":"view","type":"function"},{"inputs":[{"internalType":"uint256","name":"_requestId","type":"uint256"},{"internalType":"bytes32","name":"_providedHash","type":"bytes32"}],"name":"verifyFileIntegrity","outputs":[{"internalType":"bool","name":"","type":"bool"}],"stateMutability":"view","type":"function"}],"devdoc":{"kind":"dev","methods":{"getFileRequest(uint256)":{"details":"Get file request details"},"getProductFileUrls(uint256)":{"details":"Get successful file URLs for a product"},"getProductFiles(uint256)":{"details":"Get all file requests for a product"},"getProductFilesByStage(uint256,uint8)":{"details":"Get files by stage for a product"},"getStats()":{"details":"Get contract statistics"},"getTransactionLogs(uint256)":{"details":"Get transaction logs for a request"},"reportS3Result(uint256,bool,string,string)":{"details":"Oracle reports S3 operation result back to contract Flow: AWS S3 → Transaction Log"},"requestFileStorage(uint256,string,bytes32,uint8,uint8)":{"details":"Web API calls this to request file storage Flow: Web API → Smart Contracts → AWS S3 (via oracle)"},"updateOracleOperator(address)":{"details":"Update oracle operator (admin function)"},"verifyFileIntegrity(uint256,bytes32)":{"details":"Verify file integrity"}},"version":1},"evm":{"bytecode":{"linkReferences":{},"object":"6080346200009b57601f62002c5f38819003918201601f19168301916001600160401b03831184841017620000a05780849260409485528339810103126200009b576200005a60206200005283620000b6565b9201620000b6565b6001600455600680546001600160a01b039384166001600160a01b03199182161790915560058054929093169116179055604051612b939081620000cc8239f35b600080fd5b634e487b7160e01b600052604160045260246000fd5b51906001600160a01b03821682036200009b5756fe6080604052600436101561001257600080fd5b60003560e01c806304aa6147146126e057806311679ef7146126b957806323feda0a14612692578063263cb6b61461263b5780632bc553f9146125905780633da98a3114612480578063412a3bd2146122d65780636a84a985146122b857806385885dfc1461226857806389d62b03146115b45780638d2ac3c214611404578063a0f27085146106b9578063c59d4847146105d7578063eb5d3e791461055d578063ecfd16ea14610316578063fb13effc146101715763fee56bbe146100d757600080fd5b3461016c57602036600319011261016c576100f0612763565b600554906001600160a01b0380831633036101285773ffffffffffffffffffffffffffffffffffffffff199116911617600555600080f35b606460405162461bcd60e51b815260206004820152602060248201527f4f6e6c792063757272656e74206f70657261746f722063616e207570646174656044820152fd5b600080fd5b3461016c5760208060031936011261016c576004358015158061030b575b61019890612a6a565b60005260019081815260406000208054916101b283612ab5565b926101c06040519485612840565b8084528184018093600052826000206000915b83831061029357505050506040519384938285019083865251809152604085019260408260051b87010194936000905b8382106102105787870388f35b918496819592949698508190603f198b82030185528951908151815261026e6102458484015160c0808786015284019061292b565b60408401511515604084015260608085015190840152608080850151908483039085015261292b565b916001600160a01b0360a0809201511691015298019201920187969593919492610203565b9660068582979896996040516102a8816127ec565b855481526102b7858701612862565b8382015260ff60028701541615156040820152600386015460608201526102e060048701612862565b60808201526001600160a01b0360058701541660a082015281520192019201919096939594966101d3565b50600454811061018f565b3461016c57602036600319011261016c57600435600061016060405161033b816127cf565b828152826020820152606060408201528260608201528260808201528260a08201528260c08201528260e08201528261010082015260606101208201526060610140820152015280151580610552575b61039490612a6a565b60005260006020526040600020604051906103ae826127cf565b80548252600181015460208301526103c860028201612862565b6040830152600381015460608301526001600160a01b0360048201546103f460ff821660808601612a18565b61040760ff8260081c1660a08601612a24565b60101c1660c0830152600581015460e083015260ff60068201541690600482101561053c5760099161010084015261044160078201612862565b61012084015261045360088201612862565b6101408401520154610160820152604051809160208252805160208301526020810151604083015261016061052f61049c604084015161018060608701526101a086019061292b565b606084015160808601526104b8608085015160a0870190612950565b6104ca60a085015160c087019061295d565b6001600160a01b0360c08501511660e086015260e08401516101008601526104fc61010085015161012087019061296a565b61051a61012085015191601f1992838883030161014089015261292b565b9061014085015190868303018487015261292b565b9101516101808301520390f35b634e487b7160e01b600052602160045260246000fd5b50600454811061038b565b3461016c5760208060031936011261016c5760043560005260028152604060002090604051908181845491828152019360005281600020916000905b8282106105c0576105bc856105b081890382612840565b60405191829182612977565b0390f35b835486529485019460019384019390910190610599565b3461016c57600036600319011261016c57600454600090818060015b8381106106375750600019830192831161062157608093604051938452602084015260408301526060820152f35b634e487b7160e01b600052601160045260246000fd5b9384600052600060205260ff60066040600020015416600481101561053c5760028103610676575061066b61067191612a09565b94612a09565b6105f3565b9094906003810361069557509061068f61067191612a09565b91612a09565b156106a4575b61067190612a09565b916106b161067191612a09565b92905061069b565b3461016c57608036600319011261016c5760243515156024350361016c5760443567ffffffffffffffff811161016c576106f79036906004016129b2565b60643567ffffffffffffffff811161016c576107179036906004016129b2565b906001600160a01b0360055416330361139a5760043515158061138d575b61073e90612a6a565b6004356000526000602052604060002091600683015460ff8116600481101561053c576113495760243515610da557509091600260ff19600683015416176006820155825167ffffffffffffffff8111610bea5761079f6007830154612795565b601f8111610d5e575b50806020601f8211600114610cf157600091610ce6575b508160011b916000199060031b1c19161760078201555b6040517f46696c65207375636365737366756c6c792075706c6f6164656420746f20533360208201527f3a20000000000000000000000000000000000000000000000000000000000000604082015261084d604282865161083d8184840160208b01612908565b8101036022810184520182612840565b6040519061085a82612824565b601182527f53335f55504c4f41445f53554343455353000000000000000000000000000000602083015260043560005260016020526040600020604051906108a1826127ec565b60043582526020820190848252600160408401524260608401528360808401523360a0840152805468010000000000000000811015610bea576108e991600182018155612779565b919091610cd057825182555180519067ffffffffffffffff8211610bea5781906109166001850154612795565b601f8111610c7d575b50602090601f8311600114610c0b57600092610c00575b50508160011b916000199060031b1c19161760018201555b600281016040830151151560ff8019835416911617905560608201516003820155608082015180519067ffffffffffffffff8211610bea576109936004840154612795565b601f8111610ba3575b50602090601f8311600114610ad957936001600160a01b0360a060057f18dafa2c98f6ed61d1adf3383fc212d09496ae3a5919b497bf01fa13a74fffd39686610a7a97610abd9d9b977f283ca619faf91cdd93a7d38ccef5b48ab9ec524f6e0d5c0663671bf8f6225ba49f9d9b600092610ace575b50508160011b916000199060031b1c19161760048201555b019201511673ffffffffffffffffffffffffffffffffffffffff19825416179055610a5f6040519460a0865260a086019061292b565b9060016020860152426040860152848203606086015261292b565b9133608082015280600435930390a25b600942910155610aaf604051946024351515865260806020870152608086019061292b565b90848203604086015261292b565b9142606082015280600435930390a2005b015190503880610a11565b906004840160005260206000209160005b601f1985168110610b8b575060a060057f18dafa2c98f6ed61d1adf3383fc212d09496ae3a5919b497bf01fa13a74fffd396600187610abd9d9b977f283ca619faf91cdd93a7d38ccef5b48ab9ec524f6e0d5c0663671bf8f6225ba49f9d9b976001600160a01b0397610a7a9b601f19811610610b72575b505050811b016004820155610a29565b015160001960f88460031b161c19169055388080610b62565b91926020600181928685015181550194019201610aea565b600484016000526020600020601f840160051c810160208510610be3575b601f830160051c82018110610bd757505061099c565b60008155600101610bc1565b5080610bc1565b634e487b7160e01b600052604160045260246000fd5b015190508980610936565b9250600184016000526020600020906000935b601f1984168510610c62576001945083601f19811610610c49575b505050811b01600182015561094e565b015160001960f88460031b161c19169055898080610c39565b81810151835560209485019460019093019290910190610c1e565b909150600184016000526020600020601f840160051c810160208510610cc9575b90849392915b601f830160051c82018110610cba57505061091f565b60008155859450600101610ca4565b5080610c9e565b634e487b7160e01b600052600060045260246000fd5b9050840151856107bf565b91506007830160005260206000206000925b601f1983168410610d46576001935082601f19811610610d2d575b5050811b0160078201556107d6565b86015160001960f88460031b161c191690558580610d1e565b86810151825560209384019360019092019101610d03565b600783016000526020600020601f830160051c810160208410610d9e575b601f830160051c82018110610d925750506107a8565b60008155600101610d7c565b5080610d7c565b60ff1916600317600684015580519267ffffffffffffffff8411610bea57610dd06008820154612795565b601f8111611302575b50602093601f811160011461129557809192939460009161128a575b508160011b916000199060031b1c19161760088201555b6040517f53332075706c6f6164206661696c65643a2000000000000000000000000000006020820152610e5d6032828551610e4d8184840160208a01612908565b8101036012810184520182612840565b60405190610e6a82612824565b601082527f53335f55504c4f41445f4641494c45440000000000000000000000000000000060208301526004356000526001602052604060002060405190610eb1826127ec565b60043582526020820190848252600060408401524260608401528360808401523360a0840152805468010000000000000000811015610bea57610ef991600182018155612779565b919091610cd057825182555180519067ffffffffffffffff8211610bea578190610f266001850154612795565b601f8111611237575b50602090601f83116001146111c5576000926111ba575b50508160011b916000199060031b1c19161760018201555b600281016040830151151560ff8019835416911617905560608201516003820155608082015180519067ffffffffffffffff8211610bea57610fa36004840154612795565b601f8111611173575b50602090601f83116001146110a957936001600160a01b0360a060057f18dafa2c98f6ed61d1adf3383fc212d09496ae3a5919b497bf01fa13a74fffd3968661108a97610abd9d9b977f283ca619faf91cdd93a7d38ccef5b48ab9ec524f6e0d5c0663671bf8f6225ba49f9d9b60009261109e575b50508160011b916000199060031b1c19161760048201555b019201511673ffffffffffffffffffffffffffffffffffffffff1982541617905561106f6040519460a0865260a086019061292b565b9060006020860152426040860152848203606086015261292b565b9133608082015280600435930390a2610a8a565b015190503880611021565b906004840160005260206000209160005b601f198516811061115b575060a060057f18dafa2c98f6ed61d1adf3383fc212d09496ae3a5919b497bf01fa13a74fffd396600187610abd9d9b977f283ca619faf91cdd93a7d38ccef5b48ab9ec524f6e0d5c0663671bf8f6225ba49f9d9b976001600160a01b039761108a9b601f19811610611142575b505050811b016004820155611039565b015160001960f88460031b161c19169055388080611132565b919260206001819286850151815501940192016110ba565b600484016000526020600020601f840160051c8101602085106111b3575b601f830160051c820181106111a7575050610fac565b60008155600101611191565b5080611191565b015190508980610f46565b9250600184016000526020600020906000935b601f198416851061121c576001945083601f19811610611203575b505050811b016001820155610f5e565b015160001960f88460031b161c191690558980806111f3565b818101518355602094850194600190930192909101906111d8565b909150600184016000526020600020601f840160051c810160208510611283575b90849392915b601f830160051c82018110611274575050610f2f565b6000815585945060010161125e565b5080611258565b905083015185610df5565b60088201600052602060002060005b601f19831681106112ea575060019293949582601f198116106112d1575b5050811b016008820155610e0c565b85015160001960f88460031b161c1916905585806112c2565b848701518255602096870196600190920191016112a4565b600882016000526020600020601f860160051c810160208710611342575b601f830160051c82018110611336575050610dd9565b60008155600101611320565b5080611320565b606460405162461bcd60e51b815260206004820152601360248201527f52657175657374206e6f742070656e64696e67000000000000000000000000006044820152fd5b5060048054903510610735565b608460405162461bcd60e51b815260206004820152602260248201527f4f6e6c79206f7261636c65206f70657261746f722063616e2063616c6c20746860448201527f69730000000000000000000000000000000000000000000000000000000000006064820152fd5b3461016c5760208060031936011261016c57600435600052600290818152604060002090604051808383829554938481520190600052836000209260005b8582821061159e5750505061145992500383612840565b6114638251612acd565b9060009060005b84518110156114fc5761147d8186612b17565b516000526000825260ff60066040600020015416600481101561053c5786146114af575b6114aa90612a09565b61146a565b916114f46114aa916114c18588612b17565b51600052600084526114d96007604060002001612862565b6114e38288612b17565b526114ee8187612b17565b50612a09565b9290506114a1565b50925061150881612acd565b9160005b828110611575575050506040519082820192808352815180945260408301938160408260051b8601019301916000955b8287106115495785850386f35b909192938280611565600193603f198a8203018652885161292b565b960192019601959291909261153c565b806115836115999284612b17565b5161158e8287612b17565b526114ee8186612b17565b61150c565b8554845260019586019588955093019201611442565b3461016c5760a036600319011261016c5760243567ffffffffffffffff811161016c576115e59036906004016129b2565b60649081359060ff8216820361016c576084359260ff8416840361016c57602460206001600160a01b0360065416604051928380927f75c81b7b0000000000000000000000000000000000000000000000000000000082523360048301525afa90811561225c57600091612221575b50156121df576004351561219d5781511561215b576044351561211957600560ff8416116120d757600460ff85161161209557506004549161169583612a09565b600455600660ff8216101561053c57600560ff8516101561053c576040516116bc816127cf565b838152600435602082015282604082015260443560608201526116e560ff831660808301612a18565b6116f560ff861660a08301612a24565b3360c08201524260e0820152600061010082015260405161171581612808565b6000815261012082015260405161172b81612808565b6000815261014082015260006101608201528360005260006020526040600020908051825560208101516001830155604081015180519067ffffffffffffffff8211610bea5781906117806002860154612795565b601f8111612042575b50602090601f8311600114611fd057600092611fc5575b50508160011b916000199060031b1c19161760028301555b60608101516003830155600482016080820151600681101561053c57815460a084015190600582101561053c5761ff00907fffffffffffffffffffff0000000000000000000000000000000000000000000060ff75ffffffffffffffffffffffffffffffffffffffff000060c089015160101b1695169116179160081b161717905560e0810151600583015560068201610100820151600481101561053c5760ff8019835416911617905561012081015180519067ffffffffffffffff8211610bea57819061188a6007860154612795565b601f8111611f72575b50602090601f8311600114611f0057600092611ef5575b50508160011b916000199060031b1c19161760078301555b61014081015180519067ffffffffffffffff8211610bea576118e76008850154612795565b601f8111611eae575b50602090601f8311600114611e385791806009949261016094600092611e2d575b50508160011b916000199060031b1c19161760088501555b01519101556004356000526002602052611947836040600020612a30565b33600052600360205261195e836040600020612a30565b6040519361196b85612824565b601085527f55504c4f41445f5245515545535445440000000000000000000000000000000060208601526040519081606081011067ffffffffffffffff606084011117610bea5760608201604052602582527f46696c652075706c6f616420726571756573746564207468726f75676820576560208301527f62204150490000000000000000000000000000000000000000000000000000006040830152846000526001602052604060002060405190611a24826127ec565b868252876020830152600160408301524260608301528360808301523360a0830152805468010000000000000000811015610bea57611a6891600182018155612779565b610cd05781518155602082015180519067ffffffffffffffff8211610bea578190611a966001850154612795565b601f8111611dda575b50602090601f8311600114611d6857600092611d5d575b50508160011b916000199060031b1c19161760018201555b600281016040830151151560ff8019835416911617905560608201516003820155608082015180519067ffffffffffffffff8211610bea57611b136004840154612795565b601f8111611d16575b509188939160209a938b90601f8311600114611c6757936001600160a01b0360a060057f18dafa2c98f6ed61d1adf3383fc212d09496ae3a5919b497bf01fa13a74fffd3989686611bdf97611c229e97611bc59b600092611c5c575b50508160011b916000199060031b1c19161760048201555b019201511673ffffffffffffffffffffffffffffffffffffffff1982541617905560405193849360a0855260a085019061292b565b9060018d850152426040850152838203606085015261292b565b3360808301520390a2611c15611c006040519560a0875260a087019061292b565b936044358887015260ff604087019116612950565b60ff60608501911661295d565b426080830152827f56fe9db953ebb0bbe5baf81583ccc0a5c41dce5ac1ae12774d23d4f1eab86039339380600435940390a4604051908152f35b015190503880611b78565b6004849392999594016000528c6000209060005b601f1984168110611cfc575060a06005611bdf956001867f18dafa2c98f6ed61d1adf3383fc212d09496ae3a5919b497bf01fa13a74fffd39b9996611c229f6001600160a01b0397611bc59d9a601f19811610611ce3575b505050811b016004820155611b90565b015160001960f88460031b161c19169055388080611cd3565b818b01518355998e01998d98506001909201918e01611c7b565b600484016000526020600020601f840160051c810160208510611d56575b601f830160051c82018110611d4a575050611b1c565b60008155600101611d34565b5080611d34565b015190508a80611ab6565b9250600184016000526020600020906000935b601f1984168510611dbf576001945083601f19811610611da6575b505050811b016001820155611ace565b015160001960f88460031b161c191690558a8080611d96565b81810151835560209485019460019093019290910190611d7b565b909150600184016000526020600020601f840160051c810160208510611e26575b90849392915b601f830160051c82018110611e17575050611a9f565b60008155859450600101611e01565b5080611dfb565b015190508a80611911565b906008850160005260206000209160005b601f1985168110611e96575092600994926001926101609583601f19811610611e7d575b505050811b016008850155611929565b015160001960f88460031b161c191690558a8080611e6d565b91926020600181928685015181550194019201611e49565b600885016000526020600020601f840160051c810160208510611eee575b601f830160051c82018110611ee25750506118f0565b60008155600101611ecc565b5080611ecc565b0151905088806118aa565b9250600785016000526020600020906000935b601f1984168510611f57576001945083601f19811610611f3e575b505050811b0160078301556118c2565b015160001960f88460031b161c19169055888080611f2e565b81810151835560209485019460019093019290910190611f13565b909150600785016000526020600020601f840160051c810160208510611fbe575b90849392915b601f830160051c82018110611faf575050611893565b60008155859450600101611f99565b5080611f93565b0151905088806117a0565b9250600285016000526020600020906000935b601f1984168510612027576001945083601f1981161061200e575b505050811b0160028301556117b8565b015160001960f88460031b161c19169055888080611ffe565b81810151835560209485019460019093019290910190611fe3565b909150600285016000526020600020601f840160051c81016020851061208e575b90849392915b601f830160051c8201811061207f575050611789565b60008155859450600101612069565b5080612063565b60405162461bcd60e51b815260206004820152600d60248201527f496e76616c6964207374616765000000000000000000000000000000000000006044820152fd5b60405162461bcd60e51b815260206004820152601160248201527f496e76616c69642066696c6520747970650000000000000000000000000000006044820152fd5b60405162461bcd60e51b815260206004820152601260248201527f46696c65206861736820726571756972656400000000000000000000000000006044820152fd5b60405162461bcd60e51b815260206004820152601960248201527f46696c65206e616d652063616e6e6f7420626520656d707479000000000000006044820152fd5b60405162461bcd60e51b815260206004820152601260248201527f496e76616c69642070726f6475637420494400000000000000000000000000006044820152fd5b60405162461bcd60e51b815260206004820152601960248201527f4e6f7420616e20616374697665207374616b65686f6c646572000000000000006044820152fd5b90506020813d602011612254575b8161223c60209383612840565b8101031261016c5751801515810361016c5785611654565b3d915061222f565b6040513d6000823e3d90fd5b3461016c57604036600319011261016c57600435801515806122ad575b61228e90612a6a565b6000526000602052602060243560036040600020015414604051908152f35b506004548110612285565b3461016c57600036600319011261016c576020600454604051908152f35b3461016c57604036600319011261016c576024803590600580831015918261016c576004356000526002602090808252604060002092604051808585829754938481520190600052856000209260005b8782821061246a5750505061233d92500385612840565b6123478451612b2b565b9460009760005b8651811015612428576123618188612b17565b516000526000865260ff898160046040600020015460081c1690612413578481101561241357831490816123cf575b506123a4575b61239f90612a09565b61234e565b986123c761239f916123b68c8a612b17565b516123c1828c612b17565b52612a09565b999050612396565b90506123db8289612b17565b51600052600087526006604060002001541660048110156123fe5785148b612390565b84634e487b7160e01b60005260216004526000fd5b85634e487b7160e01b60005260216004526000fd5b878a61243381612b2b565b9160005b82811061244c57604051806105bc8682612977565b8061245a6124659284612b17565b516123c18287612b17565b612437565b855484526001958601958a955093019201612326565b3461016c57602036600319011261016c57600435600052600060205260406000208054600182015491600281016124b690612862565b9060038101546004820154906005830154600684015460ff1690600785016124dd90612862565b936124ea60088701612862565b956009015496604051998a998a5260208a01526101808060408b015289016125119161292b565b9360608901526080880160ff82169061252991612950565b61253d60a0890160ff600884901c1661295d565b60101c6001600160a01b031660c088015260e087015261010086016125619161296a565b8481036101208601526125739161292b565b8381036101408501526125859161292b565b906101608301520390f35b3461016c5761259e3661271f565b906000526001602052604060002090815481101561016c576125bf91612779565b5080546125ce60018301612862565b9161263160ff6002830154166003830154926001600160a01b0360056125f660048401612862565b9201541693612617604051978897885260c0602089015260c088019061292b565b92151560408701526060860152848203608086015261292b565b9060a08301520390f35b3461016c57604036600319011261016c57612654612763565b6001600160a01b03602435911660005260036020526040600020805482101561016c5760209161268391612735565b90549060031b1c604051908152f35b3461016c57600036600319011261016c5760206001600160a01b0360065416604051908152f35b3461016c57600036600319011261016c5760206001600160a01b0360055416604051908152f35b3461016c576126ee3661271f565b9060005260026020526040600020805482101561016c5760209161271191612735565b90546040519160031b1c8152f35b604090600319011261016c576004359060243590565b805482101561274d5760005260206000200190600090565b634e487b7160e01b600052603260045260246000fd5b600435906001600160a01b038216820361016c57565b805482101561274d576000526006602060002091020190600090565b90600182811c921680156127c5575b60208310146127af57565b634e487b7160e01b600052602260045260246000fd5b91607f16916127a4565b610180810190811067ffffffffffffffff821117610bea57604052565b60c0810190811067ffffffffffffffff821117610bea57604052565b6020810190811067ffffffffffffffff821117610bea57604052565b6040810190811067ffffffffffffffff821117610bea57604052565b90601f8019910116810190811067ffffffffffffffff821117610bea57604052565b906040519182600082549261287684612795565b9081845260019485811690816000146128e557506001146128a2575b50506128a092500383612840565b565b9093915060005260209081600020936000915b8183106128cd5750506128a093508201013880612892565b855488840185015294850194879450918301916128b5565b9150506128a094506020925060ff191682840152151560051b8201013880612892565b60005b83811061291b5750506000910152565b818101518382015260200161290b565b9060209161294481518092818552858086019101612908565b601f01601f1916010190565b90600682101561053c5752565b90600582101561053c5752565b90600482101561053c5752565b6020908160408183019282815285518094520193019160005b82811061299e575050505090565b835185529381019392810192600101612990565b81601f8201121561016c5780359067ffffffffffffffff8211610bea57604051926129e7601f8401601f191660200185612840565b8284526020838301011161016c57816000926020809301838601378301015290565b60001981146106215760010190565b600682101561053c5752565b600582101561053c5752565b805468010000000000000000811015610bea57612a5291600182018155612735565b819291549060031b91821b91600019901b1916179055565b15612a7157565b606460405162461bcd60e51b815260206004820152601260248201527f496e76616c6964207265717565737420494400000000000000000000000000006044820152fd5b67ffffffffffffffff8111610bea5760051b60200190565b90612ad782612ab5565b612ae46040519182612840565b8281528092612af5601f1991612ab5565b019060005b828110612b0657505050565b806060602080938501015201612afa565b805182101561274d5760209160051b010190565b90612b3582612ab5565b612b426040519182612840565b8281528092612b53601f1991612ab5565b019060203691013756fea264697066735822122083c86da4db89e984f926cb4863971a7640d218f462c4a548df94900bd81749ac64736f6c63430008130033","opcodes":"PUSH1 0x80 CALLVALUE PUSH3 0x9B JUMPI PUSH1 0x1F PUSH3 0x2C5F CODESIZE DUP2 SWAP1 SUB SWAP2 DUP3 ADD PUSH1 0x1F NOT AND DUP4 ADD SWAP2 PUSH1 0x1 PUSH1 0x1 PUSH1 0x40 SHL SUB DUP4 GT DUP5 DUP5 LT OR PUSH3 0xA0 JUMPI DUP1 DUP5 SWAP3 PUSH1 0x40 SWAP5 DUP6 MSTORE DUP4 CODECOPY DUP2 ADD SUB SLT PUSH3 0x9B JUMPI PUSH3 0x5A PUSH1 0x20 PUSH3 0x52 DUP4 PUSH3 0xB6 JUMP JUMPDEST SWAP3 ADD PUSH3 0xB6 JUMP JUMPDEST PUSH1 0x1 PUSH1 0x4 SSTORE PUSH1 0x6 DUP1 SLOAD PUSH1 0x1 PUSH1 0x1 PUSH1 0xA0 SHL SUB SWAP4 DUP5 AND PUSH1 0x1 PUSH1 0x1 PUSH1 0xA0 SHL SUB NOT SWAP2 DUP3 AND OR SWAP1 SWAP2 SSTORE PUSH1 0x5 DUP1 SLOAD SWAP3 SWAP1 SWAP4 AND SWAP2 AND OR SWAP1 SSTORE PUSH1 0x40 MLOAD PUSH2 0x2B93 SWAP1 DUP2 PUSH3 0xCC DUP3 CODECOPY RETURN JUMPDEST PUSH1 0x0 DUP1 REVERT JUMPDEST PUSH4 0x4E487B71 PUSH1 0xE0 SHL PUSH1 0x0 MSTORE PUSH1 0x41 PUSH1 0x4 MSTORE PUSH1 0x24 PUSH1 0x0 REVERT JUMPDEST MLOAD SWAP1 PUSH1 0x1 PUSH1 0x1 PUSH1 0xA0 SHL SUB DUP3 AND DUP3 SUB PUSH3 0x9B JUMPI JUMP INVALID PUSH1 0x80 PUSH1 0x40 MSTORE PUSH1 0x4 CALLDATASIZE LT ISZERO PUSH2 0x12 JUMPI PUSH1 0x0 DUP1 REVERT JUMPDEST PUSH1 0x0 CALLDATALOAD PUSH1 0xE0 SHR DUP1 PUSH4 0x4AA6147 EQ PUSH2 0x26E0 JUMPI DUP1 PUSH4 0x11679EF7 EQ PUSH2 0x26B9 JUMPI DUP1 PUSH4 0x23FEDA0A EQ PUSH2 0x2692 JUMPI DUP1 PUSH4 0x263CB6B6 EQ PUSH2 0x263B JUMPI DUP1 PUSH4 0x2BC553F9 EQ PUSH2 0x2590 JUMPI DUP1 PUSH4 0x3DA98A31 EQ PUSH2 0x2480 JUMPI DUP1 PUSH4 0x412A3BD2 EQ PUSH2 0x22D6 JUMPI DUP1 PUSH4 0x6A84A985 EQ PUSH2 0x22B8 JUMPI DUP1 PUSH4 0x85885DFC EQ PUSH2 0x2268 JUMPI DUP1 PUSH4 0x89D62B03 EQ PUSH2 0x15B4 JUMPI DUP1 PUSH4 0x8D2AC3C2 EQ PUSH2 0x1404 JUMPI DUP1 PUSH4 0xA0F27085 EQ PUSH2 0x6B9 JUMPI DUP1 PUSH4 0xC59D4847 EQ PUSH2 0x5D7 JUMPI DUP1 PUSH4 0xEB5D3E79 EQ PUSH2 0x55D JUMPI DUP1 PUSH4 0xECFD16EA EQ PUSH2 0x316 JUMPI DUP1 PUSH4 0xFB13EFFC EQ PUSH2 0x171 JUMPI PUSH4 0xFEE56BBE EQ PUSH2 0xD7 JUMPI PUSH1 0x0 DUP1 REVERT JUMPDEST CALLVALUE PUSH2 0x16C JUMPI PUSH1 0x20 CALLDATASIZE PUSH1 0x3 NOT ADD SLT PUSH2 0x16C JUMPI PUSH2 0xF0 PUSH2 0x2763 JUMP JUMPDEST PUSH1 0x5 SLOAD SWAP1 PUSH1 0x1 PUSH1 0x1 PUSH1 0xA0 SHL SUB DUP1 DUP4 AND CALLER SUB PUSH2 0x128 JUMPI PUSH20 0xFFFFFFFFFFFFFFFFFFFFFFFFFFFFFFFFFFFFFFFF NOT SWAP2 AND SWAP2 AND OR PUSH1 0x5 SSTORE PUSH1 0x0 DUP1 RETURN JUMPDEST PUSH1 0x64 PUSH1 0x40 MLOAD PUSH3 0x461BCD PUSH1 0xE5 SHL DUP2 MSTORE PUSH1 0x20 PUSH1 0x4 DUP3 ADD MSTORE PUSH1 0x20 PUSH1 0x24 DUP3 ADD MSTORE PUSH32 0x4F6E6C792063757272656E74206F70657261746F722063616E20757064617465 PUSH1 0x44 DUP3 ADD MSTORE REVERT JUMPDEST PUSH1 0x0 DUP1 REVERT JUMPDEST CALLVALUE PUSH2 0x16C JUMPI PUSH1 0x20 DUP1 PUSH1 0x3 NOT CALLDATASIZE ADD SLT PUSH2 0x16C JUMPI PUSH1 0x4 CALLDATALOAD DUP1 ISZERO ISZERO DUP1 PUSH2 0x30B JUMPI JUMPDEST PUSH2 0x198 SWAP1 PUSH2 0x2A6A JUMP JUMPDEST PUSH1 0x0 MSTORE PUSH1 0x1 SWAP1 DUP2 DUP2 MSTORE PUSH1 0x40 PUSH1 0x0 KECCAK256 DUP1 SLOAD SWAP2 PUSH2 0x1B2 DUP4 PUSH2 0x2AB5 JUMP JUMPDEST SWAP3 PUSH2 0x1C0 PUSH1 0x40 MLOAD SWAP5 DUP6 PUSH2 0x2840 JUMP JUMPDEST DUP1 DUP5 MSTORE DUP2 DUP5 ADD DUP1 SWAP4 PUSH1 0x0 MSTORE DUP3 PUSH1 0x0 KECCAK256 PUSH1 0x0 SWAP2 JUMPDEST DUP4 DUP4 LT PUSH2 0x293 JUMPI POP POP POP POP PUSH1 0x40 MLOAD SWAP4 DUP5 SWAP4 DUP3 DUP6 ADD SWAP1 DUP4 DUP7 MSTORE MLOAD DUP1 SWAP2 MSTORE PUSH1 0x40 DUP6 ADD SWAP3 PUSH1 0x40 DUP3 PUSH1 0x5 SHL DUP8 ADD ADD SWAP5 SWAP4 PUSH1 0x0 SWAP1 JUMPDEST DUP4 DUP3 LT PUSH2 0x210 JUMPI DUP8 DUP8 SUB DUP9 RETURN JUMPDEST SWAP2 DUP5 SWAP7 DUP2 SWAP6 SWAP3 SWAP5 SWAP7 SWAP9 POP DUP2 SWAP1 PUSH1 0x3F NOT DUP12 DUP3 SUB ADD DUP6 MSTORE DUP10 MLOAD SWAP1 DUP2 MLOAD DUP2 MSTORE PUSH2 0x26E PUSH2 0x245 DUP5 DUP5 ADD MLOAD PUSH1 0xC0 DUP1 DUP8 DUP7 ADD MSTORE DUP5 ADD SWAP1 PUSH2 0x292B JUMP JUMPDEST PUSH1 0x40 DUP5 ADD MLOAD ISZERO ISZERO PUSH1 0x40 DUP5 ADD MSTORE PUSH1 0x60 DUP1 DUP6 ADD MLOAD SWAP1 DUP5 ADD MSTORE PUSH1 0x80 DUP1 DUP6 ADD MLOAD SWAP1 DUP5 DUP4 SUB SWAP1 DUP6 ADD MSTORE PUSH2 0x292B JUMP JUMPDEST SWAP2 PUSH1 0x1 PUSH1 0x1 PUSH1 0xA0 SHL SUB PUSH1 0xA0 DUP1 SWAP3 ADD MLOAD AND SWAP2 ADD MSTORE SWAP9 ADD SWAP3 ADD SWAP3 ADD DUP8 SWAP7 SWAP6 SWAP4 SWAP2 SWAP5 SWAP3 PUSH2 0x203 JUMP JUMPDEST SWAP7 PUSH1 0x6 DUP6 DUP3 SWAP8 SWAP9 SWAP7 SWAP10 PUSH1 0x40 MLOAD PUSH2 0x2A8 DUP2 PUSH2 0x27EC JUMP JUMPDEST DUP6 SLOAD DUP2 MSTORE PUSH2 0x2B7 DUP6 DUP8 ADD PUSH2 0x2862 JUMP JUMPDEST DUP4 DUP3 ADD MSTORE PUSH1 0xFF PUSH1 0x2 DUP8 ADD SLOAD AND ISZERO ISZERO PUSH1 0x40 DUP3 ADD MSTORE PUSH1 0x3 DUP7 ADD SLOAD PUSH1 0x60 DUP3 ADD MSTORE PUSH2 0x2E0 PUSH1 0x4 DUP8 ADD PUSH2 0x2862 JUMP JUMPDEST PUSH1 0x80 DUP3 ADD MSTORE PUSH1 0x1 PUSH1 0x1 PUSH1 0xA0 SHL SUB PUSH1 0x5 DUP8 ADD SLOAD AND PUSH1 0xA0 DUP3 ADD MSTORE DUP2 MSTORE ADD SWAP3 ADD SWAP3 ADD SWAP2 SWAP1 SWAP7 SWAP4 SWAP6 SWAP5 SWAP7 PUSH2 0x1D3 JUMP JUMPDEST POP PUSH1 0x4 SLOAD DUP2 LT PUSH2 0x18F JUMP JUMPDEST CALLVALUE PUSH2 0x16C JUMPI PUSH1 0x20 CALLDATASIZE PUSH1 0x3 NOT ADD SLT PUSH2 0x16C JUMPI PUSH1 0x4 CALLDATALOAD PUSH1 0x0 PUSH2 0x160 PUSH1 0x40 MLOAD PUSH2 0x33B DUP2 PUSH2 0x27CF JUMP JUMPDEST DUP3 DUP2 MSTORE DUP3 PUSH1 0x20 DUP3 ADD MSTORE PUSH1 0x60 PUSH1 0x40 DUP3 ADD MSTORE DUP3 PUSH1 0x60 DUP3 ADD MSTORE DUP3 PUSH1 0x80 DUP3 ADD MSTORE DUP3 PUSH1 0xA0 DUP3 ADD MSTORE DUP3 PUSH1 0xC0 DUP3 ADD MSTORE DUP3 PUSH1 0xE0 DUP3 ADD MSTORE DUP3 PUSH2 0x100 DUP3 ADD MSTORE PUSH1 0x60 PUSH2 0x120 DUP3 ADD MSTORE PUSH1 0x60 PUSH2 0x140 DUP3 ADD MSTORE ADD MSTORE DUP1 ISZERO ISZERO DUP1 PUSH2 0x552 JUMPI JUMPDEST PUSH2 0x394 SWAP1 PUSH2 0x2A6A JUMP JUMPDEST PUSH1 0x0 MSTORE PUSH1 0x0 PUSH1 0x20 MSTORE PUSH1 0x40 PUSH1 0x0 KECCAK256 PUSH1 0x40 MLOAD SWAP1 PUSH2 0x3AE DUP3 PUSH2 0x27CF JUMP JUMPDEST DUP1 SLOAD DUP3 MSTORE PUSH1 0x1 DUP2 ADD SLOAD PUSH1 0x20 DUP4 ADD MSTORE PUSH2 0x3C8 PUSH1 0x2 DUP3 ADD PUSH2 0x2862 JUMP JUMPDEST PUSH1 0x40 DUP4 ADD MSTORE PUSH1 0x3 DUP2 ADD SLOAD PUSH1 0x60 DUP4 ADD MSTORE PUSH1 0x1 PUSH1 0x1 PUSH1 0xA0 SHL SUB PUSH1 0x4 DUP3 ADD SLOAD PUSH2 0x3F4 PUSH1 0xFF DUP3 AND PUSH1 0x80 DUP7 ADD PUSH2 0x2A18 JUMP JUMPDEST PUSH2 0x407 PUSH1 0xFF DUP3 PUSH1 0x8 SHR AND PUSH1 0xA0 DUP7 ADD PUSH2 0x2A24 JUMP JUMPDEST PUSH1 0x10 SHR AND PUSH1 0xC0 DUP4 ADD MSTORE PUSH1 0x5 DUP2 ADD SLOAD PUSH1 0xE0 DUP4 ADD MSTORE PUSH1 0xFF PUSH1 0x6 DUP3 ADD SLOAD AND SWAP1 PUSH1 0x4 DUP3 LT ISZERO PUSH2 0x53C JUMPI PUSH1 0x9 SWAP2 PUSH2 0x100 DUP5 ADD MSTORE PUSH2 0x441 PUSH1 0x7 DUP3 ADD PUSH2 0x2862 JUMP JUMPDEST PUSH2 0x120 DUP5 ADD MSTORE PUSH2 0x453 PUSH1 0x8 DUP3 ADD PUSH2 0x2862 JUMP JUMPDEST PUSH2 0x140 DUP5 ADD MSTORE ADD SLOAD PUSH2 0x160 DUP3 ADD MSTORE PUSH1 0x40 MLOAD DUP1 SWAP2 PUSH1 0x20 DUP3 MSTORE DUP1 MLOAD PUSH1 0x20 DUP4 ADD MSTORE PUSH1 0x20 DUP2 ADD MLOAD PUSH1 0x40 DUP4 ADD MSTORE PUSH2 0x160 PUSH2 0x52F PUSH2 0x49C PUSH1 0x40 DUP5 ADD MLOAD PUSH2 0x180 PUSH1 0x60 DUP8 ADD MSTORE PUSH2 0x1A0 DUP7 ADD SWAP1 PUSH2 0x292B JUMP JUMPDEST PUSH1 0x60 DUP5 ADD MLOAD PUSH1 0x80 DUP7 ADD MSTORE PUSH2 0x4B8 PUSH1 0x80 DUP6 ADD MLOAD PUSH1 0xA0 DUP8 ADD SWAP1 PUSH2 0x2950 JUMP JUMPDEST PUSH2 0x4CA PUSH1 0xA0 DUP6 ADD MLOAD PUSH1 0xC0 DUP8 ADD SWAP1 PUSH2 0x295D JUMP JUMPDEST PUSH1 0x1 PUSH1 0x1 PUSH1 0xA0 SHL SUB PUSH1 0xC0 DUP6 ADD MLOAD AND PUSH1 0xE0 DUP7 ADD MSTORE PUSH1 0xE0 DUP5 ADD MLOAD PUSH2 0x100 DUP7 ADD MSTORE PUSH2 0x4FC PUSH2 0x100 DUP6 ADD MLOAD PUSH2 0x120 DUP8 ADD SWAP1 PUSH2 0x296A JUMP JUMPDEST PUSH2 0x51A PUSH2 0x120 DUP6 ADD MLOAD SWAP2 PUSH1 0x1F NOT SWAP3 DUP4 DUP9 DUP4 SUB ADD PUSH2 0x140 DUP10 ADD MSTORE PUSH2 0x292B JUMP JUMPDEST SWAP1 PUSH2 0x140 DUP6 ADD MLOAD SWAP1 DUP7 DUP4 SUB ADD DUP5 DUP8 ADD MSTORE PUSH2 0x292B JUMP JUMPDEST SWAP2 ADD MLOAD PUSH2 0x180 DUP4 ADD MSTORE SUB SWAP1 RETURN JUMPDEST PUSH4 0x4E487B71 PUSH1 0xE0 SHL PUSH1 0x0 MSTORE PUSH1 0x21 PUSH1 0x4 MSTORE PUSH1 0x24 PUSH1 0x0 REVERT JUMPDEST POP PUSH1 0x4 SLOAD DUP2 LT PUSH2 0x38B JUMP JUMPDEST CALLVALUE PUSH2 0x16C JUMPI PUSH1 0x20 DUP1 PUSH1 0x3 NOT CALLDATASIZE ADD SLT PUSH2 0x16C JUMPI PUSH1 0x4 CALLDATALOAD PUSH1 0x0 MSTORE PUSH1 0x2 DUP2 MSTORE PUSH1 0x40 PUSH1 0x0 KECCAK256 SWAP1 PUSH1 0x40 MLOAD SWAP1 DUP2 DUP2 DUP5 SLOAD SWAP2 DUP3 DUP2 MSTORE ADD SWAP4 PUSH1 0x0 MSTORE DUP2 PUSH1 0x0 KECCAK256 SWAP2 PUSH1 0x0 SWAP1 JUMPDEST DUP3 DUP3 LT PUSH2 0x5C0 JUMPI PUSH2 0x5BC DUP6 PUSH2 0x5B0 DUP2 DUP10 SUB DUP3 PUSH2 0x2840 JUMP JUMPDEST PUSH1 0x40 MLOAD SWAP2 DUP3 SWAP2 DUP3 PUSH2 0x2977 JUMP JUMPDEST SUB SWAP1 RETURN JUMPDEST DUP4 SLOAD DUP7 MSTORE SWAP5 DUP6 ADD SWAP5 PUSH1 0x1 SWAP4 DUP5 ADD SWAP4 SWAP1 SWAP2 ADD SWAP1 PUSH2 0x599 JUMP JUMPDEST CALLVALUE PUSH2 0x16C JUMPI PUSH1 0x0 CALLDATASIZE PUSH1 0x3 NOT ADD SLT PUSH2 0x16C JUMPI PUSH1 0x4 SLOAD PUSH1 0x0 SWAP1 DUP2 DUP1 PUSH1 0x1 JUMPDEST DUP4 DUP2 LT PUSH2 0x637 JUMPI POP PUSH1 0x0 NOT DUP4 ADD SWAP3 DUP4 GT PUSH2 0x621 JUMPI PUSH1 0x80 SWAP4 PUSH1 0x40 MLOAD SWAP4 DUP5 MSTORE PUSH1 0x20 DUP5 ADD MSTORE PUSH1 0x40 DUP4 ADD MSTORE PUSH1 0x60 DUP3 ADD MSTORE RETURN JUMPDEST PUSH4 0x4E487B71 PUSH1 0xE0 SHL PUSH1 0x0 MSTORE PUSH1 0x11 PUSH1 0x4 MSTORE PUSH1 0x24 PUSH1 0x0 REVERT JUMPDEST SWAP4 DUP5 PUSH1 0x0 MSTORE PUSH1 0x0 PUSH1 0x20 MSTORE PUSH1 0xFF PUSH1 0x6 PUSH1 0x40 PUSH1 0x0 KECCAK256 ADD SLOAD AND PUSH1 0x4 DUP2 LT ISZERO PUSH2 0x53C JUMPI PUSH1 0x2 DUP2 SUB PUSH2 0x676 JUMPI POP PUSH2 0x66B PUSH2 0x671 SWAP2 PUSH2 0x2A09 JUMP JUMPDEST SWAP5 PUSH2 0x2A09 JUMP JUMPDEST PUSH2 0x5F3 JUMP JUMPDEST SWAP1 SWAP5 SWAP1 PUSH1 0x3 DUP2 SUB PUSH2 0x695 JUMPI POP SWAP1 PUSH2 0x68F PUSH2 0x671 SWAP2 PUSH2 0x2A09 JUMP JUMPDEST SWAP2 PUSH2 0x2A09 JUMP JUMPDEST ISZERO PUSH2 0x6A4 JUMPI JUMPDEST PUSH2 0x671 SWAP1 PUSH2 0x2A09 JUMP JUMPDEST SWAP2 PUSH2 0x6B1 PUSH2 0x671 SWAP2 PUSH2 0x2A09 JUMP JUMPDEST SWAP3 SWAP1 POP PUSH2 0x69B JUMP JUMPDEST CALLVALUE PUSH2 0x16C JUMPI PUSH1 0x80 CALLDATASIZE PUSH1 0x3 NOT ADD SLT PUSH2 0x16C JUMPI PUSH1 0x24 CALLDATALOAD ISZERO ISZERO PUSH1 0x24 CALLDATALOAD SUB PUSH2 0x16C JUMPI PUSH1 0x44 CALLDATALOAD PUSH8 0xFFFFFFFFFFFFFFFF DUP2 GT PUSH2 0x16C JUMPI PUSH2 0x6F7 SWAP1 CALLDATASIZE SWAP1 PUSH1 0x4 ADD PUSH2 0x29B2 JUMP JUMPDEST PUSH1 0x64 CALLDATALOAD PUSH8 0xFFFFFFFFFFFFFFFF DUP2 GT PUSH2 0x16C JUMPI PUSH2 0x717 SWAP1 CALLDATASIZE SWAP1 PUSH1 0x4 ADD PUSH2 0x29B2 JUMP JUMPDEST SWAP1 PUSH1 0x1 PUSH1 0x1 PUSH1 0xA0 SHL SUB PUSH1 0x5 SLOAD AND CALLER SUB PUSH2 0x139A JUMPI PUSH1 0x4 CALLDATALOAD ISZERO ISZERO DUP1 PUSH2 0x138D JUMPI JUMPDEST PUSH2 0x73E SWAP1 PUSH2 0x2A6A JUMP JUMPDEST PUSH1 0x4 CALLDATALOAD PUSH1 0x0 MSTORE PUSH1 0x0 PUSH1 0x20 MSTORE PUSH1 0x40 PUSH1 0x0 KECCAK256 SWAP2 PUSH1 0x6 DUP4 ADD SLOAD PUSH1 0xFF DUP2 AND PUSH1 0x4 DUP2 LT ISZERO PUSH2 0x53C JUMPI PUSH2 0x1349 JUMPI PUSH1 0x24 CALLDATALOAD ISZERO PUSH2 0xDA5 JUMPI POP SWAP1 SWAP2 PUSH1 0x2 PUSH1 0xFF NOT PUSH1 0x6 DUP4 ADD SLOAD AND OR PUSH1 0x6 DUP3 ADD SSTORE DUP3 MLOAD PUSH8 0xFFFFFFFFFFFFFFFF DUP2 GT PUSH2 0xBEA JUMPI PUSH2 0x79F PUSH1 0x7 DUP4 ADD SLOAD PUSH2 0x2795 JUMP JUMPDEST PUSH1 0x1F DUP2 GT PUSH2 0xD5E JUMPI JUMPDEST POP DUP1 PUSH1 0x20 PUSH1 0x1F DUP3 GT PUSH1 0x1 EQ PUSH2 0xCF1 JUMPI PUSH1 0x0 SWAP2 PUSH2 0xCE6 JUMPI JUMPDEST POP DUP2 PUSH1 0x1 SHL SWAP2 PUSH1 0x0 NOT SWAP1 PUSH1 0x3 SHL SHR NOT AND OR PUSH1 0x7 DUP3 ADD SSTORE JUMPDEST PUSH1 0x40 MLOAD PUSH32 0x46696C65207375636365737366756C6C792075706C6F6164656420746F205333 PUSH1 0x20 DUP3 ADD MSTORE PUSH32 0x3A20000000000000000000000000000000000000000000000000000000000000 PUSH1 0x40 DUP3 ADD MSTORE PUSH2 0x84D PUSH1 0x42 DUP3 DUP7 MLOAD PUSH2 0x83D DUP2 DUP5 DUP5 ADD PUSH1 0x20 DUP12 ADD PUSH2 0x2908 JUMP JUMPDEST DUP2 ADD SUB PUSH1 0x22 DUP2 ADD DUP5 MSTORE ADD DUP3 PUSH2 0x2840 JUMP JUMPDEST PUSH1 0x40 MLOAD SWAP1 PUSH2 0x85A DUP3 PUSH2 0x2824 JUMP JUMPDEST PUSH1 0x11 DUP3 MSTORE PUSH32 0x53335F55504C4F41445F53554343455353000000000000000000000000000000 PUSH1 0x20 DUP4 ADD MSTORE PUSH1 0x4 CALLDATALOAD PUSH1 0x0 MSTORE PUSH1 0x1 PUSH1 0x20 MSTORE PUSH1 0x40 PUSH1 0x0 KECCAK256 PUSH1 0x40 MLOAD SWAP1 PUSH2 0x8A1 DUP3 PUSH2 0x27EC JUMP JUMPDEST PUSH1 0x4 CALLDATALOAD DUP3 MSTORE PUSH1 0x20 DUP3 ADD SWAP1 DUP5 DUP3 MSTORE PUSH1 0x1 PUSH1 0x40 DUP5 ADD MSTORE TIMESTAMP PUSH1 0x60 DUP5 ADD MSTORE DUP4 PUSH1 0x80 DUP5 ADD MSTORE CALLER PUSH1 0xA0 DUP5 ADD MSTORE DUP1 SLOAD PUSH9 0x10000000000000000 DUP2 LT ISZERO PUSH2 0xBEA JUMPI PUSH2 0x8E9 SWAP2 PUSH1 0x1 DUP3 ADD DUP2 SSTORE PUSH2 0x2779 JUMP JUMPDEST SWAP2 SWAP1 SWAP2 PUSH2 0xCD0 JUMPI DUP3 MLOAD DUP3 SSTORE MLOAD DUP1 MLOAD SWAP1 PUSH8 0xFFFFFFFFFFFFFFFF DUP3 GT PUSH2 0xBEA JUMPI DUP2 SWAP1 PUSH2 0x916 PUSH1 0x1 DUP6 ADD SLOAD PUSH2 0x2795 JUMP JUMPDEST PUSH1 0x1F DUP2 GT PUSH2 0xC7D JUMPI JUMPDEST POP PUSH1 0x20 SWAP1 PUSH1 0x1F DUP4 GT PUSH1 0x1 EQ PUSH2 0xC0B JUMPI PUSH1 0x0 SWAP3 PUSH2 0xC00 JUMPI JUMPDEST POP POP DUP2 PUSH1 0x1 SHL SWAP2 PUSH1 0x0 NOT SWAP1 PUSH1 0x3 SHL SHR NOT AND OR PUSH1 0x1 DUP3 ADD SSTORE JUMPDEST PUSH1 0x2 DUP2 ADD PUSH1 0x40 DUP4 ADD MLOAD ISZERO ISZERO PUSH1 0xFF DUP1 NOT DUP4 SLOAD AND SWAP2 AND OR SWAP1 SSTORE PUSH1 0x60 DUP3 ADD MLOAD PUSH1 0x3 DUP3 ADD SSTORE PUSH1 0x80 DUP3 ADD MLOAD DUP1 MLOAD SWAP1 PUSH8 0xFFFFFFFFFFFFFFFF DUP3 GT PUSH2 0xBEA JUMPI PUSH2 0x993 PUSH1 0x4 DUP5 ADD SLOAD PUSH2 0x2795 JUMP JUMPDEST PUSH1 0x1F DUP2 GT PUSH2 0xBA3 JUMPI JUMPDEST POP PUSH1 0x20 SWAP1 PUSH1 0x1F DUP4 GT PUSH1 0x1 EQ PUSH2 0xAD9 JUMPI SWAP4 PUSH1 0x1 PUSH1 0x1 PUSH1 0xA0 SHL SUB PUSH1 0xA0 PUSH1 0x5 PUSH32 0x18DAFA2C98F6ED61D1ADF3383FC212D09496AE3A5919B497BF01FA13A74FFFD3 SWAP7 DUP7 PUSH2 0xA7A SWAP8 PUSH2 0xABD SWAP14 SWAP12 SWAP8 PUSH32 0x283CA619FAF91CDD93A7D38CCEF5B48AB9EC524F6E0D5C0663671BF8F6225BA4 SWAP16 SWAP14 SWAP12 PUSH1 0x0 SWAP3 PUSH2 0xACE JUMPI JUMPDEST POP POP DUP2 PUSH1 0x1 SHL SWAP2 PUSH1 0x0 NOT SWAP1 PUSH1 0x3 SHL SHR NOT AND OR PUSH1 0x4 DUP3 ADD SSTORE JUMPDEST ADD SWAP3 ADD MLOAD AND PUSH20 0xFFFFFFFFFFFFFFFFFFFFFFFFFFFFFFFFFFFFFFFF NOT DUP3 SLOAD AND OR SWAP1 SSTORE PUSH2 0xA5F PUSH1 0x40 MLOAD SWAP5 PUSH1 0xA0 DUP7 MSTORE PUSH1 0xA0 DUP7 ADD SWAP1 PUSH2 0x292B JUMP JUMPDEST SWAP1 PUSH1 0x1 PUSH1 0x20 DUP7 ADD MSTORE TIMESTAMP PUSH1 0x40 DUP7 ADD MSTORE DUP5 DUP3 SUB PUSH1 0x60 DUP7 ADD MSTORE PUSH2 0x292B JUMP JUMPDEST SWAP2 CALLER PUSH1 0x80 DUP3 ADD MSTORE DUP1 PUSH1 0x4 CALLDATALOAD SWAP4 SUB SWAP1 LOG2 JUMPDEST PUSH1 0x9 TIMESTAMP SWAP2 ADD SSTORE PUSH2 0xAAF PUSH1 0x40 MLOAD SWAP5 PUSH1 0x24 CALLDATALOAD ISZERO ISZERO DUP7 MSTORE PUSH1 0x80 PUSH1 0x20 DUP8 ADD MSTORE PUSH1 0x80 DUP7 ADD SWAP1 PUSH2 0x292B JUMP JUMPDEST SWAP1 DUP5 DUP3 SUB PUSH1 0x40 DUP7 ADD MSTORE PUSH2 0x292B JUMP JUMPDEST SWAP2 TIMESTAMP PUSH1 0x60 DUP3 ADD MSTORE DUP1 PUSH1 0x4 CALLDATALOAD SWAP4 SUB SWAP1 LOG2 STOP JUMPDEST ADD MLOAD SWAP1 POP CODESIZE DUP1 PUSH2 0xA11 JUMP JUMPDEST SWAP1 PUSH1 0x4 DUP5 ADD PUSH1 0x0 MSTORE PUSH1 0x20 PUSH1 0x0 KECCAK256 SWAP2 PUSH1 0x0 JUMPDEST PUSH1 0x1F NOT DUP6 AND DUP2 LT PUSH2 0xB8B JUMPI POP PUSH1 0xA0 PUSH1 0x5 PUSH32 0x18DAFA2C98F6ED61D1ADF3383FC212D09496AE3A5919B497BF01FA13A74FFFD3 SWAP7 PUSH1 0x1 DUP8 PUSH2 0xABD SWAP14 SWAP12 SWAP8 PUSH32 0x283CA619FAF91CDD93A7D38CCEF5B48AB9EC524F6E0D5C0663671BF8F6225BA4 SWAP16 SWAP14 SWAP12 SWAP8 PUSH1 0x1 PUSH1 0x1 PUSH1 0xA0 SHL SUB SWAP8 PUSH2 0xA7A SWAP12 PUSH1 0x1F NOT DUP2 AND LT PUSH2 0xB72 JUMPI JUMPDEST POP POP POP DUP2 SHL ADD PUSH1 0x4 DUP3 ADD SSTORE PUSH2 0xA29 JUMP JUMPDEST ADD MLOAD PUSH1 0x0 NOT PUSH1 0xF8 DUP5 PUSH1 0x3 SHL AND SHR NOT AND SWAP1 SSTORE CODESIZE DUP1 DUP1 PUSH2 0xB62 JUMP JUMPDEST SWAP2 SWAP3 PUSH1 0x20 PUSH1 0x1 DUP2 SWAP3 DUP7 DUP6 ADD MLOAD DUP2 SSTORE ADD SWAP5 ADD SWAP3 ADD PUSH2 0xAEA JUMP JUMPDEST PUSH1 0x4 DUP5 ADD PUSH1 0x0 MSTORE PUSH1 0x20 PUSH1 0x0 KECCAK256 PUSH1 0x1F DUP5 ADD PUSH1 0x5 SHR DUP2 ADD PUSH1 0x20 DUP6 LT PUSH2 0xBE3 JUMPI JUMPDEST PUSH1 0x1F DUP4 ADD PUSH1 0x5 SHR DUP3 ADD DUP2 LT PUSH2 0xBD7 JUMPI POP POP PUSH2 0x99C JUMP JUMPDEST PUSH1 0x0 DUP2 SSTORE PUSH1 0x1 ADD PUSH2 0xBC1 JUMP JUMPDEST POP DUP1 PUSH2 0xBC1 JUMP JUMPDEST PUSH4 0x4E487B71 PUSH1 0xE0 SHL PUSH1 0x0 MSTORE PUSH1 0x41 PUSH1 0x4 MSTORE PUSH1 0x24 PUSH1 0x0 REVERT JUMPDEST ADD MLOAD SWAP1 POP DUP10 DUP1 PUSH2 0x936 JUMP JUMPDEST SWAP3 POP PUSH1 0x1 DUP5 ADD PUSH1 0x0 MSTORE PUSH1 0x20 PUSH1 0x0 KECCAK256 SWAP1 PUSH1 0x0 SWAP4 JUMPDEST PUSH1 0x1F NOT DUP5 AND DUP6 LT PUSH2 0xC62 JUMPI PUSH1 0x1 SWAP5 POP DUP4 PUSH1 0x1F NOT DUP2 AND LT PUSH2 0xC49 JUMPI JUMPDEST POP POP POP DUP2 SHL ADD PUSH1 0x1 DUP3 ADD SSTORE PUSH2 0x94E JUMP JUMPDEST ADD MLOAD PUSH1 0x0 NOT PUSH1 0xF8 DUP5 PUSH1 0x3 SHL AND SHR NOT AND SWAP1 SSTORE DUP10 DUP1 DUP1 PUSH2 0xC39 JUMP JUMPDEST DUP2 DUP2 ADD MLOAD DUP4 SSTORE PUSH1 0x20 SWAP5 DUP6 ADD SWAP5 PUSH1 0x1 SWAP1 SWAP4 ADD SWAP3 SWAP1 SWAP2 ADD SWAP1 PUSH2 0xC1E JUMP JUMPDEST SWAP1 SWAP2 POP PUSH1 0x1 DUP5 ADD PUSH1 0x0 MSTORE PUSH1 0x20 PUSH1 0x0 KECCAK256 PUSH1 0x1F DUP5 ADD PUSH1 0x5 SHR DUP2 ADD PUSH1 0x20 DUP6 LT PUSH2 0xCC9 JUMPI JUMPDEST SWAP1 DUP5 SWAP4 SWAP3 SWAP2 JUMPDEST PUSH1 0x1F DUP4 ADD PUSH1 0x5 SHR DUP3 ADD DUP2 LT PUSH2 0xCBA JUMPI POP POP PUSH2 0x91F JUMP JUMPDEST PUSH1 0x0 DUP2 SSTORE DUP6 SWAP5 POP PUSH1 0x1 ADD PUSH2 0xCA4 JUMP JUMPDEST POP DUP1 PUSH2 0xC9E JUMP JUMPDEST PUSH4 0x4E487B71 PUSH1 0xE0 SHL PUSH1 0x0 MSTORE PUSH1 0x0 PUSH1 0x4 MSTORE PUSH1 0x24 PUSH1 0x0 REVERT JUMPDEST SWAP1 POP DUP5 ADD MLOAD DUP6 PUSH2 0x7BF JUMP JUMPDEST SWAP2 POP PUSH1 0x7 DUP4 ADD PUSH1 0x0 MSTORE PUSH1 0x20 PUSH1 0x0 KECCAK256 PUSH1 0x0 SWAP3 JUMPDEST PUSH1 0x1F NOT DUP4 AND DUP5 LT PUSH2 0xD46 JUMPI PUSH1 0x1 SWAP4 POP DUP3 PUSH1 0x1F NOT DUP2 AND LT PUSH2 0xD2D JUMPI JUMPDEST POP POP DUP2 SHL ADD PUSH1 0x7 DUP3 ADD SSTORE PUSH2 0x7D6 JUMP JUMPDEST DUP7 ADD MLOAD PUSH1 0x0 NOT PUSH1 0xF8 DUP5 PUSH1 0x3 SHL AND SHR NOT AND SWAP1 SSTORE DUP6 DUP1 PUSH2 0xD1E JUMP JUMPDEST DUP7 DUP2 ADD MLOAD DUP3 SSTORE PUSH1 0x20 SWAP4 DUP5 ADD SWAP4 PUSH1 0x1 SWAP1 SWAP3 ADD SWAP2 ADD PUSH2 0xD03 JUMP JUMPDEST PUSH1 0x7 DUP4 ADD PUSH1 0x0 MSTORE PUSH1 0x20 PUSH1 0x0 KECCAK256 PUSH1 0x1F DUP4 ADD PUSH1 0x5 SHR DUP2 ADD PUSH1 0x20 DUP5 LT PUSH2 0xD9E JUMPI JUMPDEST PUSH1 0x1F DUP4 ADD PUSH1 0x5 SHR DUP3 ADD DUP2 LT PUSH2 0xD92 JUMPI POP POP PUSH2 0x7A8 JUMP JUMPDEST PUSH1 0x0 DUP2 SSTORE PUSH1 0x1 ADD PUSH2 0xD7C JUMP JUMPDEST POP DUP1 PUSH2 0xD7C JUMP JUMPDEST PUSH1 0xFF NOT AND PUSH1 0x3 OR PUSH1 0x6 DUP5 ADD SSTORE DUP1 MLOAD SWAP3 PUSH8 0xFFFFFFFFFFFFFFFF DUP5 GT PUSH2 0xBEA JUMPI PUSH2 0xDD0 PUSH1 0x8 DUP3 ADD SLOAD PUSH2 0x2795 JUMP JUMPDEST PUSH1 0x1F DUP2 GT PUSH2 0x1302 JUMPI JUMPDEST POP PUSH1 0x20 SWAP4 PUSH1 0x1F DUP2 GT PUSH1 0x1 EQ PUSH2 0x1295 JUMPI DUP1 SWAP2 SWAP3 SWAP4 SWAP5 PUSH1 0x0 SWAP2 PUSH2 0x128A JUMPI JUMPDEST POP DUP2 PUSH1 0x1 SHL SWAP2 PUSH1 0x0 NOT SWAP1 PUSH1 0x3 SHL SHR NOT AND OR PUSH1 0x8 DUP3 ADD SSTORE JUMPDEST PUSH1 0x40 MLOAD PUSH32 0x53332075706C6F6164206661696C65643A200000000000000000000000000000 PUSH1 0x20 DUP3 ADD MSTORE PUSH2 0xE5D PUSH1 0x32 DUP3 DUP6 MLOAD PUSH2 0xE4D DUP2 DUP5 DUP5 ADD PUSH1 0x20 DUP11 ADD PUSH2 0x2908 JUMP JUMPDEST DUP2 ADD SUB PUSH1 0x12 DUP2 ADD DUP5 MSTORE ADD DUP3 PUSH2 0x2840 JUMP JUMPDEST PUSH1 0x40 MLOAD SWAP1 PUSH2 0xE6A DUP3 PUSH2 0x2824 JUMP JUMPDEST PUSH1 0x10 DUP3 MSTORE PUSH32 0x53335F55504C4F41445F4641494C454400000000000000000000000000000000 PUSH1 0x20 DUP4 ADD MSTORE PUSH1 0x4 CALLDATALOAD PUSH1 0x0 MSTORE PUSH1 0x1 PUSH1 0x20 MSTORE PUSH1 0x40 PUSH1 0x0 KECCAK256 PUSH1 0x40 MLOAD SWAP1 PUSH2 0xEB1 DUP3 PUSH2 0x27EC JUMP JUMPDEST PUSH1 0x4 CALLDATALOAD DUP3 MSTORE PUSH1 0x20 DUP3 ADD SWAP1 DUP5 DUP3 MSTORE PUSH1 0x0 PUSH1 0x40 DUP5 ADD MSTORE TIMESTAMP PUSH1 0x60 DUP5 ADD MSTORE DUP4 PUSH1 0x80 DUP5 ADD MSTORE CALLER PUSH1 0xA0 DUP5 ADD MSTORE DUP1 SLOAD PUSH9 0x10000000000000000 DUP2 LT ISZERO PUSH2 0xBEA JUMPI PUSH2 0xEF9 SWAP2 PUSH1 0x1 DUP3 ADD DUP2 SSTORE PUSH2 0x2779 JUMP JUMPDEST SWAP2 SWAP1 SWAP2 PUSH2 0xCD0 JUMPI DUP3 MLOAD DUP3 SSTORE MLOAD DUP1 MLOAD SWAP1 PUSH8 0xFFFFFFFFFFFFFFFF DUP3 GT PUSH2 0xBEA JUMPI DUP2 SWAP1 PUSH2 0xF26 PUSH1 0x1 DUP6 ADD SLOAD PUSH2 0x2795 JUMP JUMPDEST PUSH1 0x1F DUP2 GT PUSH2 0x1237 JUMPI JUMPDEST POP PUSH1 0x20 SWAP1 PUSH1 0x1F DUP4 GT PUSH1 0x1 EQ PUSH2 0x11C5 JUMPI PUSH1 0x0 SWAP3 PUSH2 0x11BA JUMPI JUMPDEST POP POP DUP2 PUSH1 0x1 SHL SWAP2 PUSH1 0x0 NOT SWAP1 PUSH1 0x3 SHL SHR NOT AND OR PUSH1 0x1 DUP3 ADD SSTORE JUMPDEST PUSH1 0x2 DUP2 ADD PUSH1 0x40 DUP4 ADD MLOAD ISZERO ISZERO PUSH1 0xFF DUP1 NOT DUP4 SLOAD AND SWAP2 AND OR SWAP1 SSTORE PUSH1 0x60 DUP3 ADD MLOAD PUSH1 0x3 DUP3 ADD SSTORE PUSH1 0x80 DUP3 ADD MLOAD DUP1 MLOAD SWAP1 PUSH8 0xFFFFFFFFFFFFFFFF DUP3 GT PUSH2 0xBEA JUMPI PUSH2 0xFA3 PUSH1 0x4 DUP5 ADD SLOAD PUSH2 0x2795 JUMP JUMPDEST PUSH1 0x1F DUP2 GT PUSH2 0x1173 JUMPI JUMPDEST POP PUSH1 0x20 SWAP1 PUSH1 0x1F DUP4 GT PUSH1 0x1 EQ PUSH2 0x10A9 JUMPI SWAP4 PUSH1 0x1 PUSH1 0x1 PUSH1 0xA0 SHL SUB PUSH1 0xA0 PUSH1 0x5 PUSH32 0x18DAFA2C98F6ED61D1ADF3383FC212D09496AE3A5919B497BF01FA13A74FFFD3 SWAP7 DUP7 PUSH2 0x108A SWAP8 PUSH2 0xABD SWAP14 SWAP12 SWAP8 PUSH32 0x283CA619FAF91CDD93A7D38CCEF5B48AB9EC524F6E0D5C0663671BF8F6225BA4 SWAP16 SWAP14 SWAP12 PUSH1 0x0 SWAP3 PUSH2 0x109E JUMPI JUMPDEST POP POP DUP2 PUSH1 0x1 SHL SWAP2 PUSH1 0x0 NOT SWAP1 PUSH1 0x3 SHL SHR NOT AND OR PUSH1 0x4 DUP3 ADD SSTORE JUMPDEST ADD SWAP3 ADD MLOAD AND PUSH20 0xFFFFFFFFFFFFFFFFFFFFFFFFFFFFFFFFFFFFFFFF NOT DUP3 SLOAD AND OR SWAP1 SSTORE PUSH2 0x106F PUSH1 0x40 MLOAD SWAP5 PUSH1 0xA0 DUP7 MSTORE PUSH1 0xA0 DUP7 ADD SWAP1 PUSH2 0x292B JUMP JUMPDEST SWAP1 PUSH1 0x0 PUSH1 0x20 DUP7 ADD MSTORE TIMESTAMP PUSH1 0x40 DUP7 ADD MSTORE DUP5 DUP3 SUB PUSH1 0x60 DUP7 ADD MSTORE PUSH2 0x292B JUMP JUMPDEST SWAP2 CALLER PUSH1 0x80 DUP3 ADD MSTORE DUP1 PUSH1 0x4 CALLDATALOAD SWAP4 SUB SWAP1 LOG2 PUSH2 0xA8A JUMP JUMPDEST ADD MLOAD SWAP1 POP CODESIZE DUP1 PUSH2 0x1021 JUMP JUMPDEST SWAP1 PUSH1 0x4 DUP5 ADD PUSH1 0x0 MSTORE PUSH1 0x20 PUSH1 0x0 KECCAK256 SWAP2 PUSH1 0x0 JUMPDEST PUSH1 0x1F NOT DUP6 AND DUP2 LT PUSH2 0x115B JUMPI POP PUSH1 0xA0 PUSH1 0x5 PUSH32 0x18DAFA2C98F6ED61D1ADF3383FC212D09496AE3A5919B497BF01FA13A74FFFD3 SWAP7 PUSH1 0x1 DUP8 PUSH2 0xABD SWAP14 SWAP12 SWAP8 PUSH32 0x283CA619FAF91CDD93A7D38CCEF5B48AB9EC524F6E0D5C0663671BF8F6225BA4 SWAP16 SWAP14 SWAP12 SWAP8 PUSH1 0x1 PUSH1 0x1 PUSH1 0xA0 SHL SUB SWAP8 PUSH2 0x108A SWAP12 PUSH1 0x1F NOT DUP2 AND LT PUSH2 0x1142 JUMPI JUMPDEST POP POP POP DUP2 SHL ADD PUSH1 0x4 DUP3 ADD SSTORE PUSH2 0x1039 JUMP JUMPDEST ADD MLOAD PUSH1 0x0 NOT PUSH1 0xF8 DUP5 PUSH1 0x3 SHL AND SHR NOT AND SWAP1 SSTORE CODESIZE DUP1 DUP1 PUSH2 0x1132 JUMP JUMPDEST SWAP2 SWAP3 PUSH1 0x20 PUSH1 0x1 DUP2 SWAP3 DUP7 DUP6 ADD MLOAD DUP2 SSTORE ADD SWAP5 ADD SWAP3 ADD PUSH2 0x10BA JUMP JUMPDEST PUSH1 0x4 DUP5 ADD PUSH1 0x0 MSTORE PUSH1 0x20 PUSH1 0x0 KECCAK256 PUSH1 0x1F DUP5 ADD PUSH1 0x5 SHR DUP2 ADD PUSH1 0x20 DUP6 LT PUSH2 0x11B3 JUMPI JUMPDEST PUSH1 0x1F DUP4 ADD PUSH1 0x5 SHR DUP3 ADD DUP2 LT PUSH2 0x11A7 JUMPI POP POP PUSH2 0xFAC JUMP JUMPDEST PUSH1 0x0 DUP2 SSTORE PUSH1 0x1 ADD PUSH2 0x1191 JUMP JUMPDEST POP DUP1 PUSH2 0x1191 JUMP JUMPDEST ADD MLOAD SWAP1 POP DUP10 DUP1 PUSH2 0xF46 JUMP JUMPDEST SWAP3 POP PUSH1 0x1 DUP5 ADD PUSH1 0x0 MSTORE PUSH1 0x20 PUSH1 0x0 KECCAK256 SWAP1 PUSH1 0x0 SWAP4 JUMPDEST PUSH1 0x1F NOT DUP5 AND DUP6 LT PUSH2 0x121C JUMPI PUSH1 0x1 SWAP5 POP DUP4 PUSH1 0x1F NOT DUP2 AND LT PUSH2 0x1203 JUMPI JUMPDEST POP POP POP DUP2 SHL ADD PUSH1 0x1 DUP3 ADD SSTORE PUSH2 0xF5E JUMP JUMPDEST ADD MLOAD PUSH1 0x0 NOT PUSH1 0xF8 DUP5 PUSH1 0x3 SHL AND SHR NOT AND SWAP1 SSTORE DUP10 DUP1 DUP1 PUSH2 0x11F3 JUMP JUMPDEST DUP2 DUP2 ADD MLOAD DUP4 SSTORE PUSH1 0x20 SWAP5 DUP6 ADD SWAP5 PUSH1 0x1 SWAP1 SWAP4 ADD SWAP3 SWAP1 SWAP2 ADD SWAP1 PUSH2 0x11D8 JUMP JUMPDEST SWAP1 SWAP2 POP PUSH1 0x1 DUP5 ADD PUSH1 0x0 MSTORE PUSH1 0x20 PUSH1 0x0 KECCAK256 PUSH1 0x1F DUP5 ADD PUSH1 0x5 SHR DUP2 ADD PUSH1 0x20 DUP6 LT PUSH2 0x1283 JUMPI JUMPDEST SWAP1 DUP5 SWAP4 SWAP3 SWAP2 JUMPDEST PUSH1 0x1F DUP4 ADD PUSH1 0x5 SHR DUP3 ADD DUP2 LT PUSH2 0x1274 JUMPI POP POP PUSH2 0xF2F JUMP JUMPDEST PUSH1 0x0 DUP2 SSTORE DUP6 SWAP5 POP PUSH1 0x1 ADD PUSH2 0x125E JUMP JUMPDEST POP DUP1 PUSH2 0x1258 JUMP JUMPDEST SWAP1 POP DUP4 ADD MLOAD DUP6 PUSH2 0xDF5 JUMP JUMPDEST PUSH1 0x8 DUP3 ADD PUSH1 0x0 MSTORE PUSH1 0x20 PUSH1 0x0 KECCAK256 PUSH1 0x0 JUMPDEST PUSH1 0x1F NOT DUP4 AND DUP2 LT PUSH2 0x12EA JUMPI POP PUSH1 0x1 SWAP3 SWAP4 SWAP5 SWAP6 DUP3 PUSH1 0x1F NOT DUP2 AND LT PUSH2 0x12D1 JUMPI JUMPDEST POP POP DUP2 SHL ADD PUSH1 0x8 DUP3 ADD SSTORE PUSH2 0xE0C JUMP JUMPDEST DUP6 ADD MLOAD PUSH1 0x0 NOT PUSH1 0xF8 DUP5 PUSH1 0x3 SHL AND SHR NOT AND SWAP1 SSTORE DUP6 DUP1 PUSH2 0x12C2 JUMP JUMPDEST DUP5 DUP8 ADD MLOAD DUP3 SSTORE PUSH1 0x20 SWAP7 DUP8 ADD SWAP7 PUSH1 0x1 SWAP1 SWAP3 ADD SWAP2 ADD PUSH2 0x12A4 JUMP JUMPDEST PUSH1 0x8 DUP3 ADD PUSH1 0x0 MSTORE PUSH1 0x20 PUSH1 0x0 KECCAK256 PUSH1 0x1F DUP7 ADD PUSH1 0x5 SHR DUP2 ADD PUSH1 0x20 DUP8 LT PUSH2 0x1342 JUMPI JUMPDEST PUSH1 0x1F DUP4 ADD PUSH1 0x5 SHR DUP3 ADD DUP2 LT PUSH2 0x1336 JUMPI POP POP PUSH2 0xDD9 JUMP JUMPDEST PUSH1 0x0 DUP2 SSTORE PUSH1 0x1 ADD PUSH2 0x1320 JUMP JUMPDEST POP DUP1 PUSH2 0x1320 JUMP JUMPDEST PUSH1 0x64 PUSH1 0x40 MLOAD PUSH3 0x461BCD PUSH1 0xE5 SHL DUP2 MSTORE PUSH1 0x20 PUSH1 0x4 DUP3 ADD MSTORE PUSH1 0x13 PUSH1 0x24 DUP3 ADD MSTORE PUSH32 0x52657175657374206E6F742070656E64696E6700000000000000000000000000 PUSH1 0x44 DUP3 ADD MSTORE REVERT JUMPDEST POP PUSH1 0x4 DUP1 SLOAD SWAP1 CALLDATALOAD LT PUSH2 0x735 JUMP JUMPDEST PUSH1 0x84 PUSH1 0x40 MLOAD PUSH3 0x461BCD PUSH1 0xE5 SHL DUP2 MSTORE PUSH1 0x20 PUSH1 0x4 DUP3 ADD MSTORE PUSH1 0x22 PUSH1 0x24 DUP3 ADD MSTORE PUSH32 0x4F6E6C79206F7261636C65206F70657261746F722063616E2063616C6C207468 PUSH1 0x44 DUP3 ADD MSTORE PUSH32 0x6973000000000000000000000000000000000000000000000000000000000000 PUSH1 0x64 DUP3 ADD MSTORE REVERT JUMPDEST CALLVALUE PUSH2 0x16C JUMPI PUSH1 0x20 DUP1 PUSH1 0x3 NOT CALLDATASIZE ADD SLT PUSH2 0x16C JUMPI PUSH1 0x4 CALLDATALOAD PUSH1 0x0 MSTORE PUSH1 0x2 SWAP1 DUP2 DUP2 MSTORE PUSH1 0x40 PUSH1 0x0 KECCAK256 SWAP1 PUSH1 0x40 MLOAD DUP1 DUP4 DUP4 DUP3 SWAP6 SLOAD SWAP4 DUP5 DUP2 MSTORE ADD SWAP1 PUSH1 0x0 MSTORE DUP4 PUSH1 0x0 KECCAK256 SWAP3 PUSH1 0x0 JUMPDEST DUP6 DUP3 DUP3 LT PUSH2 0x159E JUMPI POP POP POP PUSH2 0x1459 SWAP3 POP SUB DUP4 PUSH2 0x2840 JUMP JUMPDEST PUSH2 0x1463 DUP3 MLOAD PUSH2 0x2ACD JUMP JUMPDEST SWAP1 PUSH1 0x0 SWAP1 PUSH1 0x0 JUMPDEST DUP5 MLOAD DUP2 LT ISZERO PUSH2 0x14FC JUMPI PUSH2 0x147D DUP2 DUP7 PUSH2 0x2B17 JUMP JUMPDEST MLOAD PUSH1 0x0 MSTORE PUSH1 0x0 DUP3 MSTORE PUSH1 0xFF PUSH1 0x6 PUSH1 0x40 PUSH1 0x0 KECCAK256 ADD SLOAD AND PUSH1 0x4 DUP2 LT ISZERO PUSH2 0x53C JUMPI DUP7 EQ PUSH2 0x14AF JUMPI JUMPDEST PUSH2 0x14AA SWAP1 PUSH2 0x2A09 JUMP JUMPDEST PUSH2 0x146A JUMP JUMPDEST SWAP2 PUSH2 0x14F4 PUSH2 0x14AA SWAP2 PUSH2 0x14C1 DUP6 DUP9 PUSH2 0x2B17 JUMP JUMPDEST MLOAD PUSH1 0x0 MSTORE PUSH1 0x0 DUP5 MSTORE PUSH2 0x14D9 PUSH1 0x7 PUSH1 0x40 PUSH1 0x0 KECCAK256 ADD PUSH2 0x2862 JUMP JUMPDEST PUSH2 0x14E3 DUP3 DUP9 PUSH2 0x2B17 JUMP JUMPDEST MSTORE PUSH2 0x14EE DUP2 DUP8 PUSH2 0x2B17 JUMP JUMPDEST POP PUSH2 0x2A09 JUMP JUMPDEST SWAP3 SWAP1 POP PUSH2 0x14A1 JUMP JUMPDEST POP SWAP3 POP PUSH2 0x1508 DUP2 PUSH2 0x2ACD JUMP JUMPDEST SWAP2 PUSH1 0x0 JUMPDEST DUP3 DUP2 LT PUSH2 0x1575 JUMPI POP POP POP PUSH1 0x40 MLOAD SWAP1 DUP3 DUP3 ADD SWAP3 DUP1 DUP4 MSTORE DUP2 MLOAD DUP1 SWAP5 MSTORE PUSH1 0x40 DUP4 ADD SWAP4 DUP2 PUSH1 0x40 DUP3 PUSH1 0x5 SHL DUP7 ADD ADD SWAP4 ADD SWAP2 PUSH1 0x0 SWAP6 JUMPDEST DUP3 DUP8 LT PUSH2 0x1549 JUMPI DUP6 DUP6 SUB DUP7 RETURN JUMPDEST SWAP1 SWAP2 SWAP3 SWAP4 DUP3 DUP1 PUSH2 0x1565 PUSH1 0x1 SWAP4 PUSH1 0x3F NOT DUP11 DUP3 SUB ADD DUP7 MSTORE DUP9 MLOAD PUSH2 0x292B JUMP JUMPDEST SWAP7 ADD SWAP3 ADD SWAP7 ADD SWAP6 SWAP3 SWAP2 SWAP1 SWAP3 PUSH2 0x153C JUMP JUMPDEST DUP1 PUSH2 0x1583 PUSH2 0x1599 SWAP3 DUP5 PUSH2 0x2B17 JUMP JUMPDEST MLOAD PUSH2 0x158E DUP3 DUP8 PUSH2 0x2B17 JUMP JUMPDEST MSTORE PUSH2 0x14EE DUP2 DUP7 PUSH2 0x2B17 JUMP JUMPDEST PUSH2 0x150C JUMP JUMPDEST DUP6 SLOAD DUP5 MSTORE PUSH1 0x1 SWAP6 DUP7 ADD SWAP6 DUP9 SWAP6 POP SWAP4 ADD SWAP3 ADD PUSH2 0x1442 JUMP JUMPDEST CALLVALUE PUSH2 0x16C JUMPI PUSH1 0xA0 CALLDATASIZE PUSH1 0x3 NOT ADD SLT PUSH2 0x16C JUMPI PUSH1 0x24 CALLDATALOAD PUSH8 0xFFFFFFFFFFFFFFFF DUP2 GT PUSH2 0x16C JUMPI PUSH2 0x15E5 SWAP1 CALLDATASIZE SWAP1 PUSH1 0x4 ADD PUSH2 0x29B2 JUMP JUMPDEST PUSH1 0x64 SWAP1 DUP2 CALLDATALOAD SWAP1 PUSH1 0xFF DUP3 AND DUP3 SUB PUSH2 0x16C JUMPI PUSH1 0x84 CALLDATALOAD SWAP3 PUSH1 0xFF DUP5 AND DUP5 SUB PUSH2 0x16C JUMPI PUSH1 0x24 PUSH1 0x20 PUSH1 0x1 PUSH1 0x1 PUSH1 0xA0 SHL SUB PUSH1 0x6 SLOAD AND PUSH1 0x40 MLOAD SWAP3 DUP4 DUP1 SWAP3 PUSH32 0x75C81B7B00000000000000000000000000000000000000000000000000000000 DUP3 MSTORE CALLER PUSH1 0x4 DUP4 ADD MSTORE GAS STATICCALL SWAP1 DUP2 ISZERO PUSH2 0x225C JUMPI PUSH1 0x0 SWAP2 PUSH2 0x2221 JUMPI JUMPDEST POP ISZERO PUSH2 0x21DF JUMPI PUSH1 0x4 CALLDATALOAD ISZERO PUSH2 0x219D JUMPI DUP2 MLOAD ISZERO PUSH2 0x215B JUMPI PUSH1 0x44 CALLDATALOAD ISZERO PUSH2 0x2119 JUMPI PUSH1 0x5 PUSH1 0xFF DUP5 AND GT PUSH2 0x20D7 JUMPI PUSH1 0x4 PUSH1 0xFF DUP6 AND GT PUSH2 0x2095 JUMPI POP PUSH1 0x4 SLOAD SWAP2 PUSH2 0x1695 DUP4 PUSH2 0x2A09 JUMP JUMPDEST PUSH1 0x4 SSTORE PUSH1 0x6 PUSH1 0xFF DUP3 AND LT ISZERO PUSH2 0x53C JUMPI PUSH1 0x5 PUSH1 0xFF DUP6 AND LT ISZERO PUSH2 0x53C JUMPI PUSH1 0x40 MLOAD PUSH2 0x16BC DUP2 PUSH2 0x27CF JUMP JUMPDEST DUP4 DUP2 MSTORE PUSH1 0x4 CALLDATALOAD PUSH1 0x20 DUP3 ADD MSTORE DUP3 PUSH1 0x40 DUP3 ADD MSTORE PUSH1 0x44 CALLDATALOAD PUSH1 0x60 DUP3 ADD MSTORE PUSH2 0x16E5 PUSH1 0xFF DUP4 AND PUSH1 0x80 DUP4 ADD PUSH2 0x2A18 JUMP JUMPDEST PUSH2 0x16F5 PUSH1 0xFF DUP7 AND PUSH1 0xA0 DUP4 ADD PUSH2 0x2A24 JUMP JUMPDEST CALLER PUSH1 0xC0 DUP3 ADD MSTORE TIMESTAMP PUSH1 0xE0 DUP3 ADD MSTORE PUSH1 0x0 PUSH2 0x100 DUP3 ADD MSTORE PUSH1 0x40 MLOAD PUSH2 0x1715 DUP2 PUSH2 0x2808 JUMP JUMPDEST PUSH1 0x0 DUP2 MSTORE PUSH2 0x120 DUP3 ADD MSTORE PUSH1 0x40 MLOAD PUSH2 0x172B DUP2 PUSH2 0x2808 JUMP JUMPDEST PUSH1 0x0 DUP2 MSTORE PUSH2 0x140 DUP3 ADD MSTORE PUSH1 0x0 PUSH2 0x160 DUP3 ADD MSTORE DUP4 PUSH1 0x0 MSTORE PUSH1 0x0 PUSH1 0x20 MSTORE PUSH1 0x40 PUSH1 0x0 KECCAK256 SWAP1 DUP1 MLOAD DUP3 SSTORE PUSH1 0x20 DUP2 ADD MLOAD PUSH1 0x1 DUP4 ADD SSTORE PUSH1 0x40 DUP2 ADD MLOAD DUP1 MLOAD SWAP1 PUSH8 0xFFFFFFFFFFFFFFFF DUP3 GT PUSH2 0xBEA JUMPI DUP2 SWAP1 PUSH2 0x1780 PUSH1 0x2 DUP7 ADD SLOAD PUSH2 0x2795 JUMP JUMPDEST PUSH1 0x1F DUP2 GT PUSH2 0x2042 JUMPI JUMPDEST POP PUSH1 0x20 SWAP1 PUSH1 0x1F DUP4 GT PUSH1 0x1 EQ PUSH2 0x1FD0 JUMPI PUSH1 0x0 SWAP3 PUSH2 0x1FC5 JUMPI JUMPDEST POP POP DUP2 PUSH1 0x1 SHL SWAP2 PUSH1 0x0 NOT SWAP1 PUSH1 0x3 SHL SHR NOT AND OR PUSH1 0x2 DUP4 ADD SSTORE JUMPDEST PUSH1 0x60 DUP2 ADD MLOAD PUSH1 0x3 DUP4 ADD SSTORE PUSH1 0x4 DUP3 ADD PUSH1 0x80 DUP3 ADD MLOAD PUSH1 0x6 DUP2 LT ISZERO PUSH2 0x53C JUMPI DUP2 SLOAD PUSH1 0xA0 DUP5 ADD MLOAD SWAP1 PUSH1 0x5 DUP3 LT ISZERO PUSH2 0x53C JUMPI PUSH2 0xFF00 SWAP1 PUSH32 0xFFFFFFFFFFFFFFFFFFFF00000000000000000000000000000000000000000000 PUSH1 0xFF PUSH22 0xFFFFFFFFFFFFFFFFFFFFFFFFFFFFFFFFFFFFFFFF0000 PUSH1 0xC0 DUP10 ADD MLOAD PUSH1 0x10 SHL AND SWAP6 AND SWAP2 AND OR SWAP2 PUSH1 0x8 SHL AND OR OR SWAP1 SSTORE PUSH1 0xE0 DUP2 ADD MLOAD PUSH1 0x5 DUP4 ADD SSTORE PUSH1 0x6 DUP3 ADD PUSH2 0x100 DUP3 ADD MLOAD PUSH1 0x4 DUP2 LT ISZERO PUSH2 0x53C JUMPI PUSH1 0xFF DUP1 NOT DUP4 SLOAD AND SWAP2 AND OR SWAP1 SSTORE PUSH2 0x120 DUP2 ADD MLOAD DUP1 MLOAD SWAP1 PUSH8 0xFFFFFFFFFFFFFFFF DUP3 GT PUSH2 0xBEA JUMPI DUP2 SWAP1 PUSH2 0x188A PUSH1 0x7 DUP7 ADD SLOAD PUSH2 0x2795 JUMP JUMPDEST PUSH1 0x1F DUP2 GT PUSH2 0x1F72 JUMPI JUMPDEST POP PUSH1 0x20 SWAP1 PUSH1 0x1F DUP4 GT PUSH1 0x1 EQ PUSH2 0x1F00 JUMPI PUSH1 0x0 SWAP3 PUSH2 0x1EF5 JUMPI JUMPDEST POP POP DUP2 PUSH1 0x1 SHL SWAP2 PUSH1 0x0 NOT SWAP1 PUSH1 0x3 SHL SHR NOT AND OR PUSH1 0x7 DUP4 ADD SSTORE JUMPDEST PUSH2 0x140 DUP2 ADD MLOAD DUP1 MLOAD SWAP1 PUSH8 0xFFFFFFFFFFFFFFFF DUP3 GT PUSH2 0xBEA JUMPI PUSH2 0x18E7 PUSH1 0x8 DUP6 ADD SLOAD PUSH2 0x2795 JUMP JUMPDEST PUSH1 0x1F DUP2 GT PUSH2 0x1EAE JUMPI JUMPDEST POP PUSH1 0x20 SWAP1 PUSH1 0x1F DUP4 GT PUSH1 0x1 EQ PUSH2 0x1E38 JUMPI SWAP2 DUP1 PUSH1 0x9 SWAP5 SWAP3 PUSH2 0x160 SWAP5 PUSH1 0x0 SWAP3 PUSH2 0x1E2D JUMPI JUMPDEST POP POP DUP2 PUSH1 0x1 SHL SWAP2 PUSH1 0x0 NOT SWAP1 PUSH1 0x3 SHL SHR NOT AND OR PUSH1 0x8 DUP6 ADD SSTORE JUMPDEST ADD MLOAD SWAP2 ADD SSTORE PUSH1 0x4 CALLDATALOAD PUSH1 0x0 MSTORE PUSH1 0x2 PUSH1 0x20 MSTORE PUSH2 0x1947 DUP4 PUSH1 0x40 PUSH1 0x0 KECCAK256 PUSH2 0x2A30 JUMP JUMPDEST CALLER PUSH1 0x0 MSTORE PUSH1 0x3 PUSH1 0x20 MSTORE PUSH2 0x195E DUP4 PUSH1 0x40 PUSH1 0x0 KECCAK256 PUSH2 0x2A30 JUMP JUMPDEST PUSH1 0x40 MLOAD SWAP4 PUSH2 0x196B DUP6 PUSH2 0x2824 JUMP JUMPDEST PUSH1 0x10 DUP6 MSTORE PUSH32 0x55504C4F41445F52455155455354454400000000000000000000000000000000 PUSH1 0x20 DUP7 ADD MSTORE PUSH1 0x40 MLOAD SWAP1 DUP2 PUSH1 0x60 DUP2 ADD LT PUSH8 0xFFFFFFFFFFFFFFFF PUSH1 0x60 DUP5 ADD GT OR PUSH2 0xBEA JUMPI PUSH1 0x60 DUP3 ADD PUSH1 0x40 MSTORE PUSH1 0x25 DUP3 MSTORE PUSH32 0x46696C652075706C6F616420726571756573746564207468726F756768205765 PUSH1 0x20 DUP4 ADD MSTORE PUSH32 0x6220415049000000000000000000000000000000000000000000000000000000 PUSH1 0x40 DUP4 ADD MSTORE DUP5 PUSH1 0x0 MSTORE PUSH1 0x1 PUSH1 0x20 MSTORE PUSH1 0x40 PUSH1 0x0 KECCAK256 PUSH1 0x40 MLOAD SWAP1 PUSH2 0x1A24 DUP3 PUSH2 0x27EC JUMP JUMPDEST DUP7 DUP3 MSTORE DUP8 PUSH1 0x20 DUP4 ADD MSTORE PUSH1 0x1 PUSH1 0x40 DUP4 ADD MSTORE TIMESTAMP PUSH1 0x60 DUP4 ADD MSTORE DUP4 PUSH1 0x80 DUP4 ADD MSTORE CALLER PUSH1 0xA0 DUP4 ADD MSTORE DUP1 SLOAD PUSH9 0x10000000000000000 DUP2 LT ISZERO PUSH2 0xBEA JUMPI PUSH2 0x1A68 SWAP2 PUSH1 0x1 DUP3 ADD DUP2 SSTORE PUSH2 0x2779 JUMP JUMPDEST PUSH2 0xCD0 JUMPI DUP2 MLOAD DUP2 SSTORE PUSH1 0x20 DUP3 ADD MLOAD DUP1 MLOAD SWAP1 PUSH8 0xFFFFFFFFFFFFFFFF DUP3 GT PUSH2 0xBEA JUMPI DUP2 SWAP1 PUSH2 0x1A96 PUSH1 0x1 DUP6 ADD SLOAD PUSH2 0x2795 JUMP JUMPDEST PUSH1 0x1F DUP2 GT PUSH2 0x1DDA JUMPI JUMPDEST POP PUSH1 0x20 SWAP1 PUSH1 0x1F DUP4 GT PUSH1 0x1 EQ PUSH2 0x1D68 JUMPI PUSH1 0x0 SWAP3 PUSH2 0x1D5D JUMPI JUMPDEST POP POP DUP2 PUSH1 0x1 SHL SWAP2 PUSH1 0x0 NOT SWAP1 PUSH1 0x3 SHL SHR NOT AND OR PUSH1 0x1 DUP3 ADD SSTORE JUMPDEST PUSH1 0x2 DUP2 ADD PUSH1 0x40 DUP4 ADD MLOAD ISZERO ISZERO PUSH1 0xFF DUP1 NOT DUP4 SLOAD AND SWAP2 AND OR SWAP1 SSTORE PUSH1 0x60 DUP3 ADD MLOAD PUSH1 0x3 DUP3 ADD SSTORE PUSH1 0x80 DUP3 ADD MLOAD DUP1 MLOAD SWAP1 PUSH8 0xFFFFFFFFFFFFFFFF DUP3 GT PUSH2 0xBEA JUMPI PUSH2 0x1B13 PUSH1 0x4 DUP5 ADD SLOAD PUSH2 0x2795 JUMP JUMPDEST PUSH1 0x1F DUP2 GT PUSH2 0x1D16 JUMPI JUMPDEST POP SWAP2 DUP9 SWAP4 SWAP2 PUSH1 0x20 SWAP11 SWAP4 DUP12 SWAP1 PUSH1 0x1F DUP4 GT PUSH1 0x1 EQ PUSH2 0x1C67 JUMPI SWAP4 PUSH1 0x1 PUSH1 0x1 PUSH1 0xA0 SHL SUB PUSH1 0xA0 PUSH1 0x5 PUSH32 0x18DAFA2C98F6ED61D1ADF3383FC212D09496AE3A5919B497BF01FA13A74FFFD3 SWAP9 SWAP7 DUP7 PUSH2 0x1BDF SWAP8 PUSH2 0x1C22 SWAP15 SWAP8 PUSH2 0x1BC5 SWAP12 PUSH1 0x0 SWAP3 PUSH2 0x1C5C JUMPI JUMPDEST POP POP DUP2 PUSH1 0x1 SHL SWAP2 PUSH1 0x0 NOT SWAP1 PUSH1 0x3 SHL SHR NOT AND OR PUSH1 0x4 DUP3 ADD SSTORE JUMPDEST ADD SWAP3 ADD MLOAD AND PUSH20 0xFFFFFFFFFFFFFFFFFFFFFFFFFFFFFFFFFFFFFFFF NOT DUP3 SLOAD AND OR SWAP1 SSTORE PUSH1 0x40 MLOAD SWAP4 DUP5 SWAP4 PUSH1 0xA0 DUP6 MSTORE PUSH1 0xA0 DUP6 ADD SWAP1 PUSH2 0x292B JUMP JUMPDEST SWAP1 PUSH1 0x1 DUP14 DUP6 ADD MSTORE TIMESTAMP PUSH1 0x40 DUP6 ADD MSTORE DUP4 DUP3 SUB PUSH1 0x60 DUP6 ADD MSTORE PUSH2 0x292B JUMP JUMPDEST CALLER PUSH1 0x80 DUP4 ADD MSTORE SUB SWAP1 LOG2 PUSH2 0x1C15 PUSH2 0x1C00 PUSH1 0x40 MLOAD SWAP6 PUSH1 0xA0 DUP8 MSTORE PUSH1 0xA0 DUP8 ADD SWAP1 PUSH2 0x292B JUMP JUMPDEST SWAP4 PUSH1 0x44 CALLDATALOAD DUP9 DUP8 ADD MSTORE PUSH1 0xFF PUSH1 0x40 DUP8 ADD SWAP2 AND PUSH2 0x2950 JUMP JUMPDEST PUSH1 0xFF PUSH1 0x60 DUP6 ADD SWAP2 AND PUSH2 0x295D JUMP JUMPDEST TIMESTAMP PUSH1 0x80 DUP4 ADD MSTORE DUP3 PUSH32 0x56FE9DB953EBB0BBE5BAF81583CCC0A5C41DCE5AC1AE12774D23D4F1EAB86039 CALLER SWAP4 DUP1 PUSH1 0x4 CALLDATALOAD SWAP5 SUB SWAP1 LOG4 PUSH1 0x40 MLOAD SWAP1 DUP2 MSTORE RETURN JUMPDEST ADD MLOAD SWAP1 POP CODESIZE DUP1 PUSH2 0x1B78 JUMP JUMPDEST PUSH1 0x4 DUP5 SWAP4 SWAP3 SWAP10 SWAP6 SWAP5 ADD PUSH1 0x0 MSTORE DUP13 PUSH1 0x0 KECCAK256 SWAP1 PUSH1 0x0 JUMPDEST PUSH1 0x1F NOT DUP5 AND DUP2 LT PUSH2 0x1CFC JUMPI POP PUSH1 0xA0 PUSH1 0x5 PUSH2 0x1BDF SWAP6 PUSH1 0x1 DUP7 PUSH32 0x18DAFA2C98F6ED61D1ADF3383FC212D09496AE3A5919B497BF01FA13A74FFFD3 SWAP12 SWAP10 SWAP7 PUSH2 0x1C22 SWAP16 PUSH1 0x1 PUSH1 0x1 PUSH1 0xA0 SHL SUB SWAP8 PUSH2 0x1BC5 SWAP14 SWAP11 PUSH1 0x1F NOT DUP2 AND LT PUSH2 0x1CE3 JUMPI JUMPDEST POP POP POP DUP2 SHL ADD PUSH1 0x4 DUP3 ADD SSTORE PUSH2 0x1B90 JUMP JUMPDEST ADD MLOAD PUSH1 0x0 NOT PUSH1 0xF8 DUP5 PUSH1 0x3 SHL AND SHR NOT AND SWAP1 SSTORE CODESIZE DUP1 DUP1 PUSH2 0x1CD3 JUMP JUMPDEST DUP2 DUP12 ADD MLOAD DUP4 SSTORE SWAP10 DUP15 ADD SWAP10 DUP14 SWAP9 POP PUSH1 0x1 SWAP1 SWAP3 ADD SWAP2 DUP15 ADD PUSH2 0x1C7B JUMP JUMPDEST PUSH1 0x4 DUP5 ADD PUSH1 0x0 MSTORE PUSH1 0x20 PUSH1 0x0 KECCAK256 PUSH1 0x1F DUP5 ADD PUSH1 0x5 SHR DUP2 ADD PUSH1 0x20 DUP6 LT PUSH2 0x1D56 JUMPI JUMPDEST PUSH1 0x1F DUP4 ADD PUSH1 0x5 SHR DUP3 ADD DUP2 LT PUSH2 0x1D4A JUMPI POP POP PUSH2 0x1B1C JUMP JUMPDEST PUSH1 0x0 DUP2 SSTORE PUSH1 0x1 ADD PUSH2 0x1D34 JUMP JUMPDEST POP DUP1 PUSH2 0x1D34 JUMP JUMPDEST ADD MLOAD SWAP1 POP DUP11 DUP1 PUSH2 0x1AB6 JUMP JUMPDEST SWAP3 POP PUSH1 0x1 DUP5 ADD PUSH1 0x0 MSTORE PUSH1 0x20 PUSH1 0x0 KECCAK256 SWAP1 PUSH1 0x0 SWAP4 JUMPDEST PUSH1 0x1F NOT DUP5 AND DUP6 LT PUSH2 0x1DBF JUMPI PUSH1 0x1 SWAP5 POP DUP4 PUSH1 0x1F NOT DUP2 AND LT PUSH2 0x1DA6 JUMPI JUMPDEST POP POP POP DUP2 SHL ADD PUSH1 0x1 DUP3 ADD SSTORE PUSH2 0x1ACE JUMP JUMPDEST ADD MLOAD PUSH1 0x0 NOT PUSH1 0xF8 DUP5 PUSH1 0x3 SHL AND SHR NOT AND SWAP1 SSTORE DUP11 DUP1 DUP1 PUSH2 0x1D96 JUMP JUMPDEST DUP2 DUP2 ADD MLOAD DUP4 SSTORE PUSH1 0x20 SWAP5 DUP6 ADD SWAP5 PUSH1 0x1 SWAP1 SWAP4 ADD SWAP3 SWAP1 SWAP2 ADD SWAP1 PUSH2 0x1D7B JUMP JUMPDEST SWAP1 SWAP2 POP PUSH1 0x1 DUP5 ADD PUSH1 0x0 MSTORE PUSH1 0x20 PUSH1 0x0 KECCAK256 PUSH1 0x1F DUP5 ADD PUSH1 0x5 SHR DUP2 ADD PUSH1 0x20 DUP6 LT PUSH2 0x1E26 JUMPI JUMPDEST SWAP1 DUP5 SWAP4 SWAP3 SWAP2 JUMPDEST PUSH1 0x1F DUP4 ADD PUSH1 0x5 SHR DUP3 ADD DUP2 LT PUSH2 0x1E17 JUMPI POP POP PUSH2 0x1A9F JUMP JUMPDEST PUSH1 0x0 DUP2 SSTORE DUP6 SWAP5 POP PUSH1 0x1 ADD PUSH2 0x1E01 JUMP JUMPDEST POP DUP1 PUSH2 0x1DFB JUMP JUMPDEST ADD MLOAD SWAP1 POP DUP11 DUP1 PUSH2 0x1911 JUMP JUMPDEST SWAP1 PUSH1 0x8 DUP6 ADD PUSH1 0x0 MSTORE PUSH1 0x20 PUSH1 0x0 KECCAK256 SWAP2 PUSH1 0x0 JUMPDEST PUSH1 0x1F NOT DUP6 AND DUP2 LT PUSH2 0x1E96 JUMPI POP SWAP3 PUSH1 0x9 SWAP5 SWAP3 PUSH1 0x1 SWAP3 PUSH2 0x160 SWAP6 DUP4 PUSH1 0x1F NOT DUP2 AND LT PUSH2 0x1E7D JUMPI JUMPDEST POP POP POP DUP2 SHL ADD PUSH1 0x8 DUP6 ADD SSTORE PUSH2 0x1929 JUMP JUMPDEST ADD MLOAD PUSH1 0x0 NOT PUSH1 0xF8 DUP5 PUSH1 0x3 SHL AND SHR NOT AND SWAP1 SSTORE DUP11 DUP1 DUP1 PUSH2 0x1E6D JUMP JUMPDEST SWAP2 SWAP3 PUSH1 0x20 PUSH1 0x1 DUP2 SWAP3 DUP7 DUP6 ADD MLOAD DUP2 SSTORE ADD SWAP5 ADD SWAP3 ADD PUSH2 0x1E49 JUMP JUMPDEST PUSH1 0x8 DUP6 ADD PUSH1 0x0 MSTORE PUSH1 0x20 PUSH1 0x0 KECCAK256 PUSH1 0x1F DUP5 ADD PUSH1 0x5 SHR DUP2 ADD PUSH1 0x20 DUP6 LT PUSH2 0x1EEE JUMPI JUMPDEST PUSH1 0x1F DUP4 ADD PUSH1 0x5 SHR DUP3 ADD DUP2 LT PUSH2 0x1EE2 JUMPI POP POP PUSH2 0x18F0 JUMP JUMPDEST PUSH1 0x0 DUP2 SSTORE PUSH1 0x1 ADD PUSH2 0x1ECC JUMP JUMPDEST POP DUP1 PUSH2 0x1ECC JUMP JUMPDEST ADD MLOAD SWAP1 POP DUP9 DUP1 PUSH2 0x18AA JUMP JUMPDEST SWAP3 POP PUSH1 0x7 DUP6 ADD PUSH1 0x0 MSTORE PUSH1 0x20 PUSH1 0x0 KECCAK256 SWAP1 PUSH1 0x0 SWAP4 JUMPDEST PUSH1 0x1F NOT DUP5 AND DUP6 LT PUSH2 0x1F57 JUMPI PUSH1 0x1 SWAP5 POP DUP4 PUSH1 0x1F NOT DUP2 AND LT PUSH2 0x1F3E JUMPI JUMPDEST POP POP POP DUP2 SHL ADD PUSH1 0x7 DUP4 ADD SSTORE PUSH2 0x18C2 JUMP JUMPDEST ADD MLOAD PUSH1 0x0 NOT PUSH1 0xF8 DUP5 PUSH1 0x3 SHL AND SHR NOT AND SWAP1 SSTORE DUP9 DUP1 DUP1 PUSH2 0x1F2E JUMP JUMPDEST DUP2 DUP2 ADD MLOAD DUP4 SSTORE PUSH1 0x20 SWAP5 DUP6 ADD SWAP5 PUSH1 0x1 SWAP1 SWAP4 ADD SWAP3 SWAP1 SWAP2 ADD SWAP1 PUSH2 0x1F13 JUMP JUMPDEST SWAP1 SWAP2 POP PUSH1 0x7 DUP6 ADD PUSH1 0x0 MSTORE PUSH1 0x20 PUSH1 0x0 KECCAK256 PUSH1 0x1F DUP5 ADD PUSH1 0x5 SHR DUP2 ADD PUSH1 0x20 DUP6 LT PUSH2 0x1FBE JUMPI JUMPDEST SWAP1 DUP5 SWAP4 SWAP3 SWAP2 JUMPDEST PUSH1 0x1F DUP4 ADD PUSH1 0x5 SHR DUP3 ADD DUP2 LT PUSH2 0x1FAF JUMPI POP POP PUSH2 0x1893 JUMP JUMPDEST PUSH1 0x0 DUP2 SSTORE DUP6 SWAP5 POP PUSH1 0x1 ADD PUSH2 0x1F99 JUMP JUMPDEST POP DUP1 PUSH2 0x1F93 JUMP JUMPDEST ADD MLOAD SWAP1 POP DUP9 DUP1 PUSH2 0x17A0 JUMP JUMPDEST SWAP3 POP PUSH1 0x2 DUP6 ADD PUSH1 0x0 MSTORE PUSH1 0x20 PUSH1 0x0 KECCAK256 SWAP1 PUSH1 0x0 SWAP4 JUMPDEST PUSH1 0x1F NOT DUP5 AND DUP6 LT PUSH2 0x2027 JUMPI PUSH1 0x1 SWAP5 POP DUP4 PUSH1 0x1F NOT DUP2 AND LT PUSH2 0x200E JUMPI JUMPDEST POP POP POP DUP2 SHL ADD PUSH1 0x2 DUP4 ADD SSTORE PUSH2 0x17B8 JUMP JUMPDEST ADD MLOAD PUSH1 0x0 NOT PUSH1 0xF8 DUP5 PUSH1 0x3 SHL AND SHR NOT AND SWAP1 SSTORE DUP9 DUP1 DUP1 PUSH2 0x1FFE JUMP JUMPDEST DUP2 DUP2 ADD MLOAD DUP4 SSTORE PUSH1 0x20 SWAP5 DUP6 ADD SWAP5 PUSH1 0x1 SWAP1 SWAP4 ADD SWAP3 SWAP1 SWAP2 ADD SWAP1 PUSH2 0x1FE3 JUMP JUMPDEST SWAP1 SWAP2 POP PUSH1 0x2 DUP6 ADD PUSH1 0x0 MSTORE PUSH1 0x20 PUSH1 0x0 KECCAK256 PUSH1 0x1F DUP5 ADD PUSH1 0x5 SHR DUP2 ADD PUSH1 0x20 DUP6 LT PUSH2 0x208E JUMPI JUMPDEST SWAP1 DUP5 SWAP4 SWAP3 SWAP2 JUMPDEST PUSH1 0x1F DUP4 ADD PUSH1 0x5 SHR DUP3 ADD DUP2 LT PUSH2 0x207F JUMPI POP POP PUSH2 0x1789 JUMP JUMPDEST PUSH1 0x0 DUP2 SSTORE DUP6 SWAP5 POP PUSH1 0x1 ADD PUSH2 0x2069 JUMP JUMPDEST POP DUP1 PUSH2 0x2063 JUMP JUMPDEST PUSH1 0x40 MLOAD PUSH3 0x461BCD PUSH1 0xE5 SHL DUP2 MSTORE PUSH1 0x20 PUSH1 0x4 DUP3 ADD MSTORE PUSH1 0xD PUSH1 0x24 DUP3 ADD MSTORE PUSH32 0x496E76616C696420737461676500000000000000000000000000000000000000 PUSH1 0x44 DUP3 ADD MSTORE REVERT JUMPDEST PUSH1 0x40 MLOAD PUSH3 0x461BCD PUSH1 0xE5 SHL DUP2 MSTORE PUSH1 0x20 PUSH1 0x4 DUP3 ADD MSTORE PUSH1 0x11 PUSH1 0x24 DUP3 ADD MSTORE PUSH32 0x496E76616C69642066696C652074797065000000000000000000000000000000 PUSH1 0x44 DUP3 ADD MSTORE REVERT JUMPDEST PUSH1 0x40 MLOAD PUSH3 0x461BCD PUSH1 0xE5 SHL DUP2 MSTORE PUSH1 0x20 PUSH1 0x4 DUP3 ADD MSTORE PUSH1 0x12 PUSH1 0x24 DUP3 ADD MSTORE PUSH32 0x46696C6520686173682072657175697265640000000000000000000000000000 PUSH1 0x44 DUP3 ADD MSTORE REVERT JUMPDEST PUSH1 0x40 MLOAD PUSH3 0x461BCD PUSH1 0xE5 SHL DUP2 MSTORE PUSH1 0x20 PUSH1 0x4 DUP3 ADD MSTORE PUSH1 0x19 PUSH1 0x24 DUP3 ADD MSTORE PUSH32 0x46696C65206E616D652063616E6E6F7420626520656D70747900000000000000 PUSH1 0x44 DUP3 ADD MSTORE REVERT JUMPDEST PUSH1 0x40 MLOAD PUSH3 0x461BCD PUSH1 0xE5 SHL DUP2 MSTORE PUSH1 0x20 PUSH1 0x4 DUP3 ADD MSTORE PUSH1 0x12 PUSH1 0x24 DUP3 ADD MSTORE PUSH32 0x496E76616C69642070726F647563742049440000000000000000000000000000 PUSH1 0x44 DUP3 ADD MSTORE REVERT JUMPDEST PUSH1 0x40 MLOAD PUSH3 0x461BCD PUSH1 0xE5 SHL DUP2 MSTORE PUSH1 0x20 PUSH1 0x4 DUP3 ADD MSTORE PUSH1 0x19 PUSH1 0x24 DUP3 ADD MSTORE PUSH32 0x4E6F7420616E20616374697665207374616B65686F6C64657200000000000000 PUSH1 0x44 DUP3 ADD MSTORE REVERT JUMPDEST SWAP1 POP PUSH1 0x20 DUP2 RETURNDATASIZE PUSH1 0x20 GT PUSH2 0x2254 JUMPI JUMPDEST DUP2 PUSH2 0x223C PUSH1 0x20 SWAP4 DUP4 PUSH2 0x2840 JUMP JUMPDEST DUP2 ADD SUB SLT PUSH2 0x16C JUMPI MLOAD DUP1 ISZERO ISZERO DUP2 SUB PUSH2 0x16C JUMPI DUP6 PUSH2 0x1654 JUMP JUMPDEST RETURNDATASIZE SWAP2 POP PUSH2 0x222F JUMP JUMPDEST PUSH1 0x40 MLOAD RETURNDATASIZE PUSH1 0x0 DUP3 RETURNDATACOPY RETURNDATASIZE SWAP1 REVERT JUMPDEST CALLVALUE PUSH2 0x16C JUMPI PUSH1 0x40 CALLDATASIZE PUSH1 0x3 NOT ADD SLT PUSH2 0x16C JUMPI PUSH1 0x4 CALLDATALOAD DUP1 ISZERO ISZERO DUP1 PUSH2 0x22AD JUMPI JUMPDEST PUSH2 0x228E SWAP1 PUSH2 0x2A6A JUMP JUMPDEST PUSH1 0x0 MSTORE PUSH1 0x0 PUSH1 0x20 MSTORE PUSH1 0x20 PUSH1 0x24 CALLDATALOAD PUSH1 0x3 PUSH1 0x40 PUSH1 0x0 KECCAK256 ADD SLOAD EQ PUSH1 0x40 MLOAD SWAP1 DUP2 MSTORE RETURN JUMPDEST POP PUSH1 0x4 SLOAD DUP2 LT PUSH2 0x2285 JUMP JUMPDEST CALLVALUE PUSH2 0x16C JUMPI PUSH1 0x0 CALLDATASIZE PUSH1 0x3 NOT ADD SLT PUSH2 0x16C JUMPI PUSH1 0x20 PUSH1 0x4 SLOAD PUSH1 0x40 MLOAD SWAP1 DUP2 MSTORE RETURN JUMPDEST CALLVALUE PUSH2 0x16C JUMPI PUSH1 0x40 CALLDATASIZE PUSH1 0x3 NOT ADD SLT PUSH2 0x16C JUMPI PUSH1 0x24 DUP1 CALLDATALOAD SWAP1 PUSH1 0x5 DUP1 DUP4 LT ISZERO SWAP2 DUP3 PUSH2 0x16C JUMPI PUSH1 0x4 CALLDATALOAD PUSH1 0x0 MSTORE PUSH1 0x2 PUSH1 0x20 SWAP1 DUP1 DUP3 MSTORE PUSH1 0x40 PUSH1 0x0 KECCAK256 SWAP3 PUSH1 0x40 MLOAD DUP1 DUP6 DUP6 DUP3 SWAP8 SLOAD SWAP4 DUP5 DUP2 MSTORE ADD SWAP1 PUSH1 0x0 MSTORE DUP6 PUSH1 0x0 KECCAK256 SWAP3 PUSH1 0x0 JUMPDEST DUP8 DUP3 DUP3 LT PUSH2 0x246A JUMPI POP POP POP PUSH2 0x233D SWAP3 POP SUB DUP6 PUSH2 0x2840 JUMP JUMPDEST PUSH2 0x2347 DUP5 MLOAD PUSH2 0x2B2B JUMP JUMPDEST SWAP5 PUSH1 0x0 SWAP8 PUSH1 0x0 JUMPDEST DUP7 MLOAD DUP2 LT ISZERO PUSH2 0x2428 JUMPI PUSH2 0x2361 DUP2 DUP9 PUSH2 0x2B17 JUMP JUMPDEST MLOAD PUSH1 0x0 MSTORE PUSH1 0x0 DUP7 MSTORE PUSH1 0xFF DUP10 DUP2 PUSH1 0x4 PUSH1 0x40 PUSH1 0x0 KECCAK256 ADD SLOAD PUSH1 0x8 SHR AND SWAP1 PUSH2 0x2413 JUMPI DUP5 DUP2 LT ISZERO PUSH2 0x2413 JUMPI DUP4 EQ SWAP1 DUP2 PUSH2 0x23CF JUMPI JUMPDEST POP PUSH2 0x23A4 JUMPI JUMPDEST PUSH2 0x239F SWAP1 PUSH2 0x2A09 JUMP JUMPDEST PUSH2 0x234E JUMP JUMPDEST SWAP9 PUSH2 0x23C7 PUSH2 0x239F SWAP2 PUSH2 0x23B6 DUP13 DUP11 PUSH2 0x2B17 JUMP JUMPDEST MLOAD PUSH2 0x23C1 DUP3 DUP13 PUSH2 0x2B17 JUMP JUMPDEST MSTORE PUSH2 0x2A09 JUMP JUMPDEST SWAP10 SWAP1 POP PUSH2 0x2396 JUMP JUMPDEST SWAP1 POP PUSH2 0x23DB DUP3 DUP10 PUSH2 0x2B17 JUMP JUMPDEST MLOAD PUSH1 0x0 MSTORE PUSH1 0x0 DUP8 MSTORE PUSH1 0x6 PUSH1 0x40 PUSH1 0x0 KECCAK256 ADD SLOAD AND PUSH1 0x4 DUP2 LT ISZERO PUSH2 0x23FE JUMPI DUP6 EQ DUP12 PUSH2 0x2390 JUMP JUMPDEST DUP5 PUSH4 0x4E487B71 PUSH1 0xE0 SHL PUSH1 0x0 MSTORE PUSH1 0x21 PUSH1 0x4 MSTORE PUSH1 0x0 REVERT JUMPDEST DUP6 PUSH4 0x4E487B71 PUSH1 0xE0 SHL PUSH1 0x0 MSTORE PUSH1 0x21 PUSH1 0x4 MSTORE PUSH1 0x0 REVERT JUMPDEST DUP8 DUP11 PUSH2 0x2433 DUP2 PUSH2 0x2B2B JUMP JUMPDEST SWAP2 PUSH1 0x0 JUMPDEST DUP3 DUP2 LT PUSH2 0x244C JUMPI PUSH1 0x40 MLOAD DUP1 PUSH2 0x5BC DUP7 DUP3 PUSH2 0x2977 JUMP JUMPDEST DUP1 PUSH2 0x245A PUSH2 0x2465 SWAP3 DUP5 PUSH2 0x2B17 JUMP JUMPDEST MLOAD PUSH2 0x23C1 DUP3 DUP8 PUSH2 0x2B17 JUMP JUMPDEST PUSH2 0x2437 JUMP JUMPDEST DUP6 SLOAD DUP5 MSTORE PUSH1 0x1 SWAP6 DUP7 ADD SWAP6 DUP11 SWAP6 POP SWAP4 ADD SWAP3 ADD PUSH2 0x2326 JUMP JUMPDEST CALLVALUE PUSH2 0x16C JUMPI PUSH1 0x20 CALLDATASIZE PUSH1 0x3 NOT ADD SLT PUSH2 0x16C JUMPI PUSH1 0x4 CALLDATALOAD PUSH1 0x0 MSTORE PUSH1 0x0 PUSH1 0x20 MSTORE PUSH1 0x40 PUSH1 0x0 KECCAK256 DUP1 SLOAD PUSH1 0x1 DUP3 ADD SLOAD SWAP2 PUSH1 0x2 DUP2 ADD PUSH2 0x24B6 SWAP1 PUSH2 0x2862 JUMP JUMPDEST SWAP1 PUSH1 0x3 DUP2 ADD SLOAD PUSH1 0x4 DUP3 ADD SLOAD SWAP1 PUSH1 0x5 DUP4 ADD SLOAD PUSH1 0x6 DUP5 ADD SLOAD PUSH1 0xFF AND SWAP1 PUSH1 0x7 DUP6 ADD PUSH2 0x24DD SWAP1 PUSH2 0x2862 JUMP JUMPDEST SWAP4 PUSH2 0x24EA PUSH1 0x8 DUP8 ADD PUSH2 0x2862 JUMP JUMPDEST SWAP6 PUSH1 0x9 ADD SLOAD SWAP7 PUSH1 0x40 MLOAD SWAP10 DUP11 SWAP10 DUP11 MSTORE PUSH1 0x20 DUP11 ADD MSTORE PUSH2 0x180 DUP1 PUSH1 0x40 DUP12 ADD MSTORE DUP10 ADD PUSH2 0x2511 SWAP2 PUSH2 0x292B JUMP JUMPDEST SWAP4 PUSH1 0x60 DUP10 ADD MSTORE PUSH1 0x80 DUP9 ADD PUSH1 0xFF DUP3 AND SWAP1 PUSH2 0x2529 SWAP2 PUSH2 0x2950 JUMP JUMPDEST PUSH2 0x253D PUSH1 0xA0 DUP10 ADD PUSH1 0xFF PUSH1 0x8 DUP5 SWAP1 SHR AND PUSH2 0x295D JUMP JUMPDEST PUSH1 0x10 SHR PUSH1 0x1 PUSH1 0x1 PUSH1 0xA0 SHL SUB AND PUSH1 0xC0 DUP9 ADD MSTORE PUSH1 0xE0 DUP8 ADD MSTORE PUSH2 0x100 DUP7 ADD PUSH2 0x2561 SWAP2 PUSH2 0x296A JUMP JUMPDEST DUP5 DUP2 SUB PUSH2 0x120 DUP7 ADD MSTORE PUSH2 0x2573 SWAP2 PUSH2 0x292B JUMP JUMPDEST DUP4 DUP2 SUB PUSH2 0x140 DUP6 ADD MSTORE PUSH2 0x2585 SWAP2 PUSH2 0x292B JUMP JUMPDEST SWAP1 PUSH2 0x160 DUP4 ADD MSTORE SUB SWAP1 RETURN JUMPDEST CALLVALUE PUSH2 0x16C JUMPI PUSH2 0x259E CALLDATASIZE PUSH2 0x271F JUMP JUMPDEST SWAP1 PUSH1 0x0 MSTORE PUSH1 0x1 PUSH1 0x20 MSTORE PUSH1 0x40 PUSH1 0x0 KECCAK256 SWAP1 DUP2 SLOAD DUP2 LT ISZERO PUSH2 0x16C JUMPI PUSH2 0x25BF SWAP2 PUSH2 0x2779 JUMP JUMPDEST POP DUP1 SLOAD PUSH2 0x25CE PUSH1 0x1 DUP4 ADD PUSH2 0x2862 JUMP JUMPDEST SWAP2 PUSH2 0x2631 PUSH1 0xFF PUSH1 0x2 DUP4 ADD SLOAD AND PUSH1 0x3 DUP4 ADD SLOAD SWAP3 PUSH1 0x1 PUSH1 0x1 PUSH1 0xA0 SHL SUB PUSH1 0x5 PUSH2 0x25F6 PUSH1 0x4 DUP5 ADD PUSH2 0x2862 JUMP JUMPDEST SWAP3 ADD SLOAD AND SWAP4 PUSH2 0x2617 PUSH1 0x40 MLOAD SWAP8 DUP9 SWAP8 DUP9 MSTORE PUSH1 0xC0 PUSH1 0x20 DUP10 ADD MSTORE PUSH1 0xC0 DUP9 ADD SWAP1 PUSH2 0x292B JUMP JUMPDEST SWAP3 ISZERO ISZERO PUSH1 0x40 DUP8 ADD MSTORE PUSH1 0x60 DUP7 ADD MSTORE DUP5 DUP3 SUB PUSH1 0x80 DUP7 ADD MSTORE PUSH2 0x292B JUMP JUMPDEST SWAP1 PUSH1 0xA0 DUP4 ADD MSTORE SUB SWAP1 RETURN JUMPDEST CALLVALUE PUSH2 0x16C JUMPI PUSH1 0x40 CALLDATASIZE PUSH1 0x3 NOT ADD SLT PUSH2 0x16C JUMPI PUSH2 0x2654 PUSH2 0x2763 JUMP JUMPDEST PUSH1 0x1 PUSH1 0x1 PUSH1 0xA0 SHL SUB PUSH1 0x24 CALLDATALOAD SWAP2 AND PUSH1 0x0 MSTORE PUSH1 0x3 PUSH1 0x20 MSTORE PUSH1 0x40 PUSH1 0x0 KECCAK256 DUP1 SLOAD DUP3 LT ISZERO PUSH2 0x16C JUMPI PUSH1 0x20 SWAP2 PUSH2 0x2683 SWAP2 PUSH2 0x2735 JUMP JUMPDEST SWAP1 SLOAD SWAP1 PUSH1 0x3 SHL SHR PUSH1 0x40 MLOAD SWAP1 DUP2 MSTORE RETURN JUMPDEST CALLVALUE PUSH2 0x16C JUMPI PUSH1 0x0 CALLDATASIZE PUSH1 0x3 NOT ADD SLT PUSH2 0x16C JUMPI PUSH1 0x20 PUSH1 0x1 PUSH1 0x1 PUSH1 0xA0 SHL SUB PUSH1 0x6 SLOAD AND PUSH1 0x40 MLOAD SWAP1 DUP2 MSTORE RETURN JUMPDEST CALLVALUE PUSH2 0x16C JUMPI PUSH1 0x0 CALLDATASIZE PUSH1 0x3 NOT ADD SLT PUSH2 0x16C JUMPI PUSH1 0x20 PUSH1 0x1 PUSH1 0x1 PUSH1 0xA0 SHL SUB PUSH1 0x5 SLOAD AND PUSH1 0x40 MLOAD SWAP1 DUP2 MSTORE RETURN JUMPDEST CALLVALUE PUSH2 0x16C JUMPI PUSH2 0x26EE CALLDATASIZE PUSH2 0x271F JUMP JUMPDEST SWAP1 PUSH1 0x0 MSTORE PUSH1 0x2 PUSH1 0x20 MSTORE PUSH1 0x40 PUSH1 0x0 KECCAK256 DUP1 SLOAD DUP3 LT ISZERO PUSH2 0x16C JUMPI PUSH1 0x20 SWAP2 PUSH2 0x2711 SWAP2 PUSH2 0x2735 JUMP JUMPDEST SWAP1 SLOAD PUSH1 0x40 MLOAD SWAP2 PUSH1 0x3 SHL SHR DUP2 MSTORE RETURN JUMPDEST PUSH1 0x40 SWAP1 PUSH1 0x3 NOT ADD SLT PUSH2 0x16C JUMPI PUSH1 0x4 CALLDATALOAD SWAP1 PUSH1 0x24 CALLDATALOAD SWAP1 JUMP JUMPDEST DUP1 SLOAD DUP3 LT ISZERO PUSH2 0x274D JUMPI PUSH1 0x0 MSTORE PUSH1 0x20 PUSH1 0x0 KECCAK256 ADD SWAP1 PUSH1 0x0 SWAP1 JUMP JUMPDEST PUSH4 0x4E487B71 PUSH1 0xE0 SHL PUSH1 0x0 MSTORE PUSH1 0x32 PUSH1 0x4 MSTORE PUSH1 0x24 PUSH1 0x0 REVERT JUMPDEST PUSH1 0x4 CALLDATALOAD SWAP1 PUSH1 0x1 PUSH1 0x1 PUSH1 0xA0 SHL SUB DUP3 AND DUP3 SUB PUSH2 0x16C JUMPI JUMP JUMPDEST DUP1 SLOAD DUP3 LT ISZERO PUSH2 0x274D JUMPI PUSH1 0x0 MSTORE PUSH1 0x6 PUSH1 0x20 PUSH1 0x0 KECCAK256 SWAP2 MUL ADD SWAP1 PUSH1 0x0 SWAP1 JUMP JUMPDEST SWAP1 PUSH1 0x1 DUP3 DUP2 SHR SWAP3 AND DUP1 ISZERO PUSH2 0x27C5 JUMPI JUMPDEST PUSH1 0x20 DUP4 LT EQ PUSH2 0x27AF JUMPI JUMP JUMPDEST PUSH4 0x4E487B71 PUSH1 0xE0 SHL PUSH1 0x0 MSTORE PUSH1 0x22 PUSH1 0x4 MSTORE PUSH1 0x24 PUSH1 0x0 REVERT JUMPDEST SWAP2 PUSH1 0x7F AND SWAP2 PUSH2 0x27A4 JUMP JUMPDEST PUSH2 0x180 DUP2 ADD SWAP1 DUP2 LT PUSH8 0xFFFFFFFFFFFFFFFF DUP3 GT OR PUSH2 0xBEA JUMPI PUSH1 0x40 MSTORE JUMP JUMPDEST PUSH1 0xC0 DUP2 ADD SWAP1 DUP2 LT PUSH8 0xFFFFFFFFFFFFFFFF DUP3 GT OR PUSH2 0xBEA JUMPI PUSH1 0x40 MSTORE JUMP JUMPDEST PUSH1 0x20 DUP2 ADD SWAP1 DUP2 LT PUSH8 0xFFFFFFFFFFFFFFFF DUP3 GT OR PUSH2 0xBEA JUMPI PUSH1 0x40 MSTORE JUMP JUMPDEST PUSH1 0x40 DUP2 ADD SWAP1 DUP2 LT PUSH8 0xFFFFFFFFFFFFFFFF DUP3 GT OR PUSH2 0xBEA JUMPI PUSH1 0x40 MSTORE JUMP JUMPDEST SWAP1 PUSH1 0x1F DUP1 NOT SWAP2 ADD AND DUP2 ADD SWAP1 DUP2 LT PUSH8 0xFFFFFFFFFFFFFFFF DUP3 GT OR PUSH2 0xBEA JUMPI PUSH1 0x40 MSTORE JUMP JUMPDEST SWAP1 PUSH1 0x40 MLOAD SWAP2 DUP3 PUSH1 0x0 DUP3 SLOAD SWAP3 PUSH2 0x2876 DUP5 PUSH2 0x2795 JUMP JUMPDEST SWAP1 DUP2 DUP5 MSTORE PUSH1 0x1 SWAP5 DUP6 DUP2 AND SWAP1 DUP2 PUSH1 0x0 EQ PUSH2 0x28E5 JUMPI POP PUSH1 0x1 EQ PUSH2 0x28A2 JUMPI JUMPDEST POP POP PUSH2 0x28A0 SWAP3 POP SUB DUP4 PUSH2 0x2840 JUMP JUMPDEST JUMP JUMPDEST SWAP1 SWAP4 SWAP2 POP PUSH1 0x0 MSTORE PUSH1 0x20 SWAP1 DUP2 PUSH1 0x0 KECCAK256 SWAP4 PUSH1 0x0 SWAP2 JUMPDEST DUP2 DUP4 LT PUSH2 0x28CD JUMPI POP POP PUSH2 0x28A0 SWAP4 POP DUP3 ADD ADD CODESIZE DUP1 PUSH2 0x2892 JUMP JUMPDEST DUP6 SLOAD DUP9 DUP5 ADD DUP6 ADD MSTORE SWAP5 DUP6 ADD SWAP5 DUP8 SWAP5 POP SWAP2 DUP4 ADD SWAP2 PUSH2 0x28B5 JUMP JUMPDEST SWAP2 POP POP PUSH2 0x28A0 SWAP5 POP PUSH1 0x20 SWAP3 POP PUSH1 0xFF NOT AND DUP3 DUP5 ADD MSTORE ISZERO ISZERO PUSH1 0x5 SHL DUP3 ADD ADD CODESIZE DUP1 PUSH2 0x2892 JUMP JUMPDEST PUSH1 0x0 JUMPDEST DUP4 DUP2 LT PUSH2 0x291B JUMPI POP POP PUSH1 0x0 SWAP2 ADD MSTORE JUMP JUMPDEST DUP2 DUP2 ADD MLOAD DUP4 DUP3 ADD MSTORE PUSH1 0x20 ADD PUSH2 0x290B JUMP JUMPDEST SWAP1 PUSH1 0x20 SWAP2 PUSH2 0x2944 DUP2 MLOAD DUP1 SWAP3 DUP2 DUP6 MSTORE DUP6 DUP1 DUP7 ADD SWAP2 ADD PUSH2 0x2908 JUMP JUMPDEST PUSH1 0x1F ADD PUSH1 0x1F NOT AND ADD ADD SWAP1 JUMP JUMPDEST SWAP1 PUSH1 0x6 DUP3 LT ISZERO PUSH2 0x53C JUMPI MSTORE JUMP JUMPDEST SWAP1 PUSH1 0x5 DUP3 LT ISZERO PUSH2 0x53C JUMPI MSTORE JUMP JUMPDEST SWAP1 PUSH1 0x4 DUP3 LT ISZERO PUSH2 0x53C JUMPI MSTORE JUMP JUMPDEST PUSH1 0x20 SWAP1 DUP2 PUSH1 0x40 DUP2 DUP4 ADD SWAP3 DUP3 DUP2 MSTORE DUP6 MLOAD DUP1 SWAP5 MSTORE ADD SWAP4 ADD SWAP2 PUSH1 0x0 JUMPDEST DUP3 DUP2 LT PUSH2 0x299E JUMPI POP POP POP POP SWAP1 JUMP JUMPDEST DUP4 MLOAD DUP6 MSTORE SWAP4 DUP2 ADD SWAP4 SWAP3 DUP2 ADD SWAP3 PUSH1 0x1 ADD PUSH2 0x2990 JUMP JUMPDEST DUP2 PUSH1 0x1F DUP3 ADD SLT ISZERO PUSH2 0x16C JUMPI DUP1 CALLDATALOAD SWAP1 PUSH8 0xFFFFFFFFFFFFFFFF DUP3 GT PUSH2 0xBEA JUMPI PUSH1 0x40 MLOAD SWAP3 PUSH2 0x29E7 PUSH1 0x1F DUP5 ADD PUSH1 0x1F NOT AND PUSH1 0x20 ADD DUP6 PUSH2 0x2840 JUMP JUMPDEST DUP3 DUP5 MSTORE PUSH1 0x20 DUP4 DUP4 ADD ADD GT PUSH2 0x16C JUMPI DUP2 PUSH1 0x0 SWAP3 PUSH1 0x20 DUP1 SWAP4 ADD DUP4 DUP7 ADD CALLDATACOPY DUP4 ADD ADD MSTORE SWAP1 JUMP JUMPDEST PUSH1 0x0 NOT DUP2 EQ PUSH2 0x621 JUMPI PUSH1 0x1 ADD SWAP1 JUMP JUMPDEST PUSH1 0x6 DUP3 LT ISZERO PUSH2 0x53C JUMPI MSTORE JUMP JUMPDEST PUSH1 0x5 DUP3 LT ISZERO PUSH2 0x53C JUMPI MSTORE JUMP JUMPDEST DUP1 SLOAD PUSH9 0x10000000000000000 DUP2 LT ISZERO PUSH2 0xBEA JUMPI PUSH2 0x2A52 SWAP2 PUSH1 0x1 DUP3 ADD DUP2 SSTORE PUSH2 0x2735 JUMP JUMPDEST DUP2 SWAP3 SWAP2 SLOAD SWAP1 PUSH1 0x3 SHL SWAP2 DUP3 SHL SWAP2 PUSH1 0x0 NOT SWAP1 SHL NOT AND OR SWAP1 SSTORE JUMP JUMPDEST ISZERO PUSH2 0x2A71 JUMPI JUMP JUMPDEST PUSH1 0x64 PUSH1 0x40 MLOAD PUSH3 0x461BCD PUSH1 0xE5 SHL DUP2 MSTORE PUSH1 0x20 PUSH1 0x4 DUP3 ADD MSTORE PUSH1 0x12 PUSH1 0x24 DUP3 ADD MSTORE PUSH32 0x496E76616C696420726571756573742049440000000000000000000000000000 PUSH1 0x44 DUP3 ADD MSTORE REVERT JUMPDEST PUSH8 0xFFFFFFFFFFFFFFFF DUP2 GT PUSH2 0xBEA JUMPI PUSH1 0x5 SHL PUSH1 0x20 ADD SWAP1 JUMP JUMPDEST SWAP1 PUSH2 0x2AD7 DUP3 PUSH2 0x2AB5 JUMP JUMPDEST PUSH2 0x2AE4 PUSH1 0x40 MLOAD SWAP2 DUP3 PUSH2 0x2840 JUMP JUMPDEST DUP3 DUP2 MSTORE DUP1 SWAP3 PUSH2 0x2AF5 PUSH1 0x1F NOT SWAP2 PUSH2 0x2AB5 JUMP JUMPDEST ADD SWAP1 PUSH1 0x0 JUMPDEST DUP3 DUP2 LT PUSH2 0x2B06 JUMPI POP POP POP JUMP JUMPDEST DUP1 PUSH1 0x60 PUSH1 0x20 DUP1 SWAP4 DUP6 ADD ADD MSTORE ADD PUSH2 0x2AFA JUMP JUMPDEST DUP1 MLOAD DUP3 LT ISZERO PUSH2 0x274D JUMPI PUSH1 0x20 SWAP2 PUSH1 0x5 SHL ADD ADD SWAP1 JUMP JUMPDEST SWAP1 PUSH2 0x2B35 DUP3 PUSH2 0x2AB5 JUMP JUMPDEST PUSH2 0x2B42 PUSH1 0x40 MLOAD SWAP2 DUP3 PUSH2 0x2840 JUMP JUMPDEST DUP3 DUP2 MSTORE DUP1 SWAP3 PUSH2 0x2B53 PUSH1 0x1F NOT SWAP2 PUSH2 0x2AB5 JUMP JUMPDEST ADD SWAP1 PUSH1 0x20 CALLDATASIZE SWAP2 ADD CALLDATACOPY JUMP INVALID LOG2 PUSH5 0x6970667358 0x22 SLT KECCAK256 DUP4 0xC8 PUSH14 0xA4DB89E984F926CB4863971A7640 0xD2 XOR DELEGATECALL PUSH3 0xC4A548 0xDF SWAP5 SWAP1 SIGNEXTEND 0xD8 OR 0x49 0xAC PUSH5 0x736F6C6343 STOP ADDMOD SGT STOP CALLER "},"gasEstimates":{"creation":{"codeDepositCost":"2231000","executionCost":"infinite","totalCost":"infinite"},"external":{"fileRequests(uint256)":"infinite","getFileRequest(uint256)":"infinite","getProductFileUrls(uint256)":"infinite","getProductFiles(uint256)":"infinite","getProductFilesByStage(uint256,uint8)":"infinite","getStats()":"infinite","getTransactionLogs(uint256)":"infinite","nextRequestId()":"2404","oracleOperator()":"2290","productFiles(uint256,uint256)":"6710","reportS3Result(uint256,bool,string,string)":"infinite","requestFileStorage(uint256,string,bytes32,uint8,uint8)":"infinite","stakeholderRegistry()":"2312","transactionLogs(uint256,uint256)":"infinite","updateOracleOperator(address)":"24823","userRequests(address,uint256)":"6831","verifyFileIntegrity(uint256,bytes32)":"4699"},"internal":{"_logTransaction(uint256,string memory,bool,string memory,address)":"infinite"}},"methodIdentifiers":{"fileRequests(uint256)":"3da98a31","getFileRequest(uint256)":"ecfd16ea","getProductFileUrls(uint256)":"8d2ac3c2","getProductFiles(uint256)":"eb5d3e79","getProductFilesByStage(uint256,uint8)":"412a3bd2","getStats()":"c59d4847","getTransactionLogs(uint256)":"fb13effc","nextRequestId()":"6a84a985","oracleOperator()":"11679ef7","productFiles(uint256,uint256)":"04aa6147","reportS3Result(uint256,bool,string,string)":"a0f27085","requestFileStorage(uint256,string,bytes32,uint8,uint8)":"89d62b03","stakeholderRegistry()":"23feda0a","transactionLogs(uint256,uint256)":"2bc553f9","updateOracleOperator(address)":"fee56bbe","userRequests(address,uint256)":"263cb6b6","verifyFileIntegrity(uint256,bytes32)":"85885dfc"}},"storageLayout":{"storage":[{"astId":112,"contract":"src/SmartContracts/FileStorageManager.sol:FileStorageManager","label":"fileRequests","offset":0,"slot":"0","type":"t_mapping(t_uint256,t_struct(FileStorageRequest)94_storage)"},{"astId":118,"contract":"src/SmartContracts/FileStorageManager.sol:FileStorageManager","label":"transactionLogs","offset":0,"slot":"1","type":"t_mapping(t_uint256,t_array(t_struct(TransactionLog)107_storage)dyn_storage)"},{"astId":123,"contract":"src/SmartContracts/FileStorageManager.sol:FileStorageManager","label":"productFiles","offset":0,"slot":"2","type":"t_mapping(t_uint256,t_array(t_uint256)dyn_storage)"},{"astId":128,"contract":"src/SmartContracts/FileStorageManager.sol:FileStorageManager","label":"userRequests","offset":0,"slot":"3","type":"t_mapping(t_address,t_array(t_uint256)dyn_storage)"},{"astId":131,"contract":"src/SmartContracts/FileStorageManager.sol:FileStorageManager","label":"nextRequestId","offset":0,"slot":"4","type":"t_uint256"},{"astId":133,"contract":"src/SmartContracts/FileStorageManager.sol:FileStorageManager","label":"oracleOperator","offset":0,"slot":"5","type":"t_address"},{"astId":136,"contract":"src/SmartContracts/FileStorageManager.sol:FileStorageManager","label":"stakeholderRegistry","offset":0,"slot":"6","type":"t_contract(StakeholderRegistry)5946"}],"types":{"t_address":{"encoding":"inplace","label":"address","numberOfBytes":"20"},"t_array(t_struct(TransactionLog)107_storage)dyn_storage":{"base":"t_struct(TransactionLog)107_storage","encoding":"dynamic_array","label":"struct FileStorageManager.TransactionLog[]","numberOfBytes":"32"},"t_array(t_uint256)dyn_storage":{"base":"t_uint256","encoding":"dynamic_array","label":"uint256[]","numberOfBytes":"32"},"t_bool":{"encoding":"inplace","label":"bool","numberOfBytes":"1"},"t_bytes32":{"encoding":"inplace","label":"bytes32","numberOfBytes":"32"},"t_contract(StakeholderRegistry)5946":{"encoding":"inplace","label":"contract StakeholderRegistry","numberOfBytes":"20"},"t_enum(FileType)55":{"encoding":"inplace","label":"enum FileStorageManager.FileType","numberOfBytes":"1"},"t_enum(ProductStage)61":{"encoding":"inplace","label":"enum FileStorageManager.ProductStage","numberOfBytes":"1"},"t_enum(RequestStatus)66":{"encoding":"inplace","label":"enum FileStorageManager.RequestStatus","numberOfBytes":"1"},"t_mapping(t_address,t_array(t_uint256)dyn_storage)":{"encoding":"mapping","key":"t_address","label":"mapping(address => uint256[])","numberOfBytes":"32","value":"t_array(t_uint256)dyn_storage"},"t_mapping(t_uint256,t_array(t_struct(TransactionLog)107_storage)dyn_storage)":{"encoding":"mapping","key":"t_uint256","label":"mapping(uint256 => struct FileStorageManager.TransactionLog[])","numberOfBytes":"32","value":"t_array(t_struct(TransactionLog)107_storage)dyn_storage"},"t_mapping(t_uint256,t_array(t_uint256)dyn_storage)":{"encoding":"mapping","key":"t_uint256","label":"mapping(uint256 => uint256[])","numberOfBytes":"32","value":"t_array(t_uint256)dyn_storage"},"t_mapping(t_uint256,t_struct(FileStorageRequest)94_storage)":{"encoding":"mapping","key":"t_uint256","label":"mapping(uint256 => struct FileStorageManager.FileStorageRequest)","numberOfBytes":"32","value":"t_struct(FileStorageRequest)94_storage"},"t_string_storage":{"encoding":"bytes","label":"string","numberOfBytes":"32"},"t_struct(FileStorageRequest)94_storage":{"encoding":"inplace","label":"struct FileStorageManager.FileStorageRequest","members":[{"astId":68,"contract":"src/SmartContracts/FileStorageManager.sol:FileStorageManager","label":"requestId","offset":0,"slot":"0","type":"t_uint256"},{"astId":70,"contract":"src/SmartContracts/FileStorageManager.sol:FileStorageManager","label":"productId","offset":0,"slot":"1","type":"t_uint256"},{"astId":72,"contract":"src/SmartContracts/FileStorageManager.sol:FileStorageManager","label":"fileName","offset":0,"slot":"2","type":"t_string_storage"},{"astId":74,"contract":"src/SmartContracts/FileStorageManager.sol:FileStorageManager","label":"fileHash","offset":0,"slot":"3","type":"t_bytes32"},{"astId":77,"contract":"src/SmartContracts/FileStorageManager.sol:FileStorageManager","label":"fileType","offset":0,"slot":"4","type":"t_enum(FileType)55"},{"astId":80,"contract":"src/SmartContracts/FileStorageManager.sol:FileStorageManager","label":"stage","offset":1,"slot":"4","type":"t_enum(ProductStage)61"},{"astId":82,"contract":"src/SmartContracts/FileStorageManager.sol:FileStorageManager","label":"requester","offset":2,"slot":"4","type":"t_address"},{"astId":84,"contract":"src/SmartContracts/FileStorageManager.sol:FileStorageManager","label":"requestedAt","offset":0,"slot":"5","type":"t_uint256"},{"astId":87,"contract":"src/SmartContracts/FileStorageManager.sol:FileStorageManager","label":"status","offset":0,"slot":"6","type":"t_enum(RequestStatus)66"},{"astId":89,"contract":"src/SmartContracts/FileStorageManager.sol:FileStorageManager","label":"s3Url","offset":0,"slot":"7","type":"t_string_storage"},{"astId":91,"contract":"src/SmartContracts/FileStorageManager.sol:FileStorageManager","label":"errorMessage","offset":0,"slot":"8","type":"t_string_storage"},{"astId":93,"contract":"src/SmartContracts/FileStorageManager.sol:FileStorageManager","label":"completedAt","offset":0,"slot":"9","type":"t_uint256"}],"numberOfBytes":"320"},"t_struct(TransactionLog)107_storage":{"encoding":"inplace","label":"struct FileStorageManager.TransactionLog","members":[{"astId":96,"contract":"src/SmartContracts/FileStorageManager.sol:FileStorageManager","label":"requestId","offset":0,"slot":"0","type":"t_uint256"},{"astId":98,"contract":"src/SmartContracts/FileStorageManager.sol:FileStorageManager","label":"action","offset":0,"slot":"1","type":"t_string_storage"},{"astId":100,"contract":"src/SmartContracts/FileStorageManager.sol:FileStorageManager","label":"success","offset":0,"slot":"2","type":"t_bool"},{"astId":102,"contract":"src/SmartContracts/FileStorageManager.sol:FileStorageManager","label":"timestamp","offset":0,"slot":"3","type":"t_uint256"},{"astId":104,"contract":"src/SmartContracts/FileStorageManager.sol:FileStorageManager","label":"details","offset":0,"slot":"4","type":"t_string_storage"},{"astId":106,"contract":"src/SmartContracts/FileStorageManager.sol:FileStorageManager","label":"actor","offset":0,"slot":"5","type":"t_address"}],"numberOfBytes":"192"},"t_uint256":{"encoding":"inplace","label":"uint256","numberOfBytes":"32"}}},"userdoc":{"kind":"user","methods":{},"version":1}}}}