{"src/SmartContracts/Stakeholder.sol":{"Stakeholder":{"abi":[{"inputs":[{"internalType":"address","name":"_stakeholderAddress","type":"address"},{"internalType":"enum Stakeholder.StakeholderRole","name":"_role","type":"uint8"},{"internalType":"string","name":"_businessName","type":"string"},{"internalType":"string","name":"_businessLicense","type":"string"},{"internalType":"string","name":"_location","type":"string"},{"internalType":"string","name":"_certifications","type":"string"},{"internalType":"address","name":"_admin","type":"address"}],"stateMutability":"nonpayable","type":"constructor"},{"anonymous":false,"inputs":[{"indexed":false,"internalType":"uint256","name":"timestamp","type":"uint256"}],"name":"StakeholderDeactivated","type":"event"},{"anonymous":false,"inputs":[{"indexed":false,"internalType":"uint256","name":"timestamp","type":"uint256"}],"name":"StakeholderReactivated","type":"event"},{"anonymous":false,"inputs":[{"indexed":false,"internalType":"string","name":"businessName","type":"string"},{"indexed":false,"internalType":"string","name":"location","type":"string"},{"indexed":false,"internalType":"string","name":"certifications","type":"string"},{"indexed":false,"internalType":"uint256","name":"timestamp","type":"uint256"}],"name":"StakeholderUpdated","type":"event"},{"inputs":[],"name":"admin","outputs":[{"internalType":"address","name":"","type":"address"}],"stateMutability":"view","type":"function"},{"inputs":[],"name":"businessLicense","outputs":[{"internalType":"string","name":"","type":"string"}],"stateMutability":"view","type":"function"},{"inputs":[],"name":"businessName","outputs":[{"internalType":"string","name":"","type":"string"}],"stateMutability":"view","type":"function"},{"inputs":[],"name":"certifications","outputs":[{"internalType":"string","name":"","type":"string"}],"stateMutability":"view","type":"function"},{"inputs":[],"name":"deactivate","outputs":[],"stateMutability":"nonpayable","type":"function"},{"inputs":[],"name":"getRoleString","outputs":[{"internalType":"string","name":"","type":"string"}],"stateMutability":"view","type":"function"},{"inputs":[],"name":"getStakeholderInfo","outputs":[{"internalType":"address","name":"addr","type":"address"},{"internalType":"enum Stakeholder.StakeholderRole","name":"stakeholderRole","type":"uint8"},{"internalType":"string","name":"name","type":"string"},{"internalType":"string","name":"license","type":"string"},{"internalType":"string","name":"loc","type":"string"},{"internalType":"string","name":"certs","type":"string"},{"internalType":"bool","name":"active","type":"bool"},{"internalType":"uint256","name":"registered","type":"uint256"},{"internalType":"uint256","name":"activity","type":"uint256"}],"stateMutability":"view","type":"function"},{"inputs":[{"internalType":"enum Stakeholder.StakeholderRole","name":"_role","type":"uint8"}],"name":"hasRole","outputs":[{"internalType":"bool","name":"","type":"bool"}],"stateMutability":"view","type":"function"},{"inputs":[],"name":"isActive","outputs":[{"internalType":"bool","name":"","type":"bool"}],"stateMutability":"view","type":"function"},{"inputs":[],"name":"isValidForOperations","outputs":[{"internalType":"bool","name":"","type":"bool"}],"stateMutability":"view","type":"function"},{"inputs":[],"name":"lastActivity","outputs":[{"internalType":"uint256","name":"","type":"uint256"}],"stateMutability":"view","type":"function"},{"inputs":[],"name":"location","outputs":[{"internalType":"string","name":"","type":"string"}],"stateMutability":"view","type":"function"},{"inputs":[],"name":"reactivate","outputs":[],"stateMutability":"nonpayable","type":"function"},{"inputs":[],"name":"registeredAt","outputs":[{"internalType":"uint256","name":"","type":"uint256"}],"stateMutability":"view","type":"function"},{"inputs":[],"name":"role","outputs":[{"internalType":"enum Stakeholder.StakeholderRole","name":"","type":"uint8"}],"stateMutability":"view","type":"function"},{"inputs":[],"name":"stakeholderAddress","outputs":[{"internalType":"address","name":"","type":"address"}],"stateMutability":"view","type":"function"},{"inputs":[],"name":"updateActivity","outputs":[],"stateMutability":"nonpayable","type":"function"},{"inputs":[{"internalType":"string","name":"_businessName","type":"string"},{"internalType":"string","name":"_location","type":"string"},{"internalType":"string","name":"_certifications","type":"string"}],"name":"updateInfo","outputs":[],"stateMutability":"nonpayable","type":"function"}],"devdoc":{"kind":"dev","methods":{"deactivate()":{"details":"Deactivate stakeholder"},"getRoleString()":{"details":"Get role as string"},"getStakeholderInfo()":{"details":"Get complete stakeholder information"},"hasRole(uint8)":{"details":"Check if stakeholder has specific role"},"isValidForOperations()":{"details":"Check if stakeholder is valid for operations"},"reactivate()":{"details":"Reactivate stakeholder"},"updateActivity()":{"details":"Update last activity timestamp"},"updateInfo(string,string,string)":{"details":"Update stakeholder information"}},"version":1},"evm":{"bytecode":{"linkReferences":{},"object":"604060808152346200073457620018f3803803806200001e8162000739565b928339810160e0828203126200073457620000398262000775565b916020918282015191600491828410156200073457818701516001600160401b039290838111620007345782620000729183016200078a565b9060608101518481116200073457836200008e9183016200078a565b956080820151858111620007345784620000aa9184016200078a565b9360a0830151908682116200073457620000cd60c091620000d59386016200078a565b930162000775565b6001600160a01b03999098908a16918215620006f157845115620006ae578851156200066d57600080546001600160a81b03191690931760a09190911b60ff60a01b161782558351978689116200049f576001988954958a87811c9716801562000662575b8488101462000481578190601f978881116200060f575b508490888311600114620005a257869262000596575b5050600019600383901b1c1916908a1b1789555b80519087821162000583576002548a81811c9116801562000578575b84821014620004815790818784931162000524575b508390878311600114620004be578592620004b2575b5050600019600383901b1c191690891b176002555b84518681116200049f5760039586548a81811c9116801562000494575b8482101462000481579081878493116200042e575b508390878311600114620003cb578592620003bf575b505060001982881b1c191690891b1785555b8251958611620003ac5786548881811c91168015620003a1575b828210146200038e579081858897969594931162000333575b5080938611600114620002c9575093620002bd575b505082851b92600019911b1c19161790555b60ff19600554161760055542600655426007551660018060a01b03196008541617600855516110f69081620007fd8239f35b01519150388062000279565b87825280822089975094939291601f198716915b828210620003195750508511620002fe575b50505050811b0190556200028b565b01519060f884600019921b161c1916905538808080620002ef565b8484015187558a98909601959384019390810190620002dd565b909192939495508783528183208580890160051c820192848a1062000384575b918b918a999897969594930160051c01915b8281106200037557505062000264565b8481558998508b910162000365565b9250819262000353565b634e487b7160e01b835260228852602483fd5b90607f16906200024b565b634e487b7160e01b825260418752602482fd5b0151905038806200021f565b8886528486208c94509190601f198416875b87828210620004175750508411620003fe575b505050811b01855562000231565b0151600019838a1b60f8161c19169055388080620003f0565b8385015186558f97909501949384019301620003dd565b9091508785528385208780850160051c82019286861062000477575b918d91869594930160051c01915b8281106200046857505062000209565b8781558594508d910162000458565b925081926200044a565b634e487b7160e01b855260228a52602485fd5b90607f1690620001f4565b634e487b7160e01b835260418852602483fd5b015190503880620001c2565b600286528486208c94509190601f198416875b878282106200050d5750508411620004f3575b505050811b01600255620001d7565b015160001960f88460031b161c19169055388080620004e4565b8385015186558f97909501949384019301620004d1565b909150600285528385208780850160051c8201928686106200056e575b918d91869594930160051c01915b8281106200055f575050620001ac565b8781558594508d91016200054f565b9250819262000541565b90607f169062000197565b634e487b7160e01b845260418952602484fd5b01519050388062000167565b8c87528587208d94509190601f198416885b88828210620005ef5750508411620005d5575b505050811b0189556200017b565b015160001960f88460031b161c19169055388080620005c7565b91929395968291958786015181550195019301908e9594939291620005b4565b9091508b86528486208880850160051c82019287861062000658575b918e91869594930160051c01915b8281106200064957505062000151565b8881558594508e910162000639565b925081926200062b565b96607f16966200013a565b60648883808f519262461bcd60e51b845283015260248201527f427573696e657373206c6963656e73652063616e6e6f7420626520656d7074796044820152fd5b8b5162461bcd60e51b8152808901839052601d60248201527f427573696e657373206e616d652063616e6e6f7420626520656d7074790000006044820152606490fd5b8b5162461bcd60e51b8152808901839052601b60248201527f496e76616c6964207374616b65686f6c646572206164647265737300000000006044820152606490fd5b600080fd5b6040519190601f01601f191682016001600160401b038111838210176200075f57604052565b634e487b7160e01b600052604160045260246000fd5b51906001600160a01b03821682036200073457565b919080601f84011215620007345782516001600160401b0381116200075f57602090620007c0601f8201601f1916830162000739565b92818452828287010111620007345760005b818110620007e857508260009394955001015290565b8581018301518482018401528201620007d256fe608060408181526004918236101561001657600080fd5b600092833560e01c91826310055c1d14610abb5750816313720fef14610a9d57816319e0755c14610a315781631b0e1ffa146109835781631eac204b1461096557816322f3e2d414610941578163516f279e1461092357816351b42b00146108b557816355627b1d1461088f5781635951a7f6146108715781635fd51b37146108525781636a85b4ff146108335781637f6d2e02146107fe578163a1a9a8cc146107c8578163a4995e5f14610700578163a4a21c3c146101cc578163d18611d614610115575063f851a440146100eb57600080fd5b346101115781600319360112610111576020906001600160a01b03600854169051908152f35b5080fd5b9050346101c857826003193601126101c85761013d6001600160a01b03600854163314610eb5565b6005549060ff821661018557507f3399bd980afb25557d79ab8cdfa7a7f80cbd9bc2de05aa412c59c742ecc6681591600160209260ff1916176005554260075551428152a180f35b606490602084519162461bcd60e51b8352820152601d60248201527f5374616b65686f6c64657220697320616c7265616479206163746976650000006044820152fd5b8280fd5b919050346101c85760603660031901126101c85767ffffffffffffffff82358181116106fc576101ff9036908501610e59565b926024358281116106f8576102179036908301610e59565b906044358381116106f45761022f9036908301610e59565b926102466001600160a01b03600854163314610eb5565b600561025560ff825416610f26565b8651156106b157865182811161069e576001906102728254610b45565b90601f9182811161063e575b508060208382116001146105c1578c916105b6575b50600019600383901b1c191690831b1782555b8551928484116104bb576003936102bd8554610b45565b838111610554575b508060208d8583116001146104d957916104ce575b5060001982871b1c191690841b1784555b87519485116104bb576102fe8654610b45565b9082821161045b575b50508960209185116001146103aa579380610386948161039399956103789c99957f39775e654ddec5d7e78eaa9dcf21248dcdf62e39b6c58d81f3f0a23793b503fc9e9c999461039f575b501b92600019911b1c19161790555b426007558351968796608088526080880190610b05565b908682036020880152610b05565b9184830390850152610b05565b4260608301520390a180f35b890151935038610352565b50848a529092917f8a35acfbc15ff81a39ae7d344fd709f28e8600b4aa8c65c6b64bfe7fe36bd19b91601f1984168b5b81811061044557509361039397936103789a97937f39775e654ddec5d7e78eaa9dcf21248dcdf62e39b6c58d81f3f0a23793b503fc9c9a979383610386981061042b575b505050811b019055610361565b8801519060f884600019921b161c1916905538808061041e565b89830151855593860193602092830192016103da565b868c527f8a35acfbc15ff81a39ae7d344fd709f28e8600b4aa8c65c6b64bfe7fe36bd19b9083808801821c830193602089106104b2575b01901c019083905b8281106104a75750610307565b8c815501839061049a565b93508293610492565b60248b604188634e487b7160e01b835252fd5b9050880151386102da565b90869350601f1983168883527fc2575a0e9e593c00f959f8c92f12db2869c3395a3b0502d05e2516446f71f85b925b8c82821061053d5750508311610525575b5050811b0184556102eb565b8a015160001983891b60f8161c191690553880610519565b830151845588959093019260209283019201610508565b858d527fc2575a0e9e593c00f959f8c92f12db2869c3395a3b0502d05e2516446f71f85b84808401851c820192602085106105ad575b01841c019085908e5b8382106105a2575050506102c5565b81550185908e610593565b9250819261058a565b90508a015138610293565b848d528492507fb10e2d527612073b26eecdfd717e6a320cf44b4afac2b0732d9fcbe2b7fa0cf690601f1983168e8e5b828210610626575050831161060d575b5050811b0182556102a6565b8c015160001960f88460031b161c191690553880610601565b8301518455879590930192602092830192018e6105f1565b838c527fb10e2d527612073b26eecdfd717e6a320cf44b4afac2b0732d9fcbe2b7fa0cf683808401871c82019260208510610695575b01861c019084905b82811061068a57505061027e565b8d815501849061067c565b92508192610674565b602489604186634e487b7160e01b835252fd5b606483602088519162461bcd60e51b8352820152601d60248201527f427573696e657373206e616d652063616e6e6f7420626520656d7074790000006044820152fd5b8680fd5b8580fd5b8480fd5b8284346107c557806003193601126107c5575460055460ff1660065460075490610728610d2a565b610730610dc0565b610738610c91565b90610741610bd3565b92885198886001600160a01b038b9a168a5260208a019060a01c60ff169061076891610ae2565b61012080918a0152880161077b91610b05565b878103606089015261078c91610b05565b868103608088015261079d91610b05565b85810360a08701526107ae91610b05565b92151560c085015260e08401526101008301520390f35b80fd5b50503461011157816003193601126101115760209060ff6005541690816107f2575b519015158152f35b600654421191506107ea565b50503461011157816003193601126101115761082f9061081c610dc0565b9051918291602083526020830190610b05565b0390f35b5050346101115781600319360112610111576020906006549051908152f35b5050346101115781600319360112610111576020906007549051908152f35b50503461011157816003193601126101115761082f9061081c610d2a565b5050346101115781600319360112610111576001600160a01b0360209254169051908152f35b50503461011157816003193601126101115760207fed9ce302bc123fb971df5fd828d331af63b3bbe6a60d7144ddedbff7e033d7a0916109016001600160a01b03600854163314610eb5565b60055461091060ff8216610f26565b60ff19166005554260075551428152a180f35b50503461011157816003193601126101115761082f9061081c610c91565b50503461011157816003193601126101115760209060ff6005541690519015158152f35b50503461011157816003193601126101115761082f9061081c610bd3565b919050346101c857826003193601126101c8576001600160a01b03808454163314908115610a23575b50156109ba57824260075580f35b906020608492519162461bcd60e51b8352820152602d60248201527f4f6e6c79207374616b65686f6c646572206f722061646d696e2063616e20757060448201527f64617465206163746976697479000000000000000000000000000000000000006064820152fd5b9050600854163314386109ac565b838334610111576020366003190112610111578235838110156101c85760ff600554169283610a67575b60208484519015158152f35b9091925060ff815460a01c169084821015610a8a57506020935014908380610a5b565b80602186634e487b7160e01b6024945252fd5b50503461011157816003193601126101115761082f9061081c610f71565b849034610111578160031936011261011157610ae08160ff6020945460a01c16610ae2565bf35b906004821015610aef5752565b634e487b7160e01b600052602160045260246000fd5b919082519283825260005b848110610b31575050826000602080949584010152601f8019910116010190565b602081830181015184830182015201610b10565b90600182811c92168015610b75575b6020831014610b5f57565b634e487b7160e01b600052602260045260246000fd5b91607f1691610b54565b6040810190811067ffffffffffffffff821117610b9b57604052565b634e487b7160e01b600052604160045260246000fd5b90601f8019910116810190811067ffffffffffffffff821117610b9b57604052565b6040519060008260045491610be783610b45565b80835292600190818116908115610c6f5750600114610c10575b50610c0e92500383610bb1565b565b6004600090815291507f8a35acfbc15ff81a39ae7d344fd709f28e8600b4aa8c65c6b64bfe7fe36bd19b5b848310610c545750610c0e935050810160200138610c01565b81935090816020925483858a01015201910190918592610c3b565b905060209250610c0e94915060ff191682840152151560051b82010138610c01565b6040519060008260035491610ca583610b45565b80835292600190818116908115610c6f5750600114610ccb5750610c0e92500383610bb1565b6003600090815291507fc2575a0e9e593c00f959f8c92f12db2869c3395a3b0502d05e2516446f71f85b5b848310610d0f5750610c0e935050810160200138610c01565b81935090816020925483858a01015201910190918592610cf6565b60405190600082600191825492610d4084610b45565b80845293818116908115610c6f5750600114610d635750610c0e92500383610bb1565b600081815291507fb10e2d527612073b26eecdfd717e6a320cf44b4afac2b0732d9fcbe2b7fa0cf65b848310610da55750610c0e935050810160200138610c01565b81935090816020925483858a01015201910190918592610d8c565b6040519060008260025491610dd483610b45565b80835292600190818116908115610c6f5750600114610dfa5750610c0e92500383610bb1565b6002600090815291507f405787fa12a823e0f2b7631cc41b3ba8828b3321ca811111fa75cd3aa3bb5ace5b848310610e3e5750610c0e935050810160200138610c01565b81935090816020925483858a01015201910190918592610e25565b81601f82011215610eb05780359067ffffffffffffffff8211610b9b5760405192610e8e601f8401601f191660200185610bb1565b82845260208383010111610eb057816000926020809301838601378301015290565b600080fd5b15610ebc57565b608460405162461bcd60e51b815260206004820152602160248201527f4f6e6c792061646d696e2063616e2063616c6c20746869732066756e6374696f60448201527f6e000000000000000000000000000000000000000000000000000000000000006064820152fd5b15610f2d57565b606460405162461bcd60e51b815260206004820152601960248201527f5374616b65686f6c646572206973206e6f7420616374697665000000000000006044820152fd5b60ff60005460a01c166004811015610aef578015611086576001811461104c576002811461101257600314610fd957604051610fac81610b7f565b600781527f554e4b4e4f574e00000000000000000000000000000000000000000000000000602082015290565b604051610fe581610b7f565b600b81527f4449535452494255544f52000000000000000000000000000000000000000000602082015290565b5060405161101f81610b7f565b600881527f52455441494c4552000000000000000000000000000000000000000000000000602082015290565b5060405161105981610b7f565b600981527f50524f434553534f520000000000000000000000000000000000000000000000602082015290565b5060405161109381610b7f565b600681527f4641524d4552000000000000000000000000000000000000000000000000000060208201529056fea26469706673582212203888cadc654f0b333ab83a5ffa3e9e0bc8ae730e3e4f861a1bc5608b42389dc964736f6c63430008130033","opcodes":"PUSH1 0x40 PUSH1 0x80 DUP2 MSTORE CALLVALUE PUSH3 0x734 JUMPI PUSH3 0x18F3 DUP1 CODESIZE SUB DUP1 PUSH3 0x1E DUP2 PUSH3 0x739 JUMP JUMPDEST SWAP3 DUP4 CODECOPY DUP2 ADD PUSH1 0xE0 DUP3 DUP3 SUB SLT PUSH3 0x734 JUMPI PUSH3 0x39 DUP3 PUSH3 0x775 JUMP JUMPDEST SWAP2 PUSH1 0x20 SWAP2 DUP3 DUP3 ADD MLOAD SWAP2 PUSH1 0x4 SWAP2 DUP3 DUP5 LT ISZERO PUSH3 0x734 JUMPI DUP2 DUP8 ADD MLOAD PUSH1 0x1 PUSH1 0x1 PUSH1 0x40 SHL SUB SWAP3 SWAP1 DUP4 DUP2 GT PUSH3 0x734 JUMPI DUP3 PUSH3 0x72 SWAP2 DUP4 ADD PUSH3 0x78A JUMP JUMPDEST SWAP1 PUSH1 0x60 DUP2 ADD MLOAD DUP5 DUP2 GT PUSH3 0x734 JUMPI DUP4 PUSH3 0x8E SWAP2 DUP4 ADD PUSH3 0x78A JUMP JUMPDEST SWAP6 PUSH1 0x80 DUP3 ADD MLOAD DUP6 DUP2 GT PUSH3 0x734 JUMPI DUP5 PUSH3 0xAA SWAP2 DUP5 ADD PUSH3 0x78A JUMP JUMPDEST SWAP4 PUSH1 0xA0 DUP4 ADD MLOAD SWAP1 DUP7 DUP3 GT PUSH3 0x734 JUMPI PUSH3 0xCD PUSH1 0xC0 SWAP2 PUSH3 0xD5 SWAP4 DUP7 ADD PUSH3 0x78A JUMP JUMPDEST SWAP4 ADD PUSH3 0x775 JUMP JUMPDEST PUSH1 0x1 PUSH1 0x1 PUSH1 0xA0 SHL SUB SWAP10 SWAP1 SWAP9 SWAP1 DUP11 AND SWAP2 DUP3 ISZERO PUSH3 0x6F1 JUMPI DUP5 MLOAD ISZERO PUSH3 0x6AE JUMPI DUP9 MLOAD ISZERO PUSH3 0x66D JUMPI PUSH1 0x0 DUP1 SLOAD PUSH1 0x1 PUSH1 0x1 PUSH1 0xA8 SHL SUB NOT AND SWAP1 SWAP4 OR PUSH1 0xA0 SWAP2 SWAP1 SWAP2 SHL PUSH1 0xFF PUSH1 0xA0 SHL AND OR DUP3 SSTORE DUP4 MLOAD SWAP8 DUP7 DUP10 GT PUSH3 0x49F JUMPI PUSH1 0x1 SWAP9 DUP10 SLOAD SWAP6 DUP11 DUP8 DUP2 SHR SWAP8 AND DUP1 ISZERO PUSH3 0x662 JUMPI JUMPDEST DUP5 DUP9 LT EQ PUSH3 0x481 JUMPI DUP2 SWAP1 PUSH1 0x1F SWAP8 DUP9 DUP2 GT PUSH3 0x60F JUMPI JUMPDEST POP DUP5 SWAP1 DUP9 DUP4 GT PUSH1 0x1 EQ PUSH3 0x5A2 JUMPI DUP7 SWAP3 PUSH3 0x596 JUMPI JUMPDEST POP POP PUSH1 0x0 NOT PUSH1 0x3 DUP4 SWAP1 SHL SHR NOT AND SWAP1 DUP11 SHL OR DUP10 SSTORE JUMPDEST DUP1 MLOAD SWAP1 DUP8 DUP3 GT PUSH3 0x583 JUMPI PUSH1 0x2 SLOAD DUP11 DUP2 DUP2 SHR SWAP2 AND DUP1 ISZERO PUSH3 0x578 JUMPI JUMPDEST DUP5 DUP3 LT EQ PUSH3 0x481 JUMPI SWAP1 DUP2 DUP8 DUP5 SWAP4 GT PUSH3 0x524 JUMPI JUMPDEST POP DUP4 SWAP1 DUP8 DUP4 GT PUSH1 0x1 EQ PUSH3 0x4BE JUMPI DUP6 SWAP3 PUSH3 0x4B2 JUMPI JUMPDEST POP POP PUSH1 0x0 NOT PUSH1 0x3 DUP4 SWAP1 SHL SHR NOT AND SWAP1 DUP10 SHL OR PUSH1 0x2 SSTORE JUMPDEST DUP5 MLOAD DUP7 DUP2 GT PUSH3 0x49F JUMPI PUSH1 0x3 SWAP6 DUP7 SLOAD DUP11 DUP2 DUP2 SHR SWAP2 AND DUP1 ISZERO PUSH3 0x494 JUMPI JUMPDEST DUP5 DUP3 LT EQ PUSH3 0x481 JUMPI SWAP1 DUP2 DUP8 DUP5 SWAP4 GT PUSH3 0x42E JUMPI JUMPDEST POP DUP4 SWAP1 DUP8 DUP4 GT PUSH1 0x1 EQ PUSH3 0x3CB JUMPI DUP6 SWAP3 PUSH3 0x3BF JUMPI JUMPDEST POP POP PUSH1 0x0 NOT DUP3 DUP9 SHL SHR NOT AND SWAP1 DUP10 SHL OR DUP6 SSTORE JUMPDEST DUP3 MLOAD SWAP6 DUP7 GT PUSH3 0x3AC JUMPI DUP7 SLOAD DUP9 DUP2 DUP2 SHR SWAP2 AND DUP1 ISZERO PUSH3 0x3A1 JUMPI JUMPDEST DUP3 DUP3 LT EQ PUSH3 0x38E JUMPI SWAP1 DUP2 DUP6 DUP9 SWAP8 SWAP7 SWAP6 SWAP5 SWAP4 GT PUSH3 0x333 JUMPI JUMPDEST POP DUP1 SWAP4 DUP7 GT PUSH1 0x1 EQ PUSH3 0x2C9 JUMPI POP SWAP4 PUSH3 0x2BD JUMPI JUMPDEST POP POP DUP3 DUP6 SHL SWAP3 PUSH1 0x0 NOT SWAP2 SHL SHR NOT AND OR SWAP1 SSTORE JUMPDEST PUSH1 0xFF NOT PUSH1 0x5 SLOAD AND OR PUSH1 0x5 SSTORE TIMESTAMP PUSH1 0x6 SSTORE TIMESTAMP PUSH1 0x7 SSTORE AND PUSH1 0x1 DUP1 PUSH1 0xA0 SHL SUB NOT PUSH1 0x8 SLOAD AND OR PUSH1 0x8 SSTORE MLOAD PUSH2 0x10F6 SWAP1 DUP2 PUSH3 0x7FD DUP3 CODECOPY RETURN JUMPDEST ADD MLOAD SWAP2 POP CODESIZE DUP1 PUSH3 0x279 JUMP JUMPDEST DUP8 DUP3 MSTORE DUP1 DUP3 KECCAK256 DUP10 SWAP8 POP SWAP5 SWAP4 SWAP3 SWAP2 PUSH1 0x1F NOT DUP8 AND SWAP2 JUMPDEST DUP3 DUP3 LT PUSH3 0x319 JUMPI POP POP DUP6 GT PUSH3 0x2FE JUMPI JUMPDEST POP POP POP POP DUP2 SHL ADD SWAP1 SSTORE PUSH3 0x28B JUMP JUMPDEST ADD MLOAD SWAP1 PUSH1 0xF8 DUP5 PUSH1 0x0 NOT SWAP3 SHL AND SHR NOT AND SWAP1 SSTORE CODESIZE DUP1 DUP1 DUP1 PUSH3 0x2EF JUMP JUMPDEST DUP5 DUP5 ADD MLOAD DUP8 SSTORE DUP11 SWAP9 SWAP1 SWAP7 ADD SWAP6 SWAP4 DUP5 ADD SWAP4 SWAP1 DUP2 ADD SWAP1 PUSH3 0x2DD JUMP JUMPDEST SWAP1 SWAP2 SWAP3 SWAP4 SWAP5 SWAP6 POP DUP8 DUP4 MSTORE DUP2 DUP4 KECCAK256 DUP6 DUP1 DUP10 ADD PUSH1 0x5 SHR DUP3 ADD SWAP3 DUP5 DUP11 LT PUSH3 0x384 JUMPI JUMPDEST SWAP2 DUP12 SWAP2 DUP11 SWAP10 SWAP9 SWAP8 SWAP7 SWAP6 SWAP5 SWAP4 ADD PUSH1 0x5 SHR ADD SWAP2 JUMPDEST DUP3 DUP2 LT PUSH3 0x375 JUMPI POP POP PUSH3 0x264 JUMP JUMPDEST DUP5 DUP2 SSTORE DUP10 SWAP9 POP DUP12 SWAP2 ADD PUSH3 0x365 JUMP JUMPDEST SWAP3 POP DUP2 SWAP3 PUSH3 0x353 JUMP JUMPDEST PUSH4 0x4E487B71 PUSH1 0xE0 SHL DUP4 MSTORE PUSH1 0x22 DUP9 MSTORE PUSH1 0x24 DUP4 REVERT JUMPDEST SWAP1 PUSH1 0x7F AND SWAP1 PUSH3 0x24B JUMP JUMPDEST PUSH4 0x4E487B71 PUSH1 0xE0 SHL DUP3 MSTORE PUSH1 0x41 DUP8 MSTORE PUSH1 0x24 DUP3 REVERT JUMPDEST ADD MLOAD SWAP1 POP CODESIZE DUP1 PUSH3 0x21F JUMP JUMPDEST DUP9 DUP7 MSTORE DUP5 DUP7 KECCAK256 DUP13 SWAP5 POP SWAP2 SWAP1 PUSH1 0x1F NOT DUP5 AND DUP8 JUMPDEST DUP8 DUP3 DUP3 LT PUSH3 0x417 JUMPI POP POP DUP5 GT PUSH3 0x3FE JUMPI JUMPDEST POP POP POP DUP2 SHL ADD DUP6 SSTORE PUSH3 0x231 JUMP JUMPDEST ADD MLOAD PUSH1 0x0 NOT DUP4 DUP11 SHL PUSH1 0xF8 AND SHR NOT AND SWAP1 SSTORE CODESIZE DUP1 DUP1 PUSH3 0x3F0 JUMP JUMPDEST DUP4 DUP6 ADD MLOAD DUP7 SSTORE DUP16 SWAP8 SWAP1 SWAP6 ADD SWAP5 SWAP4 DUP5 ADD SWAP4 ADD PUSH3 0x3DD JUMP JUMPDEST SWAP1 SWAP2 POP DUP8 DUP6 MSTORE DUP4 DUP6 KECCAK256 DUP8 DUP1 DUP6 ADD PUSH1 0x5 SHR DUP3 ADD SWAP3 DUP7 DUP7 LT PUSH3 0x477 JUMPI JUMPDEST SWAP2 DUP14 SWAP2 DUP7 SWAP6 SWAP5 SWAP4 ADD PUSH1 0x5 SHR ADD SWAP2 JUMPDEST DUP3 DUP2 LT PUSH3 0x468 JUMPI POP POP PUSH3 0x209 JUMP JUMPDEST DUP8 DUP2 SSTORE DUP6 SWAP5 POP DUP14 SWAP2 ADD PUSH3 0x458 JUMP JUMPDEST SWAP3 POP DUP2 SWAP3 PUSH3 0x44A JUMP JUMPDEST PUSH4 0x4E487B71 PUSH1 0xE0 SHL DUP6 MSTORE PUSH1 0x22 DUP11 MSTORE PUSH1 0x24 DUP6 REVERT JUMPDEST SWAP1 PUSH1 0x7F AND SWAP1 PUSH3 0x1F4 JUMP JUMPDEST PUSH4 0x4E487B71 PUSH1 0xE0 SHL DUP4 MSTORE PUSH1 0x41 DUP9 MSTORE PUSH1 0x24 DUP4 REVERT JUMPDEST ADD MLOAD SWAP1 POP CODESIZE DUP1 PUSH3 0x1C2 JUMP JUMPDEST PUSH1 0x2 DUP7 MSTORE DUP5 DUP7 KECCAK256 DUP13 SWAP5 POP SWAP2 SWAP1 PUSH1 0x1F NOT DUP5 AND DUP8 JUMPDEST DUP8 DUP3 DUP3 LT PUSH3 0x50D JUMPI POP POP DUP5 GT PUSH3 0x4F3 JUMPI JUMPDEST POP POP POP DUP2 SHL ADD PUSH1 0x2 SSTORE PUSH3 0x1D7 JUMP JUMPDEST ADD MLOAD PUSH1 0x0 NOT PUSH1 0xF8 DUP5 PUSH1 0x3 SHL AND SHR NOT AND SWAP1 SSTORE CODESIZE DUP1 DUP1 PUSH3 0x4E4 JUMP JUMPDEST DUP4 DUP6 ADD MLOAD DUP7 SSTORE DUP16 SWAP8 SWAP1 SWAP6 ADD SWAP5 SWAP4 DUP5 ADD SWAP4 ADD PUSH3 0x4D1 JUMP JUMPDEST SWAP1 SWAP2 POP PUSH1 0x2 DUP6 MSTORE DUP4 DUP6 KECCAK256 DUP8 DUP1 DUP6 ADD PUSH1 0x5 SHR DUP3 ADD SWAP3 DUP7 DUP7 LT PUSH3 0x56E JUMPI JUMPDEST SWAP2 DUP14 SWAP2 DUP7 SWAP6 SWAP5 SWAP4 ADD PUSH1 0x5 SHR ADD SWAP2 JUMPDEST DUP3 DUP2 LT PUSH3 0x55F JUMPI POP POP PUSH3 0x1AC JUMP JUMPDEST DUP8 DUP2 SSTORE DUP6 SWAP5 POP DUP14 SWAP2 ADD PUSH3 0x54F JUMP JUMPDEST SWAP3 POP DUP2 SWAP3 PUSH3 0x541 JUMP JUMPDEST SWAP1 PUSH1 0x7F AND SWAP1 PUSH3 0x197 JUMP JUMPDEST PUSH4 0x4E487B71 PUSH1 0xE0 SHL DUP5 MSTORE PUSH1 0x41 DUP10 MSTORE PUSH1 0x24 DUP5 REVERT JUMPDEST ADD MLOAD SWAP1 POP CODESIZE DUP1 PUSH3 0x167 JUMP JUMPDEST DUP13 DUP8 MSTORE DUP6 DUP8 KECCAK256 DUP14 SWAP5 POP SWAP2 SWAP1 PUSH1 0x1F NOT DUP5 AND DUP9 JUMPDEST DUP9 DUP3 DUP3 LT PUSH3 0x5EF JUMPI POP POP DUP5 GT PUSH3 0x5D5 JUMPI JUMPDEST POP POP POP DUP2 SHL ADD DUP10 SSTORE PUSH3 0x17B JUMP JUMPDEST ADD MLOAD PUSH1 0x0 NOT PUSH1 0xF8 DUP5 PUSH1 0x3 SHL AND SHR NOT AND SWAP1 SSTORE CODESIZE DUP1 DUP1 PUSH3 0x5C7 JUMP JUMPDEST SWAP2 SWAP3 SWAP4 SWAP6 SWAP7 DUP3 SWAP2 SWAP6 DUP8 DUP7 ADD MLOAD DUP2 SSTORE ADD SWAP6 ADD SWAP4 ADD SWAP1 DUP15 SWAP6 SWAP5 SWAP4 SWAP3 SWAP2 PUSH3 0x5B4 JUMP JUMPDEST SWAP1 SWAP2 POP DUP12 DUP7 MSTORE DUP5 DUP7 KECCAK256 DUP9 DUP1 DUP6 ADD PUSH1 0x5 SHR DUP3 ADD SWAP3 DUP8 DUP7 LT PUSH3 0x658 JUMPI JUMPDEST SWAP2 DUP15 SWAP2 DUP7 SWAP6 SWAP5 SWAP4 ADD PUSH1 0x5 SHR ADD SWAP2 JUMPDEST DUP3 DUP2 LT PUSH3 0x649 JUMPI POP POP PUSH3 0x151 JUMP JUMPDEST DUP9 DUP2 SSTORE DUP6 SWAP5 POP DUP15 SWAP2 ADD PUSH3 0x639 JUMP JUMPDEST SWAP3 POP DUP2 SWAP3 PUSH3 0x62B JUMP JUMPDEST SWAP7 PUSH1 0x7F AND SWAP7 PUSH3 0x13A JUMP JUMPDEST PUSH1 0x64 DUP9 DUP4 DUP1 DUP16 MLOAD SWAP3 PUSH3 0x461BCD PUSH1 0xE5 SHL DUP5 MSTORE DUP4 ADD MSTORE PUSH1 0x24 DUP3 ADD MSTORE PUSH32 0x427573696E657373206C6963656E73652063616E6E6F7420626520656D707479 PUSH1 0x44 DUP3 ADD MSTORE REVERT JUMPDEST DUP12 MLOAD PUSH3 0x461BCD PUSH1 0xE5 SHL DUP2 MSTORE DUP1 DUP10 ADD DUP4 SWAP1 MSTORE PUSH1 0x1D PUSH1 0x24 DUP3 ADD MSTORE PUSH32 0x427573696E657373206E616D652063616E6E6F7420626520656D707479000000 PUSH1 0x44 DUP3 ADD MSTORE PUSH1 0x64 SWAP1 REVERT JUMPDEST DUP12 MLOAD PUSH3 0x461BCD PUSH1 0xE5 SHL DUP2 MSTORE DUP1 DUP10 ADD DUP4 SWAP1 MSTORE PUSH1 0x1B PUSH1 0x24 DUP3 ADD MSTORE PUSH32 0x496E76616C6964207374616B65686F6C64657220616464726573730000000000 PUSH1 0x44 DUP3 ADD MSTORE PUSH1 0x64 SWAP1 REVERT JUMPDEST PUSH1 0x0 DUP1 REVERT JUMPDEST PUSH1 0x40 MLOAD SWAP2 SWAP1 PUSH1 0x1F ADD PUSH1 0x1F NOT AND DUP3 ADD PUSH1 0x1 PUSH1 0x1 PUSH1 0x40 SHL SUB DUP2 GT DUP4 DUP3 LT OR PUSH3 0x75F JUMPI PUSH1 0x40 MSTORE JUMP JUMPDEST PUSH4 0x4E487B71 PUSH1 0xE0 SHL PUSH1 0x0 MSTORE PUSH1 0x41 PUSH1 0x4 MSTORE PUSH1 0x24 PUSH1 0x0 REVERT JUMPDEST MLOAD SWAP1 PUSH1 0x1 PUSH1 0x1 PUSH1 0xA0 SHL SUB DUP3 AND DUP3 SUB PUSH3 0x734 JUMPI JUMP JUMPDEST SWAP2 SWAP1 DUP1 PUSH1 0x1F DUP5 ADD SLT ISZERO PUSH3 0x734 JUMPI DUP3 MLOAD PUSH1 0x1 PUSH1 0x1 PUSH1 0x40 SHL SUB DUP2 GT PUSH3 0x75F JUMPI PUSH1 0x20 SWAP1 PUSH3 0x7C0 PUSH1 0x1F DUP3 ADD PUSH1 0x1F NOT AND DUP4 ADD PUSH3 0x739 JUMP JUMPDEST SWAP3 DUP2 DUP5 MSTORE DUP3 DUP3 DUP8 ADD ADD GT PUSH3 0x734 JUMPI PUSH1 0x0 JUMPDEST DUP2 DUP2 LT PUSH3 0x7E8 JUMPI POP DUP3 PUSH1 0x0 SWAP4 SWAP5 SWAP6 POP ADD ADD MSTORE SWAP1 JUMP JUMPDEST DUP6 DUP2 ADD DUP4 ADD MLOAD DUP5 DUP3 ADD DUP5 ADD MSTORE DUP3 ADD PUSH3 0x7D2 JUMP INVALID PUSH1 0x80 PUSH1 0x40 DUP2 DUP2 MSTORE PUSH1 0x4 SWAP2 DUP3 CALLDATASIZE LT ISZERO PUSH2 0x16 JUMPI PUSH1 0x0 DUP1 REVERT JUMPDEST PUSH1 0x0 SWAP3 DUP4 CALLDATALOAD PUSH1 0xE0 SHR SWAP2 DUP3 PUSH4 0x10055C1D EQ PUSH2 0xABB JUMPI POP DUP2 PUSH4 0x13720FEF EQ PUSH2 0xA9D JUMPI DUP2 PUSH4 0x19E0755C EQ PUSH2 0xA31 JUMPI DUP2 PUSH4 0x1B0E1FFA EQ PUSH2 0x983 JUMPI DUP2 PUSH4 0x1EAC204B EQ PUSH2 0x965 JUMPI DUP2 PUSH4 0x22F3E2D4 EQ PUSH2 0x941 JUMPI DUP2 PUSH4 0x516F279E EQ PUSH2 0x923 JUMPI DUP2 PUSH4 0x51B42B00 EQ PUSH2 0x8B5 JUMPI DUP2 PUSH4 0x55627B1D EQ PUSH2 0x88F JUMPI DUP2 PUSH4 0x5951A7F6 EQ PUSH2 0x871 JUMPI DUP2 PUSH4 0x5FD51B37 EQ PUSH2 0x852 JUMPI DUP2 PUSH4 0x6A85B4FF EQ PUSH2 0x833 JUMPI DUP2 PUSH4 0x7F6D2E02 EQ PUSH2 0x7FE JUMPI DUP2 PUSH4 0xA1A9A8CC EQ PUSH2 0x7C8 JUMPI DUP2 PUSH4 0xA4995E5F EQ PUSH2 0x700 JUMPI DUP2 PUSH4 0xA4A21C3C EQ PUSH2 0x1CC JUMPI DUP2 PUSH4 0xD18611D6 EQ PUSH2 0x115 JUMPI POP PUSH4 0xF851A440 EQ PUSH2 0xEB JUMPI PUSH1 0x0 DUP1 REVERT JUMPDEST CALLVALUE PUSH2 0x111 JUMPI DUP2 PUSH1 0x3 NOT CALLDATASIZE ADD SLT PUSH2 0x111 JUMPI PUSH1 0x20 SWAP1 PUSH1 0x1 PUSH1 0x1 PUSH1 0xA0 SHL SUB PUSH1 0x8 SLOAD AND SWAP1 MLOAD SWAP1 DUP2 MSTORE RETURN JUMPDEST POP DUP1 REVERT JUMPDEST SWAP1 POP CALLVALUE PUSH2 0x1C8 JUMPI DUP3 PUSH1 0x3 NOT CALLDATASIZE ADD SLT PUSH2 0x1C8 JUMPI PUSH2 0x13D PUSH1 0x1 PUSH1 0x1 PUSH1 0xA0 SHL SUB PUSH1 0x8 SLOAD AND CALLER EQ PUSH2 0xEB5 JUMP JUMPDEST PUSH1 0x5 SLOAD SWAP1 PUSH1 0xFF DUP3 AND PUSH2 0x185 JUMPI POP PUSH32 0x3399BD980AFB25557D79AB8CDFA7A7F80CBD9BC2DE05AA412C59C742ECC66815 SWAP2 PUSH1 0x1 PUSH1 0x20 SWAP3 PUSH1 0xFF NOT AND OR PUSH1 0x5 SSTORE TIMESTAMP PUSH1 0x7 SSTORE MLOAD TIMESTAMP DUP2 MSTORE LOG1 DUP1 RETURN JUMPDEST PUSH1 0x64 SWAP1 PUSH1 0x20 DUP5 MLOAD SWAP2 PUSH3 0x461BCD PUSH1 0xE5 SHL DUP4 MSTORE DUP3 ADD MSTORE PUSH1 0x1D PUSH1 0x24 DUP3 ADD MSTORE PUSH32 0x5374616B65686F6C64657220697320616C726561647920616374697665000000 PUSH1 0x44 DUP3 ADD MSTORE REVERT JUMPDEST DUP3 DUP1 REVERT JUMPDEST SWAP2 SWAP1 POP CALLVALUE PUSH2 0x1C8 JUMPI PUSH1 0x60 CALLDATASIZE PUSH1 0x3 NOT ADD SLT PUSH2 0x1C8 JUMPI PUSH8 0xFFFFFFFFFFFFFFFF DUP3 CALLDATALOAD DUP2 DUP2 GT PUSH2 0x6FC JUMPI PUSH2 0x1FF SWAP1 CALLDATASIZE SWAP1 DUP6 ADD PUSH2 0xE59 JUMP JUMPDEST SWAP3 PUSH1 0x24 CALLDATALOAD DUP3 DUP2 GT PUSH2 0x6F8 JUMPI PUSH2 0x217 SWAP1 CALLDATASIZE SWAP1 DUP4 ADD PUSH2 0xE59 JUMP JUMPDEST SWAP1 PUSH1 0x44 CALLDATALOAD DUP4 DUP2 GT PUSH2 0x6F4 JUMPI PUSH2 0x22F SWAP1 CALLDATASIZE SWAP1 DUP4 ADD PUSH2 0xE59 JUMP JUMPDEST SWAP3 PUSH2 0x246 PUSH1 0x1 PUSH1 0x1 PUSH1 0xA0 SHL SUB PUSH1 0x8 SLOAD AND CALLER EQ PUSH2 0xEB5 JUMP JUMPDEST PUSH1 0x5 PUSH2 0x255 PUSH1 0xFF DUP3 SLOAD AND PUSH2 0xF26 JUMP JUMPDEST DUP7 MLOAD ISZERO PUSH2 0x6B1 JUMPI DUP7 MLOAD DUP3 DUP2 GT PUSH2 0x69E JUMPI PUSH1 0x1 SWAP1 PUSH2 0x272 DUP3 SLOAD PUSH2 0xB45 JUMP JUMPDEST SWAP1 PUSH1 0x1F SWAP2 DUP3 DUP2 GT PUSH2 0x63E JUMPI JUMPDEST POP DUP1 PUSH1 0x20 DUP4 DUP3 GT PUSH1 0x1 EQ PUSH2 0x5C1 JUMPI DUP13 SWAP2 PUSH2 0x5B6 JUMPI JUMPDEST POP PUSH1 0x0 NOT PUSH1 0x3 DUP4 SWAP1 SHL SHR NOT AND SWAP1 DUP4 SHL OR DUP3 SSTORE JUMPDEST DUP6 MLOAD SWAP3 DUP5 DUP5 GT PUSH2 0x4BB JUMPI PUSH1 0x3 SWAP4 PUSH2 0x2BD DUP6 SLOAD PUSH2 0xB45 JUMP JUMPDEST DUP4 DUP2 GT PUSH2 0x554 JUMPI JUMPDEST POP DUP1 PUSH1 0x20 DUP14 DUP6 DUP4 GT PUSH1 0x1 EQ PUSH2 0x4D9 JUMPI SWAP2 PUSH2 0x4CE JUMPI JUMPDEST POP PUSH1 0x0 NOT DUP3 DUP8 SHL SHR NOT AND SWAP1 DUP5 SHL OR DUP5 SSTORE JUMPDEST DUP8 MLOAD SWAP5 DUP6 GT PUSH2 0x4BB JUMPI PUSH2 0x2FE DUP7 SLOAD PUSH2 0xB45 JUMP JUMPDEST SWAP1 DUP3 DUP3 GT PUSH2 0x45B JUMPI JUMPDEST POP POP DUP10 PUSH1 0x20 SWAP2 DUP6 GT PUSH1 0x1 EQ PUSH2 0x3AA JUMPI SWAP4 DUP1 PUSH2 0x386 SWAP5 DUP2 PUSH2 0x393 SWAP10 SWAP6 PUSH2 0x378 SWAP13 SWAP10 SWAP6 PUSH32 0x39775E654DDEC5D7E78EAA9DCF21248DCDF62E39B6C58D81F3F0A23793B503FC SWAP15 SWAP13 SWAP10 SWAP5 PUSH2 0x39F JUMPI JUMPDEST POP SHL SWAP3 PUSH1 0x0 NOT SWAP2 SHL SHR NOT AND OR SWAP1 SSTORE JUMPDEST TIMESTAMP PUSH1 0x7 SSTORE DUP4 MLOAD SWAP7 DUP8 SWAP7 PUSH1 0x80 DUP9 MSTORE PUSH1 0x80 DUP9 ADD SWAP1 PUSH2 0xB05 JUMP JUMPDEST SWAP1 DUP7 DUP3 SUB PUSH1 0x20 DUP9 ADD MSTORE PUSH2 0xB05 JUMP JUMPDEST SWAP2 DUP5 DUP4 SUB SWAP1 DUP6 ADD MSTORE PUSH2 0xB05 JUMP JUMPDEST TIMESTAMP PUSH1 0x60 DUP4 ADD MSTORE SUB SWAP1 LOG1 DUP1 RETURN JUMPDEST DUP10 ADD MLOAD SWAP4 POP CODESIZE PUSH2 0x352 JUMP JUMPDEST POP DUP5 DUP11 MSTORE SWAP1 SWAP3 SWAP2 PUSH32 0x8A35ACFBC15FF81A39AE7D344FD709F28E8600B4AA8C65C6B64BFE7FE36BD19B SWAP2 PUSH1 0x1F NOT DUP5 AND DUP12 JUMPDEST DUP2 DUP2 LT PUSH2 0x445 JUMPI POP SWAP4 PUSH2 0x393 SWAP8 SWAP4 PUSH2 0x378 SWAP11 SWAP8 SWAP4 PUSH32 0x39775E654DDEC5D7E78EAA9DCF21248DCDF62E39B6C58D81F3F0A23793B503FC SWAP13 SWAP11 SWAP8 SWAP4 DUP4 PUSH2 0x386 SWAP9 LT PUSH2 0x42B JUMPI JUMPDEST POP POP POP DUP2 SHL ADD SWAP1 SSTORE PUSH2 0x361 JUMP JUMPDEST DUP9 ADD MLOAD SWAP1 PUSH1 0xF8 DUP5 PUSH1 0x0 NOT SWAP3 SHL AND SHR NOT AND SWAP1 SSTORE CODESIZE DUP1 DUP1 PUSH2 0x41E JUMP JUMPDEST DUP10 DUP4 ADD MLOAD DUP6 SSTORE SWAP4 DUP7 ADD SWAP4 PUSH1 0x20 SWAP3 DUP4 ADD SWAP3 ADD PUSH2 0x3DA JUMP JUMPDEST DUP7 DUP13 MSTORE PUSH32 0x8A35ACFBC15FF81A39AE7D344FD709F28E8600B4AA8C65C6B64BFE7FE36BD19B SWAP1 DUP4 DUP1 DUP9 ADD DUP3 SHR DUP4 ADD SWAP4 PUSH1 0x20 DUP10 LT PUSH2 0x4B2 JUMPI JUMPDEST ADD SWAP1 SHR ADD SWAP1 DUP4 SWAP1 JUMPDEST DUP3 DUP2 LT PUSH2 0x4A7 JUMPI POP PUSH2 0x307 JUMP JUMPDEST DUP13 DUP2 SSTORE ADD DUP4 SWAP1 PUSH2 0x49A JUMP JUMPDEST SWAP4 POP DUP3 SWAP4 PUSH2 0x492 JUMP JUMPDEST PUSH1 0x24 DUP12 PUSH1 0x41 DUP9 PUSH4 0x4E487B71 PUSH1 0xE0 SHL DUP4 MSTORE MSTORE REVERT JUMPDEST SWAP1 POP DUP9 ADD MLOAD CODESIZE PUSH2 0x2DA JUMP JUMPDEST SWAP1 DUP7 SWAP4 POP PUSH1 0x1F NOT DUP4 AND DUP9 DUP4 MSTORE PUSH32 0xC2575A0E9E593C00F959F8C92F12DB2869C3395A3B0502D05E2516446F71F85B SWAP3 JUMPDEST DUP13 DUP3 DUP3 LT PUSH2 0x53D JUMPI POP POP DUP4 GT PUSH2 0x525 JUMPI JUMPDEST POP POP DUP2 SHL ADD DUP5 SSTORE PUSH2 0x2EB JUMP JUMPDEST DUP11 ADD MLOAD PUSH1 0x0 NOT DUP4 DUP10 SHL PUSH1 0xF8 AND SHR NOT AND SWAP1 SSTORE CODESIZE DUP1 PUSH2 0x519 JUMP JUMPDEST DUP4 ADD MLOAD DUP5 SSTORE DUP9 SWAP6 SWAP1 SWAP4 ADD SWAP3 PUSH1 0x20 SWAP3 DUP4 ADD SWAP3 ADD PUSH2 0x508 JUMP JUMPDEST DUP6 DUP14 MSTORE PUSH32 0xC2575A0E9E593C00F959F8C92F12DB2869C3395A3B0502D05E2516446F71F85B DUP5 DUP1 DUP5 ADD DUP6 SHR DUP3 ADD SWAP3 PUSH1 0x20 DUP6 LT PUSH2 0x5AD JUMPI JUMPDEST ADD DUP5 SHR ADD SWAP1 DUP6 SWAP1 DUP15 JUMPDEST DUP4 DUP3 LT PUSH2 0x5A2 JUMPI POP POP POP PUSH2 0x2C5 JUMP JUMPDEST DUP2 SSTORE ADD DUP6 SWAP1 DUP15 PUSH2 0x593 JUMP JUMPDEST SWAP3 POP DUP2 SWAP3 PUSH2 0x58A JUMP JUMPDEST SWAP1 POP DUP11 ADD MLOAD CODESIZE PUSH2 0x293 JUMP JUMPDEST DUP5 DUP14 MSTORE DUP5 SWAP3 POP PUSH32 0xB10E2D527612073B26EECDFD717E6A320CF44B4AFAC2B0732D9FCBE2B7FA0CF6 SWAP1 PUSH1 0x1F NOT DUP4 AND DUP15 DUP15 JUMPDEST DUP3 DUP3 LT PUSH2 0x626 JUMPI POP POP DUP4 GT PUSH2 0x60D JUMPI JUMPDEST POP POP DUP2 SHL ADD DUP3 SSTORE PUSH2 0x2A6 JUMP JUMPDEST DUP13 ADD MLOAD PUSH1 0x0 NOT PUSH1 0xF8 DUP5 PUSH1 0x3 SHL AND SHR NOT AND SWAP1 SSTORE CODESIZE DUP1 PUSH2 0x601 JUMP JUMPDEST DUP4 ADD MLOAD DUP5 SSTORE DUP8 SWAP6 SWAP1 SWAP4 ADD SWAP3 PUSH1 0x20 SWAP3 DUP4 ADD SWAP3 ADD DUP15 PUSH2 0x5F1 JUMP JUMPDEST DUP4 DUP13 MSTORE PUSH32 0xB10E2D527612073B26EECDFD717E6A320CF44B4AFAC2B0732D9FCBE2B7FA0CF6 DUP4 DUP1 DUP5 ADD DUP8 SHR DUP3 ADD SWAP3 PUSH1 0x20 DUP6 LT PUSH2 0x695 JUMPI JUMPDEST ADD DUP7 SHR ADD SWAP1 DUP5 SWAP1 JUMPDEST DUP3 DUP2 LT PUSH2 0x68A JUMPI POP POP PUSH2 0x27E JUMP JUMPDEST DUP14 DUP2 SSTORE ADD DUP5 SWAP1 PUSH2 0x67C JUMP JUMPDEST SWAP3 POP DUP2 SWAP3 PUSH2 0x674 JUMP JUMPDEST PUSH1 0x24 DUP10 PUSH1 0x41 DUP7 PUSH4 0x4E487B71 PUSH1 0xE0 SHL DUP4 MSTORE MSTORE REVERT JUMPDEST PUSH1 0x64 DUP4 PUSH1 0x20 DUP9 MLOAD SWAP2 PUSH3 0x461BCD PUSH1 0xE5 SHL DUP4 MSTORE DUP3 ADD MSTORE PUSH1 0x1D PUSH1 0x24 DUP3 ADD MSTORE PUSH32 0x427573696E657373206E616D652063616E6E6F7420626520656D707479000000 PUSH1 0x44 DUP3 ADD MSTORE REVERT JUMPDEST DUP7 DUP1 REVERT JUMPDEST DUP6 DUP1 REVERT JUMPDEST DUP5 DUP1 REVERT JUMPDEST DUP3 DUP5 CALLVALUE PUSH2 0x7C5 JUMPI DUP1 PUSH1 0x3 NOT CALLDATASIZE ADD SLT PUSH2 0x7C5 JUMPI SLOAD PUSH1 0x5 SLOAD PUSH1 0xFF AND PUSH1 0x6 SLOAD PUSH1 0x7 SLOAD SWAP1 PUSH2 0x728 PUSH2 0xD2A JUMP JUMPDEST PUSH2 0x730 PUSH2 0xDC0 JUMP JUMPDEST PUSH2 0x738 PUSH2 0xC91 JUMP JUMPDEST SWAP1 PUSH2 0x741 PUSH2 0xBD3 JUMP JUMPDEST SWAP3 DUP9 MLOAD SWAP9 DUP9 PUSH1 0x1 PUSH1 0x1 PUSH1 0xA0 SHL SUB DUP12 SWAP11 AND DUP11 MSTORE PUSH1 0x20 DUP11 ADD SWAP1 PUSH1 0xA0 SHR PUSH1 0xFF AND SWAP1 PUSH2 0x768 SWAP2 PUSH2 0xAE2 JUMP JUMPDEST PUSH2 0x120 DUP1 SWAP2 DUP11 ADD MSTORE DUP9 ADD PUSH2 0x77B SWAP2 PUSH2 0xB05 JUMP JUMPDEST DUP8 DUP2 SUB PUSH1 0x60 DUP10 ADD MSTORE PUSH2 0x78C SWAP2 PUSH2 0xB05 JUMP JUMPDEST DUP7 DUP2 SUB PUSH1 0x80 DUP9 ADD MSTORE PUSH2 0x79D SWAP2 PUSH2 0xB05 JUMP JUMPDEST DUP6 DUP2 SUB PUSH1 0xA0 DUP8 ADD MSTORE PUSH2 0x7AE SWAP2 PUSH2 0xB05 JUMP JUMPDEST SWAP3 ISZERO ISZERO PUSH1 0xC0 DUP6 ADD MSTORE PUSH1 0xE0 DUP5 ADD MSTORE PUSH2 0x100 DUP4 ADD MSTORE SUB SWAP1 RETURN JUMPDEST DUP1 REVERT JUMPDEST POP POP CALLVALUE PUSH2 0x111 JUMPI DUP2 PUSH1 0x3 NOT CALLDATASIZE ADD SLT PUSH2 0x111 JUMPI PUSH1 0x20 SWAP1 PUSH1 0xFF PUSH1 0x5 SLOAD AND SWAP1 DUP2 PUSH2 0x7F2 JUMPI JUMPDEST MLOAD SWAP1 ISZERO ISZERO DUP2 MSTORE RETURN JUMPDEST PUSH1 0x6 SLOAD TIMESTAMP GT SWAP2 POP PUSH2 0x7EA JUMP JUMPDEST POP POP CALLVALUE PUSH2 0x111 JUMPI DUP2 PUSH1 0x3 NOT CALLDATASIZE ADD SLT PUSH2 0x111 JUMPI PUSH2 0x82F SWAP1 PUSH2 0x81C PUSH2 0xDC0 JUMP JUMPDEST SWAP1 MLOAD SWAP2 DUP3 SWAP2 PUSH1 0x20 DUP4 MSTORE PUSH1 0x20 DUP4 ADD SWAP1 PUSH2 0xB05 JUMP JUMPDEST SUB SWAP1 RETURN JUMPDEST POP POP CALLVALUE PUSH2 0x111 JUMPI DUP2 PUSH1 0x3 NOT CALLDATASIZE ADD SLT PUSH2 0x111 JUMPI PUSH1 0x20 SWAP1 PUSH1 0x6 SLOAD SWAP1 MLOAD SWAP1 DUP2 MSTORE RETURN JUMPDEST POP POP CALLVALUE PUSH2 0x111 JUMPI DUP2 PUSH1 0x3 NOT CALLDATASIZE ADD SLT PUSH2 0x111 JUMPI PUSH1 0x20 SWAP1 PUSH1 0x7 SLOAD SWAP1 MLOAD SWAP1 DUP2 MSTORE RETURN JUMPDEST POP POP CALLVALUE PUSH2 0x111 JUMPI DUP2 PUSH1 0x3 NOT CALLDATASIZE ADD SLT PUSH2 0x111 JUMPI PUSH2 0x82F SWAP1 PUSH2 0x81C PUSH2 0xD2A JUMP JUMPDEST POP POP CALLVALUE PUSH2 0x111 JUMPI DUP2 PUSH1 0x3 NOT CALLDATASIZE ADD SLT PUSH2 0x111 JUMPI PUSH1 0x1 PUSH1 0x1 PUSH1 0xA0 SHL SUB PUSH1 0x20 SWAP3 SLOAD AND SWAP1 MLOAD SWAP1 DUP2 MSTORE RETURN JUMPDEST POP POP CALLVALUE PUSH2 0x111 JUMPI DUP2 PUSH1 0x3 NOT CALLDATASIZE ADD SLT PUSH2 0x111 JUMPI PUSH1 0x20 PUSH32 0xED9CE302BC123FB971DF5FD828D331AF63B3BBE6A60D7144DDEDBFF7E033D7A0 SWAP2 PUSH2 0x901 PUSH1 0x1 PUSH1 0x1 PUSH1 0xA0 SHL SUB PUSH1 0x8 SLOAD AND CALLER EQ PUSH2 0xEB5 JUMP JUMPDEST PUSH1 0x5 SLOAD PUSH2 0x910 PUSH1 0xFF DUP3 AND PUSH2 0xF26 JUMP JUMPDEST PUSH1 0xFF NOT AND PUSH1 0x5 SSTORE TIMESTAMP PUSH1 0x7 SSTORE MLOAD TIMESTAMP DUP2 MSTORE LOG1 DUP1 RETURN JUMPDEST POP POP CALLVALUE PUSH2 0x111 JUMPI DUP2 PUSH1 0x3 NOT CALLDATASIZE ADD SLT PUSH2 0x111 JUMPI PUSH2 0x82F SWAP1 PUSH2 0x81C PUSH2 0xC91 JUMP JUMPDEST POP POP CALLVALUE PUSH2 0x111 JUMPI DUP2 PUSH1 0x3 NOT CALLDATASIZE ADD SLT PUSH2 0x111 JUMPI PUSH1 0x20 SWAP1 PUSH1 0xFF PUSH1 0x5 SLOAD AND SWAP1 MLOAD SWAP1 ISZERO ISZERO DUP2 MSTORE RETURN JUMPDEST POP POP CALLVALUE PUSH2 0x111 JUMPI DUP2 PUSH1 0x3 NOT CALLDATASIZE ADD SLT PUSH2 0x111 JUMPI PUSH2 0x82F SWAP1 PUSH2 0x81C PUSH2 0xBD3 JUMP JUMPDEST SWAP2 SWAP1 POP CALLVALUE PUSH2 0x1C8 JUMPI DUP3 PUSH1 0x3 NOT CALLDATASIZE ADD SLT PUSH2 0x1C8 JUMPI PUSH1 0x1 PUSH1 0x1 PUSH1 0xA0 SHL SUB DUP1 DUP5 SLOAD AND CALLER EQ SWAP1 DUP2 ISZERO PUSH2 0xA23 JUMPI JUMPDEST POP ISZERO PUSH2 0x9BA JUMPI DUP3 TIMESTAMP PUSH1 0x7 SSTORE DUP1 RETURN JUMPDEST SWAP1 PUSH1 0x20 PUSH1 0x84 SWAP3 MLOAD SWAP2 PUSH3 0x461BCD PUSH1 0xE5 SHL DUP4 MSTORE DUP3 ADD MSTORE PUSH1 0x2D PUSH1 0x24 DUP3 ADD MSTORE PUSH32 0x4F6E6C79207374616B65686F6C646572206F722061646D696E2063616E207570 PUSH1 0x44 DUP3 ADD MSTORE PUSH32 0x6461746520616374697669747900000000000000000000000000000000000000 PUSH1 0x64 DUP3 ADD MSTORE REVERT JUMPDEST SWAP1 POP PUSH1 0x8 SLOAD AND CALLER EQ CODESIZE PUSH2 0x9AC JUMP JUMPDEST DUP4 DUP4 CALLVALUE PUSH2 0x111 JUMPI PUSH1 0x20 CALLDATASIZE PUSH1 0x3 NOT ADD SLT PUSH2 0x111 JUMPI DUP3 CALLDATALOAD DUP4 DUP2 LT ISZERO PUSH2 0x1C8 JUMPI PUSH1 0xFF PUSH1 0x5 SLOAD AND SWAP3 DUP4 PUSH2 0xA67 JUMPI JUMPDEST PUSH1 0x20 DUP5 DUP5 MLOAD SWAP1 ISZERO ISZERO DUP2 MSTORE RETURN JUMPDEST SWAP1 SWAP2 SWAP3 POP PUSH1 0xFF DUP2 SLOAD PUSH1 0xA0 SHR AND SWAP1 DUP5 DUP3 LT ISZERO PUSH2 0xA8A JUMPI POP PUSH1 0x20 SWAP4 POP EQ SWAP1 DUP4 DUP1 PUSH2 0xA5B JUMP JUMPDEST DUP1 PUSH1 0x21 DUP7 PUSH4 0x4E487B71 PUSH1 0xE0 SHL PUSH1 0x24 SWAP5 MSTORE MSTORE REVERT JUMPDEST POP POP CALLVALUE PUSH2 0x111 JUMPI DUP2 PUSH1 0x3 NOT CALLDATASIZE ADD SLT PUSH2 0x111 JUMPI PUSH2 0x82F SWAP1 PUSH2 0x81C PUSH2 0xF71 JUMP JUMPDEST DUP5 SWAP1 CALLVALUE PUSH2 0x111 JUMPI DUP2 PUSH1 0x3 NOT CALLDATASIZE ADD SLT PUSH2 0x111 JUMPI PUSH2 0xAE0 DUP2 PUSH1 0xFF PUSH1 0x20 SWAP5 SLOAD PUSH1 0xA0 SHR AND PUSH2 0xAE2 JUMP JUMPDEST RETURN JUMPDEST SWAP1 PUSH1 0x4 DUP3 LT ISZERO PUSH2 0xAEF JUMPI MSTORE JUMP JUMPDEST PUSH4 0x4E487B71 PUSH1 0xE0 SHL PUSH1 0x0 MSTORE PUSH1 0x21 PUSH1 0x4 MSTORE PUSH1 0x24 PUSH1 0x0 REVERT JUMPDEST SWAP2 SWAP1 DUP3 MLOAD SWAP3 DUP4 DUP3 MSTORE PUSH1 0x0 JUMPDEST DUP5 DUP2 LT PUSH2 0xB31 JUMPI POP POP DUP3 PUSH1 0x0 PUSH1 0x20 DUP1 SWAP5 SWAP6 DUP5 ADD ADD MSTORE PUSH1 0x1F DUP1 NOT SWAP2 ADD AND ADD ADD SWAP1 JUMP JUMPDEST PUSH1 0x20 DUP2 DUP4 ADD DUP2 ADD MLOAD DUP5 DUP4 ADD DUP3 ADD MSTORE ADD PUSH2 0xB10 JUMP JUMPDEST SWAP1 PUSH1 0x1 DUP3 DUP2 SHR SWAP3 AND DUP1 ISZERO PUSH2 0xB75 JUMPI JUMPDEST PUSH1 0x20 DUP4 LT EQ PUSH2 0xB5F JUMPI JUMP JUMPDEST PUSH4 0x4E487B71 PUSH1 0xE0 SHL PUSH1 0x0 MSTORE PUSH1 0x22 PUSH1 0x4 MSTORE PUSH1 0x24 PUSH1 0x0 REVERT JUMPDEST SWAP2 PUSH1 0x7F AND SWAP2 PUSH2 0xB54 JUMP JUMPDEST PUSH1 0x40 DUP2 ADD SWAP1 DUP2 LT PUSH8 0xFFFFFFFFFFFFFFFF DUP3 GT OR PUSH2 0xB9B JUMPI PUSH1 0x40 MSTORE JUMP JUMPDEST PUSH4 0x4E487B71 PUSH1 0xE0 SHL PUSH1 0x0 MSTORE PUSH1 0x41 PUSH1 0x4 MSTORE PUSH1 0x24 PUSH1 0x0 REVERT JUMPDEST SWAP1 PUSH1 0x1F DUP1 NOT SWAP2 ADD AND DUP2 ADD SWAP1 DUP2 LT PUSH8 0xFFFFFFFFFFFFFFFF DUP3 GT OR PUSH2 0xB9B JUMPI PUSH1 0x40 MSTORE JUMP JUMPDEST PUSH1 0x40 MLOAD SWAP1 PUSH1 0x0 DUP3 PUSH1 0x4 SLOAD SWAP2 PUSH2 0xBE7 DUP4 PUSH2 0xB45 JUMP JUMPDEST DUP1 DUP4 MSTORE SWAP3 PUSH1 0x1 SWAP1 DUP2 DUP2 AND SWAP1 DUP2 ISZERO PUSH2 0xC6F JUMPI POP PUSH1 0x1 EQ PUSH2 0xC10 JUMPI JUMPDEST POP PUSH2 0xC0E SWAP3 POP SUB DUP4 PUSH2 0xBB1 JUMP JUMPDEST JUMP JUMPDEST PUSH1 0x4 PUSH1 0x0 SWAP1 DUP2 MSTORE SWAP2 POP PUSH32 0x8A35ACFBC15FF81A39AE7D344FD709F28E8600B4AA8C65C6B64BFE7FE36BD19B JUMPDEST DUP5 DUP4 LT PUSH2 0xC54 JUMPI POP PUSH2 0xC0E SWAP4 POP POP DUP2 ADD PUSH1 0x20 ADD CODESIZE PUSH2 0xC01 JUMP JUMPDEST DUP2 SWAP4 POP SWAP1 DUP2 PUSH1 0x20 SWAP3 SLOAD DUP4 DUP6 DUP11 ADD ADD MSTORE ADD SWAP2 ADD SWAP1 SWAP2 DUP6 SWAP3 PUSH2 0xC3B JUMP JUMPDEST SWAP1 POP PUSH1 0x20 SWAP3 POP PUSH2 0xC0E SWAP5 SWAP2 POP PUSH1 0xFF NOT AND DUP3 DUP5 ADD MSTORE ISZERO ISZERO PUSH1 0x5 SHL DUP3 ADD ADD CODESIZE PUSH2 0xC01 JUMP JUMPDEST PUSH1 0x40 MLOAD SWAP1 PUSH1 0x0 DUP3 PUSH1 0x3 SLOAD SWAP2 PUSH2 0xCA5 DUP4 PUSH2 0xB45 JUMP JUMPDEST DUP1 DUP4 MSTORE SWAP3 PUSH1 0x1 SWAP1 DUP2 DUP2 AND SWAP1 DUP2 ISZERO PUSH2 0xC6F JUMPI POP PUSH1 0x1 EQ PUSH2 0xCCB JUMPI POP PUSH2 0xC0E SWAP3 POP SUB DUP4 PUSH2 0xBB1 JUMP JUMPDEST PUSH1 0x3 PUSH1 0x0 SWAP1 DUP2 MSTORE SWAP2 POP PUSH32 0xC2575A0E9E593C00F959F8C92F12DB2869C3395A3B0502D05E2516446F71F85B JUMPDEST DUP5 DUP4 LT PUSH2 0xD0F JUMPI POP PUSH2 0xC0E SWAP4 POP POP DUP2 ADD PUSH1 0x20 ADD CODESIZE PUSH2 0xC01 JUMP JUMPDEST DUP2 SWAP4 POP SWAP1 DUP2 PUSH1 0x20 SWAP3 SLOAD DUP4 DUP6 DUP11 ADD ADD MSTORE ADD SWAP2 ADD SWAP1 SWAP2 DUP6 SWAP3 PUSH2 0xCF6 JUMP JUMPDEST PUSH1 0x40 MLOAD SWAP1 PUSH1 0x0 DUP3 PUSH1 0x1 SWAP2 DUP3 SLOAD SWAP3 PUSH2 0xD40 DUP5 PUSH2 0xB45 JUMP JUMPDEST DUP1 DUP5 MSTORE SWAP4 DUP2 DUP2 AND SWAP1 DUP2 ISZERO PUSH2 0xC6F JUMPI POP PUSH1 0x1 EQ PUSH2 0xD63 JUMPI POP PUSH2 0xC0E SWAP3 POP SUB DUP4 PUSH2 0xBB1 JUMP JUMPDEST PUSH1 0x0 DUP2 DUP2 MSTORE SWAP2 POP PUSH32 0xB10E2D527612073B26EECDFD717E6A320CF44B4AFAC2B0732D9FCBE2B7FA0CF6 JUMPDEST DUP5 DUP4 LT PUSH2 0xDA5 JUMPI POP PUSH2 0xC0E SWAP4 POP POP DUP2 ADD PUSH1 0x20 ADD CODESIZE PUSH2 0xC01 JUMP JUMPDEST DUP2 SWAP4 POP SWAP1 DUP2 PUSH1 0x20 SWAP3 SLOAD DUP4 DUP6 DUP11 ADD ADD MSTORE ADD SWAP2 ADD SWAP1 SWAP2 DUP6 SWAP3 PUSH2 0xD8C JUMP JUMPDEST PUSH1 0x40 MLOAD SWAP1 PUSH1 0x0 DUP3 PUSH1 0x2 SLOAD SWAP2 PUSH2 0xDD4 DUP4 PUSH2 0xB45 JUMP JUMPDEST DUP1 DUP4 MSTORE SWAP3 PUSH1 0x1 SWAP1 DUP2 DUP2 AND SWAP1 DUP2 ISZERO PUSH2 0xC6F JUMPI POP PUSH1 0x1 EQ PUSH2 0xDFA JUMPI POP PUSH2 0xC0E SWAP3 POP SUB DUP4 PUSH2 0xBB1 JUMP JUMPDEST PUSH1 0x2 PUSH1 0x0 SWAP1 DUP2 MSTORE SWAP2 POP PUSH32 0x405787FA12A823E0F2B7631CC41B3BA8828B3321CA811111FA75CD3AA3BB5ACE JUMPDEST DUP5 DUP4 LT PUSH2 0xE3E JUMPI POP PUSH2 0xC0E SWAP4 POP POP DUP2 ADD PUSH1 0x20 ADD CODESIZE PUSH2 0xC01 JUMP JUMPDEST DUP2 SWAP4 POP SWAP1 DUP2 PUSH1 0x20 SWAP3 SLOAD DUP4 DUP6 DUP11 ADD ADD MSTORE ADD SWAP2 ADD SWAP1 SWAP2 DUP6 SWAP3 PUSH2 0xE25 JUMP JUMPDEST DUP2 PUSH1 0x1F DUP3 ADD SLT ISZERO PUSH2 0xEB0 JUMPI DUP1 CALLDATALOAD SWAP1 PUSH8 0xFFFFFFFFFFFFFFFF DUP3 GT PUSH2 0xB9B JUMPI PUSH1 0x40 MLOAD SWAP3 PUSH2 0xE8E PUSH1 0x1F DUP5 ADD PUSH1 0x1F NOT AND PUSH1 0x20 ADD DUP6 PUSH2 0xBB1 JUMP JUMPDEST DUP3 DUP5 MSTORE PUSH1 0x20 DUP4 DUP4 ADD ADD GT PUSH2 0xEB0 JUMPI DUP2 PUSH1 0x0 SWAP3 PUSH1 0x20 DUP1 SWAP4 ADD DUP4 DUP7 ADD CALLDATACOPY DUP4 ADD ADD MSTORE SWAP1 JUMP JUMPDEST PUSH1 0x0 DUP1 REVERT JUMPDEST ISZERO PUSH2 0xEBC JUMPI JUMP JUMPDEST PUSH1 0x84 PUSH1 0x40 MLOAD PUSH3 0x461BCD PUSH1 0xE5 SHL DUP2 MSTORE PUSH1 0x20 PUSH1 0x4 DUP3 ADD MSTORE PUSH1 0x21 PUSH1 0x24 DUP3 ADD MSTORE PUSH32 0x4F6E6C792061646D696E2063616E2063616C6C20746869732066756E6374696F PUSH1 0x44 DUP3 ADD MSTORE PUSH32 0x6E00000000000000000000000000000000000000000000000000000000000000 PUSH1 0x64 DUP3 ADD MSTORE REVERT JUMPDEST ISZERO PUSH2 0xF2D JUMPI JUMP JUMPDEST PUSH1 0x64 PUSH1 0x40 MLOAD PUSH3 0x461BCD PUSH1 0xE5 SHL DUP2 MSTORE PUSH1 0x20 PUSH1 0x4 DUP3 ADD MSTORE PUSH1 0x19 PUSH1 0x24 DUP3 ADD MSTORE PUSH32 0x5374616B65686F6C646572206973206E6F742061637469766500000000000000 PUSH1 0x44 DUP3 ADD MSTORE REVERT JUMPDEST PUSH1 0xFF PUSH1 0x0 SLOAD PUSH1 0xA0 SHR AND PUSH1 0x4 DUP2 LT ISZERO PUSH2 0xAEF JUMPI DUP1 ISZERO PUSH2 0x1086 JUMPI PUSH1 0x1 DUP2 EQ PUSH2 0x104C JUMPI PUSH1 0x2 DUP2 EQ PUSH2 0x1012 JUMPI PUSH1 0x3 EQ PUSH2 0xFD9 JUMPI PUSH1 0x40 MLOAD PUSH2 0xFAC DUP2 PUSH2 0xB7F JUMP JUMPDEST PUSH1 0x7 DUP2 MSTORE PUSH32 0x554E4B4E4F574E00000000000000000000000000000000000000000000000000 PUSH1 0x20 DUP3 ADD MSTORE SWAP1 JUMP JUMPDEST PUSH1 0x40 MLOAD PUSH2 0xFE5 DUP2 PUSH2 0xB7F JUMP JUMPDEST PUSH1 0xB DUP2 MSTORE PUSH32 0x4449535452494255544F52000000000000000000000000000000000000000000 PUSH1 0x20 DUP3 ADD MSTORE SWAP1 JUMP JUMPDEST POP PUSH1 0x40 MLOAD PUSH2 0x101F DUP2 PUSH2 0xB7F JUMP JUMPDEST PUSH1 0x8 DUP2 MSTORE PUSH32 0x52455441494C4552000000000000000000000000000000000000000000000000 PUSH1 0x20 DUP3 ADD MSTORE SWAP1 JUMP JUMPDEST POP PUSH1 0x40 MLOAD PUSH2 0x1059 DUP2 PUSH2 0xB7F JUMP JUMPDEST PUSH1 0x9 DUP2 MSTORE PUSH32 0x50524F434553534F520000000000000000000000000000000000000000000000 PUSH1 0x20 DUP3 ADD MSTORE SWAP1 JUMP JUMPDEST POP PUSH1 0x40 MLOAD PUSH2 0x1093 DUP2 PUSH2 0xB7F JUMP JUMPDEST PUSH1 0x6 DUP2 MSTORE PUSH32 0x4641524D45520000000000000000000000000000000000000000000000000000 PUSH1 0x20 DUP3 ADD MSTORE SWAP1 JUMP INVALID LOG2 PUSH5 0x6970667358 0x22 SLT KECCAK256 CODESIZE DUP9 0xCA 0xDC PUSH6 0x4F0B333AB83A 0x5F STATICCALL RETURNDATACOPY SWAP15 SIGNEXTEND 0xC8 0xAE PUSH20 0xE3E4F861A1BC5608B42389DC964736F6C634300 ADDMOD SGT STOP CALLER "},"gasEstimates":{"creation":{"codeDepositCost":"868400","executionCost":"infinite","totalCost":"infinite"},"external":{"admin()":"2667","businessLicense()":"infinite","businessName()":"infinite","certifications()":"infinite","deactivate()":"49874","getRoleString()":"infinite","getStakeholderInfo()":"infinite","hasRole(uint8)":"4577","isActive()":"2402","isValidForOperations()":"4720","lastActivity()":"2500","location()":"infinite","reactivate()":"50060","registeredAt()":"2522","role()":"2345","stakeholderAddress()":"2471","updateActivity()":"26631","updateInfo(string,string,string)":"infinite"}},"methodIdentifiers":{"admin()":"f851a440","businessLicense()":"7f6d2e02","businessName()":"5951a7f6","certifications()":"1eac204b","deactivate()":"51b42b00","getRoleString()":"13720fef","getStakeholderInfo()":"a4995e5f","hasRole(uint8)":"19e0755c","isActive()":"22f3e2d4","isValidForOperations()":"a1a9a8cc","lastActivity()":"5fd51b37","location()":"516f279e","reactivate()":"d18611d6","registeredAt()":"6a85b4ff","role()":"10055c1d","stakeholderAddress()":"55627b1d","updateActivity()":"1b0e1ffa","updateInfo(string,string,string)":"a4a21c3c"}},"storageLayout":{"storage":[{"astId":4762,"contract":"src/SmartContracts/Stakeholder.sol:Stakeholder","label":"stakeholderAddress","offset":0,"slot":"0","type":"t_address"},{"astId":4765,"contract":"src/SmartContracts/Stakeholder.sol:Stakeholder","label":"role","offset":20,"slot":"0","type":"t_enum(StakeholderRole)4760"},{"astId":4767,"contract":"src/SmartContracts/Stakeholder.sol:Stakeholder","label":"businessName","offset":0,"slot":"1","type":"t_string_storage"},{"astId":4769,"contract":"src/SmartContracts/Stakeholder.sol:Stakeholder","label":"businessLicense","offset":0,"slot":"2","type":"t_string_storage"},{"astId":4771,"contract":"src/SmartContracts/Stakeholder.sol:Stakeholder","label":"location","offset":0,"slot":"3","type":"t_string_storage"},{"astId":4773,"contract":"src/SmartContracts/Stakeholder.sol:Stakeholder","label":"certifications","offset":0,"slot":"4","type":"t_string_storage"},{"astId":4775,"contract":"src/SmartContracts/Stakeholder.sol:Stakeholder","label":"isActive","offset":0,"slot":"5","type":"t_bool"},{"astId":4777,"contract":"src/SmartContracts/Stakeholder.sol:Stakeholder","label":"registeredAt","offset":0,"slot":"6","type":"t_uint256"},{"astId":4779,"contract":"src/SmartContracts/Stakeholder.sol:Stakeholder","label":"lastActivity","offset":0,"slot":"7","type":"t_uint256"},{"astId":4781,"contract":"src/SmartContracts/Stakeholder.sol:Stakeholder","label":"admin","offset":0,"slot":"8","type":"t_address"}],"types":{"t_address":{"encoding":"inplace","label":"address","numberOfBytes":"20"},"t_bool":{"encoding":"inplace","label":"bool","numberOfBytes":"1"},"t_enum(StakeholderRole)4760":{"encoding":"inplace","label":"enum Stakeholder.StakeholderRole","numberOfBytes":"1"},"t_string_storage":{"encoding":"bytes","label":"string","numberOfBytes":"32"},"t_uint256":{"encoding":"inplace","label":"uint256","numberOfBytes":"32"}}},"userdoc":{"kind":"user","methods":{},"version":1}}}}