{"src/SmartContracts/Registry.sol":{"Registry":{"abi":[{"anonymous":false,"inputs":[{"indexed":true,"internalType":"address","name":"_product","type":"address"}],"name":"ProductRegistered","type":"event"},{"anonymous":false,"inputs":[{"indexed":true,"internalType":"address","name":"_shipment","type":"address"},{"indexed":true,"internalType":"string","name":"trackingNumber","type":"string"},{"indexed":true,"internalType":"address","name":"productAddress","type":"address"},{"indexed":false,"internalType":"address","name":"sender","type":"address"},{"indexed":false,"internalType":"address","name":"receiver","type":"address"}],"name":"ShipmentRegistered","type":"event"},{"anonymous":false,"inputs":[{"indexed":true,"internalType":"address","name":"_stakeholderContract","type":"address"},{"indexed":true,"internalType":"string","name":"businessLicense","type":"string"},{"indexed":true,"internalType":"address","name":"stakeholderAddress","type":"address"},{"indexed":false,"internalType":"enum Stakeholder.StakeholderRole","name":"role","type":"uint8"}],"name":"StakeholderRegistered","type":"event"},{"inputs":[],"name":"getAllProducts","outputs":[{"internalType":"address[]","name":"","type":"address[]"}],"stateMutability":"view","type":"function"},{"inputs":[],"name":"getAllShipments","outputs":[{"internalType":"address[]","name":"","type":"address[]"}],"stateMutability":"view","type":"function"},{"inputs":[],"name":"getAllStakeholders","outputs":[{"internalType":"address[]","name":"","type":"address[]"}],"stateMutability":"view","type":"function"},{"inputs":[{"internalType":"string","name":"_businessLicense","type":"string"}],"name":"getStakeholderByLicense","outputs":[{"internalType":"address","name":"","type":"address"}],"stateMutability":"view","type":"function"},{"inputs":[{"internalType":"address","name":"_stakeholderAddress","type":"address"}],"name":"getStakeholderByWallet","outputs":[{"internalType":"address","name":"","type":"address"}],"stateMutability":"view","type":"function"},{"inputs":[{"internalType":"enum Stakeholder.StakeholderRole","name":"_role","type":"uint8"}],"name":"getStakeholdersByRole","outputs":[{"internalType":"address[]","name":"","type":"address[]"}],"stateMutability":"view","type":"function"},{"inputs":[],"name":"getTotalProducts","outputs":[{"internalType":"uint256","name":"","type":"uint256"}],"stateMutability":"view","type":"function"},{"inputs":[],"name":"getTotalShipments","outputs":[{"internalType":"uint256","name":"","type":"uint256"}],"stateMutability":"view","type":"function"},{"inputs":[{"internalType":"address","name":"_entity","type":"address"}],"name":"isEntityRegistered","outputs":[{"internalType":"bool","name":"","type":"bool"}],"stateMutability":"view","type":"function"},{"inputs":[{"internalType":"address","name":"","type":"address"}],"name":"isRegistered","outputs":[{"internalType":"bool","name":"","type":"bool"}],"stateMutability":"view","type":"function"},{"inputs":[{"internalType":"string","name":"","type":"string"}],"name":"licenseToStakeholder","outputs":[{"internalType":"address","name":"","type":"address"}],"stateMutability":"view","type":"function"},{"inputs":[{"internalType":"uint256","name":"","type":"uint256"}],"name":"products","outputs":[{"internalType":"address","name":"","type":"address"}],"stateMutability":"view","type":"function"},{"inputs":[{"internalType":"address","name":"_product","type":"address"}],"name":"registerProduct","outputs":[],"stateMutability":"nonpayable","type":"function"},{"inputs":[{"internalType":"address","name":"_shipment","type":"address"},{"internalType":"string","name":"_trackingNumber","type":"string"},{"internalType":"address","name":"_productAddress","type":"address"},{"internalType":"address","name":"_sender","type":"address"},{"internalType":"address","name":"_receiver","type":"address"}],"name":"registerShipment","outputs":[],"stateMutability":"nonpayable","type":"function"},{"inputs":[{"internalType":"address","name":"_stakeholderContract","type":"address"},{"internalType":"string","name":"_businessLicense","type":"string"},{"internalType":"address","name":"_stakeholderAddress","type":"address"},{"internalType":"enum Stakeholder.StakeholderRole","name":"_role","type":"uint8"}],"name":"registerStakeholder","outputs":[],"stateMutability":"nonpayable","type":"function"},{"inputs":[{"internalType":"uint256","name":"","type":"uint256"}],"name":"shipments","outputs":[{"internalType":"address","name":"","type":"address"}],"stateMutability":"view","type":"function"},{"inputs":[{"internalType":"uint256","name":"","type":"uint256"}],"name":"stakeholders","outputs":[{"internalType":"address","name":"","type":"address"}],"stateMutability":"view","type":"function"},{"inputs":[{"internalType":"enum Stakeholder.StakeholderRole","name":"","type":"uint8"},{"internalType":"uint256","name":"","type":"uint256"}],"name":"stakeholdersByRole","outputs":[{"internalType":"address","name":"","type":"address"}],"stateMutability":"view","type":"function"},{"inputs":[{"internalType":"address","name":"","type":"address"}],"name":"walletToStakeholderContract","outputs":[{"internalType":"address","name":"","type":"address"}],"stateMutability":"view","type":"function"}],"devdoc":{"kind":"dev","methods":{},"version":1},"evm":{"bytecode":{"linkReferences":{},"object":"6080806040523461001657610d64908161001c8239f35b600080fdfe608060408181526004918236101561001657600080fd5b600092833560e01c91826302ee3a5214610b25575081631d6b8b7214610acd5781632ac08a9314610a755781632d46f5df146109365781632f920d60146108b357816331a1fad8146105a1578163469e95a914610134578163494dad6c1461052057816353d4714e1461049b578163570aea8a1461047e5781635a022e30146102c75781637acc0b201461026d578163885301b21461024e578163bed652ac146101f8578163c3c5a547146101cf578163c6af209b14610195578163d27b59ff14610195578163f56196e214610134575063f7bde1da146100f657600080fd5b346101305760203660031901126101305760ff816020936001600160a01b0361011d610c14565b1681526003855220541690519015158152f35b5080fd5b8284346101925760203660031901126101925782359067ffffffffffffffff82116101925750610182602080946101766001600160a01b039436908301610c7d565b90855193848093610cd4565b9081520301902054169051908152f35b80fd5b50503461013057602036600319011261013057602091816001600160a01b0391826101be610c14565b168152600585522054169051908152f35b5050346101305760203660031901126101305760ff816020936001600160a01b0361011d610c14565b8284346101925781600319360112610192578235928310156101925761022060243593610cff565b908154841015610192575061023f6020936001600160a01b0392610be6565b92905490519260031b1c168152f35b5050346101305781600319360112610130576020906001549051908152f35b9050346102c35760203660031901126102c3573582548110156102c3576001600160a01b039083602094527f290decd9548b62a8d60345a988386fc84ba6bc95484008f6362f93160ef3e5630154169051908152f35b8280fd5b8383346101305760a0366003190112610130576102e2610c14565b60243567ffffffffffffffff811161047a576103019036908601610c7d565b610309610c2f565b92606435936001600160a01b0390818616809603610476576084359482861680960361047257821693848852600360205260ff848920541661042f578488526003602052838820600160ff198254161790556001546801000000000000000081101561041c576001810180600155811015610409577f6e6ee18c450d629d69a286348f71f638054837fd2b42b33c3ee44b0de04423fe949392916103f59160018b527fb10e2d527612073b26eecdfd717e6a320cf44b4afac2b0732d9fcbe2b7fa0cf6018773ffffffffffffffffffffffffffffffffffffffff19825416179055845191828092610cd4565b03902095835197885260208801521694a480f35b60248960328c634e487b7160e01b835252fd5b60248960418c634e487b7160e01b835252fd5b606489602086519162461bcd60e51b8352820152601b60248201527f536869706d656e7420616c7265616479207265676973746572656400000000006044820152fd5b8780fd5b8680fd5b8380fd5b505034610130578160031936011261013057602091549051908152f35b919050346102c3576020918260031936011261047a5780359081101561047a576104c490610cff565b9281518093808654928381520195835280832092905b828210610500576104fc86866104f2828b0383610c45565b5191829182610ba2565b0390f35b83546001600160a01b0316875295860195600193840193909101906104da565b8284346101925780600319360112610192578151918291600180548086526020809601958284527fb10e2d527612073b26eecdfd717e6a320cf44b4afac2b0732d9fcbe2b7fa0cf693905b828210610583576104fc87876104f2828c0383610c45565b84546001600160a01b0316885296870196938301939083019061056b565b919050346102c35760803660031901126102c3576105bd610c14565b602490813567ffffffffffffffff81116108af576105de9036908601610c7d565b906105e7610c2f565b916064359186831015610472576001600160a01b03809116948589526020946003865260ff888b20541661086e5782885187816106248189610cd4565b8d815203019020541661080757821697888a526005865282888b2054166107a157868a5260038652878a20805460ff191660011790556002546801000000000000000092908381101561078f57600181018060025581101561077d5760028c527f405787fa12a823e0f2b7631cc41b3ba8828b3321ca811111fa75cd3aa3bb5ace0173ffffffffffffffffffffffffffffffffffffffff19908982825416179055895188816106d3818a610cd4565b8681520301902089828254161790558a8c5260058852888a8d20918254161790556106fd86610cff565b9182549384101561076c57505091610742826107609460017fe9bb469f94dbf6276ba933c0ea3dbd7aaacec3b1790f2723b2a3f6a8c1846c6599989795018155610be6565b819291549060031b9189831b921b1916179055865191828092610cd4565b0390209451908152a480f35b60418c91634e487b7160e01b835252fd5b508a603283634e487b7160e01b835252fd5b508a604183634e487b7160e01b835252fd5b602a608492878a519362461bcd60e51b85528401528201527f5374616b65686f6c646572206164647265737320616c7265616479206861732060448201527f6120636f6e7472616374000000000000000000000000000000000000000000006064820152fd5b608489602384898c519362461bcd60e51b85528401528201527f427573696e657373206c6963656e736520616c7265616479207265676973746560448201527f72656400000000000000000000000000000000000000000000000000000000006064820152fd5b606489601e84898c519362461bcd60e51b85528401528201527f5374616b65686f6c64657220616c7265616479207265676973746572656400006044820152fd5b8580fd5b8284346101925780600319360112610192578151918291600254808552602080950194600283527f405787fa12a823e0f2b7631cc41b3ba8828b3321ca811111fa75cd3aa3bb5ace92905b828210610916576104fc86866104f2828b0383610c45565b83546001600160a01b0316875295860195600193840193909101906108fe565b9050346102c35760203660031901126102c3576001600160a01b03610959610c14565b1691828452600360205260ff8185205416610a325782845260036020528320805460ff1916600117905582549068010000000000000000821015610a1f5760018201808555821015610a0c57507f290decd9548b62a8d60345a988386fc84ba6bc95484008f6362f93160ef3e563018173ffffffffffffffffffffffffffffffffffffffff198254161790557f920d77a54099038b3ca6972f73124a7718c2061858d10a6232403512ffe6ad7e8280a280f35b836032602492634e487b7160e01b835252fd5b836041602492634e487b7160e01b835252fd5b906020606492519162461bcd60e51b8352820152601a60248201527f50726f6475637420616c726561647920726567697374657265640000000000006044820152fd5b9050346102c35760203660031901126102c357356001548110156102c3576001600160a01b03906001602094527fb10e2d527612073b26eecdfd717e6a320cf44b4afac2b0732d9fcbe2b7fa0cf60154169051908152f35b9050346102c35760203660031901126102c357356002548110156102c3576001600160a01b03906002602094527f405787fa12a823e0f2b7631cc41b3ba8828b3321ca811111fa75cd3aa3bb5ace0154169051908152f35b849084346102c357826003193601126102c35782548083528380526020808401947f290decd9548b62a8d60345a988386fc84ba6bc95484008f6362f93160ef3e56392915b828210610b82576104fc86866104f2828b0383610c45565b83546001600160a01b031687529586019560019384019390910190610b6a565b6020908160408183019282815285518094520193019160005b828110610bc9575050505090565b83516001600160a01b031685529381019392810192600101610bbb565b8054821015610bfe5760005260206000200190600090565b634e487b7160e01b600052603260045260246000fd5b600435906001600160a01b0382168203610c2a57565b600080fd5b604435906001600160a01b0382168203610c2a57565b90601f8019910116810190811067ffffffffffffffff821117610c6757604052565b634e487b7160e01b600052604160045260246000fd5b81601f82011215610c2a5780359067ffffffffffffffff8211610c675760405192610cb2601f8401601f191660200185610c45565b82845260208383010111610c2a57816000926020809301838601378301015290565b9081519160005b838110610cec575050016000815290565b8060208092840101518185015201610cdb565b6004811015610d18576000526006602052604060002090565b634e487b7160e01b600052602160045260246000fdfea2646970667358221220ffbbcc2490e901b6cc4eb181dd9084f44c0fe64af60edeb90be8c0ce6f84d2f664736f6c63430008130033","opcodes":"PUSH1 0x80 DUP1 PUSH1 0x40 MSTORE CALLVALUE PUSH2 0x16 JUMPI PUSH2 0xD64 SWAP1 DUP2 PUSH2 0x1C DUP3 CODECOPY RETURN JUMPDEST PUSH1 0x0 DUP1 REVERT INVALID PUSH1 0x80 PUSH1 0x40 DUP2 DUP2 MSTORE PUSH1 0x4 SWAP2 DUP3 CALLDATASIZE LT ISZERO PUSH2 0x16 JUMPI PUSH1 0x0 DUP1 REVERT JUMPDEST PUSH1 0x0 SWAP3 DUP4 CALLDATALOAD PUSH1 0xE0 SHR SWAP2 DUP3 PUSH4 0x2EE3A52 EQ PUSH2 0xB25 JUMPI POP DUP2 PUSH4 0x1D6B8B72 EQ PUSH2 0xACD JUMPI DUP2 PUSH4 0x2AC08A93 EQ PUSH2 0xA75 JUMPI DUP2 PUSH4 0x2D46F5DF EQ PUSH2 0x936 JUMPI DUP2 PUSH4 0x2F920D60 EQ PUSH2 0x8B3 JUMPI DUP2 PUSH4 0x31A1FAD8 EQ PUSH2 0x5A1 JUMPI DUP2 PUSH4 0x469E95A9 EQ PUSH2 0x134 JUMPI DUP2 PUSH4 0x494DAD6C EQ PUSH2 0x520 JUMPI DUP2 PUSH4 0x53D4714E EQ PUSH2 0x49B JUMPI DUP2 PUSH4 0x570AEA8A EQ PUSH2 0x47E JUMPI DUP2 PUSH4 0x5A022E30 EQ PUSH2 0x2C7 JUMPI DUP2 PUSH4 0x7ACC0B20 EQ PUSH2 0x26D JUMPI DUP2 PUSH4 0x885301B2 EQ PUSH2 0x24E JUMPI DUP2 PUSH4 0xBED652AC EQ PUSH2 0x1F8 JUMPI DUP2 PUSH4 0xC3C5A547 EQ PUSH2 0x1CF JUMPI DUP2 PUSH4 0xC6AF209B EQ PUSH2 0x195 JUMPI DUP2 PUSH4 0xD27B59FF EQ PUSH2 0x195 JUMPI DUP2 PUSH4 0xF56196E2 EQ PUSH2 0x134 JUMPI POP PUSH4 0xF7BDE1DA EQ PUSH2 0xF6 JUMPI PUSH1 0x0 DUP1 REVERT JUMPDEST CALLVALUE PUSH2 0x130 JUMPI PUSH1 0x20 CALLDATASIZE PUSH1 0x3 NOT ADD SLT PUSH2 0x130 JUMPI PUSH1 0xFF DUP2 PUSH1 0x20 SWAP4 PUSH1 0x1 PUSH1 0x1 PUSH1 0xA0 SHL SUB PUSH2 0x11D PUSH2 0xC14 JUMP JUMPDEST AND DUP2 MSTORE PUSH1 0x3 DUP6 MSTORE KECCAK256 SLOAD AND SWAP1 MLOAD SWAP1 ISZERO ISZERO DUP2 MSTORE RETURN JUMPDEST POP DUP1 REVERT JUMPDEST DUP3 DUP5 CALLVALUE PUSH2 0x192 JUMPI PUSH1 0x20 CALLDATASIZE PUSH1 0x3 NOT ADD SLT PUSH2 0x192 JUMPI DUP3 CALLDATALOAD SWAP1 PUSH8 0xFFFFFFFFFFFFFFFF DUP3 GT PUSH2 0x192 JUMPI POP PUSH2 0x182 PUSH1 0x20 DUP1 SWAP5 PUSH2 0x176 PUSH1 0x1 PUSH1 0x1 PUSH1 0xA0 SHL SUB SWAP5 CALLDATASIZE SWAP1 DUP4 ADD PUSH2 0xC7D JUMP JUMPDEST SWAP1 DUP6 MLOAD SWAP4 DUP5 DUP1 SWAP4 PUSH2 0xCD4 JUMP JUMPDEST SWAP1 DUP2 MSTORE SUB ADD SWAP1 KECCAK256 SLOAD AND SWAP1 MLOAD SWAP1 DUP2 MSTORE RETURN JUMPDEST DUP1 REVERT JUMPDEST POP POP CALLVALUE PUSH2 0x130 JUMPI PUSH1 0x20 CALLDATASIZE PUSH1 0x3 NOT ADD SLT PUSH2 0x130 JUMPI PUSH1 0x20 SWAP2 DUP2 PUSH1 0x1 PUSH1 0x1 PUSH1 0xA0 SHL SUB SWAP2 DUP3 PUSH2 0x1BE PUSH2 0xC14 JUMP JUMPDEST AND DUP2 MSTORE PUSH1 0x5 DUP6 MSTORE KECCAK256 SLOAD AND SWAP1 MLOAD SWAP1 DUP2 MSTORE RETURN JUMPDEST POP POP CALLVALUE PUSH2 0x130 JUMPI PUSH1 0x20 CALLDATASIZE PUSH1 0x3 NOT ADD SLT PUSH2 0x130 JUMPI PUSH1 0xFF DUP2 PUSH1 0x20 SWAP4 PUSH1 0x1 PUSH1 0x1 PUSH1 0xA0 SHL SUB PUSH2 0x11D PUSH2 0xC14 JUMP JUMPDEST DUP3 DUP5 CALLVALUE PUSH2 0x192 JUMPI DUP2 PUSH1 0x3 NOT CALLDATASIZE ADD SLT PUSH2 0x192 JUMPI DUP3 CALLDATALOAD SWAP3 DUP4 LT ISZERO PUSH2 0x192 JUMPI PUSH2 0x220 PUSH1 0x24 CALLDATALOAD SWAP4 PUSH2 0xCFF JUMP JUMPDEST SWAP1 DUP2 SLOAD DUP5 LT ISZERO PUSH2 0x192 JUMPI POP PUSH2 0x23F PUSH1 0x20 SWAP4 PUSH1 0x1 PUSH1 0x1 PUSH1 0xA0 SHL SUB SWAP3 PUSH2 0xBE6 JUMP JUMPDEST SWAP3 SWAP1 SLOAD SWAP1 MLOAD SWAP3 PUSH1 0x3 SHL SHR AND DUP2 MSTORE RETURN JUMPDEST POP POP CALLVALUE PUSH2 0x130 JUMPI DUP2 PUSH1 0x3 NOT CALLDATASIZE ADD SLT PUSH2 0x130 JUMPI PUSH1 0x20 SWAP1 PUSH1 0x1 SLOAD SWAP1 MLOAD SWAP1 DUP2 MSTORE RETURN JUMPDEST SWAP1 POP CALLVALUE PUSH2 0x2C3 JUMPI PUSH1 0x20 CALLDATASIZE PUSH1 0x3 NOT ADD SLT PUSH2 0x2C3 JUMPI CALLDATALOAD DUP3 SLOAD DUP2 LT ISZERO PUSH2 0x2C3 JUMPI PUSH1 0x1 PUSH1 0x1 PUSH1 0xA0 SHL SUB SWAP1 DUP4 PUSH1 0x20 SWAP5 MSTORE PUSH32 0x290DECD9548B62A8D60345A988386FC84BA6BC95484008F6362F93160EF3E563 ADD SLOAD AND SWAP1 MLOAD SWAP1 DUP2 MSTORE RETURN JUMPDEST DUP3 DUP1 REVERT JUMPDEST DUP4 DUP4 CALLVALUE PUSH2 0x130 JUMPI PUSH1 0xA0 CALLDATASIZE PUSH1 0x3 NOT ADD SLT PUSH2 0x130 JUMPI PUSH2 0x2E2 PUSH2 0xC14 JUMP JUMPDEST PUSH1 0x24 CALLDATALOAD PUSH8 0xFFFFFFFFFFFFFFFF DUP2 GT PUSH2 0x47A JUMPI PUSH2 0x301 SWAP1 CALLDATASIZE SWAP1 DUP7 ADD PUSH2 0xC7D JUMP JUMPDEST PUSH2 0x309 PUSH2 0xC2F JUMP JUMPDEST SWAP3 PUSH1 0x64 CALLDATALOAD SWAP4 PUSH1 0x1 PUSH1 0x1 PUSH1 0xA0 SHL SUB SWAP1 DUP2 DUP7 AND DUP1 SWAP7 SUB PUSH2 0x476 JUMPI PUSH1 0x84 CALLDATALOAD SWAP5 DUP3 DUP7 AND DUP1 SWAP7 SUB PUSH2 0x472 JUMPI DUP3 AND SWAP4 DUP5 DUP9 MSTORE PUSH1 0x3 PUSH1 0x20 MSTORE PUSH1 0xFF DUP5 DUP10 KECCAK256 SLOAD AND PUSH2 0x42F JUMPI DUP5 DUP9 MSTORE PUSH1 0x3 PUSH1 0x20 MSTORE DUP4 DUP9 KECCAK256 PUSH1 0x1 PUSH1 0xFF NOT DUP3 SLOAD AND OR SWAP1 SSTORE PUSH1 0x1 SLOAD PUSH9 0x10000000000000000 DUP2 LT ISZERO PUSH2 0x41C JUMPI PUSH1 0x1 DUP2 ADD DUP1 PUSH1 0x1 SSTORE DUP2 LT ISZERO PUSH2 0x409 JUMPI PUSH32 0x6E6EE18C450D629D69A286348F71F638054837FD2B42B33C3EE44B0DE04423FE SWAP5 SWAP4 SWAP3 SWAP2 PUSH2 0x3F5 SWAP2 PUSH1 0x1 DUP12 MSTORE PUSH32 0xB10E2D527612073B26EECDFD717E6A320CF44B4AFAC2B0732D9FCBE2B7FA0CF6 ADD DUP8 PUSH20 0xFFFFFFFFFFFFFFFFFFFFFFFFFFFFFFFFFFFFFFFF NOT DUP3 SLOAD AND OR SWAP1 SSTORE DUP5 MLOAD SWAP2 DUP3 DUP1 SWAP3 PUSH2 0xCD4 JUMP JUMPDEST SUB SWAP1 KECCAK256 SWAP6 DUP4 MLOAD SWAP8 DUP9 MSTORE PUSH1 0x20 DUP9 ADD MSTORE AND SWAP5 LOG4 DUP1 RETURN JUMPDEST PUSH1 0x24 DUP10 PUSH1 0x32 DUP13 PUSH4 0x4E487B71 PUSH1 0xE0 SHL DUP4 MSTORE MSTORE REVERT JUMPDEST PUSH1 0x24 DUP10 PUSH1 0x41 DUP13 PUSH4 0x4E487B71 PUSH1 0xE0 SHL DUP4 MSTORE MSTORE REVERT JUMPDEST PUSH1 0x64 DUP10 PUSH1 0x20 DUP7 MLOAD SWAP2 PUSH3 0x461BCD PUSH1 0xE5 SHL DUP4 MSTORE DUP3 ADD MSTORE PUSH1 0x1B PUSH1 0x24 DUP3 ADD MSTORE PUSH32 0x536869706D656E7420616C726561647920726567697374657265640000000000 PUSH1 0x44 DUP3 ADD MSTORE REVERT JUMPDEST DUP8 DUP1 REVERT JUMPDEST DUP7 DUP1 REVERT JUMPDEST DUP4 DUP1 REVERT JUMPDEST POP POP CALLVALUE PUSH2 0x130 JUMPI DUP2 PUSH1 0x3 NOT CALLDATASIZE ADD SLT PUSH2 0x130 JUMPI PUSH1 0x20 SWAP2 SLOAD SWAP1 MLOAD SWAP1 DUP2 MSTORE RETURN JUMPDEST SWAP2 SWAP1 POP CALLVALUE PUSH2 0x2C3 JUMPI PUSH1 0x20 SWAP2 DUP3 PUSH1 0x3 NOT CALLDATASIZE ADD SLT PUSH2 0x47A JUMPI DUP1 CALLDATALOAD SWAP1 DUP2 LT ISZERO PUSH2 0x47A JUMPI PUSH2 0x4C4 SWAP1 PUSH2 0xCFF JUMP JUMPDEST SWAP3 DUP2 MLOAD DUP1 SWAP4 DUP1 DUP7 SLOAD SWAP3 DUP4 DUP2 MSTORE ADD SWAP6 DUP4 MSTORE DUP1 DUP4 KECCAK256 SWAP3 SWAP1 JUMPDEST DUP3 DUP3 LT PUSH2 0x500 JUMPI PUSH2 0x4FC DUP7 DUP7 PUSH2 0x4F2 DUP3 DUP12 SUB DUP4 PUSH2 0xC45 JUMP JUMPDEST MLOAD SWAP2 DUP3 SWAP2 DUP3 PUSH2 0xBA2 JUMP JUMPDEST SUB SWAP1 RETURN JUMPDEST DUP4 SLOAD PUSH1 0x1 PUSH1 0x1 PUSH1 0xA0 SHL SUB AND DUP8 MSTORE SWAP6 DUP7 ADD SWAP6 PUSH1 0x1 SWAP4 DUP5 ADD SWAP4 SWAP1 SWAP2 ADD SWAP1 PUSH2 0x4DA JUMP JUMPDEST DUP3 DUP5 CALLVALUE PUSH2 0x192 JUMPI DUP1 PUSH1 0x3 NOT CALLDATASIZE ADD SLT PUSH2 0x192 JUMPI DUP2 MLOAD SWAP2 DUP3 SWAP2 PUSH1 0x1 DUP1 SLOAD DUP1 DUP7 MSTORE PUSH1 0x20 DUP1 SWAP7 ADD SWAP6 DUP3 DUP5 MSTORE PUSH32 0xB10E2D527612073B26EECDFD717E6A320CF44B4AFAC2B0732D9FCBE2B7FA0CF6 SWAP4 SWAP1 JUMPDEST DUP3 DUP3 LT PUSH2 0x583 JUMPI PUSH2 0x4FC DUP8 DUP8 PUSH2 0x4F2 DUP3 DUP13 SUB DUP4 PUSH2 0xC45 JUMP JUMPDEST DUP5 SLOAD PUSH1 0x1 PUSH1 0x1 PUSH1 0xA0 SHL SUB AND DUP9 MSTORE SWAP7 DUP8 ADD SWAP7 SWAP4 DUP4 ADD SWAP4 SWAP1 DUP4 ADD SWAP1 PUSH2 0x56B JUMP JUMPDEST SWAP2 SWAP1 POP CALLVALUE PUSH2 0x2C3 JUMPI PUSH1 0x80 CALLDATASIZE PUSH1 0x3 NOT ADD SLT PUSH2 0x2C3 JUMPI PUSH2 0x5BD PUSH2 0xC14 JUMP JUMPDEST PUSH1 0x24 SWAP1 DUP2 CALLDATALOAD PUSH8 0xFFFFFFFFFFFFFFFF DUP2 GT PUSH2 0x8AF JUMPI PUSH2 0x5DE SWAP1 CALLDATASIZE SWAP1 DUP7 ADD PUSH2 0xC7D JUMP JUMPDEST SWAP1 PUSH2 0x5E7 PUSH2 0xC2F JUMP JUMPDEST SWAP2 PUSH1 0x64 CALLDATALOAD SWAP2 DUP7 DUP4 LT ISZERO PUSH2 0x472 JUMPI PUSH1 0x1 PUSH1 0x1 PUSH1 0xA0 SHL SUB DUP1 SWAP2 AND SWAP5 DUP6 DUP10 MSTORE PUSH1 0x20 SWAP5 PUSH1 0x3 DUP7 MSTORE PUSH1 0xFF DUP9 DUP12 KECCAK256 SLOAD AND PUSH2 0x86E JUMPI DUP3 DUP9 MLOAD DUP8 DUP2 PUSH2 0x624 DUP2 DUP10 PUSH2 0xCD4 JUMP JUMPDEST DUP14 DUP2 MSTORE SUB ADD SWAP1 KECCAK256 SLOAD AND PUSH2 0x807 JUMPI DUP3 AND SWAP8 DUP9 DUP11 MSTORE PUSH1 0x5 DUP7 MSTORE DUP3 DUP9 DUP12 KECCAK256 SLOAD AND PUSH2 0x7A1 JUMPI DUP7 DUP11 MSTORE PUSH1 0x3 DUP7 MSTORE DUP8 DUP11 KECCAK256 DUP1 SLOAD PUSH1 0xFF NOT AND PUSH1 0x1 OR SWAP1 SSTORE PUSH1 0x2 SLOAD PUSH9 0x10000000000000000 SWAP3 SWAP1 DUP4 DUP2 LT ISZERO PUSH2 0x78F JUMPI PUSH1 0x1 DUP2 ADD DUP1 PUSH1 0x2 SSTORE DUP2 LT ISZERO PUSH2 0x77D JUMPI PUSH1 0x2 DUP13 MSTORE PUSH32 0x405787FA12A823E0F2B7631CC41B3BA8828B3321CA811111FA75CD3AA3BB5ACE ADD PUSH20 0xFFFFFFFFFFFFFFFFFFFFFFFFFFFFFFFFFFFFFFFF NOT SWAP1 DUP10 DUP3 DUP3 SLOAD AND OR SWAP1 SSTORE DUP10 MLOAD DUP9 DUP2 PUSH2 0x6D3 DUP2 DUP11 PUSH2 0xCD4 JUMP JUMPDEST DUP7 DUP2 MSTORE SUB ADD SWAP1 KECCAK256 DUP10 DUP3 DUP3 SLOAD AND OR SWAP1 SSTORE DUP11 DUP13 MSTORE PUSH1 0x5 DUP9 MSTORE DUP9 DUP11 DUP14 KECCAK256 SWAP2 DUP3 SLOAD AND OR SWAP1 SSTORE PUSH2 0x6FD DUP7 PUSH2 0xCFF JUMP JUMPDEST SWAP2 DUP3 SLOAD SWAP4 DUP5 LT ISZERO PUSH2 0x76C JUMPI POP POP SWAP2 PUSH2 0x742 DUP3 PUSH2 0x760 SWAP5 PUSH1 0x1 PUSH32 0xE9BB469F94DBF6276BA933C0EA3DBD7AAACEC3B1790F2723B2A3F6A8C1846C65 SWAP10 SWAP9 SWAP8 SWAP6 ADD DUP2 SSTORE PUSH2 0xBE6 JUMP JUMPDEST DUP2 SWAP3 SWAP2 SLOAD SWAP1 PUSH1 0x3 SHL SWAP2 DUP10 DUP4 SHL SWAP3 SHL NOT AND OR SWAP1 SSTORE DUP7 MLOAD SWAP2 DUP3 DUP1 SWAP3 PUSH2 0xCD4 JUMP JUMPDEST SUB SWAP1 KECCAK256 SWAP5 MLOAD SWAP1 DUP2 MSTORE LOG4 DUP1 RETURN JUMPDEST PUSH1 0x41 DUP13 SWAP2 PUSH4 0x4E487B71 PUSH1 0xE0 SHL DUP4 MSTORE MSTORE REVERT JUMPDEST POP DUP11 PUSH1 0x32 DUP4 PUSH4 0x4E487B71 PUSH1 0xE0 SHL DUP4 MSTORE MSTORE REVERT JUMPDEST POP DUP11 PUSH1 0x41 DUP4 PUSH4 0x4E487B71 PUSH1 0xE0 SHL DUP4 MSTORE MSTORE REVERT JUMPDEST PUSH1 0x2A PUSH1 0x84 SWAP3 DUP8 DUP11 MLOAD SWAP4 PUSH3 0x461BCD PUSH1 0xE5 SHL DUP6 MSTORE DUP5 ADD MSTORE DUP3 ADD MSTORE PUSH32 0x5374616B65686F6C646572206164647265737320616C72656164792068617320 PUSH1 0x44 DUP3 ADD MSTORE PUSH32 0x6120636F6E747261637400000000000000000000000000000000000000000000 PUSH1 0x64 DUP3 ADD MSTORE REVERT JUMPDEST PUSH1 0x84 DUP10 PUSH1 0x23 DUP5 DUP10 DUP13 MLOAD SWAP4 PUSH3 0x461BCD PUSH1 0xE5 SHL DUP6 MSTORE DUP5 ADD MSTORE DUP3 ADD MSTORE PUSH32 0x427573696E657373206C6963656E736520616C72656164792072656769737465 PUSH1 0x44 DUP3 ADD MSTORE PUSH32 0x7265640000000000000000000000000000000000000000000000000000000000 PUSH1 0x64 DUP3 ADD MSTORE REVERT JUMPDEST PUSH1 0x64 DUP10 PUSH1 0x1E DUP5 DUP10 DUP13 MLOAD SWAP4 PUSH3 0x461BCD PUSH1 0xE5 SHL DUP6 MSTORE DUP5 ADD MSTORE DUP3 ADD MSTORE PUSH32 0x5374616B65686F6C64657220616C726561647920726567697374657265640000 PUSH1 0x44 DUP3 ADD MSTORE REVERT JUMPDEST DUP6 DUP1 REVERT JUMPDEST DUP3 DUP5 CALLVALUE PUSH2 0x192 JUMPI DUP1 PUSH1 0x3 NOT CALLDATASIZE ADD SLT PUSH2 0x192 JUMPI DUP2 MLOAD SWAP2 DUP3 SWAP2 PUSH1 0x2 SLOAD DUP1 DUP6 MSTORE PUSH1 0x20 DUP1 SWAP6 ADD SWAP5 PUSH1 0x2 DUP4 MSTORE PUSH32 0x405787FA12A823E0F2B7631CC41B3BA8828B3321CA811111FA75CD3AA3BB5ACE SWAP3 SWAP1 JUMPDEST DUP3 DUP3 LT PUSH2 0x916 JUMPI PUSH2 0x4FC DUP7 DUP7 PUSH2 0x4F2 DUP3 DUP12 SUB DUP4 PUSH2 0xC45 JUMP JUMPDEST DUP4 SLOAD PUSH1 0x1 PUSH1 0x1 PUSH1 0xA0 SHL SUB AND DUP8 MSTORE SWAP6 DUP7 ADD SWAP6 PUSH1 0x1 SWAP4 DUP5 ADD SWAP4 SWAP1 SWAP2 ADD SWAP1 PUSH2 0x8FE JUMP JUMPDEST SWAP1 POP CALLVALUE PUSH2 0x2C3 JUMPI PUSH1 0x20 CALLDATASIZE PUSH1 0x3 NOT ADD SLT PUSH2 0x2C3 JUMPI PUSH1 0x1 PUSH1 0x1 PUSH1 0xA0 SHL SUB PUSH2 0x959 PUSH2 0xC14 JUMP JUMPDEST AND SWAP2 DUP3 DUP5 MSTORE PUSH1 0x3 PUSH1 0x20 MSTORE PUSH1 0xFF DUP2 DUP6 KECCAK256 SLOAD AND PUSH2 0xA32 JUMPI DUP3 DUP5 MSTORE PUSH1 0x3 PUSH1 0x20 MSTORE DUP4 KECCAK256 DUP1 SLOAD PUSH1 0xFF NOT AND PUSH1 0x1 OR SWAP1 SSTORE DUP3 SLOAD SWAP1 PUSH9 0x10000000000000000 DUP3 LT ISZERO PUSH2 0xA1F JUMPI PUSH1 0x1 DUP3 ADD DUP1 DUP6 SSTORE DUP3 LT ISZERO PUSH2 0xA0C JUMPI POP PUSH32 0x290DECD9548B62A8D60345A988386FC84BA6BC95484008F6362F93160EF3E563 ADD DUP2 PUSH20 0xFFFFFFFFFFFFFFFFFFFFFFFFFFFFFFFFFFFFFFFF NOT DUP3 SLOAD AND OR SWAP1 SSTORE PUSH32 0x920D77A54099038B3CA6972F73124A7718C2061858D10A6232403512FFE6AD7E DUP3 DUP1 LOG2 DUP1 RETURN JUMPDEST DUP4 PUSH1 0x32 PUSH1 0x24 SWAP3 PUSH4 0x4E487B71 PUSH1 0xE0 SHL DUP4 MSTORE MSTORE REVERT JUMPDEST DUP4 PUSH1 0x41 PUSH1 0x24 SWAP3 PUSH4 0x4E487B71 PUSH1 0xE0 SHL DUP4 MSTORE MSTORE REVERT JUMPDEST SWAP1 PUSH1 0x20 PUSH1 0x64 SWAP3 MLOAD SWAP2 PUSH3 0x461BCD PUSH1 0xE5 SHL DUP4 MSTORE DUP3 ADD MSTORE PUSH1 0x1A PUSH1 0x24 DUP3 ADD MSTORE PUSH32 0x50726F6475637420616C72656164792072656769737465726564000000000000 PUSH1 0x44 DUP3 ADD MSTORE REVERT JUMPDEST SWAP1 POP CALLVALUE PUSH2 0x2C3 JUMPI PUSH1 0x20 CALLDATASIZE PUSH1 0x3 NOT ADD SLT PUSH2 0x2C3 JUMPI CALLDATALOAD PUSH1 0x1 SLOAD DUP2 LT ISZERO PUSH2 0x2C3 JUMPI PUSH1 0x1 PUSH1 0x1 PUSH1 0xA0 SHL SUB SWAP1 PUSH1 0x1 PUSH1 0x20 SWAP5 MSTORE PUSH32 0xB10E2D527612073B26EECDFD717E6A320CF44B4AFAC2B0732D9FCBE2B7FA0CF6 ADD SLOAD AND SWAP1 MLOAD SWAP1 DUP2 MSTORE RETURN JUMPDEST SWAP1 POP CALLVALUE PUSH2 0x2C3 JUMPI PUSH1 0x20 CALLDATASIZE PUSH1 0x3 NOT ADD SLT PUSH2 0x2C3 JUMPI CALLDATALOAD PUSH1 0x2 SLOAD DUP2 LT ISZERO PUSH2 0x2C3 JUMPI PUSH1 0x1 PUSH1 0x1 PUSH1 0xA0 SHL SUB SWAP1 PUSH1 0x2 PUSH1 0x20 SWAP5 MSTORE PUSH32 0x405787FA12A823E0F2B7631CC41B3BA8828B3321CA811111FA75CD3AA3BB5ACE ADD SLOAD AND SWAP1 MLOAD SWAP1 DUP2 MSTORE RETURN JUMPDEST DUP5 SWAP1 DUP5 CALLVALUE PUSH2 0x2C3 JUMPI DUP3 PUSH1 0x3 NOT CALLDATASIZE ADD SLT PUSH2 0x2C3 JUMPI DUP3 SLOAD DUP1 DUP4 MSTORE DUP4 DUP1 MSTORE PUSH1 0x20 DUP1 DUP5 ADD SWAP5 PUSH32 0x290DECD9548B62A8D60345A988386FC84BA6BC95484008F6362F93160EF3E563 SWAP3 SWAP2 JUMPDEST DUP3 DUP3 LT PUSH2 0xB82 JUMPI PUSH2 0x4FC DUP7 DUP7 PUSH2 0x4F2 DUP3 DUP12 SUB DUP4 PUSH2 0xC45 JUMP JUMPDEST DUP4 SLOAD PUSH1 0x1 PUSH1 0x1 PUSH1 0xA0 SHL SUB AND DUP8 MSTORE SWAP6 DUP7 ADD SWAP6 PUSH1 0x1 SWAP4 DUP5 ADD SWAP4 SWAP1 SWAP2 ADD SWAP1 PUSH2 0xB6A JUMP JUMPDEST PUSH1 0x20 SWAP1 DUP2 PUSH1 0x40 DUP2 DUP4 ADD SWAP3 DUP3 DUP2 MSTORE DUP6 MLOAD DUP1 SWAP5 MSTORE ADD SWAP4 ADD SWAP2 PUSH1 0x0 JUMPDEST DUP3 DUP2 LT PUSH2 0xBC9 JUMPI POP POP POP POP SWAP1 JUMP JUMPDEST DUP4 MLOAD PUSH1 0x1 PUSH1 0x1 PUSH1 0xA0 SHL SUB AND DUP6 MSTORE SWAP4 DUP2 ADD SWAP4 SWAP3 DUP2 ADD SWAP3 PUSH1 0x1 ADD PUSH2 0xBBB JUMP JUMPDEST DUP1 SLOAD DUP3 LT ISZERO PUSH2 0xBFE JUMPI PUSH1 0x0 MSTORE PUSH1 0x20 PUSH1 0x0 KECCAK256 ADD SWAP1 PUSH1 0x0 SWAP1 JUMP JUMPDEST PUSH4 0x4E487B71 PUSH1 0xE0 SHL PUSH1 0x0 MSTORE PUSH1 0x32 PUSH1 0x4 MSTORE PUSH1 0x24 PUSH1 0x0 REVERT JUMPDEST PUSH1 0x4 CALLDATALOAD SWAP1 PUSH1 0x1 PUSH1 0x1 PUSH1 0xA0 SHL SUB DUP3 AND DUP3 SUB PUSH2 0xC2A JUMPI JUMP JUMPDEST PUSH1 0x0 DUP1 REVERT JUMPDEST PUSH1 0x44 CALLDATALOAD SWAP1 PUSH1 0x1 PUSH1 0x1 PUSH1 0xA0 SHL SUB DUP3 AND DUP3 SUB PUSH2 0xC2A JUMPI JUMP JUMPDEST SWAP1 PUSH1 0x1F DUP1 NOT SWAP2 ADD AND DUP2 ADD SWAP1 DUP2 LT PUSH8 0xFFFFFFFFFFFFFFFF DUP3 GT OR PUSH2 0xC67 JUMPI PUSH1 0x40 MSTORE JUMP JUMPDEST PUSH4 0x4E487B71 PUSH1 0xE0 SHL PUSH1 0x0 MSTORE PUSH1 0x41 PUSH1 0x4 MSTORE PUSH1 0x24 PUSH1 0x0 REVERT JUMPDEST DUP2 PUSH1 0x1F DUP3 ADD SLT ISZERO PUSH2 0xC2A JUMPI DUP1 CALLDATALOAD SWAP1 PUSH8 0xFFFFFFFFFFFFFFFF DUP3 GT PUSH2 0xC67 JUMPI PUSH1 0x40 MLOAD SWAP3 PUSH2 0xCB2 PUSH1 0x1F DUP5 ADD PUSH1 0x1F NOT AND PUSH1 0x20 ADD DUP6 PUSH2 0xC45 JUMP JUMPDEST DUP3 DUP5 MSTORE PUSH1 0x20 DUP4 DUP4 ADD ADD GT PUSH2 0xC2A JUMPI DUP2 PUSH1 0x0 SWAP3 PUSH1 0x20 DUP1 SWAP4 ADD DUP4 DUP7 ADD CALLDATACOPY DUP4 ADD ADD MSTORE SWAP1 JUMP JUMPDEST SWAP1 DUP2 MLOAD SWAP2 PUSH1 0x0 JUMPDEST DUP4 DUP2 LT PUSH2 0xCEC JUMPI POP POP ADD PUSH1 0x0 DUP2 MSTORE SWAP1 JUMP JUMPDEST DUP1 PUSH1 0x20 DUP1 SWAP3 DUP5 ADD ADD MLOAD DUP2 DUP6 ADD MSTORE ADD PUSH2 0xCDB JUMP JUMPDEST PUSH1 0x4 DUP2 LT ISZERO PUSH2 0xD18 JUMPI PUSH1 0x0 MSTORE PUSH1 0x6 PUSH1 0x20 MSTORE PUSH1 0x40 PUSH1 0x0 KECCAK256 SWAP1 JUMP JUMPDEST PUSH4 0x4E487B71 PUSH1 0xE0 SHL PUSH1 0x0 MSTORE PUSH1 0x21 PUSH1 0x4 MSTORE PUSH1 0x24 PUSH1 0x0 REVERT INVALID LOG2 PUSH5 0x6970667358 0x22 SLT KECCAK256 SELFDESTRUCT 0xBB 0xCC 0x24 SWAP1 0xE9 ADD 0xB6 0xCC 0x4E 0xB1 DUP2 0xDD SWAP1 DUP5 DELEGATECALL 0x4C 0xF 0xE6 0x4A 0xF6 0xE 0xDE 0xB9 SIGNEXTEND 0xE8 0xC0 0xCE PUSH16 0x84D2F664736F6C634300081300330000 "},"gasEstimates":{"creation":{"codeDepositCost":"685600","executionCost":"729","totalCost":"686329"},"external":{"getAllProducts()":"infinite","getAllShipments()":"infinite","getAllStakeholders()":"infinite","getStakeholderByLicense(string)":"infinite","getStakeholderByWallet(address)":"2789","getStakeholdersByRole(uint8)":"infinite","getTotalProducts()":"2475","getTotalShipments()":"2544","isEntityRegistered(address)":"2831","isRegistered(address)":"2748","licenseToStakeholder(string)":"infinite","products(uint256)":"4681","registerProduct(address)":"76414","registerShipment(address,string,address,address,address)":"infinite","registerStakeholder(address,string,address,uint8)":"infinite","shipments(uint256)":"4483","stakeholders(uint256)":"4461","stakeholdersByRole(uint8,uint256)":"7095","walletToStakeholderContract(address)":"2767"}},"methodIdentifiers":{"getAllProducts()":"02ee3a52","getAllShipments()":"494dad6c","getAllStakeholders()":"2f920d60","getStakeholderByLicense(string)":"f56196e2","getStakeholderByWallet(address)":"d27b59ff","getStakeholdersByRole(uint8)":"53d4714e","getTotalProducts()":"570aea8a","getTotalShipments()":"885301b2","isEntityRegistered(address)":"f7bde1da","isRegistered(address)":"c3c5a547","licenseToStakeholder(string)":"469e95a9","products(uint256)":"7acc0b20","registerProduct(address)":"2d46f5df","registerShipment(address,string,address,address,address)":"5a022e30","registerStakeholder(address,string,address,uint8)":"31a1fad8","shipments(uint256)":"2ac08a93","stakeholders(uint256)":"1d6b8b72","stakeholdersByRole(uint8,uint256)":"bed652ac","walletToStakeholderContract(address)":"c6af209b"}},"storageLayout":{"storage":[{"astId":3678,"contract":"src/SmartContracts/Registry.sol:Registry","label":"products","offset":0,"slot":"0","type":"t_array(t_address)dyn_storage"},{"astId":3681,"contract":"src/SmartContracts/Registry.sol:Registry","label":"shipments","offset":0,"slot":"1","type":"t_array(t_address)dyn_storage"},{"astId":3684,"contract":"src/SmartContracts/Registry.sol:Registry","label":"stakeholders","offset":0,"slot":"2","type":"t_array(t_address)dyn_storage"},{"astId":3688,"contract":"src/SmartContracts/Registry.sol:Registry","label":"isRegistered","offset":0,"slot":"3","type":"t_mapping(t_address,t_bool)"},{"astId":3692,"contract":"src/SmartContracts/Registry.sol:Registry","label":"licenseToStakeholder","offset":0,"slot":"4","type":"t_mapping(t_string_memory_ptr,t_address)"},{"astId":3696,"contract":"src/SmartContracts/Registry.sol:Registry","label":"walletToStakeholderContract","offset":0,"slot":"5","type":"t_mapping(t_address,t_address)"},{"astId":3702,"contract":"src/SmartContracts/Registry.sol:Registry","label":"stakeholdersByRole","offset":0,"slot":"6","type":"t_mapping(t_enum(StakeholderRole)4760,t_array(t_address)dyn_storage)"}],"types":{"t_address":{"encoding":"inplace","label":"address","numberOfBytes":"20"},"t_array(t_address)dyn_storage":{"base":"t_address","encoding":"dynamic_array","label":"address[]","numberOfBytes":"32"},"t_bool":{"encoding":"inplace","label":"bool","numberOfBytes":"1"},"t_enum(StakeholderRole)4760":{"encoding":"inplace","label":"enum Stakeholder.StakeholderRole","numberOfBytes":"1"},"t_mapping(t_address,t_address)":{"encoding":"mapping","key":"t_address","label":"mapping(address => address)","numberOfBytes":"32","value":"t_address"},"t_mapping(t_address,t_bool)":{"encoding":"mapping","key":"t_address","label":"mapping(address => bool)","numberOfBytes":"32","value":"t_bool"},"t_mapping(t_enum(StakeholderRole)4760,t_array(t_address)dyn_storage)":{"encoding":"mapping","key":"t_enum(StakeholderRole)4760","label":"mapping(enum Stakeholder.StakeholderRole => address[])","numberOfBytes":"32","value":"t_array(t_address)dyn_storage"},"t_mapping(t_string_memory_ptr,t_address)":{"encoding":"mapping","key":"t_string_memory_ptr","label":"mapping(string => address)","numberOfBytes":"32","value":"t_address"},"t_string_memory_ptr":{"encoding":"bytes","label":"string","numberOfBytes":"32"}}},"userdoc":{"kind":"user","methods":{},"version":1}}}}