{"src/SmartContracts/StakeholderRegistry.sol":{"StakeholderRegistry":{"abi":[{"inputs":[{"internalType":"address","name":"_registry","type":"address"}],"stateMutability":"nonpayable","type":"constructor"},{"anonymous":false,"inputs":[{"indexed":true,"internalType":"address","name":"stakeholderContract","type":"address"},{"indexed":true,"internalType":"address","name":"requester","type":"address"},{"indexed":false,"internalType":"uint256","name":"timestamp","type":"uint256"}],"name":"StakeholderLookupPerformed","type":"event"},{"inputs":[],"name":"admin","outputs":[{"internalType":"address","name":"","type":"address"}],"stateMutability":"view","type":"function"},{"inputs":[{"internalType":"string","name":"_partialName","type":"string"}],"name":"findStakeholdersByBusinessName","outputs":[{"internalType":"address[]","name":"","type":"address[]"}],"stateMutability":"view","type":"function"},{"inputs":[{"internalType":"string","name":"_businessLicense","type":"string"}],"name":"getStakeholderByLicense","outputs":[{"internalType":"address","name":"","type":"address"}],"stateMutability":"view","type":"function"},{"inputs":[{"internalType":"address","name":"_stakeholderAddress","type":"address"}],"name":"getStakeholderContract","outputs":[{"internalType":"address","name":"","type":"address"}],"stateMutability":"view","type":"function"},{"inputs":[{"internalType":"address","name":"_stakeholderAddress","type":"address"}],"name":"getStakeholderInfo","outputs":[{"internalType":"address","name":"","type":"address"},{"internalType":"enum Stakeholder.StakeholderRole","name":"","type":"uint8"},{"internalType":"string","name":"","type":"string"},{"internalType":"string","name":"","type":"string"},{"internalType":"string","name":"","type":"string"},{"internalType":"string","name":"","type":"string"},{"internalType":"bool","name":"","type":"bool"},{"internalType":"uint256","name":"","type":"uint256"},{"internalType":"uint256","name":"","type":"uint256"}],"stateMutability":"view","type":"function"},{"inputs":[{"internalType":"enum Stakeholder.StakeholderRole","name":"_role","type":"uint8"}],"name":"getStakeholdersByRole","outputs":[{"internalType":"address[]","name":"","type":"address[]"}],"stateMutability":"view","type":"function"},{"inputs":[{"internalType":"address","name":"_stakeholderAddress","type":"address"}],"name":"isActiveStakeholder","outputs":[{"internalType":"bool","name":"","type":"bool"}],"stateMutability":"view","type":"function"},{"inputs":[{"internalType":"address","name":"_stakeholderAddress","type":"address"},{"internalType":"enum Stakeholder.StakeholderRole","name":"_role","type":"uint8"}],"name":"isRegisteredStakeholder","outputs":[{"internalType":"bool","name":"","type":"bool"}],"stateMutability":"view","type":"function"},{"inputs":[],"name":"registry","outputs":[{"internalType":"contract Registry","name":"","type":"address"}],"stateMutability":"view","type":"function"}],"devdoc":{"kind":"dev","methods":{"findStakeholdersByBusinessName(string)":{"details":"Find stakeholders by business name (partial match)"},"getStakeholderByLicense(string)":{"details":"Get stakeholder by business license"},"getStakeholderContract(address)":{"details":"Get stakeholder contract by wallet address"},"getStakeholderInfo(address)":{"details":"Get stakeholder info by wallet address"},"getStakeholdersByRole(uint8)":{"details":"Get stakeholders by role"},"isActiveStakeholder(address)":{"details":"Check if address is any active stakeholder (regardless of role)"},"isRegisteredStakeholder(address,uint8)":{"details":"Check if address is registered stakeholder with specific role"}},"version":1},"evm":{"bytecode":{"linkReferences":{},"object":"60803461007c57601f61115038819003918201601f19168301916001600160401b038311848410176100815780849260209460405283398101031261007c57516001600160a01b0381169081900361007c5760018060a01b031990816000541617600055339060015416176001556040516110b890816100988239f35b600080fd5b634e487b7160e01b600052604160045260246000fdfe6040608081526004908136101561001557600080fd5b600091823560e01c90816330044bcc1461075e5781633b51d3e0146106b957816352cdbe311461040957816353d4714e146101d85750806375c81b7b146101aa5780637b10399914610185578063b4550b9c146100da578063f56196e2146100b05763f851a4401461008657600080fd5b346100ac57816003193601126100ac576020906001600160a01b03600154169051908152f35b5080fd5b50346100ac576020906001600160a01b036100d26100cd3661081c565b610eb0565b915191168152f35b50903461018257602036600319011261018257506100f6610791565b6100ff90610b75565b9590949196988094939451996001600160a01b038b9a168a5260208a01610125916108c9565b61012080918a015288016101389161090f565b87810360608901526101499161090f565b868103608088015261015a9161090f565b85810360a087015261016b9161090f565b92151560c085015260e08401526101008301520390f35b80fd5b50346100ac57816003193601126100ac576001600160a01b0360209254169051908152f35b50346100ac5760203660031901126100ac576020906101cf6101ca610791565b610a76565b90519015158152f35b8383346100ac57602090816003193601126104055783359284841015610182576001600160a01b03908061023f60248483541697865198899384927f53d4714e0000000000000000000000000000000000000000000000000000000084528c8401906108c9565b5afa9485156103f95781956103d5575b5061025a8551610e2f565b938193825b875181101561038757888386610275848c610e86565b51168451928380926355627b1d60e01b82525afa85918161034c575b506102a557506102a090610e61565b61025f565b8984876102b2858d610e86565b51168551928380926308bcf8b560e21b82525afa869181610311575b506102de5750506102a090610e61565b6102ed575b506102a090610e61565b8661030a91876103016102a0959a8c610e86565b91169052610e61565b95906102e3565b9091508581813d8311610345575b61032981836107de565b810103126103415761033a90610948565b908c6102ce565b8680fd5b503d61031f565b9091508481813d8311610380575b61036481836107de565b8101031261037c5761037590610934565b908b610291565b8580fd5b503d61035a565b509550509261039583610e2f565b935b8381106103af578551806103ab8782610885565b0390f35b80836103be6103d09385610e86565b51166103ca8288610e86565b52610e61565b610397565b6103f29195503d8087833e6103ea81836107de565b810190610dad565b938661024f565b508251903d90823e3d90fd5b8280fd5b8383346100ac578261041a3661081c565b926001600160a01b0381818154168551948580927f2f920d600000000000000000000000000000000000000000000000000000000082525afa9283156106af578293610693575b5061046c8351610e2f565b938293835b815181101561065b57888086866104888587610e86565b51168651928380927f5951a7f60000000000000000000000000000000000000000000000000000000082525afa879181610610575b506104d25750506104cd90610e61565b610471565b856104dd8486610e86565b51168a86519283926308bcf8b560e21b8452838660209687935afa8a93816105cc575b506105135750505050506104cd90610e61565b826105bb575b505061052b575b50506104cd90610e61565b80866105378587610e86565b51168651938480926355627b1d60e01b82525afa9182918893610583575b505061056557506104cd90610e61565b8661057991866103016104cd959a8c610e86565b959050888a610520565b9080929350813d83116105b4575b61059b81836107de565b81010312610341576105ac90610934565b908b80610555565b503d610591565b6105c59250610fbd565b8a8d610519565b925093945091508381813d8311610609575b6105e881836107de565b81010312610605578c9392916105fe8d92610948565b928f610500565b8880fd5b503d6105de565b915091503d8088833e61062381836107de565b8101906020818303126106575780519067ffffffffffffffff82116106055791610650918d949301610b30565b908c6104bd565b8780fd5b505092908461066983610e2f565b935b83811061067f578551806103ab8782610885565b80836103be61068e9385610e86565b61066b565b6106a89193503d8084833e6103ea81836107de565b9186610461565b84513d84823e3d90fd5b8383346100ac57602092836003193601126104055790602491846106db610791565b6001600160a01b03948591828854168651958694859363d27b59ff60e01b855216908301525afa938415610753578094610719575b50505191168152f35b909193508482813d831161074c575b61073281836107de565b81010312610182575061074490610934565b918480610710565b503d610728565b8251903d90823e3d90fd5b828434610182578160031936011261018257610778610791565b906024359384101561018257506020926101cf91610955565b600435906001600160a01b03821682036107a757565b600080fd5b6020810190811067ffffffffffffffff8211176107c857604052565b634e487b7160e01b600052604160045260246000fd5b90601f8019910116810190811067ffffffffffffffff8211176107c857604052565b67ffffffffffffffff81116107c857601f01601f191660200190565b60206003198201126107a75760043567ffffffffffffffff81116107a757816023820112156107a75780600401359061085482610800565b9261086260405194856107de565b828452602483830101116107a75781600092602460209301838601378301015290565b6020908160408183019282815285518094520193019160005b8281106108ac575050505090565b83516001600160a01b03168552938101939281019260010161089e565b9060048210156108d65752565b634e487b7160e01b600052602160045260246000fd5b60005b8381106108ff5750506000910152565b81810151838201526020016108ef565b90602091610928815180928185528580860191016108ec565b601f01601f1916010190565b51906001600160a01b03821682036107a757565b519081151582036107a757565b906001600160a01b03806000938185541660405193849263d27b59ff60e01b845216600483015281602460209586935afa908115610a6b578591610a32575b5016918215610a2c576109d96024839260405195869384927f19e0755c00000000000000000000000000000000000000000000000000000000845260048401906108c9565b5afa91829184936109f4575b50506109ef575090565b905090565b9080929350813d8311610a25575b610a0c81836107de565b8101031261040557610a1d90610948565b9038806109e5565b503d610a02565b50505090565b90508281813d8311610a64575b610a4981836107de565b81010312610a6057610a5a90610934565b38610994565b8480fd5b503d610a3f565b6040513d87823e3d90fd5b6001600160a01b03806000928184541660405193849263d27b59ff60e01b845216600483015281602460209586935afa908115610b25578491610aec575b5016908115610ae75780600492604051938480926308bcf8b560e21b82525afa91829184936109f45750506109ef575090565b505090565b90508281813d8311610b1e575b610b0381836107de565b81010312610b1a57610b1490610934565b38610ab4565b8380fd5b503d610af9565b6040513d86823e3d90fd5b81601f820112156107a7578051610b4681610800565b92610b5460405194856107de565b818452602082840101116107a757610b7291602080850191016108ec565b90565b6001600160a01b036000908082541660208260246040968751948593849263d27b59ff60e01b84521660048301525afa908115610d8b578391610d52575b5016818115610d42576004918451928380927fa4995e5f0000000000000000000000000000000000000000000000000000000082525afa82839284928592869287928892818a938b93610c68575b50610c5457505050505050505050809281928051610c1e816107ac565b838152928151610c2d816107ac565b818152928251610c3c816107ac565b8281529251610c4a816107ac565b8281529180918190565b9a9799509597509395929491939092909190565b98509850505050505050503d8084833e610c8281836107de565b81019061012081830312610b1a57610c9981610934565b926020820151600481101561037c57868301519267ffffffffffffffff938481116106575785610cca918301610b30565b9560608201518581116106055786610ce3918401610b30565b956080830151868111610d3e5781610cfc918501610b30565b9560a0840151908111610d3e5790610d15918401610b30565b93610d2260c08401610948565b9361010060e08501519401519290989796959493929138610c01565b8980fd5b90509281928051610c1e816107ac565b90506020813d8211610d83575b81610d6c602093836107de565b8101031261040557610d7d90610934565b38610bb3565b3d9150610d5f565b84513d85823e3d90fd5b67ffffffffffffffff81116107c85760051b60200190565b60209081818403126107a75780519067ffffffffffffffff82116107a757019180601f840112156107a7578251610de381610d95565b93610df160405195866107de565b818552838086019260051b8201019283116107a7578301905b828210610e18575050505090565b838091610e2484610934565b815201910190610e0a565b90610e3982610d95565b610e4660405191826107de565b8281528092610e57601f1991610d95565b0190602036910137565b6000198114610e705760010190565b634e487b7160e01b600052601160045260246000fd5b8051821015610e9a5760209160051b010190565b634e487b7160e01b600052603260045260246000fd5b610f026001600160a01b03600092818454169060405180927ff56196e200000000000000000000000000000000000000000000000000000000825281806020978895866004840152602483019061090f565b03915afa908115610b25578491610f77575b5016908115610ae75780600492604051938480926355627b1d60e01b82525afa9182918493610f475750506109ef575090565b9080929350813d8311610f70575b610f5f81836107de565b8101031261040557610a1d90610934565b503d610f55565b90508281813d8311610fa5575b610f8e81836107de565b81010312610b1a57610f9f90610934565b38610f14565b503d610f84565b908151811015610e9a570160200190565b90805182511061107b576000905b825181518103908111610e705782116110735760019260005b825181101561106957808401808511610e7057611025907fff0000000000000000000000000000000000000000000000000000000000000091829185610fac565b5116906110328386610fac565b5116036110475761104290610e61565b610fe4565b5092509060005b6110615761105b90610e61565b90610fcb565b505050600190565b509291909161104e565b505050600090565b505060009056fea2646970667358221220cc726fad66455c45187b9b52dcf260f730acd92325e25084562d8b2f2c94b56e64736f6c63430008130033","opcodes":"PUSH1 0x80 CALLVALUE PUSH2 0x7C JUMPI PUSH1 0x1F PUSH2 0x1150 CODESIZE DUP2 SWAP1 SUB SWAP2 DUP3 ADD PUSH1 0x1F NOT AND DUP4 ADD SWAP2 PUSH1 0x1 PUSH1 0x1 PUSH1 0x40 SHL SUB DUP4 GT DUP5 DUP5 LT OR PUSH2 0x81 JUMPI DUP1 DUP5 SWAP3 PUSH1 0x20 SWAP5 PUSH1 0x40 MSTORE DUP4 CODECOPY DUP2 ADD SUB SLT PUSH2 0x7C JUMPI MLOAD PUSH1 0x1 PUSH1 0x1 PUSH1 0xA0 SHL SUB DUP2 AND SWAP1 DUP2 SWAP1 SUB PUSH2 0x7C JUMPI PUSH1 0x1 DUP1 PUSH1 0xA0 SHL SUB NOT SWAP1 DUP2 PUSH1 0x0 SLOAD AND OR PUSH1 0x0 SSTORE CALLER SWAP1 PUSH1 0x1 SLOAD AND OR PUSH1 0x1 SSTORE PUSH1 0x40 MLOAD PUSH2 0x10B8 SWAP1 DUP2 PUSH2 0x98 DUP3 CODECOPY RETURN JUMPDEST PUSH1 0x0 DUP1 REVERT JUMPDEST PUSH4 0x4E487B71 PUSH1 0xE0 SHL PUSH1 0x0 MSTORE PUSH1 0x41 PUSH1 0x4 MSTORE PUSH1 0x24 PUSH1 0x0 REVERT INVALID PUSH1 0x40 PUSH1 0x80 DUP2 MSTORE PUSH1 0x4 SWAP1 DUP2 CALLDATASIZE LT ISZERO PUSH2 0x15 JUMPI PUSH1 0x0 DUP1 REVERT JUMPDEST PUSH1 0x0 SWAP2 DUP3 CALLDATALOAD PUSH1 0xE0 SHR SWAP1 DUP2 PUSH4 0x30044BCC EQ PUSH2 0x75E JUMPI DUP2 PUSH4 0x3B51D3E0 EQ PUSH2 0x6B9 JUMPI DUP2 PUSH4 0x52CDBE31 EQ PUSH2 0x409 JUMPI DUP2 PUSH4 0x53D4714E EQ PUSH2 0x1D8 JUMPI POP DUP1 PUSH4 0x75C81B7B EQ PUSH2 0x1AA JUMPI DUP1 PUSH4 0x7B103999 EQ PUSH2 0x185 JUMPI DUP1 PUSH4 0xB4550B9C EQ PUSH2 0xDA JUMPI DUP1 PUSH4 0xF56196E2 EQ PUSH2 0xB0 JUMPI PUSH4 0xF851A440 EQ PUSH2 0x86 JUMPI PUSH1 0x0 DUP1 REVERT JUMPDEST CALLVALUE PUSH2 0xAC JUMPI DUP2 PUSH1 0x3 NOT CALLDATASIZE ADD SLT PUSH2 0xAC JUMPI PUSH1 0x20 SWAP1 PUSH1 0x1 PUSH1 0x1 PUSH1 0xA0 SHL SUB PUSH1 0x1 SLOAD AND SWAP1 MLOAD SWAP1 DUP2 MSTORE RETURN JUMPDEST POP DUP1 REVERT JUMPDEST POP CALLVALUE PUSH2 0xAC JUMPI PUSH1 0x20 SWAP1 PUSH1 0x1 PUSH1 0x1 PUSH1 0xA0 SHL SUB PUSH2 0xD2 PUSH2 0xCD CALLDATASIZE PUSH2 0x81C JUMP JUMPDEST PUSH2 0xEB0 JUMP JUMPDEST SWAP2 MLOAD SWAP2 AND DUP2 MSTORE RETURN JUMPDEST POP SWAP1 CALLVALUE PUSH2 0x182 JUMPI PUSH1 0x20 CALLDATASIZE PUSH1 0x3 NOT ADD SLT PUSH2 0x182 JUMPI POP PUSH2 0xF6 PUSH2 0x791 JUMP JUMPDEST PUSH2 0xFF SWAP1 PUSH2 0xB75 JUMP JUMPDEST SWAP6 SWAP1 SWAP5 SWAP2 SWAP7 SWAP9 DUP1 SWAP5 SWAP4 SWAP5 MLOAD SWAP10 PUSH1 0x1 PUSH1 0x1 PUSH1 0xA0 SHL SUB DUP12 SWAP11 AND DUP11 MSTORE PUSH1 0x20 DUP11 ADD PUSH2 0x125 SWAP2 PUSH2 0x8C9 JUMP JUMPDEST PUSH2 0x120 DUP1 SWAP2 DUP11 ADD MSTORE DUP9 ADD PUSH2 0x138 SWAP2 PUSH2 0x90F JUMP JUMPDEST DUP8 DUP2 SUB PUSH1 0x60 DUP10 ADD MSTORE PUSH2 0x149 SWAP2 PUSH2 0x90F JUMP JUMPDEST DUP7 DUP2 SUB PUSH1 0x80 DUP9 ADD MSTORE PUSH2 0x15A SWAP2 PUSH2 0x90F JUMP JUMPDEST DUP6 DUP2 SUB PUSH1 0xA0 DUP8 ADD MSTORE PUSH2 0x16B SWAP2 PUSH2 0x90F JUMP JUMPDEST SWAP3 ISZERO ISZERO PUSH1 0xC0 DUP6 ADD MSTORE PUSH1 0xE0 DUP5 ADD MSTORE PUSH2 0x100 DUP4 ADD MSTORE SUB SWAP1 RETURN JUMPDEST DUP1 REVERT JUMPDEST POP CALLVALUE PUSH2 0xAC JUMPI DUP2 PUSH1 0x3 NOT CALLDATASIZE ADD SLT PUSH2 0xAC JUMPI PUSH1 0x1 PUSH1 0x1 PUSH1 0xA0 SHL SUB PUSH1 0x20 SWAP3 SLOAD AND SWAP1 MLOAD SWAP1 DUP2 MSTORE RETURN JUMPDEST POP CALLVALUE PUSH2 0xAC JUMPI PUSH1 0x20 CALLDATASIZE PUSH1 0x3 NOT ADD SLT PUSH2 0xAC JUMPI PUSH1 0x20 SWAP1 PUSH2 0x1CF PUSH2 0x1CA PUSH2 0x791 JUMP JUMPDEST PUSH2 0xA76 JUMP JUMPDEST SWAP1 MLOAD SWAP1 ISZERO ISZERO DUP2 MSTORE RETURN JUMPDEST DUP4 DUP4 CALLVALUE PUSH2 0xAC JUMPI PUSH1 0x20 SWAP1 DUP2 PUSH1 0x3 NOT CALLDATASIZE ADD SLT PUSH2 0x405 JUMPI DUP4 CALLDATALOAD SWAP3 DUP5 DUP5 LT ISZERO PUSH2 0x182 JUMPI PUSH1 0x1 PUSH1 0x1 PUSH1 0xA0 SHL SUB SWAP1 DUP1 PUSH2 0x23F PUSH1 0x24 DUP5 DUP4 SLOAD AND SWAP8 DUP7 MLOAD SWAP9 DUP10 SWAP4 DUP5 SWAP3 PUSH32 0x53D4714E00000000000000000000000000000000000000000000000000000000 DUP5 MSTORE DUP13 DUP5 ADD SWAP1 PUSH2 0x8C9 JUMP JUMPDEST GAS STATICCALL SWAP5 DUP6 ISZERO PUSH2 0x3F9 JUMPI DUP2 SWAP6 PUSH2 0x3D5 JUMPI JUMPDEST POP PUSH2 0x25A DUP6 MLOAD PUSH2 0xE2F JUMP JUMPDEST SWAP4 DUP2 SWAP4 DUP3 JUMPDEST DUP8 MLOAD DUP2 LT ISZERO PUSH2 0x387 JUMPI DUP9 DUP4 DUP7 PUSH2 0x275 DUP5 DUP13 PUSH2 0xE86 JUMP JUMPDEST MLOAD AND DUP5 MLOAD SWAP3 DUP4 DUP1 SWAP3 PUSH4 0x55627B1D PUSH1 0xE0 SHL DUP3 MSTORE GAS STATICCALL DUP6 SWAP2 DUP2 PUSH2 0x34C JUMPI JUMPDEST POP PUSH2 0x2A5 JUMPI POP PUSH2 0x2A0 SWAP1 PUSH2 0xE61 JUMP JUMPDEST PUSH2 0x25F JUMP JUMPDEST DUP10 DUP5 DUP8 PUSH2 0x2B2 DUP6 DUP14 PUSH2 0xE86 JUMP JUMPDEST MLOAD AND DUP6 MLOAD SWAP3 DUP4 DUP1 SWAP3 PUSH4 0x8BCF8B5 PUSH1 0xE2 SHL DUP3 MSTORE GAS STATICCALL DUP7 SWAP2 DUP2 PUSH2 0x311 JUMPI JUMPDEST POP PUSH2 0x2DE JUMPI POP POP PUSH2 0x2A0 SWAP1 PUSH2 0xE61 JUMP JUMPDEST PUSH2 0x2ED JUMPI JUMPDEST POP PUSH2 0x2A0 SWAP1 PUSH2 0xE61 JUMP JUMPDEST DUP7 PUSH2 0x30A SWAP2 DUP8 PUSH2 0x301 PUSH2 0x2A0 SWAP6 SWAP11 DUP13 PUSH2 0xE86 JUMP JUMPDEST SWAP2 AND SWAP1 MSTORE PUSH2 0xE61 JUMP JUMPDEST SWAP6 SWAP1 PUSH2 0x2E3 JUMP JUMPDEST SWAP1 SWAP2 POP DUP6 DUP2 DUP2 RETURNDATASIZE DUP4 GT PUSH2 0x345 JUMPI JUMPDEST PUSH2 0x329 DUP2 DUP4 PUSH2 0x7DE JUMP JUMPDEST DUP2 ADD SUB SLT PUSH2 0x341 JUMPI PUSH2 0x33A SWAP1 PUSH2 0x948 JUMP JUMPDEST SWAP1 DUP13 PUSH2 0x2CE JUMP JUMPDEST DUP7 DUP1 REVERT JUMPDEST POP RETURNDATASIZE PUSH2 0x31F JUMP JUMPDEST SWAP1 SWAP2 POP DUP5 DUP2 DUP2 RETURNDATASIZE DUP4 GT PUSH2 0x380 JUMPI JUMPDEST PUSH2 0x364 DUP2 DUP4 PUSH2 0x7DE JUMP JUMPDEST DUP2 ADD SUB SLT PUSH2 0x37C JUMPI PUSH2 0x375 SWAP1 PUSH2 0x934 JUMP JUMPDEST SWAP1 DUP12 PUSH2 0x291 JUMP JUMPDEST DUP6 DUP1 REVERT JUMPDEST POP RETURNDATASIZE PUSH2 0x35A JUMP JUMPDEST POP SWAP6 POP POP SWAP3 PUSH2 0x395 DUP4 PUSH2 0xE2F JUMP JUMPDEST SWAP4 JUMPDEST DUP4 DUP2 LT PUSH2 0x3AF JUMPI DUP6 MLOAD DUP1 PUSH2 0x3AB DUP8 DUP3 PUSH2 0x885 JUMP JUMPDEST SUB SWAP1 RETURN JUMPDEST DUP1 DUP4 PUSH2 0x3BE PUSH2 0x3D0 SWAP4 DUP6 PUSH2 0xE86 JUMP JUMPDEST MLOAD AND PUSH2 0x3CA DUP3 DUP9 PUSH2 0xE86 JUMP JUMPDEST MSTORE PUSH2 0xE61 JUMP JUMPDEST PUSH2 0x397 JUMP JUMPDEST PUSH2 0x3F2 SWAP2 SWAP6 POP RETURNDATASIZE DUP1 DUP8 DUP4 RETURNDATACOPY PUSH2 0x3EA DUP2 DUP4 PUSH2 0x7DE JUMP JUMPDEST DUP2 ADD SWAP1 PUSH2 0xDAD JUMP JUMPDEST SWAP4 DUP7 PUSH2 0x24F JUMP JUMPDEST POP DUP3 MLOAD SWAP1 RETURNDATASIZE SWAP1 DUP3 RETURNDATACOPY RETURNDATASIZE SWAP1 REVERT JUMPDEST DUP3 DUP1 REVERT JUMPDEST DUP4 DUP4 CALLVALUE PUSH2 0xAC JUMPI DUP3 PUSH2 0x41A CALLDATASIZE PUSH2 0x81C JUMP JUMPDEST SWAP3 PUSH1 0x1 PUSH1 0x1 PUSH1 0xA0 SHL SUB DUP2 DUP2 DUP2 SLOAD AND DUP6 MLOAD SWAP5 DUP6 DUP1 SWAP3 PUSH32 0x2F920D6000000000000000000000000000000000000000000000000000000000 DUP3 MSTORE GAS STATICCALL SWAP3 DUP4 ISZERO PUSH2 0x6AF JUMPI DUP3 SWAP4 PUSH2 0x693 JUMPI JUMPDEST POP PUSH2 0x46C DUP4 MLOAD PUSH2 0xE2F JUMP JUMPDEST SWAP4 DUP3 SWAP4 DUP4 JUMPDEST DUP2 MLOAD DUP2 LT ISZERO PUSH2 0x65B JUMPI DUP9 DUP1 DUP7 DUP7 PUSH2 0x488 DUP6 DUP8 PUSH2 0xE86 JUMP JUMPDEST MLOAD AND DUP7 MLOAD SWAP3 DUP4 DUP1 SWAP3 PUSH32 0x5951A7F600000000000000000000000000000000000000000000000000000000 DUP3 MSTORE GAS STATICCALL DUP8 SWAP2 DUP2 PUSH2 0x610 JUMPI JUMPDEST POP PUSH2 0x4D2 JUMPI POP POP PUSH2 0x4CD SWAP1 PUSH2 0xE61 JUMP JUMPDEST PUSH2 0x471 JUMP JUMPDEST DUP6 PUSH2 0x4DD DUP5 DUP7 PUSH2 0xE86 JUMP JUMPDEST MLOAD AND DUP11 DUP7 MLOAD SWAP3 DUP4 SWAP3 PUSH4 0x8BCF8B5 PUSH1 0xE2 SHL DUP5 MSTORE DUP4 DUP7 PUSH1 0x20 SWAP7 DUP8 SWAP4 GAS STATICCALL DUP11 SWAP4 DUP2 PUSH2 0x5CC JUMPI JUMPDEST POP PUSH2 0x513 JUMPI POP POP POP POP POP PUSH2 0x4CD SWAP1 PUSH2 0xE61 JUMP JUMPDEST DUP3 PUSH2 0x5BB JUMPI JUMPDEST POP POP PUSH2 0x52B JUMPI JUMPDEST POP POP PUSH2 0x4CD SWAP1 PUSH2 0xE61 JUMP JUMPDEST DUP1 DUP7 PUSH2 0x537 DUP6 DUP8 PUSH2 0xE86 JUMP JUMPDEST MLOAD AND DUP7 MLOAD SWAP4 DUP5 DUP1 SWAP3 PUSH4 0x55627B1D PUSH1 0xE0 SHL DUP3 MSTORE GAS STATICCALL SWAP2 DUP3 SWAP2 DUP9 SWAP4 PUSH2 0x583 JUMPI JUMPDEST POP POP PUSH2 0x565 JUMPI POP PUSH2 0x4CD SWAP1 PUSH2 0xE61 JUMP JUMPDEST DUP7 PUSH2 0x579 SWAP2 DUP7 PUSH2 0x301 PUSH2 0x4CD SWAP6 SWAP11 DUP13 PUSH2 0xE86 JUMP JUMPDEST SWAP6 SWAP1 POP DUP9 DUP11 PUSH2 0x520 JUMP JUMPDEST SWAP1 DUP1 SWAP3 SWAP4 POP DUP2 RETURNDATASIZE DUP4 GT PUSH2 0x5B4 JUMPI JUMPDEST PUSH2 0x59B DUP2 DUP4 PUSH2 0x7DE JUMP JUMPDEST DUP2 ADD SUB SLT PUSH2 0x341 JUMPI PUSH2 0x5AC SWAP1 PUSH2 0x934 JUMP JUMPDEST SWAP1 DUP12 DUP1 PUSH2 0x555 JUMP JUMPDEST POP RETURNDATASIZE PUSH2 0x591 JUMP JUMPDEST PUSH2 0x5C5 SWAP3 POP PUSH2 0xFBD JUMP JUMPDEST DUP11 DUP14 PUSH2 0x519 JUMP JUMPDEST SWAP3 POP SWAP4 SWAP5 POP SWAP2 POP DUP4 DUP2 DUP2 RETURNDATASIZE DUP4 GT PUSH2 0x609 JUMPI JUMPDEST PUSH2 0x5E8 DUP2 DUP4 PUSH2 0x7DE JUMP JUMPDEST DUP2 ADD SUB SLT PUSH2 0x605 JUMPI DUP13 SWAP4 SWAP3 SWAP2 PUSH2 0x5FE DUP14 SWAP3 PUSH2 0x948 JUMP JUMPDEST SWAP3 DUP16 PUSH2 0x500 JUMP JUMPDEST DUP9 DUP1 REVERT JUMPDEST POP RETURNDATASIZE PUSH2 0x5DE JUMP JUMPDEST SWAP2 POP SWAP2 POP RETURNDATASIZE DUP1 DUP9 DUP4 RETURNDATACOPY PUSH2 0x623 DUP2 DUP4 PUSH2 0x7DE JUMP JUMPDEST DUP2 ADD SWAP1 PUSH1 0x20 DUP2 DUP4 SUB SLT PUSH2 0x657 JUMPI DUP1 MLOAD SWAP1 PUSH8 0xFFFFFFFFFFFFFFFF DUP3 GT PUSH2 0x605 JUMPI SWAP2 PUSH2 0x650 SWAP2 DUP14 SWAP5 SWAP4 ADD PUSH2 0xB30 JUMP JUMPDEST SWAP1 DUP13 PUSH2 0x4BD JUMP JUMPDEST DUP8 DUP1 REVERT JUMPDEST POP POP SWAP3 SWAP1 DUP5 PUSH2 0x669 DUP4 PUSH2 0xE2F JUMP JUMPDEST SWAP4 JUMPDEST DUP4 DUP2 LT PUSH2 0x67F JUMPI DUP6 MLOAD DUP1 PUSH2 0x3AB DUP8 DUP3 PUSH2 0x885 JUMP JUMPDEST DUP1 DUP4 PUSH2 0x3BE PUSH2 0x68E SWAP4 DUP6 PUSH2 0xE86 JUMP JUMPDEST PUSH2 0x66B JUMP JUMPDEST PUSH2 0x6A8 SWAP2 SWAP4 POP RETURNDATASIZE DUP1 DUP5 DUP4 RETURNDATACOPY PUSH2 0x3EA DUP2 DUP4 PUSH2 0x7DE JUMP JUMPDEST SWAP2 DUP7 PUSH2 0x461 JUMP JUMPDEST DUP5 MLOAD RETURNDATASIZE DUP5 DUP3 RETURNDATACOPY RETURNDATASIZE SWAP1 REVERT JUMPDEST DUP4 DUP4 CALLVALUE PUSH2 0xAC JUMPI PUSH1 0x20 SWAP3 DUP4 PUSH1 0x3 NOT CALLDATASIZE ADD SLT PUSH2 0x405 JUMPI SWAP1 PUSH1 0x24 SWAP2 DUP5 PUSH2 0x6DB PUSH2 0x791 JUMP JUMPDEST PUSH1 0x1 PUSH1 0x1 PUSH1 0xA0 SHL SUB SWAP5 DUP6 SWAP2 DUP3 DUP9 SLOAD AND DUP7 MLOAD SWAP6 DUP7 SWAP5 DUP6 SWAP4 PUSH4 0xD27B59FF PUSH1 0xE0 SHL DUP6 MSTORE AND SWAP1 DUP4 ADD MSTORE GAS STATICCALL SWAP4 DUP5 ISZERO PUSH2 0x753 JUMPI DUP1 SWAP5 PUSH2 0x719 JUMPI JUMPDEST POP POP MLOAD SWAP2 AND DUP2 MSTORE RETURN JUMPDEST SWAP1 SWAP2 SWAP4 POP DUP5 DUP3 DUP2 RETURNDATASIZE DUP4 GT PUSH2 0x74C JUMPI JUMPDEST PUSH2 0x732 DUP2 DUP4 PUSH2 0x7DE JUMP JUMPDEST DUP2 ADD SUB SLT PUSH2 0x182 JUMPI POP PUSH2 0x744 SWAP1 PUSH2 0x934 JUMP JUMPDEST SWAP2 DUP5 DUP1 PUSH2 0x710 JUMP JUMPDEST POP RETURNDATASIZE PUSH2 0x728 JUMP JUMPDEST DUP3 MLOAD SWAP1 RETURNDATASIZE SWAP1 DUP3 RETURNDATACOPY RETURNDATASIZE SWAP1 REVERT JUMPDEST DUP3 DUP5 CALLVALUE PUSH2 0x182 JUMPI DUP2 PUSH1 0x3 NOT CALLDATASIZE ADD SLT PUSH2 0x182 JUMPI PUSH2 0x778 PUSH2 0x791 JUMP JUMPDEST SWAP1 PUSH1 0x24 CALLDATALOAD SWAP4 DUP5 LT ISZERO PUSH2 0x182 JUMPI POP PUSH1 0x20 SWAP3 PUSH2 0x1CF SWAP2 PUSH2 0x955 JUMP JUMPDEST PUSH1 0x4 CALLDATALOAD SWAP1 PUSH1 0x1 PUSH1 0x1 PUSH1 0xA0 SHL SUB DUP3 AND DUP3 SUB PUSH2 0x7A7 JUMPI JUMP JUMPDEST PUSH1 0x0 DUP1 REVERT JUMPDEST PUSH1 0x20 DUP2 ADD SWAP1 DUP2 LT PUSH8 0xFFFFFFFFFFFFFFFF DUP3 GT OR PUSH2 0x7C8 JUMPI PUSH1 0x40 MSTORE JUMP JUMPDEST PUSH4 0x4E487B71 PUSH1 0xE0 SHL PUSH1 0x0 MSTORE PUSH1 0x41 PUSH1 0x4 MSTORE PUSH1 0x24 PUSH1 0x0 REVERT JUMPDEST SWAP1 PUSH1 0x1F DUP1 NOT SWAP2 ADD AND DUP2 ADD SWAP1 DUP2 LT PUSH8 0xFFFFFFFFFFFFFFFF DUP3 GT OR PUSH2 0x7C8 JUMPI PUSH1 0x40 MSTORE JUMP JUMPDEST PUSH8 0xFFFFFFFFFFFFFFFF DUP2 GT PUSH2 0x7C8 JUMPI PUSH1 0x1F ADD PUSH1 0x1F NOT AND PUSH1 0x20 ADD SWAP1 JUMP JUMPDEST PUSH1 0x20 PUSH1 0x3 NOT DUP3 ADD SLT PUSH2 0x7A7 JUMPI PUSH1 0x4 CALLDATALOAD PUSH8 0xFFFFFFFFFFFFFFFF DUP2 GT PUSH2 0x7A7 JUMPI DUP2 PUSH1 0x23 DUP3 ADD SLT ISZERO PUSH2 0x7A7 JUMPI DUP1 PUSH1 0x4 ADD CALLDATALOAD SWAP1 PUSH2 0x854 DUP3 PUSH2 0x800 JUMP JUMPDEST SWAP3 PUSH2 0x862 PUSH1 0x40 MLOAD SWAP5 DUP6 PUSH2 0x7DE JUMP JUMPDEST DUP3 DUP5 MSTORE PUSH1 0x24 DUP4 DUP4 ADD ADD GT PUSH2 0x7A7 JUMPI DUP2 PUSH1 0x0 SWAP3 PUSH1 0x24 PUSH1 0x20 SWAP4 ADD DUP4 DUP7 ADD CALLDATACOPY DUP4 ADD ADD MSTORE SWAP1 JUMP JUMPDEST PUSH1 0x20 SWAP1 DUP2 PUSH1 0x40 DUP2 DUP4 ADD SWAP3 DUP3 DUP2 MSTORE DUP6 MLOAD DUP1 SWAP5 MSTORE ADD SWAP4 ADD SWAP2 PUSH1 0x0 JUMPDEST DUP3 DUP2 LT PUSH2 0x8AC JUMPI POP POP POP POP SWAP1 JUMP JUMPDEST DUP4 MLOAD PUSH1 0x1 PUSH1 0x1 PUSH1 0xA0 SHL SUB AND DUP6 MSTORE SWAP4 DUP2 ADD SWAP4 SWAP3 DUP2 ADD SWAP3 PUSH1 0x1 ADD PUSH2 0x89E JUMP JUMPDEST SWAP1 PUSH1 0x4 DUP3 LT ISZERO PUSH2 0x8D6 JUMPI MSTORE JUMP JUMPDEST PUSH4 0x4E487B71 PUSH1 0xE0 SHL PUSH1 0x0 MSTORE PUSH1 0x21 PUSH1 0x4 MSTORE PUSH1 0x24 PUSH1 0x0 REVERT JUMPDEST PUSH1 0x0 JUMPDEST DUP4 DUP2 LT PUSH2 0x8FF JUMPI POP POP PUSH1 0x0 SWAP2 ADD MSTORE JUMP JUMPDEST DUP2 DUP2 ADD MLOAD DUP4 DUP3 ADD MSTORE PUSH1 0x20 ADD PUSH2 0x8EF JUMP JUMPDEST SWAP1 PUSH1 0x20 SWAP2 PUSH2 0x928 DUP2 MLOAD DUP1 SWAP3 DUP2 DUP6 MSTORE DUP6 DUP1 DUP7 ADD SWAP2 ADD PUSH2 0x8EC JUMP JUMPDEST PUSH1 0x1F ADD PUSH1 0x1F NOT AND ADD ADD SWAP1 JUMP JUMPDEST MLOAD SWAP1 PUSH1 0x1 PUSH1 0x1 PUSH1 0xA0 SHL SUB DUP3 AND DUP3 SUB PUSH2 0x7A7 JUMPI JUMP JUMPDEST MLOAD SWAP1 DUP2 ISZERO ISZERO DUP3 SUB PUSH2 0x7A7 JUMPI JUMP JUMPDEST SWAP1 PUSH1 0x1 PUSH1 0x1 PUSH1 0xA0 SHL SUB DUP1 PUSH1 0x0 SWAP4 DUP2 DUP6 SLOAD AND PUSH1 0x40 MLOAD SWAP4 DUP5 SWAP3 PUSH4 0xD27B59FF PUSH1 0xE0 SHL DUP5 MSTORE AND PUSH1 0x4 DUP4 ADD MSTORE DUP2 PUSH1 0x24 PUSH1 0x20 SWAP6 DUP7 SWAP4 GAS STATICCALL SWAP1 DUP2 ISZERO PUSH2 0xA6B JUMPI DUP6 SWAP2 PUSH2 0xA32 JUMPI JUMPDEST POP AND SWAP2 DUP3 ISZERO PUSH2 0xA2C JUMPI PUSH2 0x9D9 PUSH1 0x24 DUP4 SWAP3 PUSH1 0x40 MLOAD SWAP6 DUP7 SWAP4 DUP5 SWAP3 PUSH32 0x19E0755C00000000000000000000000000000000000000000000000000000000 DUP5 MSTORE PUSH1 0x4 DUP5 ADD SWAP1 PUSH2 0x8C9 JUMP JUMPDEST GAS STATICCALL SWAP2 DUP3 SWAP2 DUP5 SWAP4 PUSH2 0x9F4 JUMPI JUMPDEST POP POP PUSH2 0x9EF JUMPI POP SWAP1 JUMP JUMPDEST SWAP1 POP SWAP1 JUMP JUMPDEST SWAP1 DUP1 SWAP3 SWAP4 POP DUP2 RETURNDATASIZE DUP4 GT PUSH2 0xA25 JUMPI JUMPDEST PUSH2 0xA0C DUP2 DUP4 PUSH2 0x7DE JUMP JUMPDEST DUP2 ADD SUB SLT PUSH2 0x405 JUMPI PUSH2 0xA1D SWAP1 PUSH2 0x948 JUMP JUMPDEST SWAP1 CODESIZE DUP1 PUSH2 0x9E5 JUMP JUMPDEST POP RETURNDATASIZE PUSH2 0xA02 JUMP JUMPDEST POP POP POP SWAP1 JUMP JUMPDEST SWAP1 POP DUP3 DUP2 DUP2 RETURNDATASIZE DUP4 GT PUSH2 0xA64 JUMPI JUMPDEST PUSH2 0xA49 DUP2 DUP4 PUSH2 0x7DE JUMP JUMPDEST DUP2 ADD SUB SLT PUSH2 0xA60 JUMPI PUSH2 0xA5A SWAP1 PUSH2 0x934 JUMP JUMPDEST CODESIZE PUSH2 0x994 JUMP JUMPDEST DUP5 DUP1 REVERT JUMPDEST POP RETURNDATASIZE PUSH2 0xA3F JUMP JUMPDEST PUSH1 0x40 MLOAD RETURNDATASIZE DUP8 DUP3 RETURNDATACOPY RETURNDATASIZE SWAP1 REVERT JUMPDEST PUSH1 0x1 PUSH1 0x1 PUSH1 0xA0 SHL SUB DUP1 PUSH1 0x0 SWAP3 DUP2 DUP5 SLOAD AND PUSH1 0x40 MLOAD SWAP4 DUP5 SWAP3 PUSH4 0xD27B59FF PUSH1 0xE0 SHL DUP5 MSTORE AND PUSH1 0x4 DUP4 ADD MSTORE DUP2 PUSH1 0x24 PUSH1 0x20 SWAP6 DUP7 SWAP4 GAS STATICCALL SWAP1 DUP2 ISZERO PUSH2 0xB25 JUMPI DUP5 SWAP2 PUSH2 0xAEC JUMPI JUMPDEST POP AND SWAP1 DUP2 ISZERO PUSH2 0xAE7 JUMPI DUP1 PUSH1 0x4 SWAP3 PUSH1 0x40 MLOAD SWAP4 DUP5 DUP1 SWAP3 PUSH4 0x8BCF8B5 PUSH1 0xE2 SHL DUP3 MSTORE GAS STATICCALL SWAP2 DUP3 SWAP2 DUP5 SWAP4 PUSH2 0x9F4 JUMPI POP POP PUSH2 0x9EF JUMPI POP SWAP1 JUMP JUMPDEST POP POP SWAP1 JUMP JUMPDEST SWAP1 POP DUP3 DUP2 DUP2 RETURNDATASIZE DUP4 GT PUSH2 0xB1E JUMPI JUMPDEST PUSH2 0xB03 DUP2 DUP4 PUSH2 0x7DE JUMP JUMPDEST DUP2 ADD SUB SLT PUSH2 0xB1A JUMPI PUSH2 0xB14 SWAP1 PUSH2 0x934 JUMP JUMPDEST CODESIZE PUSH2 0xAB4 JUMP JUMPDEST DUP4 DUP1 REVERT JUMPDEST POP RETURNDATASIZE PUSH2 0xAF9 JUMP JUMPDEST PUSH1 0x40 MLOAD RETURNDATASIZE DUP7 DUP3 RETURNDATACOPY RETURNDATASIZE SWAP1 REVERT JUMPDEST DUP2 PUSH1 0x1F DUP3 ADD SLT ISZERO PUSH2 0x7A7 JUMPI DUP1 MLOAD PUSH2 0xB46 DUP2 PUSH2 0x800 JUMP JUMPDEST SWAP3 PUSH2 0xB54 PUSH1 0x40 MLOAD SWAP5 DUP6 PUSH2 0x7DE JUMP JUMPDEST DUP2 DUP5 MSTORE PUSH1 0x20 DUP3 DUP5 ADD ADD GT PUSH2 0x7A7 JUMPI PUSH2 0xB72 SWAP2 PUSH1 0x20 DUP1 DUP6 ADD SWAP2 ADD PUSH2 0x8EC JUMP JUMPDEST SWAP1 JUMP JUMPDEST PUSH1 0x1 PUSH1 0x1 PUSH1 0xA0 SHL SUB PUSH1 0x0 SWAP1 DUP1 DUP3 SLOAD AND PUSH1 0x20 DUP3 PUSH1 0x24 PUSH1 0x40 SWAP7 DUP8 MLOAD SWAP5 DUP6 SWAP4 DUP5 SWAP3 PUSH4 0xD27B59FF PUSH1 0xE0 SHL DUP5 MSTORE AND PUSH1 0x4 DUP4 ADD MSTORE GAS STATICCALL SWAP1 DUP2 ISZERO PUSH2 0xD8B JUMPI DUP4 SWAP2 PUSH2 0xD52 JUMPI JUMPDEST POP AND DUP2 DUP2 ISZERO PUSH2 0xD42 JUMPI PUSH1 0x4 SWAP2 DUP5 MLOAD SWAP3 DUP4 DUP1 SWAP3 PUSH32 0xA4995E5F00000000000000000000000000000000000000000000000000000000 DUP3 MSTORE GAS STATICCALL DUP3 DUP4 SWAP3 DUP5 SWAP3 DUP6 SWAP3 DUP7 SWAP3 DUP8 SWAP3 DUP9 SWAP3 DUP2 DUP11 SWAP4 DUP12 SWAP4 PUSH2 0xC68 JUMPI JUMPDEST POP PUSH2 0xC54 JUMPI POP POP POP POP POP POP POP POP POP DUP1 SWAP3 DUP2 SWAP3 DUP1 MLOAD PUSH2 0xC1E DUP2 PUSH2 0x7AC JUMP JUMPDEST DUP4 DUP2 MSTORE SWAP3 DUP2 MLOAD PUSH2 0xC2D DUP2 PUSH2 0x7AC JUMP JUMPDEST DUP2 DUP2 MSTORE SWAP3 DUP3 MLOAD PUSH2 0xC3C DUP2 PUSH2 0x7AC JUMP JUMPDEST DUP3 DUP2 MSTORE SWAP3 MLOAD PUSH2 0xC4A DUP2 PUSH2 0x7AC JUMP JUMPDEST DUP3 DUP2 MSTORE SWAP2 DUP1 SWAP2 DUP2 SWAP1 JUMP JUMPDEST SWAP11 SWAP8 SWAP10 POP SWAP6 SWAP8 POP SWAP4 SWAP6 SWAP3 SWAP5 SWAP2 SWAP4 SWAP1 SWAP3 SWAP1 SWAP2 SWAP1 JUMP JUMPDEST SWAP9 POP SWAP9 POP POP POP POP POP POP POP POP RETURNDATASIZE DUP1 DUP5 DUP4 RETURNDATACOPY PUSH2 0xC82 DUP2 DUP4 PUSH2 0x7DE JUMP JUMPDEST DUP2 ADD SWAP1 PUSH2 0x120 DUP2 DUP4 SUB SLT PUSH2 0xB1A JUMPI PUSH2 0xC99 DUP2 PUSH2 0x934 JUMP JUMPDEST SWAP3 PUSH1 0x20 DUP3 ADD MLOAD PUSH1 0x4 DUP2 LT ISZERO PUSH2 0x37C JUMPI DUP7 DUP4 ADD MLOAD SWAP3 PUSH8 0xFFFFFFFFFFFFFFFF SWAP4 DUP5 DUP2 GT PUSH2 0x657 JUMPI DUP6 PUSH2 0xCCA SWAP2 DUP4 ADD PUSH2 0xB30 JUMP JUMPDEST SWAP6 PUSH1 0x60 DUP3 ADD MLOAD DUP6 DUP2 GT PUSH2 0x605 JUMPI DUP7 PUSH2 0xCE3 SWAP2 DUP5 ADD PUSH2 0xB30 JUMP JUMPDEST SWAP6 PUSH1 0x80 DUP4 ADD MLOAD DUP7 DUP2 GT PUSH2 0xD3E JUMPI DUP2 PUSH2 0xCFC SWAP2 DUP6 ADD PUSH2 0xB30 JUMP JUMPDEST SWAP6 PUSH1 0xA0 DUP5 ADD MLOAD SWAP1 DUP2 GT PUSH2 0xD3E JUMPI SWAP1 PUSH2 0xD15 SWAP2 DUP5 ADD PUSH2 0xB30 JUMP JUMPDEST SWAP4 PUSH2 0xD22 PUSH1 0xC0 DUP5 ADD PUSH2 0x948 JUMP JUMPDEST SWAP4 PUSH2 0x100 PUSH1 0xE0 DUP6 ADD MLOAD SWAP5 ADD MLOAD SWAP3 SWAP1 SWAP9 SWAP8 SWAP7 SWAP6 SWAP5 SWAP4 SWAP3 SWAP2 CODESIZE PUSH2 0xC01 JUMP JUMPDEST DUP10 DUP1 REVERT JUMPDEST SWAP1 POP SWAP3 DUP2 SWAP3 DUP1 MLOAD PUSH2 0xC1E DUP2 PUSH2 0x7AC JUMP JUMPDEST SWAP1 POP PUSH1 0x20 DUP2 RETURNDATASIZE DUP3 GT PUSH2 0xD83 JUMPI JUMPDEST DUP2 PUSH2 0xD6C PUSH1 0x20 SWAP4 DUP4 PUSH2 0x7DE JUMP JUMPDEST DUP2 ADD SUB SLT PUSH2 0x405 JUMPI PUSH2 0xD7D SWAP1 PUSH2 0x934 JUMP JUMPDEST CODESIZE PUSH2 0xBB3 JUMP JUMPDEST RETURNDATASIZE SWAP2 POP PUSH2 0xD5F JUMP JUMPDEST DUP5 MLOAD RETURNDATASIZE DUP6 DUP3 RETURNDATACOPY RETURNDATASIZE SWAP1 REVERT JUMPDEST PUSH8 0xFFFFFFFFFFFFFFFF DUP2 GT PUSH2 0x7C8 JUMPI PUSH1 0x5 SHL PUSH1 0x20 ADD SWAP1 JUMP JUMPDEST PUSH1 0x20 SWAP1 DUP2 DUP2 DUP5 SUB SLT PUSH2 0x7A7 JUMPI DUP1 MLOAD SWAP1 PUSH8 0xFFFFFFFFFFFFFFFF DUP3 GT PUSH2 0x7A7 JUMPI ADD SWAP2 DUP1 PUSH1 0x1F DUP5 ADD SLT ISZERO PUSH2 0x7A7 JUMPI DUP3 MLOAD PUSH2 0xDE3 DUP2 PUSH2 0xD95 JUMP JUMPDEST SWAP4 PUSH2 0xDF1 PUSH1 0x40 MLOAD SWAP6 DUP7 PUSH2 0x7DE JUMP JUMPDEST DUP2 DUP6 MSTORE DUP4 DUP1 DUP7 ADD SWAP3 PUSH1 0x5 SHL DUP3 ADD ADD SWAP3 DUP4 GT PUSH2 0x7A7 JUMPI DUP4 ADD SWAP1 JUMPDEST DUP3 DUP3 LT PUSH2 0xE18 JUMPI POP POP POP POP SWAP1 JUMP JUMPDEST DUP4 DUP1 SWAP2 PUSH2 0xE24 DUP5 PUSH2 0x934 JUMP JUMPDEST DUP2 MSTORE ADD SWAP2 ADD SWAP1 PUSH2 0xE0A JUMP JUMPDEST SWAP1 PUSH2 0xE39 DUP3 PUSH2 0xD95 JUMP JUMPDEST PUSH2 0xE46 PUSH1 0x40 MLOAD SWAP2 DUP3 PUSH2 0x7DE JUMP JUMPDEST DUP3 DUP2 MSTORE DUP1 SWAP3 PUSH2 0xE57 PUSH1 0x1F NOT SWAP2 PUSH2 0xD95 JUMP JUMPDEST ADD SWAP1 PUSH1 0x20 CALLDATASIZE SWAP2 ADD CALLDATACOPY JUMP JUMPDEST PUSH1 0x0 NOT DUP2 EQ PUSH2 0xE70 JUMPI PUSH1 0x1 ADD SWAP1 JUMP JUMPDEST PUSH4 0x4E487B71 PUSH1 0xE0 SHL PUSH1 0x0 MSTORE PUSH1 0x11 PUSH1 0x4 MSTORE PUSH1 0x24 PUSH1 0x0 REVERT JUMPDEST DUP1 MLOAD DUP3 LT ISZERO PUSH2 0xE9A JUMPI PUSH1 0x20 SWAP2 PUSH1 0x5 SHL ADD ADD SWAP1 JUMP JUMPDEST PUSH4 0x4E487B71 PUSH1 0xE0 SHL PUSH1 0x0 MSTORE PUSH1 0x32 PUSH1 0x4 MSTORE PUSH1 0x24 PUSH1 0x0 REVERT JUMPDEST PUSH2 0xF02 PUSH1 0x1 PUSH1 0x1 PUSH1 0xA0 SHL SUB PUSH1 0x0 SWAP3 DUP2 DUP5 SLOAD AND SWAP1 PUSH1 0x40 MLOAD DUP1 SWAP3 PUSH32 0xF56196E200000000000000000000000000000000000000000000000000000000 DUP3 MSTORE DUP2 DUP1 PUSH1 0x20 SWAP8 DUP9 SWAP6 DUP7 PUSH1 0x4 DUP5 ADD MSTORE PUSH1 0x24 DUP4 ADD SWAP1 PUSH2 0x90F JUMP JUMPDEST SUB SWAP2 GAS STATICCALL SWAP1 DUP2 ISZERO PUSH2 0xB25 JUMPI DUP5 SWAP2 PUSH2 0xF77 JUMPI JUMPDEST POP AND SWAP1 DUP2 ISZERO PUSH2 0xAE7 JUMPI DUP1 PUSH1 0x4 SWAP3 PUSH1 0x40 MLOAD SWAP4 DUP5 DUP1 SWAP3 PUSH4 0x55627B1D PUSH1 0xE0 SHL DUP3 MSTORE GAS STATICCALL SWAP2 DUP3 SWAP2 DUP5 SWAP4 PUSH2 0xF47 JUMPI POP POP PUSH2 0x9EF JUMPI POP SWAP1 JUMP JUMPDEST SWAP1 DUP1 SWAP3 SWAP4 POP DUP2 RETURNDATASIZE DUP4 GT PUSH2 0xF70 JUMPI JUMPDEST PUSH2 0xF5F DUP2 DUP4 PUSH2 0x7DE JUMP JUMPDEST DUP2 ADD SUB SLT PUSH2 0x405 JUMPI PUSH2 0xA1D SWAP1 PUSH2 0x934 JUMP JUMPDEST POP RETURNDATASIZE PUSH2 0xF55 JUMP JUMPDEST SWAP1 POP DUP3 DUP2 DUP2 RETURNDATASIZE DUP4 GT PUSH2 0xFA5 JUMPI JUMPDEST PUSH2 0xF8E DUP2 DUP4 PUSH2 0x7DE JUMP JUMPDEST DUP2 ADD SUB SLT PUSH2 0xB1A JUMPI PUSH2 0xF9F SWAP1 PUSH2 0x934 JUMP JUMPDEST CODESIZE PUSH2 0xF14 JUMP JUMPDEST POP RETURNDATASIZE PUSH2 0xF84 JUMP JUMPDEST SWAP1 DUP2 MLOAD DUP2 LT ISZERO PUSH2 0xE9A JUMPI ADD PUSH1 0x20 ADD SWAP1 JUMP JUMPDEST SWAP1 DUP1 MLOAD DUP3 MLOAD LT PUSH2 0x107B JUMPI PUSH1 0x0 SWAP1 JUMPDEST DUP3 MLOAD DUP2 MLOAD DUP2 SUB SWAP1 DUP2 GT PUSH2 0xE70 JUMPI DUP3 GT PUSH2 0x1073 JUMPI PUSH1 0x1 SWAP3 PUSH1 0x0 JUMPDEST DUP3 MLOAD DUP2 LT ISZERO PUSH2 0x1069 JUMPI DUP1 DUP5 ADD DUP1 DUP6 GT PUSH2 0xE70 JUMPI PUSH2 0x1025 SWAP1 PUSH32 0xFF00000000000000000000000000000000000000000000000000000000000000 SWAP2 DUP3 SWAP2 DUP6 PUSH2 0xFAC JUMP JUMPDEST MLOAD AND SWAP1 PUSH2 0x1032 DUP4 DUP7 PUSH2 0xFAC JUMP JUMPDEST MLOAD AND SUB PUSH2 0x1047 JUMPI PUSH2 0x1042 SWAP1 PUSH2 0xE61 JUMP JUMPDEST PUSH2 0xFE4 JUMP JUMPDEST POP SWAP3 POP SWAP1 PUSH1 0x0 JUMPDEST PUSH2 0x1061 JUMPI PUSH2 0x105B SWAP1 PUSH2 0xE61 JUMP JUMPDEST SWAP1 PUSH2 0xFCB JUMP JUMPDEST POP POP POP PUSH1 0x1 SWAP1 JUMP JUMPDEST POP SWAP3 SWAP2 SWAP1 SWAP2 PUSH2 0x104E JUMP JUMPDEST POP POP POP PUSH1 0x0 SWAP1 JUMP JUMPDEST POP POP PUSH1 0x0 SWAP1 JUMP INVALID LOG2 PUSH5 0x6970667358 0x22 SLT KECCAK256 0xCC PUSH19 0x6FAD66455C45187B9B52DCF260F730ACD92325 0xE2 POP DUP5 JUMP 0x2D DUP12 0x2F 0x2C SWAP5 0xB5 PUSH15 0x64736F6C6343000813003300000000 "},"gasEstimates":{"creation":{"codeDepositCost":"856000","executionCost":"infinite","totalCost":"infinite"},"external":{"admin()":"2464","findStakeholdersByBusinessName(string)":"infinite","getStakeholderByLicense(string)":"infinite","getStakeholderContract(address)":"infinite","getStakeholderInfo(address)":"infinite","getStakeholdersByRole(uint8)":"infinite","isActiveStakeholder(address)":"infinite","isRegisteredStakeholder(address,uint8)":"infinite","registry()":"2400"},"internal":{"_contains(bytes memory,bytes memory)":"infinite"}},"methodIdentifiers":{"admin()":"f851a440","findStakeholdersByBusinessName(string)":"52cdbe31","getStakeholderByLicense(string)":"f56196e2","getStakeholderContract(address)":"3b51d3e0","getStakeholderInfo(address)":"b4550b9c","getStakeholdersByRole(uint8)":"53d4714e","isActiveStakeholder(address)":"75c81b7b","isRegisteredStakeholder(address,uint8)":"30044bcc","registry()":"7b103999"}},"storageLayout":{"storage":[{"astId":5292,"contract":"src/SmartContracts/StakeholderRegistry.sol:StakeholderRegistry","label":"registry","offset":0,"slot":"0","type":"t_contract(Registry)3980"},{"astId":5294,"contract":"src/SmartContracts/StakeholderRegistry.sol:StakeholderRegistry","label":"admin","offset":0,"slot":"1","type":"t_address"}],"types":{"t_address":{"encoding":"inplace","label":"address","numberOfBytes":"20"},"t_contract(Registry)3980":{"encoding":"inplace","label":"contract Registry","numberOfBytes":"20"}}},"userdoc":{"kind":"user","methods":{},"version":1}}}}