{"src/SmartContracts/ProductFactory.sol":{"ProductFactory":{"abi":[{"inputs":[{"internalType":"address","name":"_stakeholderRegistry","type":"address"},{"internalType":"address","name":"_registry","type":"address"},{"internalType":"address","name":"_temperatureFeed","type":"address"},{"internalType":"address","name":"_humidityFeed","type":"address"},{"internalType":"address","name":"_rainfallFeed","type":"address"},{"internalType":"address","name":"_windSpeedFeed","type":"address"},{"internalType":"address","name":"_priceFeed","type":"address"}],"stateMutability":"nonpayable","type":"constructor"},{"anonymous":false,"inputs":[{"indexed":true,"internalType":"address","name":"productAddress","type":"address"},{"indexed":false,"internalType":"string","name":"name","type":"string"},{"indexed":true,"internalType":"address","name":"creator","type":"address"},{"indexed":false,"internalType":"uint256","name":"timestamp","type":"uint256"}],"name":"ProductCreated","type":"event"},{"inputs":[{"internalType":"string","name":"name","type":"string"},{"internalType":"string","name":"description","type":"string"},{"internalType":"uint256","name":"minCTemperature","type":"uint256"},{"internalType":"uint256","name":"maxCTemperature","type":"uint256"},{"internalType":"string","name":"location","type":"string"},{"internalType":"string","name":"farmData","type":"string"}],"name":"createProduct","outputs":[{"internalType":"address","name":"","type":"address"}],"stateMutability":"nonpayable","type":"function"},{"inputs":[],"name":"humidityFeed","outputs":[{"internalType":"address","name":"","type":"address"}],"stateMutability":"view","type":"function"},{"inputs":[],"name":"priceFeed","outputs":[{"internalType":"address","name":"","type":"address"}],"stateMutability":"view","type":"function"},{"inputs":[],"name":"rainfallFeed","outputs":[{"internalType":"address","name":"","type":"address"}],"stateMutability":"view","type":"function"},{"inputs":[],"name":"registry","outputs":[{"internalType":"contract Registry","name":"","type":"address"}],"stateMutability":"view","type":"function"},{"inputs":[],"name":"stakeholderRegistry","outputs":[{"internalType":"contract StakeholderRegistry","name":"","type":"address"}],"stateMutability":"view","type":"function"},{"inputs":[],"name":"temperatureFeed","outputs":[{"internalType":"address","name":"","type":"address"}],"stateMutability":"view","type":"function"},{"inputs":[],"name":"windSpeedFeed","outputs":[{"internalType":"address","name":"","type":"address"}],"stateMutability":"view","type":"function"}],"devdoc":{"kind":"dev","methods":{},"version":1},"evm":{"bytecode":{"linkReferences":{},"object":"60803461010157601f6141e038819003918201601f19168301916001600160401b038311848410176101065780849260e094604052833981010312610101576100478161011c565b906100546020820161011c565b6100606040830161011c565b61006c6060840161011c565b926100796080820161011c565b9261009260c061008b60a0850161011c565b930161011c565b9360018060a01b0380968180968180968160018060a01b03199d168d6000541617600055168b600154161760015516896002541617600255168760035416176003551685600454161760045516836005541617600555169060065416176006556040516140af90816101318239f35b600080fd5b634e487b7160e01b600052604160045260246000fd5b51906001600160a01b03821682036101015756fe60808060405260043610156200001457600080fd5b60003560e01c908163057f426d146200052957508063145788d2146200050057806323feda0a14620004d7578063741bef1a14620004ae5780637b10399914620004855780638ad3af83146200045c578063b0a5c86514620004335763f6957d12146200008057600080fd5b346200038e5760c03660031901126200038e5760043567ffffffffffffffff81116200038e57620000b690369060040162000572565b60243567ffffffffffffffff81116200038e57620000d990369060040162000572565b60843567ffffffffffffffff81116200038e57620000fc90369060040162000572565b9060a43567ffffffffffffffff81116200038e576200012090369060040162000572565b906001600160a01b03928360005416906040517f30044bcc00000000000000000000000000000000000000000000000000000000815233600482015260006024820152602081604481865afa9081156200038257600091620003f1575b50156200039357846002541685600354168660045416908760055416928860065416946040519889613a6981011067ffffffffffffffff613a698c0111176200035357620002336200024a926200020b8c9b8f620001f3908e613a69620006118239610180613a699091018181520190620005ce565b908d6020613a698201840391613a69010152620005ce565b604435613a698d016040810191909152606435606082015280820360809091015290620005ce565b90613a698a01820360a0613a698c010152620005ce565b9560c0613a698901015260e0613a6988010152610100613a6987010152610120613a6986010152610140613a6985010152610160613a698401015203906000f0801562000382578116906001541691823b156200038e57600080936024604051809681937f2d46f5df0000000000000000000000000000000000000000000000000000000083528760048401525af18015620003825762000337575b60209250817f3d9f306eb3ccdae57cf95b68ceccf00ee5562f86254884fa73c0960447f3e28f6200032360405193604085526040850190620005ce565b9242868201528033940390a3604051908152f35b67ffffffffffffffff83116200035357602092604052620002e6565b7f4e487b7100000000000000000000000000000000000000000000000000000000600052604160045260246000fd5b6040513d6000823e3d90fd5b600080fd5b60646040517f08c379a000000000000000000000000000000000000000000000000000000000815260206004820152601c60248201527f4e6f74207265676973746572656420666f72207468697320726f6c65000000006044820152fd5b90506020813d6020116200042a575b816200040f602093836200054f565b810103126200038e575180151581036200038e57386200017d565b3d915062000400565b346200038e5760003660031901126200038e5760206001600160a01b0360055416604051908152f35b346200038e5760003660031901126200038e5760206001600160a01b0360045416604051908152f35b346200038e5760003660031901126200038e5760206001600160a01b0360015416604051908152f35b346200038e5760003660031901126200038e5760206001600160a01b0360065416604051908152f35b346200038e5760003660031901126200038e5760206001600160a01b0360005416604051908152f35b346200038e5760003660031901126200038e5760206001600160a01b0360025416604051908152f35b346200038e5760003660031901126200038e576020906001600160a01b03600354168152f35b90601f8019910116810190811067ffffffffffffffff8211176200035357604052565b81601f820112156200038e5780359067ffffffffffffffff8211620003535760405192620005ab601f8401601f1916602001856200054f565b828452602083830101116200038e57816000926020809301838601378301015290565b919082519283825260005b848110620005fb575050826000602080949584010152601f8019910116010190565b602081830181015184830182015201620005d956fe60a0806040523462000de25762003a69803803809162000020828562000e1f565b833981016101808282031262000de25781516001600160401b03811162000de257816200004f91840162000e68565b60208301519092906001600160401b03811162000de257826200007491830162000e68565b60408201516060830151608084015191939092916001600160401b03811162000de25785620000a591830162000e68565b60a082015190956001600160401b03821162000de257620000c891830162000e68565b94620000d760c0830162000ec3565b620000e560e0840162000ec3565b91620000f5610100850162000ec3565b9562000105610120860162000ec3565b97620001246101606200011c610140890162000ec3565b970162000ec3565b968b511562000d9d5780511562000d4c5783511562000d08578b516001600160401b03811162000a0057600054600181811c9116801562000cfd575b6020821014620009df57601f811162000ca9575b50806020601f821160011462000c305760009162000c24575b508160011b916000199060031b1c1916176000555b8051906001600160401b03821162000a005760015490600182811c9216801562000c19575b6020831014620009df5781601f84931162000bb8575b50602090601f831160011462000b3a5760009262000b2e575b50508160011b916000199060031b1c1916176001555b6002556003558051906001600160401b03821162000a005760045490600182811c9216801562000b23575b6020831014620009df5781601f84931162000ab1575b50602090601f831160011462000a225760009262000a16575b50508160011b916000199060031b1c1916176004555b600580544260a01b63ffffffff60a01b166001600160d01b031982163265ffffffffffff60a01b19161717600160c81b17909155604051895191999091620002fe9160209184918c9190620002d990829085870190870162000e43565b620002ef82518093868085880101910162000e43565b82010103808452018262000e1f565b80516020909101206006556001600160a01b03908116608090815260405194821696928216959382169492821693909116918691906200033e8162000de7565b868152836020820152846040820152856060820152015260018060a01b03199384600954161760095583600a541617600a5582600b541617600b5581600c541617600c55600d541617600d556200039462000ed8565b506200039f62000f05565b620003a96200125d565b91826007556040516020810190620003dc6020828551620003ce8187858a0162000e43565b810103808452018262000e1f565b519020604051949091906001600160401b0360c087019081119087111762000a005760c0860160409081524260a090811b63ffffffff60a01b9081166001600160d01b03199094163265ffffffffffff60a01b19161793909317600160c81b176001600160a01b038181168a5290821c63ffffffff166020808b01918252938a0195865260608a01969096526080890187905281890188905260008052600890925287517f5eff886ea0ce6ca488a3d6e336d6c0f75f46d19b42c06ce5ee98e42c96d256c7805496516001600160c01b0319909716919093161794901b909116929092178255518051906001600160401b03821162000a00576001830154600181811c91168015620009f5575b6020821014620009df57601f81116200098f575b50602090601f83116001146200091157958260089360a093620005c79960009262000905575b50508160011b916000199060031b1c19161760018501555b606081015160028501556080808201518051600387015560208101516004870155604081015160058701556060810151600687015501516007850155015191015580516105dc811280918115620008f8575b50620007cb575b506020810151610fa0811080918115620007be575b50620006ad575b50611388604082015111620005f5575b50620012aa565b6040516124a390816200154682396080518181816104af01528181610e20015281816113ef01526114900152f35b610180600080516020620039e98339815191529162000699604051916101008352600861010084015267149052539190531360c21b610120840152610140602084015260176101408401527f4865617679207261696e66616c6c206465746563746564000000000000000000610160840152604083019060808091805184526020810151602085015260408101516040850152606081015160608501520151910152565b63ffffffff421660e0820152a138620005c0565b156200077857600080516020620039e98339815191526200072c604051620006d58162000e03565b601081526f48756d696469747920746f6f206c6f7760801b60208201525b604051918291610100835260086101008401526748554d494449545960c01b610120840152610140602084015261014083019062001283565b62000762604083018660808091805184526020810151602085015260408101516040850152606081015160608501520151910152565b63ffffffff421660e08301520390a138620005b0565b600080516020620039e98339815191526200072c6040516200079a8162000e03565b6011815270090eadad2c8d2e8f240e8dede40d0d2ced607b1b6020820152620006f3565b61177091501138620005a9565b15620008a657600080516020620039e98339815191526200085a604051620007f38162000e03565b601381527f54656d706572617475726520746f6f206c6f770000000000000000000000000060208201525b6040519182916101008352600b6101008401526a54454d504552415455524560a81b610120840152610140602084015261014083019062001283565b62000890604083018660808091805184526020810151602085015260408101516040850152606081015160608501520151910152565b63ffffffff421660e08301520390a13862000594565b600080516020620039e98339815191526200085a604051620008c88162000e03565b601481527f54656d706572617475726520746f6f206869676800000000000000000000000060208201526200081e565b6109c4915013386200058d565b01519050388062000523565b906001840160005260206000209160005b601f19851681106200097657508360a093620005c79993600193600897601f198116106200095c575b505050811b0160018501556200053b565b015160001960f88460031b161c191690553880806200094b565b9192602060018192868501518155019401920162000922565b600184016000526020600020601f840160051c81019160208510620009d4575b601f0160051c01905b818110620009c75750620004fd565b60008155600101620009b8565b9091508190620009af565b634e487b7160e01b600052602260045260246000fd5b90607f1690620004e9565b634e487b7160e01b600052604160045260246000fd5b01519050388062000266565b6004600090815293507f8a35acfbc15ff81a39ae7d344fd709f28e8600b4aa8c65c6b64bfe7fe36bd19b91905b601f198416851062000a95576001945083601f1981161062000a7b575b505050811b016004556200027c565b015160001960f88460031b161c1916905538808062000a6c565b8181015183556020948501946001909301929091019062000a4f565b60046000529091507f8a35acfbc15ff81a39ae7d344fd709f28e8600b4aa8c65c6b64bfe7fe36bd19b601f840160051c81016020851062000b1b575b90849392915b601f830160051c8201811062000b0b5750506200024d565b6000815585945060010162000af3565b508062000aed565b91607f169162000237565b015190503880620001f6565b60016000908152935060008051602062003a2983398151915291905b601f198416851062000b9c576001945083601f1981161062000b82575b505050811b016001556200020c565b015160001960f88460031b161c1916905538808062000b73565b8181015183556020948501946001909301929091019062000b56565b600160005290915060008051602062003a29833981519152601f840160051c81016020851062000c11575b90849392915b601f830160051c8201811062000c01575050620001dd565b6000815585945060010162000be9565b508062000be3565b91607f1691620001c7565b90508d0151386200018d565b6000808052925060008051602062003a09833981519152908f5b601f198416851062000c90576001945083601f1981161062000c76575b505050811b01600055620001a2565b015160001960f88460031b161c1916905538808f62000c67565b8101518255602093840193600190920191018f62000c4a565b6000805260008051602062003a09833981519152601f830160051c81016020841062000cf5575b601f830160051c8201811062000ce857505062000174565b6000815560010162000cd0565b508062000cd0565b90607f169062000160565b606460405162461bcd60e51b815260206004820152602060248201527f50726f64756374206c6f636174696f6e2063616e6e6f7420626520656d7074796044820152fd5b60405162461bcd60e51b815260206004820152602360248201527f50726f64756374206465736372697074696f6e2063616e6e6f7420626520656d60448201526270747960e81b6064820152608490fd5b60405162461bcd60e51b815260206004820152601c60248201527f50726f64756374206e616d652063616e6e6f7420626520656d707479000000006044820152606490fd5b600080fd5b60a081019081106001600160401b0382111762000a0057604052565b604081019081106001600160401b0382111762000a0057604052565b601f909101601f19168101906001600160401b0382119082101762000a0057604052565b60005b83811062000e575750506000910152565b818101518382015260200162000e46565b81601f8201121562000de25780516001600160401b03811162000a00576040519262000e9f601f8301601f19166020018562000e1f565b8184526020828401011162000de25762000ec0916020808501910162000e43565b90565b51906001600160a01b038216820362000de257565b6040519062000ee78262000de7565b60006080838281528260208201528260408201528260608201520152565b62000f0f62000ed8565b506009546001600160a01b0390811680156200116f5781600a541662000f4a83600b541693600c54169262000f4362000ed8565b50620011f6565b9260409081519384938492633fabe5a360e21b9182855260a097889160049889915afa938415620010f85760009462001146575b5060008412620011035790868693928651978880928582525afa958615620010f857600096620010cf575b50600086126200108c5786908386518094819382525afa958615620010815760009662001046575b50506000851262001003575081519462000feb8662000de7565b85526020850152830152606082015242608082015290565b606490602084519162461bcd60e51b8352820152601760248201527f496e76616c69642077696e6420737065656420646174610000000000000000006044820152fd5b6200106b929650803d1062001079575b62001062818362000e1f565b810190620011bf565b505050905093388062000fd1565b503d62001056565b84513d6000823e3d90fd5b845162461bcd60e51b8152602081850152601560248201527f496e76616c6964207261696e66616c6c206461746100000000000000000000006044820152606490fd5b620010eb919650873d8911620010795762001062818362000e1f565b5050509050943862000fa9565b85513d6000823e3d90fd5b845162461bcd60e51b8152602081880152601560248201527f496e76616c69642068756d6964697479206461746100000000000000000000006044820152606490fd5b62001162919450873d8911620010795762001062818362000e1f565b5050509050923862000f7e565b50506040516200117f8162000de7565b6107d081526113886020820152600060408201526103e8606082015263ffffffff4216608082015290565b51906001600160501b038216820362000de257565b908160a091031262000de257620011d681620011aa565b9160208201519160408101519162000ec0608060608401519301620011aa565b604051633fabe5a360e21b81529060a090829060049082906001600160a01b03165afa90811562001251576000916200122d575090565b62001249915060a03d8111620010795762001062818362000e1f565b505050905090565b6040513d6000823e3d90fd5b600d546001600160a01b031680156200127b5762000ec090620011f6565b506207a12090565b906020916200129e8151809281855285808601910162000e43565b601f01601f1916010190565b60ff60055460c01c166005811015620015075780156200153357620012ce6200125d565b60001982019182116200151d57600582101562001507576000918252602091600883526040936008858320015491600a830463ffffffff421693818101808211620014f3578611156200147a575060c060008051602062003a498339815191529188519087825288820152608089820152601560808201527f4f5241434c455f50524943455f494e435245415345000000000000000000000060a0820152856060820152a15b6014840490818584119386856000146200146857620013939162001537565b11620013a3575b50505050505050565b60008051602062003a49833981519152966200141593608092506000146200142b578051620013d28162000e03565b601881527f53544147455f50524943455f41424f56455f4f5241434c45000000000000000088820152925b81519788978852870152850152608084019062001283565b9060608301520390a1388080808080806200139a565b8051620014388162000e03565b601881527f53544147455f50524943455f42454c4f575f4f5241434c4500000000000000008882015292620013fd565b90620014749162001537565b62001393565b81620014869162001537565b851062001495575b5062001374565b60c060008051602062003a498339815191529188519087825288820152608089820152601560808201527f4f5241434c455f50524943455f4445435245415345000000000000000000000060a0820152856060820152a1386200148e565b634e487b7160e01b84526011600452602484fd5b634e487b7160e01b600052602160045260246000fd5b634e487b7160e01b600052601160045260246000fd5b5050565b919082039182116200151d5756fe6080604052600436101561001257600080fd5b60003560e01c806306fdde03146118175780630822a1b7146114575780631b3012a31461143957806322f3e2d41461141357806323feda0a146113cf5780632bbc26431461137c5780632df9fd5114611333578063311cbc91146113155780633820f361146111e4578063516f279e146111c85780635539d8bb146111aa5780635abb2fda14610de75780635bf5d54c14610dbc5780637284e41614610d8c578063aecf2d1414610cac578063af23e74f14610476578063b7697e3614610458578063bca9f25914610392578063cf09e0d01461036b578063d811fcf014610344578063df1ea5e6146101c55763fc72a3851461010e57600080fd5b346101c05760003660031901126101c0576101606005546101bc600754916101346118e3565b9261013d611a37565b9060ff61016e61014b61199e565b93604051988998610100808b528a0190611b94565b9088820360208a0152611b94565b936001600160a01b038116604088015263ffffffff8160a01c16606088015261019f60808801838360c01c16611c83565b60c81c16151560a086015260c085015283820360e0850152611b94565b0390f35b600080fd5b346101c05760003660031901126101c05760055460ff8160c01c16600581101561032e576003036102ea5760ff60c01b19780400000000000000000000000000000000000000000000000091161760055563ffffffff42166102b860405161022c8161186d565b600081526000602082015260006040820152600060608201528260808201526040519260106101008086528501527f50726f6475637420636f6e73756d6564000000000000000000000000000000006101208501526020840152604083019060808091805184526020810151602085015260408101516040850152606081015160608501520151910152565b600060e082015260047f834b586f2b321f90c8a3532f67ff7ea82946afdcb59302eea07ee17ae9d2fda06101403393a3005b606460405162461bcd60e51b815260206004820152601f60248201527f50726f64756374206d7573742062652061742072657461696c207374616765006044820152fd5b634e487b7160e01b600052602160045260246000fd5b346101c05760003660031901126101c05760206001600160a01b0360055416604051908152f35b346101c05760003660031901126101c057602063ffffffff60055460a01c16604051908152f35b346101c05760203660031901126101c05760043560058110156101c0576103bd63ffffffff91611c90565b8054906103cc60018201611acd565b61044e60028301549261041660086103e660038401611ca9565b9201549360405197876001600160a01b038a9916895260a01c166020880152610140806040890152870190611b94565b936060860152608085019060808091805184526020810151602085015260408101516040850152606081015160608501520151910152565b6101208301520390f35b346101c05760003660031901126101c0576020600354604051908152f35b346101c05761048436611bb9565b90604051630c0112f360e21b8152336004820152600260248201526020816044816001600160a01b037f0000000000000000000000000000000000000000000000000000000000000000165afa8015610ca0576104e991600091610c71575b50611cfd565b6005549060ff8260c01c16600581101561032e5760018101809111610c5b5761051490600314611d48565b61051f831515611d93565b610527611e5b565b50610530611ebf565b91780300000000000000000000000000000000000000000000000060ff60c01b196105596121dd565b921617600555806007556040516020810190858483376105896020828881016000838201520380845201826118c1565b51902060405161059881611889565b33815263ffffffff421660208201526105b086611dde565b916105be60405193846118c1565b86835236878601116101c057868560208501376000602088850101526040820192835260608201528460808201528260a0820152600360005260086020526040600020916001600160a01b0382511683549077ffffffffffffffffffffffffffffffffffffffffffffffff1963ffffffff60a01b602086015160a01b169216171783555180519067ffffffffffffffff8211610c45576106616001850154611833565b601f8111610bfe575b50602090601f8311600114610b63576003979593837f834b586f2b321f90c8a3532f67ff7ea82946afdcb59302eea07ee17ae9d2fda098969460089460a094600092610b58575b5050600019828c1b1c1916600191821b17908501555b6060810151600285015560808082015180518b87015560208101516004870155604081015160058701556060810151600687015501516007850155015191015582516105dc811280918115610b4c575b506109fa575b506020830151610fa08110809181156109ee575b5061089c575b506113886040840151116107c7575b61074f81612200565b6107af6040519387610100808752860152876101209485870137600084898701015263ffffffff42166020860152604085019060808091805184526020810151602085015260408101516040850152606081015160608501520151910152565b60e08301523394601f01601f191682018290030190a3005b7f15ec3cc1e26a8fb9d2f31caedd129c736758c59d5994eea541e32f61e785b8f661018060405160086101008083528201527f5241494e46414c4c00000000000000000000000000000000000000000000000061012082015260176101408060208401528201527f4865617679207261696e66616c6c20646574656374656400000000000000000061016082015261088a604082018760808091805184526020810151602085015260408101516040850152606081015160608501520151910152565b63ffffffff421660e0820152a1610746565b1561098f577f15ec3cc1e26a8fb9d2f31caedd129c736758c59d5994eea541e32f61e785b8f66109456040516108d1816118a5565b601081527f48756d696469747920746f6f206c6f770000000000000000000000000000000060208201525b60405191829160086101008085528401527f48554d4944495459000000000000000000000000000000000000000000000000610120840152610140806020850152830190611b94565b61097a604083018860808091805184526020810151602085015260408101516040850152606081015160608501520151910152565b63ffffffff421660e08301520390a186610737565b7f15ec3cc1e26a8fb9d2f31caedd129c736758c59d5994eea541e32f61e785b8f66109456040516109bf816118a5565b601181527f48756d696469747920746f6f206869676800000000000000000000000000000060208201526108fc565b61177091501188610731565b15610aed577f15ec3cc1e26a8fb9d2f31caedd129c736758c59d5994eea541e32f61e785b8f6610aa3604051610a2f816118a5565b601381527f54656d706572617475726520746f6f206c6f770000000000000000000000000060208201525b604051918291600b6101008085528401527f54454d5045524154555245000000000000000000000000000000000000000000610120840152610140806020850152830190611b94565b610ad8604083018860808091805184526020810151602085015260408101516040850152606081015160608501520151910152565b63ffffffff421660e08301520390a18661071d565b7f15ec3cc1e26a8fb9d2f31caedd129c736758c59d5994eea541e32f61e785b8f6610aa3604051610b1d816118a5565b601481527f54656d706572617475726520746f6f20686967680000000000000000000000006020820152610a5a565b6109c491501388610717565b015190508c806106b1565b906001850160005260206000209160005b601f1985168110610be657509360018460089460a09460039c9a987f834b586f2b321f90c8a3532f67ff7ea82946afdcb59302eea07ee17ae9d2fda09c9a98601f19811610610bce575b505050811b0160018501556106c7565b0151600019838e1b60f8161c191690558c8080610bbe565b91926020600181928685015181550194019201610b74565b600185016000526020600020601f840160051c810160208510610c3e575b601f830160051c82018110610c3257505061066a565b60008155600101610c1c565b5080610c1c565b634e487b7160e01b600052604160045260246000fd5b634e487b7160e01b600052601160045260246000fd5b610c93915060203d602011610c99575b610c8b81836118c1565b810190611ce5565b846104e3565b503d610c81565b6040513d6000823e3d90fd5b346101c05760003660031901126101c0576001806000600560ff815460c01c168482821015905b610ce5575b6020856040519015158152f35b8061032e57818411610d87578284101561032e57610d0a610d0585611c90565b611dfa565b602063ffffffff8183015116610d30575b50506000198414610c5b578580940193610cd3565b606090604083015190610d62604051918281610d558183019687815193849201611b71565b81010380845201826118c1565b51902091015103610d74578680610d1b565b5050505050506020600082808080610cd8565b610cd8565b346101c05760003660031901126101c0576101bc610da8611a37565b604051918291602083526020830190611b94565b346101c05760003660031901126101c057602060ff60055460c01c16610de56040518092611c83565bf35b346101c057610df536611bb9565b90604051630c0112f360e21b8152336004820152600360248201526020816044816001600160a01b037f0000000000000000000000000000000000000000000000000000000000000000165afa8015610ca057610e5991600091610c715750611cfd565b6005549060ff8260c01c16600581101561032e5760018101809111610c5b57610e8490600214611d48565b610e8f831515611d93565b610e97611e5b565b50610ea0611ebf565b91780200000000000000000000000000000000000000000000000060ff60c01b19610ec96121dd565b92161760055580600755604051602081019085848337610ef96020828881016000838201520380845201826118c1565b519020604051610f0881611889565b33815263ffffffff42166020820152610f2086611dde565b91610f2e60405193846118c1565b86835236878601116101c057868560208501376000602088850101526040820192835260608201528460808201528260a0820152600260005260086020526040600020916001600160a01b0382511683549077ffffffffffffffffffffffffffffffffffffffffffffffff1963ffffffff60a01b602086015160a01b169216171783555180519067ffffffffffffffff8211610c4557610fd16001850154611833565b601f8111611163575b50602090601f83116001146110c7576002979593837f834b586f2b321f90c8a3532f67ff7ea82946afdcb59302eea07ee17ae9d2fda098969460089460a0946000926110bc575b50508160011b916000199060031b1c19161760018501555b6060810151898501556080808201518051600387015560208101516004870155604081015160058701556060810151600687015501516007850155015191015582516105dc811280918115610b4c57506109fa57506020830151610fa08110809181156109ee575061089c57506113886040840151116107c75761074f81612200565b015190508c80611021565b906001850160005260206000209160005b601f198516811061114b57509360018460089460a09460029c9a987f834b586f2b321f90c8a3532f67ff7ea82946afdcb59302eea07ee17ae9d2fda09c9a98601f19811610611132575b505050811b016001850155611039565b015160001960f88460031b161c191690558c8080611122565b919260206001819286850151815501940192016110d8565b600185016000526020600020601f840160051c8101602085106111a3575b601f830160051c82018110611197575050610fda565b60008155600101611181565b5080611181565b346101c05760003660031901126101c0576020600754604051908152f35b346101c05760003660031901126101c0576101bc610da861199e565b346101c05760003660031901126101c0576111fd611e86565b50611206611e86565b5061120f611e86565b50611218611e86565b50600860205260036000526112eb7fad67d757c34507f157cacfa2e3153e9f260a2244f30428821be7be64587ac55f6101bc7f6add646517a5b0f6793cd5891b7937d28a5b2981a5d88ebc7cd776088fea90416113077f625b35f5e76f098dd7c3a05b10e2e5e78a4a01228d60c3b143426cdf36d264556112f96112d66112d06112ca6112c47f5eff886ea0ce6ca488a3d6e336d6c0f75f46d19b42c06ce5ee98e42c96d256c7611dfa565b98611dfa565b95611dfa565b92611dfa565b93604051978897608089526080890190611c03565b908782036020890152611c03565b908582036040870152611c03565b908382036060850152611c03565b346101c05760003660031901126101c0576020600254604051908152f35b346101c05760203660031901126101c05760043560058110156101c057611368610d056101bc92611362611e86565b50611c90565b604051918291602083526020830190611c03565b346101c05760003660031901126101c05760a06001600160a01b0380600954169080600a54169080600b541681600c541691600d5416926040519485526020850152604084015260608301526080820152f35b346101c05760003660031901126101c05760206040516001600160a01b037f0000000000000000000000000000000000000000000000000000000000000000168152f35b346101c05760003660031901126101c057602060ff60055460c81c166040519015158152f35b346101c05760003660031901126101c0576020600654604051908152f35b346101c05761146536611bb9565b90604051630c0112f360e21b8152336004820152600160248201526020816044816001600160a01b037f0000000000000000000000000000000000000000000000000000000000000000165afa8015610ca0576114c991600091610c715750611cfd565b6005549060ff8260c01c16600581101561032e5760018101809111610c5b576114f490600114611d48565b6114ff831515611d93565b611507611e5b565b50611510611ebf565b91780100000000000000000000000000000000000000000000000060ff60c01b196115396121dd565b921617600555806007556040516020810190858483376115696020828881016000838201520380845201826118c1565b51902060405161157881611889565b33815263ffffffff4216602082015261159086611dde565b9161159e60405193846118c1565b86835236878601116101c057868560208501376000602088850101526040820192835260608201528460808201528260a0820152600160005260086020526040600020916001600160a01b0382511683549077ffffffffffffffffffffffffffffffffffffffffffffffff1963ffffffff60a01b602086015160a01b169216171783555180519067ffffffffffffffff8211610c45576116416001850154611833565b601f81116117d0575b50602090601f8311600114611736576001979593837f834b586f2b321f90c8a3532f67ff7ea82946afdcb59302eea07ee17ae9d2fda098969460089460a09460009261172b575b5050600019600383901b1c1916908a1b17848a01555b606081015160028501556080808201518051600387015560208101516004870155604081015160058701556060810151600687015501516007850155015191015582516105dc811280918115610b4c57506109fa57506020830151610fa08110809181156109ee575061089c57506113886040840151116107c75761074f81612200565b015190508c80611691565b906001850160005260206000209160005b601f19851681106117b857509360018460089460a094839c9a987f834b586f2b321f90c8a3532f67ff7ea82946afdcb59302eea07ee17ae9d2fda09c9a98601f1981161061179f575b505050811b01898501556116a7565b015160001960f88460031b161c191690558c8080611790565b91926020600181928685015181550194019201611747565b600185016000526020600020601f840160051c810160208510611810575b601f830160051c8201811061180457505061164a565b600081556001016117ee565b50806117ee565b346101c05760003660031901126101c0576101bc610da86118e3565b90600182811c92168015611863575b602083101461184d57565b634e487b7160e01b600052602260045260246000fd5b91607f1691611842565b60a0810190811067ffffffffffffffff821117610c4557604052565b60c0810190811067ffffffffffffffff821117610c4557604052565b6040810190811067ffffffffffffffff821117610c4557604052565b90601f8019910116810190811067ffffffffffffffff821117610c4557604052565b604051906000828154916118f683611833565b8083529260019081811690811561197c575060011461191f575b5061191d925003836118c1565b565b600080805291507f290decd9548b62a8d60345a988386fc84ba6bc95484008f6362f93160ef3e5635b848310611961575061191d935050810160200138611910565b81935090816020925483858a01015201910190918592611948565b90506020925061191d94915060ff191682840152151560051b82010138611910565b60405190600082600454916119b283611833565b8083529260019081811690811561197c57506001146119d8575061191d925003836118c1565b6004600090815291507f8a35acfbc15ff81a39ae7d344fd709f28e8600b4aa8c65c6b64bfe7fe36bd19b5b848310611a1c575061191d935050810160200138611910565b81935090816020925483858a01015201910190918592611a03565b60405190600082600191825492611a4d84611833565b8084529381811690811561197c5750600114611a70575061191d925003836118c1565b600081815291507fb10e2d527612073b26eecdfd717e6a320cf44b4afac2b0732d9fcbe2b7fa0cf65b848310611ab2575061191d935050810160200138611910565b81935090816020925483858a01015201910190918592611a99565b9060405191826000825492611ae184611833565b908184526001948581169081600014611b4e5750600114611b0b575b505061191d925003836118c1565b9093915060005260209081600020936000915b818310611b3657505061191d93508201013880611afd565b85548884018501529485019487945091830191611b1e565b91505061191d94506020925060ff191682840152151560051b8201013880611afd565b60005b838110611b845750506000910152565b8181015183820152602001611b74565b90602091611bad81518092818552858086019101611b71565b601f01601f1916010190565b9060206003198301126101c05760043567ffffffffffffffff928382116101c057806023830112156101c05781600401359384116101c057602484830101116101c0576024019190565b906001600160a01b03825116815263ffffffff602083015116602082015261012060a0611c3f6040850151610140806040870152850190611b94565b60608086015185820152608080870151805182880152602081015160a0880152604081015160c08801529182015160e0870152015161010085015293015191015290565b90600582101561032e5752565b600581101561032e576000526008602052604060002090565b90604051611cb68161186d565b608060048294805484526001810154602085015260028101546040850152600381015460608501520154910152565b908160209103126101c0575180151581036101c05790565b15611d0457565b606460405162461bcd60e51b815260206004820152601c60248201527f4e6f74207265676973746572656420666f72207468697320726f6c65000000006044820152fd5b15611d4f57565b606460405162461bcd60e51b815260206004820152601860248201527f496e76616c6964207374616765207472616e736974696f6e00000000000000006044820152fd5b15611d9a57565b606460405162461bcd60e51b815260206004820152601660248201527f537472696e672063616e6e6f7420626520656d707479000000000000000000006044820152fd5b67ffffffffffffffff8111610c4557601f01601f191660200190565b90604051611e0781611889565b60a06008829463ffffffff81546001600160a01b0381168652841c166020850152611e3460018201611acd565b604085015260028101546060850152611e4f60038201611ca9565b60808501520154910152565b60405190611e688261186d565b60006080838281528260208201528260408201528260608201520152565b60405190611e9382611889565b600060a08382815282602082015260606040820152826060820152611eb6611e5b565b60808201520152565b611ec7611e5b565b506001600160a01b03806009541680156121055781600a5416611efc83600b541693600c541692611ef6611e5b565b5061218a565b9260409081519384938492633fabe5a360e21b9182855260a097889160049889915afa938415612093576000946120e1575b506000841261209e5790868693928651978880928582525afa9586156120935760009661206f575b506000861261202c5786908386518094819382525afa95861561202157600096611fed575b505060008512611faa5750815194611f928661186d565b85526020850152830152606082015242608082015290565b606490602084519162461bcd60e51b8352820152601760248201527f496e76616c69642077696e6420737065656420646174610000000000000000006044820152fd5b61200d929650803d1061201a575b61200581836118c1565b810190612155565b5050509050933880611f7b565b503d611ffb565b84513d6000823e3d90fd5b606483602087519162461bcd60e51b8352820152601560248201527f496e76616c6964207261696e66616c6c206461746100000000000000000000006044820152fd5b612087919650873d891161201a5761200581836118c1565b50505090509438611f56565b85513d6000823e3d90fd5b606486602087519162461bcd60e51b8352820152601560248201527f496e76616c69642068756d6964697479206461746100000000000000000000006044820152fd5b6120f9919450873d891161201a5761200581836118c1565b50505090509238611f2e565b50506040516121138161186d565b6107d081526113886020820152600060408201526103e8606082015263ffffffff4216608082015290565b519069ffffffffffffffffffff821682036101c057565b908160a09103126101c0576121698161213e565b9160208201519160408101519161218760806060840151930161213e565b90565b60a06001600160a01b0391600460405180948193633fabe5a360e21b8352165afa908115610ca0576000916121bd575090565b6121d5915060a03d811161201a5761200581836118c1565b505050905090565b6001600160a01b03600d541680156121f8576121879061218a565b506207a12090565b60ff60055460c01c16600581101561032e57801561245c576122206121dd565b906000198101908111610c5b57600581101561032e57612241600891611c90565b015490600a820463ffffffff421692818101808211610c5b578311156123d4575060c07f30514ef0585706987fdf2ac825879e457cbbe8d1d5be093d17ca674c51f8919d9160405190848252602082015260806040820152601560808201527f4f5241434c455f50524943455f494e435245415345000000000000000000000060a0820152846060820152a15b6014810491828285119483866000146123c5576122ea91612460565b116122f6575b50505050565b7f30514ef0585706987fdf2ac825879e457cbbe8d1d5be093d17ca674c51f8919d93156123875761237560405161232c816118a5565b601881527f53544147455f50524943455f41424f56455f4f5241434c45000000000000000060208201525b60405194859485526020850152608060408501526080840190611b94565b9060608301520390a1388080806122f0565b612375604051612396816118a5565b601881527f53544147455f50524943455f42454c4f575f4f5241434c4500000000000000006020820152612357565b906123cf91612460565b6122ea565b816123de91612460565b82106123eb575b506122ce565b60c07f30514ef0585706987fdf2ac825879e457cbbe8d1d5be093d17ca674c51f8919d9160405190848252602082015260806040820152601560808201527f4f5241434c455f50524943455f4445435245415345000000000000000000000060a0820152846060820152a1386123e5565b5050565b91908203918211610c5b5756fea26469706673582212200d77b7beba0586153e09cf32fa2c976d69ed3b17d93ffbeb30f10360bbe7f90f64736f6c6343000813003315ec3cc1e26a8fb9d2f31caedd129c736758c59d5994eea541e32f61e785b8f6290decd9548b62a8d60345a988386fc84ba6bc95484008f6362f93160ef3e563b10e2d527612073b26eecdfd717e6a320cf44b4afac2b0732d9fcbe2b7fa0cf630514ef0585706987fdf2ac825879e457cbbe8d1d5be093d17ca674c51f8919da2646970667358221220df0e7ddc41f5b7d5bc673f3ab9b9357e11098c1c2b86919aa4794fe4789d175164736f6c63430008130033","opcodes":"PUSH1 0x80 CALLVALUE PUSH2 0x101 JUMPI PUSH1 0x1F PUSH2 0x41E0 CODESIZE DUP2 SWAP1 SUB SWAP2 DUP3 ADD PUSH1 0x1F NOT AND DUP4 ADD SWAP2 PUSH1 0x1 PUSH1 0x1 PUSH1 0x40 SHL SUB DUP4 GT DUP5 DUP5 LT OR PUSH2 0x106 JUMPI DUP1 DUP5 SWAP3 PUSH1 0xE0 SWAP5 PUSH1 0x40 MSTORE DUP4 CODECOPY DUP2 ADD SUB SLT PUSH2 0x101 JUMPI PUSH2 0x47 DUP2 PUSH2 0x11C JUMP JUMPDEST SWAP1 PUSH2 0x54 PUSH1 0x20 DUP3 ADD PUSH2 0x11C JUMP JUMPDEST PUSH2 0x60 PUSH1 0x40 DUP4 ADD PUSH2 0x11C JUMP JUMPDEST PUSH2 0x6C PUSH1 0x60 DUP5 ADD PUSH2 0x11C JUMP JUMPDEST SWAP3 PUSH2 0x79 PUSH1 0x80 DUP3 ADD PUSH2 0x11C JUMP JUMPDEST SWAP3 PUSH2 0x92 PUSH1 0xC0 PUSH2 0x8B PUSH1 0xA0 DUP6 ADD PUSH2 0x11C JUMP JUMPDEST SWAP4 ADD PUSH2 0x11C JUMP JUMPDEST SWAP4 PUSH1 0x1 DUP1 PUSH1 0xA0 SHL SUB DUP1 SWAP7 DUP2 DUP1 SWAP7 DUP2 DUP1 SWAP7 DUP2 PUSH1 0x1 DUP1 PUSH1 0xA0 SHL SUB NOT SWAP14 AND DUP14 PUSH1 0x0 SLOAD AND OR PUSH1 0x0 SSTORE AND DUP12 PUSH1 0x1 SLOAD AND OR PUSH1 0x1 SSTORE AND DUP10 PUSH1 0x2 SLOAD AND OR PUSH1 0x2 SSTORE AND DUP8 PUSH1 0x3 SLOAD AND OR PUSH1 0x3 SSTORE AND DUP6 PUSH1 0x4 SLOAD AND OR PUSH1 0x4 SSTORE AND DUP4 PUSH1 0x5 SLOAD AND OR PUSH1 0x5 SSTORE AND SWAP1 PUSH1 0x6 SLOAD AND OR PUSH1 0x6 SSTORE PUSH1 0x40 MLOAD PUSH2 0x40AF SWAP1 DUP2 PUSH2 0x131 DUP3 CODECOPY RETURN JUMPDEST PUSH1 0x0 DUP1 REVERT JUMPDEST PUSH4 0x4E487B71 PUSH1 0xE0 SHL PUSH1 0x0 MSTORE PUSH1 0x41 PUSH1 0x4 MSTORE PUSH1 0x24 PUSH1 0x0 REVERT JUMPDEST MLOAD SWAP1 PUSH1 0x1 PUSH1 0x1 PUSH1 0xA0 SHL SUB DUP3 AND DUP3 SUB PUSH2 0x101 JUMPI JUMP INVALID PUSH1 0x80 DUP1 PUSH1 0x40 MSTORE PUSH1 0x4 CALLDATASIZE LT ISZERO PUSH3 0x14 JUMPI PUSH1 0x0 DUP1 REVERT JUMPDEST PUSH1 0x0 CALLDATALOAD PUSH1 0xE0 SHR SWAP1 DUP2 PUSH4 0x57F426D EQ PUSH3 0x529 JUMPI POP DUP1 PUSH4 0x145788D2 EQ PUSH3 0x500 JUMPI DUP1 PUSH4 0x23FEDA0A EQ PUSH3 0x4D7 JUMPI DUP1 PUSH4 0x741BEF1A EQ PUSH3 0x4AE JUMPI DUP1 PUSH4 0x7B103999 EQ PUSH3 0x485 JUMPI DUP1 PUSH4 0x8AD3AF83 EQ PUSH3 0x45C JUMPI DUP1 PUSH4 0xB0A5C865 EQ PUSH3 0x433 JUMPI PUSH4 0xF6957D12 EQ PUSH3 0x80 JUMPI PUSH1 0x0 DUP1 REVERT JUMPDEST CALLVALUE PUSH3 0x38E JUMPI PUSH1 0xC0 CALLDATASIZE PUSH1 0x3 NOT ADD SLT PUSH3 0x38E JUMPI PUSH1 0x4 CALLDATALOAD PUSH8 0xFFFFFFFFFFFFFFFF DUP2 GT PUSH3 0x38E JUMPI PUSH3 0xB6 SWAP1 CALLDATASIZE SWAP1 PUSH1 0x4 ADD PUSH3 0x572 JUMP JUMPDEST PUSH1 0x24 CALLDATALOAD PUSH8 0xFFFFFFFFFFFFFFFF DUP2 GT PUSH3 0x38E JUMPI PUSH3 0xD9 SWAP1 CALLDATASIZE SWAP1 PUSH1 0x4 ADD PUSH3 0x572 JUMP JUMPDEST PUSH1 0x84 CALLDATALOAD PUSH8 0xFFFFFFFFFFFFFFFF DUP2 GT PUSH3 0x38E JUMPI PUSH3 0xFC SWAP1 CALLDATASIZE SWAP1 PUSH1 0x4 ADD PUSH3 0x572 JUMP JUMPDEST SWAP1 PUSH1 0xA4 CALLDATALOAD PUSH8 0xFFFFFFFFFFFFFFFF DUP2 GT PUSH3 0x38E JUMPI PUSH3 0x120 SWAP1 CALLDATASIZE SWAP1 PUSH1 0x4 ADD PUSH3 0x572 JUMP JUMPDEST SWAP1 PUSH1 0x1 PUSH1 0x1 PUSH1 0xA0 SHL SUB SWAP3 DUP4 PUSH1 0x0 SLOAD AND SWAP1 PUSH1 0x40 MLOAD PUSH32 0x30044BCC00000000000000000000000000000000000000000000000000000000 DUP2 MSTORE CALLER PUSH1 0x4 DUP3 ADD MSTORE PUSH1 0x0 PUSH1 0x24 DUP3 ADD MSTORE PUSH1 0x20 DUP2 PUSH1 0x44 DUP2 DUP7 GAS STATICCALL SWAP1 DUP2 ISZERO PUSH3 0x382 JUMPI PUSH1 0x0 SWAP2 PUSH3 0x3F1 JUMPI JUMPDEST POP ISZERO PUSH3 0x393 JUMPI DUP5 PUSH1 0x2 SLOAD AND DUP6 PUSH1 0x3 SLOAD AND DUP7 PUSH1 0x4 SLOAD AND SWAP1 DUP8 PUSH1 0x5 SLOAD AND SWAP3 DUP9 PUSH1 0x6 SLOAD AND SWAP5 PUSH1 0x40 MLOAD SWAP9 DUP10 PUSH2 0x3A69 DUP2 ADD LT PUSH8 0xFFFFFFFFFFFFFFFF PUSH2 0x3A69 DUP13 ADD GT OR PUSH3 0x353 JUMPI PUSH3 0x233 PUSH3 0x24A SWAP3 PUSH3 0x20B DUP13 SWAP12 DUP16 PUSH3 0x1F3 SWAP1 DUP15 PUSH2 0x3A69 PUSH3 0x611 DUP3 CODECOPY PUSH2 0x180 PUSH2 0x3A69 SWAP1 SWAP2 ADD DUP2 DUP2 MSTORE ADD SWAP1 PUSH3 0x5CE JUMP JUMPDEST SWAP1 DUP14 PUSH1 0x20 PUSH2 0x3A69 DUP3 ADD DUP5 SUB SWAP2 PUSH2 0x3A69 ADD ADD MSTORE PUSH3 0x5CE JUMP JUMPDEST PUSH1 0x44 CALLDATALOAD PUSH2 0x3A69 DUP14 ADD PUSH1 0x40 DUP2 ADD SWAP2 SWAP1 SWAP2 MSTORE PUSH1 0x64 CALLDATALOAD PUSH1 0x60 DUP3 ADD MSTORE DUP1 DUP3 SUB PUSH1 0x80 SWAP1 SWAP2 ADD MSTORE SWAP1 PUSH3 0x5CE JUMP JUMPDEST SWAP1 PUSH2 0x3A69 DUP11 ADD DUP3 SUB PUSH1 0xA0 PUSH2 0x3A69 DUP13 ADD ADD MSTORE PUSH3 0x5CE JUMP JUMPDEST SWAP6 PUSH1 0xC0 PUSH2 0x3A69 DUP10 ADD ADD MSTORE PUSH1 0xE0 PUSH2 0x3A69 DUP9 ADD ADD MSTORE PUSH2 0x100 PUSH2 0x3A69 DUP8 ADD ADD MSTORE PUSH2 0x120 PUSH2 0x3A69 DUP7 ADD ADD MSTORE PUSH2 0x140 PUSH2 0x3A69 DUP6 ADD ADD MSTORE PUSH2 0x160 PUSH2 0x3A69 DUP5 ADD ADD MSTORE SUB SWAP1 PUSH1 0x0 CREATE DUP1 ISZERO PUSH3 0x382 JUMPI DUP2 AND SWAP1 PUSH1 0x1 SLOAD AND SWAP2 DUP3 EXTCODESIZE ISZERO PUSH3 0x38E JUMPI PUSH1 0x0 DUP1 SWAP4 PUSH1 0x24 PUSH1 0x40 MLOAD DUP1 SWAP7 DUP2 SWAP4 PUSH32 0x2D46F5DF00000000000000000000000000000000000000000000000000000000 DUP4 MSTORE DUP8 PUSH1 0x4 DUP5 ADD MSTORE GAS CALL DUP1 ISZERO PUSH3 0x382 JUMPI PUSH3 0x337 JUMPI JUMPDEST PUSH1 0x20 SWAP3 POP DUP2 PUSH32 0x3D9F306EB3CCDAE57CF95B68CECCF00EE5562F86254884FA73C0960447F3E28F PUSH3 0x323 PUSH1 0x40 MLOAD SWAP4 PUSH1 0x40 DUP6 MSTORE PUSH1 0x40 DUP6 ADD SWAP1 PUSH3 0x5CE JUMP JUMPDEST SWAP3 TIMESTAMP DUP7 DUP3 ADD MSTORE DUP1 CALLER SWAP5 SUB SWAP1 LOG3 PUSH1 0x40 MLOAD SWAP1 DUP2 MSTORE RETURN JUMPDEST PUSH8 0xFFFFFFFFFFFFFFFF DUP4 GT PUSH3 0x353 JUMPI PUSH1 0x20 SWAP3 PUSH1 0x40 MSTORE PUSH3 0x2E6 JUMP JUMPDEST PUSH32 0x4E487B7100000000000000000000000000000000000000000000000000000000 PUSH1 0x0 MSTORE PUSH1 0x41 PUSH1 0x4 MSTORE PUSH1 0x24 PUSH1 0x0 REVERT JUMPDEST PUSH1 0x40 MLOAD RETURNDATASIZE PUSH1 0x0 DUP3 RETURNDATACOPY RETURNDATASIZE SWAP1 REVERT JUMPDEST PUSH1 0x0 DUP1 REVERT JUMPDEST PUSH1 0x64 PUSH1 0x40 MLOAD PUSH32 0x8C379A000000000000000000000000000000000000000000000000000000000 DUP2 MSTORE PUSH1 0x20 PUSH1 0x4 DUP3 ADD MSTORE PUSH1 0x1C PUSH1 0x24 DUP3 ADD MSTORE PUSH32 0x4E6F74207265676973746572656420666F72207468697320726F6C6500000000 PUSH1 0x44 DUP3 ADD MSTORE REVERT JUMPDEST SWAP1 POP PUSH1 0x20 DUP2 RETURNDATASIZE PUSH1 0x20 GT PUSH3 0x42A JUMPI JUMPDEST DUP2 PUSH3 0x40F PUSH1 0x20 SWAP4 DUP4 PUSH3 0x54F JUMP JUMPDEST DUP2 ADD SUB SLT PUSH3 0x38E JUMPI MLOAD DUP1 ISZERO ISZERO DUP2 SUB PUSH3 0x38E JUMPI CODESIZE PUSH3 0x17D JUMP JUMPDEST RETURNDATASIZE SWAP2 POP PUSH3 0x400 JUMP JUMPDEST CALLVALUE PUSH3 0x38E JUMPI PUSH1 0x0 CALLDATASIZE PUSH1 0x3 NOT ADD SLT PUSH3 0x38E JUMPI PUSH1 0x20 PUSH1 0x1 PUSH1 0x1 PUSH1 0xA0 SHL SUB PUSH1 0x5 SLOAD AND PUSH1 0x40 MLOAD SWAP1 DUP2 MSTORE RETURN JUMPDEST CALLVALUE PUSH3 0x38E JUMPI PUSH1 0x0 CALLDATASIZE PUSH1 0x3 NOT ADD SLT PUSH3 0x38E JUMPI PUSH1 0x20 PUSH1 0x1 PUSH1 0x1 PUSH1 0xA0 SHL SUB PUSH1 0x4 SLOAD AND PUSH1 0x40 MLOAD SWAP1 DUP2 MSTORE RETURN JUMPDEST CALLVALUE PUSH3 0x38E JUMPI PUSH1 0x0 CALLDATASIZE PUSH1 0x3 NOT ADD SLT PUSH3 0x38E JUMPI PUSH1 0x20 PUSH1 0x1 PUSH1 0x1 PUSH1 0xA0 SHL SUB PUSH1 0x1 SLOAD AND PUSH1 0x40 MLOAD SWAP1 DUP2 MSTORE RETURN JUMPDEST CALLVALUE PUSH3 0x38E JUMPI PUSH1 0x0 CALLDATASIZE PUSH1 0x3 NOT ADD SLT PUSH3 0x38E JUMPI PUSH1 0x20 PUSH1 0x1 PUSH1 0x1 PUSH1 0xA0 SHL SUB PUSH1 0x6 SLOAD AND PUSH1 0x40 MLOAD SWAP1 DUP2 MSTORE RETURN JUMPDEST CALLVALUE PUSH3 0x38E JUMPI PUSH1 0x0 CALLDATASIZE PUSH1 0x3 NOT ADD SLT PUSH3 0x38E JUMPI PUSH1 0x20 PUSH1 0x1 PUSH1 0x1 PUSH1 0xA0 SHL SUB PUSH1 0x0 SLOAD AND PUSH1 0x40 MLOAD SWAP1 DUP2 MSTORE RETURN JUMPDEST CALLVALUE PUSH3 0x38E JUMPI PUSH1 0x0 CALLDATASIZE PUSH1 0x3 NOT ADD SLT PUSH3 0x38E JUMPI PUSH1 0x20 PUSH1 0x1 PUSH1 0x1 PUSH1 0xA0 SHL SUB PUSH1 0x2 SLOAD AND PUSH1 0x40 MLOAD SWAP1 DUP2 MSTORE RETURN JUMPDEST CALLVALUE PUSH3 0x38E JUMPI PUSH1 0x0 CALLDATASIZE PUSH1 0x3 NOT ADD SLT PUSH3 0x38E JUMPI PUSH1 0x20 SWAP1 PUSH1 0x1 PUSH1 0x1 PUSH1 0xA0 SHL SUB PUSH1 0x3 SLOAD AND DUP2 MSTORE RETURN JUMPDEST SWAP1 PUSH1 0x1F DUP1 NOT SWAP2 ADD AND DUP2 ADD SWAP1 DUP2 LT PUSH8 0xFFFFFFFFFFFFFFFF DUP3 GT OR PUSH3 0x353 JUMPI PUSH1 0x40 MSTORE JUMP JUMPDEST DUP2 PUSH1 0x1F DUP3 ADD SLT ISZERO PUSH3 0x38E JUMPI DUP1 CALLDATALOAD SWAP1 PUSH8 0xFFFFFFFFFFFFFFFF DUP3 GT PUSH3 0x353 JUMPI PUSH1 0x40 MLOAD SWAP3 PUSH3 0x5AB PUSH1 0x1F DUP5 ADD PUSH1 0x1F NOT AND PUSH1 0x20 ADD DUP6 PUSH3 0x54F JUMP JUMPDEST DUP3 DUP5 MSTORE PUSH1 0x20 DUP4 DUP4 ADD ADD GT PUSH3 0x38E JUMPI DUP2 PUSH1 0x0 SWAP3 PUSH1 0x20 DUP1 SWAP4 ADD DUP4 DUP7 ADD CALLDATACOPY DUP4 ADD ADD MSTORE SWAP1 JUMP JUMPDEST SWAP2 SWAP1 DUP3 MLOAD SWAP3 DUP4 DUP3 MSTORE PUSH1 0x0 JUMPDEST DUP5 DUP2 LT PUSH3 0x5FB JUMPI POP POP DUP3 PUSH1 0x0 PUSH1 0x20 DUP1 SWAP5 SWAP6 DUP5 ADD ADD MSTORE PUSH1 0x1F DUP1 NOT SWAP2 ADD AND ADD ADD SWAP1 JUMP JUMPDEST PUSH1 0x20 DUP2 DUP4 ADD DUP2 ADD MLOAD DUP5 DUP4 ADD DUP3 ADD MSTORE ADD PUSH3 0x5D9 JUMP INVALID PUSH1 0xA0 DUP1 PUSH1 0x40 MSTORE CALLVALUE PUSH3 0xDE2 JUMPI PUSH3 0x3A69 DUP1 CODESIZE SUB DUP1 SWAP2 PUSH3 0x20 DUP3 DUP6 PUSH3 0xE1F JUMP JUMPDEST DUP4 CODECOPY DUP2 ADD PUSH2 0x180 DUP3 DUP3 SUB SLT PUSH3 0xDE2 JUMPI DUP2 MLOAD PUSH1 0x1 PUSH1 0x1 PUSH1 0x40 SHL SUB DUP2 GT PUSH3 0xDE2 JUMPI DUP2 PUSH3 0x4F SWAP2 DUP5 ADD PUSH3 0xE68 JUMP JUMPDEST PUSH1 0x20 DUP4 ADD MLOAD SWAP1 SWAP3 SWAP1 PUSH1 0x1 PUSH1 0x1 PUSH1 0x40 SHL SUB DUP2 GT PUSH3 0xDE2 JUMPI DUP3 PUSH3 0x74 SWAP2 DUP4 ADD PUSH3 0xE68 JUMP JUMPDEST PUSH1 0x40 DUP3 ADD MLOAD PUSH1 0x60 DUP4 ADD MLOAD PUSH1 0x80 DUP5 ADD MLOAD SWAP2 SWAP4 SWAP1 SWAP3 SWAP2 PUSH1 0x1 PUSH1 0x1 PUSH1 0x40 SHL SUB DUP2 GT PUSH3 0xDE2 JUMPI DUP6 PUSH3 0xA5 SWAP2 DUP4 ADD PUSH3 0xE68 JUMP JUMPDEST PUSH1 0xA0 DUP3 ADD MLOAD SWAP1 SWAP6 PUSH1 0x1 PUSH1 0x1 PUSH1 0x40 SHL SUB DUP3 GT PUSH3 0xDE2 JUMPI PUSH3 0xC8 SWAP2 DUP4 ADD PUSH3 0xE68 JUMP JUMPDEST SWAP5 PUSH3 0xD7 PUSH1 0xC0 DUP4 ADD PUSH3 0xEC3 JUMP JUMPDEST PUSH3 0xE5 PUSH1 0xE0 DUP5 ADD PUSH3 0xEC3 JUMP JUMPDEST SWAP2 PUSH3 0xF5 PUSH2 0x100 DUP6 ADD PUSH3 0xEC3 JUMP JUMPDEST SWAP6 PUSH3 0x105 PUSH2 0x120 DUP7 ADD PUSH3 0xEC3 JUMP JUMPDEST SWAP8 PUSH3 0x124 PUSH2 0x160 PUSH3 0x11C PUSH2 0x140 DUP10 ADD PUSH3 0xEC3 JUMP JUMPDEST SWAP8 ADD PUSH3 0xEC3 JUMP JUMPDEST SWAP7 DUP12 MLOAD ISZERO PUSH3 0xD9D JUMPI DUP1 MLOAD ISZERO PUSH3 0xD4C JUMPI DUP4 MLOAD ISZERO PUSH3 0xD08 JUMPI DUP12 MLOAD PUSH1 0x1 PUSH1 0x1 PUSH1 0x40 SHL SUB DUP2 GT PUSH3 0xA00 JUMPI PUSH1 0x0 SLOAD PUSH1 0x1 DUP2 DUP2 SHR SWAP2 AND DUP1 ISZERO PUSH3 0xCFD JUMPI JUMPDEST PUSH1 0x20 DUP3 LT EQ PUSH3 0x9DF JUMPI PUSH1 0x1F DUP2 GT PUSH3 0xCA9 JUMPI JUMPDEST POP DUP1 PUSH1 0x20 PUSH1 0x1F DUP3 GT PUSH1 0x1 EQ PUSH3 0xC30 JUMPI PUSH1 0x0 SWAP2 PUSH3 0xC24 JUMPI JUMPDEST POP DUP2 PUSH1 0x1 SHL SWAP2 PUSH1 0x0 NOT SWAP1 PUSH1 0x3 SHL SHR NOT AND OR PUSH1 0x0 SSTORE JUMPDEST DUP1 MLOAD SWAP1 PUSH1 0x1 PUSH1 0x1 PUSH1 0x40 SHL SUB DUP3 GT PUSH3 0xA00 JUMPI PUSH1 0x1 SLOAD SWAP1 PUSH1 0x1 DUP3 DUP2 SHR SWAP3 AND DUP1 ISZERO PUSH3 0xC19 JUMPI JUMPDEST PUSH1 0x20 DUP4 LT EQ PUSH3 0x9DF JUMPI DUP2 PUSH1 0x1F DUP5 SWAP4 GT PUSH3 0xBB8 JUMPI JUMPDEST POP PUSH1 0x20 SWAP1 PUSH1 0x1F DUP4 GT PUSH1 0x1 EQ PUSH3 0xB3A JUMPI PUSH1 0x0 SWAP3 PUSH3 0xB2E JUMPI JUMPDEST POP POP DUP2 PUSH1 0x1 SHL SWAP2 PUSH1 0x0 NOT SWAP1 PUSH1 0x3 SHL SHR NOT AND OR PUSH1 0x1 SSTORE JUMPDEST PUSH1 0x2 SSTORE PUSH1 0x3 SSTORE DUP1 MLOAD SWAP1 PUSH1 0x1 PUSH1 0x1 PUSH1 0x40 SHL SUB DUP3 GT PUSH3 0xA00 JUMPI PUSH1 0x4 SLOAD SWAP1 PUSH1 0x1 DUP3 DUP2 SHR SWAP3 AND DUP1 ISZERO PUSH3 0xB23 JUMPI JUMPDEST PUSH1 0x20 DUP4 LT EQ PUSH3 0x9DF JUMPI DUP2 PUSH1 0x1F DUP5 SWAP4 GT PUSH3 0xAB1 JUMPI JUMPDEST POP PUSH1 0x20 SWAP1 PUSH1 0x1F DUP4 GT PUSH1 0x1 EQ PUSH3 0xA22 JUMPI PUSH1 0x0 SWAP3 PUSH3 0xA16 JUMPI JUMPDEST POP POP DUP2 PUSH1 0x1 SHL SWAP2 PUSH1 0x0 NOT SWAP1 PUSH1 0x3 SHL SHR NOT AND OR PUSH1 0x4 SSTORE JUMPDEST PUSH1 0x5 DUP1 SLOAD TIMESTAMP PUSH1 0xA0 SHL PUSH4 0xFFFFFFFF PUSH1 0xA0 SHL AND PUSH1 0x1 PUSH1 0x1 PUSH1 0xD0 SHL SUB NOT DUP3 AND ORIGIN PUSH6 0xFFFFFFFFFFFF PUSH1 0xA0 SHL NOT AND OR OR PUSH1 0x1 PUSH1 0xC8 SHL OR SWAP1 SWAP2 SSTORE PUSH1 0x40 MLOAD DUP10 MLOAD SWAP2 SWAP10 SWAP1 SWAP2 PUSH3 0x2FE SWAP2 PUSH1 0x20 SWAP2 DUP5 SWAP2 DUP13 SWAP2 SWAP1 PUSH3 0x2D9 SWAP1 DUP3 SWAP1 DUP6 DUP8 ADD SWAP1 DUP8 ADD PUSH3 0xE43 JUMP JUMPDEST PUSH3 0x2EF DUP3 MLOAD DUP1 SWAP4 DUP7 DUP1 DUP6 DUP9 ADD ADD SWAP2 ADD PUSH3 0xE43 JUMP JUMPDEST DUP3 ADD ADD SUB DUP1 DUP5 MSTORE ADD DUP3 PUSH3 0xE1F JUMP JUMPDEST DUP1 MLOAD PUSH1 0x20 SWAP1 SWAP2 ADD KECCAK256 PUSH1 0x6 SSTORE PUSH1 0x1 PUSH1 0x1 PUSH1 0xA0 SHL SUB SWAP1 DUP2 AND PUSH1 0x80 SWAP1 DUP2 MSTORE PUSH1 0x40 MLOAD SWAP5 DUP3 AND SWAP7 SWAP3 DUP3 AND SWAP6 SWAP4 DUP3 AND SWAP5 SWAP3 DUP3 AND SWAP4 SWAP1 SWAP2 AND SWAP2 DUP7 SWAP2 SWAP1 PUSH3 0x33E DUP2 PUSH3 0xDE7 JUMP JUMPDEST DUP7 DUP2 MSTORE DUP4 PUSH1 0x20 DUP3 ADD MSTORE DUP5 PUSH1 0x40 DUP3 ADD MSTORE DUP6 PUSH1 0x60 DUP3 ADD MSTORE ADD MSTORE PUSH1 0x1 DUP1 PUSH1 0xA0 SHL SUB NOT SWAP4 DUP5 PUSH1 0x9 SLOAD AND OR PUSH1 0x9 SSTORE DUP4 PUSH1 0xA SLOAD AND OR PUSH1 0xA SSTORE DUP3 PUSH1 0xB SLOAD AND OR PUSH1 0xB SSTORE DUP2 PUSH1 0xC SLOAD AND OR PUSH1 0xC SSTORE PUSH1 0xD SLOAD AND OR PUSH1 0xD SSTORE PUSH3 0x394 PUSH3 0xED8 JUMP JUMPDEST POP PUSH3 0x39F PUSH3 0xF05 JUMP JUMPDEST PUSH3 0x3A9 PUSH3 0x125D JUMP JUMPDEST SWAP2 DUP3 PUSH1 0x7 SSTORE PUSH1 0x40 MLOAD PUSH1 0x20 DUP2 ADD SWAP1 PUSH3 0x3DC PUSH1 0x20 DUP3 DUP6 MLOAD PUSH3 0x3CE DUP2 DUP8 DUP6 DUP11 ADD PUSH3 0xE43 JUMP JUMPDEST DUP2 ADD SUB DUP1 DUP5 MSTORE ADD DUP3 PUSH3 0xE1F JUMP JUMPDEST MLOAD SWAP1 KECCAK256 PUSH1 0x40 MLOAD SWAP5 SWAP1 SWAP2 SWAP1 PUSH1 0x1 PUSH1 0x1 PUSH1 0x40 SHL SUB PUSH1 0xC0 DUP8 ADD SWAP1 DUP2 GT SWAP1 DUP8 GT OR PUSH3 0xA00 JUMPI PUSH1 0xC0 DUP7 ADD PUSH1 0x40 SWAP1 DUP2 MSTORE TIMESTAMP PUSH1 0xA0 SWAP1 DUP2 SHL PUSH4 0xFFFFFFFF PUSH1 0xA0 SHL SWAP1 DUP2 AND PUSH1 0x1 PUSH1 0x1 PUSH1 0xD0 SHL SUB NOT SWAP1 SWAP5 AND ORIGIN PUSH6 0xFFFFFFFFFFFF PUSH1 0xA0 SHL NOT AND OR SWAP4 SWAP1 SWAP4 OR PUSH1 0x1 PUSH1 0xC8 SHL OR PUSH1 0x1 PUSH1 0x1 PUSH1 0xA0 SHL SUB DUP2 DUP2 AND DUP11 MSTORE SWAP1 DUP3 SHR PUSH4 0xFFFFFFFF AND PUSH1 0x20 DUP1 DUP12 ADD SWAP2 DUP3 MSTORE SWAP4 DUP11 ADD SWAP6 DUP7 MSTORE PUSH1 0x60 DUP11 ADD SWAP7 SWAP1 SWAP7 MSTORE PUSH1 0x80 DUP10 ADD DUP8 SWAP1 MSTORE DUP2 DUP10 ADD DUP9 SWAP1 MSTORE PUSH1 0x0 DUP1 MSTORE PUSH1 0x8 SWAP1 SWAP3 MSTORE DUP8 MLOAD PUSH32 0x5EFF886EA0CE6CA488A3D6E336D6C0F75F46D19B42C06CE5EE98E42C96D256C7 DUP1 SLOAD SWAP7 MLOAD PUSH1 0x1 PUSH1 0x1 PUSH1 0xC0 SHL SUB NOT SWAP1 SWAP8 AND SWAP2 SWAP1 SWAP4 AND OR SWAP5 SWAP1 SHL SWAP1 SWAP2 AND SWAP3 SWAP1 SWAP3 OR DUP3 SSTORE MLOAD DUP1 MLOAD SWAP1 PUSH1 0x1 PUSH1 0x1 PUSH1 0x40 SHL SUB DUP3 GT PUSH3 0xA00 JUMPI PUSH1 0x1 DUP4 ADD SLOAD PUSH1 0x1 DUP2 DUP2 SHR SWAP2 AND DUP1 ISZERO PUSH3 0x9F5 JUMPI JUMPDEST PUSH1 0x20 DUP3 LT EQ PUSH3 0x9DF JUMPI PUSH1 0x1F DUP2 GT PUSH3 0x98F JUMPI JUMPDEST POP PUSH1 0x20 SWAP1 PUSH1 0x1F DUP4 GT PUSH1 0x1 EQ PUSH3 0x911 JUMPI SWAP6 DUP3 PUSH1 0x8 SWAP4 PUSH1 0xA0 SWAP4 PUSH3 0x5C7 SWAP10 PUSH1 0x0 SWAP3 PUSH3 0x905 JUMPI JUMPDEST POP POP DUP2 PUSH1 0x1 SHL SWAP2 PUSH1 0x0 NOT SWAP1 PUSH1 0x3 SHL SHR NOT AND OR PUSH1 0x1 DUP6 ADD SSTORE JUMPDEST PUSH1 0x60 DUP2 ADD MLOAD PUSH1 0x2 DUP6 ADD SSTORE PUSH1 0x80 DUP1 DUP3 ADD MLOAD DUP1 MLOAD PUSH1 0x3 DUP8 ADD SSTORE PUSH1 0x20 DUP2 ADD MLOAD PUSH1 0x4 DUP8 ADD SSTORE PUSH1 0x40 DUP2 ADD MLOAD PUSH1 0x5 DUP8 ADD SSTORE PUSH1 0x60 DUP2 ADD MLOAD PUSH1 0x6 DUP8 ADD SSTORE ADD MLOAD PUSH1 0x7 DUP6 ADD SSTORE ADD MLOAD SWAP2 ADD SSTORE DUP1 MLOAD PUSH2 0x5DC DUP2 SLT DUP1 SWAP2 DUP2 ISZERO PUSH3 0x8F8 JUMPI JUMPDEST POP PUSH3 0x7CB JUMPI JUMPDEST POP PUSH1 0x20 DUP2 ADD MLOAD PUSH2 0xFA0 DUP2 LT DUP1 SWAP2 DUP2 ISZERO PUSH3 0x7BE JUMPI JUMPDEST POP PUSH3 0x6AD JUMPI JUMPDEST POP PUSH2 0x1388 PUSH1 0x40 DUP3 ADD MLOAD GT PUSH3 0x5F5 JUMPI JUMPDEST POP PUSH3 0x12AA JUMP JUMPDEST PUSH1 0x40 MLOAD PUSH2 0x24A3 SWAP1 DUP2 PUSH3 0x1546 DUP3 CODECOPY PUSH1 0x80 MLOAD DUP2 DUP2 DUP2 PUSH2 0x4AF ADD MSTORE DUP2 DUP2 PUSH2 0xE20 ADD MSTORE DUP2 DUP2 PUSH2 0x13EF ADD MSTORE PUSH2 0x1490 ADD MSTORE RETURN JUMPDEST PUSH2 0x180 PUSH1 0x0 DUP1 MLOAD PUSH1 0x20 PUSH3 0x39E9 DUP4 CODECOPY DUP2 MLOAD SWAP2 MSTORE SWAP2 PUSH3 0x699 PUSH1 0x40 MLOAD SWAP2 PUSH2 0x100 DUP4 MSTORE PUSH1 0x8 PUSH2 0x100 DUP5 ADD MSTORE PUSH8 0x1490525391905313 PUSH1 0xC2 SHL PUSH2 0x120 DUP5 ADD MSTORE PUSH2 0x140 PUSH1 0x20 DUP5 ADD MSTORE PUSH1 0x17 PUSH2 0x140 DUP5 ADD MSTORE PUSH32 0x4865617679207261696E66616C6C206465746563746564000000000000000000 PUSH2 0x160 DUP5 ADD MSTORE PUSH1 0x40 DUP4 ADD SWAP1 PUSH1 0x80 DUP1 SWAP2 DUP1 MLOAD DUP5 MSTORE PUSH1 0x20 DUP2 ADD MLOAD PUSH1 0x20 DUP6 ADD MSTORE PUSH1 0x40 DUP2 ADD MLOAD PUSH1 0x40 DUP6 ADD MSTORE PUSH1 0x60 DUP2 ADD MLOAD PUSH1 0x60 DUP6 ADD MSTORE ADD MLOAD SWAP2 ADD MSTORE JUMP JUMPDEST PUSH4 0xFFFFFFFF TIMESTAMP AND PUSH1 0xE0 DUP3 ADD MSTORE LOG1 CODESIZE PUSH3 0x5C0 JUMP JUMPDEST ISZERO PUSH3 0x778 JUMPI PUSH1 0x0 DUP1 MLOAD PUSH1 0x20 PUSH3 0x39E9 DUP4 CODECOPY DUP2 MLOAD SWAP2 MSTORE PUSH3 0x72C PUSH1 0x40 MLOAD PUSH3 0x6D5 DUP2 PUSH3 0xE03 JUMP JUMPDEST PUSH1 0x10 DUP2 MSTORE PUSH16 0x48756D696469747920746F6F206C6F77 PUSH1 0x80 SHL PUSH1 0x20 DUP3 ADD MSTORE JUMPDEST PUSH1 0x40 MLOAD SWAP2 DUP3 SWAP2 PUSH2 0x100 DUP4 MSTORE PUSH1 0x8 PUSH2 0x100 DUP5 ADD MSTORE PUSH8 0x48554D4944495459 PUSH1 0xC0 SHL PUSH2 0x120 DUP5 ADD MSTORE PUSH2 0x140 PUSH1 0x20 DUP5 ADD MSTORE PUSH2 0x140 DUP4 ADD SWAP1 PUSH3 0x1283 JUMP JUMPDEST PUSH3 0x762 PUSH1 0x40 DUP4 ADD DUP7 PUSH1 0x80 DUP1 SWAP2 DUP1 MLOAD DUP5 MSTORE PUSH1 0x20 DUP2 ADD MLOAD PUSH1 0x20 DUP6 ADD MSTORE PUSH1 0x40 DUP2 ADD MLOAD PUSH1 0x40 DUP6 ADD MSTORE PUSH1 0x60 DUP2 ADD MLOAD PUSH1 0x60 DUP6 ADD MSTORE ADD MLOAD SWAP2 ADD MSTORE JUMP JUMPDEST PUSH4 0xFFFFFFFF TIMESTAMP AND PUSH1 0xE0 DUP4 ADD MSTORE SUB SWAP1 LOG1 CODESIZE PUSH3 0x5B0 JUMP JUMPDEST PUSH1 0x0 DUP1 MLOAD PUSH1 0x20 PUSH3 0x39E9 DUP4 CODECOPY DUP2 MLOAD SWAP2 MSTORE PUSH3 0x72C PUSH1 0x40 MLOAD PUSH3 0x79A DUP2 PUSH3 0xE03 JUMP JUMPDEST PUSH1 0x11 DUP2 MSTORE PUSH17 0x90EADAD2C8D2E8F240E8DEDE40D0D2CED PUSH1 0x7B SHL PUSH1 0x20 DUP3 ADD MSTORE PUSH3 0x6F3 JUMP JUMPDEST PUSH2 0x1770 SWAP2 POP GT CODESIZE PUSH3 0x5A9 JUMP JUMPDEST ISZERO PUSH3 0x8A6 JUMPI PUSH1 0x0 DUP1 MLOAD PUSH1 0x20 PUSH3 0x39E9 DUP4 CODECOPY DUP2 MLOAD SWAP2 MSTORE PUSH3 0x85A PUSH1 0x40 MLOAD PUSH3 0x7F3 DUP2 PUSH3 0xE03 JUMP JUMPDEST PUSH1 0x13 DUP2 MSTORE PUSH32 0x54656D706572617475726520746F6F206C6F7700000000000000000000000000 PUSH1 0x20 DUP3 ADD MSTORE JUMPDEST PUSH1 0x40 MLOAD SWAP2 DUP3 SWAP2 PUSH2 0x100 DUP4 MSTORE PUSH1 0xB PUSH2 0x100 DUP5 ADD MSTORE PUSH11 0x54454D5045524154555245 PUSH1 0xA8 SHL PUSH2 0x120 DUP5 ADD MSTORE PUSH2 0x140 PUSH1 0x20 DUP5 ADD MSTORE PUSH2 0x140 DUP4 ADD SWAP1 PUSH3 0x1283 JUMP JUMPDEST PUSH3 0x890 PUSH1 0x40 DUP4 ADD DUP7 PUSH1 0x80 DUP1 SWAP2 DUP1 MLOAD DUP5 MSTORE PUSH1 0x20 DUP2 ADD MLOAD PUSH1 0x20 DUP6 ADD MSTORE PUSH1 0x40 DUP2 ADD MLOAD PUSH1 0x40 DUP6 ADD MSTORE PUSH1 0x60 DUP2 ADD MLOAD PUSH1 0x60 DUP6 ADD MSTORE ADD MLOAD SWAP2 ADD MSTORE JUMP JUMPDEST PUSH4 0xFFFFFFFF TIMESTAMP AND PUSH1 0xE0 DUP4 ADD MSTORE SUB SWAP1 LOG1 CODESIZE PUSH3 0x594 JUMP JUMPDEST PUSH1 0x0 DUP1 MLOAD PUSH1 0x20 PUSH3 0x39E9 DUP4 CODECOPY DUP2 MLOAD SWAP2 MSTORE PUSH3 0x85A PUSH1 0x40 MLOAD PUSH3 0x8C8 DUP2 PUSH3 0xE03 JUMP JUMPDEST PUSH1 0x14 DUP2 MSTORE PUSH32 0x54656D706572617475726520746F6F2068696768000000000000000000000000 PUSH1 0x20 DUP3 ADD MSTORE PUSH3 0x81E JUMP JUMPDEST PUSH2 0x9C4 SWAP2 POP SGT CODESIZE PUSH3 0x58D JUMP JUMPDEST ADD MLOAD SWAP1 POP CODESIZE DUP1 PUSH3 0x523 JUMP JUMPDEST SWAP1 PUSH1 0x1 DUP5 ADD PUSH1 0x0 MSTORE PUSH1 0x20 PUSH1 0x0 KECCAK256 SWAP2 PUSH1 0x0 JUMPDEST PUSH1 0x1F NOT DUP6 AND DUP2 LT PUSH3 0x976 JUMPI POP DUP4 PUSH1 0xA0 SWAP4 PUSH3 0x5C7 SWAP10 SWAP4 PUSH1 0x1 SWAP4 PUSH1 0x8 SWAP8 PUSH1 0x1F NOT DUP2 AND LT PUSH3 0x95C JUMPI JUMPDEST POP POP POP DUP2 SHL ADD PUSH1 0x1 DUP6 ADD SSTORE PUSH3 0x53B JUMP JUMPDEST ADD MLOAD PUSH1 0x0 NOT PUSH1 0xF8 DUP5 PUSH1 0x3 SHL AND SHR NOT AND SWAP1 SSTORE CODESIZE DUP1 DUP1 PUSH3 0x94B JUMP JUMPDEST SWAP2 SWAP3 PUSH1 0x20 PUSH1 0x1 DUP2 SWAP3 DUP7 DUP6 ADD MLOAD DUP2 SSTORE ADD SWAP5 ADD SWAP3 ADD PUSH3 0x922 JUMP JUMPDEST PUSH1 0x1 DUP5 ADD PUSH1 0x0 MSTORE PUSH1 0x20 PUSH1 0x0 KECCAK256 PUSH1 0x1F DUP5 ADD PUSH1 0x5 SHR DUP2 ADD SWAP2 PUSH1 0x20 DUP6 LT PUSH3 0x9D4 JUMPI JUMPDEST PUSH1 0x1F ADD PUSH1 0x5 SHR ADD SWAP1 JUMPDEST DUP2 DUP2 LT PUSH3 0x9C7 JUMPI POP PUSH3 0x4FD JUMP JUMPDEST PUSH1 0x0 DUP2 SSTORE PUSH1 0x1 ADD PUSH3 0x9B8 JUMP JUMPDEST SWAP1 SWAP2 POP DUP2 SWAP1 PUSH3 0x9AF JUMP JUMPDEST PUSH4 0x4E487B71 PUSH1 0xE0 SHL PUSH1 0x0 MSTORE PUSH1 0x22 PUSH1 0x4 MSTORE PUSH1 0x24 PUSH1 0x0 REVERT JUMPDEST SWAP1 PUSH1 0x7F AND SWAP1 PUSH3 0x4E9 JUMP JUMPDEST PUSH4 0x4E487B71 PUSH1 0xE0 SHL PUSH1 0x0 MSTORE PUSH1 0x41 PUSH1 0x4 MSTORE PUSH1 0x24 PUSH1 0x0 REVERT JUMPDEST ADD MLOAD SWAP1 POP CODESIZE DUP1 PUSH3 0x266 JUMP JUMPDEST PUSH1 0x4 PUSH1 0x0 SWAP1 DUP2 MSTORE SWAP4 POP PUSH32 0x8A35ACFBC15FF81A39AE7D344FD709F28E8600B4AA8C65C6B64BFE7FE36BD19B SWAP2 SWAP1 JUMPDEST PUSH1 0x1F NOT DUP5 AND DUP6 LT PUSH3 0xA95 JUMPI PUSH1 0x1 SWAP5 POP DUP4 PUSH1 0x1F NOT DUP2 AND LT PUSH3 0xA7B JUMPI JUMPDEST POP POP POP DUP2 SHL ADD PUSH1 0x4 SSTORE PUSH3 0x27C JUMP JUMPDEST ADD MLOAD PUSH1 0x0 NOT PUSH1 0xF8 DUP5 PUSH1 0x3 SHL AND SHR NOT AND SWAP1 SSTORE CODESIZE DUP1 DUP1 PUSH3 0xA6C JUMP JUMPDEST DUP2 DUP2 ADD MLOAD DUP4 SSTORE PUSH1 0x20 SWAP5 DUP6 ADD SWAP5 PUSH1 0x1 SWAP1 SWAP4 ADD SWAP3 SWAP1 SWAP2 ADD SWAP1 PUSH3 0xA4F JUMP JUMPDEST PUSH1 0x4 PUSH1 0x0 MSTORE SWAP1 SWAP2 POP PUSH32 0x8A35ACFBC15FF81A39AE7D344FD709F28E8600B4AA8C65C6B64BFE7FE36BD19B PUSH1 0x1F DUP5 ADD PUSH1 0x5 SHR DUP2 ADD PUSH1 0x20 DUP6 LT PUSH3 0xB1B JUMPI JUMPDEST SWAP1 DUP5 SWAP4 SWAP3 SWAP2 JUMPDEST PUSH1 0x1F DUP4 ADD PUSH1 0x5 SHR DUP3 ADD DUP2 LT PUSH3 0xB0B JUMPI POP POP PUSH3 0x24D JUMP JUMPDEST PUSH1 0x0 DUP2 SSTORE DUP6 SWAP5 POP PUSH1 0x1 ADD PUSH3 0xAF3 JUMP JUMPDEST POP DUP1 PUSH3 0xAED JUMP JUMPDEST SWAP2 PUSH1 0x7F AND SWAP2 PUSH3 0x237 JUMP JUMPDEST ADD MLOAD SWAP1 POP CODESIZE DUP1 PUSH3 0x1F6 JUMP JUMPDEST PUSH1 0x1 PUSH1 0x0 SWAP1 DUP2 MSTORE SWAP4 POP PUSH1 0x0 DUP1 MLOAD PUSH1 0x20 PUSH3 0x3A29 DUP4 CODECOPY DUP2 MLOAD SWAP2 MSTORE SWAP2 SWAP1 JUMPDEST PUSH1 0x1F NOT DUP5 AND DUP6 LT PUSH3 0xB9C JUMPI PUSH1 0x1 SWAP5 POP DUP4 PUSH1 0x1F NOT DUP2 AND LT PUSH3 0xB82 JUMPI JUMPDEST POP POP POP DUP2 SHL ADD PUSH1 0x1 SSTORE PUSH3 0x20C JUMP JUMPDEST ADD MLOAD PUSH1 0x0 NOT PUSH1 0xF8 DUP5 PUSH1 0x3 SHL AND SHR NOT AND SWAP1 SSTORE CODESIZE DUP1 DUP1 PUSH3 0xB73 JUMP JUMPDEST DUP2 DUP2 ADD MLOAD DUP4 SSTORE PUSH1 0x20 SWAP5 DUP6 ADD SWAP5 PUSH1 0x1 SWAP1 SWAP4 ADD SWAP3 SWAP1 SWAP2 ADD SWAP1 PUSH3 0xB56 JUMP JUMPDEST PUSH1 0x1 PUSH1 0x0 MSTORE SWAP1 SWAP2 POP PUSH1 0x0 DUP1 MLOAD PUSH1 0x20 PUSH3 0x3A29 DUP4 CODECOPY DUP2 MLOAD SWAP2 MSTORE PUSH1 0x1F DUP5 ADD PUSH1 0x5 SHR DUP2 ADD PUSH1 0x20 DUP6 LT PUSH3 0xC11 JUMPI JUMPDEST SWAP1 DUP5 SWAP4 SWAP3 SWAP2 JUMPDEST PUSH1 0x1F DUP4 ADD PUSH1 0x5 SHR DUP3 ADD DUP2 LT PUSH3 0xC01 JUMPI POP POP PUSH3 0x1DD JUMP JUMPDEST PUSH1 0x0 DUP2 SSTORE DUP6 SWAP5 POP PUSH1 0x1 ADD PUSH3 0xBE9 JUMP JUMPDEST POP DUP1 PUSH3 0xBE3 JUMP JUMPDEST SWAP2 PUSH1 0x7F AND SWAP2 PUSH3 0x1C7 JUMP JUMPDEST SWAP1 POP DUP14 ADD MLOAD CODESIZE PUSH3 0x18D JUMP JUMPDEST PUSH1 0x0 DUP1 DUP1 MSTORE SWAP3 POP PUSH1 0x0 DUP1 MLOAD PUSH1 0x20 PUSH3 0x3A09 DUP4 CODECOPY DUP2 MLOAD SWAP2 MSTORE SWAP1 DUP16 JUMPDEST PUSH1 0x1F NOT DUP5 AND DUP6 LT PUSH3 0xC90 JUMPI PUSH1 0x1 SWAP5 POP DUP4 PUSH1 0x1F NOT DUP2 AND LT PUSH3 0xC76 JUMPI JUMPDEST POP POP POP DUP2 SHL ADD PUSH1 0x0 SSTORE PUSH3 0x1A2 JUMP JUMPDEST ADD MLOAD PUSH1 0x0 NOT PUSH1 0xF8 DUP5 PUSH1 0x3 SHL AND SHR NOT AND SWAP1 SSTORE CODESIZE DUP1 DUP16 PUSH3 0xC67 JUMP JUMPDEST DUP2 ADD MLOAD DUP3 SSTORE PUSH1 0x20 SWAP4 DUP5 ADD SWAP4 PUSH1 0x1 SWAP1 SWAP3 ADD SWAP2 ADD DUP16 PUSH3 0xC4A JUMP JUMPDEST PUSH1 0x0 DUP1 MSTORE PUSH1 0x0 DUP1 MLOAD PUSH1 0x20 PUSH3 0x3A09 DUP4 CODECOPY DUP2 MLOAD SWAP2 MSTORE PUSH1 0x1F DUP4 ADD PUSH1 0x5 SHR DUP2 ADD PUSH1 0x20 DUP5 LT PUSH3 0xCF5 JUMPI JUMPDEST PUSH1 0x1F DUP4 ADD PUSH1 0x5 SHR DUP3 ADD DUP2 LT PUSH3 0xCE8 JUMPI POP POP PUSH3 0x174 JUMP JUMPDEST PUSH1 0x0 DUP2 SSTORE PUSH1 0x1 ADD PUSH3 0xCD0 JUMP JUMPDEST POP DUP1 PUSH3 0xCD0 JUMP JUMPDEST SWAP1 PUSH1 0x7F AND SWAP1 PUSH3 0x160 JUMP JUMPDEST PUSH1 0x64 PUSH1 0x40 MLOAD PUSH3 0x461BCD PUSH1 0xE5 SHL DUP2 MSTORE PUSH1 0x20 PUSH1 0x4 DUP3 ADD MSTORE PUSH1 0x20 PUSH1 0x24 DUP3 ADD MSTORE PUSH32 0x50726F64756374206C6F636174696F6E2063616E6E6F7420626520656D707479 PUSH1 0x44 DUP3 ADD MSTORE REVERT JUMPDEST PUSH1 0x40 MLOAD PUSH3 0x461BCD PUSH1 0xE5 SHL DUP2 MSTORE PUSH1 0x20 PUSH1 0x4 DUP3 ADD MSTORE PUSH1 0x23 PUSH1 0x24 DUP3 ADD MSTORE PUSH32 0x50726F64756374206465736372697074696F6E2063616E6E6F7420626520656D PUSH1 0x44 DUP3 ADD MSTORE PUSH3 0x707479 PUSH1 0xE8 SHL PUSH1 0x64 DUP3 ADD MSTORE PUSH1 0x84 SWAP1 REVERT JUMPDEST PUSH1 0x40 MLOAD PUSH3 0x461BCD PUSH1 0xE5 SHL DUP2 MSTORE PUSH1 0x20 PUSH1 0x4 DUP3 ADD MSTORE PUSH1 0x1C PUSH1 0x24 DUP3 ADD MSTORE PUSH32 0x50726F64756374206E616D652063616E6E6F7420626520656D70747900000000 PUSH1 0x44 DUP3 ADD MSTORE PUSH1 0x64 SWAP1 REVERT JUMPDEST PUSH1 0x0 DUP1 REVERT JUMPDEST PUSH1 0xA0 DUP2 ADD SWAP1 DUP2 LT PUSH1 0x1 PUSH1 0x1 PUSH1 0x40 SHL SUB DUP3 GT OR PUSH3 0xA00 JUMPI PUSH1 0x40 MSTORE JUMP JUMPDEST PUSH1 0x40 DUP2 ADD SWAP1 DUP2 LT PUSH1 0x1 PUSH1 0x1 PUSH1 0x40 SHL SUB DUP3 GT OR PUSH3 0xA00 JUMPI PUSH1 0x40 MSTORE JUMP JUMPDEST PUSH1 0x1F SWAP1 SWAP2 ADD PUSH1 0x1F NOT AND DUP2 ADD SWAP1 PUSH1 0x1 PUSH1 0x1 PUSH1 0x40 SHL SUB DUP3 GT SWAP1 DUP3 LT OR PUSH3 0xA00 JUMPI PUSH1 0x40 MSTORE JUMP JUMPDEST PUSH1 0x0 JUMPDEST DUP4 DUP2 LT PUSH3 0xE57 JUMPI POP POP PUSH1 0x0 SWAP2 ADD MSTORE JUMP JUMPDEST DUP2 DUP2 ADD MLOAD DUP4 DUP3 ADD MSTORE PUSH1 0x20 ADD PUSH3 0xE46 JUMP JUMPDEST DUP2 PUSH1 0x1F DUP3 ADD SLT ISZERO PUSH3 0xDE2 JUMPI DUP1 MLOAD PUSH1 0x1 PUSH1 0x1 PUSH1 0x40 SHL SUB DUP2 GT PUSH3 0xA00 JUMPI PUSH1 0x40 MLOAD SWAP3 PUSH3 0xE9F PUSH1 0x1F DUP4 ADD PUSH1 0x1F NOT AND PUSH1 0x20 ADD DUP6 PUSH3 0xE1F JUMP JUMPDEST DUP2 DUP5 MSTORE PUSH1 0x20 DUP3 DUP5 ADD ADD GT PUSH3 0xDE2 JUMPI PUSH3 0xEC0 SWAP2 PUSH1 0x20 DUP1 DUP6 ADD SWAP2 ADD PUSH3 0xE43 JUMP JUMPDEST SWAP1 JUMP JUMPDEST MLOAD SWAP1 PUSH1 0x1 PUSH1 0x1 PUSH1 0xA0 SHL SUB DUP3 AND DUP3 SUB PUSH3 0xDE2 JUMPI JUMP JUMPDEST PUSH1 0x40 MLOAD SWAP1 PUSH3 0xEE7 DUP3 PUSH3 0xDE7 JUMP JUMPDEST PUSH1 0x0 PUSH1 0x80 DUP4 DUP3 DUP2 MSTORE DUP3 PUSH1 0x20 DUP3 ADD MSTORE DUP3 PUSH1 0x40 DUP3 ADD MSTORE DUP3 PUSH1 0x60 DUP3 ADD MSTORE ADD MSTORE JUMP JUMPDEST PUSH3 0xF0F PUSH3 0xED8 JUMP JUMPDEST POP PUSH1 0x9 SLOAD PUSH1 0x1 PUSH1 0x1 PUSH1 0xA0 SHL SUB SWAP1 DUP2 AND DUP1 ISZERO PUSH3 0x116F JUMPI DUP2 PUSH1 0xA SLOAD AND PUSH3 0xF4A DUP4 PUSH1 0xB SLOAD AND SWAP4 PUSH1 0xC SLOAD AND SWAP3 PUSH3 0xF43 PUSH3 0xED8 JUMP JUMPDEST POP PUSH3 0x11F6 JUMP JUMPDEST SWAP3 PUSH1 0x40 SWAP1 DUP2 MLOAD SWAP4 DUP5 SWAP4 DUP5 SWAP3 PUSH4 0x3FABE5A3 PUSH1 0xE2 SHL SWAP2 DUP3 DUP6 MSTORE PUSH1 0xA0 SWAP8 DUP9 SWAP2 PUSH1 0x4 SWAP9 DUP10 SWAP2 GAS STATICCALL SWAP4 DUP5 ISZERO PUSH3 0x10F8 JUMPI PUSH1 0x0 SWAP5 PUSH3 0x1146 JUMPI JUMPDEST POP PUSH1 0x0 DUP5 SLT PUSH3 0x1103 JUMPI SWAP1 DUP7 DUP7 SWAP4 SWAP3 DUP7 MLOAD SWAP8 DUP9 DUP1 SWAP3 DUP6 DUP3 MSTORE GAS STATICCALL SWAP6 DUP7 ISZERO PUSH3 0x10F8 JUMPI PUSH1 0x0 SWAP7 PUSH3 0x10CF JUMPI JUMPDEST POP PUSH1 0x0 DUP7 SLT PUSH3 0x108C JUMPI DUP7 SWAP1 DUP4 DUP7 MLOAD DUP1 SWAP5 DUP2 SWAP4 DUP3 MSTORE GAS STATICCALL SWAP6 DUP7 ISZERO PUSH3 0x1081 JUMPI PUSH1 0x0 SWAP7 PUSH3 0x1046 JUMPI JUMPDEST POP POP PUSH1 0x0 DUP6 SLT PUSH3 0x1003 JUMPI POP DUP2 MLOAD SWAP5 PUSH3 0xFEB DUP7 PUSH3 0xDE7 JUMP JUMPDEST DUP6 MSTORE PUSH1 0x20 DUP6 ADD MSTORE DUP4 ADD MSTORE PUSH1 0x60 DUP3 ADD MSTORE TIMESTAMP PUSH1 0x80 DUP3 ADD MSTORE SWAP1 JUMP JUMPDEST PUSH1 0x64 SWAP1 PUSH1 0x20 DUP5 MLOAD SWAP2 PUSH3 0x461BCD PUSH1 0xE5 SHL DUP4 MSTORE DUP3 ADD MSTORE PUSH1 0x17 PUSH1 0x24 DUP3 ADD MSTORE PUSH32 0x496E76616C69642077696E642073706565642064617461000000000000000000 PUSH1 0x44 DUP3 ADD MSTORE REVERT JUMPDEST PUSH3 0x106B SWAP3 SWAP7 POP DUP1 RETURNDATASIZE LT PUSH3 0x1079 JUMPI JUMPDEST PUSH3 0x1062 DUP2 DUP4 PUSH3 0xE1F JUMP JUMPDEST DUP2 ADD SWAP1 PUSH3 0x11BF JUMP JUMPDEST POP POP POP SWAP1 POP SWAP4 CODESIZE DUP1 PUSH3 0xFD1 JUMP JUMPDEST POP RETURNDATASIZE PUSH3 0x1056 JUMP JUMPDEST DUP5 MLOAD RETURNDATASIZE PUSH1 0x0 DUP3 RETURNDATACOPY RETURNDATASIZE SWAP1 REVERT JUMPDEST DUP5 MLOAD PUSH3 0x461BCD PUSH1 0xE5 SHL DUP2 MSTORE PUSH1 0x20 DUP2 DUP6 ADD MSTORE PUSH1 0x15 PUSH1 0x24 DUP3 ADD MSTORE PUSH32 0x496E76616C6964207261696E66616C6C20646174610000000000000000000000 PUSH1 0x44 DUP3 ADD MSTORE PUSH1 0x64 SWAP1 REVERT JUMPDEST PUSH3 0x10EB SWAP2 SWAP7 POP DUP8 RETURNDATASIZE DUP10 GT PUSH3 0x1079 JUMPI PUSH3 0x1062 DUP2 DUP4 PUSH3 0xE1F JUMP JUMPDEST POP POP POP SWAP1 POP SWAP5 CODESIZE PUSH3 0xFA9 JUMP JUMPDEST DUP6 MLOAD RETURNDATASIZE PUSH1 0x0 DUP3 RETURNDATACOPY RETURNDATASIZE SWAP1 REVERT JUMPDEST DUP5 MLOAD PUSH3 0x461BCD PUSH1 0xE5 SHL DUP2 MSTORE PUSH1 0x20 DUP2 DUP9 ADD MSTORE PUSH1 0x15 PUSH1 0x24 DUP3 ADD MSTORE PUSH32 0x496E76616C69642068756D696469747920646174610000000000000000000000 PUSH1 0x44 DUP3 ADD MSTORE PUSH1 0x64 SWAP1 REVERT JUMPDEST PUSH3 0x1162 SWAP2 SWAP5 POP DUP8 RETURNDATASIZE DUP10 GT PUSH3 0x1079 JUMPI PUSH3 0x1062 DUP2 DUP4 PUSH3 0xE1F JUMP JUMPDEST POP POP POP SWAP1 POP SWAP3 CODESIZE PUSH3 0xF7E JUMP JUMPDEST POP POP PUSH1 0x40 MLOAD PUSH3 0x117F DUP2 PUSH3 0xDE7 JUMP JUMPDEST PUSH2 0x7D0 DUP2 MSTORE PUSH2 0x1388 PUSH1 0x20 DUP3 ADD MSTORE PUSH1 0x0 PUSH1 0x40 DUP3 ADD MSTORE PUSH2 0x3E8 PUSH1 0x60 DUP3 ADD MSTORE PUSH4 0xFFFFFFFF TIMESTAMP AND PUSH1 0x80 DUP3 ADD MSTORE SWAP1 JUMP JUMPDEST MLOAD SWAP1 PUSH1 0x1 PUSH1 0x1 PUSH1 0x50 SHL SUB DUP3 AND DUP3 SUB PUSH3 0xDE2 JUMPI JUMP JUMPDEST SWAP1 DUP2 PUSH1 0xA0 SWAP2 SUB SLT PUSH3 0xDE2 JUMPI PUSH3 0x11D6 DUP2 PUSH3 0x11AA JUMP JUMPDEST SWAP2 PUSH1 0x20 DUP3 ADD MLOAD SWAP2 PUSH1 0x40 DUP2 ADD MLOAD SWAP2 PUSH3 0xEC0 PUSH1 0x80 PUSH1 0x60 DUP5 ADD MLOAD SWAP4 ADD PUSH3 0x11AA JUMP JUMPDEST PUSH1 0x40 MLOAD PUSH4 0x3FABE5A3 PUSH1 0xE2 SHL DUP2 MSTORE SWAP1 PUSH1 0xA0 SWAP1 DUP3 SWAP1 PUSH1 0x4 SWAP1 DUP3 SWAP1 PUSH1 0x1 PUSH1 0x1 PUSH1 0xA0 SHL SUB AND GAS STATICCALL SWAP1 DUP2 ISZERO PUSH3 0x1251 JUMPI PUSH1 0x0 SWAP2 PUSH3 0x122D JUMPI POP SWAP1 JUMP JUMPDEST PUSH3 0x1249 SWAP2 POP PUSH1 0xA0 RETURNDATASIZE DUP2 GT PUSH3 0x1079 JUMPI PUSH3 0x1062 DUP2 DUP4 PUSH3 0xE1F JUMP JUMPDEST POP POP POP SWAP1 POP SWAP1 JUMP JUMPDEST PUSH1 0x40 MLOAD RETURNDATASIZE PUSH1 0x0 DUP3 RETURNDATACOPY RETURNDATASIZE SWAP1 REVERT JUMPDEST PUSH1 0xD SLOAD PUSH1 0x1 PUSH1 0x1 PUSH1 0xA0 SHL SUB AND DUP1 ISZERO PUSH3 0x127B JUMPI PUSH3 0xEC0 SWAP1 PUSH3 0x11F6 JUMP JUMPDEST POP PUSH3 0x7A120 SWAP1 JUMP JUMPDEST SWAP1 PUSH1 0x20 SWAP2 PUSH3 0x129E DUP2 MLOAD DUP1 SWAP3 DUP2 DUP6 MSTORE DUP6 DUP1 DUP7 ADD SWAP2 ADD PUSH3 0xE43 JUMP JUMPDEST PUSH1 0x1F ADD PUSH1 0x1F NOT AND ADD ADD SWAP1 JUMP JUMPDEST PUSH1 0xFF PUSH1 0x5 SLOAD PUSH1 0xC0 SHR AND PUSH1 0x5 DUP2 LT ISZERO PUSH3 0x1507 JUMPI DUP1 ISZERO PUSH3 0x1533 JUMPI PUSH3 0x12CE PUSH3 0x125D JUMP JUMPDEST PUSH1 0x0 NOT DUP3 ADD SWAP2 DUP3 GT PUSH3 0x151D JUMPI PUSH1 0x5 DUP3 LT ISZERO PUSH3 0x1507 JUMPI PUSH1 0x0 SWAP2 DUP3 MSTORE PUSH1 0x20 SWAP2 PUSH1 0x8 DUP4 MSTORE PUSH1 0x40 SWAP4 PUSH1 0x8 DUP6 DUP4 KECCAK256 ADD SLOAD SWAP2 PUSH1 0xA DUP4 DIV PUSH4 0xFFFFFFFF TIMESTAMP AND SWAP4 DUP2 DUP2 ADD DUP1 DUP3 GT PUSH3 0x14F3 JUMPI DUP7 GT ISZERO PUSH3 0x147A JUMPI POP PUSH1 0xC0 PUSH1 0x0 DUP1 MLOAD PUSH1 0x20 PUSH3 0x3A49 DUP4 CODECOPY DUP2 MLOAD SWAP2 MSTORE SWAP2 DUP9 MLOAD SWAP1 DUP8 DUP3 MSTORE DUP9 DUP3 ADD MSTORE PUSH1 0x80 DUP10 DUP3 ADD MSTORE PUSH1 0x15 PUSH1 0x80 DUP3 ADD MSTORE PUSH32 0x4F5241434C455F50524943455F494E4352454153450000000000000000000000 PUSH1 0xA0 DUP3 ADD MSTORE DUP6 PUSH1 0x60 DUP3 ADD MSTORE LOG1 JUMPDEST PUSH1 0x14 DUP5 DIV SWAP1 DUP2 DUP6 DUP5 GT SWAP4 DUP7 DUP6 PUSH1 0x0 EQ PUSH3 0x1468 JUMPI PUSH3 0x1393 SWAP2 PUSH3 0x1537 JUMP JUMPDEST GT PUSH3 0x13A3 JUMPI JUMPDEST POP POP POP POP POP POP POP JUMP JUMPDEST PUSH1 0x0 DUP1 MLOAD PUSH1 0x20 PUSH3 0x3A49 DUP4 CODECOPY DUP2 MLOAD SWAP2 MSTORE SWAP7 PUSH3 0x1415 SWAP4 PUSH1 0x80 SWAP3 POP PUSH1 0x0 EQ PUSH3 0x142B JUMPI DUP1 MLOAD PUSH3 0x13D2 DUP2 PUSH3 0xE03 JUMP JUMPDEST PUSH1 0x18 DUP2 MSTORE PUSH32 0x53544147455F50524943455F41424F56455F4F5241434C450000000000000000 DUP9 DUP3 ADD MSTORE SWAP3 JUMPDEST DUP2 MLOAD SWAP8 DUP9 SWAP8 DUP9 MSTORE DUP8 ADD MSTORE DUP6 ADD MSTORE PUSH1 0x80 DUP5 ADD SWAP1 PUSH3 0x1283 JUMP JUMPDEST SWAP1 PUSH1 0x60 DUP4 ADD MSTORE SUB SWAP1 LOG1 CODESIZE DUP1 DUP1 DUP1 DUP1 DUP1 DUP1 PUSH3 0x139A JUMP JUMPDEST DUP1 MLOAD PUSH3 0x1438 DUP2 PUSH3 0xE03 JUMP JUMPDEST PUSH1 0x18 DUP2 MSTORE PUSH32 0x53544147455F50524943455F42454C4F575F4F5241434C450000000000000000 DUP9 DUP3 ADD MSTORE SWAP3 PUSH3 0x13FD JUMP JUMPDEST SWAP1 PUSH3 0x1474 SWAP2 PUSH3 0x1537 JUMP JUMPDEST PUSH3 0x1393 JUMP JUMPDEST DUP2 PUSH3 0x1486 SWAP2 PUSH3 0x1537 JUMP JUMPDEST DUP6 LT PUSH3 0x1495 JUMPI JUMPDEST POP PUSH3 0x1374 JUMP JUMPDEST PUSH1 0xC0 PUSH1 0x0 DUP1 MLOAD PUSH1 0x20 PUSH3 0x3A49 DUP4 CODECOPY DUP2 MLOAD SWAP2 MSTORE SWAP2 DUP9 MLOAD SWAP1 DUP8 DUP3 MSTORE DUP9 DUP3 ADD MSTORE PUSH1 0x80 DUP10 DUP3 ADD MSTORE PUSH1 0x15 PUSH1 0x80 DUP3 ADD MSTORE PUSH32 0x4F5241434C455F50524943455F44454352454153450000000000000000000000 PUSH1 0xA0 DUP3 ADD MSTORE DUP6 PUSH1 0x60 DUP3 ADD MSTORE LOG1 CODESIZE PUSH3 0x148E JUMP JUMPDEST PUSH4 0x4E487B71 PUSH1 0xE0 SHL DUP5 MSTORE PUSH1 0x11 PUSH1 0x4 MSTORE PUSH1 0x24 DUP5 REVERT JUMPDEST PUSH4 0x4E487B71 PUSH1 0xE0 SHL PUSH1 0x0 MSTORE PUSH1 0x21 PUSH1 0x4 MSTORE PUSH1 0x24 PUSH1 0x0 REVERT JUMPDEST PUSH4 0x4E487B71 PUSH1 0xE0 SHL PUSH1 0x0 MSTORE PUSH1 0x11 PUSH1 0x4 MSTORE PUSH1 0x24 PUSH1 0x0 REVERT JUMPDEST POP POP JUMP JUMPDEST SWAP2 SWAP1 DUP3 SUB SWAP2 DUP3 GT PUSH3 0x151D JUMPI JUMP INVALID PUSH1 0x80 PUSH1 0x40 MSTORE PUSH1 0x4 CALLDATASIZE LT ISZERO PUSH2 0x12 JUMPI PUSH1 0x0 DUP1 REVERT JUMPDEST PUSH1 0x0 CALLDATALOAD PUSH1 0xE0 SHR DUP1 PUSH4 0x6FDDE03 EQ PUSH2 0x1817 JUMPI DUP1 PUSH4 0x822A1B7 EQ PUSH2 0x1457 JUMPI DUP1 PUSH4 0x1B3012A3 EQ PUSH2 0x1439 JUMPI DUP1 PUSH4 0x22F3E2D4 EQ PUSH2 0x1413 JUMPI DUP1 PUSH4 0x23FEDA0A EQ PUSH2 0x13CF JUMPI DUP1 PUSH4 0x2BBC2643 EQ PUSH2 0x137C JUMPI DUP1 PUSH4 0x2DF9FD51 EQ PUSH2 0x1333 JUMPI DUP1 PUSH4 0x311CBC91 EQ PUSH2 0x1315 JUMPI DUP1 PUSH4 0x3820F361 EQ PUSH2 0x11E4 JUMPI DUP1 PUSH4 0x516F279E EQ PUSH2 0x11C8 JUMPI DUP1 PUSH4 0x5539D8BB EQ PUSH2 0x11AA JUMPI DUP1 PUSH4 0x5ABB2FDA EQ PUSH2 0xDE7 JUMPI DUP1 PUSH4 0x5BF5D54C EQ PUSH2 0xDBC JUMPI DUP1 PUSH4 0x7284E416 EQ PUSH2 0xD8C JUMPI DUP1 PUSH4 0xAECF2D14 EQ PUSH2 0xCAC JUMPI DUP1 PUSH4 0xAF23E74F EQ PUSH2 0x476 JUMPI DUP1 PUSH4 0xB7697E36 EQ PUSH2 0x458 JUMPI DUP1 PUSH4 0xBCA9F259 EQ PUSH2 0x392 JUMPI DUP1 PUSH4 0xCF09E0D0 EQ PUSH2 0x36B JUMPI DUP1 PUSH4 0xD811FCF0 EQ PUSH2 0x344 JUMPI DUP1 PUSH4 0xDF1EA5E6 EQ PUSH2 0x1C5 JUMPI PUSH4 0xFC72A385 EQ PUSH2 0x10E JUMPI PUSH1 0x0 DUP1 REVERT JUMPDEST CALLVALUE PUSH2 0x1C0 JUMPI PUSH1 0x0 CALLDATASIZE PUSH1 0x3 NOT ADD SLT PUSH2 0x1C0 JUMPI PUSH2 0x160 PUSH1 0x5 SLOAD PUSH2 0x1BC PUSH1 0x7 SLOAD SWAP2 PUSH2 0x134 PUSH2 0x18E3 JUMP JUMPDEST SWAP3 PUSH2 0x13D PUSH2 0x1A37 JUMP JUMPDEST SWAP1 PUSH1 0xFF PUSH2 0x16E PUSH2 0x14B PUSH2 0x199E JUMP JUMPDEST SWAP4 PUSH1 0x40 MLOAD SWAP9 DUP10 SWAP9 PUSH2 0x100 DUP1 DUP12 MSTORE DUP11 ADD SWAP1 PUSH2 0x1B94 JUMP JUMPDEST SWAP1 DUP9 DUP3 SUB PUSH1 0x20 DUP11 ADD MSTORE PUSH2 0x1B94 JUMP JUMPDEST SWAP4 PUSH1 0x1 PUSH1 0x1 PUSH1 0xA0 SHL SUB DUP2 AND PUSH1 0x40 DUP9 ADD MSTORE PUSH4 0xFFFFFFFF DUP2 PUSH1 0xA0 SHR AND PUSH1 0x60 DUP9 ADD MSTORE PUSH2 0x19F PUSH1 0x80 DUP9 ADD DUP4 DUP4 PUSH1 0xC0 SHR AND PUSH2 0x1C83 JUMP JUMPDEST PUSH1 0xC8 SHR AND ISZERO ISZERO PUSH1 0xA0 DUP7 ADD MSTORE PUSH1 0xC0 DUP6 ADD MSTORE DUP4 DUP3 SUB PUSH1 0xE0 DUP6 ADD MSTORE PUSH2 0x1B94 JUMP JUMPDEST SUB SWAP1 RETURN JUMPDEST PUSH1 0x0 DUP1 REVERT JUMPDEST CALLVALUE PUSH2 0x1C0 JUMPI PUSH1 0x0 CALLDATASIZE PUSH1 0x3 NOT ADD SLT PUSH2 0x1C0 JUMPI PUSH1 0x5 SLOAD PUSH1 0xFF DUP2 PUSH1 0xC0 SHR AND PUSH1 0x5 DUP2 LT ISZERO PUSH2 0x32E JUMPI PUSH1 0x3 SUB PUSH2 0x2EA JUMPI PUSH1 0xFF PUSH1 0xC0 SHL NOT PUSH25 0x4000000000000000000000000000000000000000000000000 SWAP2 AND OR PUSH1 0x5 SSTORE PUSH4 0xFFFFFFFF TIMESTAMP AND PUSH2 0x2B8 PUSH1 0x40 MLOAD PUSH2 0x22C DUP2 PUSH2 0x186D JUMP JUMPDEST PUSH1 0x0 DUP2 MSTORE PUSH1 0x0 PUSH1 0x20 DUP3 ADD MSTORE PUSH1 0x0 PUSH1 0x40 DUP3 ADD MSTORE PUSH1 0x0 PUSH1 0x60 DUP3 ADD MSTORE DUP3 PUSH1 0x80 DUP3 ADD MSTORE PUSH1 0x40 MLOAD SWAP3 PUSH1 0x10 PUSH2 0x100 DUP1 DUP7 MSTORE DUP6 ADD MSTORE PUSH32 0x50726F6475637420636F6E73756D656400000000000000000000000000000000 PUSH2 0x120 DUP6 ADD MSTORE PUSH1 0x20 DUP5 ADD MSTORE PUSH1 0x40 DUP4 ADD SWAP1 PUSH1 0x80 DUP1 SWAP2 DUP1 MLOAD DUP5 MSTORE PUSH1 0x20 DUP2 ADD MLOAD PUSH1 0x20 DUP6 ADD MSTORE PUSH1 0x40 DUP2 ADD MLOAD PUSH1 0x40 DUP6 ADD MSTORE PUSH1 0x60 DUP2 ADD MLOAD PUSH1 0x60 DUP6 ADD MSTORE ADD MLOAD SWAP2 ADD MSTORE JUMP JUMPDEST PUSH1 0x0 PUSH1 0xE0 DUP3 ADD MSTORE PUSH1 0x4 PUSH32 0x834B586F2B321F90C8A3532F67FF7EA82946AFDCB59302EEA07EE17AE9D2FDA0 PUSH2 0x140 CALLER SWAP4 LOG3 STOP JUMPDEST PUSH1 0x64 PUSH1 0x40 MLOAD PUSH3 0x461BCD PUSH1 0xE5 SHL DUP2 MSTORE PUSH1 0x20 PUSH1 0x4 DUP3 ADD MSTORE PUSH1 0x1F PUSH1 0x24 DUP3 ADD MSTORE PUSH32 0x50726F64756374206D7573742062652061742072657461696C20737461676500 PUSH1 0x44 DUP3 ADD MSTORE REVERT JUMPDEST PUSH4 0x4E487B71 PUSH1 0xE0 SHL PUSH1 0x0 MSTORE PUSH1 0x21 PUSH1 0x4 MSTORE PUSH1 0x24 PUSH1 0x0 REVERT JUMPDEST CALLVALUE PUSH2 0x1C0 JUMPI PUSH1 0x0 CALLDATASIZE PUSH1 0x3 NOT ADD SLT PUSH2 0x1C0 JUMPI PUSH1 0x20 PUSH1 0x1 PUSH1 0x1 PUSH1 0xA0 SHL SUB PUSH1 0x5 SLOAD AND PUSH1 0x40 MLOAD SWAP1 DUP2 MSTORE RETURN JUMPDEST CALLVALUE PUSH2 0x1C0 JUMPI PUSH1 0x0 CALLDATASIZE PUSH1 0x3 NOT ADD SLT PUSH2 0x1C0 JUMPI PUSH1 0x20 PUSH4 0xFFFFFFFF PUSH1 0x5 SLOAD PUSH1 0xA0 SHR AND PUSH1 0x40 MLOAD SWAP1 DUP2 MSTORE RETURN JUMPDEST CALLVALUE PUSH2 0x1C0 JUMPI PUSH1 0x20 CALLDATASIZE PUSH1 0x3 NOT ADD SLT PUSH2 0x1C0 JUMPI PUSH1 0x4 CALLDATALOAD PUSH1 0x5 DUP2 LT ISZERO PUSH2 0x1C0 JUMPI PUSH2 0x3BD PUSH4 0xFFFFFFFF SWAP2 PUSH2 0x1C90 JUMP JUMPDEST DUP1 SLOAD SWAP1 PUSH2 0x3CC PUSH1 0x1 DUP3 ADD PUSH2 0x1ACD JUMP JUMPDEST PUSH2 0x44E PUSH1 0x2 DUP4 ADD SLOAD SWAP3 PUSH2 0x416 PUSH1 0x8 PUSH2 0x3E6 PUSH1 0x3 DUP5 ADD PUSH2 0x1CA9 JUMP JUMPDEST SWAP3 ADD SLOAD SWAP4 PUSH1 0x40 MLOAD SWAP8 DUP8 PUSH1 0x1 PUSH1 0x1 PUSH1 0xA0 SHL SUB DUP11 SWAP10 AND DUP10 MSTORE PUSH1 0xA0 SHR AND PUSH1 0x20 DUP9 ADD MSTORE PUSH2 0x140 DUP1 PUSH1 0x40 DUP10 ADD MSTORE DUP8 ADD SWAP1 PUSH2 0x1B94 JUMP JUMPDEST SWAP4 PUSH1 0x60 DUP7 ADD MSTORE PUSH1 0x80 DUP6 ADD SWAP1 PUSH1 0x80 DUP1 SWAP2 DUP1 MLOAD DUP5 MSTORE PUSH1 0x20 DUP2 ADD MLOAD PUSH1 0x20 DUP6 ADD MSTORE PUSH1 0x40 DUP2 ADD MLOAD PUSH1 0x40 DUP6 ADD MSTORE PUSH1 0x60 DUP2 ADD MLOAD PUSH1 0x60 DUP6 ADD MSTORE ADD MLOAD SWAP2 ADD MSTORE JUMP JUMPDEST PUSH2 0x120 DUP4 ADD MSTORE SUB SWAP1 RETURN JUMPDEST CALLVALUE PUSH2 0x1C0 JUMPI PUSH1 0x0 CALLDATASIZE PUSH1 0x3 NOT ADD SLT PUSH2 0x1C0 JUMPI PUSH1 0x20 PUSH1 0x3 SLOAD PUSH1 0x40 MLOAD SWAP1 DUP2 MSTORE RETURN JUMPDEST CALLVALUE PUSH2 0x1C0 JUMPI PUSH2 0x484 CALLDATASIZE PUSH2 0x1BB9 JUMP JUMPDEST SWAP1 PUSH1 0x40 MLOAD PUSH4 0xC0112F3 PUSH1 0xE2 SHL DUP2 MSTORE CALLER PUSH1 0x4 DUP3 ADD MSTORE PUSH1 0x2 PUSH1 0x24 DUP3 ADD MSTORE PUSH1 0x20 DUP2 PUSH1 0x44 DUP2 PUSH1 0x1 PUSH1 0x1 PUSH1 0xA0 SHL SUB PUSH32 0x0 AND GAS STATICCALL DUP1 ISZERO PUSH2 0xCA0 JUMPI PUSH2 0x4E9 SWAP2 PUSH1 0x0 SWAP2 PUSH2 0xC71 JUMPI JUMPDEST POP PUSH2 0x1CFD JUMP JUMPDEST PUSH1 0x5 SLOAD SWAP1 PUSH1 0xFF DUP3 PUSH1 0xC0 SHR AND PUSH1 0x5 DUP2 LT ISZERO PUSH2 0x32E JUMPI PUSH1 0x1 DUP2 ADD DUP1 SWAP2 GT PUSH2 0xC5B JUMPI PUSH2 0x514 SWAP1 PUSH1 0x3 EQ PUSH2 0x1D48 JUMP JUMPDEST PUSH2 0x51F DUP4 ISZERO ISZERO PUSH2 0x1D93 JUMP JUMPDEST PUSH2 0x527 PUSH2 0x1E5B JUMP JUMPDEST POP PUSH2 0x530 PUSH2 0x1EBF JUMP JUMPDEST SWAP2 PUSH25 0x3000000000000000000000000000000000000000000000000 PUSH1 0xFF PUSH1 0xC0 SHL NOT PUSH2 0x559 PUSH2 0x21DD JUMP JUMPDEST SWAP3 AND OR PUSH1 0x5 SSTORE DUP1 PUSH1 0x7 SSTORE PUSH1 0x40 MLOAD PUSH1 0x20 DUP2 ADD SWAP1 DUP6 DUP5 DUP4 CALLDATACOPY PUSH2 0x589 PUSH1 0x20 DUP3 DUP9 DUP2 ADD PUSH1 0x0 DUP4 DUP3 ADD MSTORE SUB DUP1 DUP5 MSTORE ADD DUP3 PUSH2 0x18C1 JUMP JUMPDEST MLOAD SWAP1 KECCAK256 PUSH1 0x40 MLOAD PUSH2 0x598 DUP2 PUSH2 0x1889 JUMP JUMPDEST CALLER DUP2 MSTORE PUSH4 0xFFFFFFFF TIMESTAMP AND PUSH1 0x20 DUP3 ADD MSTORE PUSH2 0x5B0 DUP7 PUSH2 0x1DDE JUMP JUMPDEST SWAP2 PUSH2 0x5BE PUSH1 0x40 MLOAD SWAP4 DUP5 PUSH2 0x18C1 JUMP JUMPDEST DUP7 DUP4 MSTORE CALLDATASIZE DUP8 DUP7 ADD GT PUSH2 0x1C0 JUMPI DUP7 DUP6 PUSH1 0x20 DUP6 ADD CALLDATACOPY PUSH1 0x0 PUSH1 0x20 DUP9 DUP6 ADD ADD MSTORE PUSH1 0x40 DUP3 ADD SWAP3 DUP4 MSTORE PUSH1 0x60 DUP3 ADD MSTORE DUP5 PUSH1 0x80 DUP3 ADD MSTORE DUP3 PUSH1 0xA0 DUP3 ADD MSTORE PUSH1 0x3 PUSH1 0x0 MSTORE PUSH1 0x8 PUSH1 0x20 MSTORE PUSH1 0x40 PUSH1 0x0 KECCAK256 SWAP2 PUSH1 0x1 PUSH1 0x1 PUSH1 0xA0 SHL SUB DUP3 MLOAD AND DUP4 SLOAD SWAP1 PUSH24 0xFFFFFFFFFFFFFFFFFFFFFFFFFFFFFFFFFFFFFFFFFFFFFFFF NOT PUSH4 0xFFFFFFFF PUSH1 0xA0 SHL PUSH1 0x20 DUP7 ADD MLOAD PUSH1 0xA0 SHL AND SWAP3 AND OR OR DUP4 SSTORE MLOAD DUP1 MLOAD SWAP1 PUSH8 0xFFFFFFFFFFFFFFFF DUP3 GT PUSH2 0xC45 JUMPI PUSH2 0x661 PUSH1 0x1 DUP6 ADD SLOAD PUSH2 0x1833 JUMP JUMPDEST PUSH1 0x1F DUP2 GT PUSH2 0xBFE JUMPI JUMPDEST POP PUSH1 0x20 SWAP1 PUSH1 0x1F DUP4 GT PUSH1 0x1 EQ PUSH2 0xB63 JUMPI PUSH1 0x3 SWAP8 SWAP6 SWAP4 DUP4 PUSH32 0x834B586F2B321F90C8A3532F67FF7EA82946AFDCB59302EEA07EE17AE9D2FDA0 SWAP9 SWAP7 SWAP5 PUSH1 0x8 SWAP5 PUSH1 0xA0 SWAP5 PUSH1 0x0 SWAP3 PUSH2 0xB58 JUMPI JUMPDEST POP POP PUSH1 0x0 NOT DUP3 DUP13 SHL SHR NOT AND PUSH1 0x1 SWAP2 DUP3 SHL OR SWAP1 DUP6 ADD SSTORE JUMPDEST PUSH1 0x60 DUP2 ADD MLOAD PUSH1 0x2 DUP6 ADD SSTORE PUSH1 0x80 DUP1 DUP3 ADD MLOAD DUP1 MLOAD DUP12 DUP8 ADD SSTORE PUSH1 0x20 DUP2 ADD MLOAD PUSH1 0x4 DUP8 ADD SSTORE PUSH1 0x40 DUP2 ADD MLOAD PUSH1 0x5 DUP8 ADD SSTORE PUSH1 0x60 DUP2 ADD MLOAD PUSH1 0x6 DUP8 ADD SSTORE ADD MLOAD PUSH1 0x7 DUP6 ADD SSTORE ADD MLOAD SWAP2 ADD SSTORE DUP3 MLOAD PUSH2 0x5DC DUP2 SLT DUP1 SWAP2 DUP2 ISZERO PUSH2 0xB4C JUMPI JUMPDEST POP PUSH2 0x9FA JUMPI JUMPDEST POP PUSH1 0x20 DUP4 ADD MLOAD PUSH2 0xFA0 DUP2 LT DUP1 SWAP2 DUP2 ISZERO PUSH2 0x9EE JUMPI JUMPDEST POP PUSH2 0x89C JUMPI JUMPDEST POP PUSH2 0x1388 PUSH1 0x40 DUP5 ADD MLOAD GT PUSH2 0x7C7 JUMPI JUMPDEST PUSH2 0x74F DUP2 PUSH2 0x2200 JUMP JUMPDEST PUSH2 0x7AF PUSH1 0x40 MLOAD SWAP4 DUP8 PUSH2 0x100 DUP1 DUP8 MSTORE DUP7 ADD MSTORE DUP8 PUSH2 0x120 SWAP5 DUP6 DUP8 ADD CALLDATACOPY PUSH1 0x0 DUP5 DUP10 DUP8 ADD ADD MSTORE PUSH4 0xFFFFFFFF TIMESTAMP AND PUSH1 0x20 DUP7 ADD MSTORE PUSH1 0x40 DUP6 ADD SWAP1 PUSH1 0x80 DUP1 SWAP2 DUP1 MLOAD DUP5 MSTORE PUSH1 0x20 DUP2 ADD MLOAD PUSH1 0x20 DUP6 ADD MSTORE PUSH1 0x40 DUP2 ADD MLOAD PUSH1 0x40 DUP6 ADD MSTORE PUSH1 0x60 DUP2 ADD MLOAD PUSH1 0x60 DUP6 ADD MSTORE ADD MLOAD SWAP2 ADD MSTORE JUMP JUMPDEST PUSH1 0xE0 DUP4 ADD MSTORE CALLER SWAP5 PUSH1 0x1F ADD PUSH1 0x1F NOT AND DUP3 ADD DUP3 SWAP1 SUB ADD SWAP1 LOG3 STOP JUMPDEST PUSH32 0x15EC3CC1E26A8FB9D2F31CAEDD129C736758C59D5994EEA541E32F61E785B8F6 PUSH2 0x180 PUSH1 0x40 MLOAD PUSH1 0x8 PUSH2 0x100 DUP1 DUP4 MSTORE DUP3 ADD MSTORE PUSH32 0x5241494E46414C4C000000000000000000000000000000000000000000000000 PUSH2 0x120 DUP3 ADD MSTORE PUSH1 0x17 PUSH2 0x140 DUP1 PUSH1 0x20 DUP5 ADD MSTORE DUP3 ADD MSTORE PUSH32 0x4865617679207261696E66616C6C206465746563746564000000000000000000 PUSH2 0x160 DUP3 ADD MSTORE PUSH2 0x88A PUSH1 0x40 DUP3 ADD DUP8 PUSH1 0x80 DUP1 SWAP2 DUP1 MLOAD DUP5 MSTORE PUSH1 0x20 DUP2 ADD MLOAD PUSH1 0x20 DUP6 ADD MSTORE PUSH1 0x40 DUP2 ADD MLOAD PUSH1 0x40 DUP6 ADD MSTORE PUSH1 0x60 DUP2 ADD MLOAD PUSH1 0x60 DUP6 ADD MSTORE ADD MLOAD SWAP2 ADD MSTORE JUMP JUMPDEST PUSH4 0xFFFFFFFF TIMESTAMP AND PUSH1 0xE0 DUP3 ADD MSTORE LOG1 PUSH2 0x746 JUMP JUMPDEST ISZERO PUSH2 0x98F JUMPI PUSH32 0x15EC3CC1E26A8FB9D2F31CAEDD129C736758C59D5994EEA541E32F61E785B8F6 PUSH2 0x945 PUSH1 0x40 MLOAD PUSH2 0x8D1 DUP2 PUSH2 0x18A5 JUMP JUMPDEST PUSH1 0x10 DUP2 MSTORE PUSH32 0x48756D696469747920746F6F206C6F7700000000000000000000000000000000 PUSH1 0x20 DUP3 ADD MSTORE JUMPDEST PUSH1 0x40 MLOAD SWAP2 DUP3 SWAP2 PUSH1 0x8 PUSH2 0x100 DUP1 DUP6 MSTORE DUP5 ADD MSTORE PUSH32 0x48554D4944495459000000000000000000000000000000000000000000000000 PUSH2 0x120 DUP5 ADD MSTORE PUSH2 0x140 DUP1 PUSH1 0x20 DUP6 ADD MSTORE DUP4 ADD SWAP1 PUSH2 0x1B94 JUMP JUMPDEST PUSH2 0x97A PUSH1 0x40 DUP4 ADD DUP9 PUSH1 0x80 DUP1 SWAP2 DUP1 MLOAD DUP5 MSTORE PUSH1 0x20 DUP2 ADD MLOAD PUSH1 0x20 DUP6 ADD MSTORE PUSH1 0x40 DUP2 ADD MLOAD PUSH1 0x40 DUP6 ADD MSTORE PUSH1 0x60 DUP2 ADD MLOAD PUSH1 0x60 DUP6 ADD MSTORE ADD MLOAD SWAP2 ADD MSTORE JUMP JUMPDEST PUSH4 0xFFFFFFFF TIMESTAMP AND PUSH1 0xE0 DUP4 ADD MSTORE SUB SWAP1 LOG1 DUP7 PUSH2 0x737 JUMP JUMPDEST PUSH32 0x15EC3CC1E26A8FB9D2F31CAEDD129C736758C59D5994EEA541E32F61E785B8F6 PUSH2 0x945 PUSH1 0x40 MLOAD PUSH2 0x9BF DUP2 PUSH2 0x18A5 JUMP JUMPDEST PUSH1 0x11 DUP2 MSTORE PUSH32 0x48756D696469747920746F6F2068696768000000000000000000000000000000 PUSH1 0x20 DUP3 ADD MSTORE PUSH2 0x8FC JUMP JUMPDEST PUSH2 0x1770 SWAP2 POP GT DUP9 PUSH2 0x731 JUMP JUMPDEST ISZERO PUSH2 0xAED JUMPI PUSH32 0x15EC3CC1E26A8FB9D2F31CAEDD129C736758C59D5994EEA541E32F61E785B8F6 PUSH2 0xAA3 PUSH1 0x40 MLOAD PUSH2 0xA2F DUP2 PUSH2 0x18A5 JUMP JUMPDEST PUSH1 0x13 DUP2 MSTORE PUSH32 0x54656D706572617475726520746F6F206C6F7700000000000000000000000000 PUSH1 0x20 DUP3 ADD MSTORE JUMPDEST PUSH1 0x40 MLOAD SWAP2 DUP3 SWAP2 PUSH1 0xB PUSH2 0x100 DUP1 DUP6 MSTORE DUP5 ADD MSTORE PUSH32 0x54454D5045524154555245000000000000000000000000000000000000000000 PUSH2 0x120 DUP5 ADD MSTORE PUSH2 0x140 DUP1 PUSH1 0x20 DUP6 ADD MSTORE DUP4 ADD SWAP1 PUSH2 0x1B94 JUMP JUMPDEST PUSH2 0xAD8 PUSH1 0x40 DUP4 ADD DUP9 PUSH1 0x80 DUP1 SWAP2 DUP1 MLOAD DUP5 MSTORE PUSH1 0x20 DUP2 ADD MLOAD PUSH1 0x20 DUP6 ADD MSTORE PUSH1 0x40 DUP2 ADD MLOAD PUSH1 0x40 DUP6 ADD MSTORE PUSH1 0x60 DUP2 ADD MLOAD PUSH1 0x60 DUP6 ADD MSTORE ADD MLOAD SWAP2 ADD MSTORE JUMP JUMPDEST PUSH4 0xFFFFFFFF TIMESTAMP AND PUSH1 0xE0 DUP4 ADD MSTORE SUB SWAP1 LOG1 DUP7 PUSH2 0x71D JUMP JUMPDEST PUSH32 0x15EC3CC1E26A8FB9D2F31CAEDD129C736758C59D5994EEA541E32F61E785B8F6 PUSH2 0xAA3 PUSH1 0x40 MLOAD PUSH2 0xB1D DUP2 PUSH2 0x18A5 JUMP JUMPDEST PUSH1 0x14 DUP2 MSTORE PUSH32 0x54656D706572617475726520746F6F2068696768000000000000000000000000 PUSH1 0x20 DUP3 ADD MSTORE PUSH2 0xA5A JUMP JUMPDEST PUSH2 0x9C4 SWAP2 POP SGT DUP9 PUSH2 0x717 JUMP JUMPDEST ADD MLOAD SWAP1 POP DUP13 DUP1 PUSH2 0x6B1 JUMP JUMPDEST SWAP1 PUSH1 0x1 DUP6 ADD PUSH1 0x0 MSTORE PUSH1 0x20 PUSH1 0x0 KECCAK256 SWAP2 PUSH1 0x0 JUMPDEST PUSH1 0x1F NOT DUP6 AND DUP2 LT PUSH2 0xBE6 JUMPI POP SWAP4 PUSH1 0x1 DUP5 PUSH1 0x8 SWAP5 PUSH1 0xA0 SWAP5 PUSH1 0x3 SWAP13 SWAP11 SWAP9 PUSH32 0x834B586F2B321F90C8A3532F67FF7EA82946AFDCB59302EEA07EE17AE9D2FDA0 SWAP13 SWAP11 SWAP9 PUSH1 0x1F NOT DUP2 AND LT PUSH2 0xBCE JUMPI JUMPDEST POP POP POP DUP2 SHL ADD PUSH1 0x1 DUP6 ADD SSTORE PUSH2 0x6C7 JUMP JUMPDEST ADD MLOAD PUSH1 0x0 NOT DUP4 DUP15 SHL PUSH1 0xF8 AND SHR NOT AND SWAP1 SSTORE DUP13 DUP1 DUP1 PUSH2 0xBBE JUMP JUMPDEST SWAP2 SWAP3 PUSH1 0x20 PUSH1 0x1 DUP2 SWAP3 DUP7 DUP6 ADD MLOAD DUP2 SSTORE ADD SWAP5 ADD SWAP3 ADD PUSH2 0xB74 JUMP JUMPDEST PUSH1 0x1 DUP6 ADD PUSH1 0x0 MSTORE PUSH1 0x20 PUSH1 0x0 KECCAK256 PUSH1 0x1F DUP5 ADD PUSH1 0x5 SHR DUP2 ADD PUSH1 0x20 DUP6 LT PUSH2 0xC3E JUMPI JUMPDEST PUSH1 0x1F DUP4 ADD PUSH1 0x5 SHR DUP3 ADD DUP2 LT PUSH2 0xC32 JUMPI POP POP PUSH2 0x66A JUMP JUMPDEST PUSH1 0x0 DUP2 SSTORE PUSH1 0x1 ADD PUSH2 0xC1C JUMP JUMPDEST POP DUP1 PUSH2 0xC1C JUMP JUMPDEST PUSH4 0x4E487B71 PUSH1 0xE0 SHL PUSH1 0x0 MSTORE PUSH1 0x41 PUSH1 0x4 MSTORE PUSH1 0x24 PUSH1 0x0 REVERT JUMPDEST PUSH4 0x4E487B71 PUSH1 0xE0 SHL PUSH1 0x0 MSTORE PUSH1 0x11 PUSH1 0x4 MSTORE PUSH1 0x24 PUSH1 0x0 REVERT JUMPDEST PUSH2 0xC93 SWAP2 POP PUSH1 0x20 RETURNDATASIZE PUSH1 0x20 GT PUSH2 0xC99 JUMPI JUMPDEST PUSH2 0xC8B DUP2 DUP4 PUSH2 0x18C1 JUMP JUMPDEST DUP2 ADD SWAP1 PUSH2 0x1CE5 JUMP JUMPDEST DUP5 PUSH2 0x4E3 JUMP JUMPDEST POP RETURNDATASIZE PUSH2 0xC81 JUMP JUMPDEST PUSH1 0x40 MLOAD RETURNDATASIZE PUSH1 0x0 DUP3 RETURNDATACOPY RETURNDATASIZE SWAP1 REVERT JUMPDEST CALLVALUE PUSH2 0x1C0 JUMPI PUSH1 0x0 CALLDATASIZE PUSH1 0x3 NOT ADD SLT PUSH2 0x1C0 JUMPI PUSH1 0x1 DUP1 PUSH1 0x0 PUSH1 0x5 PUSH1 0xFF DUP2 SLOAD PUSH1 0xC0 SHR AND DUP5 DUP3 DUP3 LT ISZERO SWAP1 JUMPDEST PUSH2 0xCE5 JUMPI JUMPDEST PUSH1 0x20 DUP6 PUSH1 0x40 MLOAD SWAP1 ISZERO ISZERO DUP2 MSTORE RETURN JUMPDEST DUP1 PUSH2 0x32E JUMPI DUP2 DUP5 GT PUSH2 0xD87 JUMPI DUP3 DUP5 LT ISZERO PUSH2 0x32E JUMPI PUSH2 0xD0A PUSH2 0xD05 DUP6 PUSH2 0x1C90 JUMP JUMPDEST PUSH2 0x1DFA JUMP JUMPDEST PUSH1 0x20 PUSH4 0xFFFFFFFF DUP2 DUP4 ADD MLOAD AND PUSH2 0xD30 JUMPI JUMPDEST POP POP PUSH1 0x0 NOT DUP5 EQ PUSH2 0xC5B JUMPI DUP6 DUP1 SWAP5 ADD SWAP4 PUSH2 0xCD3 JUMP JUMPDEST PUSH1 0x60 SWAP1 PUSH1 0x40 DUP4 ADD MLOAD SWAP1 PUSH2 0xD62 PUSH1 0x40 MLOAD SWAP2 DUP3 DUP2 PUSH2 0xD55 DUP2 DUP4 ADD SWAP7 DUP8 DUP2 MLOAD SWAP4 DUP5 SWAP3 ADD PUSH2 0x1B71 JUMP JUMPDEST DUP2 ADD SUB DUP1 DUP5 MSTORE ADD DUP3 PUSH2 0x18C1 JUMP JUMPDEST MLOAD SWAP1 KECCAK256 SWAP2 ADD MLOAD SUB PUSH2 0xD74 JUMPI DUP7 DUP1 PUSH2 0xD1B JUMP JUMPDEST POP POP POP POP POP POP PUSH1 0x20 PUSH1 0x0 DUP3 DUP1 DUP1 DUP1 PUSH2 0xCD8 JUMP JUMPDEST PUSH2 0xCD8 JUMP JUMPDEST CALLVALUE PUSH2 0x1C0 JUMPI PUSH1 0x0 CALLDATASIZE PUSH1 0x3 NOT ADD SLT PUSH2 0x1C0 JUMPI PUSH2 0x1BC PUSH2 0xDA8 PUSH2 0x1A37 JUMP JUMPDEST PUSH1 0x40 MLOAD SWAP2 DUP3 SWAP2 PUSH1 0x20 DUP4 MSTORE PUSH1 0x20 DUP4 ADD SWAP1 PUSH2 0x1B94 JUMP JUMPDEST CALLVALUE PUSH2 0x1C0 JUMPI PUSH1 0x0 CALLDATASIZE PUSH1 0x3 NOT ADD SLT PUSH2 0x1C0 JUMPI PUSH1 0x20 PUSH1 0xFF PUSH1 0x5 SLOAD PUSH1 0xC0 SHR AND PUSH2 0xDE5 PUSH1 0x40 MLOAD DUP1 SWAP3 PUSH2 0x1C83 JUMP JUMPDEST RETURN JUMPDEST CALLVALUE PUSH2 0x1C0 JUMPI PUSH2 0xDF5 CALLDATASIZE PUSH2 0x1BB9 JUMP JUMPDEST SWAP1 PUSH1 0x40 MLOAD PUSH4 0xC0112F3 PUSH1 0xE2 SHL DUP2 MSTORE CALLER PUSH1 0x4 DUP3 ADD MSTORE PUSH1 0x3 PUSH1 0x24 DUP3 ADD MSTORE PUSH1 0x20 DUP2 PUSH1 0x44 DUP2 PUSH1 0x1 PUSH1 0x1 PUSH1 0xA0 SHL SUB PUSH32 0x0 AND GAS STATICCALL DUP1 ISZERO PUSH2 0xCA0 JUMPI PUSH2 0xE59 SWAP2 PUSH1 0x0 SWAP2 PUSH2 0xC71 JUMPI POP PUSH2 0x1CFD JUMP JUMPDEST PUSH1 0x5 SLOAD SWAP1 PUSH1 0xFF DUP3 PUSH1 0xC0 SHR AND PUSH1 0x5 DUP2 LT ISZERO PUSH2 0x32E JUMPI PUSH1 0x1 DUP2 ADD DUP1 SWAP2 GT PUSH2 0xC5B JUMPI PUSH2 0xE84 SWAP1 PUSH1 0x2 EQ PUSH2 0x1D48 JUMP JUMPDEST PUSH2 0xE8F DUP4 ISZERO ISZERO PUSH2 0x1D93 JUMP JUMPDEST PUSH2 0xE97 PUSH2 0x1E5B JUMP JUMPDEST POP PUSH2 0xEA0 PUSH2 0x1EBF JUMP JUMPDEST SWAP2 PUSH25 0x2000000000000000000000000000000000000000000000000 PUSH1 0xFF PUSH1 0xC0 SHL NOT PUSH2 0xEC9 PUSH2 0x21DD JUMP JUMPDEST SWAP3 AND OR PUSH1 0x5 SSTORE DUP1 PUSH1 0x7 SSTORE PUSH1 0x40 MLOAD PUSH1 0x20 DUP2 ADD SWAP1 DUP6 DUP5 DUP4 CALLDATACOPY PUSH2 0xEF9 PUSH1 0x20 DUP3 DUP9 DUP2 ADD PUSH1 0x0 DUP4 DUP3 ADD MSTORE SUB DUP1 DUP5 MSTORE ADD DUP3 PUSH2 0x18C1 JUMP JUMPDEST MLOAD SWAP1 KECCAK256 PUSH1 0x40 MLOAD PUSH2 0xF08 DUP2 PUSH2 0x1889 JUMP JUMPDEST CALLER DUP2 MSTORE PUSH4 0xFFFFFFFF TIMESTAMP AND PUSH1 0x20 DUP3 ADD MSTORE PUSH2 0xF20 DUP7 PUSH2 0x1DDE JUMP JUMPDEST SWAP2 PUSH2 0xF2E PUSH1 0x40 MLOAD SWAP4 DUP5 PUSH2 0x18C1 JUMP JUMPDEST DUP7 DUP4 MSTORE CALLDATASIZE DUP8 DUP7 ADD GT PUSH2 0x1C0 JUMPI DUP7 DUP6 PUSH1 0x20 DUP6 ADD CALLDATACOPY PUSH1 0x0 PUSH1 0x20 DUP9 DUP6 ADD ADD MSTORE PUSH1 0x40 DUP3 ADD SWAP3 DUP4 MSTORE PUSH1 0x60 DUP3 ADD MSTORE DUP5 PUSH1 0x80 DUP3 ADD MSTORE DUP3 PUSH1 0xA0 DUP3 ADD MSTORE PUSH1 0x2 PUSH1 0x0 MSTORE PUSH1 0x8 PUSH1 0x20 MSTORE PUSH1 0x40 PUSH1 0x0 KECCAK256 SWAP2 PUSH1 0x1 PUSH1 0x1 PUSH1 0xA0 SHL SUB DUP3 MLOAD AND DUP4 SLOAD SWAP1 PUSH24 0xFFFFFFFFFFFFFFFFFFFFFFFFFFFFFFFFFFFFFFFFFFFFFFFF NOT PUSH4 0xFFFFFFFF PUSH1 0xA0 SHL PUSH1 0x20 DUP7 ADD MLOAD PUSH1 0xA0 SHL AND SWAP3 AND OR OR DUP4 SSTORE MLOAD DUP1 MLOAD SWAP1 PUSH8 0xFFFFFFFFFFFFFFFF DUP3 GT PUSH2 0xC45 JUMPI PUSH2 0xFD1 PUSH1 0x1 DUP6 ADD SLOAD PUSH2 0x1833 JUMP JUMPDEST PUSH1 0x1F DUP2 GT PUSH2 0x1163 JUMPI JUMPDEST POP PUSH1 0x20 SWAP1 PUSH1 0x1F DUP4 GT PUSH1 0x1 EQ PUSH2 0x10C7 JUMPI PUSH1 0x2 SWAP8 SWAP6 SWAP4 DUP4 PUSH32 0x834B586F2B321F90C8A3532F67FF7EA82946AFDCB59302EEA07EE17AE9D2FDA0 SWAP9 SWAP7 SWAP5 PUSH1 0x8 SWAP5 PUSH1 0xA0 SWAP5 PUSH1 0x0 SWAP3 PUSH2 0x10BC JUMPI JUMPDEST POP POP DUP2 PUSH1 0x1 SHL SWAP2 PUSH1 0x0 NOT SWAP1 PUSH1 0x3 SHL SHR NOT AND OR PUSH1 0x1 DUP6 ADD SSTORE JUMPDEST PUSH1 0x60 DUP2 ADD MLOAD DUP10 DUP6 ADD SSTORE PUSH1 0x80 DUP1 DUP3 ADD MLOAD DUP1 MLOAD PUSH1 0x3 DUP8 ADD SSTORE PUSH1 0x20 DUP2 ADD MLOAD PUSH1 0x4 DUP8 ADD SSTORE PUSH1 0x40 DUP2 ADD MLOAD PUSH1 0x5 DUP8 ADD SSTORE PUSH1 0x60 DUP2 ADD MLOAD PUSH1 0x6 DUP8 ADD SSTORE ADD MLOAD PUSH1 0x7 DUP6 ADD SSTORE ADD MLOAD SWAP2 ADD SSTORE DUP3 MLOAD PUSH2 0x5DC DUP2 SLT DUP1 SWAP2 DUP2 ISZERO PUSH2 0xB4C JUMPI POP PUSH2 0x9FA JUMPI POP PUSH1 0x20 DUP4 ADD MLOAD PUSH2 0xFA0 DUP2 LT DUP1 SWAP2 DUP2 ISZERO PUSH2 0x9EE JUMPI POP PUSH2 0x89C JUMPI POP PUSH2 0x1388 PUSH1 0x40 DUP5 ADD MLOAD GT PUSH2 0x7C7 JUMPI PUSH2 0x74F DUP2 PUSH2 0x2200 JUMP JUMPDEST ADD MLOAD SWAP1 POP DUP13 DUP1 PUSH2 0x1021 JUMP JUMPDEST SWAP1 PUSH1 0x1 DUP6 ADD PUSH1 0x0 MSTORE PUSH1 0x20 PUSH1 0x0 KECCAK256 SWAP2 PUSH1 0x0 JUMPDEST PUSH1 0x1F NOT DUP6 AND DUP2 LT PUSH2 0x114B JUMPI POP SWAP4 PUSH1 0x1 DUP5 PUSH1 0x8 SWAP5 PUSH1 0xA0 SWAP5 PUSH1 0x2 SWAP13 SWAP11 SWAP9 PUSH32 0x834B586F2B321F90C8A3532F67FF7EA82946AFDCB59302EEA07EE17AE9D2FDA0 SWAP13 SWAP11 SWAP9 PUSH1 0x1F NOT DUP2 AND LT PUSH2 0x1132 JUMPI JUMPDEST POP POP POP DUP2 SHL ADD PUSH1 0x1 DUP6 ADD SSTORE PUSH2 0x1039 JUMP JUMPDEST ADD MLOAD PUSH1 0x0 NOT PUSH1 0xF8 DUP5 PUSH1 0x3 SHL AND SHR NOT AND SWAP1 SSTORE DUP13 DUP1 DUP1 PUSH2 0x1122 JUMP JUMPDEST SWAP2 SWAP3 PUSH1 0x20 PUSH1 0x1 DUP2 SWAP3 DUP7 DUP6 ADD MLOAD DUP2 SSTORE ADD SWAP5 ADD SWAP3 ADD PUSH2 0x10D8 JUMP JUMPDEST PUSH1 0x1 DUP6 ADD PUSH1 0x0 MSTORE PUSH1 0x20 PUSH1 0x0 KECCAK256 PUSH1 0x1F DUP5 ADD PUSH1 0x5 SHR DUP2 ADD PUSH1 0x20 DUP6 LT PUSH2 0x11A3 JUMPI JUMPDEST PUSH1 0x1F DUP4 ADD PUSH1 0x5 SHR DUP3 ADD DUP2 LT PUSH2 0x1197 JUMPI POP POP PUSH2 0xFDA JUMP JUMPDEST PUSH1 0x0 DUP2 SSTORE PUSH1 0x1 ADD PUSH2 0x1181 JUMP JUMPDEST POP DUP1 PUSH2 0x1181 JUMP JUMPDEST CALLVALUE PUSH2 0x1C0 JUMPI PUSH1 0x0 CALLDATASIZE PUSH1 0x3 NOT ADD SLT PUSH2 0x1C0 JUMPI PUSH1 0x20 PUSH1 0x7 SLOAD PUSH1 0x40 MLOAD SWAP1 DUP2 MSTORE RETURN JUMPDEST CALLVALUE PUSH2 0x1C0 JUMPI PUSH1 0x0 CALLDATASIZE PUSH1 0x3 NOT ADD SLT PUSH2 0x1C0 JUMPI PUSH2 0x1BC PUSH2 0xDA8 PUSH2 0x199E JUMP JUMPDEST CALLVALUE PUSH2 0x1C0 JUMPI PUSH1 0x0 CALLDATASIZE PUSH1 0x3 NOT ADD SLT PUSH2 0x1C0 JUMPI PUSH2 0x11FD PUSH2 0x1E86 JUMP JUMPDEST POP PUSH2 0x1206 PUSH2 0x1E86 JUMP JUMPDEST POP PUSH2 0x120F PUSH2 0x1E86 JUMP JUMPDEST POP PUSH2 0x1218 PUSH2 0x1E86 JUMP JUMPDEST POP PUSH1 0x8 PUSH1 0x20 MSTORE PUSH1 0x3 PUSH1 0x0 MSTORE PUSH2 0x12EB PUSH32 0xAD67D757C34507F157CACFA2E3153E9F260A2244F30428821BE7BE64587AC55F PUSH2 0x1BC PUSH32 0x6ADD646517A5B0F6793CD5891B7937D28A5B2981A5D88EBC7CD776088FEA9041 PUSH2 0x1307 PUSH32 0x625B35F5E76F098DD7C3A05B10E2E5E78A4A01228D60C3B143426CDF36D26455 PUSH2 0x12F9 PUSH2 0x12D6 PUSH2 0x12D0 PUSH2 0x12CA PUSH2 0x12C4 PUSH32 0x5EFF886EA0CE6CA488A3D6E336D6C0F75F46D19B42C06CE5EE98E42C96D256C7 PUSH2 0x1DFA JUMP JUMPDEST SWAP9 PUSH2 0x1DFA JUMP JUMPDEST SWAP6 PUSH2 0x1DFA JUMP JUMPDEST SWAP3 PUSH2 0x1DFA JUMP JUMPDEST SWAP4 PUSH1 0x40 MLOAD SWAP8 DUP9 SWAP8 PUSH1 0x80 DUP10 MSTORE PUSH1 0x80 DUP10 ADD SWAP1 PUSH2 0x1C03 JUMP JUMPDEST SWAP1 DUP8 DUP3 SUB PUSH1 0x20 DUP10 ADD MSTORE PUSH2 0x1C03 JUMP JUMPDEST SWAP1 DUP6 DUP3 SUB PUSH1 0x40 DUP8 ADD MSTORE PUSH2 0x1C03 JUMP JUMPDEST SWAP1 DUP4 DUP3 SUB PUSH1 0x60 DUP6 ADD MSTORE PUSH2 0x1C03 JUMP JUMPDEST CALLVALUE PUSH2 0x1C0 JUMPI PUSH1 0x0 CALLDATASIZE PUSH1 0x3 NOT ADD SLT PUSH2 0x1C0 JUMPI PUSH1 0x20 PUSH1 0x2 SLOAD PUSH1 0x40 MLOAD SWAP1 DUP2 MSTORE RETURN JUMPDEST CALLVALUE PUSH2 0x1C0 JUMPI PUSH1 0x20 CALLDATASIZE PUSH1 0x3 NOT ADD SLT PUSH2 0x1C0 JUMPI PUSH1 0x4 CALLDATALOAD PUSH1 0x5 DUP2 LT ISZERO PUSH2 0x1C0 JUMPI PUSH2 0x1368 PUSH2 0xD05 PUSH2 0x1BC SWAP3 PUSH2 0x1362 PUSH2 0x1E86 JUMP JUMPDEST POP PUSH2 0x1C90 JUMP JUMPDEST PUSH1 0x40 MLOAD SWAP2 DUP3 SWAP2 PUSH1 0x20 DUP4 MSTORE PUSH1 0x20 DUP4 ADD SWAP1 PUSH2 0x1C03 JUMP JUMPDEST CALLVALUE PUSH2 0x1C0 JUMPI PUSH1 0x0 CALLDATASIZE PUSH1 0x3 NOT ADD SLT PUSH2 0x1C0 JUMPI PUSH1 0xA0 PUSH1 0x1 PUSH1 0x1 PUSH1 0xA0 SHL SUB DUP1 PUSH1 0x9 SLOAD AND SWAP1 DUP1 PUSH1 0xA SLOAD AND SWAP1 DUP1 PUSH1 0xB SLOAD AND DUP2 PUSH1 0xC SLOAD AND SWAP2 PUSH1 0xD SLOAD AND SWAP3 PUSH1 0x40 MLOAD SWAP5 DUP6 MSTORE PUSH1 0x20 DUP6 ADD MSTORE PUSH1 0x40 DUP5 ADD MSTORE PUSH1 0x60 DUP4 ADD MSTORE PUSH1 0x80 DUP3 ADD MSTORE RETURN JUMPDEST CALLVALUE PUSH2 0x1C0 JUMPI PUSH1 0x0 CALLDATASIZE PUSH1 0x3 NOT ADD SLT PUSH2 0x1C0 JUMPI PUSH1 0x20 PUSH1 0x40 MLOAD PUSH1 0x1 PUSH1 0x1 PUSH1 0xA0 SHL SUB PUSH32 0x0 AND DUP2 MSTORE RETURN JUMPDEST CALLVALUE PUSH2 0x1C0 JUMPI PUSH1 0x0 CALLDATASIZE PUSH1 0x3 NOT ADD SLT PUSH2 0x1C0 JUMPI PUSH1 0x20 PUSH1 0xFF PUSH1 0x5 SLOAD PUSH1 0xC8 SHR AND PUSH1 0x40 MLOAD SWAP1 ISZERO ISZERO DUP2 MSTORE RETURN JUMPDEST CALLVALUE PUSH2 0x1C0 JUMPI PUSH1 0x0 CALLDATASIZE PUSH1 0x3 NOT ADD SLT PUSH2 0x1C0 JUMPI PUSH1 0x20 PUSH1 0x6 SLOAD PUSH1 0x40 MLOAD SWAP1 DUP2 MSTORE RETURN JUMPDEST CALLVALUE PUSH2 0x1C0 JUMPI PUSH2 0x1465 CALLDATASIZE PUSH2 0x1BB9 JUMP JUMPDEST SWAP1 PUSH1 0x40 MLOAD PUSH4 0xC0112F3 PUSH1 0xE2 SHL DUP2 MSTORE CALLER PUSH1 0x4 DUP3 ADD MSTORE PUSH1 0x1 PUSH1 0x24 DUP3 ADD MSTORE PUSH1 0x20 DUP2 PUSH1 0x44 DUP2 PUSH1 0x1 PUSH1 0x1 PUSH1 0xA0 SHL SUB PUSH32 0x0 AND GAS STATICCALL DUP1 ISZERO PUSH2 0xCA0 JUMPI PUSH2 0x14C9 SWAP2 PUSH1 0x0 SWAP2 PUSH2 0xC71 JUMPI POP PUSH2 0x1CFD JUMP JUMPDEST PUSH1 0x5 SLOAD SWAP1 PUSH1 0xFF DUP3 PUSH1 0xC0 SHR AND PUSH1 0x5 DUP2 LT ISZERO PUSH2 0x32E JUMPI PUSH1 0x1 DUP2 ADD DUP1 SWAP2 GT PUSH2 0xC5B JUMPI PUSH2 0x14F4 SWAP1 PUSH1 0x1 EQ PUSH2 0x1D48 JUMP JUMPDEST PUSH2 0x14FF DUP4 ISZERO ISZERO PUSH2 0x1D93 JUMP JUMPDEST PUSH2 0x1507 PUSH2 0x1E5B JUMP JUMPDEST POP PUSH2 0x1510 PUSH2 0x1EBF JUMP JUMPDEST SWAP2 PUSH25 0x1000000000000000000000000000000000000000000000000 PUSH1 0xFF PUSH1 0xC0 SHL NOT PUSH2 0x1539 PUSH2 0x21DD JUMP JUMPDEST SWAP3 AND OR PUSH1 0x5 SSTORE DUP1 PUSH1 0x7 SSTORE PUSH1 0x40 MLOAD PUSH1 0x20 DUP2 ADD SWAP1 DUP6 DUP5 DUP4 CALLDATACOPY PUSH2 0x1569 PUSH1 0x20 DUP3 DUP9 DUP2 ADD PUSH1 0x0 DUP4 DUP3 ADD MSTORE SUB DUP1 DUP5 MSTORE ADD DUP3 PUSH2 0x18C1 JUMP JUMPDEST MLOAD SWAP1 KECCAK256 PUSH1 0x40 MLOAD PUSH2 0x1578 DUP2 PUSH2 0x1889 JUMP JUMPDEST CALLER DUP2 MSTORE PUSH4 0xFFFFFFFF TIMESTAMP AND PUSH1 0x20 DUP3 ADD MSTORE PUSH2 0x1590 DUP7 PUSH2 0x1DDE JUMP JUMPDEST SWAP2 PUSH2 0x159E PUSH1 0x40 MLOAD SWAP4 DUP5 PUSH2 0x18C1 JUMP JUMPDEST DUP7 DUP4 MSTORE CALLDATASIZE DUP8 DUP7 ADD GT PUSH2 0x1C0 JUMPI DUP7 DUP6 PUSH1 0x20 DUP6 ADD CALLDATACOPY PUSH1 0x0 PUSH1 0x20 DUP9 DUP6 ADD ADD MSTORE PUSH1 0x40 DUP3 ADD SWAP3 DUP4 MSTORE PUSH1 0x60 DUP3 ADD MSTORE DUP5 PUSH1 0x80 DUP3 ADD MSTORE DUP3 PUSH1 0xA0 DUP3 ADD MSTORE PUSH1 0x1 PUSH1 0x0 MSTORE PUSH1 0x8 PUSH1 0x20 MSTORE PUSH1 0x40 PUSH1 0x0 KECCAK256 SWAP2 PUSH1 0x1 PUSH1 0x1 PUSH1 0xA0 SHL SUB DUP3 MLOAD AND DUP4 SLOAD SWAP1 PUSH24 0xFFFFFFFFFFFFFFFFFFFFFFFFFFFFFFFFFFFFFFFFFFFFFFFF NOT PUSH4 0xFFFFFFFF PUSH1 0xA0 SHL PUSH1 0x20 DUP7 ADD MLOAD PUSH1 0xA0 SHL AND SWAP3 AND OR OR DUP4 SSTORE MLOAD DUP1 MLOAD SWAP1 PUSH8 0xFFFFFFFFFFFFFFFF DUP3 GT PUSH2 0xC45 JUMPI PUSH2 0x1641 PUSH1 0x1 DUP6 ADD SLOAD PUSH2 0x1833 JUMP JUMPDEST PUSH1 0x1F DUP2 GT PUSH2 0x17D0 JUMPI JUMPDEST POP PUSH1 0x20 SWAP1 PUSH1 0x1F DUP4 GT PUSH1 0x1 EQ PUSH2 0x1736 JUMPI PUSH1 0x1 SWAP8 SWAP6 SWAP4 DUP4 PUSH32 0x834B586F2B321F90C8A3532F67FF7EA82946AFDCB59302EEA07EE17AE9D2FDA0 SWAP9 SWAP7 SWAP5 PUSH1 0x8 SWAP5 PUSH1 0xA0 SWAP5 PUSH1 0x0 SWAP3 PUSH2 0x172B JUMPI JUMPDEST POP POP PUSH1 0x0 NOT PUSH1 0x3 DUP4 SWAP1 SHL SHR NOT AND SWAP1 DUP11 SHL OR DUP5 DUP11 ADD SSTORE JUMPDEST PUSH1 0x60 DUP2 ADD MLOAD PUSH1 0x2 DUP6 ADD SSTORE PUSH1 0x80 DUP1 DUP3 ADD MLOAD DUP1 MLOAD PUSH1 0x3 DUP8 ADD SSTORE PUSH1 0x20 DUP2 ADD MLOAD PUSH1 0x4 DUP8 ADD SSTORE PUSH1 0x40 DUP2 ADD MLOAD PUSH1 0x5 DUP8 ADD SSTORE PUSH1 0x60 DUP2 ADD MLOAD PUSH1 0x6 DUP8 ADD SSTORE ADD MLOAD PUSH1 0x7 DUP6 ADD SSTORE ADD MLOAD SWAP2 ADD SSTORE DUP3 MLOAD PUSH2 0x5DC DUP2 SLT DUP1 SWAP2 DUP2 ISZERO PUSH2 0xB4C JUMPI POP PUSH2 0x9FA JUMPI POP PUSH1 0x20 DUP4 ADD MLOAD PUSH2 0xFA0 DUP2 LT DUP1 SWAP2 DUP2 ISZERO PUSH2 0x9EE JUMPI POP PUSH2 0x89C JUMPI POP PUSH2 0x1388 PUSH1 0x40 DUP5 ADD MLOAD GT PUSH2 0x7C7 JUMPI PUSH2 0x74F DUP2 PUSH2 0x2200 JUMP JUMPDEST ADD MLOAD SWAP1 POP DUP13 DUP1 PUSH2 0x1691 JUMP JUMPDEST SWAP1 PUSH1 0x1 DUP6 ADD PUSH1 0x0 MSTORE PUSH1 0x20 PUSH1 0x0 KECCAK256 SWAP2 PUSH1 0x0 JUMPDEST PUSH1 0x1F NOT DUP6 AND DUP2 LT PUSH2 0x17B8 JUMPI POP SWAP4 PUSH1 0x1 DUP5 PUSH1 0x8 SWAP5 PUSH1 0xA0 SWAP5 DUP4 SWAP13 SWAP11 SWAP9 PUSH32 0x834B586F2B321F90C8A3532F67FF7EA82946AFDCB59302EEA07EE17AE9D2FDA0 SWAP13 SWAP11 SWAP9 PUSH1 0x1F NOT DUP2 AND LT PUSH2 0x179F JUMPI JUMPDEST POP POP POP DUP2 SHL ADD DUP10 DUP6 ADD SSTORE PUSH2 0x16A7 JUMP JUMPDEST ADD MLOAD PUSH1 0x0 NOT PUSH1 0xF8 DUP5 PUSH1 0x3 SHL AND SHR NOT AND SWAP1 SSTORE DUP13 DUP1 DUP1 PUSH2 0x1790 JUMP JUMPDEST SWAP2 SWAP3 PUSH1 0x20 PUSH1 0x1 DUP2 SWAP3 DUP7 DUP6 ADD MLOAD DUP2 SSTORE ADD SWAP5 ADD SWAP3 ADD PUSH2 0x1747 JUMP JUMPDEST PUSH1 0x1 DUP6 ADD PUSH1 0x0 MSTORE PUSH1 0x20 PUSH1 0x0 KECCAK256 PUSH1 0x1F DUP5 ADD PUSH1 0x5 SHR DUP2 ADD PUSH1 0x20 DUP6 LT PUSH2 0x1810 JUMPI JUMPDEST PUSH1 0x1F DUP4 ADD PUSH1 0x5 SHR DUP3 ADD DUP2 LT PUSH2 0x1804 JUMPI POP POP PUSH2 0x164A JUMP JUMPDEST PUSH1 0x0 DUP2 SSTORE PUSH1 0x1 ADD PUSH2 0x17EE JUMP JUMPDEST POP DUP1 PUSH2 0x17EE JUMP JUMPDEST CALLVALUE PUSH2 0x1C0 JUMPI PUSH1 0x0 CALLDATASIZE PUSH1 0x3 NOT ADD SLT PUSH2 0x1C0 JUMPI PUSH2 0x1BC PUSH2 0xDA8 PUSH2 0x18E3 JUMP JUMPDEST SWAP1 PUSH1 0x1 DUP3 DUP2 SHR SWAP3 AND DUP1 ISZERO PUSH2 0x1863 JUMPI JUMPDEST PUSH1 0x20 DUP4 LT EQ PUSH2 0x184D JUMPI JUMP JUMPDEST PUSH4 0x4E487B71 PUSH1 0xE0 SHL PUSH1 0x0 MSTORE PUSH1 0x22 PUSH1 0x4 MSTORE PUSH1 0x24 PUSH1 0x0 REVERT JUMPDEST SWAP2 PUSH1 0x7F AND SWAP2 PUSH2 0x1842 JUMP JUMPDEST PUSH1 0xA0 DUP2 ADD SWAP1 DUP2 LT PUSH8 0xFFFFFFFFFFFFFFFF DUP3 GT OR PUSH2 0xC45 JUMPI PUSH1 0x40 MSTORE JUMP JUMPDEST PUSH1 0xC0 DUP2 ADD SWAP1 DUP2 LT PUSH8 0xFFFFFFFFFFFFFFFF DUP3 GT OR PUSH2 0xC45 JUMPI PUSH1 0x40 MSTORE JUMP JUMPDEST PUSH1 0x40 DUP2 ADD SWAP1 DUP2 LT PUSH8 0xFFFFFFFFFFFFFFFF DUP3 GT OR PUSH2 0xC45 JUMPI PUSH1 0x40 MSTORE JUMP JUMPDEST SWAP1 PUSH1 0x1F DUP1 NOT SWAP2 ADD AND DUP2 ADD SWAP1 DUP2 LT PUSH8 0xFFFFFFFFFFFFFFFF DUP3 GT OR PUSH2 0xC45 JUMPI PUSH1 0x40 MSTORE JUMP JUMPDEST PUSH1 0x40 MLOAD SWAP1 PUSH1 0x0 DUP3 DUP2 SLOAD SWAP2 PUSH2 0x18F6 DUP4 PUSH2 0x1833 JUMP JUMPDEST DUP1 DUP4 MSTORE SWAP3 PUSH1 0x1 SWAP1 DUP2 DUP2 AND SWAP1 DUP2 ISZERO PUSH2 0x197C JUMPI POP PUSH1 0x1 EQ PUSH2 0x191F JUMPI JUMPDEST POP PUSH2 0x191D SWAP3 POP SUB DUP4 PUSH2 0x18C1 JUMP JUMPDEST JUMP JUMPDEST PUSH1 0x0 DUP1 DUP1 MSTORE SWAP2 POP PUSH32 0x290DECD9548B62A8D60345A988386FC84BA6BC95484008F6362F93160EF3E563 JUMPDEST DUP5 DUP4 LT PUSH2 0x1961 JUMPI POP PUSH2 0x191D SWAP4 POP POP DUP2 ADD PUSH1 0x20 ADD CODESIZE PUSH2 0x1910 JUMP JUMPDEST DUP2 SWAP4 POP SWAP1 DUP2 PUSH1 0x20 SWAP3 SLOAD DUP4 DUP6 DUP11 ADD ADD MSTORE ADD SWAP2 ADD SWAP1 SWAP2 DUP6 SWAP3 PUSH2 0x1948 JUMP JUMPDEST SWAP1 POP PUSH1 0x20 SWAP3 POP PUSH2 0x191D SWAP5 SWAP2 POP PUSH1 0xFF NOT AND DUP3 DUP5 ADD MSTORE ISZERO ISZERO PUSH1 0x5 SHL DUP3 ADD ADD CODESIZE PUSH2 0x1910 JUMP JUMPDEST PUSH1 0x40 MLOAD SWAP1 PUSH1 0x0 DUP3 PUSH1 0x4 SLOAD SWAP2 PUSH2 0x19B2 DUP4 PUSH2 0x1833 JUMP JUMPDEST DUP1 DUP4 MSTORE SWAP3 PUSH1 0x1 SWAP1 DUP2 DUP2 AND SWAP1 DUP2 ISZERO PUSH2 0x197C JUMPI POP PUSH1 0x1 EQ PUSH2 0x19D8 JUMPI POP PUSH2 0x191D SWAP3 POP SUB DUP4 PUSH2 0x18C1 JUMP JUMPDEST PUSH1 0x4 PUSH1 0x0 SWAP1 DUP2 MSTORE SWAP2 POP PUSH32 0x8A35ACFBC15FF81A39AE7D344FD709F28E8600B4AA8C65C6B64BFE7FE36BD19B JUMPDEST DUP5 DUP4 LT PUSH2 0x1A1C JUMPI POP PUSH2 0x191D SWAP4 POP POP DUP2 ADD PUSH1 0x20 ADD CODESIZE PUSH2 0x1910 JUMP JUMPDEST DUP2 SWAP4 POP SWAP1 DUP2 PUSH1 0x20 SWAP3 SLOAD DUP4 DUP6 DUP11 ADD ADD MSTORE ADD SWAP2 ADD SWAP1 SWAP2 DUP6 SWAP3 PUSH2 0x1A03 JUMP JUMPDEST PUSH1 0x40 MLOAD SWAP1 PUSH1 0x0 DUP3 PUSH1 0x1 SWAP2 DUP3 SLOAD SWAP3 PUSH2 0x1A4D DUP5 PUSH2 0x1833 JUMP JUMPDEST DUP1 DUP5 MSTORE SWAP4 DUP2 DUP2 AND SWAP1 DUP2 ISZERO PUSH2 0x197C JUMPI POP PUSH1 0x1 EQ PUSH2 0x1A70 JUMPI POP PUSH2 0x191D SWAP3 POP SUB DUP4 PUSH2 0x18C1 JUMP JUMPDEST PUSH1 0x0 DUP2 DUP2 MSTORE SWAP2 POP PUSH32 0xB10E2D527612073B26EECDFD717E6A320CF44B4AFAC2B0732D9FCBE2B7FA0CF6 JUMPDEST DUP5 DUP4 LT PUSH2 0x1AB2 JUMPI POP PUSH2 0x191D SWAP4 POP POP DUP2 ADD PUSH1 0x20 ADD CODESIZE PUSH2 0x1910 JUMP JUMPDEST DUP2 SWAP4 POP SWAP1 DUP2 PUSH1 0x20 SWAP3 SLOAD DUP4 DUP6 DUP11 ADD ADD MSTORE ADD SWAP2 ADD SWAP1 SWAP2 DUP6 SWAP3 PUSH2 0x1A99 JUMP JUMPDEST SWAP1 PUSH1 0x40 MLOAD SWAP2 DUP3 PUSH1 0x0 DUP3 SLOAD SWAP3 PUSH2 0x1AE1 DUP5 PUSH2 0x1833 JUMP JUMPDEST SWAP1 DUP2 DUP5 MSTORE PUSH1 0x1 SWAP5 DUP6 DUP2 AND SWAP1 DUP2 PUSH1 0x0 EQ PUSH2 0x1B4E JUMPI POP PUSH1 0x1 EQ PUSH2 0x1B0B JUMPI JUMPDEST POP POP PUSH2 0x191D SWAP3 POP SUB DUP4 PUSH2 0x18C1 JUMP JUMPDEST SWAP1 SWAP4 SWAP2 POP PUSH1 0x0 MSTORE PUSH1 0x20 SWAP1 DUP2 PUSH1 0x0 KECCAK256 SWAP4 PUSH1 0x0 SWAP2 JUMPDEST DUP2 DUP4 LT PUSH2 0x1B36 JUMPI POP POP PUSH2 0x191D SWAP4 POP DUP3 ADD ADD CODESIZE DUP1 PUSH2 0x1AFD JUMP JUMPDEST DUP6 SLOAD DUP9 DUP5 ADD DUP6 ADD MSTORE SWAP5 DUP6 ADD SWAP5 DUP8 SWAP5 POP SWAP2 DUP4 ADD SWAP2 PUSH2 0x1B1E JUMP JUMPDEST SWAP2 POP POP PUSH2 0x191D SWAP5 POP PUSH1 0x20 SWAP3 POP PUSH1 0xFF NOT AND DUP3 DUP5 ADD MSTORE ISZERO ISZERO PUSH1 0x5 SHL DUP3 ADD ADD CODESIZE DUP1 PUSH2 0x1AFD JUMP JUMPDEST PUSH1 0x0 JUMPDEST DUP4 DUP2 LT PUSH2 0x1B84 JUMPI POP POP PUSH1 0x0 SWAP2 ADD MSTORE JUMP JUMPDEST DUP2 DUP2 ADD MLOAD DUP4 DUP3 ADD MSTORE PUSH1 0x20 ADD PUSH2 0x1B74 JUMP JUMPDEST SWAP1 PUSH1 0x20 SWAP2 PUSH2 0x1BAD DUP2 MLOAD DUP1 SWAP3 DUP2 DUP6 MSTORE DUP6 DUP1 DUP7 ADD SWAP2 ADD PUSH2 0x1B71 JUMP JUMPDEST PUSH1 0x1F ADD PUSH1 0x1F NOT AND ADD ADD SWAP1 JUMP JUMPDEST SWAP1 PUSH1 0x20 PUSH1 0x3 NOT DUP4 ADD SLT PUSH2 0x1C0 JUMPI PUSH1 0x4 CALLDATALOAD PUSH8 0xFFFFFFFFFFFFFFFF SWAP3 DUP4 DUP3 GT PUSH2 0x1C0 JUMPI DUP1 PUSH1 0x23 DUP4 ADD SLT ISZERO PUSH2 0x1C0 JUMPI DUP2 PUSH1 0x4 ADD CALLDATALOAD SWAP4 DUP5 GT PUSH2 0x1C0 JUMPI PUSH1 0x24 DUP5 DUP4 ADD ADD GT PUSH2 0x1C0 JUMPI PUSH1 0x24 ADD SWAP2 SWAP1 JUMP JUMPDEST SWAP1 PUSH1 0x1 PUSH1 0x1 PUSH1 0xA0 SHL SUB DUP3 MLOAD AND DUP2 MSTORE PUSH4 0xFFFFFFFF PUSH1 0x20 DUP4 ADD MLOAD AND PUSH1 0x20 DUP3 ADD MSTORE PUSH2 0x120 PUSH1 0xA0 PUSH2 0x1C3F PUSH1 0x40 DUP6 ADD MLOAD PUSH2 0x140 DUP1 PUSH1 0x40 DUP8 ADD MSTORE DUP6 ADD SWAP1 PUSH2 0x1B94 JUMP JUMPDEST PUSH1 0x60 DUP1 DUP7 ADD MLOAD DUP6 DUP3 ADD MSTORE PUSH1 0x80 DUP1 DUP8 ADD MLOAD DUP1 MLOAD DUP3 DUP9 ADD MSTORE PUSH1 0x20 DUP2 ADD MLOAD PUSH1 0xA0 DUP9 ADD MSTORE PUSH1 0x40 DUP2 ADD MLOAD PUSH1 0xC0 DUP9 ADD MSTORE SWAP2 DUP3 ADD MLOAD PUSH1 0xE0 DUP8 ADD MSTORE ADD MLOAD PUSH2 0x100 DUP6 ADD MSTORE SWAP4 ADD MLOAD SWAP2 ADD MSTORE SWAP1 JUMP JUMPDEST SWAP1 PUSH1 0x5 DUP3 LT ISZERO PUSH2 0x32E JUMPI MSTORE JUMP JUMPDEST PUSH1 0x5 DUP2 LT ISZERO PUSH2 0x32E JUMPI PUSH1 0x0 MSTORE PUSH1 0x8 PUSH1 0x20 MSTORE PUSH1 0x40 PUSH1 0x0 KECCAK256 SWAP1 JUMP JUMPDEST SWAP1 PUSH1 0x40 MLOAD PUSH2 0x1CB6 DUP2 PUSH2 0x186D JUMP JUMPDEST PUSH1 0x80 PUSH1 0x4 DUP3 SWAP5 DUP1 SLOAD DUP5 MSTORE PUSH1 0x1 DUP2 ADD SLOAD PUSH1 0x20 DUP6 ADD MSTORE PUSH1 0x2 DUP2 ADD SLOAD PUSH1 0x40 DUP6 ADD MSTORE PUSH1 0x3 DUP2 ADD SLOAD PUSH1 0x60 DUP6 ADD MSTORE ADD SLOAD SWAP2 ADD MSTORE JUMP JUMPDEST SWAP1 DUP2 PUSH1 0x20 SWAP2 SUB SLT PUSH2 0x1C0 JUMPI MLOAD DUP1 ISZERO ISZERO DUP2 SUB PUSH2 0x1C0 JUMPI SWAP1 JUMP JUMPDEST ISZERO PUSH2 0x1D04 JUMPI JUMP JUMPDEST PUSH1 0x64 PUSH1 0x40 MLOAD PUSH3 0x461BCD PUSH1 0xE5 SHL DUP2 MSTORE PUSH1 0x20 PUSH1 0x4 DUP3 ADD MSTORE PUSH1 0x1C PUSH1 0x24 DUP3 ADD MSTORE PUSH32 0x4E6F74207265676973746572656420666F72207468697320726F6C6500000000 PUSH1 0x44 DUP3 ADD MSTORE REVERT JUMPDEST ISZERO PUSH2 0x1D4F JUMPI JUMP JUMPDEST PUSH1 0x64 PUSH1 0x40 MLOAD PUSH3 0x461BCD PUSH1 0xE5 SHL DUP2 MSTORE PUSH1 0x20 PUSH1 0x4 DUP3 ADD MSTORE PUSH1 0x18 PUSH1 0x24 DUP3 ADD MSTORE PUSH32 0x496E76616C6964207374616765207472616E736974696F6E0000000000000000 PUSH1 0x44 DUP3 ADD MSTORE REVERT JUMPDEST ISZERO PUSH2 0x1D9A JUMPI JUMP JUMPDEST PUSH1 0x64 PUSH1 0x40 MLOAD PUSH3 0x461BCD PUSH1 0xE5 SHL DUP2 MSTORE PUSH1 0x20 PUSH1 0x4 DUP3 ADD MSTORE PUSH1 0x16 PUSH1 0x24 DUP3 ADD MSTORE PUSH32 0x537472696E672063616E6E6F7420626520656D70747900000000000000000000 PUSH1 0x44 DUP3 ADD MSTORE REVERT JUMPDEST PUSH8 0xFFFFFFFFFFFFFFFF DUP2 GT PUSH2 0xC45 JUMPI PUSH1 0x1F ADD PUSH1 0x1F NOT AND PUSH1 0x20 ADD SWAP1 JUMP JUMPDEST SWAP1 PUSH1 0x40 MLOAD PUSH2 0x1E07 DUP2 PUSH2 0x1889 JUMP JUMPDEST PUSH1 0xA0 PUSH1 0x8 DUP3 SWAP5 PUSH4 0xFFFFFFFF DUP2 SLOAD PUSH1 0x1 PUSH1 0x1 PUSH1 0xA0 SHL SUB DUP2 AND DUP7 MSTORE DUP5 SHR AND PUSH1 0x20 DUP6 ADD MSTORE PUSH2 0x1E34 PUSH1 0x1 DUP3 ADD PUSH2 0x1ACD JUMP JUMPDEST PUSH1 0x40 DUP6 ADD MSTORE PUSH1 0x2 DUP2 ADD SLOAD PUSH1 0x60 DUP6 ADD MSTORE PUSH2 0x1E4F PUSH1 0x3 DUP3 ADD PUSH2 0x1CA9 JUMP JUMPDEST PUSH1 0x80 DUP6 ADD MSTORE ADD SLOAD SWAP2 ADD MSTORE JUMP JUMPDEST PUSH1 0x40 MLOAD SWAP1 PUSH2 0x1E68 DUP3 PUSH2 0x186D JUMP JUMPDEST PUSH1 0x0 PUSH1 0x80 DUP4 DUP3 DUP2 MSTORE DUP3 PUSH1 0x20 DUP3 ADD MSTORE DUP3 PUSH1 0x40 DUP3 ADD MSTORE DUP3 PUSH1 0x60 DUP3 ADD MSTORE ADD MSTORE JUMP JUMPDEST PUSH1 0x40 MLOAD SWAP1 PUSH2 0x1E93 DUP3 PUSH2 0x1889 JUMP JUMPDEST PUSH1 0x0 PUSH1 0xA0 DUP4 DUP3 DUP2 MSTORE DUP3 PUSH1 0x20 DUP3 ADD MSTORE PUSH1 0x60 PUSH1 0x40 DUP3 ADD MSTORE DUP3 PUSH1 0x60 DUP3 ADD MSTORE PUSH2 0x1EB6 PUSH2 0x1E5B JUMP JUMPDEST PUSH1 0x80 DUP3 ADD MSTORE ADD MSTORE JUMP JUMPDEST PUSH2 0x1EC7 PUSH2 0x1E5B JUMP JUMPDEST POP PUSH1 0x1 PUSH1 0x1 PUSH1 0xA0 SHL SUB DUP1 PUSH1 0x9 SLOAD AND DUP1 ISZERO PUSH2 0x2105 JUMPI DUP2 PUSH1 0xA SLOAD AND PUSH2 0x1EFC DUP4 PUSH1 0xB SLOAD AND SWAP4 PUSH1 0xC SLOAD AND SWAP3 PUSH2 0x1EF6 PUSH2 0x1E5B JUMP JUMPDEST POP PUSH2 0x218A JUMP JUMPDEST SWAP3 PUSH1 0x40 SWAP1 DUP2 MLOAD SWAP4 DUP5 SWAP4 DUP5 SWAP3 PUSH4 0x3FABE5A3 PUSH1 0xE2 SHL SWAP2 DUP3 DUP6 MSTORE PUSH1 0xA0 SWAP8 DUP9 SWAP2 PUSH1 0x4 SWAP9 DUP10 SWAP2 GAS STATICCALL SWAP4 DUP5 ISZERO PUSH2 0x2093 JUMPI PUSH1 0x0 SWAP5 PUSH2 0x20E1 JUMPI JUMPDEST POP PUSH1 0x0 DUP5 SLT PUSH2 0x209E JUMPI SWAP1 DUP7 DUP7 SWAP4 SWAP3 DUP7 MLOAD SWAP8 DUP9 DUP1 SWAP3 DUP6 DUP3 MSTORE GAS STATICCALL SWAP6 DUP7 ISZERO PUSH2 0x2093 JUMPI PUSH1 0x0 SWAP7 PUSH2 0x206F JUMPI JUMPDEST POP PUSH1 0x0 DUP7 SLT PUSH2 0x202C JUMPI DUP7 SWAP1 DUP4 DUP7 MLOAD DUP1 SWAP5 DUP2 SWAP4 DUP3 MSTORE GAS STATICCALL SWAP6 DUP7 ISZERO PUSH2 0x2021 JUMPI PUSH1 0x0 SWAP7 PUSH2 0x1FED JUMPI JUMPDEST POP POP PUSH1 0x0 DUP6 SLT PUSH2 0x1FAA JUMPI POP DUP2 MLOAD SWAP5 PUSH2 0x1F92 DUP7 PUSH2 0x186D JUMP JUMPDEST DUP6 MSTORE PUSH1 0x20 DUP6 ADD MSTORE DUP4 ADD MSTORE PUSH1 0x60 DUP3 ADD MSTORE TIMESTAMP PUSH1 0x80 DUP3 ADD MSTORE SWAP1 JUMP JUMPDEST PUSH1 0x64 SWAP1 PUSH1 0x20 DUP5 MLOAD SWAP2 PUSH3 0x461BCD PUSH1 0xE5 SHL DUP4 MSTORE DUP3 ADD MSTORE PUSH1 0x17 PUSH1 0x24 DUP3 ADD MSTORE PUSH32 0x496E76616C69642077696E642073706565642064617461000000000000000000 PUSH1 0x44 DUP3 ADD MSTORE REVERT JUMPDEST PUSH2 0x200D SWAP3 SWAP7 POP DUP1 RETURNDATASIZE LT PUSH2 0x201A JUMPI JUMPDEST PUSH2 0x2005 DUP2 DUP4 PUSH2 0x18C1 JUMP JUMPDEST DUP2 ADD SWAP1 PUSH2 0x2155 JUMP JUMPDEST POP POP POP SWAP1 POP SWAP4 CODESIZE DUP1 PUSH2 0x1F7B JUMP JUMPDEST POP RETURNDATASIZE PUSH2 0x1FFB JUMP JUMPDEST DUP5 MLOAD RETURNDATASIZE PUSH1 0x0 DUP3 RETURNDATACOPY RETURNDATASIZE SWAP1 REVERT JUMPDEST PUSH1 0x64 DUP4 PUSH1 0x20 DUP8 MLOAD SWAP2 PUSH3 0x461BCD PUSH1 0xE5 SHL DUP4 MSTORE DUP3 ADD MSTORE PUSH1 0x15 PUSH1 0x24 DUP3 ADD MSTORE PUSH32 0x496E76616C6964207261696E66616C6C20646174610000000000000000000000 PUSH1 0x44 DUP3 ADD MSTORE REVERT JUMPDEST PUSH2 0x2087 SWAP2 SWAP7 POP DUP8 RETURNDATASIZE DUP10 GT PUSH2 0x201A JUMPI PUSH2 0x2005 DUP2 DUP4 PUSH2 0x18C1 JUMP JUMPDEST POP POP POP SWAP1 POP SWAP5 CODESIZE PUSH2 0x1F56 JUMP JUMPDEST DUP6 MLOAD RETURNDATASIZE PUSH1 0x0 DUP3 RETURNDATACOPY RETURNDATASIZE SWAP1 REVERT JUMPDEST PUSH1 0x64 DUP7 PUSH1 0x20 DUP8 MLOAD SWAP2 PUSH3 0x461BCD PUSH1 0xE5 SHL DUP4 MSTORE DUP3 ADD MSTORE PUSH1 0x15 PUSH1 0x24 DUP3 ADD MSTORE PUSH32 0x496E76616C69642068756D696469747920646174610000000000000000000000 PUSH1 0x44 DUP3 ADD MSTORE REVERT JUMPDEST PUSH2 0x20F9 SWAP2 SWAP5 POP DUP8 RETURNDATASIZE DUP10 GT PUSH2 0x201A JUMPI PUSH2 0x2005 DUP2 DUP4 PUSH2 0x18C1 JUMP JUMPDEST POP POP POP SWAP1 POP SWAP3 CODESIZE PUSH2 0x1F2E JUMP JUMPDEST POP POP PUSH1 0x40 MLOAD PUSH2 0x2113 DUP2 PUSH2 0x186D JUMP JUMPDEST PUSH2 0x7D0 DUP2 MSTORE PUSH2 0x1388 PUSH1 0x20 DUP3 ADD MSTORE PUSH1 0x0 PUSH1 0x40 DUP3 ADD MSTORE PUSH2 0x3E8 PUSH1 0x60 DUP3 ADD MSTORE PUSH4 0xFFFFFFFF TIMESTAMP AND PUSH1 0x80 DUP3 ADD MSTORE SWAP1 JUMP JUMPDEST MLOAD SWAP1 PUSH10 0xFFFFFFFFFFFFFFFFFFFF DUP3 AND DUP3 SUB PUSH2 0x1C0 JUMPI JUMP JUMPDEST SWAP1 DUP2 PUSH1 0xA0 SWAP2 SUB SLT PUSH2 0x1C0 JUMPI PUSH2 0x2169 DUP2 PUSH2 0x213E JUMP JUMPDEST SWAP2 PUSH1 0x20 DUP3 ADD MLOAD SWAP2 PUSH1 0x40 DUP2 ADD MLOAD SWAP2 PUSH2 0x2187 PUSH1 0x80 PUSH1 0x60 DUP5 ADD MLOAD SWAP4 ADD PUSH2 0x213E JUMP JUMPDEST SWAP1 JUMP JUMPDEST PUSH1 0xA0 PUSH1 0x1 PUSH1 0x1 PUSH1 0xA0 SHL SUB SWAP2 PUSH1 0x4 PUSH1 0x40 MLOAD DUP1 SWAP5 DUP2 SWAP4 PUSH4 0x3FABE5A3 PUSH1 0xE2 SHL DUP4 MSTORE AND GAS STATICCALL SWAP1 DUP2 ISZERO PUSH2 0xCA0 JUMPI PUSH1 0x0 SWAP2 PUSH2 0x21BD JUMPI POP SWAP1 JUMP JUMPDEST PUSH2 0x21D5 SWAP2 POP PUSH1 0xA0 RETURNDATASIZE DUP2 GT PUSH2 0x201A JUMPI PUSH2 0x2005 DUP2 DUP4 PUSH2 0x18C1 JUMP JUMPDEST POP POP POP SWAP1 POP SWAP1 JUMP JUMPDEST PUSH1 0x1 PUSH1 0x1 PUSH1 0xA0 SHL SUB PUSH1 0xD SLOAD AND DUP1 ISZERO PUSH2 0x21F8 JUMPI PUSH2 0x2187 SWAP1 PUSH2 0x218A JUMP JUMPDEST POP PUSH3 0x7A120 SWAP1 JUMP JUMPDEST PUSH1 0xFF PUSH1 0x5 SLOAD PUSH1 0xC0 SHR AND PUSH1 0x5 DUP2 LT ISZERO PUSH2 0x32E JUMPI DUP1 ISZERO PUSH2 0x245C JUMPI PUSH2 0x2220 PUSH2 0x21DD JUMP JUMPDEST SWAP1 PUSH1 0x0 NOT DUP2 ADD SWAP1 DUP2 GT PUSH2 0xC5B JUMPI PUSH1 0x5 DUP2 LT ISZERO PUSH2 0x32E JUMPI PUSH2 0x2241 PUSH1 0x8 SWAP2 PUSH2 0x1C90 JUMP JUMPDEST ADD SLOAD SWAP1 PUSH1 0xA DUP3 DIV PUSH4 0xFFFFFFFF TIMESTAMP AND SWAP3 DUP2 DUP2 ADD DUP1 DUP3 GT PUSH2 0xC5B JUMPI DUP4 GT ISZERO PUSH2 0x23D4 JUMPI POP PUSH1 0xC0 PUSH32 0x30514EF0585706987FDF2AC825879E457CBBE8D1D5BE093D17CA674C51F8919D SWAP2 PUSH1 0x40 MLOAD SWAP1 DUP5 DUP3 MSTORE PUSH1 0x20 DUP3 ADD MSTORE PUSH1 0x80 PUSH1 0x40 DUP3 ADD MSTORE PUSH1 0x15 PUSH1 0x80 DUP3 ADD MSTORE PUSH32 0x4F5241434C455F50524943455F494E4352454153450000000000000000000000 PUSH1 0xA0 DUP3 ADD MSTORE DUP5 PUSH1 0x60 DUP3 ADD MSTORE LOG1 JUMPDEST PUSH1 0x14 DUP2 DIV SWAP2 DUP3 DUP3 DUP6 GT SWAP5 DUP4 DUP7 PUSH1 0x0 EQ PUSH2 0x23C5 JUMPI PUSH2 0x22EA SWAP2 PUSH2 0x2460 JUMP JUMPDEST GT PUSH2 0x22F6 JUMPI JUMPDEST POP POP POP POP JUMP JUMPDEST PUSH32 0x30514EF0585706987FDF2AC825879E457CBBE8D1D5BE093D17CA674C51F8919D SWAP4 ISZERO PUSH2 0x2387 JUMPI PUSH2 0x2375 PUSH1 0x40 MLOAD PUSH2 0x232C DUP2 PUSH2 0x18A5 JUMP JUMPDEST PUSH1 0x18 DUP2 MSTORE PUSH32 0x53544147455F50524943455F41424F56455F4F5241434C450000000000000000 PUSH1 0x20 DUP3 ADD MSTORE JUMPDEST PUSH1 0x40 MLOAD SWAP5 DUP6 SWAP5 DUP6 MSTORE PUSH1 0x20 DUP6 ADD MSTORE PUSH1 0x80 PUSH1 0x40 DUP6 ADD MSTORE PUSH1 0x80 DUP5 ADD SWAP1 PUSH2 0x1B94 JUMP JUMPDEST SWAP1 PUSH1 0x60 DUP4 ADD MSTORE SUB SWAP1 LOG1 CODESIZE DUP1 DUP1 DUP1 PUSH2 0x22F0 JUMP JUMPDEST PUSH2 0x2375 PUSH1 0x40 MLOAD PUSH2 0x2396 DUP2 PUSH2 0x18A5 JUMP JUMPDEST PUSH1 0x18 DUP2 MSTORE PUSH32 0x53544147455F50524943455F42454C4F575F4F5241434C450000000000000000 PUSH1 0x20 DUP3 ADD MSTORE PUSH2 0x2357 JUMP JUMPDEST SWAP1 PUSH2 0x23CF SWAP2 PUSH2 0x2460 JUMP JUMPDEST PUSH2 0x22EA JUMP JUMPDEST DUP2 PUSH2 0x23DE SWAP2 PUSH2 0x2460 JUMP JUMPDEST DUP3 LT PUSH2 0x23EB JUMPI JUMPDEST POP PUSH2 0x22CE JUMP JUMPDEST PUSH1 0xC0 PUSH32 0x30514EF0585706987FDF2AC825879E457CBBE8D1D5BE093D17CA674C51F8919D SWAP2 PUSH1 0x40 MLOAD SWAP1 DUP5 DUP3 MSTORE PUSH1 0x20 DUP3 ADD MSTORE PUSH1 0x80 PUSH1 0x40 DUP3 ADD MSTORE PUSH1 0x15 PUSH1 0x80 DUP3 ADD MSTORE PUSH32 0x4F5241434C455F50524943455F44454352454153450000000000000000000000 PUSH1 0xA0 DUP3 ADD MSTORE DUP5 PUSH1 0x60 DUP3 ADD MSTORE LOG1 CODESIZE PUSH2 0x23E5 JUMP JUMPDEST POP POP JUMP JUMPDEST SWAP2 SWAP1 DUP3 SUB SWAP2 DUP3 GT PUSH2 0xC5B JUMPI JUMP INVALID LOG2 PUSH5 0x6970667358 0x22 SLT KECCAK256 0xD PUSH24 0xB7BEBA0586153E09CF32FA2C976D69ED3B17D93FFBEB30F1 SUB PUSH1 0xBB 0xE7 0xF9 0xF PUSH5 0x736F6C6343 STOP ADDMOD SGT STOP CALLER ISZERO 0xEC EXTCODECOPY 0xC1 0xE2 PUSH11 0x8FB9D2F31CAEDD129C7367 PC 0xC5 SWAP14 MSIZE SWAP5 0xEE 0xA5 COINBASE 0xE3 0x2F PUSH2 0xE785 0xB8 0xF6 0x29 0xD 0xEC 0xD9 SLOAD DUP12 PUSH3 0xA8D603 GASLIMIT 0xA9 DUP9 CODESIZE PUSH16 0xC84BA6BC95484008F6362F93160EF3E5 PUSH4 0xB10E2D52 PUSH23 0x12073B26EECDFD717E6A320CF44B4AFAC2B0732D9FCBE2 0xB7 STATICCALL 0xC 0xF6 ADDRESS MLOAD 0x4E CREATE PC JUMPI MOD SWAP9 PUSH32 0xDF2AC825879E457CBBE8D1D5BE093D17CA674C51F8919DA26469706673582212 KECCAK256 0xDF 0xE PUSH30 0xDC41F5B7D5BC673F3AB9B9357E11098C1C2B86919AA4794FE4789D175164 PUSH20 0x6F6C634300081300330000000000000000000000 "},"gasEstimates":{"creation":{"codeDepositCost":"3311800","executionCost":"infinite","totalCost":"infinite"},"external":{"createProduct(string,string,uint256,uint256,string,string)":"infinite","humidityFeed()":"2268","priceFeed()":"2342","rainfallFeed()":"2386","registry()":"2364","stakeholderRegistry()":"2320","temperatureFeed()":"2298","windSpeedFeed()":"2408"}},"methodIdentifiers":{"createProduct(string,string,uint256,uint256,string,string)":"f6957d12","humidityFeed()":"057f426d","priceFeed()":"741bef1a","rainfallFeed()":"8ad3af83","registry()":"7b103999","stakeholderRegistry()":"23feda0a","temperatureFeed()":"145788d2","windSpeedFeed()":"b0a5c865"}},"storageLayout":{"storage":[{"astId":2286,"contract":"src/SmartContracts/ProductFactory.sol:ProductFactory","label":"stakeholderRegistry","offset":0,"slot":"0","type":"t_contract(StakeholderRegistry)5946"},{"astId":2289,"contract":"src/SmartContracts/ProductFactory.sol:ProductFactory","label":"registry","offset":0,"slot":"1","type":"t_contract(Registry)3980"},{"astId":2291,"contract":"src/SmartContracts/ProductFactory.sol:ProductFactory","label":"temperatureFeed","offset":0,"slot":"2","type":"t_address"},{"astId":2293,"contract":"src/SmartContracts/ProductFactory.sol:ProductFactory","label":"humidityFeed","offset":0,"slot":"3","type":"t_address"},{"astId":2295,"contract":"src/SmartContracts/ProductFactory.sol:ProductFactory","label":"rainfallFeed","offset":0,"slot":"4","type":"t_address"},{"astId":2297,"contract":"src/SmartContracts/ProductFactory.sol:ProductFactory","label":"windSpeedFeed","offset":0,"slot":"5","type":"t_address"},{"astId":2299,"contract":"src/SmartContracts/ProductFactory.sol:ProductFactory","label":"priceFeed","offset":0,"slot":"6","type":"t_address"}],"types":{"t_address":{"encoding":"inplace","label":"address","numberOfBytes":"20"},"t_contract(Registry)3980":{"encoding":"inplace","label":"contract Registry","numberOfBytes":"20"},"t_contract(StakeholderRegistry)5946":{"encoding":"inplace","label":"contract StakeholderRegistry","numberOfBytes":"20"}}},"userdoc":{"kind":"user","methods":{},"version":1}}}}