{"src/SmartContracts/ShipmentFactory.sol":{"ShipmentFactory":{"abi":[{"inputs":[{"internalType":"address","name":"_registry","type":"address"},{"internalType":"address","name":"_stakeholderRegistry","type":"address"}],"stateMutability":"nonpayable","type":"constructor"},{"anonymous":false,"inputs":[{"indexed":true,"internalType":"address","name":"shipmentAddress","type":"address"},{"indexed":true,"internalType":"address","name":"distributor","type":"address"},{"indexed":true,"internalType":"address","name":"productAddress","type":"address"},{"indexed":false,"internalType":"address","name":"receiver","type":"address"},{"indexed":false,"internalType":"string","name":"trackingNumber","type":"string"},{"indexed":false,"internalType":"string","name":"transportMode","type":"string"}],"name":"ShipmentCreated","type":"event"},{"inputs":[{"internalType":"address","name":"productAddress","type":"address"},{"internalType":"address","name":"receiver","type":"address"},{"internalType":"string","name":"trackingNumber","type":"string"},{"internalType":"string","name":"transportMode","type":"string"}],"name":"createShipment","outputs":[{"internalType":"address","name":"shipmentAddress","type":"address"}],"stateMutability":"nonpayable","type":"function"},{"inputs":[],"name":"registry","outputs":[{"internalType":"contract Registry","name":"","type":"address"}],"stateMutability":"view","type":"function"},{"inputs":[],"name":"stakeholderRegistry","outputs":[{"internalType":"contract StakeholderRegistry","name":"","type":"address"}],"stateMutability":"view","type":"function"}],"devdoc":{"kind":"dev","methods":{},"version":1},"evm":{"bytecode":{"linkReferences":{},"object":"60803461008d57601f6131dc38819003918201601f19168301916001600160401b0383118484101761009257808492604094855283398101031261008d57610052602061004b836100a8565b92016100a8565b600080546001600160a01b039384166001600160a01b0319918216179091556001805492909316911617905560405161311f90816100bd8239f35b600080fd5b634e487b7160e01b600052604160045260246000fd5b51906001600160a01b038216820361008d5756fe6080604090808252600491823610156200001857600080fd5b600091823560e01c90816323feda0a14620003d6575080637b10399914620003a25763ba1713b2146200004a57600080fd5b34620003975760803660031901126200039757823573ffffffffffffffffffffffffffffffffffffffff928382168092036200039f576024908135908582168092036200039f5767ffffffffffffffff916044358381116200039b57620000b59036908a0162000443565b916064358481116200039757620000d09036908b0162000443565b9488600154169988519a7f30044bcc000000000000000000000000000000000000000000000000000000008c5233828d01526003838d015260209b8c81604481855afa9081156200038d5785916200034c575b5015620002f157895190612c0390818301918383108a841117620002df57908e849392620004e785398c83523390830152878d83015260c0606083015260a0620001846200017560c085018c620004a4565b84810360808601528d620004a4565b920152039084f08015620002d5578a1699835416803b15620002d15790838981938d8d519788809481937f5a022e300000000000000000000000000000000000000000000000000000000083528883015260a08a830152620001eb8d60a4840190620004a4565b9060448301523360648301528b608483015203925af18015620002c757908b96959493929162000276575b505050507fe5e80a9d4b12be03ce9688d6fc0d5c3c9e24eb2225f3e92c2eb7586d7715bb5f9293506200026d6200025e8851938493845260608c8501526060840190620004a4565b828103898401523396620004a4565b0390a451908152f35b919395509193958411620002b7575050508552859182917fe5e80a9d4b12be03ce9688d6fc0d5c3c9e24eb2225f3e92c2eb7586d7715bb5f38808062000216565b604190634e487b7160e01b835252fd5b8a513d84823e3d90fd5b8380fd5b89513d85823e3d90fd5b8587604187634e487b7160e01b835252fd5b50601d6064928c8b51937f08c379a00000000000000000000000000000000000000000000000000000000085528401528201527f4e6f742072656769737465726564206173206469737472696275746f720000006044820152fd5b90508c81813d831162000385575b6200036681836200040a565b81010312620003815751801515810362000381573862000123565b8480fd5b503d6200035a565b8b513d87823e3d90fd5b5080fd5b8280fd5b80fd5b5034620003975781600319360112620003975773ffffffffffffffffffffffffffffffffffffffff60209254169051908152f35b839034620003975781600319360112620003975760209073ffffffffffffffffffffffffffffffffffffffff600154168152f35b90601f8019910116810190811067ffffffffffffffff8211176200042d57604052565b634e487b7160e01b600052604160045260246000fd5b81601f820112156200049f5780359067ffffffffffffffff82116200042d57604051926200047c601f8401601f1916602001856200040a565b828452602083830101116200049f57816000926020809301838601378301015290565b600080fd5b919082519283825260005b848110620004d1575050826000602080949584010152601f8019910116010190565b602081830181015184830182015201620004af56fe60a060408181523462000bc35762002c03803803809162000021828662000be4565b843982019160c08184031262000bc3576200003c8162000c08565b906200004b6020820162000c08565b906200005984820162000c08565b60608201519095906001600160401b03811162000bc357816200007e91840162000c1d565b608083015190916001600160401b03821162000bc357620000a860a091620000b093860162000c1d565b930162000c08565b85516308bcf8b560e21b81526001600160a01b039591949186169190602081600481865afa90811562000b325760009162000b81575b501562000b3d5786516316fd755360e21b8152602081600481865afa90811562000b325760009162000ae9575b506005811015908162000719576001811491821562000ada575b821562000ac7575b50501562000a8357811562000a3f578516968715620009fb578516908115620009b757825115620009735760018060a01b03199081600054161760005587816001541617600155600254161760025580519060018060401b038211620006185760035490600182811c9216801562000968575b6020831014620005f75781601f849311620008f3575b50602090601f831160011462000868576000926200085c575b50508160011b916000199060031b1c1916176003555b8051906001600160401b038211620006185760045490600182811c9216801562000851575b6020831014620005f75781601f849311620007dc575b50602090601f8311600114620007515760009262000745575b50508160011b916000199060031b1c1916176004555b600160ff1981816005541617600555426006554260075560085416176008551660805280519160a0830183811060018060401b03821117620006185782524283526020830160018152828401908282528351620002b48162000bc8565b601e81527f536869706d656e74206372656174656420616e6420707265706172696e6700006020820152606086019081528451620002f28162000bc8565b600f81526e4f726967696e20666163696c69747960881b602082015260808701526009549168010000000000000000831015620006185760018301806009558310156200072f57600960005260206000209387518460021b86015560018460021b8601019151906007821015620007195782549051610100600160a81b0360089190911b1660ff929092166001600160a81b031990911617179055518051906001600160401b0382116200061857600283811b85010154600181811c911680156200070e575b6020821014620005f757601f8111620006ba575b50602090601f83116001146200063a57918060039492608096946000926200062e575b50508160011b9160001990861b1c191617600282811b840101555b60021b010193015192835160018060401b03811162000618578154600181811c911680156200060d575b6020821014620005f757601f8111620005aa575b50602094601f82116001146200053f5794819293949560009262000533575b50508160011b916000199060031b1c19161790555b60017f086eabd3cd04a2dc287dae84f5910a5d2096722d6599f992754cf9952df9c48960e0845160608152601e60608201527f536869706d656e74206372656174656420616e6420707265706172696e670000608082015260a06020820152600f60a08201526e4f726967696e20666163696c69747960881b60c08201524286820152a351611f6e908162000c95823960805181818161061101528181610d5901528181610f7201528181611576015261167c0152f35b01519050388062000467565b601f198216958360005260206000209160005b888110620005915750836001959697981062000577575b505050811b0190556200047c565b015160001960f88460031b161c1916905538808062000569565b9192602060018192868501518155019401920162000552565b826000526020600020601f830160051c81019160208410620005ec575b601f0160051c01905b818110620005df575062000448565b60008155600101620005d0565b9091508190620005c7565b634e487b7160e01b600052602260045260246000fd5b90607f169062000434565b634e487b7160e01b600052604160045260246000fd5b015190503880620003ef565b90601f19831691600285811b87010160005260206000209260005b818110620006a1575092600192859260809896600398961062000688575b505050811b01600282811b840101556200040a565b015160001983881b60f8161c1916905538808062000673565b9293602060018192878601518155019501930162000655565b600284811b8601016000526020600020601f840160051c8101916020851062000703575b601f0160051c01905b818110620006f65750620003cc565b60008155600101620006e7565b9091508190620006de565b90607f1690620003b8565b634e487b7160e01b600052602160045260246000fd5b634e487b7160e01b600052603260045260246000fd5b01519050388062000241565b600460009081527f8a35acfbc15ff81a39ae7d344fd709f28e8600b4aa8c65c6b64bfe7fe36bd19b9350601f198516905b818110620007c35750908460019594939210620007a9575b505050811b0160045562000257565b015160001960f88460031b161c191690553880806200079a565b9293602060018192878601518155019501930162000782565b60046000529091507f8a35acfbc15ff81a39ae7d344fd709f28e8600b4aa8c65c6b64bfe7fe36bd19b601f840160051c8101916020851062000846575b90601f859493920160051c01905b81811062000836575062000228565b6000815584935060010162000827565b909150819062000819565b91607f169162000212565b015190503880620001d7565b600360009081527fc2575a0e9e593c00f959f8c92f12db2869c3395a3b0502d05e2516446f71f85b9350601f198516905b818110620008da5750908460019594939210620008c0575b505050811b01600355620001ed565b015160001960f88460031b161c19169055388080620008b1565b9293602060018192878601518155019501930162000899565b60036000529091507fc2575a0e9e593c00f959f8c92f12db2869c3395a3b0502d05e2516446f71f85b601f840160051c810191602085106200095d575b90601f859493920160051c01905b8181106200094d5750620001be565b600081558493506001016200093e565b909150819062000930565b91607f1691620001a8565b865162461bcd60e51b815260206004820152601f60248201527f547261636b696e67206e756d6265722063616e6e6f7420626520656d707479006044820152606490fd5b865162461bcd60e51b815260206004820152601860248201527f496e76616c6964207265636569766572206164647265737300000000000000006044820152606490fd5b865162461bcd60e51b815260206004820152601660248201527f496e76616c69642073656e6465722061646472657373000000000000000000006044820152606490fd5b865162461bcd60e51b815260206004820152601760248201527f496e76616c69642070726f6475637420616464726573730000000000000000006044820152606490fd5b865162461bcd60e51b815260206004820152601e60248201527f50726f64756374206e6f7420726561647920666f7220736869706d656e7400006044820152606490fd5b9091506200071957600314388062000135565b5060028114915060006200012d565b6020813d60201162000b29575b8162000b056020938362000be4565b8101031262000b25575190600582101562000b2257503862000113565b80fd5b5080fd5b3d915062000af6565b88513d6000823e3d90fd5b865162461bcd60e51b815260206004820152601560248201527f50726f64756374206973206e6f742061637469766500000000000000000000006044820152606490fd5b6020813d60201162000bba575b8162000b9d6020938362000be4565b8101031262000b25575190811515820362000b22575038620000e6565b3d915062000b8e565b600080fd5b604081019081106001600160401b038211176200061857604052565b601f909101601f19168101906001600160401b038211908210176200061857604052565b51906001600160a01b038216820362000bc357565b919080601f8401121562000bc3578251906001600160401b03821162000618576040519160209162000c59601f8301601f191684018562000be4565b81845282828701011162000bc35760005b81811062000c8057508260009394955001015290565b858101830151848201840152820162000c6a56fe6080604052600436101561001257600080fd5b60003560e01c80630b4f3f3d146110fd5780631c431183146110d65780631d60a29a14610fe1578063200d2ed214610fb957806322f3e2d414610f9657806323feda0a14610f52578063526ff16f14610f36578063608ff40514610e8d57806367e404ce14610e665780637024db3b14610dcf578063705c8902146108a7578063903ac79814610885578063adb4af3e146107b3578063cf09e0d014610795578063d0b06f5d14610777578063d65fb48f14610743578063d99769251461010e5763f7260d3e146100e257600080fd5b346101095760003660031901126101095760206001600160a01b0360025416604051908152f35b600080fd5b34610109576000366003190112610109576001600160a01b038060025416331480156106d95760055460ff81169160078310156105535760038303610695576040519261015a8461171d565b601d84527f44656c697665727920766572696669656420627920726563656976657200000060208501526040519461019186611701565b600086528060015416331492831561068d575b5082156105e9575b506101b96101be92611af8565b611c41565b1561057f5760ff191660061760055542600755604051916101de836116e5565b42835260208301600681526040840190338252606085019084825283608087015260095468010000000000000000811015610477578060016102239201600955611a90565b93909361056957865184556001840191516007811015610553576102479083611b43565b5174ffffffffffffffffffffffffffffffffffffffff001974ffffffffffffffffffffffffffffffffffffffff0083549260081b1691161790555180519067ffffffffffffffff8211610477576102a1600284015461185b565b601f811161050c575b50602090601f83116001146104985791806080949260039460009261048d575b50508160011b9160001990851b1c19161760028201555b0193015192835167ffffffffffffffff811161047757610301825461185b565b601f811161042f575b506020601f821160011461039f5791817f086eabd3cd04a2dc287dae84f5910a5d2096722d6599f992754cf9952df9c48994926103859460069798600092610394575b50508160011b916000199060031b1c19161790555b610377604051956060875260608701906117bf565b9085820360208701526117bf565b924260408201528033940390a3005b01519050888061034d565b601f198216958360005260206000209660005b818110610417575092600696976103859593600193837f086eabd3cd04a2dc287dae84f5910a5d2096722d6599f992754cf9952df9c4899997106103fe575b505050811b019055610362565b015160001960f88460031b161c191690558880806103f1565b838301518955600190980197602093840193016103b2565b826000526020600020601f830160051c8101916020841061046d575b601f0160051c01905b818110610461575061030a565b60008155600101610454565b909150819061044b565b634e487b7160e01b600052604160045260246000fd5b0151905088806102ca565b906002840160005260206000209160005b601f19851681106104f45750926080949260019260039583601f198116106104dc575b505050811b0160028201556102e1565b015160001983871b60f8161c191690558880806104cc565b919260206001819286850151815501940192016104a9565b600284016000526020600020601f840160051c81016020851061054c575b601f830160051c820181106105405750506102aa565b6000815560010161052a565b508061052a565b634e487b7160e01b600052602160045260246000fd5b634e487b7160e01b600052600060045260246000fd5b608460405162461bcd60e51b815260206004820152602260248201527f496e76616c696420736869706d656e7420737461747573207472616e7369746960448201527f6f6e0000000000000000000000000000000000000000000000000000000000006064820152fd5b604051630c0112f360e21b8152336004820152600360248201529250602090839060449082907f0000000000000000000000000000000000000000000000000000000000000000165afa918215610681576101be926101b991600091610652575b5092506101ac565b610674915060203d60201161067a575b61066c8183611739565b810190611ae0565b8761064a565b503d610662565b6040513d6000823e3d90fd5b9250866101a4565b606460405162461bcd60e51b815260206004820152602060248201527f536869706d656e74206d7573742062652064656c6976657265642066697273746044820152fd5b608460405162461bcd60e51b815260206004820152602160248201527f4f6e6c792072656365697665722063616e207665726966792064656c6976657260448201527f79000000000000000000000000000000000000000000000000000000000000006064820152fd5b346101095760003660031901126101095761077361075f611953565b6040519182916020835260208301906117bf565b0390f35b34610109576000366003190112610109576020600754604051908152f35b34610109576000366003190112610109576020600654604051908152f35b3461010957600036600319011261010957606060806040516107d4816116e5565b60008152600060208201526000604082015282808201520152600954801561084157600019810190811161082b5761081761081161077392611a90565b50611b67565b6040519182916020835260208301906117ff565b634e487b7160e01b600052601160045260246000fd5b606460405162461bcd60e51b815260206004820152601460248201527f4e6f207570646174657320617661696c61626c650000000000000000000000006044820152fd5b346101095760003660031901126101095761077361075f60ff60055416611d2c565b3461010957606036600319011261010957600760043510156101095760243567ffffffffffffffff8111610109576108e390369060040161175b565b60443567ffffffffffffffff81116101095761090390369060040161175b565b6001600160a01b036001541633148015610dbb575b8015610d36575b61092890611af8565b60055461093a60043560ff8316611c97565b1561057f5760ff191660043560ff16176005554260075560405161095d816116e5565b428152602081019061097160043583611b5b565b6040810191338352606082019085825284608084015260095468010000000000000000811015610477578060016109ab9201600955611a90565b94909461056957835185556001850191516007811015610553576109cf9083611b43565b5174ffffffffffffffffffffffffffffffffffffffff001974ffffffffffffffffffffffffffffffffffffffff0083549260081b1691161790555180519067ffffffffffffffff821161047757610a29600285015461185b565b601f8111610cef575b50602090601f8311600114610c7c57608093929160009183610c71575b50508160011b916000199060031b1c19161760028401555b015180519067ffffffffffffffff821161047757610a88600384015461185b565b601f8111610c26575b50602090601f8311600114610bb9576003929160009183610bae575b50508160011b9160001990841b1c1916179101555b610ae86040519160608352610ada60608401856117bf565b9083820360208501526117bf565b4260408301527f086eabd3cd04a2dc287dae84f5910a5d2096722d6599f992754cf9952df9c489339280600435930390a3600360043514610b73575b6004803514610b2f57005b610b687fa11e9adce2b9afd257928ad06797943ea685cf6f0f422d6ed3f90e0d60240f18916040519182916040835260408301906117bf565b4260208301520390a1005b6001600160a01b03600254167fdfbf7dee0472da8ada2e4559ac18af668585f1a3e9e44e31b1b60b361ec7e55a6020604051428152a2610b24565b015190508680610aad565b90601f198316916003850160005260206000209260005b818110610c0e57509160019391856003969410610bf6575b505050811b01910155610ac2565b015160001983861b60f8161c19169055868080610be8565b92936020600181928786015181550195019301610bd0565b600384016000526020600020601f840160051c81019160208510610c67575b601f0160051c01905b818110610c5b5750610a91565b60008155600101610c4e565b9091508190610c45565b015190508780610a4f565b906002850160005260206000209160005b601f1985168110610cd7575091839160019360809695601f19811610610cbe575b505050811b016002840155610a67565b015160001960f88460031b161c19169055878080610cae565b91926020600181928685015181550194019201610c8d565b600285016000526020600020601f840160051c810160208510610d2f575b601f830160051c82018110610d23575050610a32565b60008155600101610d0d565b5080610d0d565b50604051630c0112f360e21b8152336004820152600360248201526020816044817f00000000000000000000000000000000000000000000000000000000000000006001600160a01b03165afa80156106815761092891600091610d9d575b50905061091f565b610db5915060203d811161067a5761066c8183611739565b84610d95565b506001600160a01b03600254163314610918565b346101095760203660031901126101095760043560095481101561010957610df690611a90565b508054610773600183015492610e58610e1d6003610e16600285016119ec565b93016119ec565b916001600160a01b036040519687968752610e3e6020880160ff83166117b2565b60081c16604086015260a0606086015260a08501906117bf565b9083820360808501526117bf565b346101095760003660031901126101095760206001600160a01b0360015416604051908152f35b34610109576000366003190112610109576001600160a01b0380600054168160015416916002541660ff600554169060065460075490610f20610f1560ff6008541694610f07610edb611895565b610ee3611953565b926040519b8c9b8c5260208c015260408b01526101208060608c01528a01906117bf565b9088820360808a01526117bf565b9460a08701906117b2565b60c085015260e084015215156101008301520390f35b346101095760003660031901126101095761077361075f611895565b346101095760003660031901126101095760206040516001600160a01b037f0000000000000000000000000000000000000000000000000000000000000000168152f35b3461010957600036600319011261010957602060ff600854166040519015158152f35b3461010957600036600319011261010957602060ff60055416610fdf60405180926117b2565bf35b346101095760003660031901126101095760095467ffffffffffffffff8111610477576040519060209061101a828260051b0184611739565b808352818301908160096000527f6e1540171b6c0c960b71a7020d9f60077f6af931a8bbf590da0223dacf75c7af6000915b8383106110b35750505050604051918083019381845251809452604083019360408160051b85010192916000955b8287106110875785850386f35b9091929382806110a3600193603f198a820301865288516117ff565b960192019601959291909261107a565b6004866001926110c5859a999a611b67565b81520192019201919095949561104c565b346101095760003660031901126101095760206001600160a01b0360005416604051908152f35b346101095760203660031901126101095760043567ffffffffffffffff81116101095761112e90369060040161175b565b6001600160a01b0390816001541633149182801590816116d8575b8015611659575b61115990611af8565b6005549160ff83169060078210156105535760018214801561164f575b156115e5576040519561118887611701565b60008752926115d6575b821561154e575b506111a66111ab92611af8565b611bc3565b1561057f5760ff191660041760055542600755604051916111cb836116e5565b42835260208301600481526040840190338252606085019084825283608087015260095468010000000000000000811015610477578060016112109201600955611a90565b93909361056957865184556001840191516007811015610553576112349083611b43565b5174ffffffffffffffffffffffffffffffffffffffff001974ffffffffffffffffffffffffffffffffffffffff0083549260081b1691161790555180519067ffffffffffffffff82116104775761128e600284015461185b565b601f8111611507575b50602090601f83116001146114955791806080949260039460009261148a575b50508160011b9160001990851b1c19161760028201555b0193015192835167ffffffffffffffff8111610477576112ee825461185b565b601f8111611442575b506020601f82116001146113b4579080610b68959493927fa11e9adce2b9afd257928ad06797943ea685cf6f0f422d6ed3f90e0d60240f18976000926113a9575b50508160011b916000199060031b1c19161790555b60047f086eabd3cd04a2dc287dae84f5910a5d2096722d6599f992754cf9952df9c489611388604051936060855261037760608601876117bf565b924260408201528033940390a36040519182916040835260408301906117bf565b015190508780611338565b601f198216958360005260206000209660005b81811061142a5750966001928492610b68989796957fa11e9adce2b9afd257928ad06797943ea685cf6f0f422d6ed3f90e0d60240f189a10611411575b505050811b01905561134d565b015160001960f88460031b161c19169055878080611404565b838301518955600190980197602093840193016113c7565b826000526020600020601f830160051c81019160208410611480575b601f0160051c01905b81811061147457506112f7565b60008155600101611467565b909150819061145e565b0151905088806112b7565b90601f198316916002850160005260206000209260005b8181106114ef575092600192859260039660809896106114d7575b505050811b0160028201556112ce565b015160001983871b60f8161c191690558880806114c7565b929360206001819287860151815501950193016114ac565b600284016000526020600020601f840160051c810160208510611547575b601f830160051c8201811061153b575050611297565b60008155600101611525565b5080611525565b604051630c0112f360e21b8152336004820152600360248201529250602090839060449082907f0000000000000000000000000000000000000000000000000000000000000000165afa918215610681576111ab926111a6916000916115b7575b509250611199565b6115d0915060203d60201161067a5761066c8183611739565b876115af565b80925060025416331491611192565b608460405162461bcd60e51b815260206004820152602860248201527f43616e6e6f742063616e63656c20736869706d656e7420696e2063757272656e60448201527f74207374617475730000000000000000000000000000000000000000000000006064820152fd5b5060028214611176565b50604051630c0112f360e21b8152336004820152600360248201526020816044817f000000000000000000000000000000000000000000000000000000000000000087165afa801561068157611159916000916116b9575b509050611150565b6116d2915060203d60201161067a5761066c8183611739565b866116b1565b5081600254163314611149565b60a0810190811067ffffffffffffffff82111761047757604052565b6020810190811067ffffffffffffffff82111761047757604052565b6040810190811067ffffffffffffffff82111761047757604052565b90601f8019910116810190811067ffffffffffffffff82111761047757604052565b81601f820112156101095780359067ffffffffffffffff82116104775760405192611790601f8401601f191660200185611739565b8284526020838301011161010957816000926020809301838601378301015290565b9060078210156105535752565b919082519283825260005b8481106117eb575050826000602080949584010152601f8019910116010190565b6020818301810151848301820152016117ca565b6118589181518152611819602083015160208301906117b2565b6001600160a01b0360408301511660408201526080611847606084015160a0606085015260a08401906117bf565b9201519060808184039101526117bf565b90565b90600182811c9216801561188b575b602083101461187557565b634e487b7160e01b600052602260045260246000fd5b91607f169161186a565b60405190600082600354916118a98361185b565b8083529260019081811690811561193157506001146118d2575b506118d092500383611739565b565b6003600090815291507fc2575a0e9e593c00f959f8c92f12db2869c3395a3b0502d05e2516446f71f85b5b84831061191657506118d09350508101602001386118c3565b81935090816020925483858a010152019101909185926118fd565b9050602092506118d094915060ff191682840152151560051b820101386118c3565b60405190600082600454916119678361185b565b80835292600190818116908115611931575060011461198d57506118d092500383611739565b6004600090815291507f8a35acfbc15ff81a39ae7d344fd709f28e8600b4aa8c65c6b64bfe7fe36bd19b5b8483106119d157506118d09350508101602001386118c3565b81935090816020925483858a010152019101909185926119b8565b9060405191826000825492611a008461185b565b908184526001948581169081600014611a6d5750600114611a2a575b50506118d092500383611739565b9093915060005260209081600020936000915b818310611a555750506118d093508201013880611a1c565b85548884018501529485019487945091830191611a3d565b9150506118d094506020925060ff191682840152151560051b8201013880611a1c565b600954811015611aca57600960005260021b7f6e1540171b6c0c960b71a7020d9f60077f6af931a8bbf590da0223dacf75c7af0190600090565b634e487b7160e01b600052603260045260246000fd5b90816020910312610109575180151581036101095790565b15611aff57565b606460405162461bcd60e51b815260206004820152602060248201527f4e6f7420617574686f72697a656420666f72207468697320736869706d656e746044820152fd5b9060078110156105535760ff80198354169116179055565b60078210156105535752565b90604051611b74816116e5565b6080611bbe60038395805485526001600160a01b036001820154611b9e60ff821660208901611b5b565b60081c166040860152611bb3600282016119ec565b6060860152016119ec565b910152565b6000906007811015611c2d57819080611bf55750611be15750600190565b80634e487b7160e01b602492526021600452fd5b60018103611c085750611be15750600190565b60028103611c1b5750611be15750600090565b6003915014611c275790565b50600090565b602482634e487b7160e01b81526021600452fd5b6000906007811015611c2d57819080611c5f5750611be15750600090565b60018103611c725750611be15750600090565b60028103611c855750611be15750600090565b6003915014611c915790565b50600190565b60078110156105535780611cc6575060078110156105535760018114908115611cbe575090565b600491501490565b60018103611ce7575060078110156105535760028114908115611cbe575090565b60028103611d10575060078110156105535760038114908115611d08575090565b600591501490565b600314611d1d5750600090565b60078110156105535760061490565b6007811015610553578015611efe5760018114611ec45760028114611e8a5760038114611e505760048114611e165760058114611ddc57600614611da357604051611d768161171d565b600e81527f556e6b6e6f776e20737461747573000000000000000000000000000000000000602082015290565b604051611daf8161171d565b601281527f44656c697665727920636f6e6669726d65640000000000000000000000000000602082015290565b50604051611de98161171d565b600f81527f44656c6976657279206661696c65640000000000000000000000000000000000602082015290565b50604051611e238161171d565b601281527f536869706d656e742063616e63656c6c65640000000000000000000000000000602082015290565b50604051611e5d8161171d565b600981527f44656c6976657265640000000000000000000000000000000000000000000000602082015290565b50604051611e978161171d565b600a81527f496e207472616e73697400000000000000000000000000000000000000000000602082015290565b50604051611ed18161171d565b601681527f507265706172696e6720666f7220736869706d656e7400000000000000000000602082015290565b50604051611f0b8161171d565b600f81527f4e6f74207965742073686970706564000000000000000000000000000000000060208201529056fea2646970667358221220fe86245793d81d2b2b2b48be1e1f1feb626ef22721bd0f85c7995ec738a1e58764736f6c63430008130033a26469706673582212205a3842a3cf11d682d0c8956ca9e0e3899526c3aeb58e00b90f3549eefe179e9f64736f6c63430008130033","opcodes":"PUSH1 0x80 CALLVALUE PUSH2 0x8D JUMPI PUSH1 0x1F PUSH2 0x31DC CODESIZE DUP2 SWAP1 SUB SWAP2 DUP3 ADD PUSH1 0x1F NOT AND DUP4 ADD SWAP2 PUSH1 0x1 PUSH1 0x1 PUSH1 0x40 SHL SUB DUP4 GT DUP5 DUP5 LT OR PUSH2 0x92 JUMPI DUP1 DUP5 SWAP3 PUSH1 0x40 SWAP5 DUP6 MSTORE DUP4 CODECOPY DUP2 ADD SUB SLT PUSH2 0x8D JUMPI PUSH2 0x52 PUSH1 0x20 PUSH2 0x4B DUP4 PUSH2 0xA8 JUMP JUMPDEST SWAP3 ADD PUSH2 0xA8 JUMP JUMPDEST PUSH1 0x0 DUP1 SLOAD PUSH1 0x1 PUSH1 0x1 PUSH1 0xA0 SHL SUB SWAP4 DUP5 AND PUSH1 0x1 PUSH1 0x1 PUSH1 0xA0 SHL SUB NOT SWAP2 DUP3 AND OR SWAP1 SWAP2 SSTORE PUSH1 0x1 DUP1 SLOAD SWAP3 SWAP1 SWAP4 AND SWAP2 AND OR SWAP1 SSTORE PUSH1 0x40 MLOAD PUSH2 0x311F SWAP1 DUP2 PUSH2 0xBD DUP3 CODECOPY RETURN JUMPDEST PUSH1 0x0 DUP1 REVERT JUMPDEST PUSH4 0x4E487B71 PUSH1 0xE0 SHL PUSH1 0x0 MSTORE PUSH1 0x41 PUSH1 0x4 MSTORE PUSH1 0x24 PUSH1 0x0 REVERT JUMPDEST MLOAD SWAP1 PUSH1 0x1 PUSH1 0x1 PUSH1 0xA0 SHL SUB DUP3 AND DUP3 SUB PUSH2 0x8D JUMPI JUMP INVALID PUSH1 0x80 PUSH1 0x40 SWAP1 DUP1 DUP3 MSTORE PUSH1 0x4 SWAP2 DUP3 CALLDATASIZE LT ISZERO PUSH3 0x18 JUMPI PUSH1 0x0 DUP1 REVERT JUMPDEST PUSH1 0x0 SWAP2 DUP3 CALLDATALOAD PUSH1 0xE0 SHR SWAP1 DUP2 PUSH4 0x23FEDA0A EQ PUSH3 0x3D6 JUMPI POP DUP1 PUSH4 0x7B103999 EQ PUSH3 0x3A2 JUMPI PUSH4 0xBA1713B2 EQ PUSH3 0x4A JUMPI PUSH1 0x0 DUP1 REVERT JUMPDEST CALLVALUE PUSH3 0x397 JUMPI PUSH1 0x80 CALLDATASIZE PUSH1 0x3 NOT ADD SLT PUSH3 0x397 JUMPI DUP3 CALLDATALOAD PUSH20 0xFFFFFFFFFFFFFFFFFFFFFFFFFFFFFFFFFFFFFFFF SWAP3 DUP4 DUP3 AND DUP1 SWAP3 SUB PUSH3 0x39F JUMPI PUSH1 0x24 SWAP1 DUP2 CALLDATALOAD SWAP1 DUP6 DUP3 AND DUP1 SWAP3 SUB PUSH3 0x39F JUMPI PUSH8 0xFFFFFFFFFFFFFFFF SWAP2 PUSH1 0x44 CALLDATALOAD DUP4 DUP2 GT PUSH3 0x39B JUMPI PUSH3 0xB5 SWAP1 CALLDATASIZE SWAP1 DUP11 ADD PUSH3 0x443 JUMP JUMPDEST SWAP2 PUSH1 0x64 CALLDATALOAD DUP5 DUP2 GT PUSH3 0x397 JUMPI PUSH3 0xD0 SWAP1 CALLDATASIZE SWAP1 DUP12 ADD PUSH3 0x443 JUMP JUMPDEST SWAP5 DUP9 PUSH1 0x1 SLOAD AND SWAP10 DUP9 MLOAD SWAP11 PUSH32 0x30044BCC00000000000000000000000000000000000000000000000000000000 DUP13 MSTORE CALLER DUP3 DUP14 ADD MSTORE PUSH1 0x3 DUP4 DUP14 ADD MSTORE PUSH1 0x20 SWAP12 DUP13 DUP2 PUSH1 0x44 DUP2 DUP6 GAS STATICCALL SWAP1 DUP2 ISZERO PUSH3 0x38D JUMPI DUP6 SWAP2 PUSH3 0x34C JUMPI JUMPDEST POP ISZERO PUSH3 0x2F1 JUMPI DUP10 MLOAD SWAP1 PUSH2 0x2C03 SWAP1 DUP2 DUP4 ADD SWAP2 DUP4 DUP4 LT DUP11 DUP5 GT OR PUSH3 0x2DF JUMPI SWAP1 DUP15 DUP5 SWAP4 SWAP3 PUSH3 0x4E7 DUP6 CODECOPY DUP13 DUP4 MSTORE CALLER SWAP1 DUP4 ADD MSTORE DUP8 DUP14 DUP4 ADD MSTORE PUSH1 0xC0 PUSH1 0x60 DUP4 ADD MSTORE PUSH1 0xA0 PUSH3 0x184 PUSH3 0x175 PUSH1 0xC0 DUP6 ADD DUP13 PUSH3 0x4A4 JUMP JUMPDEST DUP5 DUP2 SUB PUSH1 0x80 DUP7 ADD MSTORE DUP14 PUSH3 0x4A4 JUMP JUMPDEST SWAP3 ADD MSTORE SUB SWAP1 DUP5 CREATE DUP1 ISZERO PUSH3 0x2D5 JUMPI DUP11 AND SWAP10 DUP4 SLOAD AND DUP1 EXTCODESIZE ISZERO PUSH3 0x2D1 JUMPI SWAP1 DUP4 DUP10 DUP2 SWAP4 DUP14 DUP14 MLOAD SWAP8 DUP9 DUP1 SWAP5 DUP2 SWAP4 PUSH32 0x5A022E3000000000000000000000000000000000000000000000000000000000 DUP4 MSTORE DUP9 DUP4 ADD MSTORE PUSH1 0xA0 DUP11 DUP4 ADD MSTORE PUSH3 0x1EB DUP14 PUSH1 0xA4 DUP5 ADD SWAP1 PUSH3 0x4A4 JUMP JUMPDEST SWAP1 PUSH1 0x44 DUP4 ADD MSTORE CALLER PUSH1 0x64 DUP4 ADD MSTORE DUP12 PUSH1 0x84 DUP4 ADD MSTORE SUB SWAP3 GAS CALL DUP1 ISZERO PUSH3 0x2C7 JUMPI SWAP1 DUP12 SWAP7 SWAP6 SWAP5 SWAP4 SWAP3 SWAP2 PUSH3 0x276 JUMPI JUMPDEST POP POP POP POP PUSH32 0xE5E80A9D4B12BE03CE9688D6FC0D5C3C9E24EB2225F3E92C2EB7586D7715BB5F SWAP3 SWAP4 POP PUSH3 0x26D PUSH3 0x25E DUP9 MLOAD SWAP4 DUP5 SWAP4 DUP5 MSTORE PUSH1 0x60 DUP13 DUP6 ADD MSTORE PUSH1 0x60 DUP5 ADD SWAP1 PUSH3 0x4A4 JUMP JUMPDEST DUP3 DUP2 SUB DUP10 DUP5 ADD MSTORE CALLER SWAP7 PUSH3 0x4A4 JUMP JUMPDEST SUB SWAP1 LOG4 MLOAD SWAP1 DUP2 MSTORE RETURN JUMPDEST SWAP2 SWAP4 SWAP6 POP SWAP2 SWAP4 SWAP6 DUP5 GT PUSH3 0x2B7 JUMPI POP POP POP DUP6 MSTORE DUP6 SWAP2 DUP3 SWAP2 PUSH32 0xE5E80A9D4B12BE03CE9688D6FC0D5C3C9E24EB2225F3E92C2EB7586D7715BB5F CODESIZE DUP1 DUP1 PUSH3 0x216 JUMP JUMPDEST PUSH1 0x41 SWAP1 PUSH4 0x4E487B71 PUSH1 0xE0 SHL DUP4 MSTORE MSTORE REVERT JUMPDEST DUP11 MLOAD RETURNDATASIZE DUP5 DUP3 RETURNDATACOPY RETURNDATASIZE SWAP1 REVERT JUMPDEST DUP4 DUP1 REVERT JUMPDEST DUP10 MLOAD RETURNDATASIZE DUP6 DUP3 RETURNDATACOPY RETURNDATASIZE SWAP1 REVERT JUMPDEST DUP6 DUP8 PUSH1 0x41 DUP8 PUSH4 0x4E487B71 PUSH1 0xE0 SHL DUP4 MSTORE MSTORE REVERT JUMPDEST POP PUSH1 0x1D PUSH1 0x64 SWAP3 DUP13 DUP12 MLOAD SWAP4 PUSH32 0x8C379A000000000000000000000000000000000000000000000000000000000 DUP6 MSTORE DUP5 ADD MSTORE DUP3 ADD MSTORE PUSH32 0x4E6F742072656769737465726564206173206469737472696275746F72000000 PUSH1 0x44 DUP3 ADD MSTORE REVERT JUMPDEST SWAP1 POP DUP13 DUP2 DUP2 RETURNDATASIZE DUP4 GT PUSH3 0x385 JUMPI JUMPDEST PUSH3 0x366 DUP2 DUP4 PUSH3 0x40A JUMP JUMPDEST DUP2 ADD SUB SLT PUSH3 0x381 JUMPI MLOAD DUP1 ISZERO ISZERO DUP2 SUB PUSH3 0x381 JUMPI CODESIZE PUSH3 0x123 JUMP JUMPDEST DUP5 DUP1 REVERT JUMPDEST POP RETURNDATASIZE PUSH3 0x35A JUMP JUMPDEST DUP12 MLOAD RETURNDATASIZE DUP8 DUP3 RETURNDATACOPY RETURNDATASIZE SWAP1 REVERT JUMPDEST POP DUP1 REVERT JUMPDEST DUP3 DUP1 REVERT JUMPDEST DUP1 REVERT JUMPDEST POP CALLVALUE PUSH3 0x397 JUMPI DUP2 PUSH1 0x3 NOT CALLDATASIZE ADD SLT PUSH3 0x397 JUMPI PUSH20 0xFFFFFFFFFFFFFFFFFFFFFFFFFFFFFFFFFFFFFFFF PUSH1 0x20 SWAP3 SLOAD AND SWAP1 MLOAD SWAP1 DUP2 MSTORE RETURN JUMPDEST DUP4 SWAP1 CALLVALUE PUSH3 0x397 JUMPI DUP2 PUSH1 0x3 NOT CALLDATASIZE ADD SLT PUSH3 0x397 JUMPI PUSH1 0x20 SWAP1 PUSH20 0xFFFFFFFFFFFFFFFFFFFFFFFFFFFFFFFFFFFFFFFF PUSH1 0x1 SLOAD AND DUP2 MSTORE RETURN JUMPDEST SWAP1 PUSH1 0x1F DUP1 NOT SWAP2 ADD AND DUP2 ADD SWAP1 DUP2 LT PUSH8 0xFFFFFFFFFFFFFFFF DUP3 GT OR PUSH3 0x42D JUMPI PUSH1 0x40 MSTORE JUMP JUMPDEST PUSH4 0x4E487B71 PUSH1 0xE0 SHL PUSH1 0x0 MSTORE PUSH1 0x41 PUSH1 0x4 MSTORE PUSH1 0x24 PUSH1 0x0 REVERT JUMPDEST DUP2 PUSH1 0x1F DUP3 ADD SLT ISZERO PUSH3 0x49F JUMPI DUP1 CALLDATALOAD SWAP1 PUSH8 0xFFFFFFFFFFFFFFFF DUP3 GT PUSH3 0x42D JUMPI PUSH1 0x40 MLOAD SWAP3 PUSH3 0x47C PUSH1 0x1F DUP5 ADD PUSH1 0x1F NOT AND PUSH1 0x20 ADD DUP6 PUSH3 0x40A JUMP JUMPDEST DUP3 DUP5 MSTORE PUSH1 0x20 DUP4 DUP4 ADD ADD GT PUSH3 0x49F JUMPI DUP2 PUSH1 0x0 SWAP3 PUSH1 0x20 DUP1 SWAP4 ADD DUP4 DUP7 ADD CALLDATACOPY DUP4 ADD ADD MSTORE SWAP1 JUMP JUMPDEST PUSH1 0x0 DUP1 REVERT JUMPDEST SWAP2 SWAP1 DUP3 MLOAD SWAP3 DUP4 DUP3 MSTORE PUSH1 0x0 JUMPDEST DUP5 DUP2 LT PUSH3 0x4D1 JUMPI POP POP DUP3 PUSH1 0x0 PUSH1 0x20 DUP1 SWAP5 SWAP6 DUP5 ADD ADD MSTORE PUSH1 0x1F DUP1 NOT SWAP2 ADD AND ADD ADD SWAP1 JUMP JUMPDEST PUSH1 0x20 DUP2 DUP4 ADD DUP2 ADD MLOAD DUP5 DUP4 ADD DUP3 ADD MSTORE ADD PUSH3 0x4AF JUMP INVALID PUSH1 0xA0 PUSH1 0x40 DUP2 DUP2 MSTORE CALLVALUE PUSH3 0xBC3 JUMPI PUSH3 0x2C03 DUP1 CODESIZE SUB DUP1 SWAP2 PUSH3 0x21 DUP3 DUP7 PUSH3 0xBE4 JUMP JUMPDEST DUP5 CODECOPY DUP3 ADD SWAP2 PUSH1 0xC0 DUP2 DUP5 SUB SLT PUSH3 0xBC3 JUMPI PUSH3 0x3C DUP2 PUSH3 0xC08 JUMP JUMPDEST SWAP1 PUSH3 0x4B PUSH1 0x20 DUP3 ADD PUSH3 0xC08 JUMP JUMPDEST SWAP1 PUSH3 0x59 DUP5 DUP3 ADD PUSH3 0xC08 JUMP JUMPDEST PUSH1 0x60 DUP3 ADD MLOAD SWAP1 SWAP6 SWAP1 PUSH1 0x1 PUSH1 0x1 PUSH1 0x40 SHL SUB DUP2 GT PUSH3 0xBC3 JUMPI DUP2 PUSH3 0x7E SWAP2 DUP5 ADD PUSH3 0xC1D JUMP JUMPDEST PUSH1 0x80 DUP4 ADD MLOAD SWAP1 SWAP2 PUSH1 0x1 PUSH1 0x1 PUSH1 0x40 SHL SUB DUP3 GT PUSH3 0xBC3 JUMPI PUSH3 0xA8 PUSH1 0xA0 SWAP2 PUSH3 0xB0 SWAP4 DUP7 ADD PUSH3 0xC1D JUMP JUMPDEST SWAP4 ADD PUSH3 0xC08 JUMP JUMPDEST DUP6 MLOAD PUSH4 0x8BCF8B5 PUSH1 0xE2 SHL DUP2 MSTORE PUSH1 0x1 PUSH1 0x1 PUSH1 0xA0 SHL SUB SWAP6 SWAP2 SWAP5 SWAP2 DUP7 AND SWAP2 SWAP1 PUSH1 0x20 DUP2 PUSH1 0x4 DUP2 DUP7 GAS STATICCALL SWAP1 DUP2 ISZERO PUSH3 0xB32 JUMPI PUSH1 0x0 SWAP2 PUSH3 0xB81 JUMPI JUMPDEST POP ISZERO PUSH3 0xB3D JUMPI DUP7 MLOAD PUSH4 0x16FD7553 PUSH1 0xE2 SHL DUP2 MSTORE PUSH1 0x20 DUP2 PUSH1 0x4 DUP2 DUP7 GAS STATICCALL SWAP1 DUP2 ISZERO PUSH3 0xB32 JUMPI PUSH1 0x0 SWAP2 PUSH3 0xAE9 JUMPI JUMPDEST POP PUSH1 0x5 DUP2 LT ISZERO SWAP1 DUP2 PUSH3 0x719 JUMPI PUSH1 0x1 DUP2 EQ SWAP2 DUP3 ISZERO PUSH3 0xADA JUMPI JUMPDEST DUP3 ISZERO PUSH3 0xAC7 JUMPI JUMPDEST POP POP ISZERO PUSH3 0xA83 JUMPI DUP2 ISZERO PUSH3 0xA3F JUMPI DUP6 AND SWAP7 DUP8 ISZERO PUSH3 0x9FB JUMPI DUP6 AND SWAP1 DUP2 ISZERO PUSH3 0x9B7 JUMPI DUP3 MLOAD ISZERO PUSH3 0x973 JUMPI PUSH1 0x1 DUP1 PUSH1 0xA0 SHL SUB NOT SWAP1 DUP2 PUSH1 0x0 SLOAD AND OR PUSH1 0x0 SSTORE DUP8 DUP2 PUSH1 0x1 SLOAD AND OR PUSH1 0x1 SSTORE PUSH1 0x2 SLOAD AND OR PUSH1 0x2 SSTORE DUP1 MLOAD SWAP1 PUSH1 0x1 DUP1 PUSH1 0x40 SHL SUB DUP3 GT PUSH3 0x618 JUMPI PUSH1 0x3 SLOAD SWAP1 PUSH1 0x1 DUP3 DUP2 SHR SWAP3 AND DUP1 ISZERO PUSH3 0x968 JUMPI JUMPDEST PUSH1 0x20 DUP4 LT EQ PUSH3 0x5F7 JUMPI DUP2 PUSH1 0x1F DUP5 SWAP4 GT PUSH3 0x8F3 JUMPI JUMPDEST POP PUSH1 0x20 SWAP1 PUSH1 0x1F DUP4 GT PUSH1 0x1 EQ PUSH3 0x868 JUMPI PUSH1 0x0 SWAP3 PUSH3 0x85C JUMPI JUMPDEST POP POP DUP2 PUSH1 0x1 SHL SWAP2 PUSH1 0x0 NOT SWAP1 PUSH1 0x3 SHL SHR NOT AND OR PUSH1 0x3 SSTORE JUMPDEST DUP1 MLOAD SWAP1 PUSH1 0x1 PUSH1 0x1 PUSH1 0x40 SHL SUB DUP3 GT PUSH3 0x618 JUMPI PUSH1 0x4 SLOAD SWAP1 PUSH1 0x1 DUP3 DUP2 SHR SWAP3 AND DUP1 ISZERO PUSH3 0x851 JUMPI JUMPDEST PUSH1 0x20 DUP4 LT EQ PUSH3 0x5F7 JUMPI DUP2 PUSH1 0x1F DUP5 SWAP4 GT PUSH3 0x7DC JUMPI JUMPDEST POP PUSH1 0x20 SWAP1 PUSH1 0x1F DUP4 GT PUSH1 0x1 EQ PUSH3 0x751 JUMPI PUSH1 0x0 SWAP3 PUSH3 0x745 JUMPI JUMPDEST POP POP DUP2 PUSH1 0x1 SHL SWAP2 PUSH1 0x0 NOT SWAP1 PUSH1 0x3 SHL SHR NOT AND OR PUSH1 0x4 SSTORE JUMPDEST PUSH1 0x1 PUSH1 0xFF NOT DUP2 DUP2 PUSH1 0x5 SLOAD AND OR PUSH1 0x5 SSTORE TIMESTAMP PUSH1 0x6 SSTORE TIMESTAMP PUSH1 0x7 SSTORE PUSH1 0x8 SLOAD AND OR PUSH1 0x8 SSTORE AND PUSH1 0x80 MSTORE DUP1 MLOAD SWAP2 PUSH1 0xA0 DUP4 ADD DUP4 DUP2 LT PUSH1 0x1 DUP1 PUSH1 0x40 SHL SUB DUP3 GT OR PUSH3 0x618 JUMPI DUP3 MSTORE TIMESTAMP DUP4 MSTORE PUSH1 0x20 DUP4 ADD PUSH1 0x1 DUP2 MSTORE DUP3 DUP5 ADD SWAP1 DUP3 DUP3 MSTORE DUP4 MLOAD PUSH3 0x2B4 DUP2 PUSH3 0xBC8 JUMP JUMPDEST PUSH1 0x1E DUP2 MSTORE PUSH32 0x536869706D656E74206372656174656420616E6420707265706172696E670000 PUSH1 0x20 DUP3 ADD MSTORE PUSH1 0x60 DUP7 ADD SWAP1 DUP2 MSTORE DUP5 MLOAD PUSH3 0x2F2 DUP2 PUSH3 0xBC8 JUMP JUMPDEST PUSH1 0xF DUP2 MSTORE PUSH15 0x4F726967696E20666163696C697479 PUSH1 0x88 SHL PUSH1 0x20 DUP3 ADD MSTORE PUSH1 0x80 DUP8 ADD MSTORE PUSH1 0x9 SLOAD SWAP2 PUSH9 0x10000000000000000 DUP4 LT ISZERO PUSH3 0x618 JUMPI PUSH1 0x1 DUP4 ADD DUP1 PUSH1 0x9 SSTORE DUP4 LT ISZERO PUSH3 0x72F JUMPI PUSH1 0x9 PUSH1 0x0 MSTORE PUSH1 0x20 PUSH1 0x0 KECCAK256 SWAP4 DUP8 MLOAD DUP5 PUSH1 0x2 SHL DUP7 ADD SSTORE PUSH1 0x1 DUP5 PUSH1 0x2 SHL DUP7 ADD ADD SWAP2 MLOAD SWAP1 PUSH1 0x7 DUP3 LT ISZERO PUSH3 0x719 JUMPI DUP3 SLOAD SWAP1 MLOAD PUSH2 0x100 PUSH1 0x1 PUSH1 0xA8 SHL SUB PUSH1 0x8 SWAP2 SWAP1 SWAP2 SHL AND PUSH1 0xFF SWAP3 SWAP1 SWAP3 AND PUSH1 0x1 PUSH1 0x1 PUSH1 0xA8 SHL SUB NOT SWAP1 SWAP2 AND OR OR SWAP1 SSTORE MLOAD DUP1 MLOAD SWAP1 PUSH1 0x1 PUSH1 0x1 PUSH1 0x40 SHL SUB DUP3 GT PUSH3 0x618 JUMPI PUSH1 0x2 DUP4 DUP2 SHL DUP6 ADD ADD SLOAD PUSH1 0x1 DUP2 DUP2 SHR SWAP2 AND DUP1 ISZERO PUSH3 0x70E JUMPI JUMPDEST PUSH1 0x20 DUP3 LT EQ PUSH3 0x5F7 JUMPI PUSH1 0x1F DUP2 GT PUSH3 0x6BA JUMPI JUMPDEST POP PUSH1 0x20 SWAP1 PUSH1 0x1F DUP4 GT PUSH1 0x1 EQ PUSH3 0x63A JUMPI SWAP2 DUP1 PUSH1 0x3 SWAP5 SWAP3 PUSH1 0x80 SWAP7 SWAP5 PUSH1 0x0 SWAP3 PUSH3 0x62E JUMPI JUMPDEST POP POP DUP2 PUSH1 0x1 SHL SWAP2 PUSH1 0x0 NOT SWAP1 DUP7 SHL SHR NOT AND OR PUSH1 0x2 DUP3 DUP2 SHL DUP5 ADD ADD SSTORE JUMPDEST PUSH1 0x2 SHL ADD ADD SWAP4 ADD MLOAD SWAP3 DUP4 MLOAD PUSH1 0x1 DUP1 PUSH1 0x40 SHL SUB DUP2 GT PUSH3 0x618 JUMPI DUP2 SLOAD PUSH1 0x1 DUP2 DUP2 SHR SWAP2 AND DUP1 ISZERO PUSH3 0x60D JUMPI JUMPDEST PUSH1 0x20 DUP3 LT EQ PUSH3 0x5F7 JUMPI PUSH1 0x1F DUP2 GT PUSH3 0x5AA JUMPI JUMPDEST POP PUSH1 0x20 SWAP5 PUSH1 0x1F DUP3 GT PUSH1 0x1 EQ PUSH3 0x53F JUMPI SWAP5 DUP2 SWAP3 SWAP4 SWAP5 SWAP6 PUSH1 0x0 SWAP3 PUSH3 0x533 JUMPI JUMPDEST POP POP DUP2 PUSH1 0x1 SHL SWAP2 PUSH1 0x0 NOT SWAP1 PUSH1 0x3 SHL SHR NOT AND OR SWAP1 SSTORE JUMPDEST PUSH1 0x1 PUSH32 0x86EABD3CD04A2DC287DAE84F5910A5D2096722D6599F992754CF9952DF9C489 PUSH1 0xE0 DUP5 MLOAD PUSH1 0x60 DUP2 MSTORE PUSH1 0x1E PUSH1 0x60 DUP3 ADD MSTORE PUSH32 0x536869706D656E74206372656174656420616E6420707265706172696E670000 PUSH1 0x80 DUP3 ADD MSTORE PUSH1 0xA0 PUSH1 0x20 DUP3 ADD MSTORE PUSH1 0xF PUSH1 0xA0 DUP3 ADD MSTORE PUSH15 0x4F726967696E20666163696C697479 PUSH1 0x88 SHL PUSH1 0xC0 DUP3 ADD MSTORE TIMESTAMP DUP7 DUP3 ADD MSTORE LOG3 MLOAD PUSH2 0x1F6E SWAP1 DUP2 PUSH3 0xC95 DUP3 CODECOPY PUSH1 0x80 MLOAD DUP2 DUP2 DUP2 PUSH2 0x611 ADD MSTORE DUP2 DUP2 PUSH2 0xD59 ADD MSTORE DUP2 DUP2 PUSH2 0xF72 ADD MSTORE DUP2 DUP2 PUSH2 0x1576 ADD MSTORE PUSH2 0x167C ADD MSTORE RETURN JUMPDEST ADD MLOAD SWAP1 POP CODESIZE DUP1 PUSH3 0x467 JUMP JUMPDEST PUSH1 0x1F NOT DUP3 AND SWAP6 DUP4 PUSH1 0x0 MSTORE PUSH1 0x20 PUSH1 0x0 KECCAK256 SWAP2 PUSH1 0x0 JUMPDEST DUP9 DUP2 LT PUSH3 0x591 JUMPI POP DUP4 PUSH1 0x1 SWAP6 SWAP7 SWAP8 SWAP9 LT PUSH3 0x577 JUMPI JUMPDEST POP POP POP DUP2 SHL ADD SWAP1 SSTORE PUSH3 0x47C JUMP JUMPDEST ADD MLOAD PUSH1 0x0 NOT PUSH1 0xF8 DUP5 PUSH1 0x3 SHL AND SHR NOT AND SWAP1 SSTORE CODESIZE DUP1 DUP1 PUSH3 0x569 JUMP JUMPDEST SWAP2 SWAP3 PUSH1 0x20 PUSH1 0x1 DUP2 SWAP3 DUP7 DUP6 ADD MLOAD DUP2 SSTORE ADD SWAP5 ADD SWAP3 ADD PUSH3 0x552 JUMP JUMPDEST DUP3 PUSH1 0x0 MSTORE PUSH1 0x20 PUSH1 0x0 KECCAK256 PUSH1 0x1F DUP4 ADD PUSH1 0x5 SHR DUP2 ADD SWAP2 PUSH1 0x20 DUP5 LT PUSH3 0x5EC JUMPI JUMPDEST PUSH1 0x1F ADD PUSH1 0x5 SHR ADD SWAP1 JUMPDEST DUP2 DUP2 LT PUSH3 0x5DF JUMPI POP PUSH3 0x448 JUMP JUMPDEST PUSH1 0x0 DUP2 SSTORE PUSH1 0x1 ADD PUSH3 0x5D0 JUMP JUMPDEST SWAP1 SWAP2 POP DUP2 SWAP1 PUSH3 0x5C7 JUMP JUMPDEST PUSH4 0x4E487B71 PUSH1 0xE0 SHL PUSH1 0x0 MSTORE PUSH1 0x22 PUSH1 0x4 MSTORE PUSH1 0x24 PUSH1 0x0 REVERT JUMPDEST SWAP1 PUSH1 0x7F AND SWAP1 PUSH3 0x434 JUMP JUMPDEST PUSH4 0x4E487B71 PUSH1 0xE0 SHL PUSH1 0x0 MSTORE PUSH1 0x41 PUSH1 0x4 MSTORE PUSH1 0x24 PUSH1 0x0 REVERT JUMPDEST ADD MLOAD SWAP1 POP CODESIZE DUP1 PUSH3 0x3EF JUMP JUMPDEST SWAP1 PUSH1 0x1F NOT DUP4 AND SWAP2 PUSH1 0x2 DUP6 DUP2 SHL DUP8 ADD ADD PUSH1 0x0 MSTORE PUSH1 0x20 PUSH1 0x0 KECCAK256 SWAP3 PUSH1 0x0 JUMPDEST DUP2 DUP2 LT PUSH3 0x6A1 JUMPI POP SWAP3 PUSH1 0x1 SWAP3 DUP6 SWAP3 PUSH1 0x80 SWAP9 SWAP7 PUSH1 0x3 SWAP9 SWAP7 LT PUSH3 0x688 JUMPI JUMPDEST POP POP POP DUP2 SHL ADD PUSH1 0x2 DUP3 DUP2 SHL DUP5 ADD ADD SSTORE PUSH3 0x40A JUMP JUMPDEST ADD MLOAD PUSH1 0x0 NOT DUP4 DUP9 SHL PUSH1 0xF8 AND SHR NOT AND SWAP1 SSTORE CODESIZE DUP1 DUP1 PUSH3 0x673 JUMP JUMPDEST SWAP3 SWAP4 PUSH1 0x20 PUSH1 0x1 DUP2 SWAP3 DUP8 DUP7 ADD MLOAD DUP2 SSTORE ADD SWAP6 ADD SWAP4 ADD PUSH3 0x655 JUMP JUMPDEST PUSH1 0x2 DUP5 DUP2 SHL DUP7 ADD ADD PUSH1 0x0 MSTORE PUSH1 0x20 PUSH1 0x0 KECCAK256 PUSH1 0x1F DUP5 ADD PUSH1 0x5 SHR DUP2 ADD SWAP2 PUSH1 0x20 DUP6 LT PUSH3 0x703 JUMPI JUMPDEST PUSH1 0x1F ADD PUSH1 0x5 SHR ADD SWAP1 JUMPDEST DUP2 DUP2 LT PUSH3 0x6F6 JUMPI POP PUSH3 0x3CC JUMP JUMPDEST PUSH1 0x0 DUP2 SSTORE PUSH1 0x1 ADD PUSH3 0x6E7 JUMP JUMPDEST SWAP1 SWAP2 POP DUP2 SWAP1 PUSH3 0x6DE JUMP JUMPDEST SWAP1 PUSH1 0x7F AND SWAP1 PUSH3 0x3B8 JUMP JUMPDEST PUSH4 0x4E487B71 PUSH1 0xE0 SHL PUSH1 0x0 MSTORE PUSH1 0x21 PUSH1 0x4 MSTORE PUSH1 0x24 PUSH1 0x0 REVERT JUMPDEST PUSH4 0x4E487B71 PUSH1 0xE0 SHL PUSH1 0x0 MSTORE PUSH1 0x32 PUSH1 0x4 MSTORE PUSH1 0x24 PUSH1 0x0 REVERT JUMPDEST ADD MLOAD SWAP1 POP CODESIZE DUP1 PUSH3 0x241 JUMP JUMPDEST PUSH1 0x4 PUSH1 0x0 SWAP1 DUP2 MSTORE PUSH32 0x8A35ACFBC15FF81A39AE7D344FD709F28E8600B4AA8C65C6B64BFE7FE36BD19B SWAP4 POP PUSH1 0x1F NOT DUP6 AND SWAP1 JUMPDEST DUP2 DUP2 LT PUSH3 0x7C3 JUMPI POP SWAP1 DUP5 PUSH1 0x1 SWAP6 SWAP5 SWAP4 SWAP3 LT PUSH3 0x7A9 JUMPI JUMPDEST POP POP POP DUP2 SHL ADD PUSH1 0x4 SSTORE PUSH3 0x257 JUMP JUMPDEST ADD MLOAD PUSH1 0x0 NOT PUSH1 0xF8 DUP5 PUSH1 0x3 SHL AND SHR NOT AND SWAP1 SSTORE CODESIZE DUP1 DUP1 PUSH3 0x79A JUMP JUMPDEST SWAP3 SWAP4 PUSH1 0x20 PUSH1 0x1 DUP2 SWAP3 DUP8 DUP7 ADD MLOAD DUP2 SSTORE ADD SWAP6 ADD SWAP4 ADD PUSH3 0x782 JUMP JUMPDEST PUSH1 0x4 PUSH1 0x0 MSTORE SWAP1 SWAP2 POP PUSH32 0x8A35ACFBC15FF81A39AE7D344FD709F28E8600B4AA8C65C6B64BFE7FE36BD19B PUSH1 0x1F DUP5 ADD PUSH1 0x5 SHR DUP2 ADD SWAP2 PUSH1 0x20 DUP6 LT PUSH3 0x846 JUMPI JUMPDEST SWAP1 PUSH1 0x1F DUP6 SWAP5 SWAP4 SWAP3 ADD PUSH1 0x5 SHR ADD SWAP1 JUMPDEST DUP2 DUP2 LT PUSH3 0x836 JUMPI POP PUSH3 0x228 JUMP JUMPDEST PUSH1 0x0 DUP2 SSTORE DUP5 SWAP4 POP PUSH1 0x1 ADD PUSH3 0x827 JUMP JUMPDEST SWAP1 SWAP2 POP DUP2 SWAP1 PUSH3 0x819 JUMP JUMPDEST SWAP2 PUSH1 0x7F AND SWAP2 PUSH3 0x212 JUMP JUMPDEST ADD MLOAD SWAP1 POP CODESIZE DUP1 PUSH3 0x1D7 JUMP JUMPDEST PUSH1 0x3 PUSH1 0x0 SWAP1 DUP2 MSTORE PUSH32 0xC2575A0E9E593C00F959F8C92F12DB2869C3395A3B0502D05E2516446F71F85B SWAP4 POP PUSH1 0x1F NOT DUP6 AND SWAP1 JUMPDEST DUP2 DUP2 LT PUSH3 0x8DA JUMPI POP SWAP1 DUP5 PUSH1 0x1 SWAP6 SWAP5 SWAP4 SWAP3 LT PUSH3 0x8C0 JUMPI JUMPDEST POP POP POP DUP2 SHL ADD PUSH1 0x3 SSTORE PUSH3 0x1ED JUMP JUMPDEST ADD MLOAD PUSH1 0x0 NOT PUSH1 0xF8 DUP5 PUSH1 0x3 SHL AND SHR NOT AND SWAP1 SSTORE CODESIZE DUP1 DUP1 PUSH3 0x8B1 JUMP JUMPDEST SWAP3 SWAP4 PUSH1 0x20 PUSH1 0x1 DUP2 SWAP3 DUP8 DUP7 ADD MLOAD DUP2 SSTORE ADD SWAP6 ADD SWAP4 ADD PUSH3 0x899 JUMP JUMPDEST PUSH1 0x3 PUSH1 0x0 MSTORE SWAP1 SWAP2 POP PUSH32 0xC2575A0E9E593C00F959F8C92F12DB2869C3395A3B0502D05E2516446F71F85B PUSH1 0x1F DUP5 ADD PUSH1 0x5 SHR DUP2 ADD SWAP2 PUSH1 0x20 DUP6 LT PUSH3 0x95D JUMPI JUMPDEST SWAP1 PUSH1 0x1F DUP6 SWAP5 SWAP4 SWAP3 ADD PUSH1 0x5 SHR ADD SWAP1 JUMPDEST DUP2 DUP2 LT PUSH3 0x94D JUMPI POP PUSH3 0x1BE JUMP JUMPDEST PUSH1 0x0 DUP2 SSTORE DUP5 SWAP4 POP PUSH1 0x1 ADD PUSH3 0x93E JUMP JUMPDEST SWAP1 SWAP2 POP DUP2 SWAP1 PUSH3 0x930 JUMP JUMPDEST SWAP2 PUSH1 0x7F AND SWAP2 PUSH3 0x1A8 JUMP JUMPDEST DUP7 MLOAD PUSH3 0x461BCD PUSH1 0xE5 SHL DUP2 MSTORE PUSH1 0x20 PUSH1 0x4 DUP3 ADD MSTORE PUSH1 0x1F PUSH1 0x24 DUP3 ADD MSTORE PUSH32 0x547261636B696E67206E756D6265722063616E6E6F7420626520656D70747900 PUSH1 0x44 DUP3 ADD MSTORE PUSH1 0x64 SWAP1 REVERT JUMPDEST DUP7 MLOAD PUSH3 0x461BCD PUSH1 0xE5 SHL DUP2 MSTORE PUSH1 0x20 PUSH1 0x4 DUP3 ADD MSTORE PUSH1 0x18 PUSH1 0x24 DUP3 ADD MSTORE PUSH32 0x496E76616C696420726563656976657220616464726573730000000000000000 PUSH1 0x44 DUP3 ADD MSTORE PUSH1 0x64 SWAP1 REVERT JUMPDEST DUP7 MLOAD PUSH3 0x461BCD PUSH1 0xE5 SHL DUP2 MSTORE PUSH1 0x20 PUSH1 0x4 DUP3 ADD MSTORE PUSH1 0x16 PUSH1 0x24 DUP3 ADD MSTORE PUSH32 0x496E76616C69642073656E646572206164647265737300000000000000000000 PUSH1 0x44 DUP3 ADD MSTORE PUSH1 0x64 SWAP1 REVERT JUMPDEST DUP7 MLOAD PUSH3 0x461BCD PUSH1 0xE5 SHL DUP2 MSTORE PUSH1 0x20 PUSH1 0x4 DUP3 ADD MSTORE PUSH1 0x17 PUSH1 0x24 DUP3 ADD MSTORE PUSH32 0x496E76616C69642070726F647563742061646472657373000000000000000000 PUSH1 0x44 DUP3 ADD MSTORE PUSH1 0x64 SWAP1 REVERT JUMPDEST DUP7 MLOAD PUSH3 0x461BCD PUSH1 0xE5 SHL DUP2 MSTORE PUSH1 0x20 PUSH1 0x4 DUP3 ADD MSTORE PUSH1 0x1E PUSH1 0x24 DUP3 ADD MSTORE PUSH32 0x50726F64756374206E6F7420726561647920666F7220736869706D656E740000 PUSH1 0x44 DUP3 ADD MSTORE PUSH1 0x64 SWAP1 REVERT JUMPDEST SWAP1 SWAP2 POP PUSH3 0x719 JUMPI PUSH1 0x3 EQ CODESIZE DUP1 PUSH3 0x135 JUMP JUMPDEST POP PUSH1 0x2 DUP2 EQ SWAP2 POP PUSH1 0x0 PUSH3 0x12D JUMP JUMPDEST PUSH1 0x20 DUP2 RETURNDATASIZE PUSH1 0x20 GT PUSH3 0xB29 JUMPI JUMPDEST DUP2 PUSH3 0xB05 PUSH1 0x20 SWAP4 DUP4 PUSH3 0xBE4 JUMP JUMPDEST DUP2 ADD SUB SLT PUSH3 0xB25 JUMPI MLOAD SWAP1 PUSH1 0x5 DUP3 LT ISZERO PUSH3 0xB22 JUMPI POP CODESIZE PUSH3 0x113 JUMP JUMPDEST DUP1 REVERT JUMPDEST POP DUP1 REVERT JUMPDEST RETURNDATASIZE SWAP2 POP PUSH3 0xAF6 JUMP JUMPDEST DUP9 MLOAD RETURNDATASIZE PUSH1 0x0 DUP3 RETURNDATACOPY RETURNDATASIZE SWAP1 REVERT JUMPDEST DUP7 MLOAD PUSH3 0x461BCD PUSH1 0xE5 SHL DUP2 MSTORE PUSH1 0x20 PUSH1 0x4 DUP3 ADD MSTORE PUSH1 0x15 PUSH1 0x24 DUP3 ADD MSTORE PUSH32 0x50726F64756374206973206E6F74206163746976650000000000000000000000 PUSH1 0x44 DUP3 ADD MSTORE PUSH1 0x64 SWAP1 REVERT JUMPDEST PUSH1 0x20 DUP2 RETURNDATASIZE PUSH1 0x20 GT PUSH3 0xBBA JUMPI JUMPDEST DUP2 PUSH3 0xB9D PUSH1 0x20 SWAP4 DUP4 PUSH3 0xBE4 JUMP JUMPDEST DUP2 ADD SUB SLT PUSH3 0xB25 JUMPI MLOAD SWAP1 DUP2 ISZERO ISZERO DUP3 SUB PUSH3 0xB22 JUMPI POP CODESIZE PUSH3 0xE6 JUMP JUMPDEST RETURNDATASIZE SWAP2 POP PUSH3 0xB8E JUMP JUMPDEST PUSH1 0x0 DUP1 REVERT JUMPDEST PUSH1 0x40 DUP2 ADD SWAP1 DUP2 LT PUSH1 0x1 PUSH1 0x1 PUSH1 0x40 SHL SUB DUP3 GT OR PUSH3 0x618 JUMPI PUSH1 0x40 MSTORE JUMP JUMPDEST PUSH1 0x1F SWAP1 SWAP2 ADD PUSH1 0x1F NOT AND DUP2 ADD SWAP1 PUSH1 0x1 PUSH1 0x1 PUSH1 0x40 SHL SUB DUP3 GT SWAP1 DUP3 LT OR PUSH3 0x618 JUMPI PUSH1 0x40 MSTORE JUMP JUMPDEST MLOAD SWAP1 PUSH1 0x1 PUSH1 0x1 PUSH1 0xA0 SHL SUB DUP3 AND DUP3 SUB PUSH3 0xBC3 JUMPI JUMP JUMPDEST SWAP2 SWAP1 DUP1 PUSH1 0x1F DUP5 ADD SLT ISZERO PUSH3 0xBC3 JUMPI DUP3 MLOAD SWAP1 PUSH1 0x1 PUSH1 0x1 PUSH1 0x40 SHL SUB DUP3 GT PUSH3 0x618 JUMPI PUSH1 0x40 MLOAD SWAP2 PUSH1 0x20 SWAP2 PUSH3 0xC59 PUSH1 0x1F DUP4 ADD PUSH1 0x1F NOT AND DUP5 ADD DUP6 PUSH3 0xBE4 JUMP JUMPDEST DUP2 DUP5 MSTORE DUP3 DUP3 DUP8 ADD ADD GT PUSH3 0xBC3 JUMPI PUSH1 0x0 JUMPDEST DUP2 DUP2 LT PUSH3 0xC80 JUMPI POP DUP3 PUSH1 0x0 SWAP4 SWAP5 SWAP6 POP ADD ADD MSTORE SWAP1 JUMP JUMPDEST DUP6 DUP2 ADD DUP4 ADD MLOAD DUP5 DUP3 ADD DUP5 ADD MSTORE DUP3 ADD PUSH3 0xC6A JUMP INVALID PUSH1 0x80 PUSH1 0x40 MSTORE PUSH1 0x4 CALLDATASIZE LT ISZERO PUSH2 0x12 JUMPI PUSH1 0x0 DUP1 REVERT JUMPDEST PUSH1 0x0 CALLDATALOAD PUSH1 0xE0 SHR DUP1 PUSH4 0xB4F3F3D EQ PUSH2 0x10FD JUMPI DUP1 PUSH4 0x1C431183 EQ PUSH2 0x10D6 JUMPI DUP1 PUSH4 0x1D60A29A EQ PUSH2 0xFE1 JUMPI DUP1 PUSH4 0x200D2ED2 EQ PUSH2 0xFB9 JUMPI DUP1 PUSH4 0x22F3E2D4 EQ PUSH2 0xF96 JUMPI DUP1 PUSH4 0x23FEDA0A EQ PUSH2 0xF52 JUMPI DUP1 PUSH4 0x526FF16F EQ PUSH2 0xF36 JUMPI DUP1 PUSH4 0x608FF405 EQ PUSH2 0xE8D JUMPI DUP1 PUSH4 0x67E404CE EQ PUSH2 0xE66 JUMPI DUP1 PUSH4 0x7024DB3B EQ PUSH2 0xDCF JUMPI DUP1 PUSH4 0x705C8902 EQ PUSH2 0x8A7 JUMPI DUP1 PUSH4 0x903AC798 EQ PUSH2 0x885 JUMPI DUP1 PUSH4 0xADB4AF3E EQ PUSH2 0x7B3 JUMPI DUP1 PUSH4 0xCF09E0D0 EQ PUSH2 0x795 JUMPI DUP1 PUSH4 0xD0B06F5D EQ PUSH2 0x777 JUMPI DUP1 PUSH4 0xD65FB48F EQ PUSH2 0x743 JUMPI DUP1 PUSH4 0xD9976925 EQ PUSH2 0x10E JUMPI PUSH4 0xF7260D3E EQ PUSH2 0xE2 JUMPI PUSH1 0x0 DUP1 REVERT JUMPDEST CALLVALUE PUSH2 0x109 JUMPI PUSH1 0x0 CALLDATASIZE PUSH1 0x3 NOT ADD SLT PUSH2 0x109 JUMPI PUSH1 0x20 PUSH1 0x1 PUSH1 0x1 PUSH1 0xA0 SHL SUB PUSH1 0x2 SLOAD AND PUSH1 0x40 MLOAD SWAP1 DUP2 MSTORE RETURN JUMPDEST PUSH1 0x0 DUP1 REVERT JUMPDEST CALLVALUE PUSH2 0x109 JUMPI PUSH1 0x0 CALLDATASIZE PUSH1 0x3 NOT ADD SLT PUSH2 0x109 JUMPI PUSH1 0x1 PUSH1 0x1 PUSH1 0xA0 SHL SUB DUP1 PUSH1 0x2 SLOAD AND CALLER EQ DUP1 ISZERO PUSH2 0x6D9 JUMPI PUSH1 0x5 SLOAD PUSH1 0xFF DUP2 AND SWAP2 PUSH1 0x7 DUP4 LT ISZERO PUSH2 0x553 JUMPI PUSH1 0x3 DUP4 SUB PUSH2 0x695 JUMPI PUSH1 0x40 MLOAD SWAP3 PUSH2 0x15A DUP5 PUSH2 0x171D JUMP JUMPDEST PUSH1 0x1D DUP5 MSTORE PUSH32 0x44656C6976657279207665726966696564206279207265636569766572000000 PUSH1 0x20 DUP6 ADD MSTORE PUSH1 0x40 MLOAD SWAP5 PUSH2 0x191 DUP7 PUSH2 0x1701 JUMP JUMPDEST PUSH1 0x0 DUP7 MSTORE DUP1 PUSH1 0x1 SLOAD AND CALLER EQ SWAP3 DUP4 ISZERO PUSH2 0x68D JUMPI JUMPDEST POP DUP3 ISZERO PUSH2 0x5E9 JUMPI JUMPDEST POP PUSH2 0x1B9 PUSH2 0x1BE SWAP3 PUSH2 0x1AF8 JUMP JUMPDEST PUSH2 0x1C41 JUMP JUMPDEST ISZERO PUSH2 0x57F JUMPI PUSH1 0xFF NOT AND PUSH1 0x6 OR PUSH1 0x5 SSTORE TIMESTAMP PUSH1 0x7 SSTORE PUSH1 0x40 MLOAD SWAP2 PUSH2 0x1DE DUP4 PUSH2 0x16E5 JUMP JUMPDEST TIMESTAMP DUP4 MSTORE PUSH1 0x20 DUP4 ADD PUSH1 0x6 DUP2 MSTORE PUSH1 0x40 DUP5 ADD SWAP1 CALLER DUP3 MSTORE PUSH1 0x60 DUP6 ADD SWAP1 DUP5 DUP3 MSTORE DUP4 PUSH1 0x80 DUP8 ADD MSTORE PUSH1 0x9 SLOAD PUSH9 0x10000000000000000 DUP2 LT ISZERO PUSH2 0x477 JUMPI DUP1 PUSH1 0x1 PUSH2 0x223 SWAP3 ADD PUSH1 0x9 SSTORE PUSH2 0x1A90 JUMP JUMPDEST SWAP4 SWAP1 SWAP4 PUSH2 0x569 JUMPI DUP7 MLOAD DUP5 SSTORE PUSH1 0x1 DUP5 ADD SWAP2 MLOAD PUSH1 0x7 DUP2 LT ISZERO PUSH2 0x553 JUMPI PUSH2 0x247 SWAP1 DUP4 PUSH2 0x1B43 JUMP JUMPDEST MLOAD PUSH21 0xFFFFFFFFFFFFFFFFFFFFFFFFFFFFFFFFFFFFFFFF00 NOT PUSH21 0xFFFFFFFFFFFFFFFFFFFFFFFFFFFFFFFFFFFFFFFF00 DUP4 SLOAD SWAP3 PUSH1 0x8 SHL AND SWAP2 AND OR SWAP1 SSTORE MLOAD DUP1 MLOAD SWAP1 PUSH8 0xFFFFFFFFFFFFFFFF DUP3 GT PUSH2 0x477 JUMPI PUSH2 0x2A1 PUSH1 0x2 DUP5 ADD SLOAD PUSH2 0x185B JUMP JUMPDEST PUSH1 0x1F DUP2 GT PUSH2 0x50C JUMPI JUMPDEST POP PUSH1 0x20 SWAP1 PUSH1 0x1F DUP4 GT PUSH1 0x1 EQ PUSH2 0x498 JUMPI SWAP2 DUP1 PUSH1 0x80 SWAP5 SWAP3 PUSH1 0x3 SWAP5 PUSH1 0x0 SWAP3 PUSH2 0x48D JUMPI JUMPDEST POP POP DUP2 PUSH1 0x1 SHL SWAP2 PUSH1 0x0 NOT SWAP1 DUP6 SHL SHR NOT AND OR PUSH1 0x2 DUP3 ADD SSTORE JUMPDEST ADD SWAP4 ADD MLOAD SWAP3 DUP4 MLOAD PUSH8 0xFFFFFFFFFFFFFFFF DUP2 GT PUSH2 0x477 JUMPI PUSH2 0x301 DUP3 SLOAD PUSH2 0x185B JUMP JUMPDEST PUSH1 0x1F DUP2 GT PUSH2 0x42F JUMPI JUMPDEST POP PUSH1 0x20 PUSH1 0x1F DUP3 GT PUSH1 0x1 EQ PUSH2 0x39F JUMPI SWAP2 DUP2 PUSH32 0x86EABD3CD04A2DC287DAE84F5910A5D2096722D6599F992754CF9952DF9C489 SWAP5 SWAP3 PUSH2 0x385 SWAP5 PUSH1 0x6 SWAP8 SWAP9 PUSH1 0x0 SWAP3 PUSH2 0x394 JUMPI JUMPDEST POP POP DUP2 PUSH1 0x1 SHL SWAP2 PUSH1 0x0 NOT SWAP1 PUSH1 0x3 SHL SHR NOT AND OR SWAP1 SSTORE JUMPDEST PUSH2 0x377 PUSH1 0x40 MLOAD SWAP6 PUSH1 0x60 DUP8 MSTORE PUSH1 0x60 DUP8 ADD SWAP1 PUSH2 0x17BF JUMP JUMPDEST SWAP1 DUP6 DUP3 SUB PUSH1 0x20 DUP8 ADD MSTORE PUSH2 0x17BF JUMP JUMPDEST SWAP3 TIMESTAMP PUSH1 0x40 DUP3 ADD MSTORE DUP1 CALLER SWAP5 SUB SWAP1 LOG3 STOP JUMPDEST ADD MLOAD SWAP1 POP DUP9 DUP1 PUSH2 0x34D JUMP JUMPDEST PUSH1 0x1F NOT DUP3 AND SWAP6 DUP4 PUSH1 0x0 MSTORE PUSH1 0x20 PUSH1 0x0 KECCAK256 SWAP7 PUSH1 0x0 JUMPDEST DUP2 DUP2 LT PUSH2 0x417 JUMPI POP SWAP3 PUSH1 0x6 SWAP7 SWAP8 PUSH2 0x385 SWAP6 SWAP4 PUSH1 0x1 SWAP4 DUP4 PUSH32 0x86EABD3CD04A2DC287DAE84F5910A5D2096722D6599F992754CF9952DF9C489 SWAP10 SWAP8 LT PUSH2 0x3FE JUMPI JUMPDEST POP POP POP DUP2 SHL ADD SWAP1 SSTORE PUSH2 0x362 JUMP JUMPDEST ADD MLOAD PUSH1 0x0 NOT PUSH1 0xF8 DUP5 PUSH1 0x3 SHL AND SHR NOT AND SWAP1 SSTORE DUP9 DUP1 DUP1 PUSH2 0x3F1 JUMP JUMPDEST DUP4 DUP4 ADD MLOAD DUP10 SSTORE PUSH1 0x1 SWAP1 SWAP9 ADD SWAP8 PUSH1 0x20 SWAP4 DUP5 ADD SWAP4 ADD PUSH2 0x3B2 JUMP JUMPDEST DUP3 PUSH1 0x0 MSTORE PUSH1 0x20 PUSH1 0x0 KECCAK256 PUSH1 0x1F DUP4 ADD PUSH1 0x5 SHR DUP2 ADD SWAP2 PUSH1 0x20 DUP5 LT PUSH2 0x46D JUMPI JUMPDEST PUSH1 0x1F ADD PUSH1 0x5 SHR ADD SWAP1 JUMPDEST DUP2 DUP2 LT PUSH2 0x461 JUMPI POP PUSH2 0x30A JUMP JUMPDEST PUSH1 0x0 DUP2 SSTORE PUSH1 0x1 ADD PUSH2 0x454 JUMP JUMPDEST SWAP1 SWAP2 POP DUP2 SWAP1 PUSH2 0x44B JUMP JUMPDEST PUSH4 0x4E487B71 PUSH1 0xE0 SHL PUSH1 0x0 MSTORE PUSH1 0x41 PUSH1 0x4 MSTORE PUSH1 0x24 PUSH1 0x0 REVERT JUMPDEST ADD MLOAD SWAP1 POP DUP9 DUP1 PUSH2 0x2CA JUMP JUMPDEST SWAP1 PUSH1 0x2 DUP5 ADD PUSH1 0x0 MSTORE PUSH1 0x20 PUSH1 0x0 KECCAK256 SWAP2 PUSH1 0x0 JUMPDEST PUSH1 0x1F NOT DUP6 AND DUP2 LT PUSH2 0x4F4 JUMPI POP SWAP3 PUSH1 0x80 SWAP5 SWAP3 PUSH1 0x1 SWAP3 PUSH1 0x3 SWAP6 DUP4 PUSH1 0x1F NOT DUP2 AND LT PUSH2 0x4DC JUMPI JUMPDEST POP POP POP DUP2 SHL ADD PUSH1 0x2 DUP3 ADD SSTORE PUSH2 0x2E1 JUMP JUMPDEST ADD MLOAD PUSH1 0x0 NOT DUP4 DUP8 SHL PUSH1 0xF8 AND SHR NOT AND SWAP1 SSTORE DUP9 DUP1 DUP1 PUSH2 0x4CC JUMP JUMPDEST SWAP2 SWAP3 PUSH1 0x20 PUSH1 0x1 DUP2 SWAP3 DUP7 DUP6 ADD MLOAD DUP2 SSTORE ADD SWAP5 ADD SWAP3 ADD PUSH2 0x4A9 JUMP JUMPDEST PUSH1 0x2 DUP5 ADD PUSH1 0x0 MSTORE PUSH1 0x20 PUSH1 0x0 KECCAK256 PUSH1 0x1F DUP5 ADD PUSH1 0x5 SHR DUP2 ADD PUSH1 0x20 DUP6 LT PUSH2 0x54C JUMPI JUMPDEST PUSH1 0x1F DUP4 ADD PUSH1 0x5 SHR DUP3 ADD DUP2 LT PUSH2 0x540 JUMPI POP POP PUSH2 0x2AA JUMP JUMPDEST PUSH1 0x0 DUP2 SSTORE PUSH1 0x1 ADD PUSH2 0x52A JUMP JUMPDEST POP DUP1 PUSH2 0x52A JUMP JUMPDEST PUSH4 0x4E487B71 PUSH1 0xE0 SHL PUSH1 0x0 MSTORE PUSH1 0x21 PUSH1 0x4 MSTORE PUSH1 0x24 PUSH1 0x0 REVERT JUMPDEST PUSH4 0x4E487B71 PUSH1 0xE0 SHL PUSH1 0x0 MSTORE PUSH1 0x0 PUSH1 0x4 MSTORE PUSH1 0x24 PUSH1 0x0 REVERT JUMPDEST PUSH1 0x84 PUSH1 0x40 MLOAD PUSH3 0x461BCD PUSH1 0xE5 SHL DUP2 MSTORE PUSH1 0x20 PUSH1 0x4 DUP3 ADD MSTORE PUSH1 0x22 PUSH1 0x24 DUP3 ADD MSTORE PUSH32 0x496E76616C696420736869706D656E7420737461747573207472616E73697469 PUSH1 0x44 DUP3 ADD MSTORE PUSH32 0x6F6E000000000000000000000000000000000000000000000000000000000000 PUSH1 0x64 DUP3 ADD MSTORE REVERT JUMPDEST PUSH1 0x40 MLOAD PUSH4 0xC0112F3 PUSH1 0xE2 SHL DUP2 MSTORE CALLER PUSH1 0x4 DUP3 ADD MSTORE PUSH1 0x3 PUSH1 0x24 DUP3 ADD MSTORE SWAP3 POP PUSH1 0x20 SWAP1 DUP4 SWAP1 PUSH1 0x44 SWAP1 DUP3 SWAP1 PUSH32 0x0 AND GAS STATICCALL SWAP2 DUP3 ISZERO PUSH2 0x681 JUMPI PUSH2 0x1BE SWAP3 PUSH2 0x1B9 SWAP2 PUSH1 0x0 SWAP2 PUSH2 0x652 JUMPI JUMPDEST POP SWAP3 POP PUSH2 0x1AC JUMP JUMPDEST PUSH2 0x674 SWAP2 POP PUSH1 0x20 RETURNDATASIZE PUSH1 0x20 GT PUSH2 0x67A JUMPI JUMPDEST PUSH2 0x66C DUP2 DUP4 PUSH2 0x1739 JUMP JUMPDEST DUP2 ADD SWAP1 PUSH2 0x1AE0 JUMP JUMPDEST DUP8 PUSH2 0x64A JUMP JUMPDEST POP RETURNDATASIZE PUSH2 0x662 JUMP JUMPDEST PUSH1 0x40 MLOAD RETURNDATASIZE PUSH1 0x0 DUP3 RETURNDATACOPY RETURNDATASIZE SWAP1 REVERT JUMPDEST SWAP3 POP DUP7 PUSH2 0x1A4 JUMP JUMPDEST PUSH1 0x64 PUSH1 0x40 MLOAD PUSH3 0x461BCD PUSH1 0xE5 SHL DUP2 MSTORE PUSH1 0x20 PUSH1 0x4 DUP3 ADD MSTORE PUSH1 0x20 PUSH1 0x24 DUP3 ADD MSTORE PUSH32 0x536869706D656E74206D7573742062652064656C697665726564206669727374 PUSH1 0x44 DUP3 ADD MSTORE REVERT JUMPDEST PUSH1 0x84 PUSH1 0x40 MLOAD PUSH3 0x461BCD PUSH1 0xE5 SHL DUP2 MSTORE PUSH1 0x20 PUSH1 0x4 DUP3 ADD MSTORE PUSH1 0x21 PUSH1 0x24 DUP3 ADD MSTORE PUSH32 0x4F6E6C792072656365697665722063616E207665726966792064656C69766572 PUSH1 0x44 DUP3 ADD MSTORE PUSH32 0x7900000000000000000000000000000000000000000000000000000000000000 PUSH1 0x64 DUP3 ADD MSTORE REVERT JUMPDEST CALLVALUE PUSH2 0x109 JUMPI PUSH1 0x0 CALLDATASIZE PUSH1 0x3 NOT ADD SLT PUSH2 0x109 JUMPI PUSH2 0x773 PUSH2 0x75F PUSH2 0x1953 JUMP JUMPDEST PUSH1 0x40 MLOAD SWAP2 DUP3 SWAP2 PUSH1 0x20 DUP4 MSTORE PUSH1 0x20 DUP4 ADD SWAP1 PUSH2 0x17BF JUMP JUMPDEST SUB SWAP1 RETURN JUMPDEST CALLVALUE PUSH2 0x109 JUMPI PUSH1 0x0 CALLDATASIZE PUSH1 0x3 NOT ADD SLT PUSH2 0x109 JUMPI PUSH1 0x20 PUSH1 0x7 SLOAD PUSH1 0x40 MLOAD SWAP1 DUP2 MSTORE RETURN JUMPDEST CALLVALUE PUSH2 0x109 JUMPI PUSH1 0x0 CALLDATASIZE PUSH1 0x3 NOT ADD SLT PUSH2 0x109 JUMPI PUSH1 0x20 PUSH1 0x6 SLOAD PUSH1 0x40 MLOAD SWAP1 DUP2 MSTORE RETURN JUMPDEST CALLVALUE PUSH2 0x109 JUMPI PUSH1 0x0 CALLDATASIZE PUSH1 0x3 NOT ADD SLT PUSH2 0x109 JUMPI PUSH1 0x60 PUSH1 0x80 PUSH1 0x40 MLOAD PUSH2 0x7D4 DUP2 PUSH2 0x16E5 JUMP JUMPDEST PUSH1 0x0 DUP2 MSTORE PUSH1 0x0 PUSH1 0x20 DUP3 ADD MSTORE PUSH1 0x0 PUSH1 0x40 DUP3 ADD MSTORE DUP3 DUP1 DUP3 ADD MSTORE ADD MSTORE PUSH1 0x9 SLOAD DUP1 ISZERO PUSH2 0x841 JUMPI PUSH1 0x0 NOT DUP2 ADD SWAP1 DUP2 GT PUSH2 0x82B JUMPI PUSH2 0x817 PUSH2 0x811 PUSH2 0x773 SWAP3 PUSH2 0x1A90 JUMP JUMPDEST POP PUSH2 0x1B67 JUMP JUMPDEST PUSH1 0x40 MLOAD SWAP2 DUP3 SWAP2 PUSH1 0x20 DUP4 MSTORE PUSH1 0x20 DUP4 ADD SWAP1 PUSH2 0x17FF JUMP JUMPDEST PUSH4 0x4E487B71 PUSH1 0xE0 SHL PUSH1 0x0 MSTORE PUSH1 0x11 PUSH1 0x4 MSTORE PUSH1 0x24 PUSH1 0x0 REVERT JUMPDEST PUSH1 0x64 PUSH1 0x40 MLOAD PUSH3 0x461BCD PUSH1 0xE5 SHL DUP2 MSTORE PUSH1 0x20 PUSH1 0x4 DUP3 ADD MSTORE PUSH1 0x14 PUSH1 0x24 DUP3 ADD MSTORE PUSH32 0x4E6F207570646174657320617661696C61626C65000000000000000000000000 PUSH1 0x44 DUP3 ADD MSTORE REVERT JUMPDEST CALLVALUE PUSH2 0x109 JUMPI PUSH1 0x0 CALLDATASIZE PUSH1 0x3 NOT ADD SLT PUSH2 0x109 JUMPI PUSH2 0x773 PUSH2 0x75F PUSH1 0xFF PUSH1 0x5 SLOAD AND PUSH2 0x1D2C JUMP JUMPDEST CALLVALUE PUSH2 0x109 JUMPI PUSH1 0x60 CALLDATASIZE PUSH1 0x3 NOT ADD SLT PUSH2 0x109 JUMPI PUSH1 0x7 PUSH1 0x4 CALLDATALOAD LT ISZERO PUSH2 0x109 JUMPI PUSH1 0x24 CALLDATALOAD PUSH8 0xFFFFFFFFFFFFFFFF DUP2 GT PUSH2 0x109 JUMPI PUSH2 0x8E3 SWAP1 CALLDATASIZE SWAP1 PUSH1 0x4 ADD PUSH2 0x175B JUMP JUMPDEST PUSH1 0x44 CALLDATALOAD PUSH8 0xFFFFFFFFFFFFFFFF DUP2 GT PUSH2 0x109 JUMPI PUSH2 0x903 SWAP1 CALLDATASIZE SWAP1 PUSH1 0x4 ADD PUSH2 0x175B JUMP JUMPDEST PUSH1 0x1 PUSH1 0x1 PUSH1 0xA0 SHL SUB PUSH1 0x1 SLOAD AND CALLER EQ DUP1 ISZERO PUSH2 0xDBB JUMPI JUMPDEST DUP1 ISZERO PUSH2 0xD36 JUMPI JUMPDEST PUSH2 0x928 SWAP1 PUSH2 0x1AF8 JUMP JUMPDEST PUSH1 0x5 SLOAD PUSH2 0x93A PUSH1 0x4 CALLDATALOAD PUSH1 0xFF DUP4 AND PUSH2 0x1C97 JUMP JUMPDEST ISZERO PUSH2 0x57F JUMPI PUSH1 0xFF NOT AND PUSH1 0x4 CALLDATALOAD PUSH1 0xFF AND OR PUSH1 0x5 SSTORE TIMESTAMP PUSH1 0x7 SSTORE PUSH1 0x40 MLOAD PUSH2 0x95D DUP2 PUSH2 0x16E5 JUMP JUMPDEST TIMESTAMP DUP2 MSTORE PUSH1 0x20 DUP2 ADD SWAP1 PUSH2 0x971 PUSH1 0x4 CALLDATALOAD DUP4 PUSH2 0x1B5B JUMP JUMPDEST PUSH1 0x40 DUP2 ADD SWAP2 CALLER DUP4 MSTORE PUSH1 0x60 DUP3 ADD SWAP1 DUP6 DUP3 MSTORE DUP5 PUSH1 0x80 DUP5 ADD MSTORE PUSH1 0x9 SLOAD PUSH9 0x10000000000000000 DUP2 LT ISZERO PUSH2 0x477 JUMPI DUP1 PUSH1 0x1 PUSH2 0x9AB SWAP3 ADD PUSH1 0x9 SSTORE PUSH2 0x1A90 JUMP JUMPDEST SWAP5 SWAP1 SWAP5 PUSH2 0x569 JUMPI DUP4 MLOAD DUP6 SSTORE PUSH1 0x1 DUP6 ADD SWAP2 MLOAD PUSH1 0x7 DUP2 LT ISZERO PUSH2 0x553 JUMPI PUSH2 0x9CF SWAP1 DUP4 PUSH2 0x1B43 JUMP JUMPDEST MLOAD PUSH21 0xFFFFFFFFFFFFFFFFFFFFFFFFFFFFFFFFFFFFFFFF00 NOT PUSH21 0xFFFFFFFFFFFFFFFFFFFFFFFFFFFFFFFFFFFFFFFF00 DUP4 SLOAD SWAP3 PUSH1 0x8 SHL AND SWAP2 AND OR SWAP1 SSTORE MLOAD DUP1 MLOAD SWAP1 PUSH8 0xFFFFFFFFFFFFFFFF DUP3 GT PUSH2 0x477 JUMPI PUSH2 0xA29 PUSH1 0x2 DUP6 ADD SLOAD PUSH2 0x185B JUMP JUMPDEST PUSH1 0x1F DUP2 GT PUSH2 0xCEF JUMPI JUMPDEST POP PUSH1 0x20 SWAP1 PUSH1 0x1F DUP4 GT PUSH1 0x1 EQ PUSH2 0xC7C JUMPI PUSH1 0x80 SWAP4 SWAP3 SWAP2 PUSH1 0x0 SWAP2 DUP4 PUSH2 0xC71 JUMPI JUMPDEST POP POP DUP2 PUSH1 0x1 SHL SWAP2 PUSH1 0x0 NOT SWAP1 PUSH1 0x3 SHL SHR NOT AND OR PUSH1 0x2 DUP5 ADD SSTORE JUMPDEST ADD MLOAD DUP1 MLOAD SWAP1 PUSH8 0xFFFFFFFFFFFFFFFF DUP3 GT PUSH2 0x477 JUMPI PUSH2 0xA88 PUSH1 0x3 DUP5 ADD SLOAD PUSH2 0x185B JUMP JUMPDEST PUSH1 0x1F DUP2 GT PUSH2 0xC26 JUMPI JUMPDEST POP PUSH1 0x20 SWAP1 PUSH1 0x1F DUP4 GT PUSH1 0x1 EQ PUSH2 0xBB9 JUMPI PUSH1 0x3 SWAP3 SWAP2 PUSH1 0x0 SWAP2 DUP4 PUSH2 0xBAE JUMPI JUMPDEST POP POP DUP2 PUSH1 0x1 SHL SWAP2 PUSH1 0x0 NOT SWAP1 DUP5 SHL SHR NOT AND OR SWAP2 ADD SSTORE JUMPDEST PUSH2 0xAE8 PUSH1 0x40 MLOAD SWAP2 PUSH1 0x60 DUP4 MSTORE PUSH2 0xADA PUSH1 0x60 DUP5 ADD DUP6 PUSH2 0x17BF JUMP JUMPDEST SWAP1 DUP4 DUP3 SUB PUSH1 0x20 DUP6 ADD MSTORE PUSH2 0x17BF JUMP JUMPDEST TIMESTAMP PUSH1 0x40 DUP4 ADD MSTORE PUSH32 0x86EABD3CD04A2DC287DAE84F5910A5D2096722D6599F992754CF9952DF9C489 CALLER SWAP3 DUP1 PUSH1 0x4 CALLDATALOAD SWAP4 SUB SWAP1 LOG3 PUSH1 0x3 PUSH1 0x4 CALLDATALOAD EQ PUSH2 0xB73 JUMPI JUMPDEST PUSH1 0x4 DUP1 CALLDATALOAD EQ PUSH2 0xB2F JUMPI STOP JUMPDEST PUSH2 0xB68 PUSH32 0xA11E9ADCE2B9AFD257928AD06797943EA685CF6F0F422D6ED3F90E0D60240F18 SWAP2 PUSH1 0x40 MLOAD SWAP2 DUP3 SWAP2 PUSH1 0x40 DUP4 MSTORE PUSH1 0x40 DUP4 ADD SWAP1 PUSH2 0x17BF JUMP JUMPDEST TIMESTAMP PUSH1 0x20 DUP4 ADD MSTORE SUB SWAP1 LOG1 STOP JUMPDEST PUSH1 0x1 PUSH1 0x1 PUSH1 0xA0 SHL SUB PUSH1 0x2 SLOAD AND PUSH32 0xDFBF7DEE0472DA8ADA2E4559AC18AF668585F1A3E9E44E31B1B60B361EC7E55A PUSH1 0x20 PUSH1 0x40 MLOAD TIMESTAMP DUP2 MSTORE LOG2 PUSH2 0xB24 JUMP JUMPDEST ADD MLOAD SWAP1 POP DUP7 DUP1 PUSH2 0xAAD JUMP JUMPDEST SWAP1 PUSH1 0x1F NOT DUP4 AND SWAP2 PUSH1 0x3 DUP6 ADD PUSH1 0x0 MSTORE PUSH1 0x20 PUSH1 0x0 KECCAK256 SWAP3 PUSH1 0x0 JUMPDEST DUP2 DUP2 LT PUSH2 0xC0E JUMPI POP SWAP2 PUSH1 0x1 SWAP4 SWAP2 DUP6 PUSH1 0x3 SWAP7 SWAP5 LT PUSH2 0xBF6 JUMPI JUMPDEST POP POP POP DUP2 SHL ADD SWAP2 ADD SSTORE PUSH2 0xAC2 JUMP JUMPDEST ADD MLOAD PUSH1 0x0 NOT DUP4 DUP7 SHL PUSH1 0xF8 AND SHR NOT AND SWAP1 SSTORE DUP7 DUP1 DUP1 PUSH2 0xBE8 JUMP JUMPDEST SWAP3 SWAP4 PUSH1 0x20 PUSH1 0x1 DUP2 SWAP3 DUP8 DUP7 ADD MLOAD DUP2 SSTORE ADD SWAP6 ADD SWAP4 ADD PUSH2 0xBD0 JUMP JUMPDEST PUSH1 0x3 DUP5 ADD PUSH1 0x0 MSTORE PUSH1 0x20 PUSH1 0x0 KECCAK256 PUSH1 0x1F DUP5 ADD PUSH1 0x5 SHR DUP2 ADD SWAP2 PUSH1 0x20 DUP6 LT PUSH2 0xC67 JUMPI JUMPDEST PUSH1 0x1F ADD PUSH1 0x5 SHR ADD SWAP1 JUMPDEST DUP2 DUP2 LT PUSH2 0xC5B JUMPI POP PUSH2 0xA91 JUMP JUMPDEST PUSH1 0x0 DUP2 SSTORE PUSH1 0x1 ADD PUSH2 0xC4E JUMP JUMPDEST SWAP1 SWAP2 POP DUP2 SWAP1 PUSH2 0xC45 JUMP JUMPDEST ADD MLOAD SWAP1 POP DUP8 DUP1 PUSH2 0xA4F JUMP JUMPDEST SWAP1 PUSH1 0x2 DUP6 ADD PUSH1 0x0 MSTORE PUSH1 0x20 PUSH1 0x0 KECCAK256 SWAP2 PUSH1 0x0 JUMPDEST PUSH1 0x1F NOT DUP6 AND DUP2 LT PUSH2 0xCD7 JUMPI POP SWAP2 DUP4 SWAP2 PUSH1 0x1 SWAP4 PUSH1 0x80 SWAP7 SWAP6 PUSH1 0x1F NOT DUP2 AND LT PUSH2 0xCBE JUMPI JUMPDEST POP POP POP DUP2 SHL ADD PUSH1 0x2 DUP5 ADD SSTORE PUSH2 0xA67 JUMP JUMPDEST ADD MLOAD PUSH1 0x0 NOT PUSH1 0xF8 DUP5 PUSH1 0x3 SHL AND SHR NOT AND SWAP1 SSTORE DUP8 DUP1 DUP1 PUSH2 0xCAE JUMP JUMPDEST SWAP2 SWAP3 PUSH1 0x20 PUSH1 0x1 DUP2 SWAP3 DUP7 DUP6 ADD MLOAD DUP2 SSTORE ADD SWAP5 ADD SWAP3 ADD PUSH2 0xC8D JUMP JUMPDEST PUSH1 0x2 DUP6 ADD PUSH1 0x0 MSTORE PUSH1 0x20 PUSH1 0x0 KECCAK256 PUSH1 0x1F DUP5 ADD PUSH1 0x5 SHR DUP2 ADD PUSH1 0x20 DUP6 LT PUSH2 0xD2F JUMPI JUMPDEST PUSH1 0x1F DUP4 ADD PUSH1 0x5 SHR DUP3 ADD DUP2 LT PUSH2 0xD23 JUMPI POP POP PUSH2 0xA32 JUMP JUMPDEST PUSH1 0x0 DUP2 SSTORE PUSH1 0x1 ADD PUSH2 0xD0D JUMP JUMPDEST POP DUP1 PUSH2 0xD0D JUMP JUMPDEST POP PUSH1 0x40 MLOAD PUSH4 0xC0112F3 PUSH1 0xE2 SHL DUP2 MSTORE CALLER PUSH1 0x4 DUP3 ADD MSTORE PUSH1 0x3 PUSH1 0x24 DUP3 ADD MSTORE PUSH1 0x20 DUP2 PUSH1 0x44 DUP2 PUSH32 0x0 PUSH1 0x1 PUSH1 0x1 PUSH1 0xA0 SHL SUB AND GAS STATICCALL DUP1 ISZERO PUSH2 0x681 JUMPI PUSH2 0x928 SWAP2 PUSH1 0x0 SWAP2 PUSH2 0xD9D JUMPI JUMPDEST POP SWAP1 POP PUSH2 0x91F JUMP JUMPDEST PUSH2 0xDB5 SWAP2 POP PUSH1 0x20 RETURNDATASIZE DUP2 GT PUSH2 0x67A JUMPI PUSH2 0x66C DUP2 DUP4 PUSH2 0x1739 JUMP JUMPDEST DUP5 PUSH2 0xD95 JUMP JUMPDEST POP PUSH1 0x1 PUSH1 0x1 PUSH1 0xA0 SHL SUB PUSH1 0x2 SLOAD AND CALLER EQ PUSH2 0x918 JUMP JUMPDEST CALLVALUE PUSH2 0x109 JUMPI PUSH1 0x20 CALLDATASIZE PUSH1 0x3 NOT ADD SLT PUSH2 0x109 JUMPI PUSH1 0x4 CALLDATALOAD PUSH1 0x9 SLOAD DUP2 LT ISZERO PUSH2 0x109 JUMPI PUSH2 0xDF6 SWAP1 PUSH2 0x1A90 JUMP JUMPDEST POP DUP1 SLOAD PUSH2 0x773 PUSH1 0x1 DUP4 ADD SLOAD SWAP3 PUSH2 0xE58 PUSH2 0xE1D PUSH1 0x3 PUSH2 0xE16 PUSH1 0x2 DUP6 ADD PUSH2 0x19EC JUMP JUMPDEST SWAP4 ADD PUSH2 0x19EC JUMP JUMPDEST SWAP2 PUSH1 0x1 PUSH1 0x1 PUSH1 0xA0 SHL SUB PUSH1 0x40 MLOAD SWAP7 DUP8 SWAP7 DUP8 MSTORE PUSH2 0xE3E PUSH1 0x20 DUP9 ADD PUSH1 0xFF DUP4 AND PUSH2 0x17B2 JUMP JUMPDEST PUSH1 0x8 SHR AND PUSH1 0x40 DUP7 ADD MSTORE PUSH1 0xA0 PUSH1 0x60 DUP7 ADD MSTORE PUSH1 0xA0 DUP6 ADD SWAP1 PUSH2 0x17BF JUMP JUMPDEST SWAP1 DUP4 DUP3 SUB PUSH1 0x80 DUP6 ADD MSTORE PUSH2 0x17BF JUMP JUMPDEST CALLVALUE PUSH2 0x109 JUMPI PUSH1 0x0 CALLDATASIZE PUSH1 0x3 NOT ADD SLT PUSH2 0x109 JUMPI PUSH1 0x20 PUSH1 0x1 PUSH1 0x1 PUSH1 0xA0 SHL SUB PUSH1 0x1 SLOAD AND PUSH1 0x40 MLOAD SWAP1 DUP2 MSTORE RETURN JUMPDEST CALLVALUE PUSH2 0x109 JUMPI PUSH1 0x0 CALLDATASIZE PUSH1 0x3 NOT ADD SLT PUSH2 0x109 JUMPI PUSH1 0x1 PUSH1 0x1 PUSH1 0xA0 SHL SUB DUP1 PUSH1 0x0 SLOAD AND DUP2 PUSH1 0x1 SLOAD AND SWAP2 PUSH1 0x2 SLOAD AND PUSH1 0xFF PUSH1 0x5 SLOAD AND SWAP1 PUSH1 0x6 SLOAD PUSH1 0x7 SLOAD SWAP1 PUSH2 0xF20 PUSH2 0xF15 PUSH1 0xFF PUSH1 0x8 SLOAD AND SWAP5 PUSH2 0xF07 PUSH2 0xEDB PUSH2 0x1895 JUMP JUMPDEST PUSH2 0xEE3 PUSH2 0x1953 JUMP JUMPDEST SWAP3 PUSH1 0x40 MLOAD SWAP12 DUP13 SWAP12 DUP13 MSTORE PUSH1 0x20 DUP13 ADD MSTORE PUSH1 0x40 DUP12 ADD MSTORE PUSH2 0x120 DUP1 PUSH1 0x60 DUP13 ADD MSTORE DUP11 ADD SWAP1 PUSH2 0x17BF JUMP JUMPDEST SWAP1 DUP9 DUP3 SUB PUSH1 0x80 DUP11 ADD MSTORE PUSH2 0x17BF JUMP JUMPDEST SWAP5 PUSH1 0xA0 DUP8 ADD SWAP1 PUSH2 0x17B2 JUMP JUMPDEST PUSH1 0xC0 DUP6 ADD MSTORE PUSH1 0xE0 DUP5 ADD MSTORE ISZERO ISZERO PUSH2 0x100 DUP4 ADD MSTORE SUB SWAP1 RETURN JUMPDEST CALLVALUE PUSH2 0x109 JUMPI PUSH1 0x0 CALLDATASIZE PUSH1 0x3 NOT ADD SLT PUSH2 0x109 JUMPI PUSH2 0x773 PUSH2 0x75F PUSH2 0x1895 JUMP JUMPDEST CALLVALUE PUSH2 0x109 JUMPI PUSH1 0x0 CALLDATASIZE PUSH1 0x3 NOT ADD SLT PUSH2 0x109 JUMPI PUSH1 0x20 PUSH1 0x40 MLOAD PUSH1 0x1 PUSH1 0x1 PUSH1 0xA0 SHL SUB PUSH32 0x0 AND DUP2 MSTORE RETURN JUMPDEST CALLVALUE PUSH2 0x109 JUMPI PUSH1 0x0 CALLDATASIZE PUSH1 0x3 NOT ADD SLT PUSH2 0x109 JUMPI PUSH1 0x20 PUSH1 0xFF PUSH1 0x8 SLOAD AND PUSH1 0x40 MLOAD SWAP1 ISZERO ISZERO DUP2 MSTORE RETURN JUMPDEST CALLVALUE PUSH2 0x109 JUMPI PUSH1 0x0 CALLDATASIZE PUSH1 0x3 NOT ADD SLT PUSH2 0x109 JUMPI PUSH1 0x20 PUSH1 0xFF PUSH1 0x5 SLOAD AND PUSH2 0xFDF PUSH1 0x40 MLOAD DUP1 SWAP3 PUSH2 0x17B2 JUMP JUMPDEST RETURN JUMPDEST CALLVALUE PUSH2 0x109 JUMPI PUSH1 0x0 CALLDATASIZE PUSH1 0x3 NOT ADD SLT PUSH2 0x109 JUMPI PUSH1 0x9 SLOAD PUSH8 0xFFFFFFFFFFFFFFFF DUP2 GT PUSH2 0x477 JUMPI PUSH1 0x40 MLOAD SWAP1 PUSH1 0x20 SWAP1 PUSH2 0x101A DUP3 DUP3 PUSH1 0x5 SHL ADD DUP5 PUSH2 0x1739 JUMP JUMPDEST DUP1 DUP4 MSTORE DUP2 DUP4 ADD SWAP1 DUP2 PUSH1 0x9 PUSH1 0x0 MSTORE PUSH32 0x6E1540171B6C0C960B71A7020D9F60077F6AF931A8BBF590DA0223DACF75C7AF PUSH1 0x0 SWAP2 JUMPDEST DUP4 DUP4 LT PUSH2 0x10B3 JUMPI POP POP POP POP PUSH1 0x40 MLOAD SWAP2 DUP1 DUP4 ADD SWAP4 DUP2 DUP5 MSTORE MLOAD DUP1 SWAP5 MSTORE PUSH1 0x40 DUP4 ADD SWAP4 PUSH1 0x40 DUP2 PUSH1 0x5 SHL DUP6 ADD ADD SWAP3 SWAP2 PUSH1 0x0 SWAP6 JUMPDEST DUP3 DUP8 LT PUSH2 0x1087 JUMPI DUP6 DUP6 SUB DUP7 RETURN JUMPDEST SWAP1 SWAP2 SWAP3 SWAP4 DUP3 DUP1 PUSH2 0x10A3 PUSH1 0x1 SWAP4 PUSH1 0x3F NOT DUP11 DUP3 SUB ADD DUP7 MSTORE DUP9 MLOAD PUSH2 0x17FF JUMP JUMPDEST SWAP7 ADD SWAP3 ADD SWAP7 ADD SWAP6 SWAP3 SWAP2 SWAP1 SWAP3 PUSH2 0x107A JUMP JUMPDEST PUSH1 0x4 DUP7 PUSH1 0x1 SWAP3 PUSH2 0x10C5 DUP6 SWAP11 SWAP10 SWAP11 PUSH2 0x1B67 JUMP JUMPDEST DUP2 MSTORE ADD SWAP3 ADD SWAP3 ADD SWAP2 SWAP1 SWAP6 SWAP5 SWAP6 PUSH2 0x104C JUMP JUMPDEST CALLVALUE PUSH2 0x109 JUMPI PUSH1 0x0 CALLDATASIZE PUSH1 0x3 NOT ADD SLT PUSH2 0x109 JUMPI PUSH1 0x20 PUSH1 0x1 PUSH1 0x1 PUSH1 0xA0 SHL SUB PUSH1 0x0 SLOAD AND PUSH1 0x40 MLOAD SWAP1 DUP2 MSTORE RETURN JUMPDEST CALLVALUE PUSH2 0x109 JUMPI PUSH1 0x20 CALLDATASIZE PUSH1 0x3 NOT ADD SLT PUSH2 0x109 JUMPI PUSH1 0x4 CALLDATALOAD PUSH8 0xFFFFFFFFFFFFFFFF DUP2 GT PUSH2 0x109 JUMPI PUSH2 0x112E SWAP1 CALLDATASIZE SWAP1 PUSH1 0x4 ADD PUSH2 0x175B JUMP JUMPDEST PUSH1 0x1 PUSH1 0x1 PUSH1 0xA0 SHL SUB SWAP1 DUP2 PUSH1 0x1 SLOAD AND CALLER EQ SWAP2 DUP3 DUP1 ISZERO SWAP1 DUP2 PUSH2 0x16D8 JUMPI JUMPDEST DUP1 ISZERO PUSH2 0x1659 JUMPI JUMPDEST PUSH2 0x1159 SWAP1 PUSH2 0x1AF8 JUMP JUMPDEST PUSH1 0x5 SLOAD SWAP2 PUSH1 0xFF DUP4 AND SWAP1 PUSH1 0x7 DUP3 LT ISZERO PUSH2 0x553 JUMPI PUSH1 0x1 DUP3 EQ DUP1 ISZERO PUSH2 0x164F JUMPI JUMPDEST ISZERO PUSH2 0x15E5 JUMPI PUSH1 0x40 MLOAD SWAP6 PUSH2 0x1188 DUP8 PUSH2 0x1701 JUMP JUMPDEST PUSH1 0x0 DUP8 MSTORE SWAP3 PUSH2 0x15D6 JUMPI JUMPDEST DUP3 ISZERO PUSH2 0x154E JUMPI JUMPDEST POP PUSH2 0x11A6 PUSH2 0x11AB SWAP3 PUSH2 0x1AF8 JUMP JUMPDEST PUSH2 0x1BC3 JUMP JUMPDEST ISZERO PUSH2 0x57F JUMPI PUSH1 0xFF NOT AND PUSH1 0x4 OR PUSH1 0x5 SSTORE TIMESTAMP PUSH1 0x7 SSTORE PUSH1 0x40 MLOAD SWAP2 PUSH2 0x11CB DUP4 PUSH2 0x16E5 JUMP JUMPDEST TIMESTAMP DUP4 MSTORE PUSH1 0x20 DUP4 ADD PUSH1 0x4 DUP2 MSTORE PUSH1 0x40 DUP5 ADD SWAP1 CALLER DUP3 MSTORE PUSH1 0x60 DUP6 ADD SWAP1 DUP5 DUP3 MSTORE DUP4 PUSH1 0x80 DUP8 ADD MSTORE PUSH1 0x9 SLOAD PUSH9 0x10000000000000000 DUP2 LT ISZERO PUSH2 0x477 JUMPI DUP1 PUSH1 0x1 PUSH2 0x1210 SWAP3 ADD PUSH1 0x9 SSTORE PUSH2 0x1A90 JUMP JUMPDEST SWAP4 SWAP1 SWAP4 PUSH2 0x569 JUMPI DUP7 MLOAD DUP5 SSTORE PUSH1 0x1 DUP5 ADD SWAP2 MLOAD PUSH1 0x7 DUP2 LT ISZERO PUSH2 0x553 JUMPI PUSH2 0x1234 SWAP1 DUP4 PUSH2 0x1B43 JUMP JUMPDEST MLOAD PUSH21 0xFFFFFFFFFFFFFFFFFFFFFFFFFFFFFFFFFFFFFFFF00 NOT PUSH21 0xFFFFFFFFFFFFFFFFFFFFFFFFFFFFFFFFFFFFFFFF00 DUP4 SLOAD SWAP3 PUSH1 0x8 SHL AND SWAP2 AND OR SWAP1 SSTORE MLOAD DUP1 MLOAD SWAP1 PUSH8 0xFFFFFFFFFFFFFFFF DUP3 GT PUSH2 0x477 JUMPI PUSH2 0x128E PUSH1 0x2 DUP5 ADD SLOAD PUSH2 0x185B JUMP JUMPDEST PUSH1 0x1F DUP2 GT PUSH2 0x1507 JUMPI JUMPDEST POP PUSH1 0x20 SWAP1 PUSH1 0x1F DUP4 GT PUSH1 0x1 EQ PUSH2 0x1495 JUMPI SWAP2 DUP1 PUSH1 0x80 SWAP5 SWAP3 PUSH1 0x3 SWAP5 PUSH1 0x0 SWAP3 PUSH2 0x148A JUMPI JUMPDEST POP POP DUP2 PUSH1 0x1 SHL SWAP2 PUSH1 0x0 NOT SWAP1 DUP6 SHL SHR NOT AND OR PUSH1 0x2 DUP3 ADD SSTORE JUMPDEST ADD SWAP4 ADD MLOAD SWAP3 DUP4 MLOAD PUSH8 0xFFFFFFFFFFFFFFFF DUP2 GT PUSH2 0x477 JUMPI PUSH2 0x12EE DUP3 SLOAD PUSH2 0x185B JUMP JUMPDEST PUSH1 0x1F DUP2 GT PUSH2 0x1442 JUMPI JUMPDEST POP PUSH1 0x20 PUSH1 0x1F DUP3 GT PUSH1 0x1 EQ PUSH2 0x13B4 JUMPI SWAP1 DUP1 PUSH2 0xB68 SWAP6 SWAP5 SWAP4 SWAP3 PUSH32 0xA11E9ADCE2B9AFD257928AD06797943EA685CF6F0F422D6ED3F90E0D60240F18 SWAP8 PUSH1 0x0 SWAP3 PUSH2 0x13A9 JUMPI JUMPDEST POP POP DUP2 PUSH1 0x1 SHL SWAP2 PUSH1 0x0 NOT SWAP1 PUSH1 0x3 SHL SHR NOT AND OR SWAP1 SSTORE JUMPDEST PUSH1 0x4 PUSH32 0x86EABD3CD04A2DC287DAE84F5910A5D2096722D6599F992754CF9952DF9C489 PUSH2 0x1388 PUSH1 0x40 MLOAD SWAP4 PUSH1 0x60 DUP6 MSTORE PUSH2 0x377 PUSH1 0x60 DUP7 ADD DUP8 PUSH2 0x17BF JUMP JUMPDEST SWAP3 TIMESTAMP PUSH1 0x40 DUP3 ADD MSTORE DUP1 CALLER SWAP5 SUB SWAP1 LOG3 PUSH1 0x40 MLOAD SWAP2 DUP3 SWAP2 PUSH1 0x40 DUP4 MSTORE PUSH1 0x40 DUP4 ADD SWAP1 PUSH2 0x17BF JUMP JUMPDEST ADD MLOAD SWAP1 POP DUP8 DUP1 PUSH2 0x1338 JUMP JUMPDEST PUSH1 0x1F NOT DUP3 AND SWAP6 DUP4 PUSH1 0x0 MSTORE PUSH1 0x20 PUSH1 0x0 KECCAK256 SWAP7 PUSH1 0x0 JUMPDEST DUP2 DUP2 LT PUSH2 0x142A JUMPI POP SWAP7 PUSH1 0x1 SWAP3 DUP5 SWAP3 PUSH2 0xB68 SWAP9 SWAP8 SWAP7 SWAP6 PUSH32 0xA11E9ADCE2B9AFD257928AD06797943EA685CF6F0F422D6ED3F90E0D60240F18 SWAP11 LT PUSH2 0x1411 JUMPI JUMPDEST POP POP POP DUP2 SHL ADD SWAP1 SSTORE PUSH2 0x134D JUMP JUMPDEST ADD MLOAD PUSH1 0x0 NOT PUSH1 0xF8 DUP5 PUSH1 0x3 SHL AND SHR NOT AND SWAP1 SSTORE DUP8 DUP1 DUP1 PUSH2 0x1404 JUMP JUMPDEST DUP4 DUP4 ADD MLOAD DUP10 SSTORE PUSH1 0x1 SWAP1 SWAP9 ADD SWAP8 PUSH1 0x20 SWAP4 DUP5 ADD SWAP4 ADD PUSH2 0x13C7 JUMP JUMPDEST DUP3 PUSH1 0x0 MSTORE PUSH1 0x20 PUSH1 0x0 KECCAK256 PUSH1 0x1F DUP4 ADD PUSH1 0x5 SHR DUP2 ADD SWAP2 PUSH1 0x20 DUP5 LT PUSH2 0x1480 JUMPI JUMPDEST PUSH1 0x1F ADD PUSH1 0x5 SHR ADD SWAP1 JUMPDEST DUP2 DUP2 LT PUSH2 0x1474 JUMPI POP PUSH2 0x12F7 JUMP JUMPDEST PUSH1 0x0 DUP2 SSTORE PUSH1 0x1 ADD PUSH2 0x1467 JUMP JUMPDEST SWAP1 SWAP2 POP DUP2 SWAP1 PUSH2 0x145E JUMP JUMPDEST ADD MLOAD SWAP1 POP DUP9 DUP1 PUSH2 0x12B7 JUMP JUMPDEST SWAP1 PUSH1 0x1F NOT DUP4 AND SWAP2 PUSH1 0x2 DUP6 ADD PUSH1 0x0 MSTORE PUSH1 0x20 PUSH1 0x0 KECCAK256 SWAP3 PUSH1 0x0 JUMPDEST DUP2 DUP2 LT PUSH2 0x14EF JUMPI POP SWAP3 PUSH1 0x1 SWAP3 DUP6 SWAP3 PUSH1 0x3 SWAP7 PUSH1 0x80 SWAP9 SWAP7 LT PUSH2 0x14D7 JUMPI JUMPDEST POP POP POP DUP2 SHL ADD PUSH1 0x2 DUP3 ADD SSTORE PUSH2 0x12CE JUMP JUMPDEST ADD MLOAD PUSH1 0x0 NOT DUP4 DUP8 SHL PUSH1 0xF8 AND SHR NOT AND SWAP1 SSTORE DUP9 DUP1 DUP1 PUSH2 0x14C7 JUMP JUMPDEST SWAP3 SWAP4 PUSH1 0x20 PUSH1 0x1 DUP2 SWAP3 DUP8 DUP7 ADD MLOAD DUP2 SSTORE ADD SWAP6 ADD SWAP4 ADD PUSH2 0x14AC JUMP JUMPDEST PUSH1 0x2 DUP5 ADD PUSH1 0x0 MSTORE PUSH1 0x20 PUSH1 0x0 KECCAK256 PUSH1 0x1F DUP5 ADD PUSH1 0x5 SHR DUP2 ADD PUSH1 0x20 DUP6 LT PUSH2 0x1547 JUMPI JUMPDEST PUSH1 0x1F DUP4 ADD PUSH1 0x5 SHR DUP3 ADD DUP2 LT PUSH2 0x153B JUMPI POP POP PUSH2 0x1297 JUMP JUMPDEST PUSH1 0x0 DUP2 SSTORE PUSH1 0x1 ADD PUSH2 0x1525 JUMP JUMPDEST POP DUP1 PUSH2 0x1525 JUMP JUMPDEST PUSH1 0x40 MLOAD PUSH4 0xC0112F3 PUSH1 0xE2 SHL DUP2 MSTORE CALLER PUSH1 0x4 DUP3 ADD MSTORE PUSH1 0x3 PUSH1 0x24 DUP3 ADD MSTORE SWAP3 POP PUSH1 0x20 SWAP1 DUP4 SWAP1 PUSH1 0x44 SWAP1 DUP3 SWAP1 PUSH32 0x0 AND GAS STATICCALL SWAP2 DUP3 ISZERO PUSH2 0x681 JUMPI PUSH2 0x11AB SWAP3 PUSH2 0x11A6 SWAP2 PUSH1 0x0 SWAP2 PUSH2 0x15B7 JUMPI JUMPDEST POP SWAP3 POP PUSH2 0x1199 JUMP JUMPDEST PUSH2 0x15D0 SWAP2 POP PUSH1 0x20 RETURNDATASIZE PUSH1 0x20 GT PUSH2 0x67A JUMPI PUSH2 0x66C DUP2 DUP4 PUSH2 0x1739 JUMP JUMPDEST DUP8 PUSH2 0x15AF JUMP JUMPDEST DUP1 SWAP3 POP PUSH1 0x2 SLOAD AND CALLER EQ SWAP2 PUSH2 0x1192 JUMP JUMPDEST PUSH1 0x84 PUSH1 0x40 MLOAD PUSH3 0x461BCD PUSH1 0xE5 SHL DUP2 MSTORE PUSH1 0x20 PUSH1 0x4 DUP3 ADD MSTORE PUSH1 0x28 PUSH1 0x24 DUP3 ADD MSTORE PUSH32 0x43616E6E6F742063616E63656C20736869706D656E7420696E2063757272656E PUSH1 0x44 DUP3 ADD MSTORE PUSH32 0x7420737461747573000000000000000000000000000000000000000000000000 PUSH1 0x64 DUP3 ADD MSTORE REVERT JUMPDEST POP PUSH1 0x2 DUP3 EQ PUSH2 0x1176 JUMP JUMPDEST POP PUSH1 0x40 MLOAD PUSH4 0xC0112F3 PUSH1 0xE2 SHL DUP2 MSTORE CALLER PUSH1 0x4 DUP3 ADD MSTORE PUSH1 0x3 PUSH1 0x24 DUP3 ADD MSTORE PUSH1 0x20 DUP2 PUSH1 0x44 DUP2 PUSH32 0x0 DUP8 AND GAS STATICCALL DUP1 ISZERO PUSH2 0x681 JUMPI PUSH2 0x1159 SWAP2 PUSH1 0x0 SWAP2 PUSH2 0x16B9 JUMPI JUMPDEST POP SWAP1 POP PUSH2 0x1150 JUMP JUMPDEST PUSH2 0x16D2 SWAP2 POP PUSH1 0x20 RETURNDATASIZE PUSH1 0x20 GT PUSH2 0x67A JUMPI PUSH2 0x66C DUP2 DUP4 PUSH2 0x1739 JUMP JUMPDEST DUP7 PUSH2 0x16B1 JUMP JUMPDEST POP DUP2 PUSH1 0x2 SLOAD AND CALLER EQ PUSH2 0x1149 JUMP JUMPDEST PUSH1 0xA0 DUP2 ADD SWAP1 DUP2 LT PUSH8 0xFFFFFFFFFFFFFFFF DUP3 GT OR PUSH2 0x477 JUMPI PUSH1 0x40 MSTORE JUMP JUMPDEST PUSH1 0x20 DUP2 ADD SWAP1 DUP2 LT PUSH8 0xFFFFFFFFFFFFFFFF DUP3 GT OR PUSH2 0x477 JUMPI PUSH1 0x40 MSTORE JUMP JUMPDEST PUSH1 0x40 DUP2 ADD SWAP1 DUP2 LT PUSH8 0xFFFFFFFFFFFFFFFF DUP3 GT OR PUSH2 0x477 JUMPI PUSH1 0x40 MSTORE JUMP JUMPDEST SWAP1 PUSH1 0x1F DUP1 NOT SWAP2 ADD AND DUP2 ADD SWAP1 DUP2 LT PUSH8 0xFFFFFFFFFFFFFFFF DUP3 GT OR PUSH2 0x477 JUMPI PUSH1 0x40 MSTORE JUMP JUMPDEST DUP2 PUSH1 0x1F DUP3 ADD SLT ISZERO PUSH2 0x109 JUMPI DUP1 CALLDATALOAD SWAP1 PUSH8 0xFFFFFFFFFFFFFFFF DUP3 GT PUSH2 0x477 JUMPI PUSH1 0x40 MLOAD SWAP3 PUSH2 0x1790 PUSH1 0x1F DUP5 ADD PUSH1 0x1F NOT AND PUSH1 0x20 ADD DUP6 PUSH2 0x1739 JUMP JUMPDEST DUP3 DUP5 MSTORE PUSH1 0x20 DUP4 DUP4 ADD ADD GT PUSH2 0x109 JUMPI DUP2 PUSH1 0x0 SWAP3 PUSH1 0x20 DUP1 SWAP4 ADD DUP4 DUP7 ADD CALLDATACOPY DUP4 ADD ADD MSTORE SWAP1 JUMP JUMPDEST SWAP1 PUSH1 0x7 DUP3 LT ISZERO PUSH2 0x553 JUMPI MSTORE JUMP JUMPDEST SWAP2 SWAP1 DUP3 MLOAD SWAP3 DUP4 DUP3 MSTORE PUSH1 0x0 JUMPDEST DUP5 DUP2 LT PUSH2 0x17EB JUMPI POP POP DUP3 PUSH1 0x0 PUSH1 0x20 DUP1 SWAP5 SWAP6 DUP5 ADD ADD MSTORE PUSH1 0x1F DUP1 NOT SWAP2 ADD AND ADD ADD SWAP1 JUMP JUMPDEST PUSH1 0x20 DUP2 DUP4 ADD DUP2 ADD MLOAD DUP5 DUP4 ADD DUP3 ADD MSTORE ADD PUSH2 0x17CA JUMP JUMPDEST PUSH2 0x1858 SWAP2 DUP2 MLOAD DUP2 MSTORE PUSH2 0x1819 PUSH1 0x20 DUP4 ADD MLOAD PUSH1 0x20 DUP4 ADD SWAP1 PUSH2 0x17B2 JUMP JUMPDEST PUSH1 0x1 PUSH1 0x1 PUSH1 0xA0 SHL SUB PUSH1 0x40 DUP4 ADD MLOAD AND PUSH1 0x40 DUP3 ADD MSTORE PUSH1 0x80 PUSH2 0x1847 PUSH1 0x60 DUP5 ADD MLOAD PUSH1 0xA0 PUSH1 0x60 DUP6 ADD MSTORE PUSH1 0xA0 DUP5 ADD SWAP1 PUSH2 0x17BF JUMP JUMPDEST SWAP3 ADD MLOAD SWAP1 PUSH1 0x80 DUP2 DUP5 SUB SWAP2 ADD MSTORE PUSH2 0x17BF JUMP JUMPDEST SWAP1 JUMP JUMPDEST SWAP1 PUSH1 0x1 DUP3 DUP2 SHR SWAP3 AND DUP1 ISZERO PUSH2 0x188B JUMPI JUMPDEST PUSH1 0x20 DUP4 LT EQ PUSH2 0x1875 JUMPI JUMP JUMPDEST PUSH4 0x4E487B71 PUSH1 0xE0 SHL PUSH1 0x0 MSTORE PUSH1 0x22 PUSH1 0x4 MSTORE PUSH1 0x24 PUSH1 0x0 REVERT JUMPDEST SWAP2 PUSH1 0x7F AND SWAP2 PUSH2 0x186A JUMP JUMPDEST PUSH1 0x40 MLOAD SWAP1 PUSH1 0x0 DUP3 PUSH1 0x3 SLOAD SWAP2 PUSH2 0x18A9 DUP4 PUSH2 0x185B JUMP JUMPDEST DUP1 DUP4 MSTORE SWAP3 PUSH1 0x1 SWAP1 DUP2 DUP2 AND SWAP1 DUP2 ISZERO PUSH2 0x1931 JUMPI POP PUSH1 0x1 EQ PUSH2 0x18D2 JUMPI JUMPDEST POP PUSH2 0x18D0 SWAP3 POP SUB DUP4 PUSH2 0x1739 JUMP JUMPDEST JUMP JUMPDEST PUSH1 0x3 PUSH1 0x0 SWAP1 DUP2 MSTORE SWAP2 POP PUSH32 0xC2575A0E9E593C00F959F8C92F12DB2869C3395A3B0502D05E2516446F71F85B JUMPDEST DUP5 DUP4 LT PUSH2 0x1916 JUMPI POP PUSH2 0x18D0 SWAP4 POP POP DUP2 ADD PUSH1 0x20 ADD CODESIZE PUSH2 0x18C3 JUMP JUMPDEST DUP2 SWAP4 POP SWAP1 DUP2 PUSH1 0x20 SWAP3 SLOAD DUP4 DUP6 DUP11 ADD ADD MSTORE ADD SWAP2 ADD SWAP1 SWAP2 DUP6 SWAP3 PUSH2 0x18FD JUMP JUMPDEST SWAP1 POP PUSH1 0x20 SWAP3 POP PUSH2 0x18D0 SWAP5 SWAP2 POP PUSH1 0xFF NOT AND DUP3 DUP5 ADD MSTORE ISZERO ISZERO PUSH1 0x5 SHL DUP3 ADD ADD CODESIZE PUSH2 0x18C3 JUMP JUMPDEST PUSH1 0x40 MLOAD SWAP1 PUSH1 0x0 DUP3 PUSH1 0x4 SLOAD SWAP2 PUSH2 0x1967 DUP4 PUSH2 0x185B JUMP JUMPDEST DUP1 DUP4 MSTORE SWAP3 PUSH1 0x1 SWAP1 DUP2 DUP2 AND SWAP1 DUP2 ISZERO PUSH2 0x1931 JUMPI POP PUSH1 0x1 EQ PUSH2 0x198D JUMPI POP PUSH2 0x18D0 SWAP3 POP SUB DUP4 PUSH2 0x1739 JUMP JUMPDEST PUSH1 0x4 PUSH1 0x0 SWAP1 DUP2 MSTORE SWAP2 POP PUSH32 0x8A35ACFBC15FF81A39AE7D344FD709F28E8600B4AA8C65C6B64BFE7FE36BD19B JUMPDEST DUP5 DUP4 LT PUSH2 0x19D1 JUMPI POP PUSH2 0x18D0 SWAP4 POP POP DUP2 ADD PUSH1 0x20 ADD CODESIZE PUSH2 0x18C3 JUMP JUMPDEST DUP2 SWAP4 POP SWAP1 DUP2 PUSH1 0x20 SWAP3 SLOAD DUP4 DUP6 DUP11 ADD ADD MSTORE ADD SWAP2 ADD SWAP1 SWAP2 DUP6 SWAP3 PUSH2 0x19B8 JUMP JUMPDEST SWAP1 PUSH1 0x40 MLOAD SWAP2 DUP3 PUSH1 0x0 DUP3 SLOAD SWAP3 PUSH2 0x1A00 DUP5 PUSH2 0x185B JUMP JUMPDEST SWAP1 DUP2 DUP5 MSTORE PUSH1 0x1 SWAP5 DUP6 DUP2 AND SWAP1 DUP2 PUSH1 0x0 EQ PUSH2 0x1A6D JUMPI POP PUSH1 0x1 EQ PUSH2 0x1A2A JUMPI JUMPDEST POP POP PUSH2 0x18D0 SWAP3 POP SUB DUP4 PUSH2 0x1739 JUMP JUMPDEST SWAP1 SWAP4 SWAP2 POP PUSH1 0x0 MSTORE PUSH1 0x20 SWAP1 DUP2 PUSH1 0x0 KECCAK256 SWAP4 PUSH1 0x0 SWAP2 JUMPDEST DUP2 DUP4 LT PUSH2 0x1A55 JUMPI POP POP PUSH2 0x18D0 SWAP4 POP DUP3 ADD ADD CODESIZE DUP1 PUSH2 0x1A1C JUMP JUMPDEST DUP6 SLOAD DUP9 DUP5 ADD DUP6 ADD MSTORE SWAP5 DUP6 ADD SWAP5 DUP8 SWAP5 POP SWAP2 DUP4 ADD SWAP2 PUSH2 0x1A3D JUMP JUMPDEST SWAP2 POP POP PUSH2 0x18D0 SWAP5 POP PUSH1 0x20 SWAP3 POP PUSH1 0xFF NOT AND DUP3 DUP5 ADD MSTORE ISZERO ISZERO PUSH1 0x5 SHL DUP3 ADD ADD CODESIZE DUP1 PUSH2 0x1A1C JUMP JUMPDEST PUSH1 0x9 SLOAD DUP2 LT ISZERO PUSH2 0x1ACA JUMPI PUSH1 0x9 PUSH1 0x0 MSTORE PUSH1 0x2 SHL PUSH32 0x6E1540171B6C0C960B71A7020D9F60077F6AF931A8BBF590DA0223DACF75C7AF ADD SWAP1 PUSH1 0x0 SWAP1 JUMP JUMPDEST PUSH4 0x4E487B71 PUSH1 0xE0 SHL PUSH1 0x0 MSTORE PUSH1 0x32 PUSH1 0x4 MSTORE PUSH1 0x24 PUSH1 0x0 REVERT JUMPDEST SWAP1 DUP2 PUSH1 0x20 SWAP2 SUB SLT PUSH2 0x109 JUMPI MLOAD DUP1 ISZERO ISZERO DUP2 SUB PUSH2 0x109 JUMPI SWAP1 JUMP JUMPDEST ISZERO PUSH2 0x1AFF JUMPI JUMP JUMPDEST PUSH1 0x64 PUSH1 0x40 MLOAD PUSH3 0x461BCD PUSH1 0xE5 SHL DUP2 MSTORE PUSH1 0x20 PUSH1 0x4 DUP3 ADD MSTORE PUSH1 0x20 PUSH1 0x24 DUP3 ADD MSTORE PUSH32 0x4E6F7420617574686F72697A656420666F72207468697320736869706D656E74 PUSH1 0x44 DUP3 ADD MSTORE REVERT JUMPDEST SWAP1 PUSH1 0x7 DUP2 LT ISZERO PUSH2 0x553 JUMPI PUSH1 0xFF DUP1 NOT DUP4 SLOAD AND SWAP2 AND OR SWAP1 SSTORE JUMP JUMPDEST PUSH1 0x7 DUP3 LT ISZERO PUSH2 0x553 JUMPI MSTORE JUMP JUMPDEST SWAP1 PUSH1 0x40 MLOAD PUSH2 0x1B74 DUP2 PUSH2 0x16E5 JUMP JUMPDEST PUSH1 0x80 PUSH2 0x1BBE PUSH1 0x3 DUP4 SWAP6 DUP1 SLOAD DUP6 MSTORE PUSH1 0x1 PUSH1 0x1 PUSH1 0xA0 SHL SUB PUSH1 0x1 DUP3 ADD SLOAD PUSH2 0x1B9E PUSH1 0xFF DUP3 AND PUSH1 0x20 DUP10 ADD PUSH2 0x1B5B JUMP JUMPDEST PUSH1 0x8 SHR AND PUSH1 0x40 DUP7 ADD MSTORE PUSH2 0x1BB3 PUSH1 0x2 DUP3 ADD PUSH2 0x19EC JUMP JUMPDEST PUSH1 0x60 DUP7 ADD MSTORE ADD PUSH2 0x19EC JUMP JUMPDEST SWAP2 ADD MSTORE JUMP JUMPDEST PUSH1 0x0 SWAP1 PUSH1 0x7 DUP2 LT ISZERO PUSH2 0x1C2D JUMPI DUP2 SWAP1 DUP1 PUSH2 0x1BF5 JUMPI POP PUSH2 0x1BE1 JUMPI POP PUSH1 0x1 SWAP1 JUMP JUMPDEST DUP1 PUSH4 0x4E487B71 PUSH1 0xE0 SHL PUSH1 0x24 SWAP3 MSTORE PUSH1 0x21 PUSH1 0x4 MSTORE REVERT JUMPDEST PUSH1 0x1 DUP2 SUB PUSH2 0x1C08 JUMPI POP PUSH2 0x1BE1 JUMPI POP PUSH1 0x1 SWAP1 JUMP JUMPDEST PUSH1 0x2 DUP2 SUB PUSH2 0x1C1B JUMPI POP PUSH2 0x1BE1 JUMPI POP PUSH1 0x0 SWAP1 JUMP JUMPDEST PUSH1 0x3 SWAP2 POP EQ PUSH2 0x1C27 JUMPI SWAP1 JUMP JUMPDEST POP PUSH1 0x0 SWAP1 JUMP JUMPDEST PUSH1 0x24 DUP3 PUSH4 0x4E487B71 PUSH1 0xE0 SHL DUP2 MSTORE PUSH1 0x21 PUSH1 0x4 MSTORE REVERT JUMPDEST PUSH1 0x0 SWAP1 PUSH1 0x7 DUP2 LT ISZERO PUSH2 0x1C2D JUMPI DUP2 SWAP1 DUP1 PUSH2 0x1C5F JUMPI POP PUSH2 0x1BE1 JUMPI POP PUSH1 0x0 SWAP1 JUMP JUMPDEST PUSH1 0x1 DUP2 SUB PUSH2 0x1C72 JUMPI POP PUSH2 0x1BE1 JUMPI POP PUSH1 0x0 SWAP1 JUMP JUMPDEST PUSH1 0x2 DUP2 SUB PUSH2 0x1C85 JUMPI POP PUSH2 0x1BE1 JUMPI POP PUSH1 0x0 SWAP1 JUMP JUMPDEST PUSH1 0x3 SWAP2 POP EQ PUSH2 0x1C91 JUMPI SWAP1 JUMP JUMPDEST POP PUSH1 0x1 SWAP1 JUMP JUMPDEST PUSH1 0x7 DUP2 LT ISZERO PUSH2 0x553 JUMPI DUP1 PUSH2 0x1CC6 JUMPI POP PUSH1 0x7 DUP2 LT ISZERO PUSH2 0x553 JUMPI PUSH1 0x1 DUP2 EQ SWAP1 DUP2 ISZERO PUSH2 0x1CBE JUMPI POP SWAP1 JUMP JUMPDEST PUSH1 0x4 SWAP2 POP EQ SWAP1 JUMP JUMPDEST PUSH1 0x1 DUP2 SUB PUSH2 0x1CE7 JUMPI POP PUSH1 0x7 DUP2 LT ISZERO PUSH2 0x553 JUMPI PUSH1 0x2 DUP2 EQ SWAP1 DUP2 ISZERO PUSH2 0x1CBE JUMPI POP SWAP1 JUMP JUMPDEST PUSH1 0x2 DUP2 SUB PUSH2 0x1D10 JUMPI POP PUSH1 0x7 DUP2 LT ISZERO PUSH2 0x553 JUMPI PUSH1 0x3 DUP2 EQ SWAP1 DUP2 ISZERO PUSH2 0x1D08 JUMPI POP SWAP1 JUMP JUMPDEST PUSH1 0x5 SWAP2 POP EQ SWAP1 JUMP JUMPDEST PUSH1 0x3 EQ PUSH2 0x1D1D JUMPI POP PUSH1 0x0 SWAP1 JUMP JUMPDEST PUSH1 0x7 DUP2 LT ISZERO PUSH2 0x553 JUMPI PUSH1 0x6 EQ SWAP1 JUMP JUMPDEST PUSH1 0x7 DUP2 LT ISZERO PUSH2 0x553 JUMPI DUP1 ISZERO PUSH2 0x1EFE JUMPI PUSH1 0x1 DUP2 EQ PUSH2 0x1EC4 JUMPI PUSH1 0x2 DUP2 EQ PUSH2 0x1E8A JUMPI PUSH1 0x3 DUP2 EQ PUSH2 0x1E50 JUMPI PUSH1 0x4 DUP2 EQ PUSH2 0x1E16 JUMPI PUSH1 0x5 DUP2 EQ PUSH2 0x1DDC JUMPI PUSH1 0x6 EQ PUSH2 0x1DA3 JUMPI PUSH1 0x40 MLOAD PUSH2 0x1D76 DUP2 PUSH2 0x171D JUMP JUMPDEST PUSH1 0xE DUP2 MSTORE PUSH32 0x556E6B6E6F776E20737461747573000000000000000000000000000000000000 PUSH1 0x20 DUP3 ADD MSTORE SWAP1 JUMP JUMPDEST PUSH1 0x40 MLOAD PUSH2 0x1DAF DUP2 PUSH2 0x171D JUMP JUMPDEST PUSH1 0x12 DUP2 MSTORE PUSH32 0x44656C697665727920636F6E6669726D65640000000000000000000000000000 PUSH1 0x20 DUP3 ADD MSTORE SWAP1 JUMP JUMPDEST POP PUSH1 0x40 MLOAD PUSH2 0x1DE9 DUP2 PUSH2 0x171D JUMP JUMPDEST PUSH1 0xF DUP2 MSTORE PUSH32 0x44656C6976657279206661696C65640000000000000000000000000000000000 PUSH1 0x20 DUP3 ADD MSTORE SWAP1 JUMP JUMPDEST POP PUSH1 0x40 MLOAD PUSH2 0x1E23 DUP2 PUSH2 0x171D JUMP JUMPDEST PUSH1 0x12 DUP2 MSTORE PUSH32 0x536869706D656E742063616E63656C6C65640000000000000000000000000000 PUSH1 0x20 DUP3 ADD MSTORE SWAP1 JUMP JUMPDEST POP PUSH1 0x40 MLOAD PUSH2 0x1E5D DUP2 PUSH2 0x171D JUMP JUMPDEST PUSH1 0x9 DUP2 MSTORE PUSH32 0x44656C6976657265640000000000000000000000000000000000000000000000 PUSH1 0x20 DUP3 ADD MSTORE SWAP1 JUMP JUMPDEST POP PUSH1 0x40 MLOAD PUSH2 0x1E97 DUP2 PUSH2 0x171D JUMP JUMPDEST PUSH1 0xA DUP2 MSTORE PUSH32 0x496E207472616E73697400000000000000000000000000000000000000000000 PUSH1 0x20 DUP3 ADD MSTORE SWAP1 JUMP JUMPDEST POP PUSH1 0x40 MLOAD PUSH2 0x1ED1 DUP2 PUSH2 0x171D JUMP JUMPDEST PUSH1 0x16 DUP2 MSTORE PUSH32 0x507265706172696E6720666F7220736869706D656E7400000000000000000000 PUSH1 0x20 DUP3 ADD MSTORE SWAP1 JUMP JUMPDEST POP PUSH1 0x40 MLOAD PUSH2 0x1F0B DUP2 PUSH2 0x171D JUMP JUMPDEST PUSH1 0xF DUP2 MSTORE PUSH32 0x4E6F742079657420736869707065640000000000000000000000000000000000 PUSH1 0x20 DUP3 ADD MSTORE SWAP1 JUMP INVALID LOG2 PUSH5 0x6970667358 0x22 SLT KECCAK256 INVALID DUP7 0x24 JUMPI SWAP4 0xD8 SAR 0x2B 0x2B 0x2B BASEFEE 0xBE 0x1E 0x1F 0x1F 0xEB PUSH3 0x6EF227 0x21 0xBD 0xF DUP6 0xC7 SWAP10 0x5E 0xC7 CODESIZE LOG1 0xE5 DUP8 PUSH5 0x736F6C6343 STOP ADDMOD SGT STOP CALLER LOG2 PUSH5 0x6970667358 0x22 SLT KECCAK256 GAS CODESIZE TIMESTAMP LOG3 0xCF GT 0xD6 DUP3 0xD0 0xC8 SWAP6 PUSH13 0xA9E0E3899526C3AEB58E00B90F CALLDATALOAD 0x49 0xEE INVALID OR SWAP15 SWAP16 PUSH5 0x736F6C6343 STOP ADDMOD SGT STOP CALLER "},"gasEstimates":{"creation":{"codeDepositCost":"2515000","executionCost":"infinite","totalCost":"infinite"},"external":{"createShipment(address,address,string,string)":"infinite","registry()":"2306","stakeholderRegistry()":"2280"}},"methodIdentifiers":{"createShipment(address,address,string,string)":"ba1713b2","registry()":"7b103999","stakeholderRegistry()":"23feda0a"}},"storageLayout":{"storage":[{"astId":4640,"contract":"src/SmartContracts/ShipmentFactory.sol:ShipmentFactory","label":"registry","offset":0,"slot":"0","type":"t_contract(Registry)3980"},{"astId":4643,"contract":"src/SmartContracts/ShipmentFactory.sol:ShipmentFactory","label":"stakeholderRegistry","offset":0,"slot":"1","type":"t_contract(StakeholderRegistry)5946"}],"types":{"t_contract(Registry)3980":{"encoding":"inplace","label":"contract Registry","numberOfBytes":"20"},"t_contract(StakeholderRegistry)5946":{"encoding":"inplace","label":"contract StakeholderRegistry","numberOfBytes":"20"}}},"userdoc":{"kind":"user","methods":{},"version":1}}}}