{
  "_format": "hh-sol-artifact-1",
  "contractName": "StakeholderRegistry",
  "sourceName": "src/SmartContracts/StakeholderRegistry.sol",
  "abi": [
    {
      "inputs": [
        {
          "internalType": "address",
          "name": "_stakeholderManager",
          "type": "address"
        }
      ],
      "stateMutability": "nonpayable",
      "type": "constructor"
    },
    {
      "anonymous": false,
      "inputs": [
        {
          "indexed": true,
          "internalType": "address",
          "name": "stakeholderAddress",
          "type": "address"
        },
        {
          "indexed": true,
          "internalType": "address",
          "name": "requester",
          "type": "address"
        },
        {
          "indexed": false,
          "internalType": "uint256",
          "name": "timestamp",
          "type": "uint256"
        }
      ],
      "name": "StakeholderLookupPerformed",
      "type": "event"
    },
    {
      "inputs": [],
      "name": "admin",
      "outputs": [
        {
          "internalType": "address",
          "name": "",
          "type": "address"
        }
      ],
      "stateMutability": "view",
      "type": "function"
    },
    {
      "inputs": [
        {
          "internalType": "string",
          "name": "_partialName",
          "type": "string"
        }
      ],
      "name": "findStakeholdersByBusinessName",
      "outputs": [
        {
          "internalType": "address[]",
          "name": "",
          "type": "address[]"
        }
      ],
      "stateMutability": "view",
      "type": "function"
    },
    {
      "inputs": [],
      "name": "getAllViewableStakeholders",
      "outputs": [
        {
          "internalType": "address[]",
          "name": "",
          "type": "address[]"
        }
      ],
      "stateMutability": "view",
      "type": "function"
    },
    {
      "inputs": [
        {
          "internalType": "address",
          "name": "_stakeholderAddress",
          "type": "address"
        }
      ],
      "name": "getStakeholderInfo",
      "outputs": [
        {
          "internalType": "address",
          "name": "",
          "type": "address"
        },
        {
          "internalType": "enum StakeholderManager.StakeholderRole",
          "name": "",
          "type": "uint8"
        },
        {
          "internalType": "string",
          "name": "",
          "type": "string"
        },
        {
          "internalType": "string",
          "name": "",
          "type": "string"
        },
        {
          "internalType": "string",
          "name": "",
          "type": "string"
        },
        {
          "internalType": "string",
          "name": "",
          "type": "string"
        },
        {
          "internalType": "bool",
          "name": "",
          "type": "bool"
        },
        {
          "internalType": "uint256",
          "name": "",
          "type": "uint256"
        },
        {
          "internalType": "uint256",
          "name": "",
          "type": "uint256"
        }
      ],
      "stateMutability": "view",
      "type": "function"
    },
    {
      "inputs": [
        {
          "internalType": "enum StakeholderManager.StakeholderRole",
          "name": "_role",
          "type": "uint8"
        }
      ],
      "name": "getStakeholdersByRole",
      "outputs": [
        {
          "internalType": "address[]",
          "name": "",
          "type": "address[]"
        }
      ],
      "stateMutability": "view",
      "type": "function"
    },
    {
      "inputs": [
        {
          "internalType": "address",
          "name": "_stakeholderAddress",
          "type": "address"
        }
      ],
      "name": "isActiveStakeholder",
      "outputs": [
        {
          "internalType": "bool",
          "name": "",
          "type": "bool"
        }
      ],
      "stateMutability": "view",
      "type": "function"
    },
    {
      "inputs": [
        {
          "internalType": "address",
          "name": "_stakeholderAddress",
          "type": "address"
        },
        {
          "internalType": "enum StakeholderManager.StakeholderRole",
          "name": "_role",
          "type": "uint8"
        }
      ],
      "name": "isRegisteredStakeholder",
      "outputs": [
        {
          "internalType": "bool",
          "name": "",
          "type": "bool"
        }
      ],
      "stateMutability": "view",
      "type": "function"
    },
    {
      "inputs": [],
      "name": "stakeholderManager",
      "outputs": [
        {
          "internalType": "contract StakeholderManager",
          "name": "",
          "type": "address"
        }
      ],
      "stateMutability": "view",
      "type": "function"
    }
  ],
  "bytecode": "0x60803461007c57601f610ae238819003918201601f19168301916001600160401b038311848410176100815780849260209460405283398101031261007c57516001600160a01b0381169081900361007c5760018060a01b03199081600054161760005533906001541617600155604051610a4a90816100988239f35b600080fd5b634e487b7160e01b600052604160045260246000fdfe608060408181526004908136101561001657600080fd5b600092833560e01c90816330044bcc1461039e5750806352cdbe31146102c457806353d4714e1461024457806360415a371461021e57806375c81b7b146101ef578063b4550b9c14610144578063f851a440146101185763ff5763011461007c57600080fd5b34610114578260031936011261011457826001600160a01b038154168251938480927fff5763010000000000000000000000000000000000000000000000000000000082525afa91821561010a57836100e194936100e5575b50505191829182610506565b0390f35b6101029293503d8091833e6100fa81836104c8565b810190610990565b9038806100d5565b81513d85823e3d90fd5b8280fd5b8382346101405781600319360112610140576020906001600160a01b03600154169051908152f35b5080fd5b5082346101ec5760203660031901126101ec575061016061047b565b61016990610804565b9590949196988094939451996001600160a01b038b9a168a5260208a0161018f9161054a565b61012080918a015288016101a291610590565b87810360608901526101b391610590565b86810360808801526101c491610590565b85810360a08701526101d591610590565b92151560c085015260e08401526101008301520390f35b80fd5b8382346101405760203660031901126101405760209061021561021061047b565b610715565b90519015158152f35b8382346101405781600319360112610140576001600160a01b0360209254169051908152f35b50346101145760203660031901126101145782823560058110156101405760246102a5946001600160a01b03845416855196879485937f53d4714e00000000000000000000000000000000000000000000000000000000855284019061054a565b5afa91821561010a57836100e194936100e55750505191829182610506565b5034610114576020366003190112610114578282359267ffffffffffffffff84116101405736602385011215610140578381013590610302826104ea565b9161030f855193846104c8565b808352366024828801011161039a57602081859260246103799901838701378401015260206001600160a01b03845416918551968794859384937fd15142170000000000000000000000000000000000000000000000000000000085528401526024830190610590565b03915afa91821561010a57836100e194936100e55750505191829182610506565b8380fd5b848385346101145781600319360112610114576103b961047b565b90602435906005821015610477578560209361041282946044946001600160a01b03808b5416947f95a8c58d0000000000000000000000000000000000000000000000000000000087521690850152602484019061054a565b5afa91821561046c57809261042e575b60208383519015158152f35b9091506020833d8211610464575b81610449602093836104c8565b810103126101ec575061045d6020926105b5565b9083610422565b3d915061043c565b9051903d90823e3d90fd5b8480fd5b600435906001600160a01b038216820361049157565b600080fd5b6020810190811067ffffffffffffffff8211176104b257604052565b634e487b7160e01b600052604160045260246000fd5b90601f8019910116810190811067ffffffffffffffff8211176104b257604052565b67ffffffffffffffff81116104b257601f01601f191660200190565b6020908160408183019282815285518094520193019160005b82811061052d575050505090565b83516001600160a01b03168552938101939281019260010161051f565b9060058210156105575752565b634e487b7160e01b600052602160045260246000fd5b60005b8381106105805750506000910152565b8181015183820152602001610570565b906020916105a98151809281855285808601910161056d565b601f01601f1916010190565b5190811515820361049157565b51906001600160a01b038216820361049157565b81601f820112156104915780516105ec816104ea565b926105fa60405194856104c8565b8184526020828401011161049157610618916020808501910161056d565b90565b60208183031261049157805167ffffffffffffffff9182821161049157019061012092838382031261049157604051938401848110838211176104b257604052610664836105c2565b845260208301516005811015610491576020850152604083015182811161049157816106919185016105d6565b6040850152606083015182811161049157816106ae9185016105d6565b6060850152608083015182811161049157816106cb9185016105d6565b608085015260a0830151918211610491576106e79183016105d6565b60a08301526106f860c082016105b5565b60c083015260e081015160e0830152610100809101519082015290565b6001600160a01b0360009181835416916040519163c3c5a54760e01b83521690816004820152602081602481865afa9081156107f9579084929183916107bc575b50156107b657602460405180948193632d1542e760e21b835260048301525afa829181610792575b50610787575090565b60c091500151151590565b6107af9192503d8085833e6107a781836104c8565b81019061061b565b903861077e565b50505090565b919250506020813d82116107f1575b816107d8602093836104c8565b8101031261039a57906107eb84926105b5565b38610756565b3d91506107cb565b6040513d86823e3d90fd5b6001600160a01b0360009080825416906040938185519163c3c5a54760e01b83521690816004820152602081602481875afa90811561098657908592918391610949575b5015610937576024865180958193632d1542e760e21b835260048301525afa83928161091b575b506108bb57505080928192805161088581610496565b83815292815161089481610496565b8181529282516108a381610496565b82815292516108b181610496565b8281529180918190565b81949294511692602082015194600586101561090757508101519260608201519260808301519260a08101519260c082015115159261010060e084015193015191989796959493929190565b80634e487b7160e01b602492526021600452fd5b6109309193503d8086833e6107a781836104c8565b913861086f565b50915050928192805161088581610496565b919250506020813d821161097e575b81610965602093836104c8565b81010312610477579061097885926105b5565b38610848565b3d9150610958565b86513d87823e3d90fd5b90602090818382031261049157825167ffffffffffffffff93848211610491570181601f820112156104915780519384116104b2578360051b90604051946109da858401876104c8565b85528380860192820101928311610491578301905b8282106109fd575050505090565b838091610a09846105c2565b8152019101906109ef56fea2646970667358221220ac9789ad225d9a0620f0f30e6175bbff2da3a43c5e1bd9410c1b55ad55a59ac964736f6c63430008130033",
  "linkReferences": {},
  "deployedLinkReferences": {}
}