{
  "_format": "hh-sol-artifact-1",
  "contractName": "StakeholderRegistry",
  "sourceName": "src/SmartContracts/StakeholderRegistry.sol",
  "abi": [
    {
      "inputs": [
        {
          "internalType": "address",
          "name": "_registry",
          "type": "address"
        }
      ],
      "stateMutability": "nonpayable",
      "type": "constructor"
    },
    {
      "anonymous": false,
      "inputs": [
        {
          "indexed": true,
          "internalType": "address",
          "name": "stakeholderContract",
          "type": "address"
        },
        {
          "indexed": true,
          "internalType": "address",
          "name": "requester",
          "type": "address"
        },
        {
          "indexed": false,
          "internalType": "uint256",
          "name": "timestamp",
          "type": "uint256"
        }
      ],
      "name": "StakeholderLookupPerformed",
      "type": "event"
    },
    {
      "inputs": [],
      "name": "admin",
      "outputs": [
        {
          "internalType": "address",
          "name": "",
          "type": "address"
        }
      ],
      "stateMutability": "view",
      "type": "function"
    },
    {
      "inputs": [
        {
          "internalType": "string",
          "name": "_partialName",
          "type": "string"
        }
      ],
      "name": "findStakeholdersByBusinessName",
      "outputs": [
        {
          "internalType": "address[]",
          "name": "",
          "type": "address[]"
        }
      ],
      "stateMutability": "view",
      "type": "function"
    },
    {
      "inputs": [
        {
          "internalType": "string",
          "name": "_businessLicense",
          "type": "string"
        }
      ],
      "name": "getStakeholderByLicense",
      "outputs": [
        {
          "internalType": "address",
          "name": "",
          "type": "address"
        }
      ],
      "stateMutability": "view",
      "type": "function"
    },
    {
      "inputs": [
        {
          "internalType": "address",
          "name": "_stakeholderAddress",
          "type": "address"
        }
      ],
      "name": "getStakeholderContract",
      "outputs": [
        {
          "internalType": "address",
          "name": "",
          "type": "address"
        }
      ],
      "stateMutability": "view",
      "type": "function"
    },
    {
      "inputs": [
        {
          "internalType": "address",
          "name": "_stakeholderAddress",
          "type": "address"
        }
      ],
      "name": "getStakeholderInfo",
      "outputs": [
        {
          "internalType": "address",
          "name": "",
          "type": "address"
        },
        {
          "internalType": "enum Stakeholder.StakeholderRole",
          "name": "",
          "type": "uint8"
        },
        {
          "internalType": "string",
          "name": "",
          "type": "string"
        },
        {
          "internalType": "string",
          "name": "",
          "type": "string"
        },
        {
          "internalType": "string",
          "name": "",
          "type": "string"
        },
        {
          "internalType": "string",
          "name": "",
          "type": "string"
        },
        {
          "internalType": "bool",
          "name": "",
          "type": "bool"
        },
        {
          "internalType": "uint256",
          "name": "",
          "type": "uint256"
        },
        {
          "internalType": "uint256",
          "name": "",
          "type": "uint256"
        }
      ],
      "stateMutability": "view",
      "type": "function"
    },
    {
      "inputs": [
        {
          "internalType": "enum Stakeholder.StakeholderRole",
          "name": "_role",
          "type": "uint8"
        }
      ],
      "name": "getStakeholdersByRole",
      "outputs": [
        {
          "internalType": "address[]",
          "name": "",
          "type": "address[]"
        }
      ],
      "stateMutability": "view",
      "type": "function"
    },
    {
      "inputs": [
        {
          "internalType": "address",
          "name": "_stakeholderAddress",
          "type": "address"
        }
      ],
      "name": "isActiveStakeholder",
      "outputs": [
        {
          "internalType": "bool",
          "name": "",
          "type": "bool"
        }
      ],
      "stateMutability": "view",
      "type": "function"
    },
    {
      "inputs": [
        {
          "internalType": "address",
          "name": "_stakeholderAddress",
          "type": "address"
        },
        {
          "internalType": "enum Stakeholder.StakeholderRole",
          "name": "_role",
          "type": "uint8"
        }
      ],
      "name": "isRegisteredStakeholder",
      "outputs": [
        {
          "internalType": "bool",
          "name": "",
          "type": "bool"
        }
      ],
      "stateMutability": "view",
      "type": "function"
    },
    {
      "inputs": [],
      "name": "registry",
      "outputs": [
        {
          "internalType": "contract Registry",
          "name": "",
          "type": "address"
        }
      ],
      "stateMutability": "view",
      "type": "function"
    }
  ],
  "bytecode": "0x60803461007c57601f61115038819003918201601f19168301916001600160401b038311848410176100815780849260209460405283398101031261007c57516001600160a01b0381169081900361007c5760018060a01b031990816000541617600055339060015416176001556040516110b890816100988239f35b600080fd5b634e487b7160e01b600052604160045260246000fdfe6040608081526004908136101561001557600080fd5b600091823560e01c90816330044bcc1461075e5781633b51d3e0146106b957816352cdbe311461040957816353d4714e146101d85750806375c81b7b146101aa5780637b10399914610185578063b4550b9c146100da578063f56196e2146100b05763f851a4401461008657600080fd5b346100ac57816003193601126100ac576020906001600160a01b03600154169051908152f35b5080fd5b50346100ac576020906001600160a01b036100d26100cd3661081c565b610eb0565b915191168152f35b50903461018257602036600319011261018257506100f6610791565b6100ff90610b75565b9590949196988094939451996001600160a01b038b9a168a5260208a01610125916108c9565b61012080918a015288016101389161090f565b87810360608901526101499161090f565b868103608088015261015a9161090f565b85810360a087015261016b9161090f565b92151560c085015260e08401526101008301520390f35b80fd5b50346100ac57816003193601126100ac576001600160a01b0360209254169051908152f35b50346100ac5760203660031901126100ac576020906101cf6101ca610791565b610a76565b90519015158152f35b8383346100ac57602090816003193601126104055783359284841015610182576001600160a01b03908061023f60248483541697865198899384927f53d4714e0000000000000000000000000000000000000000000000000000000084528c8401906108c9565b5afa9485156103f95781956103d5575b5061025a8551610e2f565b938193825b875181101561038757888386610275848c610e86565b51168451928380926355627b1d60e01b82525afa85918161034c575b506102a557506102a090610e61565b61025f565b8984876102b2858d610e86565b51168551928380926308bcf8b560e21b82525afa869181610311575b506102de5750506102a090610e61565b6102ed575b506102a090610e61565b8661030a91876103016102a0959a8c610e86565b91169052610e61565b95906102e3565b9091508581813d8311610345575b61032981836107de565b810103126103415761033a90610948565b908c6102ce565b8680fd5b503d61031f565b9091508481813d8311610380575b61036481836107de565b8101031261037c5761037590610934565b908b610291565b8580fd5b503d61035a565b509550509261039583610e2f565b935b8381106103af578551806103ab8782610885565b0390f35b80836103be6103d09385610e86565b51166103ca8288610e86565b52610e61565b610397565b6103f29195503d8087833e6103ea81836107de565b810190610dad565b938661024f565b508251903d90823e3d90fd5b8280fd5b8383346100ac578261041a3661081c565b926001600160a01b0381818154168551948580927f2f920d600000000000000000000000000000000000000000000000000000000082525afa9283156106af578293610693575b5061046c8351610e2f565b938293835b815181101561065b57888086866104888587610e86565b51168651928380927f5951a7f60000000000000000000000000000000000000000000000000000000082525afa879181610610575b506104d25750506104cd90610e61565b610471565b856104dd8486610e86565b51168a86519283926308bcf8b560e21b8452838660209687935afa8a93816105cc575b506105135750505050506104cd90610e61565b826105bb575b505061052b575b50506104cd90610e61565b80866105378587610e86565b51168651938480926355627b1d60e01b82525afa9182918893610583575b505061056557506104cd90610e61565b8661057991866103016104cd959a8c610e86565b959050888a610520565b9080929350813d83116105b4575b61059b81836107de565b81010312610341576105ac90610934565b908b80610555565b503d610591565b6105c59250610fbd565b8a8d610519565b925093945091508381813d8311610609575b6105e881836107de565b81010312610605578c9392916105fe8d92610948565b928f610500565b8880fd5b503d6105de565b915091503d8088833e61062381836107de565b8101906020818303126106575780519067ffffffffffffffff82116106055791610650918d949301610b30565b908c6104bd565b8780fd5b505092908461066983610e2f565b935b83811061067f578551806103ab8782610885565b80836103be61068e9385610e86565b61066b565b6106a89193503d8084833e6103ea81836107de565b9186610461565b84513d84823e3d90fd5b8383346100ac57602092836003193601126104055790602491846106db610791565b6001600160a01b03948591828854168651958694859363d27b59ff60e01b855216908301525afa938415610753578094610719575b50505191168152f35b909193508482813d831161074c575b61073281836107de565b81010312610182575061074490610934565b918480610710565b503d610728565b8251903d90823e3d90fd5b828434610182578160031936011261018257610778610791565b906024359384101561018257506020926101cf91610955565b600435906001600160a01b03821682036107a757565b600080fd5b6020810190811067ffffffffffffffff8211176107c857604052565b634e487b7160e01b600052604160045260246000fd5b90601f8019910116810190811067ffffffffffffffff8211176107c857604052565b67ffffffffffffffff81116107c857601f01601f191660200190565b60206003198201126107a75760043567ffffffffffffffff81116107a757816023820112156107a75780600401359061085482610800565b9261086260405194856107de565b828452602483830101116107a75781600092602460209301838601378301015290565b6020908160408183019282815285518094520193019160005b8281106108ac575050505090565b83516001600160a01b03168552938101939281019260010161089e565b9060048210156108d65752565b634e487b7160e01b600052602160045260246000fd5b60005b8381106108ff5750506000910152565b81810151838201526020016108ef565b90602091610928815180928185528580860191016108ec565b601f01601f1916010190565b51906001600160a01b03821682036107a757565b519081151582036107a757565b906001600160a01b03806000938185541660405193849263d27b59ff60e01b845216600483015281602460209586935afa908115610a6b578591610a32575b5016918215610a2c576109d96024839260405195869384927f19e0755c00000000000000000000000000000000000000000000000000000000845260048401906108c9565b5afa91829184936109f4575b50506109ef575090565b905090565b9080929350813d8311610a25575b610a0c81836107de565b8101031261040557610a1d90610948565b9038806109e5565b503d610a02565b50505090565b90508281813d8311610a64575b610a4981836107de565b81010312610a6057610a5a90610934565b38610994565b8480fd5b503d610a3f565b6040513d87823e3d90fd5b6001600160a01b03806000928184541660405193849263d27b59ff60e01b845216600483015281602460209586935afa908115610b25578491610aec575b5016908115610ae75780600492604051938480926308bcf8b560e21b82525afa91829184936109f45750506109ef575090565b505090565b90508281813d8311610b1e575b610b0381836107de565b81010312610b1a57610b1490610934565b38610ab4565b8380fd5b503d610af9565b6040513d86823e3d90fd5b81601f820112156107a7578051610b4681610800565b92610b5460405194856107de565b818452602082840101116107a757610b7291602080850191016108ec565b90565b6001600160a01b036000908082541660208260246040968751948593849263d27b59ff60e01b84521660048301525afa908115610d8b578391610d52575b5016818115610d42576004918451928380927fa4995e5f0000000000000000000000000000000000000000000000000000000082525afa82839284928592869287928892818a938b93610c68575b50610c5457505050505050505050809281928051610c1e816107ac565b838152928151610c2d816107ac565b818152928251610c3c816107ac565b8281529251610c4a816107ac565b8281529180918190565b9a9799509597509395929491939092909190565b98509850505050505050503d8084833e610c8281836107de565b81019061012081830312610b1a57610c9981610934565b926020820151600481101561037c57868301519267ffffffffffffffff938481116106575785610cca918301610b30565b9560608201518581116106055786610ce3918401610b30565b956080830151868111610d3e5781610cfc918501610b30565b9560a0840151908111610d3e5790610d15918401610b30565b93610d2260c08401610948565b9361010060e08501519401519290989796959493929138610c01565b8980fd5b90509281928051610c1e816107ac565b90506020813d8211610d83575b81610d6c602093836107de565b8101031261040557610d7d90610934565b38610bb3565b3d9150610d5f565b84513d85823e3d90fd5b67ffffffffffffffff81116107c85760051b60200190565b60209081818403126107a75780519067ffffffffffffffff82116107a757019180601f840112156107a7578251610de381610d95565b93610df160405195866107de565b818552838086019260051b8201019283116107a7578301905b828210610e18575050505090565b838091610e2484610934565b815201910190610e0a565b90610e3982610d95565b610e4660405191826107de565b8281528092610e57601f1991610d95565b0190602036910137565b6000198114610e705760010190565b634e487b7160e01b600052601160045260246000fd5b8051821015610e9a5760209160051b010190565b634e487b7160e01b600052603260045260246000fd5b610f026001600160a01b03600092818454169060405180927ff56196e200000000000000000000000000000000000000000000000000000000825281806020978895866004840152602483019061090f565b03915afa908115610b25578491610f77575b5016908115610ae75780600492604051938480926355627b1d60e01b82525afa9182918493610f475750506109ef575090565b9080929350813d8311610f70575b610f5f81836107de565b8101031261040557610a1d90610934565b503d610f55565b90508281813d8311610fa5575b610f8e81836107de565b81010312610b1a57610f9f90610934565b38610f14565b503d610f84565b908151811015610e9a570160200190565b90805182511061107b576000905b825181518103908111610e705782116110735760019260005b825181101561106957808401808511610e7057611025907fff0000000000000000000000000000000000000000000000000000000000000091829185610fac565b5116906110328386610fac565b5116036110475761104290610e61565b610fe4565b5092509060005b6110615761105b90610e61565b90610fcb565b505050600190565b509291909161104e565b505050600090565b505060009056fea2646970667358221220cc726fad66455c45187b9b52dcf260f730acd92325e25084562d8b2f2c94b56e64736f6c63430008130033",
  "linkReferences": {},
  "deployedLinkReferences": {}
}