{
  "_format": "hh-sol-artifact-1",
  "contractName": "StakeholderRegistry",
  "sourceName": "src/SmartContracts/StakeholderRegistry.sol",
  "abi": [
    {
      "inputs": [
        {
          "internalType": "address",
          "name": "_stakeholderManager",
          "type": "address"
        }
      ],
      "stateMutability": "nonpayable",
      "type": "constructor"
    },
    {
      "anonymous": false,
      "inputs": [
        {
          "indexed": true,
          "internalType": "address",
          "name": "stakeholderAddress",
          "type": "address"
        },
        {
          "indexed": true,
          "internalType": "address",
          "name": "requester",
          "type": "address"
        },
        {
          "indexed": false,
          "internalType": "uint256",
          "name": "timestamp",
          "type": "uint256"
        }
      ],
      "name": "StakeholderLookupPerformed",
      "type": "event"
    },
    {
      "inputs": [],
      "name": "admin",
      "outputs": [
        {
          "internalType": "address",
          "name": "",
          "type": "address"
        }
      ],
      "stateMutability": "view",
      "type": "function"
    },
    {
      "inputs": [
        {
          "internalType": "string",
          "name": "_partialName",
          "type": "string"
        }
      ],
      "name": "findStakeholdersByBusinessName",
      "outputs": [
        {
          "internalType": "address[]",
          "name": "",
          "type": "address[]"
        }
      ],
      "stateMutability": "view",
      "type": "function"
    },
    {
      "inputs": [],
      "name": "getAllViewableStakeholders",
      "outputs": [
        {
          "internalType": "address[]",
          "name": "",
          "type": "address[]"
        }
      ],
      "stateMutability": "view",
      "type": "function"
    },
    {
      "inputs": [
        {
          "internalType": "string",
          "name": "_license",
          "type": "string"
        }
      ],
      "name": "getStakeholderByLicense",
      "outputs": [
        {
          "internalType": "address",
          "name": "",
          "type": "address"
        }
      ],
      "stateMutability": "view",
      "type": "function"
    },
    {
      "inputs": [
        {
          "internalType": "address",
          "name": "_stakeholderAddress",
          "type": "address"
        }
      ],
      "name": "getStakeholderInfo",
      "outputs": [
        {
          "internalType": "address",
          "name": "",
          "type": "address"
        },
        {
          "internalType": "enum StakeholderManager.StakeholderRole",
          "name": "",
          "type": "uint8"
        },
        {
          "internalType": "string",
          "name": "",
          "type": "string"
        },
        {
          "internalType": "string",
          "name": "",
          "type": "string"
        },
        {
          "internalType": "string",
          "name": "",
          "type": "string"
        },
        {
          "internalType": "string",
          "name": "",
          "type": "string"
        },
        {
          "internalType": "bool",
          "name": "",
          "type": "bool"
        },
        {
          "internalType": "uint256",
          "name": "",
          "type": "uint256"
        },
        {
          "internalType": "uint256",
          "name": "",
          "type": "uint256"
        }
      ],
      "stateMutability": "view",
      "type": "function"
    },
    {
      "inputs": [
        {
          "internalType": "enum StakeholderManager.StakeholderRole",
          "name": "_role",
          "type": "uint8"
        }
      ],
      "name": "getStakeholdersByRole",
      "outputs": [
        {
          "internalType": "address[]",
          "name": "",
          "type": "address[]"
        }
      ],
      "stateMutability": "view",
      "type": "function"
    },
    {
      "inputs": [
        {
          "internalType": "address",
          "name": "_stakeholderAddress",
          "type": "address"
        }
      ],
      "name": "isActiveStakeholder",
      "outputs": [
        {
          "internalType": "bool",
          "name": "",
          "type": "bool"
        }
      ],
      "stateMutability": "view",
      "type": "function"
    },
    {
      "inputs": [
        {
          "internalType": "address",
          "name": "_stakeholderAddress",
          "type": "address"
        },
        {
          "internalType": "enum StakeholderManager.StakeholderRole",
          "name": "_role",
          "type": "uint8"
        }
      ],
      "name": "isRegisteredStakeholder",
      "outputs": [
        {
          "internalType": "bool",
          "name": "",
          "type": "bool"
        }
      ],
      "stateMutability": "view",
      "type": "function"
    },
    {
      "inputs": [],
      "name": "stakeholderManager",
      "outputs": [
        {
          "internalType": "contract StakeholderManager",
          "name": "",
          "type": "address"
        }
      ],
      "stateMutability": "view",
      "type": "function"
    }
  ],
  "bytecode": "0x60803461007c57601f61103538819003918201601f19168301916001600160401b038311848410176100815780849260209460405283398101031261007c57516001600160a01b0381169081900361007c5760018060a01b03199081600054161760005533906001541617600155604051610f9d90816100988239f35b600080fd5b634e487b7160e01b600052604160045260246000fdfe608080604052600436101561001357600080fd5b60003560e01c90816330044bcc1461084b5750806352cdbe311461060c57806353d4714e1461036f57806360415a371461034857806375c81b7b1461031b578063b4550b9c14610275578063f56196e2146101c3578063f851a4401461019c5763ff5763011461008257600080fd5b3461018b57600036600319011261018b57600460006001600160a01b03815416604051928380927fff5763010000000000000000000000000000000000000000000000000000000082525afa8015610190576000906100f0575b6100ec9060405191829182610a01565b0390f35b503d806000833e610101818361095a565b8101602091828183031261018b5780519067ffffffffffffffff821161018b57019080601f8301121561018b57815161013981610df8565b92610147604051948561095a565b818452848085019260051b82010192831161018b578401905b828210610174575050506100ec91506100dc565b84809161018084610aa7565b815201910190610160565b600080fd5b6040513d6000823e3d90fd5b3461018b57600036600319011261018b5760206001600160a01b0360015416604051908152f35b3461018b576102216101d436610998565b6001600160a01b0380600054169160405180937f2f3f14e5000000000000000000000000000000000000000000000000000000008252818060209788958660048401526024830190610a75565b03915afa9182156101905760009261023e575b5060405191168152f35b9091508281813d831161026e575b610256818361095a565b8101031261018b5761026790610aa7565b9083610234565b503d61024c565b3461018b57602036600319011261018b5761028e610912565b61029790610c9f565b9490939195604098979851986001600160a01b038a99168952602089016102bd91610a45565b6101208060408a015288016102d191610a75565b87810360608901526102e291610a75565b86810360808801526102f391610a75565b85810360a087015261030491610a75565b92151560c085015260e08401526101008301520390f35b3461018b57602036600319011261018b57602061033e610339610912565b610bae565b6040519015158152f35b3461018b57600036600319011261018b5760206001600160a01b0360005416604051908152f35b3461018b57602036600319011261018b576005600435101561018b576001600160a01b03600054166040516327a4d3c560e11b8152602081600481855afa908115610190576000916105da575b506103c681610e10565b9160009160005b818110610426575050506103e081610e10565b9160005b8281106103f957604051806100ec8682610a01565b806001600160a01b0361040f6104219385610e67565b511661041b8287610e67565b52610e42565b6103e4565b604051637e15e55f60e11b8152816004820152602081602481875afa908115610190576000916105a0575b5060405163c3c5a54760e01b81526001600160a01b0382166004820152602081602481885afa90811561019057600091610566575b5061049b575b5061049690610e42565b6103cd565b60405163c07cfca960e01b81526001600160a01b0382166004820152600081602481885afa90811561019057600090600092610539575b50600560043510156105235760058110156105235760043514908161051b575b501561048c5761049691946001600160a01b03610514921661041b8289610e67565b939061048c565b9050876104f2565b634e487b7160e01b600052602160045260246000fd5b905061055891503d806000833e610550818361095a565b810190610b00565b5050955050505050886104d2565b90506020813d602011610598575b816105816020938361095a565b8101031261018b5761059290610a9a565b87610486565b3d9150610574565b90506020813d6020116105d2575b816105bb6020938361095a565b8101031261018b576105cc90610aa7565b86610451565b3d91506105ae565b90506020813d602011610604575b816105f56020938361095a565b8101031261018b5751826103bc565b3d91506105e8565b3461018b5761061a36610998565b6001600160a01b038060005416906040516327a4d3c560e11b815260208082600481875afa9182156101905760009261081c575b5061065882610e10565b9460009460005b8481106106ab5787878761067282610e10565b9260005b83811061068b57604051806100ec8782610a01565b808361069a6106a69385610e67565b511661041b8288610e67565b610676565b604051637e15e55f60e11b8152816004820152602485828281875afa918215610190576000926107e5575b50876040519263c3c5a54760e01b8452169182600482015286818381885afa908115610190576000916107b0575b5061071a575b505061071590610e42565b61065f565b6000604051809263c07cfca960e01b825284600483015281875afa908115610190578590600090600093610788575b5082610777575b505061075d575b8061070a565b876107709161041b610715949a8c610e67565b9690610757565b6107819250610ea2565b848b610750565b90506107a09192503d806000833e610550818361095a565b505096955050505090508c610749565b90508681813d83116107de575b6107c7818361095a565b8101031261018b576107d890610a9a565b8b610704565b503d6107bd565b9091508581813d8311610815575b6107fd818361095a565b8101031261018b5761080e90610aa7565b908a6106d6565b503d6107f3565b9080925081813d8311610844575b610834818361095a565b8101031261018b5751908561064e565b503d61082a565b3461018b57604036600319011261018b57610864610912565b602435600581101561018b576044836020936108bc82946001600160a01b038060005416937f95a8c58d0000000000000000000000000000000000000000000000000000000086521660048501526024840190610a45565b5afa8015610190576000906108d9575b6020906040519015158152f35b506020813d821161090a575b816108f26020938361095a565b8101031261018b57610905602091610a9a565b6108cc565b3d91506108e5565b600435906001600160a01b038216820361018b57565b6020810190811067ffffffffffffffff82111761094457604052565b634e487b7160e01b600052604160045260246000fd5b90601f8019910116810190811067ffffffffffffffff82111761094457604052565b67ffffffffffffffff811161094457601f01601f191660200190565b602060031982011261018b5760043567ffffffffffffffff811161018b578160238201121561018b578060040135906109d08261097c565b926109de604051948561095a565b8284526024838301011161018b5781600092602460209301838601378301015290565b6020908160408183019282815285518094520193019160005b828110610a28575050505090565b83516001600160a01b031685529381019392810192600101610a1a565b9060058210156105235752565b60005b838110610a655750506000910152565b8181015183820152602001610a55565b90602091610a8e81518092818552858086019101610a52565b601f01601f1916010190565b5190811515820361018b57565b51906001600160a01b038216820361018b57565b81601f8201121561018b578051610ad18161097c565b92610adf604051948561095a565b8184526020828401011161018b57610afd9160208085019101610a52565b90565b916101208383031261018b57610b1583610aa7565b926020810151600581101561018b579260408201519167ffffffffffffffff9283811161018b5782610b48918301610abb565b93606082015184811161018b5783610b61918401610abb565b93608083015181811161018b5784610b7a918501610abb565b9360a084015191821161018b57610b92918401610abb565b91610b9f60c08201610a9a565b9161010060e083015192015190565b6001600160a01b0360009181835416916040519163c3c5a54760e01b83521690816004820152602081602481865afa908115610c9457908492918391610c53575b5015610c4d5760246040518094819363c07cfca960e01b835260048301525afa918215610c41578092610c2157505090565b610c3592503d8091833e610550818361095a565b50509550505050505090565b604051903d90823e3d90fd5b50505090565b919250506020813d8211610c8c575b81610c6f6020938361095a565b81010312610c885790610c828492610a9a565b38610bef565b8380fd5b3d9150610c62565b6040513d86823e3d90fd5b906001600160a01b03600091818354169360409283519163c3c5a54760e01b83521690816004820152602081602481895afa908115610dee578591610db1575b5015610d68578390602484518097819363c07cfca960e01b835260048301525afa918215610d5f5750828394848094819482948394848094610d29575b5050989796959493929190565b9750975050975050505050610d4892503d8091833e610550818361095a565b969895979496939592949193909290913880610d1c565b513d84823e3d90fd5b50925090809281928051610d7b81610928565b838152928151610d8a81610928565b818152928251610d9981610928565b8281529251610da781610928565b8281529180918190565b90506020813d8211610de6575b81610dcb6020938361095a565b81010312610de257610ddc90610a9a565b38610cdf565b8480fd5b3d9150610dbe565b84513d87823e3d90fd5b67ffffffffffffffff81116109445760051b60200190565b90610e1a82610df8565b610e27604051918261095a565b8281528092610e38601f1991610df8565b0190602036910137565b6000198114610e515760010190565b634e487b7160e01b600052601160045260246000fd5b8051821015610e7b5760209160051b010190565b634e487b7160e01b600052603260045260246000fd5b908151811015610e7b570160200190565b908051825110610f60576000905b825181518103908111610e51578211610f585760019260005b8251811015610f4e57808401808511610e5157610f0a907fff0000000000000000000000000000000000000000000000000000000000000091829185610e91565b511690610f178386610e91565b511603610f2c57610f2790610e42565b610ec9565b5092509060005b610f4657610f4090610e42565b90610eb0565b505050600190565b5092919091610f33565b505050600090565b505060009056fea264697066735822122094dc7c5a74651e46cae6be85ed3daa992d79178476667cc20d99b8bbea3bcd7f64736f6c63430008130033",
  "linkReferences": {},
  "deployedLinkReferences": {}
}