{
  "_format": "hh-sol-artifact-1",
  "contractName": "ProductFactory",
  "sourceName": "src/SmartContracts/ProductFactory.sol",
  "abi": [
    {
      "inputs": [
        {
          "internalType": "address",
          "name": "_stakeholderRegistry",
          "type": "address"
        },
        {
          "internalType": "address",
          "name": "_registry",
          "type": "address"
        },
        {
          "internalType": "address",
          "name": "_temperatureFeed",
          "type": "address"
        },
        {
          "internalType": "address",
          "name": "_humidityFeed",
          "type": "address"
        },
        {
          "internalType": "address",
          "name": "_rainfallFeed",
          "type": "address"
        },
        {
          "internalType": "address",
          "name": "_windSpeedFeed",
          "type": "address"
        },
        {
          "internalType": "address",
          "name": "_priceFeed",
          "type": "address"
        }
      ],
      "stateMutability": "nonpayable",
      "type": "constructor"
    },
    {
      "anonymous": false,
      "inputs": [
        {
          "indexed": true,
          "internalType": "address",
          "name": "productAddress",
          "type": "address"
        },
        {
          "indexed": false,
          "internalType": "string",
          "name": "name",
          "type": "string"
        },
        {
          "indexed": true,
          "internalType": "address",
          "name": "creator",
          "type": "address"
        },
        {
          "indexed": false,
          "internalType": "uint256",
          "name": "timestamp",
          "type": "uint256"
        }
      ],
      "name": "ProductCreated",
      "type": "event"
    },
    {
      "inputs": [
        {
          "internalType": "string",
          "name": "name",
          "type": "string"
        },
        {
          "internalType": "string",
          "name": "description",
          "type": "string"
        },
        {
          "internalType": "uint256",
          "name": "minCTemperature",
          "type": "uint256"
        },
        {
          "internalType": "uint256",
          "name": "maxCTemperature",
          "type": "uint256"
        },
        {
          "internalType": "string",
          "name": "location",
          "type": "string"
        },
        {
          "internalType": "string",
          "name": "farmData",
          "type": "string"
        }
      ],
      "name": "createProduct",
      "outputs": [
        {
          "internalType": "address",
          "name": "",
          "type": "address"
        }
      ],
      "stateMutability": "nonpayable",
      "type": "function"
    },
    {
      "inputs": [],
      "name": "humidityFeed",
      "outputs": [
        {
          "internalType": "address",
          "name": "",
          "type": "address"
        }
      ],
      "stateMutability": "view",
      "type": "function"
    },
    {
      "inputs": [],
      "name": "priceFeed",
      "outputs": [
        {
          "internalType": "address",
          "name": "",
          "type": "address"
        }
      ],
      "stateMutability": "view",
      "type": "function"
    },
    {
      "inputs": [],
      "name": "rainfallFeed",
      "outputs": [
        {
          "internalType": "address",
          "name": "",
          "type": "address"
        }
      ],
      "stateMutability": "view",
      "type": "function"
    },
    {
      "inputs": [],
      "name": "registry",
      "outputs": [
        {
          "internalType": "contract Registry",
          "name": "",
          "type": "address"
        }
      ],
      "stateMutability": "view",
      "type": "function"
    },
    {
      "inputs": [],
      "name": "stakeholderRegistry",
      "outputs": [
        {
          "internalType": "contract StakeholderRegistry",
          "name": "",
          "type": "address"
        }
      ],
      "stateMutability": "view",
      "type": "function"
    },
    {
      "inputs": [],
      "name": "temperatureFeed",
      "outputs": [
        {
          "internalType": "address",
          "name": "",
          "type": "address"
        }
      ],
      "stateMutability": "view",
      "type": "function"
    },
    {
      "inputs": [],
      "name": "windSpeedFeed",
      "outputs": [
        {
          "internalType": "address",
          "name": "",
          "type": "address"
        }
      ],
      "stateMutability": "view",
      "type": "function"
    }
  ],
  "bytecode": "0x60803461010157601f6141e038819003918201601f19168301916001600160401b038311848410176101065780849260e094604052833981010312610101576100478161011c565b906100546020820161011c565b6100606040830161011c565b61006c6060840161011c565b926100796080820161011c565b9261009260c061008b60a0850161011c565b930161011c565b9360018060a01b0380968180968180968160018060a01b03199d168d6000541617600055168b600154161760015516896002541617600255168760035416176003551685600454161760045516836005541617600555169060065416176006556040516140af90816101318239f35b600080fd5b634e487b7160e01b600052604160045260246000fd5b51906001600160a01b03821682036101015756fe60808060405260043610156200001457600080fd5b60003560e01c908163057f426d146200052957508063145788d2146200050057806323feda0a14620004d7578063741bef1a14620004ae5780637b10399914620004855780638ad3af83146200045c578063b0a5c86514620004335763f6957d12146200008057600080fd5b346200038e5760c03660031901126200038e5760043567ffffffffffffffff81116200038e57620000b690369060040162000572565b60243567ffffffffffffffff81116200038e57620000d990369060040162000572565b60843567ffffffffffffffff81116200038e57620000fc90369060040162000572565b9060a43567ffffffffffffffff81116200038e576200012090369060040162000572565b906001600160a01b03928360005416906040517f30044bcc00000000000000000000000000000000000000000000000000000000815233600482015260006024820152602081604481865afa9081156200038257600091620003f1575b50156200039357846002541685600354168660045416908760055416928860065416946040519889613a6981011067ffffffffffffffff613a698c0111176200035357620002336200024a926200020b8c9b8f620001f3908e613a69620006118239610180613a699091018181520190620005ce565b908d6020613a698201840391613a69010152620005ce565b604435613a698d016040810191909152606435606082015280820360809091015290620005ce565b90613a698a01820360a0613a698c010152620005ce565b9560c0613a698901015260e0613a6988010152610100613a6987010152610120613a6986010152610140613a6985010152610160613a698401015203906000f0801562000382578116906001541691823b156200038e57600080936024604051809681937f2d46f5df0000000000000000000000000000000000000000000000000000000083528760048401525af18015620003825762000337575b60209250817f3d9f306eb3ccdae57cf95b68ceccf00ee5562f86254884fa73c0960447f3e28f6200032360405193604085526040850190620005ce565b9242868201528033940390a3604051908152f35b67ffffffffffffffff83116200035357602092604052620002e6565b7f4e487b7100000000000000000000000000000000000000000000000000000000600052604160045260246000fd5b6040513d6000823e3d90fd5b600080fd5b60646040517f08c379a000000000000000000000000000000000000000000000000000000000815260206004820152601c60248201527f4e6f74207265676973746572656420666f72207468697320726f6c65000000006044820152fd5b90506020813d6020116200042a575b816200040f602093836200054f565b810103126200038e575180151581036200038e57386200017d565b3d915062000400565b346200038e5760003660031901126200038e5760206001600160a01b0360055416604051908152f35b346200038e5760003660031901126200038e5760206001600160a01b0360045416604051908152f35b346200038e5760003660031901126200038e5760206001600160a01b0360015416604051908152f35b346200038e5760003660031901126200038e5760206001600160a01b0360065416604051908152f35b346200038e5760003660031901126200038e5760206001600160a01b0360005416604051908152f35b346200038e5760003660031901126200038e5760206001600160a01b0360025416604051908152f35b346200038e5760003660031901126200038e576020906001600160a01b03600354168152f35b90601f8019910116810190811067ffffffffffffffff8211176200035357604052565b81601f820112156200038e5780359067ffffffffffffffff8211620003535760405192620005ab601f8401601f1916602001856200054f565b828452602083830101116200038e57816000926020809301838601378301015290565b919082519283825260005b848110620005fb575050826000602080949584010152601f8019910116010190565b602081830181015184830182015201620005d956fe60a0806040523462000de25762003a69803803809162000020828562000e1f565b833981016101808282031262000de25781516001600160401b03811162000de257816200004f91840162000e68565b60208301519092906001600160401b03811162000de257826200007491830162000e68565b60408201516060830151608084015191939092916001600160401b03811162000de25785620000a591830162000e68565b60a082015190956001600160401b03821162000de257620000c891830162000e68565b94620000d760c0830162000ec3565b620000e560e0840162000ec3565b91620000f5610100850162000ec3565b9562000105610120860162000ec3565b97620001246101606200011c610140890162000ec3565b970162000ec3565b968b511562000d9d5780511562000d4c5783511562000d08578b516001600160401b03811162000a0057600054600181811c9116801562000cfd575b6020821014620009df57601f811162000ca9575b50806020601f821160011462000c305760009162000c24575b508160011b916000199060031b1c1916176000555b8051906001600160401b03821162000a005760015490600182811c9216801562000c19575b6020831014620009df5781601f84931162000bb8575b50602090601f831160011462000b3a5760009262000b2e575b50508160011b916000199060031b1c1916176001555b6002556003558051906001600160401b03821162000a005760045490600182811c9216801562000b23575b6020831014620009df5781601f84931162000ab1575b50602090601f831160011462000a225760009262000a16575b50508160011b916000199060031b1c1916176004555b600580544260a01b63ffffffff60a01b166001600160d01b031982163265ffffffffffff60a01b19161717600160c81b17909155604051895191999091620002fe9160209184918c9190620002d990829085870190870162000e43565b620002ef82518093868085880101910162000e43565b82010103808452018262000e1f565b80516020909101206006556001600160a01b03908116608090815260405194821696928216959382169492821693909116918691906200033e8162000de7565b868152836020820152846040820152856060820152015260018060a01b03199384600954161760095583600a541617600a5582600b541617600b5581600c541617600c55600d541617600d556200039462000ed8565b506200039f62000f05565b620003a96200125d565b91826007556040516020810190620003dc6020828551620003ce8187858a0162000e43565b810103808452018262000e1f565b519020604051949091906001600160401b0360c087019081119087111762000a005760c0860160409081524260a090811b63ffffffff60a01b9081166001600160d01b03199094163265ffffffffffff60a01b19161793909317600160c81b176001600160a01b038181168a5290821c63ffffffff166020808b01918252938a0195865260608a01969096526080890187905281890188905260008052600890925287517f5eff886ea0ce6ca488a3d6e336d6c0f75f46d19b42c06ce5ee98e42c96d256c7805496516001600160c01b0319909716919093161794901b909116929092178255518051906001600160401b03821162000a00576001830154600181811c91168015620009f5575b6020821014620009df57601f81116200098f575b50602090601f83116001146200091157958260089360a093620005c79960009262000905575b50508160011b916000199060031b1c19161760018501555b606081015160028501556080808201518051600387015560208101516004870155604081015160058701556060810151600687015501516007850155015191015580516105dc811280918115620008f8575b50620007cb575b506020810151610fa0811080918115620007be575b50620006ad575b50611388604082015111620005f5575b50620012aa565b6040516124a390816200154682396080518181816104af01528181610e20015281816113ef01526114900152f35b610180600080516020620039e98339815191529162000699604051916101008352600861010084015267149052539190531360c21b610120840152610140602084015260176101408401527f4865617679207261696e66616c6c206465746563746564000000000000000000610160840152604083019060808091805184526020810151602085015260408101516040850152606081015160608501520151910152565b63ffffffff421660e0820152a138620005c0565b156200077857600080516020620039e98339815191526200072c604051620006d58162000e03565b601081526f48756d696469747920746f6f206c6f7760801b60208201525b604051918291610100835260086101008401526748554d494449545960c01b610120840152610140602084015261014083019062001283565b62000762604083018660808091805184526020810151602085015260408101516040850152606081015160608501520151910152565b63ffffffff421660e08301520390a138620005b0565b600080516020620039e98339815191526200072c6040516200079a8162000e03565b6011815270090eadad2c8d2e8f240e8dede40d0d2ced607b1b6020820152620006f3565b61177091501138620005a9565b15620008a657600080516020620039e98339815191526200085a604051620007f38162000e03565b601381527f54656d706572617475726520746f6f206c6f770000000000000000000000000060208201525b6040519182916101008352600b6101008401526a54454d504552415455524560a81b610120840152610140602084015261014083019062001283565b62000890604083018660808091805184526020810151602085015260408101516040850152606081015160608501520151910152565b63ffffffff421660e08301520390a13862000594565b600080516020620039e98339815191526200085a604051620008c88162000e03565b601481527f54656d706572617475726520746f6f206869676800000000000000000000000060208201526200081e565b6109c4915013386200058d565b01519050388062000523565b906001840160005260206000209160005b601f19851681106200097657508360a093620005c79993600193600897601f198116106200095c575b505050811b0160018501556200053b565b015160001960f88460031b161c191690553880806200094b565b9192602060018192868501518155019401920162000922565b600184016000526020600020601f840160051c81019160208510620009d4575b601f0160051c01905b818110620009c75750620004fd565b60008155600101620009b8565b9091508190620009af565b634e487b7160e01b600052602260045260246000fd5b90607f1690620004e9565b634e487b7160e01b600052604160045260246000fd5b01519050388062000266565b6004600090815293507f8a35acfbc15ff81a39ae7d344fd709f28e8600b4aa8c65c6b64bfe7fe36bd19b91905b601f198416851062000a95576001945083601f1981161062000a7b575b505050811b016004556200027c565b015160001960f88460031b161c1916905538808062000a6c565b8181015183556020948501946001909301929091019062000a4f565b60046000529091507f8a35acfbc15ff81a39ae7d344fd709f28e8600b4aa8c65c6b64bfe7fe36bd19b601f840160051c81016020851062000b1b575b90849392915b601f830160051c8201811062000b0b5750506200024d565b6000815585945060010162000af3565b508062000aed565b91607f169162000237565b015190503880620001f6565b60016000908152935060008051602062003a2983398151915291905b601f198416851062000b9c576001945083601f1981161062000b82575b505050811b016001556200020c565b015160001960f88460031b161c1916905538808062000b73565b8181015183556020948501946001909301929091019062000b56565b600160005290915060008051602062003a29833981519152601f840160051c81016020851062000c11575b90849392915b601f830160051c8201811062000c01575050620001dd565b6000815585945060010162000be9565b508062000be3565b91607f1691620001c7565b90508d0151386200018d565b6000808052925060008051602062003a09833981519152908f5b601f198416851062000c90576001945083601f1981161062000c76575b505050811b01600055620001a2565b015160001960f88460031b161c1916905538808f62000c67565b8101518255602093840193600190920191018f62000c4a565b6000805260008051602062003a09833981519152601f830160051c81016020841062000cf5575b601f830160051c8201811062000ce857505062000174565b6000815560010162000cd0565b508062000cd0565b90607f169062000160565b606460405162461bcd60e51b815260206004820152602060248201527f50726f64756374206c6f636174696f6e2063616e6e6f7420626520656d7074796044820152fd5b60405162461bcd60e51b815260206004820152602360248201527f50726f64756374206465736372697074696f6e2063616e6e6f7420626520656d60448201526270747960e81b6064820152608490fd5b60405162461bcd60e51b815260206004820152601c60248201527f50726f64756374206e616d652063616e6e6f7420626520656d707479000000006044820152606490fd5b600080fd5b60a081019081106001600160401b0382111762000a0057604052565b604081019081106001600160401b0382111762000a0057604052565b601f909101601f19168101906001600160401b0382119082101762000a0057604052565b60005b83811062000e575750506000910152565b818101518382015260200162000e46565b81601f8201121562000de25780516001600160401b03811162000a00576040519262000e9f601f8301601f19166020018562000e1f565b8184526020828401011162000de25762000ec0916020808501910162000e43565b90565b51906001600160a01b038216820362000de257565b6040519062000ee78262000de7565b60006080838281528260208201528260408201528260608201520152565b62000f0f62000ed8565b506009546001600160a01b0390811680156200116f5781600a541662000f4a83600b541693600c54169262000f4362000ed8565b50620011f6565b9260409081519384938492633fabe5a360e21b9182855260a097889160049889915afa938415620010f85760009462001146575b5060008412620011035790868693928651978880928582525afa958615620010f857600096620010cf575b50600086126200108c5786908386518094819382525afa958615620010815760009662001046575b50506000851262001003575081519462000feb8662000de7565b85526020850152830152606082015242608082015290565b606490602084519162461bcd60e51b8352820152601760248201527f496e76616c69642077696e6420737065656420646174610000000000000000006044820152fd5b6200106b929650803d1062001079575b62001062818362000e1f565b810190620011bf565b505050905093388062000fd1565b503d62001056565b84513d6000823e3d90fd5b845162461bcd60e51b8152602081850152601560248201527f496e76616c6964207261696e66616c6c206461746100000000000000000000006044820152606490fd5b620010eb919650873d8911620010795762001062818362000e1f565b5050509050943862000fa9565b85513d6000823e3d90fd5b845162461bcd60e51b8152602081880152601560248201527f496e76616c69642068756d6964697479206461746100000000000000000000006044820152606490fd5b62001162919450873d8911620010795762001062818362000e1f565b5050509050923862000f7e565b50506040516200117f8162000de7565b6107d081526113886020820152600060408201526103e8606082015263ffffffff4216608082015290565b51906001600160501b038216820362000de257565b908160a091031262000de257620011d681620011aa565b9160208201519160408101519162000ec0608060608401519301620011aa565b604051633fabe5a360e21b81529060a090829060049082906001600160a01b03165afa90811562001251576000916200122d575090565b62001249915060a03d8111620010795762001062818362000e1f565b505050905090565b6040513d6000823e3d90fd5b600d546001600160a01b031680156200127b5762000ec090620011f6565b506207a12090565b906020916200129e8151809281855285808601910162000e43565b601f01601f1916010190565b60ff60055460c01c166005811015620015075780156200153357620012ce6200125d565b60001982019182116200151d57600582101562001507576000918252602091600883526040936008858320015491600a830463ffffffff421693818101808211620014f3578611156200147a575060c060008051602062003a498339815191529188519087825288820152608089820152601560808201527f4f5241434c455f50524943455f494e435245415345000000000000000000000060a0820152856060820152a15b6014840490818584119386856000146200146857620013939162001537565b11620013a3575b50505050505050565b60008051602062003a49833981519152966200141593608092506000146200142b578051620013d28162000e03565b601881527f53544147455f50524943455f41424f56455f4f5241434c45000000000000000088820152925b81519788978852870152850152608084019062001283565b9060608301520390a1388080808080806200139a565b8051620014388162000e03565b601881527f53544147455f50524943455f42454c4f575f4f5241434c4500000000000000008882015292620013fd565b90620014749162001537565b62001393565b81620014869162001537565b851062001495575b5062001374565b60c060008051602062003a498339815191529188519087825288820152608089820152601560808201527f4f5241434c455f50524943455f4445435245415345000000000000000000000060a0820152856060820152a1386200148e565b634e487b7160e01b84526011600452602484fd5b634e487b7160e01b600052602160045260246000fd5b634e487b7160e01b600052601160045260246000fd5b5050565b919082039182116200151d5756fe6080604052600436101561001257600080fd5b60003560e01c806306fdde03146118175780630822a1b7146114575780631b3012a31461143957806322f3e2d41461141357806323feda0a146113cf5780632bbc26431461137c5780632df9fd5114611333578063311cbc91146113155780633820f361146111e4578063516f279e146111c85780635539d8bb146111aa5780635abb2fda14610de75780635bf5d54c14610dbc5780637284e41614610d8c578063aecf2d1414610cac578063af23e74f14610476578063b7697e3614610458578063bca9f25914610392578063cf09e0d01461036b578063d811fcf014610344578063df1ea5e6146101c55763fc72a3851461010e57600080fd5b346101c05760003660031901126101c0576101606005546101bc600754916101346118e3565b9261013d611a37565b9060ff61016e61014b61199e565b93604051988998610100808b528a0190611b94565b9088820360208a0152611b94565b936001600160a01b038116604088015263ffffffff8160a01c16606088015261019f60808801838360c01c16611c83565b60c81c16151560a086015260c085015283820360e0850152611b94565b0390f35b600080fd5b346101c05760003660031901126101c05760055460ff8160c01c16600581101561032e576003036102ea5760ff60c01b19780400000000000000000000000000000000000000000000000091161760055563ffffffff42166102b860405161022c8161186d565b600081526000602082015260006040820152600060608201528260808201526040519260106101008086528501527f50726f6475637420636f6e73756d6564000000000000000000000000000000006101208501526020840152604083019060808091805184526020810151602085015260408101516040850152606081015160608501520151910152565b600060e082015260047f834b586f2b321f90c8a3532f67ff7ea82946afdcb59302eea07ee17ae9d2fda06101403393a3005b606460405162461bcd60e51b815260206004820152601f60248201527f50726f64756374206d7573742062652061742072657461696c207374616765006044820152fd5b634e487b7160e01b600052602160045260246000fd5b346101c05760003660031901126101c05760206001600160a01b0360055416604051908152f35b346101c05760003660031901126101c057602063ffffffff60055460a01c16604051908152f35b346101c05760203660031901126101c05760043560058110156101c0576103bd63ffffffff91611c90565b8054906103cc60018201611acd565b61044e60028301549261041660086103e660038401611ca9565b9201549360405197876001600160a01b038a9916895260a01c166020880152610140806040890152870190611b94565b936060860152608085019060808091805184526020810151602085015260408101516040850152606081015160608501520151910152565b6101208301520390f35b346101c05760003660031901126101c0576020600354604051908152f35b346101c05761048436611bb9565b90604051630c0112f360e21b8152336004820152600260248201526020816044816001600160a01b037f0000000000000000000000000000000000000000000000000000000000000000165afa8015610ca0576104e991600091610c71575b50611cfd565b6005549060ff8260c01c16600581101561032e5760018101809111610c5b5761051490600314611d48565b61051f831515611d93565b610527611e5b565b50610530611ebf565b91780300000000000000000000000000000000000000000000000060ff60c01b196105596121dd565b921617600555806007556040516020810190858483376105896020828881016000838201520380845201826118c1565b51902060405161059881611889565b33815263ffffffff421660208201526105b086611dde565b916105be60405193846118c1565b86835236878601116101c057868560208501376000602088850101526040820192835260608201528460808201528260a0820152600360005260086020526040600020916001600160a01b0382511683549077ffffffffffffffffffffffffffffffffffffffffffffffff1963ffffffff60a01b602086015160a01b169216171783555180519067ffffffffffffffff8211610c45576106616001850154611833565b601f8111610bfe575b50602090601f8311600114610b63576003979593837f834b586f2b321f90c8a3532f67ff7ea82946afdcb59302eea07ee17ae9d2fda098969460089460a094600092610b58575b5050600019828c1b1c1916600191821b17908501555b6060810151600285015560808082015180518b87015560208101516004870155604081015160058701556060810151600687015501516007850155015191015582516105dc811280918115610b4c575b506109fa575b506020830151610fa08110809181156109ee575b5061089c575b506113886040840151116107c7575b61074f81612200565b6107af6040519387610100808752860152876101209485870137600084898701015263ffffffff42166020860152604085019060808091805184526020810151602085015260408101516040850152606081015160608501520151910152565b60e08301523394601f01601f191682018290030190a3005b7f15ec3cc1e26a8fb9d2f31caedd129c736758c59d5994eea541e32f61e785b8f661018060405160086101008083528201527f5241494e46414c4c00000000000000000000000000000000000000000000000061012082015260176101408060208401528201527f4865617679207261696e66616c6c20646574656374656400000000000000000061016082015261088a604082018760808091805184526020810151602085015260408101516040850152606081015160608501520151910152565b63ffffffff421660e0820152a1610746565b1561098f577f15ec3cc1e26a8fb9d2f31caedd129c736758c59d5994eea541e32f61e785b8f66109456040516108d1816118a5565b601081527f48756d696469747920746f6f206c6f770000000000000000000000000000000060208201525b60405191829160086101008085528401527f48554d4944495459000000000000000000000000000000000000000000000000610120840152610140806020850152830190611b94565b61097a604083018860808091805184526020810151602085015260408101516040850152606081015160608501520151910152565b63ffffffff421660e08301520390a186610737565b7f15ec3cc1e26a8fb9d2f31caedd129c736758c59d5994eea541e32f61e785b8f66109456040516109bf816118a5565b601181527f48756d696469747920746f6f206869676800000000000000000000000000000060208201526108fc565b61177091501188610731565b15610aed577f15ec3cc1e26a8fb9d2f31caedd129c736758c59d5994eea541e32f61e785b8f6610aa3604051610a2f816118a5565b601381527f54656d706572617475726520746f6f206c6f770000000000000000000000000060208201525b604051918291600b6101008085528401527f54454d5045524154555245000000000000000000000000000000000000000000610120840152610140806020850152830190611b94565b610ad8604083018860808091805184526020810151602085015260408101516040850152606081015160608501520151910152565b63ffffffff421660e08301520390a18661071d565b7f15ec3cc1e26a8fb9d2f31caedd129c736758c59d5994eea541e32f61e785b8f6610aa3604051610b1d816118a5565b601481527f54656d706572617475726520746f6f20686967680000000000000000000000006020820152610a5a565b6109c491501388610717565b015190508c806106b1565b906001850160005260206000209160005b601f1985168110610be657509360018460089460a09460039c9a987f834b586f2b321f90c8a3532f67ff7ea82946afdcb59302eea07ee17ae9d2fda09c9a98601f19811610610bce575b505050811b0160018501556106c7565b0151600019838e1b60f8161c191690558c8080610bbe565b91926020600181928685015181550194019201610b74565b600185016000526020600020601f840160051c810160208510610c3e575b601f830160051c82018110610c3257505061066a565b60008155600101610c1c565b5080610c1c565b634e487b7160e01b600052604160045260246000fd5b634e487b7160e01b600052601160045260246000fd5b610c93915060203d602011610c99575b610c8b81836118c1565b810190611ce5565b846104e3565b503d610c81565b6040513d6000823e3d90fd5b346101c05760003660031901126101c0576001806000600560ff815460c01c168482821015905b610ce5575b6020856040519015158152f35b8061032e57818411610d87578284101561032e57610d0a610d0585611c90565b611dfa565b602063ffffffff8183015116610d30575b50506000198414610c5b578580940193610cd3565b606090604083015190610d62604051918281610d558183019687815193849201611b71565b81010380845201826118c1565b51902091015103610d74578680610d1b565b5050505050506020600082808080610cd8565b610cd8565b346101c05760003660031901126101c0576101bc610da8611a37565b604051918291602083526020830190611b94565b346101c05760003660031901126101c057602060ff60055460c01c16610de56040518092611c83565bf35b346101c057610df536611bb9565b90604051630c0112f360e21b8152336004820152600360248201526020816044816001600160a01b037f0000000000000000000000000000000000000000000000000000000000000000165afa8015610ca057610e5991600091610c715750611cfd565b6005549060ff8260c01c16600581101561032e5760018101809111610c5b57610e8490600214611d48565b610e8f831515611d93565b610e97611e5b565b50610ea0611ebf565b91780200000000000000000000000000000000000000000000000060ff60c01b19610ec96121dd565b92161760055580600755604051602081019085848337610ef96020828881016000838201520380845201826118c1565b519020604051610f0881611889565b33815263ffffffff42166020820152610f2086611dde565b91610f2e60405193846118c1565b86835236878601116101c057868560208501376000602088850101526040820192835260608201528460808201528260a0820152600260005260086020526040600020916001600160a01b0382511683549077ffffffffffffffffffffffffffffffffffffffffffffffff1963ffffffff60a01b602086015160a01b169216171783555180519067ffffffffffffffff8211610c4557610fd16001850154611833565b601f8111611163575b50602090601f83116001146110c7576002979593837f834b586f2b321f90c8a3532f67ff7ea82946afdcb59302eea07ee17ae9d2fda098969460089460a0946000926110bc575b50508160011b916000199060031b1c19161760018501555b6060810151898501556080808201518051600387015560208101516004870155604081015160058701556060810151600687015501516007850155015191015582516105dc811280918115610b4c57506109fa57506020830151610fa08110809181156109ee575061089c57506113886040840151116107c75761074f81612200565b015190508c80611021565b906001850160005260206000209160005b601f198516811061114b57509360018460089460a09460029c9a987f834b586f2b321f90c8a3532f67ff7ea82946afdcb59302eea07ee17ae9d2fda09c9a98601f19811610611132575b505050811b016001850155611039565b015160001960f88460031b161c191690558c8080611122565b919260206001819286850151815501940192016110d8565b600185016000526020600020601f840160051c8101602085106111a3575b601f830160051c82018110611197575050610fda565b60008155600101611181565b5080611181565b346101c05760003660031901126101c0576020600754604051908152f35b346101c05760003660031901126101c0576101bc610da861199e565b346101c05760003660031901126101c0576111fd611e86565b50611206611e86565b5061120f611e86565b50611218611e86565b50600860205260036000526112eb7fad67d757c34507f157cacfa2e3153e9f260a2244f30428821be7be64587ac55f6101bc7f6add646517a5b0f6793cd5891b7937d28a5b2981a5d88ebc7cd776088fea90416113077f625b35f5e76f098dd7c3a05b10e2e5e78a4a01228d60c3b143426cdf36d264556112f96112d66112d06112ca6112c47f5eff886ea0ce6ca488a3d6e336d6c0f75f46d19b42c06ce5ee98e42c96d256c7611dfa565b98611dfa565b95611dfa565b92611dfa565b93604051978897608089526080890190611c03565b908782036020890152611c03565b908582036040870152611c03565b908382036060850152611c03565b346101c05760003660031901126101c0576020600254604051908152f35b346101c05760203660031901126101c05760043560058110156101c057611368610d056101bc92611362611e86565b50611c90565b604051918291602083526020830190611c03565b346101c05760003660031901126101c05760a06001600160a01b0380600954169080600a54169080600b541681600c541691600d5416926040519485526020850152604084015260608301526080820152f35b346101c05760003660031901126101c05760206040516001600160a01b037f0000000000000000000000000000000000000000000000000000000000000000168152f35b346101c05760003660031901126101c057602060ff60055460c81c166040519015158152f35b346101c05760003660031901126101c0576020600654604051908152f35b346101c05761146536611bb9565b90604051630c0112f360e21b8152336004820152600160248201526020816044816001600160a01b037f0000000000000000000000000000000000000000000000000000000000000000165afa8015610ca0576114c991600091610c715750611cfd565b6005549060ff8260c01c16600581101561032e5760018101809111610c5b576114f490600114611d48565b6114ff831515611d93565b611507611e5b565b50611510611ebf565b91780100000000000000000000000000000000000000000000000060ff60c01b196115396121dd565b921617600555806007556040516020810190858483376115696020828881016000838201520380845201826118c1565b51902060405161157881611889565b33815263ffffffff4216602082015261159086611dde565b9161159e60405193846118c1565b86835236878601116101c057868560208501376000602088850101526040820192835260608201528460808201528260a0820152600160005260086020526040600020916001600160a01b0382511683549077ffffffffffffffffffffffffffffffffffffffffffffffff1963ffffffff60a01b602086015160a01b169216171783555180519067ffffffffffffffff8211610c45576116416001850154611833565b601f81116117d0575b50602090601f8311600114611736576001979593837f834b586f2b321f90c8a3532f67ff7ea82946afdcb59302eea07ee17ae9d2fda098969460089460a09460009261172b575b5050600019600383901b1c1916908a1b17848a01555b606081015160028501556080808201518051600387015560208101516004870155604081015160058701556060810151600687015501516007850155015191015582516105dc811280918115610b4c57506109fa57506020830151610fa08110809181156109ee575061089c57506113886040840151116107c75761074f81612200565b015190508c80611691565b906001850160005260206000209160005b601f19851681106117b857509360018460089460a094839c9a987f834b586f2b321f90c8a3532f67ff7ea82946afdcb59302eea07ee17ae9d2fda09c9a98601f1981161061179f575b505050811b01898501556116a7565b015160001960f88460031b161c191690558c8080611790565b91926020600181928685015181550194019201611747565b600185016000526020600020601f840160051c810160208510611810575b601f830160051c8201811061180457505061164a565b600081556001016117ee565b50806117ee565b346101c05760003660031901126101c0576101bc610da86118e3565b90600182811c92168015611863575b602083101461184d57565b634e487b7160e01b600052602260045260246000fd5b91607f1691611842565b60a0810190811067ffffffffffffffff821117610c4557604052565b60c0810190811067ffffffffffffffff821117610c4557604052565b6040810190811067ffffffffffffffff821117610c4557604052565b90601f8019910116810190811067ffffffffffffffff821117610c4557604052565b604051906000828154916118f683611833565b8083529260019081811690811561197c575060011461191f575b5061191d925003836118c1565b565b600080805291507f290decd9548b62a8d60345a988386fc84ba6bc95484008f6362f93160ef3e5635b848310611961575061191d935050810160200138611910565b81935090816020925483858a01015201910190918592611948565b90506020925061191d94915060ff191682840152151560051b82010138611910565b60405190600082600454916119b283611833565b8083529260019081811690811561197c57506001146119d8575061191d925003836118c1565b6004600090815291507f8a35acfbc15ff81a39ae7d344fd709f28e8600b4aa8c65c6b64bfe7fe36bd19b5b848310611a1c575061191d935050810160200138611910565b81935090816020925483858a01015201910190918592611a03565b60405190600082600191825492611a4d84611833565b8084529381811690811561197c5750600114611a70575061191d925003836118c1565b600081815291507fb10e2d527612073b26eecdfd717e6a320cf44b4afac2b0732d9fcbe2b7fa0cf65b848310611ab2575061191d935050810160200138611910565b81935090816020925483858a01015201910190918592611a99565b9060405191826000825492611ae184611833565b908184526001948581169081600014611b4e5750600114611b0b575b505061191d925003836118c1565b9093915060005260209081600020936000915b818310611b3657505061191d93508201013880611afd565b85548884018501529485019487945091830191611b1e565b91505061191d94506020925060ff191682840152151560051b8201013880611afd565b60005b838110611b845750506000910152565b8181015183820152602001611b74565b90602091611bad81518092818552858086019101611b71565b601f01601f1916010190565b9060206003198301126101c05760043567ffffffffffffffff928382116101c057806023830112156101c05781600401359384116101c057602484830101116101c0576024019190565b906001600160a01b03825116815263ffffffff602083015116602082015261012060a0611c3f6040850151610140806040870152850190611b94565b60608086015185820152608080870151805182880152602081015160a0880152604081015160c08801529182015160e0870152015161010085015293015191015290565b90600582101561032e5752565b600581101561032e576000526008602052604060002090565b90604051611cb68161186d565b608060048294805484526001810154602085015260028101546040850152600381015460608501520154910152565b908160209103126101c0575180151581036101c05790565b15611d0457565b606460405162461bcd60e51b815260206004820152601c60248201527f4e6f74207265676973746572656420666f72207468697320726f6c65000000006044820152fd5b15611d4f57565b606460405162461bcd60e51b815260206004820152601860248201527f496e76616c6964207374616765207472616e736974696f6e00000000000000006044820152fd5b15611d9a57565b606460405162461bcd60e51b815260206004820152601660248201527f537472696e672063616e6e6f7420626520656d707479000000000000000000006044820152fd5b67ffffffffffffffff8111610c4557601f01601f191660200190565b90604051611e0781611889565b60a06008829463ffffffff81546001600160a01b0381168652841c166020850152611e3460018201611acd565b604085015260028101546060850152611e4f60038201611ca9565b60808501520154910152565b60405190611e688261186d565b60006080838281528260208201528260408201528260608201520152565b60405190611e9382611889565b600060a08382815282602082015260606040820152826060820152611eb6611e5b565b60808201520152565b611ec7611e5b565b506001600160a01b03806009541680156121055781600a5416611efc83600b541693600c541692611ef6611e5b565b5061218a565b9260409081519384938492633fabe5a360e21b9182855260a097889160049889915afa938415612093576000946120e1575b506000841261209e5790868693928651978880928582525afa9586156120935760009661206f575b506000861261202c5786908386518094819382525afa95861561202157600096611fed575b505060008512611faa5750815194611f928661186d565b85526020850152830152606082015242608082015290565b606490602084519162461bcd60e51b8352820152601760248201527f496e76616c69642077696e6420737065656420646174610000000000000000006044820152fd5b61200d929650803d1061201a575b61200581836118c1565b810190612155565b5050509050933880611f7b565b503d611ffb565b84513d6000823e3d90fd5b606483602087519162461bcd60e51b8352820152601560248201527f496e76616c6964207261696e66616c6c206461746100000000000000000000006044820152fd5b612087919650873d891161201a5761200581836118c1565b50505090509438611f56565b85513d6000823e3d90fd5b606486602087519162461bcd60e51b8352820152601560248201527f496e76616c69642068756d6964697479206461746100000000000000000000006044820152fd5b6120f9919450873d891161201a5761200581836118c1565b50505090509238611f2e565b50506040516121138161186d565b6107d081526113886020820152600060408201526103e8606082015263ffffffff4216608082015290565b519069ffffffffffffffffffff821682036101c057565b908160a09103126101c0576121698161213e565b9160208201519160408101519161218760806060840151930161213e565b90565b60a06001600160a01b0391600460405180948193633fabe5a360e21b8352165afa908115610ca0576000916121bd575090565b6121d5915060a03d811161201a5761200581836118c1565b505050905090565b6001600160a01b03600d541680156121f8576121879061218a565b506207a12090565b60ff60055460c01c16600581101561032e57801561245c576122206121dd565b906000198101908111610c5b57600581101561032e57612241600891611c90565b015490600a820463ffffffff421692818101808211610c5b578311156123d4575060c07f30514ef0585706987fdf2ac825879e457cbbe8d1d5be093d17ca674c51f8919d9160405190848252602082015260806040820152601560808201527f4f5241434c455f50524943455f494e435245415345000000000000000000000060a0820152846060820152a15b6014810491828285119483866000146123c5576122ea91612460565b116122f6575b50505050565b7f30514ef0585706987fdf2ac825879e457cbbe8d1d5be093d17ca674c51f8919d93156123875761237560405161232c816118a5565b601881527f53544147455f50524943455f41424f56455f4f5241434c45000000000000000060208201525b60405194859485526020850152608060408501526080840190611b94565b9060608301520390a1388080806122f0565b612375604051612396816118a5565b601881527f53544147455f50524943455f42454c4f575f4f5241434c4500000000000000006020820152612357565b906123cf91612460565b6122ea565b816123de91612460565b82106123eb575b506122ce565b60c07f30514ef0585706987fdf2ac825879e457cbbe8d1d5be093d17ca674c51f8919d9160405190848252602082015260806040820152601560808201527f4f5241434c455f50524943455f4445435245415345000000000000000000000060a0820152846060820152a1386123e5565b5050565b91908203918211610c5b5756fea26469706673582212200d77b7beba0586153e09cf32fa2c976d69ed3b17d93ffbeb30f10360bbe7f90f64736f6c6343000813003315ec3cc1e26a8fb9d2f31caedd129c736758c59d5994eea541e32f61e785b8f6290decd9548b62a8d60345a988386fc84ba6bc95484008f6362f93160ef3e563b10e2d527612073b26eecdfd717e6a320cf44b4afac2b0732d9fcbe2b7fa0cf630514ef0585706987fdf2ac825879e457cbbe8d1d5be093d17ca674c51f8919da2646970667358221220df0e7ddc41f5b7d5bc673f3ab9b9357e11098c1c2b86919aa4794fe4789d175164736f6c63430008130033",
  "linkReferences": {},
  "deployedLinkReferences": {}
}