{
  "_format": "hh-sol-artifact-1",
  "contractName": "FileStorageManager",
  "sourceName": "src/SmartContracts/FileStorageManager.sol",
  "abi": [
    {
      "inputs": [
        {
          "internalType": "address",
          "name": "_stakeholderRegistryAddress",
          "type": "address"
        },
        {
          "internalType": "address",
          "name": "_oracleOperator",
          "type": "address"
        }
      ],
      "stateMutability": "nonpayable",
      "type": "constructor"
    },
    {
      "anonymous": false,
      "inputs": [
        {
          "indexed": true,
          "internalType": "uint256",
          "name": "requestId",
          "type": "uint256"
        },
        {
          "indexed": true,
          "internalType": "uint256",
          "name": "productId",
          "type": "uint256"
        },
        {
          "indexed": true,
          "internalType": "address",
          "name": "requester",
          "type": "address"
        },
        {
          "indexed": false,
          "internalType": "string",
          "name": "fileName",
          "type": "string"
        },
        {
          "indexed": false,
          "internalType": "bytes32",
          "name": "fileHash",
          "type": "bytes32"
        },
        {
          "indexed": false,
          "internalType": "enum FileStorageManager.FileType",
          "name": "fileType",
          "type": "uint8"
        },
        {
          "indexed": false,
          "internalType": "enum FileStorageManager.ProductStage",
          "name": "stage",
          "type": "uint8"
        },
        {
          "indexed": false,
          "internalType": "uint256",
          "name": "timestamp",
          "type": "uint256"
        }
      ],
      "name": "FileUploadRequested",
      "type": "event"
    },
    {
      "anonymous": false,
      "inputs": [
        {
          "indexed": true,
          "internalType": "uint256",
          "name": "requestId",
          "type": "uint256"
        },
        {
          "indexed": false,
          "internalType": "bool",
          "name": "success",
          "type": "bool"
        },
        {
          "indexed": false,
          "internalType": "string",
          "name": "s3Url",
          "type": "string"
        },
        {
          "indexed": false,
          "internalType": "string",
          "name": "errorMessage",
          "type": "string"
        },
        {
          "indexed": false,
          "internalType": "uint256",
          "name": "timestamp",
          "type": "uint256"
        }
      ],
      "name": "S3OperationCompleted",
      "type": "event"
    },
    {
      "anonymous": false,
      "inputs": [
        {
          "indexed": true,
          "internalType": "uint256",
          "name": "requestId",
          "type": "uint256"
        },
        {
          "indexed": false,
          "internalType": "string",
          "name": "action",
          "type": "string"
        },
        {
          "indexed": false,
          "internalType": "bool",
          "name": "success",
          "type": "bool"
        },
        {
          "indexed": false,
          "internalType": "uint256",
          "name": "timestamp",
          "type": "uint256"
        },
        {
          "indexed": false,
          "internalType": "string",
          "name": "details",
          "type": "string"
        },
        {
          "indexed": false,
          "internalType": "address",
          "name": "actor",
          "type": "address"
        }
      ],
      "name": "TransactionLogged",
      "type": "event"
    },
    {
      "inputs": [
        {
          "internalType": "uint256",
          "name": "",
          "type": "uint256"
        }
      ],
      "name": "fileRequests",
      "outputs": [
        {
          "internalType": "uint256",
          "name": "requestId",
          "type": "uint256"
        },
        {
          "internalType": "uint256",
          "name": "productId",
          "type": "uint256"
        },
        {
          "internalType": "string",
          "name": "fileName",
          "type": "string"
        },
        {
          "internalType": "bytes32",
          "name": "fileHash",
          "type": "bytes32"
        },
        {
          "internalType": "enum FileStorageManager.FileType",
          "name": "fileType",
          "type": "uint8"
        },
        {
          "internalType": "enum FileStorageManager.ProductStage",
          "name": "stage",
          "type": "uint8"
        },
        {
          "internalType": "address",
          "name": "requester",
          "type": "address"
        },
        {
          "internalType": "uint256",
          "name": "requestedAt",
          "type": "uint256"
        },
        {
          "internalType": "enum FileStorageManager.RequestStatus",
          "name": "status",
          "type": "uint8"
        },
        {
          "internalType": "string",
          "name": "s3Url",
          "type": "string"
        },
        {
          "internalType": "string",
          "name": "errorMessage",
          "type": "string"
        },
        {
          "internalType": "uint256",
          "name": "completedAt",
          "type": "uint256"
        }
      ],
      "stateMutability": "view",
      "type": "function"
    },
    {
      "inputs": [
        {
          "internalType": "uint256",
          "name": "_requestId",
          "type": "uint256"
        }
      ],
      "name": "getFileRequest",
      "outputs": [
        {
          "components": [
            {
              "internalType": "uint256",
              "name": "requestId",
              "type": "uint256"
            },
            {
              "internalType": "uint256",
              "name": "productId",
              "type": "uint256"
            },
            {
              "internalType": "string",
              "name": "fileName",
              "type": "string"
            },
            {
              "internalType": "bytes32",
              "name": "fileHash",
              "type": "bytes32"
            },
            {
              "internalType": "enum FileStorageManager.FileType",
              "name": "fileType",
              "type": "uint8"
            },
            {
              "internalType": "enum FileStorageManager.ProductStage",
              "name": "stage",
              "type": "uint8"
            },
            {
              "internalType": "address",
              "name": "requester",
              "type": "address"
            },
            {
              "internalType": "uint256",
              "name": "requestedAt",
              "type": "uint256"
            },
            {
              "internalType": "enum FileStorageManager.RequestStatus",
              "name": "status",
              "type": "uint8"
            },
            {
              "internalType": "string",
              "name": "s3Url",
              "type": "string"
            },
            {
              "internalType": "string",
              "name": "errorMessage",
              "type": "string"
            },
            {
              "internalType": "uint256",
              "name": "completedAt",
              "type": "uint256"
            }
          ],
          "internalType": "struct FileStorageManager.FileStorageRequest",
          "name": "",
          "type": "tuple"
        }
      ],
      "stateMutability": "view",
      "type": "function"
    },
    {
      "inputs": [
        {
          "internalType": "uint256",
          "name": "_productId",
          "type": "uint256"
        }
      ],
      "name": "getProductFileUrls",
      "outputs": [
        {
          "internalType": "string[]",
          "name": "",
          "type": "string[]"
        }
      ],
      "stateMutability": "view",
      "type": "function"
    },
    {
      "inputs": [
        {
          "internalType": "uint256",
          "name": "_productId",
          "type": "uint256"
        }
      ],
      "name": "getProductFiles",
      "outputs": [
        {
          "internalType": "uint256[]",
          "name": "",
          "type": "uint256[]"
        }
      ],
      "stateMutability": "view",
      "type": "function"
    },
    {
      "inputs": [
        {
          "internalType": "uint256",
          "name": "_productId",
          "type": "uint256"
        },
        {
          "internalType": "enum FileStorageManager.ProductStage",
          "name": "_stage",
          "type": "uint8"
        }
      ],
      "name": "getProductFilesByStage",
      "outputs": [
        {
          "internalType": "uint256[]",
          "name": "",
          "type": "uint256[]"
        }
      ],
      "stateMutability": "view",
      "type": "function"
    },
    {
      "inputs": [],
      "name": "getStats",
      "outputs": [
        {
          "internalType": "uint256",
          "name": "totalRequests",
          "type": "uint256"
        },
        {
          "internalType": "uint256",
          "name": "completedRequests",
          "type": "uint256"
        },
        {
          "internalType": "uint256",
          "name": "failedRequests",
          "type": "uint256"
        },
        {
          "internalType": "uint256",
          "name": "pendingRequests",
          "type": "uint256"
        }
      ],
      "stateMutability": "view",
      "type": "function"
    },
    {
      "inputs": [
        {
          "internalType": "uint256",
          "name": "_requestId",
          "type": "uint256"
        }
      ],
      "name": "getTransactionLogs",
      "outputs": [
        {
          "components": [
            {
              "internalType": "uint256",
              "name": "requestId",
              "type": "uint256"
            },
            {
              "internalType": "string",
              "name": "action",
              "type": "string"
            },
            {
              "internalType": "bool",
              "name": "success",
              "type": "bool"
            },
            {
              "internalType": "uint256",
              "name": "timestamp",
              "type": "uint256"
            },
            {
              "internalType": "string",
              "name": "details",
              "type": "string"
            },
            {
              "internalType": "address",
              "name": "actor",
              "type": "address"
            }
          ],
          "internalType": "struct FileStorageManager.TransactionLog[]",
          "name": "",
          "type": "tuple[]"
        }
      ],
      "stateMutability": "view",
      "type": "function"
    },
    {
      "inputs": [],
      "name": "nextRequestId",
      "outputs": [
        {
          "internalType": "uint256",
          "name": "",
          "type": "uint256"
        }
      ],
      "stateMutability": "view",
      "type": "function"
    },
    {
      "inputs": [],
      "name": "oracleOperator",
      "outputs": [
        {
          "internalType": "address",
          "name": "",
          "type": "address"
        }
      ],
      "stateMutability": "view",
      "type": "function"
    },
    {
      "inputs": [
        {
          "internalType": "uint256",
          "name": "",
          "type": "uint256"
        },
        {
          "internalType": "uint256",
          "name": "",
          "type": "uint256"
        }
      ],
      "name": "productFiles",
      "outputs": [
        {
          "internalType": "uint256",
          "name": "",
          "type": "uint256"
        }
      ],
      "stateMutability": "view",
      "type": "function"
    },
    {
      "inputs": [
        {
          "internalType": "uint256",
          "name": "_requestId",
          "type": "uint256"
        },
        {
          "internalType": "bool",
          "name": "_success",
          "type": "bool"
        },
        {
          "internalType": "string",
          "name": "_s3Url",
          "type": "string"
        },
        {
          "internalType": "string",
          "name": "_errorMessage",
          "type": "string"
        }
      ],
      "name": "reportS3Result",
      "outputs": [],
      "stateMutability": "nonpayable",
      "type": "function"
    },
    {
      "inputs": [
        {
          "internalType": "uint256",
          "name": "_productId",
          "type": "uint256"
        },
        {
          "internalType": "string",
          "name": "_fileName",
          "type": "string"
        },
        {
          "internalType": "bytes32",
          "name": "_fileHash",
          "type": "bytes32"
        },
        {
          "internalType": "uint8",
          "name": "_fileType",
          "type": "uint8"
        },
        {
          "internalType": "uint8",
          "name": "_stage",
          "type": "uint8"
        }
      ],
      "name": "requestFileStorage",
      "outputs": [
        {
          "internalType": "uint256",
          "name": "",
          "type": "uint256"
        }
      ],
      "stateMutability": "nonpayable",
      "type": "function"
    },
    {
      "inputs": [],
      "name": "stakeholderRegistry",
      "outputs": [
        {
          "internalType": "contract StakeholderRegistry",
          "name": "",
          "type": "address"
        }
      ],
      "stateMutability": "view",
      "type": "function"
    },
    {
      "inputs": [
        {
          "internalType": "uint256",
          "name": "",
          "type": "uint256"
        },
        {
          "internalType": "uint256",
          "name": "",
          "type": "uint256"
        }
      ],
      "name": "transactionLogs",
      "outputs": [
        {
          "internalType": "uint256",
          "name": "requestId",
          "type": "uint256"
        },
        {
          "internalType": "string",
          "name": "action",
          "type": "string"
        },
        {
          "internalType": "bool",
          "name": "success",
          "type": "bool"
        },
        {
          "internalType": "uint256",
          "name": "timestamp",
          "type": "uint256"
        },
        {
          "internalType": "string",
          "name": "details",
          "type": "string"
        },
        {
          "internalType": "address",
          "name": "actor",
          "type": "address"
        }
      ],
      "stateMutability": "view",
      "type": "function"
    },
    {
      "inputs": [
        {
          "internalType": "address",
          "name": "_newOperator",
          "type": "address"
        }
      ],
      "name": "updateOracleOperator",
      "outputs": [],
      "stateMutability": "nonpayable",
      "type": "function"
    },
    {
      "inputs": [
        {
          "internalType": "address",
          "name": "",
          "type": "address"
        },
        {
          "internalType": "uint256",
          "name": "",
          "type": "uint256"
        }
      ],
      "name": "userRequests",
      "outputs": [
        {
          "internalType": "uint256",
          "name": "",
          "type": "uint256"
        }
      ],
      "stateMutability": "view",
      "type": "function"
    },
    {
      "inputs": [
        {
          "internalType": "uint256",
          "name": "_requestId",
          "type": "uint256"
        },
        {
          "internalType": "bytes32",
          "name": "_providedHash",
          "type": "bytes32"
        }
      ],
      "name": "verifyFileIntegrity",
      "outputs": [
        {
          "internalType": "bool",
          "name": "",
          "type": "bool"
        }
      ],
      "stateMutability": "view",
      "type": "function"
    }
  ],
  "bytecode": "0x6080346200009b57601f62002c5f38819003918201601f19168301916001600160401b03831184841017620000a05780849260409485528339810103126200009b576200005a60206200005283620000b6565b9201620000b6565b6001600455600680546001600160a01b039384166001600160a01b03199182161790915560058054929093169116179055604051612b939081620000cc8239f35b600080fd5b634e487b7160e01b600052604160045260246000fd5b51906001600160a01b03821682036200009b5756fe6080604052600436101561001257600080fd5b60003560e01c806304aa6147146126e057806311679ef7146126b957806323feda0a14612692578063263cb6b61461263b5780632bc553f9146125905780633da98a3114612480578063412a3bd2146122d65780636a84a985146122b857806385885dfc1461226857806389d62b03146115b45780638d2ac3c214611404578063a0f27085146106b9578063c59d4847146105d7578063eb5d3e791461055d578063ecfd16ea14610316578063fb13effc146101715763fee56bbe146100d757600080fd5b3461016c57602036600319011261016c576100f0612763565b600554906001600160a01b0380831633036101285773ffffffffffffffffffffffffffffffffffffffff199116911617600555600080f35b606460405162461bcd60e51b815260206004820152602060248201527f4f6e6c792063757272656e74206f70657261746f722063616e207570646174656044820152fd5b600080fd5b3461016c5760208060031936011261016c576004358015158061030b575b61019890612a6a565b60005260019081815260406000208054916101b283612ab5565b926101c06040519485612840565b8084528184018093600052826000206000915b83831061029357505050506040519384938285019083865251809152604085019260408260051b87010194936000905b8382106102105787870388f35b918496819592949698508190603f198b82030185528951908151815261026e6102458484015160c0808786015284019061292b565b60408401511515604084015260608085015190840152608080850151908483039085015261292b565b916001600160a01b0360a0809201511691015298019201920187969593919492610203565b9660068582979896996040516102a8816127ec565b855481526102b7858701612862565b8382015260ff60028701541615156040820152600386015460608201526102e060048701612862565b60808201526001600160a01b0360058701541660a082015281520192019201919096939594966101d3565b50600454811061018f565b3461016c57602036600319011261016c57600435600061016060405161033b816127cf565b828152826020820152606060408201528260608201528260808201528260a08201528260c08201528260e08201528261010082015260606101208201526060610140820152015280151580610552575b61039490612a6a565b60005260006020526040600020604051906103ae826127cf565b80548252600181015460208301526103c860028201612862565b6040830152600381015460608301526001600160a01b0360048201546103f460ff821660808601612a18565b61040760ff8260081c1660a08601612a24565b60101c1660c0830152600581015460e083015260ff60068201541690600482101561053c5760099161010084015261044160078201612862565b61012084015261045360088201612862565b6101408401520154610160820152604051809160208252805160208301526020810151604083015261016061052f61049c604084015161018060608701526101a086019061292b565b606084015160808601526104b8608085015160a0870190612950565b6104ca60a085015160c087019061295d565b6001600160a01b0360c08501511660e086015260e08401516101008601526104fc61010085015161012087019061296a565b61051a61012085015191601f1992838883030161014089015261292b565b9061014085015190868303018487015261292b565b9101516101808301520390f35b634e487b7160e01b600052602160045260246000fd5b50600454811061038b565b3461016c5760208060031936011261016c5760043560005260028152604060002090604051908181845491828152019360005281600020916000905b8282106105c0576105bc856105b081890382612840565b60405191829182612977565b0390f35b835486529485019460019384019390910190610599565b3461016c57600036600319011261016c57600454600090818060015b8381106106375750600019830192831161062157608093604051938452602084015260408301526060820152f35b634e487b7160e01b600052601160045260246000fd5b9384600052600060205260ff60066040600020015416600481101561053c5760028103610676575061066b61067191612a09565b94612a09565b6105f3565b9094906003810361069557509061068f61067191612a09565b91612a09565b156106a4575b61067190612a09565b916106b161067191612a09565b92905061069b565b3461016c57608036600319011261016c5760243515156024350361016c5760443567ffffffffffffffff811161016c576106f79036906004016129b2565b60643567ffffffffffffffff811161016c576107179036906004016129b2565b906001600160a01b0360055416330361139a5760043515158061138d575b61073e90612a6a565b6004356000526000602052604060002091600683015460ff8116600481101561053c576113495760243515610da557509091600260ff19600683015416176006820155825167ffffffffffffffff8111610bea5761079f6007830154612795565b601f8111610d5e575b50806020601f8211600114610cf157600091610ce6575b508160011b916000199060031b1c19161760078201555b6040517f46696c65207375636365737366756c6c792075706c6f6164656420746f20533360208201527f3a20000000000000000000000000000000000000000000000000000000000000604082015261084d604282865161083d8184840160208b01612908565b8101036022810184520182612840565b6040519061085a82612824565b601182527f53335f55504c4f41445f53554343455353000000000000000000000000000000602083015260043560005260016020526040600020604051906108a1826127ec565b60043582526020820190848252600160408401524260608401528360808401523360a0840152805468010000000000000000811015610bea576108e991600182018155612779565b919091610cd057825182555180519067ffffffffffffffff8211610bea5781906109166001850154612795565b601f8111610c7d575b50602090601f8311600114610c0b57600092610c00575b50508160011b916000199060031b1c19161760018201555b600281016040830151151560ff8019835416911617905560608201516003820155608082015180519067ffffffffffffffff8211610bea576109936004840154612795565b601f8111610ba3575b50602090601f8311600114610ad957936001600160a01b0360a060057f18dafa2c98f6ed61d1adf3383fc212d09496ae3a5919b497bf01fa13a74fffd39686610a7a97610abd9d9b977f283ca619faf91cdd93a7d38ccef5b48ab9ec524f6e0d5c0663671bf8f6225ba49f9d9b600092610ace575b50508160011b916000199060031b1c19161760048201555b019201511673ffffffffffffffffffffffffffffffffffffffff19825416179055610a5f6040519460a0865260a086019061292b565b9060016020860152426040860152848203606086015261292b565b9133608082015280600435930390a25b600942910155610aaf604051946024351515865260806020870152608086019061292b565b90848203604086015261292b565b9142606082015280600435930390a2005b015190503880610a11565b906004840160005260206000209160005b601f1985168110610b8b575060a060057f18dafa2c98f6ed61d1adf3383fc212d09496ae3a5919b497bf01fa13a74fffd396600187610abd9d9b977f283ca619faf91cdd93a7d38ccef5b48ab9ec524f6e0d5c0663671bf8f6225ba49f9d9b976001600160a01b0397610a7a9b601f19811610610b72575b505050811b016004820155610a29565b015160001960f88460031b161c19169055388080610b62565b91926020600181928685015181550194019201610aea565b600484016000526020600020601f840160051c810160208510610be3575b601f830160051c82018110610bd757505061099c565b60008155600101610bc1565b5080610bc1565b634e487b7160e01b600052604160045260246000fd5b015190508980610936565b9250600184016000526020600020906000935b601f1984168510610c62576001945083601f19811610610c49575b505050811b01600182015561094e565b015160001960f88460031b161c19169055898080610c39565b81810151835560209485019460019093019290910190610c1e565b909150600184016000526020600020601f840160051c810160208510610cc9575b90849392915b601f830160051c82018110610cba57505061091f565b60008155859450600101610ca4565b5080610c9e565b634e487b7160e01b600052600060045260246000fd5b9050840151856107bf565b91506007830160005260206000206000925b601f1983168410610d46576001935082601f19811610610d2d575b5050811b0160078201556107d6565b86015160001960f88460031b161c191690558580610d1e565b86810151825560209384019360019092019101610d03565b600783016000526020600020601f830160051c810160208410610d9e575b601f830160051c82018110610d925750506107a8565b60008155600101610d7c565b5080610d7c565b60ff1916600317600684015580519267ffffffffffffffff8411610bea57610dd06008820154612795565b601f8111611302575b50602093601f811160011461129557809192939460009161128a575b508160011b916000199060031b1c19161760088201555b6040517f53332075706c6f6164206661696c65643a2000000000000000000000000000006020820152610e5d6032828551610e4d8184840160208a01612908565b8101036012810184520182612840565b60405190610e6a82612824565b601082527f53335f55504c4f41445f4641494c45440000000000000000000000000000000060208301526004356000526001602052604060002060405190610eb1826127ec565b60043582526020820190848252600060408401524260608401528360808401523360a0840152805468010000000000000000811015610bea57610ef991600182018155612779565b919091610cd057825182555180519067ffffffffffffffff8211610bea578190610f266001850154612795565b601f8111611237575b50602090601f83116001146111c5576000926111ba575b50508160011b916000199060031b1c19161760018201555b600281016040830151151560ff8019835416911617905560608201516003820155608082015180519067ffffffffffffffff8211610bea57610fa36004840154612795565b601f8111611173575b50602090601f83116001146110a957936001600160a01b0360a060057f18dafa2c98f6ed61d1adf3383fc212d09496ae3a5919b497bf01fa13a74fffd3968661108a97610abd9d9b977f283ca619faf91cdd93a7d38ccef5b48ab9ec524f6e0d5c0663671bf8f6225ba49f9d9b60009261109e575b50508160011b916000199060031b1c19161760048201555b019201511673ffffffffffffffffffffffffffffffffffffffff1982541617905561106f6040519460a0865260a086019061292b565b9060006020860152426040860152848203606086015261292b565b9133608082015280600435930390a2610a8a565b015190503880611021565b906004840160005260206000209160005b601f198516811061115b575060a060057f18dafa2c98f6ed61d1adf3383fc212d09496ae3a5919b497bf01fa13a74fffd396600187610abd9d9b977f283ca619faf91cdd93a7d38ccef5b48ab9ec524f6e0d5c0663671bf8f6225ba49f9d9b976001600160a01b039761108a9b601f19811610611142575b505050811b016004820155611039565b015160001960f88460031b161c19169055388080611132565b919260206001819286850151815501940192016110ba565b600484016000526020600020601f840160051c8101602085106111b3575b601f830160051c820181106111a7575050610fac565b60008155600101611191565b5080611191565b015190508980610f46565b9250600184016000526020600020906000935b601f198416851061121c576001945083601f19811610611203575b505050811b016001820155610f5e565b015160001960f88460031b161c191690558980806111f3565b818101518355602094850194600190930192909101906111d8565b909150600184016000526020600020601f840160051c810160208510611283575b90849392915b601f830160051c82018110611274575050610f2f565b6000815585945060010161125e565b5080611258565b905083015185610df5565b60088201600052602060002060005b601f19831681106112ea575060019293949582601f198116106112d1575b5050811b016008820155610e0c565b85015160001960f88460031b161c1916905585806112c2565b848701518255602096870196600190920191016112a4565b600882016000526020600020601f860160051c810160208710611342575b601f830160051c82018110611336575050610dd9565b60008155600101611320565b5080611320565b606460405162461bcd60e51b815260206004820152601360248201527f52657175657374206e6f742070656e64696e67000000000000000000000000006044820152fd5b5060048054903510610735565b608460405162461bcd60e51b815260206004820152602260248201527f4f6e6c79206f7261636c65206f70657261746f722063616e2063616c6c20746860448201527f69730000000000000000000000000000000000000000000000000000000000006064820152fd5b3461016c5760208060031936011261016c57600435600052600290818152604060002090604051808383829554938481520190600052836000209260005b8582821061159e5750505061145992500383612840565b6114638251612acd565b9060009060005b84518110156114fc5761147d8186612b17565b516000526000825260ff60066040600020015416600481101561053c5786146114af575b6114aa90612a09565b61146a565b916114f46114aa916114c18588612b17565b51600052600084526114d96007604060002001612862565b6114e38288612b17565b526114ee8187612b17565b50612a09565b9290506114a1565b50925061150881612acd565b9160005b828110611575575050506040519082820192808352815180945260408301938160408260051b8601019301916000955b8287106115495785850386f35b909192938280611565600193603f198a8203018652885161292b565b960192019601959291909261153c565b806115836115999284612b17565b5161158e8287612b17565b526114ee8186612b17565b61150c565b8554845260019586019588955093019201611442565b3461016c5760a036600319011261016c5760243567ffffffffffffffff811161016c576115e59036906004016129b2565b60649081359060ff8216820361016c576084359260ff8416840361016c57602460206001600160a01b0360065416604051928380927f75c81b7b0000000000000000000000000000000000000000000000000000000082523360048301525afa90811561225c57600091612221575b50156121df576004351561219d5781511561215b576044351561211957600560ff8416116120d757600460ff85161161209557506004549161169583612a09565b600455600660ff8216101561053c57600560ff8516101561053c576040516116bc816127cf565b838152600435602082015282604082015260443560608201526116e560ff831660808301612a18565b6116f560ff861660a08301612a24565b3360c08201524260e0820152600061010082015260405161171581612808565b6000815261012082015260405161172b81612808565b6000815261014082015260006101608201528360005260006020526040600020908051825560208101516001830155604081015180519067ffffffffffffffff8211610bea5781906117806002860154612795565b601f8111612042575b50602090601f8311600114611fd057600092611fc5575b50508160011b916000199060031b1c19161760028301555b60608101516003830155600482016080820151600681101561053c57815460a084015190600582101561053c5761ff00907fffffffffffffffffffff0000000000000000000000000000000000000000000060ff75ffffffffffffffffffffffffffffffffffffffff000060c089015160101b1695169116179160081b161717905560e0810151600583015560068201610100820151600481101561053c5760ff8019835416911617905561012081015180519067ffffffffffffffff8211610bea57819061188a6007860154612795565b601f8111611f72575b50602090601f8311600114611f0057600092611ef5575b50508160011b916000199060031b1c19161760078301555b61014081015180519067ffffffffffffffff8211610bea576118e76008850154612795565b601f8111611eae575b50602090601f8311600114611e385791806009949261016094600092611e2d575b50508160011b916000199060031b1c19161760088501555b01519101556004356000526002602052611947836040600020612a30565b33600052600360205261195e836040600020612a30565b6040519361196b85612824565b601085527f55504c4f41445f5245515545535445440000000000000000000000000000000060208601526040519081606081011067ffffffffffffffff606084011117610bea5760608201604052602582527f46696c652075706c6f616420726571756573746564207468726f75676820576560208301527f62204150490000000000000000000000000000000000000000000000000000006040830152846000526001602052604060002060405190611a24826127ec565b868252876020830152600160408301524260608301528360808301523360a0830152805468010000000000000000811015610bea57611a6891600182018155612779565b610cd05781518155602082015180519067ffffffffffffffff8211610bea578190611a966001850154612795565b601f8111611dda575b50602090601f8311600114611d6857600092611d5d575b50508160011b916000199060031b1c19161760018201555b600281016040830151151560ff8019835416911617905560608201516003820155608082015180519067ffffffffffffffff8211610bea57611b136004840154612795565b601f8111611d16575b509188939160209a938b90601f8311600114611c6757936001600160a01b0360a060057f18dafa2c98f6ed61d1adf3383fc212d09496ae3a5919b497bf01fa13a74fffd3989686611bdf97611c229e97611bc59b600092611c5c575b50508160011b916000199060031b1c19161760048201555b019201511673ffffffffffffffffffffffffffffffffffffffff1982541617905560405193849360a0855260a085019061292b565b9060018d850152426040850152838203606085015261292b565b3360808301520390a2611c15611c006040519560a0875260a087019061292b565b936044358887015260ff604087019116612950565b60ff60608501911661295d565b426080830152827f56fe9db953ebb0bbe5baf81583ccc0a5c41dce5ac1ae12774d23d4f1eab86039339380600435940390a4604051908152f35b015190503880611b78565b6004849392999594016000528c6000209060005b601f1984168110611cfc575060a06005611bdf956001867f18dafa2c98f6ed61d1adf3383fc212d09496ae3a5919b497bf01fa13a74fffd39b9996611c229f6001600160a01b0397611bc59d9a601f19811610611ce3575b505050811b016004820155611b90565b015160001960f88460031b161c19169055388080611cd3565b818b01518355998e01998d98506001909201918e01611c7b565b600484016000526020600020601f840160051c810160208510611d56575b601f830160051c82018110611d4a575050611b1c565b60008155600101611d34565b5080611d34565b015190508a80611ab6565b9250600184016000526020600020906000935b601f1984168510611dbf576001945083601f19811610611da6575b505050811b016001820155611ace565b015160001960f88460031b161c191690558a8080611d96565b81810151835560209485019460019093019290910190611d7b565b909150600184016000526020600020601f840160051c810160208510611e26575b90849392915b601f830160051c82018110611e17575050611a9f565b60008155859450600101611e01565b5080611dfb565b015190508a80611911565b906008850160005260206000209160005b601f1985168110611e96575092600994926001926101609583601f19811610611e7d575b505050811b016008850155611929565b015160001960f88460031b161c191690558a8080611e6d565b91926020600181928685015181550194019201611e49565b600885016000526020600020601f840160051c810160208510611eee575b601f830160051c82018110611ee25750506118f0565b60008155600101611ecc565b5080611ecc565b0151905088806118aa565b9250600785016000526020600020906000935b601f1984168510611f57576001945083601f19811610611f3e575b505050811b0160078301556118c2565b015160001960f88460031b161c19169055888080611f2e565b81810151835560209485019460019093019290910190611f13565b909150600785016000526020600020601f840160051c810160208510611fbe575b90849392915b601f830160051c82018110611faf575050611893565b60008155859450600101611f99565b5080611f93565b0151905088806117a0565b9250600285016000526020600020906000935b601f1984168510612027576001945083601f1981161061200e575b505050811b0160028301556117b8565b015160001960f88460031b161c19169055888080611ffe565b81810151835560209485019460019093019290910190611fe3565b909150600285016000526020600020601f840160051c81016020851061208e575b90849392915b601f830160051c8201811061207f575050611789565b60008155859450600101612069565b5080612063565b60405162461bcd60e51b815260206004820152600d60248201527f496e76616c6964207374616765000000000000000000000000000000000000006044820152fd5b60405162461bcd60e51b815260206004820152601160248201527f496e76616c69642066696c6520747970650000000000000000000000000000006044820152fd5b60405162461bcd60e51b815260206004820152601260248201527f46696c65206861736820726571756972656400000000000000000000000000006044820152fd5b60405162461bcd60e51b815260206004820152601960248201527f46696c65206e616d652063616e6e6f7420626520656d707479000000000000006044820152fd5b60405162461bcd60e51b815260206004820152601260248201527f496e76616c69642070726f6475637420494400000000000000000000000000006044820152fd5b60405162461bcd60e51b815260206004820152601960248201527f4e6f7420616e20616374697665207374616b65686f6c646572000000000000006044820152fd5b90506020813d602011612254575b8161223c60209383612840565b8101031261016c5751801515810361016c5785611654565b3d915061222f565b6040513d6000823e3d90fd5b3461016c57604036600319011261016c57600435801515806122ad575b61228e90612a6a565b6000526000602052602060243560036040600020015414604051908152f35b506004548110612285565b3461016c57600036600319011261016c576020600454604051908152f35b3461016c57604036600319011261016c576024803590600580831015918261016c576004356000526002602090808252604060002092604051808585829754938481520190600052856000209260005b8782821061246a5750505061233d92500385612840565b6123478451612b2b565b9460009760005b8651811015612428576123618188612b17565b516000526000865260ff898160046040600020015460081c1690612413578481101561241357831490816123cf575b506123a4575b61239f90612a09565b61234e565b986123c761239f916123b68c8a612b17565b516123c1828c612b17565b52612a09565b999050612396565b90506123db8289612b17565b51600052600087526006604060002001541660048110156123fe5785148b612390565b84634e487b7160e01b60005260216004526000fd5b85634e487b7160e01b60005260216004526000fd5b878a61243381612b2b565b9160005b82811061244c57604051806105bc8682612977565b8061245a6124659284612b17565b516123c18287612b17565b612437565b855484526001958601958a955093019201612326565b3461016c57602036600319011261016c57600435600052600060205260406000208054600182015491600281016124b690612862565b9060038101546004820154906005830154600684015460ff1690600785016124dd90612862565b936124ea60088701612862565b956009015496604051998a998a5260208a01526101808060408b015289016125119161292b565b9360608901526080880160ff82169061252991612950565b61253d60a0890160ff600884901c1661295d565b60101c6001600160a01b031660c088015260e087015261010086016125619161296a565b8481036101208601526125739161292b565b8381036101408501526125859161292b565b906101608301520390f35b3461016c5761259e3661271f565b906000526001602052604060002090815481101561016c576125bf91612779565b5080546125ce60018301612862565b9161263160ff6002830154166003830154926001600160a01b0360056125f660048401612862565b9201541693612617604051978897885260c0602089015260c088019061292b565b92151560408701526060860152848203608086015261292b565b9060a08301520390f35b3461016c57604036600319011261016c57612654612763565b6001600160a01b03602435911660005260036020526040600020805482101561016c5760209161268391612735565b90549060031b1c604051908152f35b3461016c57600036600319011261016c5760206001600160a01b0360065416604051908152f35b3461016c57600036600319011261016c5760206001600160a01b0360055416604051908152f35b3461016c576126ee3661271f565b9060005260026020526040600020805482101561016c5760209161271191612735565b90546040519160031b1c8152f35b604090600319011261016c576004359060243590565b805482101561274d5760005260206000200190600090565b634e487b7160e01b600052603260045260246000fd5b600435906001600160a01b038216820361016c57565b805482101561274d576000526006602060002091020190600090565b90600182811c921680156127c5575b60208310146127af57565b634e487b7160e01b600052602260045260246000fd5b91607f16916127a4565b610180810190811067ffffffffffffffff821117610bea57604052565b60c0810190811067ffffffffffffffff821117610bea57604052565b6020810190811067ffffffffffffffff821117610bea57604052565b6040810190811067ffffffffffffffff821117610bea57604052565b90601f8019910116810190811067ffffffffffffffff821117610bea57604052565b906040519182600082549261287684612795565b9081845260019485811690816000146128e557506001146128a2575b50506128a092500383612840565b565b9093915060005260209081600020936000915b8183106128cd5750506128a093508201013880612892565b855488840185015294850194879450918301916128b5565b9150506128a094506020925060ff191682840152151560051b8201013880612892565b60005b83811061291b5750506000910152565b818101518382015260200161290b565b9060209161294481518092818552858086019101612908565b601f01601f1916010190565b90600682101561053c5752565b90600582101561053c5752565b90600482101561053c5752565b6020908160408183019282815285518094520193019160005b82811061299e575050505090565b835185529381019392810192600101612990565b81601f8201121561016c5780359067ffffffffffffffff8211610bea57604051926129e7601f8401601f191660200185612840565b8284526020838301011161016c57816000926020809301838601378301015290565b60001981146106215760010190565b600682101561053c5752565b600582101561053c5752565b805468010000000000000000811015610bea57612a5291600182018155612735565b819291549060031b91821b91600019901b1916179055565b15612a7157565b606460405162461bcd60e51b815260206004820152601260248201527f496e76616c6964207265717565737420494400000000000000000000000000006044820152fd5b67ffffffffffffffff8111610bea5760051b60200190565b90612ad782612ab5565b612ae46040519182612840565b8281528092612af5601f1991612ab5565b019060005b828110612b0657505050565b806060602080938501015201612afa565b805182101561274d5760209160051b010190565b90612b3582612ab5565b612b426040519182612840565b8281528092612b53601f1991612ab5565b019060203691013756fea264697066735822122083c86da4db89e984f926cb4863971a7640d218f462c4a548df94900bd81749ac64736f6c63430008130033",
  "linkReferences": {},
  "deployedLinkReferences": {}
}