{
  "_format": "hh-sol-artifact-1",
  "contractName": "Shipment",
  "sourceName": "src/SmartContracts/Shipment.sol",
  "abi": [
    {
      "inputs": [
        {
          "internalType": "address",
          "name": "_productAddress",
          "type": "address"
        },
        {
          "internalType": "address",
          "name": "_sender",
          "type": "address"
        },
        {
          "internalType": "address",
          "name": "_receiver",
          "type": "address"
        },
        {
          "internalType": "string",
          "name": "_trackingNumber",
          "type": "string"
        },
        {
          "internalType": "string",
          "name": "_transportMode",
          "type": "string"
        },
        {
          "internalType": "address",
          "name": "_stakeholderRegistry",
          "type": "address"
        }
      ],
      "stateMutability": "nonpayable",
      "type": "constructor"
    },
    {
      "anonymous": false,
      "inputs": [
        {
          "indexed": false,
          "internalType": "string",
          "name": "reason",
          "type": "string"
        },
        {
          "indexed": false,
          "internalType": "uint256",
          "name": "timestamp",
          "type": "uint256"
        }
      ],
      "name": "ShipmentCancelled",
      "type": "event"
    },
    {
      "anonymous": false,
      "inputs": [
        {
          "indexed": true,
          "internalType": "address",
          "name": "receiver",
          "type": "address"
        },
        {
          "indexed": false,
          "internalType": "uint256",
          "name": "timestamp",
          "type": "uint256"
        }
      ],
      "name": "ShipmentDelivered",
      "type": "event"
    },
    {
      "anonymous": false,
      "inputs": [
        {
          "indexed": true,
          "internalType": "enum Shipment.ShipmentStatus",
          "name": "newStatus",
          "type": "uint8"
        },
        {
          "indexed": true,
          "internalType": "address",
          "name": "updater",
          "type": "address"
        },
        {
          "indexed": false,
          "internalType": "string",
          "name": "trackingInfo",
          "type": "string"
        },
        {
          "indexed": false,
          "internalType": "string",
          "name": "location",
          "type": "string"
        },
        {
          "indexed": false,
          "internalType": "uint256",
          "name": "timestamp",
          "type": "uint256"
        }
      ],
      "name": "ShipmentStatusUpdated",
      "type": "event"
    },
    {
      "inputs": [
        {
          "internalType": "string",
          "name": "_reason",
          "type": "string"
        }
      ],
      "name": "cancel",
      "outputs": [],
      "stateMutability": "nonpayable",
      "type": "function"
    },
    {
      "inputs": [],
      "name": "createdAt",
      "outputs": [
        {
          "internalType": "uint256",
          "name": "",
          "type": "uint256"
        }
      ],
      "stateMutability": "view",
      "type": "function"
    },
    {
      "inputs": [],
      "name": "getLatestUpdate",
      "outputs": [
        {
          "components": [
            {
              "internalType": "uint256",
              "name": "timestamp",
              "type": "uint256"
            },
            {
              "internalType": "enum Shipment.ShipmentStatus",
              "name": "status",
              "type": "uint8"
            },
            {
              "internalType": "address",
              "name": "updater",
              "type": "address"
            },
            {
              "internalType": "string",
              "name": "trackingInfo",
              "type": "string"
            },
            {
              "internalType": "string",
              "name": "location",
              "type": "string"
            }
          ],
          "internalType": "struct Shipment.ShipmentUpdate",
          "name": "",
          "type": "tuple"
        }
      ],
      "stateMutability": "view",
      "type": "function"
    },
    {
      "inputs": [],
      "name": "getShipmentHistory",
      "outputs": [
        {
          "components": [
            {
              "internalType": "uint256",
              "name": "timestamp",
              "type": "uint256"
            },
            {
              "internalType": "enum Shipment.ShipmentStatus",
              "name": "status",
              "type": "uint8"
            },
            {
              "internalType": "address",
              "name": "updater",
              "type": "address"
            },
            {
              "internalType": "string",
              "name": "trackingInfo",
              "type": "string"
            },
            {
              "internalType": "string",
              "name": "location",
              "type": "string"
            }
          ],
          "internalType": "struct Shipment.ShipmentUpdate[]",
          "name": "",
          "type": "tuple[]"
        }
      ],
      "stateMutability": "view",
      "type": "function"
    },
    {
      "inputs": [],
      "name": "getShipmentInfo",
      "outputs": [
        {
          "internalType": "address",
          "name": "product",
          "type": "address"
        },
        {
          "internalType": "address",
          "name": "shipmentSender",
          "type": "address"
        },
        {
          "internalType": "address",
          "name": "shipmentReceiver",
          "type": "address"
        },
        {
          "internalType": "string",
          "name": "tracking",
          "type": "string"
        },
        {
          "internalType": "string",
          "name": "transport",
          "type": "string"
        },
        {
          "internalType": "enum Shipment.ShipmentStatus",
          "name": "currentStatus",
          "type": "uint8"
        },
        {
          "internalType": "uint256",
          "name": "created",
          "type": "uint256"
        },
        {
          "internalType": "uint256",
          "name": "updated",
          "type": "uint256"
        },
        {
          "internalType": "bool",
          "name": "active",
          "type": "bool"
        }
      ],
      "stateMutability": "view",
      "type": "function"
    },
    {
      "inputs": [],
      "name": "getStatusDescription",
      "outputs": [
        {
          "internalType": "string",
          "name": "",
          "type": "string"
        }
      ],
      "stateMutability": "view",
      "type": "function"
    },
    {
      "inputs": [],
      "name": "isActive",
      "outputs": [
        {
          "internalType": "bool",
          "name": "",
          "type": "bool"
        }
      ],
      "stateMutability": "view",
      "type": "function"
    },
    {
      "inputs": [],
      "name": "lastUpdated",
      "outputs": [
        {
          "internalType": "uint256",
          "name": "",
          "type": "uint256"
        }
      ],
      "stateMutability": "view",
      "type": "function"
    },
    {
      "inputs": [],
      "name": "productAddress",
      "outputs": [
        {
          "internalType": "address",
          "name": "",
          "type": "address"
        }
      ],
      "stateMutability": "view",
      "type": "function"
    },
    {
      "inputs": [],
      "name": "receiver",
      "outputs": [
        {
          "internalType": "address",
          "name": "",
          "type": "address"
        }
      ],
      "stateMutability": "view",
      "type": "function"
    },
    {
      "inputs": [],
      "name": "sender",
      "outputs": [
        {
          "internalType": "address",
          "name": "",
          "type": "address"
        }
      ],
      "stateMutability": "view",
      "type": "function"
    },
    {
      "inputs": [
        {
          "internalType": "uint256",
          "name": "",
          "type": "uint256"
        }
      ],
      "name": "shipmentHistory",
      "outputs": [
        {
          "internalType": "uint256",
          "name": "timestamp",
          "type": "uint256"
        },
        {
          "internalType": "enum Shipment.ShipmentStatus",
          "name": "status",
          "type": "uint8"
        },
        {
          "internalType": "address",
          "name": "updater",
          "type": "address"
        },
        {
          "internalType": "string",
          "name": "trackingInfo",
          "type": "string"
        },
        {
          "internalType": "string",
          "name": "location",
          "type": "string"
        }
      ],
      "stateMutability": "view",
      "type": "function"
    },
    {
      "inputs": [],
      "name": "stakeholderRegistry",
      "outputs": [
        {
          "internalType": "contract StakeholderRegistry",
          "name": "",
          "type": "address"
        }
      ],
      "stateMutability": "view",
      "type": "function"
    },
    {
      "inputs": [],
      "name": "status",
      "outputs": [
        {
          "internalType": "enum Shipment.ShipmentStatus",
          "name": "",
          "type": "uint8"
        }
      ],
      "stateMutability": "view",
      "type": "function"
    },
    {
      "inputs": [],
      "name": "trackingNumber",
      "outputs": [
        {
          "internalType": "string",
          "name": "",
          "type": "string"
        }
      ],
      "stateMutability": "view",
      "type": "function"
    },
    {
      "inputs": [],
      "name": "transportMode",
      "outputs": [
        {
          "internalType": "string",
          "name": "",
          "type": "string"
        }
      ],
      "stateMutability": "view",
      "type": "function"
    },
    {
      "inputs": [
        {
          "internalType": "enum Shipment.ShipmentStatus",
          "name": "_newStatus",
          "type": "uint8"
        },
        {
          "internalType": "string",
          "name": "_trackingInfo",
          "type": "string"
        },
        {
          "internalType": "string",
          "name": "_location",
          "type": "string"
        }
      ],
      "name": "updateStatus",
      "outputs": [],
      "stateMutability": "nonpayable",
      "type": "function"
    },
    {
      "inputs": [],
      "name": "verifyDelivery",
      "outputs": [],
      "stateMutability": "nonpayable",
      "type": "function"
    }
  ],
  "bytecode": "0x60a060408181523462000bc35762002c0b803803809162000021828662000be4565b843982019160c08184031262000bc3576200003c8162000c08565b906200004b6020820162000c08565b906200005984820162000c08565b60608201519095906001600160401b03811162000bc357816200007e91840162000c1d565b608083015190916001600160401b03821162000bc357620000a860a091620000b093860162000c1d565b930162000c08565b85516308bcf8b560e21b81526001600160a01b039591949186169190602081600481865afa90811562000b325760009162000b81575b501562000b3d5786516316fd755360e21b8152602081600481865afa90811562000b325760009162000ae9575b506005811015908162000719576001811491821562000ada575b821562000ac7575b50501562000a8357811562000a3f578516968715620009fb578516908115620009b757825115620009735760018060a01b03199081600054161760005587816001541617600155600254161760025580519060018060401b038211620006185760035490600182811c9216801562000968575b6020831014620005f75781601f849311620008f3575b50602090601f831160011462000868576000926200085c575b50508160011b916000199060031b1c1916176003555b8051906001600160401b038211620006185760045490600182811c9216801562000851575b6020831014620005f75781601f849311620007dc575b50602090601f8311600114620007515760009262000745575b50508160011b916000199060031b1c1916176004555b600160ff1981816005541617600555426006554260075560085416176008551660805280519160a0830183811060018060401b03821117620006185782524283526020830160018152828401908282528351620002b48162000bc8565b601e81527f536869706d656e74206372656174656420616e6420707265706172696e6700006020820152606086019081528451620002f28162000bc8565b600f81526e4f726967696e20666163696c69747960881b602082015260808701526009549168010000000000000000831015620006185760018301806009558310156200072f57600960005260206000209387518460021b86015560018460021b8601019151906007821015620007195782549051610100600160a81b0360089190911b1660ff929092166001600160a81b031990911617179055518051906001600160401b0382116200061857600283811b85010154600181811c911680156200070e575b6020821014620005f757601f8111620006ba575b50602090601f83116001146200063a57918060039492608096946000926200062e575b50508160011b9160001990861b1c191617600282811b840101555b60021b010193015192835160018060401b03811162000618578154600181811c911680156200060d575b6020821014620005f757601f8111620005aa575b50602094601f82116001146200053f5794819293949560009262000533575b50508160011b916000199060031b1c19161790555b60017f086eabd3cd04a2dc287dae84f5910a5d2096722d6599f992754cf9952df9c48960e0845160608152601e60608201527f536869706d656e74206372656174656420616e6420707265706172696e670000608082015260a06020820152600f60a08201526e4f726967696e20666163696c69747960881b60c08201524286820152a351611f76908162000c95823960805181818161061301528181610d5d01528181610f760152818161157c01526116840152f35b01519050388062000467565b601f198216958360005260206000209160005b888110620005915750836001959697981062000577575b505050811b0190556200047c565b015160001960f88460031b161c1916905538808062000569565b9192602060018192868501518155019401920162000552565b826000526020600020601f830160051c81019160208410620005ec575b601f0160051c01905b818110620005df575062000448565b60008155600101620005d0565b9091508190620005c7565b634e487b7160e01b600052602260045260246000fd5b90607f169062000434565b634e487b7160e01b600052604160045260246000fd5b015190503880620003ef565b90601f19831691600285811b87010160005260206000209260005b818110620006a1575092600192859260809896600398961062000688575b505050811b01600282811b840101556200040a565b015160001983881b60f8161c1916905538808062000673565b9293602060018192878601518155019501930162000655565b600284811b8601016000526020600020601f840160051c8101916020851062000703575b601f0160051c01905b818110620006f65750620003cc565b60008155600101620006e7565b9091508190620006de565b90607f1690620003b8565b634e487b7160e01b600052602160045260246000fd5b634e487b7160e01b600052603260045260246000fd5b01519050388062000241565b600460009081527f8a35acfbc15ff81a39ae7d344fd709f28e8600b4aa8c65c6b64bfe7fe36bd19b9350601f198516905b818110620007c35750908460019594939210620007a9575b505050811b0160045562000257565b015160001960f88460031b161c191690553880806200079a565b9293602060018192878601518155019501930162000782565b60046000529091507f8a35acfbc15ff81a39ae7d344fd709f28e8600b4aa8c65c6b64bfe7fe36bd19b601f840160051c8101916020851062000846575b90601f859493920160051c01905b81811062000836575062000228565b6000815584935060010162000827565b909150819062000819565b91607f169162000212565b015190503880620001d7565b600360009081527fc2575a0e9e593c00f959f8c92f12db2869c3395a3b0502d05e2516446f71f85b9350601f198516905b818110620008da5750908460019594939210620008c0575b505050811b01600355620001ed565b015160001960f88460031b161c19169055388080620008b1565b9293602060018192878601518155019501930162000899565b60036000529091507fc2575a0e9e593c00f959f8c92f12db2869c3395a3b0502d05e2516446f71f85b601f840160051c810191602085106200095d575b90601f859493920160051c01905b8181106200094d5750620001be565b600081558493506001016200093e565b909150819062000930565b91607f1691620001a8565b865162461bcd60e51b815260206004820152601f60248201527f547261636b696e67206e756d6265722063616e6e6f7420626520656d707479006044820152606490fd5b865162461bcd60e51b815260206004820152601860248201527f496e76616c6964207265636569766572206164647265737300000000000000006044820152606490fd5b865162461bcd60e51b815260206004820152601660248201527f496e76616c69642073656e6465722061646472657373000000000000000000006044820152606490fd5b865162461bcd60e51b815260206004820152601760248201527f496e76616c69642070726f6475637420616464726573730000000000000000006044820152606490fd5b865162461bcd60e51b815260206004820152601e60248201527f50726f64756374206e6f7420726561647920666f7220736869706d656e7400006044820152606490fd5b9091506200071957600314388062000135565b5060028114915060006200012d565b6020813d60201162000b29575b8162000b056020938362000be4565b8101031262000b25575190600582101562000b2257503862000113565b80fd5b5080fd5b3d915062000af6565b88513d6000823e3d90fd5b865162461bcd60e51b815260206004820152601560248201527f50726f64756374206973206e6f742061637469766500000000000000000000006044820152606490fd5b6020813d60201162000bba575b8162000b9d6020938362000be4565b8101031262000b25575190811515820362000b22575038620000e6565b3d915062000b8e565b600080fd5b604081019081106001600160401b038211176200061857604052565b601f909101601f19168101906001600160401b038211908210176200061857604052565b51906001600160a01b038216820362000bc357565b919080601f8401121562000bc3578251906001600160401b03821162000618576040519160209162000c59601f8301601f191684018562000be4565b81845282828701011162000bc35760005b81811062000c8057508260009394955001015290565b858101830151848201840152820162000c6a56fe6080604052600436101561001257600080fd5b60003560e01c80630b4f3f3d146111015780631c431183146110da5780631d60a29a14610fe5578063200d2ed214610fbd57806322f3e2d414610f9a57806323feda0a14610f56578063526ff16f14610f3a578063608ff40514610e9157806367e404ce14610e6a5780637024db3b14610dd3578063705c8902146108a9578063903ac79814610887578063adb4af3e146107b5578063cf09e0d014610797578063d0b06f5d14610779578063d65fb48f14610745578063d99769251461010e5763f7260d3e146100e257600080fd5b346101095760003660031901126101095760206001600160a01b0360025416604051908152f35b600080fd5b34610109576000366003190112610109576001600160a01b038060025416331480156106db5760055460ff81169160078310156105535760038303610697576040519261015a84611725565b601d84527f44656c697665727920766572696669656420627920726563656976657200000060208501526040519461019186611709565b600086528060015416331492831561068f575b5082156105e9575b506101b96101be92611b00565b611c49565b1561057f5760ff191660061760055542600755604051916101de836116ed565b42835260208301600681526040840190338252606085019084825283608087015260095468010000000000000000811015610477578060016102239201600955611a98565b93909361056957865184556001840191516007811015610553576102479083611b4b565b5174ffffffffffffffffffffffffffffffffffffffff001974ffffffffffffffffffffffffffffffffffffffff0083549260081b1691161790555180519067ffffffffffffffff8211610477576102a16002840154611863565b601f811161050c575b50602090601f83116001146104985791806080949260039460009261048d575b50508160011b9160001990851b1c19161760028201555b0193015192835167ffffffffffffffff8111610477576103018254611863565b601f811161042f575b506020601f821160011461039f5791817f086eabd3cd04a2dc287dae84f5910a5d2096722d6599f992754cf9952df9c48994926103859460069798600092610394575b50508160011b916000199060031b1c19161790555b610377604051956060875260608701906117c7565b9085820360208701526117c7565b924260408201528033940390a3005b01519050888061034d565b601f198216958360005260206000209660005b818110610417575092600696976103859593600193837f086eabd3cd04a2dc287dae84f5910a5d2096722d6599f992754cf9952df9c4899997106103fe575b505050811b019055610362565b015160001960f88460031b161c191690558880806103f1565b838301518955600190980197602093840193016103b2565b826000526020600020601f830160051c8101916020841061046d575b601f0160051c01905b818110610461575061030a565b60008155600101610454565b909150819061044b565b634e487b7160e01b600052604160045260246000fd5b0151905088806102ca565b906002840160005260206000209160005b601f19851681106104f45750926080949260019260039583601f198116106104dc575b505050811b0160028201556102e1565b015160001983871b60f8161c191690558880806104cc565b919260206001819286850151815501940192016104a9565b600284016000526020600020601f840160051c81016020851061054c575b601f830160051c820181106105405750506102aa565b6000815560010161052a565b508061052a565b634e487b7160e01b600052602160045260246000fd5b634e487b7160e01b600052600060045260246000fd5b608460405162461bcd60e51b815260206004820152602260248201527f496e76616c696420736869706d656e7420737461747573207472616e7369746960448201527f6f6e0000000000000000000000000000000000000000000000000000000000006064820152fd5b604051630c0112f360e21b81523360048083019190915260248201529250602090839060449082907f0000000000000000000000000000000000000000000000000000000000000000165afa918215610683576101be926101b991600091610654575b5092506101ac565b610676915060203d60201161067c575b61066e8183611741565b810190611ae8565b8761064c565b503d610664565b6040513d6000823e3d90fd5b9250866101a4565b606460405162461bcd60e51b815260206004820152602060248201527f536869706d656e74206d7573742062652064656c6976657265642066697273746044820152fd5b608460405162461bcd60e51b815260206004820152602160248201527f4f6e6c792072656365697665722063616e207665726966792064656c6976657260448201527f79000000000000000000000000000000000000000000000000000000000000006064820152fd5b346101095760003660031901126101095761077561076161195b565b6040519182916020835260208301906117c7565b0390f35b34610109576000366003190112610109576020600754604051908152f35b34610109576000366003190112610109576020600654604051908152f35b3461010957600036600319011261010957606060806040516107d6816116ed565b60008152600060208201526000604082015282808201520152600954801561084357600019810190811161082d5761081961081361077592611a98565b50611b6f565b604051918291602083526020830190611807565b634e487b7160e01b600052601160045260246000fd5b606460405162461bcd60e51b815260206004820152601460248201527f4e6f207570646174657320617661696c61626c650000000000000000000000006044820152fd5b346101095760003660031901126101095761077561076160ff60055416611d34565b3461010957606036600319011261010957600760043510156101095760243567ffffffffffffffff8111610109576108e5903690600401611763565b60443567ffffffffffffffff811161010957610905903690600401611763565b6001600160a01b036001541633148015610dbf575b8015610d38575b61092a90611b00565b60055461093c60043560ff8316611c9f565b1561057f5760ff191660043560ff16176005554260075560405161095f816116ed565b428152602081019061097360043583611b63565b6040810191338352606082019085825284608084015260095468010000000000000000811015610477578060016109ad9201600955611a98565b94909461056957835185556001850191516007811015610553576109d19083611b4b565b5174ffffffffffffffffffffffffffffffffffffffff001974ffffffffffffffffffffffffffffffffffffffff0083549260081b1691161790555180519067ffffffffffffffff821161047757610a2b6002850154611863565b601f8111610cf1575b50602090601f8311600114610c7e57608093929160009183610c73575b50508160011b916000199060031b1c19161760028401555b015180519067ffffffffffffffff821161047757610a8a6003840154611863565b601f8111610c28575b50602090601f8311600114610bbb576003929160009183610bb0575b50508160011b9160001990841b1c1916179101555b610aea6040519160608352610adc60608401856117c7565b9083820360208501526117c7565b4260408301527f086eabd3cd04a2dc287dae84f5910a5d2096722d6599f992754cf9952df9c489339280600435930390a3600360043514610b75575b6004803514610b3157005b610b6a7fa11e9adce2b9afd257928ad06797943ea685cf6f0f422d6ed3f90e0d60240f18916040519182916040835260408301906117c7565b4260208301520390a1005b6001600160a01b03600254167fdfbf7dee0472da8ada2e4559ac18af668585f1a3e9e44e31b1b60b361ec7e55a6020604051428152a2610b26565b015190508680610aaf565b90601f198316916003850160005260206000209260005b818110610c1057509160019391856003969410610bf8575b505050811b01910155610ac4565b015160001983861b60f8161c19169055868080610bea565b92936020600181928786015181550195019301610bd2565b600384016000526020600020601f840160051c81019160208510610c69575b601f0160051c01905b818110610c5d5750610a93565b60008155600101610c50565b9091508190610c47565b015190508780610a51565b906002850160005260206000209160005b601f1985168110610cd9575091839160019360809695601f19811610610cc0575b505050811b016002840155610a69565b015160001960f88460031b161c19169055878080610cb0565b91926020600181928685015181550194019201610c8f565b600285016000526020600020601f840160051c810160208510610d31575b601f830160051c82018110610d25575050610a34565b60008155600101610d0f565b5080610d0f565b50604051630c0112f360e21b81523360048083019190915260248201526020816044817f00000000000000000000000000000000000000000000000000000000000000006001600160a01b03165afa80156106835761092a91600091610da1575b509050610921565b610db9915060203d811161067c5761066e8183611741565b84610d99565b506001600160a01b0360025416331461091a565b346101095760203660031901126101095760043560095481101561010957610dfa90611a98565b508054610775600183015492610e5c610e216003610e1a600285016119f4565b93016119f4565b916001600160a01b036040519687968752610e426020880160ff83166117ba565b60081c16604086015260a0606086015260a08501906117c7565b9083820360808501526117c7565b346101095760003660031901126101095760206001600160a01b0360015416604051908152f35b34610109576000366003190112610109576001600160a01b0380600054168160015416916002541660ff600554169060065460075490610f24610f1960ff6008541694610f0b610edf61189d565b610ee761195b565b926040519b8c9b8c5260208c015260408b01526101208060608c01528a01906117c7565b9088820360808a01526117c7565b9460a08701906117ba565b60c085015260e084015215156101008301520390f35b346101095760003660031901126101095761077561076161189d565b346101095760003660031901126101095760206040516001600160a01b037f0000000000000000000000000000000000000000000000000000000000000000168152f35b3461010957600036600319011261010957602060ff600854166040519015158152f35b3461010957600036600319011261010957602060ff60055416610fe360405180926117ba565bf35b346101095760003660031901126101095760095467ffffffffffffffff8111610477576040519060209061101e828260051b0184611741565b808352818301908160096000527f6e1540171b6c0c960b71a7020d9f60077f6af931a8bbf590da0223dacf75c7af6000915b8383106110b75750505050604051918083019381845251809452604083019360408160051b85010192916000955b82871061108b5785850386f35b9091929382806110a7600193603f198a82030186528851611807565b960192019601959291909261107e565b6004866001926110c9859a999a611b6f565b815201920192019190959495611050565b346101095760003660031901126101095760206001600160a01b0360005416604051908152f35b346101095760203660031901126101095760043567ffffffffffffffff811161010957611132903690600401611763565b6001600160a01b0390816001541633149182801590816116e0575b801561165f575b61115d90611b00565b6005549160ff831690600782101561055357600182148015611655575b156115eb576040519561118c87611709565b60008752926115dc575b8215611552575b506111aa6111af92611b00565b611bcb565b1561057f5760ff191660041760055542600755604051916111cf836116ed565b42835260208301600481526040840190338252606085019084825283608087015260095468010000000000000000811015610477578060016112149201600955611a98565b93909361056957865184556001840191516007811015610553576112389083611b4b565b5174ffffffffffffffffffffffffffffffffffffffff001974ffffffffffffffffffffffffffffffffffffffff0083549260081b1691161790555180519067ffffffffffffffff8211610477576112926002840154611863565b601f811161150b575b50602090601f83116001146114995791806080949260039460009261148e575b50508160011b9160001990851b1c19161760028201555b0193015192835167ffffffffffffffff8111610477576112f28254611863565b601f8111611446575b506020601f82116001146113b8579080610b6a959493927fa11e9adce2b9afd257928ad06797943ea685cf6f0f422d6ed3f90e0d60240f18976000926113ad575b50508160011b916000199060031b1c19161790555b60047f086eabd3cd04a2dc287dae84f5910a5d2096722d6599f992754cf9952df9c48961138c604051936060855261037760608601876117c7565b924260408201528033940390a36040519182916040835260408301906117c7565b01519050878061133c565b601f198216958360005260206000209660005b81811061142e5750966001928492610b6a989796957fa11e9adce2b9afd257928ad06797943ea685cf6f0f422d6ed3f90e0d60240f189a10611415575b505050811b019055611351565b015160001960f88460031b161c19169055878080611408565b838301518955600190980197602093840193016113cb565b826000526020600020601f830160051c81019160208410611484575b601f0160051c01905b81811061147857506112fb565b6000815560010161146b565b9091508190611462565b0151905088806112bb565b90601f198316916002850160005260206000209260005b8181106114f3575092600192859260039660809896106114db575b505050811b0160028201556112d2565b015160001983871b60f8161c191690558880806114cb565b929360206001819287860151815501950193016114b0565b600284016000526020600020601f840160051c81016020851061154b575b601f830160051c8201811061153f57505061129b565b60008155600101611529565b5080611529565b604051630c0112f360e21b81523360048083019190915260248201529250602090839060449082907f0000000000000000000000000000000000000000000000000000000000000000165afa918215610683576111af926111aa916000916115bd575b50925061119d565b6115d6915060203d60201161067c5761066e8183611741565b876115b5565b80925060025416331491611196565b608460405162461bcd60e51b815260206004820152602860248201527f43616e6e6f742063616e63656c20736869706d656e7420696e2063757272656e60448201527f74207374617475730000000000000000000000000000000000000000000000006064820152fd5b506002821461117a565b50604051630c0112f360e21b81523360048083019190915260248201526020816044817f000000000000000000000000000000000000000000000000000000000000000087165afa80156106835761115d916000916116c1575b509050611154565b6116da915060203d60201161067c5761066e8183611741565b866116b9565b508160025416331461114d565b60a0810190811067ffffffffffffffff82111761047757604052565b6020810190811067ffffffffffffffff82111761047757604052565b6040810190811067ffffffffffffffff82111761047757604052565b90601f8019910116810190811067ffffffffffffffff82111761047757604052565b81601f820112156101095780359067ffffffffffffffff82116104775760405192611798601f8401601f191660200185611741565b8284526020838301011161010957816000926020809301838601378301015290565b9060078210156105535752565b919082519283825260005b8481106117f3575050826000602080949584010152601f8019910116010190565b6020818301810151848301820152016117d2565b6118609181518152611821602083015160208301906117ba565b6001600160a01b036040830151166040820152608061184f606084015160a0606085015260a08401906117c7565b9201519060808184039101526117c7565b90565b90600182811c92168015611893575b602083101461187d57565b634e487b7160e01b600052602260045260246000fd5b91607f1691611872565b60405190600082600354916118b183611863565b8083529260019081811690811561193957506001146118da575b506118d892500383611741565b565b6003600090815291507fc2575a0e9e593c00f959f8c92f12db2869c3395a3b0502d05e2516446f71f85b5b84831061191e57506118d89350508101602001386118cb565b81935090816020925483858a01015201910190918592611905565b9050602092506118d894915060ff191682840152151560051b820101386118cb565b604051906000826004549161196f83611863565b80835292600190818116908115611939575060011461199557506118d892500383611741565b6004600090815291507f8a35acfbc15ff81a39ae7d344fd709f28e8600b4aa8c65c6b64bfe7fe36bd19b5b8483106119d957506118d89350508101602001386118cb565b81935090816020925483858a010152019101909185926119c0565b9060405191826000825492611a0884611863565b908184526001948581169081600014611a755750600114611a32575b50506118d892500383611741565b9093915060005260209081600020936000915b818310611a5d5750506118d893508201013880611a24565b85548884018501529485019487945091830191611a45565b9150506118d894506020925060ff191682840152151560051b8201013880611a24565b600954811015611ad257600960005260021b7f6e1540171b6c0c960b71a7020d9f60077f6af931a8bbf590da0223dacf75c7af0190600090565b634e487b7160e01b600052603260045260246000fd5b90816020910312610109575180151581036101095790565b15611b0757565b606460405162461bcd60e51b815260206004820152602060248201527f4e6f7420617574686f72697a656420666f72207468697320736869706d656e746044820152fd5b9060078110156105535760ff80198354169116179055565b60078210156105535752565b90604051611b7c816116ed565b6080611bc660038395805485526001600160a01b036001820154611ba660ff821660208901611b63565b60081c166040860152611bbb600282016119f4565b6060860152016119f4565b910152565b6000906007811015611c3557819080611bfd5750611be95750600190565b80634e487b7160e01b602492526021600452fd5b60018103611c105750611be95750600190565b60028103611c235750611be95750600090565b6003915014611c2f5790565b50600090565b602482634e487b7160e01b81526021600452fd5b6000906007811015611c3557819080611c675750611be95750600090565b60018103611c7a5750611be95750600090565b60028103611c8d5750611be95750600090565b6003915014611c995790565b50600190565b60078110156105535780611cce575060078110156105535760018114908115611cc6575090565b600491501490565b60018103611cef575060078110156105535760028114908115611cc6575090565b60028103611d18575060078110156105535760038114908115611d10575090565b600591501490565b600314611d255750600090565b60078110156105535760061490565b6007811015610553578015611f065760018114611ecc5760028114611e925760038114611e585760048114611e1e5760058114611de457600614611dab57604051611d7e81611725565b600e81527f556e6b6e6f776e20737461747573000000000000000000000000000000000000602082015290565b604051611db781611725565b601281527f44656c697665727920636f6e6669726d65640000000000000000000000000000602082015290565b50604051611df181611725565b600f81527f44656c6976657279206661696c65640000000000000000000000000000000000602082015290565b50604051611e2b81611725565b601281527f536869706d656e742063616e63656c6c65640000000000000000000000000000602082015290565b50604051611e6581611725565b600981527f44656c6976657265640000000000000000000000000000000000000000000000602082015290565b50604051611e9f81611725565b600a81527f496e207472616e73697400000000000000000000000000000000000000000000602082015290565b50604051611ed981611725565b601681527f507265706172696e6720666f7220736869706d656e7400000000000000000000602082015290565b50604051611f1381611725565b600f81527f4e6f74207965742073686970706564000000000000000000000000000000000060208201529056fea2646970667358221220d71a328e913fec0e9d1a6274088267e78c72c830c13537bf2271287a6f1f2a3964736f6c63430008130033",
  "linkReferences": {},
  "deployedLinkReferences": {}
}