{
  "_format": "hh-sol-artifact-1",
  "contractName": "Stakeholder",
  "sourceName": "src/SmartContracts/Stakeholder.sol",
  "abi": [
    {
      "inputs": [
        {
          "internalType": "address",
          "name": "_stakeholderAddress",
          "type": "address"
        },
        {
          "internalType": "enum Stakeholder.StakeholderRole",
          "name": "_role",
          "type": "uint8"
        },
        {
          "internalType": "string",
          "name": "_businessName",
          "type": "string"
        },
        {
          "internalType": "string",
          "name": "_businessLicense",
          "type": "string"
        },
        {
          "internalType": "string",
          "name": "_location",
          "type": "string"
        },
        {
          "internalType": "string",
          "name": "_certifications",
          "type": "string"
        },
        {
          "internalType": "address",
          "name": "_admin",
          "type": "address"
        }
      ],
      "stateMutability": "nonpayable",
      "type": "constructor"
    },
    {
      "anonymous": false,
      "inputs": [
        {
          "indexed": false,
          "internalType": "uint256",
          "name": "timestamp",
          "type": "uint256"
        }
      ],
      "name": "StakeholderDeactivated",
      "type": "event"
    },
    {
      "anonymous": false,
      "inputs": [
        {
          "indexed": false,
          "internalType": "uint256",
          "name": "timestamp",
          "type": "uint256"
        }
      ],
      "name": "StakeholderReactivated",
      "type": "event"
    },
    {
      "anonymous": false,
      "inputs": [
        {
          "indexed": false,
          "internalType": "string",
          "name": "businessName",
          "type": "string"
        },
        {
          "indexed": false,
          "internalType": "string",
          "name": "location",
          "type": "string"
        },
        {
          "indexed": false,
          "internalType": "string",
          "name": "certifications",
          "type": "string"
        },
        {
          "indexed": false,
          "internalType": "uint256",
          "name": "timestamp",
          "type": "uint256"
        }
      ],
      "name": "StakeholderUpdated",
      "type": "event"
    },
    {
      "inputs": [],
      "name": "admin",
      "outputs": [
        {
          "internalType": "address",
          "name": "",
          "type": "address"
        }
      ],
      "stateMutability": "view",
      "type": "function"
    },
    {
      "inputs": [],
      "name": "businessLicense",
      "outputs": [
        {
          "internalType": "string",
          "name": "",
          "type": "string"
        }
      ],
      "stateMutability": "view",
      "type": "function"
    },
    {
      "inputs": [],
      "name": "businessName",
      "outputs": [
        {
          "internalType": "string",
          "name": "",
          "type": "string"
        }
      ],
      "stateMutability": "view",
      "type": "function"
    },
    {
      "inputs": [],
      "name": "certifications",
      "outputs": [
        {
          "internalType": "string",
          "name": "",
          "type": "string"
        }
      ],
      "stateMutability": "view",
      "type": "function"
    },
    {
      "inputs": [],
      "name": "deactivate",
      "outputs": [],
      "stateMutability": "nonpayable",
      "type": "function"
    },
    {
      "inputs": [],
      "name": "getRoleString",
      "outputs": [
        {
          "internalType": "string",
          "name": "",
          "type": "string"
        }
      ],
      "stateMutability": "view",
      "type": "function"
    },
    {
      "inputs": [],
      "name": "getStakeholderInfo",
      "outputs": [
        {
          "internalType": "address",
          "name": "addr",
          "type": "address"
        },
        {
          "internalType": "enum Stakeholder.StakeholderRole",
          "name": "stakeholderRole",
          "type": "uint8"
        },
        {
          "internalType": "string",
          "name": "name",
          "type": "string"
        },
        {
          "internalType": "string",
          "name": "license",
          "type": "string"
        },
        {
          "internalType": "string",
          "name": "loc",
          "type": "string"
        },
        {
          "internalType": "string",
          "name": "certs",
          "type": "string"
        },
        {
          "internalType": "bool",
          "name": "active",
          "type": "bool"
        },
        {
          "internalType": "uint256",
          "name": "registered",
          "type": "uint256"
        },
        {
          "internalType": "uint256",
          "name": "activity",
          "type": "uint256"
        }
      ],
      "stateMutability": "view",
      "type": "function"
    },
    {
      "inputs": [
        {
          "internalType": "enum Stakeholder.StakeholderRole",
          "name": "_role",
          "type": "uint8"
        }
      ],
      "name": "hasRole",
      "outputs": [
        {
          "internalType": "bool",
          "name": "",
          "type": "bool"
        }
      ],
      "stateMutability": "view",
      "type": "function"
    },
    {
      "inputs": [],
      "name": "isActive",
      "outputs": [
        {
          "internalType": "bool",
          "name": "",
          "type": "bool"
        }
      ],
      "stateMutability": "view",
      "type": "function"
    },
    {
      "inputs": [],
      "name": "isValidForOperations",
      "outputs": [
        {
          "internalType": "bool",
          "name": "",
          "type": "bool"
        }
      ],
      "stateMutability": "view",
      "type": "function"
    },
    {
      "inputs": [],
      "name": "lastActivity",
      "outputs": [
        {
          "internalType": "uint256",
          "name": "",
          "type": "uint256"
        }
      ],
      "stateMutability": "view",
      "type": "function"
    },
    {
      "inputs": [],
      "name": "location",
      "outputs": [
        {
          "internalType": "string",
          "name": "",
          "type": "string"
        }
      ],
      "stateMutability": "view",
      "type": "function"
    },
    {
      "inputs": [],
      "name": "reactivate",
      "outputs": [],
      "stateMutability": "nonpayable",
      "type": "function"
    },
    {
      "inputs": [],
      "name": "registeredAt",
      "outputs": [
        {
          "internalType": "uint256",
          "name": "",
          "type": "uint256"
        }
      ],
      "stateMutability": "view",
      "type": "function"
    },
    {
      "inputs": [],
      "name": "role",
      "outputs": [
        {
          "internalType": "enum Stakeholder.StakeholderRole",
          "name": "",
          "type": "uint8"
        }
      ],
      "stateMutability": "view",
      "type": "function"
    },
    {
      "inputs": [],
      "name": "stakeholderAddress",
      "outputs": [
        {
          "internalType": "address",
          "name": "",
          "type": "address"
        }
      ],
      "stateMutability": "view",
      "type": "function"
    },
    {
      "inputs": [],
      "name": "updateActivity",
      "outputs": [],
      "stateMutability": "nonpayable",
      "type": "function"
    },
    {
      "inputs": [
        {
          "internalType": "string",
          "name": "_businessName",
          "type": "string"
        },
        {
          "internalType": "string",
          "name": "_location",
          "type": "string"
        },
        {
          "internalType": "string",
          "name": "_certifications",
          "type": "string"
        }
      ],
      "name": "updateInfo",
      "outputs": [],
      "stateMutability": "nonpayable",
      "type": "function"
    }
  ],
  "bytecode": "0x604060808152346200073457620018f3803803806200001e8162000739565b928339810160e0828203126200073457620000398262000775565b916020918282015191600491828410156200073457818701516001600160401b039290838111620007345782620000729183016200078a565b9060608101518481116200073457836200008e9183016200078a565b956080820151858111620007345784620000aa9184016200078a565b9360a0830151908682116200073457620000cd60c091620000d59386016200078a565b930162000775565b6001600160a01b03999098908a16918215620006f157845115620006ae578851156200066d57600080546001600160a81b03191690931760a09190911b60ff60a01b161782558351978689116200049f576001988954958a87811c9716801562000662575b8488101462000481578190601f978881116200060f575b508490888311600114620005a257869262000596575b5050600019600383901b1c1916908a1b1789555b80519087821162000583576002548a81811c9116801562000578575b84821014620004815790818784931162000524575b508390878311600114620004be578592620004b2575b5050600019600383901b1c191690891b176002555b84518681116200049f5760039586548a81811c9116801562000494575b8482101462000481579081878493116200042e575b508390878311600114620003cb578592620003bf575b505060001982881b1c191690891b1785555b8251958611620003ac5786548881811c91168015620003a1575b828210146200038e579081858897969594931162000333575b5080938611600114620002c9575093620002bd575b505082851b92600019911b1c19161790555b60ff19600554161760055542600655426007551660018060a01b03196008541617600855516110f69081620007fd8239f35b01519150388062000279565b87825280822089975094939291601f198716915b828210620003195750508511620002fe575b50505050811b0190556200028b565b01519060f884600019921b161c1916905538808080620002ef565b8484015187558a98909601959384019390810190620002dd565b909192939495508783528183208580890160051c820192848a1062000384575b918b918a999897969594930160051c01915b8281106200037557505062000264565b8481558998508b910162000365565b9250819262000353565b634e487b7160e01b835260228852602483fd5b90607f16906200024b565b634e487b7160e01b825260418752602482fd5b0151905038806200021f565b8886528486208c94509190601f198416875b87828210620004175750508411620003fe575b505050811b01855562000231565b0151600019838a1b60f8161c19169055388080620003f0565b8385015186558f97909501949384019301620003dd565b9091508785528385208780850160051c82019286861062000477575b918d91869594930160051c01915b8281106200046857505062000209565b8781558594508d910162000458565b925081926200044a565b634e487b7160e01b855260228a52602485fd5b90607f1690620001f4565b634e487b7160e01b835260418852602483fd5b015190503880620001c2565b600286528486208c94509190601f198416875b878282106200050d5750508411620004f3575b505050811b01600255620001d7565b015160001960f88460031b161c19169055388080620004e4565b8385015186558f97909501949384019301620004d1565b909150600285528385208780850160051c8201928686106200056e575b918d91869594930160051c01915b8281106200055f575050620001ac565b8781558594508d91016200054f565b9250819262000541565b90607f169062000197565b634e487b7160e01b845260418952602484fd5b01519050388062000167565b8c87528587208d94509190601f198416885b88828210620005ef5750508411620005d5575b505050811b0189556200017b565b015160001960f88460031b161c19169055388080620005c7565b91929395968291958786015181550195019301908e9594939291620005b4565b9091508b86528486208880850160051c82019287861062000658575b918e91869594930160051c01915b8281106200064957505062000151565b8881558594508e910162000639565b925081926200062b565b96607f16966200013a565b60648883808f519262461bcd60e51b845283015260248201527f427573696e657373206c6963656e73652063616e6e6f7420626520656d7074796044820152fd5b8b5162461bcd60e51b8152808901839052601d60248201527f427573696e657373206e616d652063616e6e6f7420626520656d7074790000006044820152606490fd5b8b5162461bcd60e51b8152808901839052601b60248201527f496e76616c6964207374616b65686f6c646572206164647265737300000000006044820152606490fd5b600080fd5b6040519190601f01601f191682016001600160401b038111838210176200075f57604052565b634e487b7160e01b600052604160045260246000fd5b51906001600160a01b03821682036200073457565b919080601f84011215620007345782516001600160401b0381116200075f57602090620007c0601f8201601f1916830162000739565b92818452828287010111620007345760005b818110620007e857508260009394955001015290565b8581018301518482018401528201620007d256fe608060408181526004918236101561001657600080fd5b600092833560e01c91826310055c1d14610abb5750816313720fef14610a9d57816319e0755c14610a315781631b0e1ffa146109835781631eac204b1461096557816322f3e2d414610941578163516f279e1461092357816351b42b00146108b557816355627b1d1461088f5781635951a7f6146108715781635fd51b37146108525781636a85b4ff146108335781637f6d2e02146107fe578163a1a9a8cc146107c8578163a4995e5f14610700578163a4a21c3c146101cc578163d18611d614610115575063f851a440146100eb57600080fd5b346101115781600319360112610111576020906001600160a01b03600854169051908152f35b5080fd5b9050346101c857826003193601126101c85761013d6001600160a01b03600854163314610eb5565b6005549060ff821661018557507f3399bd980afb25557d79ab8cdfa7a7f80cbd9bc2de05aa412c59c742ecc6681591600160209260ff1916176005554260075551428152a180f35b606490602084519162461bcd60e51b8352820152601d60248201527f5374616b65686f6c64657220697320616c7265616479206163746976650000006044820152fd5b8280fd5b919050346101c85760603660031901126101c85767ffffffffffffffff82358181116106fc576101ff9036908501610e59565b926024358281116106f8576102179036908301610e59565b906044358381116106f45761022f9036908301610e59565b926102466001600160a01b03600854163314610eb5565b600561025560ff825416610f26565b8651156106b157865182811161069e576001906102728254610b45565b90601f9182811161063e575b508060208382116001146105c1578c916105b6575b50600019600383901b1c191690831b1782555b8551928484116104bb576003936102bd8554610b45565b838111610554575b508060208d8583116001146104d957916104ce575b5060001982871b1c191690841b1784555b87519485116104bb576102fe8654610b45565b9082821161045b575b50508960209185116001146103aa579380610386948161039399956103789c99957f39775e654ddec5d7e78eaa9dcf21248dcdf62e39b6c58d81f3f0a23793b503fc9e9c999461039f575b501b92600019911b1c19161790555b426007558351968796608088526080880190610b05565b908682036020880152610b05565b9184830390850152610b05565b4260608301520390a180f35b890151935038610352565b50848a529092917f8a35acfbc15ff81a39ae7d344fd709f28e8600b4aa8c65c6b64bfe7fe36bd19b91601f1984168b5b81811061044557509361039397936103789a97937f39775e654ddec5d7e78eaa9dcf21248dcdf62e39b6c58d81f3f0a23793b503fc9c9a979383610386981061042b575b505050811b019055610361565b8801519060f884600019921b161c1916905538808061041e565b89830151855593860193602092830192016103da565b868c527f8a35acfbc15ff81a39ae7d344fd709f28e8600b4aa8c65c6b64bfe7fe36bd19b9083808801821c830193602089106104b2575b01901c019083905b8281106104a75750610307565b8c815501839061049a565b93508293610492565b60248b604188634e487b7160e01b835252fd5b9050880151386102da565b90869350601f1983168883527fc2575a0e9e593c00f959f8c92f12db2869c3395a3b0502d05e2516446f71f85b925b8c82821061053d5750508311610525575b5050811b0184556102eb565b8a015160001983891b60f8161c191690553880610519565b830151845588959093019260209283019201610508565b858d527fc2575a0e9e593c00f959f8c92f12db2869c3395a3b0502d05e2516446f71f85b84808401851c820192602085106105ad575b01841c019085908e5b8382106105a2575050506102c5565b81550185908e610593565b9250819261058a565b90508a015138610293565b848d528492507fb10e2d527612073b26eecdfd717e6a320cf44b4afac2b0732d9fcbe2b7fa0cf690601f1983168e8e5b828210610626575050831161060d575b5050811b0182556102a6565b8c015160001960f88460031b161c191690553880610601565b8301518455879590930192602092830192018e6105f1565b838c527fb10e2d527612073b26eecdfd717e6a320cf44b4afac2b0732d9fcbe2b7fa0cf683808401871c82019260208510610695575b01861c019084905b82811061068a57505061027e565b8d815501849061067c565b92508192610674565b602489604186634e487b7160e01b835252fd5b606483602088519162461bcd60e51b8352820152601d60248201527f427573696e657373206e616d652063616e6e6f7420626520656d7074790000006044820152fd5b8680fd5b8580fd5b8480fd5b8284346107c557806003193601126107c5575460055460ff1660065460075490610728610d2a565b610730610dc0565b610738610c91565b90610741610bd3565b92885198886001600160a01b038b9a168a5260208a019060a01c60ff169061076891610ae2565b61012080918a0152880161077b91610b05565b878103606089015261078c91610b05565b868103608088015261079d91610b05565b85810360a08701526107ae91610b05565b92151560c085015260e08401526101008301520390f35b80fd5b50503461011157816003193601126101115760209060ff6005541690816107f2575b519015158152f35b600654421191506107ea565b50503461011157816003193601126101115761082f9061081c610dc0565b9051918291602083526020830190610b05565b0390f35b5050346101115781600319360112610111576020906006549051908152f35b5050346101115781600319360112610111576020906007549051908152f35b50503461011157816003193601126101115761082f9061081c610d2a565b5050346101115781600319360112610111576001600160a01b0360209254169051908152f35b50503461011157816003193601126101115760207fed9ce302bc123fb971df5fd828d331af63b3bbe6a60d7144ddedbff7e033d7a0916109016001600160a01b03600854163314610eb5565b60055461091060ff8216610f26565b60ff19166005554260075551428152a180f35b50503461011157816003193601126101115761082f9061081c610c91565b50503461011157816003193601126101115760209060ff6005541690519015158152f35b50503461011157816003193601126101115761082f9061081c610bd3565b919050346101c857826003193601126101c8576001600160a01b03808454163314908115610a23575b50156109ba57824260075580f35b906020608492519162461bcd60e51b8352820152602d60248201527f4f6e6c79207374616b65686f6c646572206f722061646d696e2063616e20757060448201527f64617465206163746976697479000000000000000000000000000000000000006064820152fd5b9050600854163314386109ac565b838334610111576020366003190112610111578235838110156101c85760ff600554169283610a67575b60208484519015158152f35b9091925060ff815460a01c169084821015610a8a57506020935014908380610a5b565b80602186634e487b7160e01b6024945252fd5b50503461011157816003193601126101115761082f9061081c610f71565b849034610111578160031936011261011157610ae08160ff6020945460a01c16610ae2565bf35b906004821015610aef5752565b634e487b7160e01b600052602160045260246000fd5b919082519283825260005b848110610b31575050826000602080949584010152601f8019910116010190565b602081830181015184830182015201610b10565b90600182811c92168015610b75575b6020831014610b5f57565b634e487b7160e01b600052602260045260246000fd5b91607f1691610b54565b6040810190811067ffffffffffffffff821117610b9b57604052565b634e487b7160e01b600052604160045260246000fd5b90601f8019910116810190811067ffffffffffffffff821117610b9b57604052565b6040519060008260045491610be783610b45565b80835292600190818116908115610c6f5750600114610c10575b50610c0e92500383610bb1565b565b6004600090815291507f8a35acfbc15ff81a39ae7d344fd709f28e8600b4aa8c65c6b64bfe7fe36bd19b5b848310610c545750610c0e935050810160200138610c01565b81935090816020925483858a01015201910190918592610c3b565b905060209250610c0e94915060ff191682840152151560051b82010138610c01565b6040519060008260035491610ca583610b45565b80835292600190818116908115610c6f5750600114610ccb5750610c0e92500383610bb1565b6003600090815291507fc2575a0e9e593c00f959f8c92f12db2869c3395a3b0502d05e2516446f71f85b5b848310610d0f5750610c0e935050810160200138610c01565b81935090816020925483858a01015201910190918592610cf6565b60405190600082600191825492610d4084610b45565b80845293818116908115610c6f5750600114610d635750610c0e92500383610bb1565b600081815291507fb10e2d527612073b26eecdfd717e6a320cf44b4afac2b0732d9fcbe2b7fa0cf65b848310610da55750610c0e935050810160200138610c01565b81935090816020925483858a01015201910190918592610d8c565b6040519060008260025491610dd483610b45565b80835292600190818116908115610c6f5750600114610dfa5750610c0e92500383610bb1565b6002600090815291507f405787fa12a823e0f2b7631cc41b3ba8828b3321ca811111fa75cd3aa3bb5ace5b848310610e3e5750610c0e935050810160200138610c01565b81935090816020925483858a01015201910190918592610e25565b81601f82011215610eb05780359067ffffffffffffffff8211610b9b5760405192610e8e601f8401601f191660200185610bb1565b82845260208383010111610eb057816000926020809301838601378301015290565b600080fd5b15610ebc57565b608460405162461bcd60e51b815260206004820152602160248201527f4f6e6c792061646d696e2063616e2063616c6c20746869732066756e6374696f60448201527f6e000000000000000000000000000000000000000000000000000000000000006064820152fd5b15610f2d57565b606460405162461bcd60e51b815260206004820152601960248201527f5374616b65686f6c646572206973206e6f7420616374697665000000000000006044820152fd5b60ff60005460a01c166004811015610aef578015611086576001811461104c576002811461101257600314610fd957604051610fac81610b7f565b600781527f554e4b4e4f574e00000000000000000000000000000000000000000000000000602082015290565b604051610fe581610b7f565b600b81527f4449535452494255544f52000000000000000000000000000000000000000000602082015290565b5060405161101f81610b7f565b600881527f52455441494c4552000000000000000000000000000000000000000000000000602082015290565b5060405161105981610b7f565b600981527f50524f434553534f520000000000000000000000000000000000000000000000602082015290565b5060405161109381610b7f565b600681527f4641524d4552000000000000000000000000000000000000000000000000000060208201529056fea26469706673582212203888cadc654f0b333ab83a5ffa3e9e0bc8ae730e3e4f861a1bc5608b42389dc964736f6c63430008130033",
  "linkReferences": {},
  "deployedLinkReferences": {}
}