{
  "_format": "hh-sol-artifact-1",
  "contractName": "Registry",
  "sourceName": "src/SmartContracts/Registry.sol",
  "abi": [
    {
      "inputs": [
        {
          "internalType": "address",
          "name": "_stakeholderManager",
          "type": "address"
        }
      ],
      "stateMutability": "nonpayable",
      "type": "constructor"
    },
    {
      "anonymous": false,
      "inputs": [
        {
          "indexed": true,
          "internalType": "address",
          "name": "_product",
          "type": "address"
        }
      ],
      "name": "ProductRegistered",
      "type": "event"
    },
    {
      "anonymous": false,
      "inputs": [
        {
          "indexed": true,
          "internalType": "address",
          "name": "_shipment",
          "type": "address"
        },
        {
          "indexed": true,
          "internalType": "string",
          "name": "trackingNumber",
          "type": "string"
        },
        {
          "indexed": true,
          "internalType": "address",
          "name": "productAddress",
          "type": "address"
        },
        {
          "indexed": false,
          "internalType": "address",
          "name": "sender",
          "type": "address"
        },
        {
          "indexed": false,
          "internalType": "address",
          "name": "receiver",
          "type": "address"
        }
      ],
      "name": "ShipmentRegistered",
      "type": "event"
    },
    {
      "inputs": [],
      "name": "getAllProducts",
      "outputs": [
        {
          "internalType": "address[]",
          "name": "",
          "type": "address[]"
        }
      ],
      "stateMutability": "view",
      "type": "function"
    },
    {
      "inputs": [],
      "name": "getAllShipments",
      "outputs": [
        {
          "internalType": "address[]",
          "name": "",
          "type": "address[]"
        }
      ],
      "stateMutability": "view",
      "type": "function"
    },
    {
      "inputs": [
        {
          "internalType": "address",
          "name": "_stakeholderAddress",
          "type": "address"
        }
      ],
      "name": "getStakeholderInfo",
      "outputs": [
        {
          "components": [
            {
              "internalType": "address",
              "name": "stakeholderAddress",
              "type": "address"
            },
            {
              "internalType": "enum StakeholderManager.StakeholderRole",
              "name": "role",
              "type": "uint8"
            },
            {
              "internalType": "string",
              "name": "businessName",
              "type": "string"
            },
            {
              "internalType": "string",
              "name": "businessLicense",
              "type": "string"
            },
            {
              "internalType": "string",
              "name": "location",
              "type": "string"
            },
            {
              "internalType": "string",
              "name": "certifications",
              "type": "string"
            },
            {
              "internalType": "bool",
              "name": "isActive",
              "type": "bool"
            },
            {
              "internalType": "uint256",
              "name": "registeredAt",
              "type": "uint256"
            },
            {
              "internalType": "uint256",
              "name": "lastActivity",
              "type": "uint256"
            }
          ],
          "internalType": "struct StakeholderManager.StakeholderInfo",
          "name": "",
          "type": "tuple"
        }
      ],
      "stateMutability": "view",
      "type": "function"
    },
    {
      "inputs": [
        {
          "internalType": "enum StakeholderManager.StakeholderRole",
          "name": "_role",
          "type": "uint8"
        }
      ],
      "name": "getStakeholdersByRole",
      "outputs": [
        {
          "internalType": "address[]",
          "name": "",
          "type": "address[]"
        }
      ],
      "stateMutability": "view",
      "type": "function"
    },
    {
      "inputs": [],
      "name": "getTotalProducts",
      "outputs": [
        {
          "internalType": "uint256",
          "name": "",
          "type": "uint256"
        }
      ],
      "stateMutability": "view",
      "type": "function"
    },
    {
      "inputs": [],
      "name": "getTotalShipments",
      "outputs": [
        {
          "internalType": "uint256",
          "name": "",
          "type": "uint256"
        }
      ],
      "stateMutability": "view",
      "type": "function"
    },
    {
      "inputs": [
        {
          "internalType": "address",
          "name": "_stakeholderAddress",
          "type": "address"
        },
        {
          "internalType": "enum StakeholderManager.StakeholderRole",
          "name": "_role",
          "type": "uint8"
        }
      ],
      "name": "hasStakeholderRole",
      "outputs": [
        {
          "internalType": "bool",
          "name": "",
          "type": "bool"
        }
      ],
      "stateMutability": "view",
      "type": "function"
    },
    {
      "inputs": [
        {
          "internalType": "address",
          "name": "_entity",
          "type": "address"
        }
      ],
      "name": "isEntityRegistered",
      "outputs": [
        {
          "internalType": "bool",
          "name": "",
          "type": "bool"
        }
      ],
      "stateMutability": "view",
      "type": "function"
    },
    {
      "inputs": [
        {
          "internalType": "address",
          "name": "",
          "type": "address"
        }
      ],
      "name": "isRegistered",
      "outputs": [
        {
          "internalType": "bool",
          "name": "",
          "type": "bool"
        }
      ],
      "stateMutability": "view",
      "type": "function"
    },
    {
      "inputs": [
        {
          "internalType": "address",
          "name": "_stakeholderAddress",
          "type": "address"
        }
      ],
      "name": "isStakeholderRegistered",
      "outputs": [
        {
          "internalType": "bool",
          "name": "",
          "type": "bool"
        }
      ],
      "stateMutability": "view",
      "type": "function"
    },
    {
      "inputs": [
        {
          "internalType": "uint256",
          "name": "",
          "type": "uint256"
        }
      ],
      "name": "products",
      "outputs": [
        {
          "internalType": "address",
          "name": "",
          "type": "address"
        }
      ],
      "stateMutability": "view",
      "type": "function"
    },
    {
      "inputs": [
        {
          "internalType": "address",
          "name": "_product",
          "type": "address"
        }
      ],
      "name": "registerProduct",
      "outputs": [],
      "stateMutability": "nonpayable",
      "type": "function"
    },
    {
      "inputs": [
        {
          "internalType": "address",
          "name": "_shipment",
          "type": "address"
        },
        {
          "internalType": "string",
          "name": "_trackingNumber",
          "type": "string"
        },
        {
          "internalType": "address",
          "name": "_productAddress",
          "type": "address"
        },
        {
          "internalType": "address",
          "name": "_sender",
          "type": "address"
        },
        {
          "internalType": "address",
          "name": "_receiver",
          "type": "address"
        }
      ],
      "name": "registerShipment",
      "outputs": [],
      "stateMutability": "nonpayable",
      "type": "function"
    },
    {
      "inputs": [
        {
          "internalType": "uint256",
          "name": "",
          "type": "uint256"
        }
      ],
      "name": "shipments",
      "outputs": [
        {
          "internalType": "address",
          "name": "",
          "type": "address"
        }
      ],
      "stateMutability": "view",
      "type": "function"
    },
    {
      "inputs": [],
      "name": "stakeholderManager",
      "outputs": [
        {
          "internalType": "contract StakeholderManager",
          "name": "",
          "type": "address"
        }
      ],
      "stateMutability": "view",
      "type": "function"
    }
  ],
  "bytecode": "0x60803461007457601f61108438819003918201601f19168301916001600160401b038311848410176100795780849260209460405283398101031261007457516001600160a01b0381169081900361007457600080546001600160a01b031916919091179055604051610ff490816100908239f35b600080fd5b634e487b7160e01b600052604160045260246000fdfe608060408181526004918236101561001657600080fd5b60009260e08435811c92836302ee3a5214610d54575082631d98a84114610cb15782632ac08a9314610c585782632d46f5df14610b0b578263494dad6c14610a7e57826353d4714e14610936578263570aea8a146109165782635a022e301461052457826360415a37146104fd5782637acc0b20146104a4578263885301b214610484578263b4550b9c1461021657508163c3c5a547146101ed578163cdac3fa81461010a575063f7bde1da146100cc57600080fd5b346101065760203660031901126101065760ff816020936001600160a01b036100f3610e16565b1681526003855220541690519015158152f35b5080fd5b838334610106578060031936011261010657610124610e16565b6024359060058210156101e9579060446020926001600160a01b039261018184885416918751998a9687957f95a8c58d00000000000000000000000000000000000000000000000000000000875216908501526024840190610ea2565b5afa9182156101de57809261019d575b60208383519015158152f35b9091506020833d82116101d6575b816101b860209383610e64565b810103126101d357506101cc602092610f58565b9083610191565b80fd5b3d91506101ab565b9051903d90823e3d90fd5b8380fd5b5050346101065760203660031901126101065760ff816020936001600160a01b036100f3610e16565b915091346101e95760209283600319360112610470579360249394610239610e16565b9280519261024684610e31565b808452808885015280606095868487015286808701528660808701528660a08701528160c0870152818887015281610100809701526001600160a01b0398899182845416865197889485937fb4550b9c00000000000000000000000000000000000000000000000000000000855216908301525afa92831561047857819361036c575b5050806102ed61034f9251988998818a52855116818a015284015182890190610ea2565b8201519361033a61032661030e6101209788858c01526101408b0190610ee8565b9285015192601f1993848b83030160808c0152610ee8565b6080850151838a83030160a08b0152610ee8565b9060a0840151908883030160c0890152610ee8565b9360c0820151151581870152810151828601520151908301520390f35b909192503d8083833e61037f8183610e64565b8101888282031261047457815167ffffffffffffffff92838211610470570191610120838303126101e9578451936103b685610e31565b6103bf84610f65565b85528a8401516005811015610106578b8601528584015182811161010657836103e9918601610f79565b86860152878401518281116101065783610404918601610f79565b8886015260808401518281116101065783610420918601610f79565b608086015260a08401519182116101d3575091610444869261034f95948301610f79565b60a084015261045560c08201610f58565b60c084015287810151888401520151848201529190386102c9565b8480fd5b8280fd5b509051903d90823e3d90fd5b505050346101065781600319360112610106576020906002549051908152f35b509050346104745760203660031901126104745735600154811015610474576001600160a01b03906001602094527fb10e2d527612073b26eecdfd717e6a320cf44b4afac2b0732d9fcbe2b7fa0cf60154169051908152f35b505050346101065781600319360112610106576001600160a01b0360209254169051908152f35b848285346104745760a036600319011261047457610540610e16565b60249182359267ffffffffffffffff8411610912573660238501121561091257838501359061056e82610e86565b9161057b84519384610e64565b8083528760209687850192368582840101116104745780858a93018537850101526044928335976001600160a01b0393848a16809a0361090e57606480359686881680980361090a57608435968d8189168099036101d3578a60ff9160038f9e85169e8f8352522054166108cb576105f48d1515610f0d565b881561088c57871561084d578b8e91825416918b5163c3c5a54760e01b928382528c89830152818881875afa9182156108425791610809575b50156107c957908c8f92868d518094819382528d8b8301525afa9182156107be5791610785575b5015610747575050878b5260038952868b20805460ff19166001179055600254916801000000000000000083101561073657600183018060025583101561072557505060028a527f405787fa12a823e0f2b7631cc41b3ba8828b3321ca811111fa75cd3aa3bb5ace01805473ffffffffffffffffffffffffffffffffffffffff191687179055845190517f6e6ee18c450d629d69a286348f71f638054837fd2b42b33c3ee44b0de04423fe959493928291906107139082908490610ec5565b8101039020958351928352820152a480f35b60328c91634e487b7160e01b835252fd5b60418c91634e487b7160e01b835252fd5b60177f5265636569766572206e6f7420726567697374657265640000000000000000009294938c8b519562461bcd60e51b8752860152840152820152fd5b90508b81813d83116107b7575b61079c8183610e64565b810103126107b3576107ad90610f58565b8e610654565b8d80fd5b503d610792565b8b51903d90823e3d90fd5b505060157f53656e646572206e6f74207265676973746572656400000000000000000000009294938c8b519562461bcd60e51b8752860152840152820152fd5b90508d81813d831161083b575b6108208183610e64565b810103126108375761083190610f58565b3861062d565b8f80fd5b503d610816565b8d51903d90823e3d90fd5b5060187f496e76616c6964207265636569766572206164647265737300000000000000009294938c8b519562461bcd60e51b8752860152840152820152fd5b5060167f496e76616c69642073656e6465722061646472657373000000000000000000009294938c8b519562461bcd60e51b8752860152840152820152fd5b50601b7f536869706d656e7420616c7265616479207265676973746572656400000000009294938c8b519562461bcd60e51b8752860152840152820152fd5b8c80fd5b8a80fd5b8580fd5b505050346101065781600319360112610106576020906001549051908152f35b50838334610106576020806003193601126104745783359360058510156101e9578361099c60246001600160a01b0383541697865198899384927f53d4714e00000000000000000000000000000000000000000000000000000000845287840190610ea2565b5afa938415610a735780946109bd575b8351806109b98782610dd2565b0390f35b90919293503d8082873e6109d18187610e64565b850191838684031261010657855167ffffffffffffffff968782116101e957019083601f83011215610474578151968711610a6057508560051b91855196610a1b86850189610e64565b875284808801938301019384116101d357508301905b828210610a4957505050506109b991908380806109ac565b838091610a5584610f65565b815201910190610a31565b826041602492634e487b7160e01b835252fd5b8351903d90823e3d90fd5b8385346101d357806003193601126101d3578151918291600254808552602080950194600283527f405787fa12a823e0f2b7631cc41b3ba8828b3321ca811111fa75cd3aa3bb5ace92905b828210610aeb576109b98686610ae1828b0383610e64565b5191829182610dd2565b83546001600160a01b031687529586019560019384019390910190610ac9565b50905034610474576020366003190112610474576001600160a01b03610b2f610e16565b1691828452600360205260ff8185205416610c1557610b4f831515610f0d565b82845260036020528320600160ff198254161790556001549068010000000000000000821015610c02576001820180600155821015610bef57507fb10e2d527612073b26eecdfd717e6a320cf44b4afac2b0732d9fcbe2b7fa0cf6018173ffffffffffffffffffffffffffffffffffffffff198254161790557f920d77a54099038b3ca6972f73124a7718c2061858d10a6232403512ffe6ad7e8280a280f35b836032602492634e487b7160e01b835252fd5b836041602492634e487b7160e01b835252fd5b906020606492519162461bcd60e51b8352820152601a60248201527f50726f6475637420616c726561647920726567697374657265640000000000006044820152fd5b509050346104745760203660031901126104745735600254811015610474576001600160a01b03906002602094527f405787fa12a823e0f2b7631cc41b3ba8828b3321ca811111fa75cd3aa3bb5ace0154169051908152f35b5083833461010657602092836003193601126104745783610cd0610e16565b60246001600160a01b0391828754168651958694859363c3c5a54760e01b855216908301525afa928315610d49578093610d0f575b5050519015158152f35b909192508382813d8311610d42575b610d288183610e64565b810103126101d35750610d3a90610f58565b908380610d05565b503d610d1e565b8251903d90823e3d90fd5b85908534610474578260031936011261047457600180548084528185526020808501957fb10e2d527612073b26eecdfd717e6a320cf44b4afac2b0732d9fcbe2b7fa0cf69392915b828210610db4576109b98787610ae1828c0383610e64565b84546001600160a01b03168852968701969383019390830190610d9c565b6020908160408183019282815285518094520193019160005b828110610df9575050505090565b83516001600160a01b031685529381019392810192600101610deb565b600435906001600160a01b0382168203610e2c57565b600080fd5b610120810190811067ffffffffffffffff821117610e4e57604052565b634e487b7160e01b600052604160045260246000fd5b90601f8019910116810190811067ffffffffffffffff821117610e4e57604052565b67ffffffffffffffff8111610e4e57601f01601f191660200190565b906005821015610eaf5752565b634e487b7160e01b600052602160045260246000fd5b60005b838110610ed85750506000910152565b8181015183820152602001610ec8565b90602091610f0181518092818552858086019101610ec5565b601f01601f1916010190565b15610f1457565b606460405162461bcd60e51b815260206004820152601760248201527f496e76616c69642070726f6475637420616464726573730000000000000000006044820152fd5b51908115158203610e2c57565b51906001600160a01b0382168203610e2c57565b81601f82011215610e2c578051610f8f81610e86565b92610f9d6040519485610e64565b81845260208284010111610e2c57610fbb9160208085019101610ec5565b9056fea26469706673582212203c6a7fcc7fa6ce8ff38775d98c9eb9d48bc07c31798e34e281c518c37b76c35b64736f6c63430008130033",
  "linkReferences": {},
  "deployedLinkReferences": {}
}