{
  "_format": "hh-sol-artifact-1",
  "contractName": "Registry",
  "sourceName": "src/SmartContracts/Registry.sol",
  "abi": [
    {
      "anonymous": false,
      "inputs": [
        {
          "indexed": true,
          "internalType": "address",
          "name": "_product",
          "type": "address"
        }
      ],
      "name": "ProductRegistered",
      "type": "event"
    },
    {
      "anonymous": false,
      "inputs": [
        {
          "indexed": true,
          "internalType": "address",
          "name": "_shipment",
          "type": "address"
        },
        {
          "indexed": true,
          "internalType": "string",
          "name": "trackingNumber",
          "type": "string"
        },
        {
          "indexed": true,
          "internalType": "address",
          "name": "productAddress",
          "type": "address"
        },
        {
          "indexed": false,
          "internalType": "address",
          "name": "sender",
          "type": "address"
        },
        {
          "indexed": false,
          "internalType": "address",
          "name": "receiver",
          "type": "address"
        }
      ],
      "name": "ShipmentRegistered",
      "type": "event"
    },
    {
      "anonymous": false,
      "inputs": [
        {
          "indexed": true,
          "internalType": "address",
          "name": "_stakeholderContract",
          "type": "address"
        },
        {
          "indexed": true,
          "internalType": "string",
          "name": "businessLicense",
          "type": "string"
        },
        {
          "indexed": true,
          "internalType": "address",
          "name": "stakeholderAddress",
          "type": "address"
        },
        {
          "indexed": false,
          "internalType": "enum Stakeholder.StakeholderRole",
          "name": "role",
          "type": "uint8"
        }
      ],
      "name": "StakeholderRegistered",
      "type": "event"
    },
    {
      "inputs": [],
      "name": "getAllProducts",
      "outputs": [
        {
          "internalType": "address[]",
          "name": "",
          "type": "address[]"
        }
      ],
      "stateMutability": "view",
      "type": "function"
    },
    {
      "inputs": [],
      "name": "getAllShipments",
      "outputs": [
        {
          "internalType": "address[]",
          "name": "",
          "type": "address[]"
        }
      ],
      "stateMutability": "view",
      "type": "function"
    },
    {
      "inputs": [],
      "name": "getAllStakeholders",
      "outputs": [
        {
          "internalType": "address[]",
          "name": "",
          "type": "address[]"
        }
      ],
      "stateMutability": "view",
      "type": "function"
    },
    {
      "inputs": [
        {
          "internalType": "string",
          "name": "_businessLicense",
          "type": "string"
        }
      ],
      "name": "getStakeholderByLicense",
      "outputs": [
        {
          "internalType": "address",
          "name": "",
          "type": "address"
        }
      ],
      "stateMutability": "view",
      "type": "function"
    },
    {
      "inputs": [
        {
          "internalType": "address",
          "name": "_stakeholderAddress",
          "type": "address"
        }
      ],
      "name": "getStakeholderByWallet",
      "outputs": [
        {
          "internalType": "address",
          "name": "",
          "type": "address"
        }
      ],
      "stateMutability": "view",
      "type": "function"
    },
    {
      "inputs": [
        {
          "internalType": "enum Stakeholder.StakeholderRole",
          "name": "_role",
          "type": "uint8"
        }
      ],
      "name": "getStakeholdersByRole",
      "outputs": [
        {
          "internalType": "address[]",
          "name": "",
          "type": "address[]"
        }
      ],
      "stateMutability": "view",
      "type": "function"
    },
    {
      "inputs": [],
      "name": "getTotalProducts",
      "outputs": [
        {
          "internalType": "uint256",
          "name": "",
          "type": "uint256"
        }
      ],
      "stateMutability": "view",
      "type": "function"
    },
    {
      "inputs": [],
      "name": "getTotalShipments",
      "outputs": [
        {
          "internalType": "uint256",
          "name": "",
          "type": "uint256"
        }
      ],
      "stateMutability": "view",
      "type": "function"
    },
    {
      "inputs": [
        {
          "internalType": "address",
          "name": "_entity",
          "type": "address"
        }
      ],
      "name": "isEntityRegistered",
      "outputs": [
        {
          "internalType": "bool",
          "name": "",
          "type": "bool"
        }
      ],
      "stateMutability": "view",
      "type": "function"
    },
    {
      "inputs": [
        {
          "internalType": "address",
          "name": "",
          "type": "address"
        }
      ],
      "name": "isRegistered",
      "outputs": [
        {
          "internalType": "bool",
          "name": "",
          "type": "bool"
        }
      ],
      "stateMutability": "view",
      "type": "function"
    },
    {
      "inputs": [
        {
          "internalType": "string",
          "name": "",
          "type": "string"
        }
      ],
      "name": "licenseToStakeholder",
      "outputs": [
        {
          "internalType": "address",
          "name": "",
          "type": "address"
        }
      ],
      "stateMutability": "view",
      "type": "function"
    },
    {
      "inputs": [
        {
          "internalType": "uint256",
          "name": "",
          "type": "uint256"
        }
      ],
      "name": "products",
      "outputs": [
        {
          "internalType": "address",
          "name": "",
          "type": "address"
        }
      ],
      "stateMutability": "view",
      "type": "function"
    },
    {
      "inputs": [
        {
          "internalType": "address",
          "name": "_product",
          "type": "address"
        }
      ],
      "name": "registerProduct",
      "outputs": [],
      "stateMutability": "nonpayable",
      "type": "function"
    },
    {
      "inputs": [
        {
          "internalType": "address",
          "name": "_shipment",
          "type": "address"
        },
        {
          "internalType": "string",
          "name": "_trackingNumber",
          "type": "string"
        },
        {
          "internalType": "address",
          "name": "_productAddress",
          "type": "address"
        },
        {
          "internalType": "address",
          "name": "_sender",
          "type": "address"
        },
        {
          "internalType": "address",
          "name": "_receiver",
          "type": "address"
        }
      ],
      "name": "registerShipment",
      "outputs": [],
      "stateMutability": "nonpayable",
      "type": "function"
    },
    {
      "inputs": [
        {
          "internalType": "address",
          "name": "_stakeholderContract",
          "type": "address"
        },
        {
          "internalType": "string",
          "name": "_businessLicense",
          "type": "string"
        },
        {
          "internalType": "address",
          "name": "_stakeholderAddress",
          "type": "address"
        },
        {
          "internalType": "enum Stakeholder.StakeholderRole",
          "name": "_role",
          "type": "uint8"
        }
      ],
      "name": "registerStakeholder",
      "outputs": [],
      "stateMutability": "nonpayable",
      "type": "function"
    },
    {
      "inputs": [
        {
          "internalType": "uint256",
          "name": "",
          "type": "uint256"
        }
      ],
      "name": "shipments",
      "outputs": [
        {
          "internalType": "address",
          "name": "",
          "type": "address"
        }
      ],
      "stateMutability": "view",
      "type": "function"
    },
    {
      "inputs": [
        {
          "internalType": "uint256",
          "name": "",
          "type": "uint256"
        }
      ],
      "name": "stakeholders",
      "outputs": [
        {
          "internalType": "address",
          "name": "",
          "type": "address"
        }
      ],
      "stateMutability": "view",
      "type": "function"
    },
    {
      "inputs": [
        {
          "internalType": "enum Stakeholder.StakeholderRole",
          "name": "",
          "type": "uint8"
        },
        {
          "internalType": "uint256",
          "name": "",
          "type": "uint256"
        }
      ],
      "name": "stakeholdersByRole",
      "outputs": [
        {
          "internalType": "address",
          "name": "",
          "type": "address"
        }
      ],
      "stateMutability": "view",
      "type": "function"
    },
    {
      "inputs": [
        {
          "internalType": "address",
          "name": "",
          "type": "address"
        }
      ],
      "name": "walletToStakeholderContract",
      "outputs": [
        {
          "internalType": "address",
          "name": "",
          "type": "address"
        }
      ],
      "stateMutability": "view",
      "type": "function"
    }
  ],
  "bytecode": "0x6080806040523461001657610d64908161001c8239f35b600080fdfe608060408181526004918236101561001657600080fd5b600092833560e01c91826302ee3a5214610b25575081631d6b8b7214610acd5781632ac08a9314610a755781632d46f5df146109365781632f920d60146108b357816331a1fad8146105a1578163469e95a914610134578163494dad6c1461052057816353d4714e1461049b578163570aea8a1461047e5781635a022e30146102c75781637acc0b201461026d578163885301b21461024e578163bed652ac146101f8578163c3c5a547146101cf578163c6af209b14610195578163d27b59ff14610195578163f56196e214610134575063f7bde1da146100f657600080fd5b346101305760203660031901126101305760ff816020936001600160a01b0361011d610c14565b1681526003855220541690519015158152f35b5080fd5b8284346101925760203660031901126101925782359067ffffffffffffffff82116101925750610182602080946101766001600160a01b039436908301610c7d565b90855193848093610cd4565b9081520301902054169051908152f35b80fd5b50503461013057602036600319011261013057602091816001600160a01b0391826101be610c14565b168152600585522054169051908152f35b5050346101305760203660031901126101305760ff816020936001600160a01b0361011d610c14565b8284346101925781600319360112610192578235928310156101925761022060243593610cff565b908154841015610192575061023f6020936001600160a01b0392610be6565b92905490519260031b1c168152f35b5050346101305781600319360112610130576020906001549051908152f35b9050346102c35760203660031901126102c3573582548110156102c3576001600160a01b039083602094527f290decd9548b62a8d60345a988386fc84ba6bc95484008f6362f93160ef3e5630154169051908152f35b8280fd5b8383346101305760a0366003190112610130576102e2610c14565b60243567ffffffffffffffff811161047a576103019036908601610c7d565b610309610c2f565b92606435936001600160a01b0390818616809603610476576084359482861680960361047257821693848852600360205260ff848920541661042f578488526003602052838820600160ff198254161790556001546801000000000000000081101561041c576001810180600155811015610409577f6e6ee18c450d629d69a286348f71f638054837fd2b42b33c3ee44b0de04423fe949392916103f59160018b527fb10e2d527612073b26eecdfd717e6a320cf44b4afac2b0732d9fcbe2b7fa0cf6018773ffffffffffffffffffffffffffffffffffffffff19825416179055845191828092610cd4565b03902095835197885260208801521694a480f35b60248960328c634e487b7160e01b835252fd5b60248960418c634e487b7160e01b835252fd5b606489602086519162461bcd60e51b8352820152601b60248201527f536869706d656e7420616c7265616479207265676973746572656400000000006044820152fd5b8780fd5b8680fd5b8380fd5b505034610130578160031936011261013057602091549051908152f35b919050346102c3576020918260031936011261047a5780359081101561047a576104c490610cff565b9281518093808654928381520195835280832092905b828210610500576104fc86866104f2828b0383610c45565b5191829182610ba2565b0390f35b83546001600160a01b0316875295860195600193840193909101906104da565b8284346101925780600319360112610192578151918291600180548086526020809601958284527fb10e2d527612073b26eecdfd717e6a320cf44b4afac2b0732d9fcbe2b7fa0cf693905b828210610583576104fc87876104f2828c0383610c45565b84546001600160a01b0316885296870196938301939083019061056b565b919050346102c35760803660031901126102c3576105bd610c14565b602490813567ffffffffffffffff81116108af576105de9036908601610c7d565b906105e7610c2f565b916064359186831015610472576001600160a01b03809116948589526020946003865260ff888b20541661086e5782885187816106248189610cd4565b8d815203019020541661080757821697888a526005865282888b2054166107a157868a5260038652878a20805460ff191660011790556002546801000000000000000092908381101561078f57600181018060025581101561077d5760028c527f405787fa12a823e0f2b7631cc41b3ba8828b3321ca811111fa75cd3aa3bb5ace0173ffffffffffffffffffffffffffffffffffffffff19908982825416179055895188816106d3818a610cd4565b8681520301902089828254161790558a8c5260058852888a8d20918254161790556106fd86610cff565b9182549384101561076c57505091610742826107609460017fe9bb469f94dbf6276ba933c0ea3dbd7aaacec3b1790f2723b2a3f6a8c1846c6599989795018155610be6565b819291549060031b9189831b921b1916179055865191828092610cd4565b0390209451908152a480f35b60418c91634e487b7160e01b835252fd5b508a603283634e487b7160e01b835252fd5b508a604183634e487b7160e01b835252fd5b602a608492878a519362461bcd60e51b85528401528201527f5374616b65686f6c646572206164647265737320616c7265616479206861732060448201527f6120636f6e7472616374000000000000000000000000000000000000000000006064820152fd5b608489602384898c519362461bcd60e51b85528401528201527f427573696e657373206c6963656e736520616c7265616479207265676973746560448201527f72656400000000000000000000000000000000000000000000000000000000006064820152fd5b606489601e84898c519362461bcd60e51b85528401528201527f5374616b65686f6c64657220616c7265616479207265676973746572656400006044820152fd5b8580fd5b8284346101925780600319360112610192578151918291600254808552602080950194600283527f405787fa12a823e0f2b7631cc41b3ba8828b3321ca811111fa75cd3aa3bb5ace92905b828210610916576104fc86866104f2828b0383610c45565b83546001600160a01b0316875295860195600193840193909101906108fe565b9050346102c35760203660031901126102c3576001600160a01b03610959610c14565b1691828452600360205260ff8185205416610a325782845260036020528320805460ff1916600117905582549068010000000000000000821015610a1f5760018201808555821015610a0c57507f290decd9548b62a8d60345a988386fc84ba6bc95484008f6362f93160ef3e563018173ffffffffffffffffffffffffffffffffffffffff198254161790557f920d77a54099038b3ca6972f73124a7718c2061858d10a6232403512ffe6ad7e8280a280f35b836032602492634e487b7160e01b835252fd5b836041602492634e487b7160e01b835252fd5b906020606492519162461bcd60e51b8352820152601a60248201527f50726f6475637420616c726561647920726567697374657265640000000000006044820152fd5b9050346102c35760203660031901126102c357356001548110156102c3576001600160a01b03906001602094527fb10e2d527612073b26eecdfd717e6a320cf44b4afac2b0732d9fcbe2b7fa0cf60154169051908152f35b9050346102c35760203660031901126102c357356002548110156102c3576001600160a01b03906002602094527f405787fa12a823e0f2b7631cc41b3ba8828b3321ca811111fa75cd3aa3bb5ace0154169051908152f35b849084346102c357826003193601126102c35782548083528380526020808401947f290decd9548b62a8d60345a988386fc84ba6bc95484008f6362f93160ef3e56392915b828210610b82576104fc86866104f2828b0383610c45565b83546001600160a01b031687529586019560019384019390910190610b6a565b6020908160408183019282815285518094520193019160005b828110610bc9575050505090565b83516001600160a01b031685529381019392810192600101610bbb565b8054821015610bfe5760005260206000200190600090565b634e487b7160e01b600052603260045260246000fd5b600435906001600160a01b0382168203610c2a57565b600080fd5b604435906001600160a01b0382168203610c2a57565b90601f8019910116810190811067ffffffffffffffff821117610c6757604052565b634e487b7160e01b600052604160045260246000fd5b81601f82011215610c2a5780359067ffffffffffffffff8211610c675760405192610cb2601f8401601f191660200185610c45565b82845260208383010111610c2a57816000926020809301838601378301015290565b9081519160005b838110610cec575050016000815290565b8060208092840101518185015201610cdb565b6004811015610d18576000526006602052604060002090565b634e487b7160e01b600052602160045260246000fdfea2646970667358221220ffbbcc2490e901b6cc4eb181dd9084f44c0fe64af60edeb90be8c0ce6f84d2f664736f6c63430008130033",
  "linkReferences": {},
  "deployedLinkReferences": {}
}