{
  "_format": "hh-sol-artifact-1",
  "contractName": "PublicVerification",
  "sourceName": "src/SmartContracts/PublicVerification.sol",
  "abi": [
    {
      "inputs": [
        {
          "internalType": "address",
          "name": "_stakeholderRegistryAddress",
          "type": "address"
        },
        {
          "internalType": "address",
          "name": "_registryAddress",
          "type": "address"
        }
      ],
      "stateMutability": "nonpayable",
      "type": "constructor"
    },
    {
      "anonymous": false,
      "inputs": [
        {
          "indexed": true,
          "internalType": "address",
          "name": "auditor",
          "type": "address"
        },
        {
          "indexed": true,
          "internalType": "address",
          "name": "productAddress",
          "type": "address"
        },
        {
          "indexed": false,
          "internalType": "string",
          "name": "auditResult",
          "type": "string"
        },
        {
          "indexed": false,
          "internalType": "uint256",
          "name": "timestamp",
          "type": "uint256"
        }
      ],
      "name": "AuditPerformed",
      "type": "event"
    },
    {
      "anonymous": false,
      "inputs": [
        {
          "indexed": true,
          "internalType": "address",
          "name": "productAddress",
          "type": "address"
        },
        {
          "indexed": true,
          "internalType": "address",
          "name": "verifier",
          "type": "address"
        },
        {
          "indexed": false,
          "internalType": "uint256",
          "name": "timestamp",
          "type": "uint256"
        }
      ],
      "name": "ProductVerificationRequested",
      "type": "event"
    },
    {
      "anonymous": false,
      "inputs": [
        {
          "indexed": true,
          "internalType": "address",
          "name": "shipmentAddress",
          "type": "address"
        },
        {
          "indexed": true,
          "internalType": "address",
          "name": "productAddress",
          "type": "address"
        },
        {
          "indexed": false,
          "internalType": "bool",
          "name": "isValid",
          "type": "bool"
        },
        {
          "indexed": false,
          "internalType": "uint256",
          "name": "timestamp",
          "type": "uint256"
        }
      ],
      "name": "ShipmentVerificationPerformed",
      "type": "event"
    },
    {
      "anonymous": false,
      "inputs": [
        {
          "indexed": true,
          "internalType": "address",
          "name": "productAddress",
          "type": "address"
        },
        {
          "indexed": false,
          "internalType": "bool",
          "name": "isAuthentic",
          "type": "bool"
        },
        {
          "indexed": false,
          "internalType": "string",
          "name": "details",
          "type": "string"
        },
        {
          "indexed": false,
          "internalType": "uint256",
          "name": "timestamp",
          "type": "uint256"
        }
      ],
      "name": "VerificationResult",
      "type": "event"
    },
    {
      "inputs": [
        {
          "internalType": "address",
          "name": "_productAddress",
          "type": "address"
        }
      ],
      "name": "findShipmentByProduct",
      "outputs": [
        {
          "internalType": "address",
          "name": "",
          "type": "address"
        }
      ],
      "stateMutability": "view",
      "type": "function"
    },
    {
      "inputs": [
        {
          "internalType": "string",
          "name": "_trackingNumber",
          "type": "string"
        }
      ],
      "name": "findShipmentByTrackingNumber",
      "outputs": [
        {
          "internalType": "address",
          "name": "",
          "type": "address"
        }
      ],
      "stateMutability": "view",
      "type": "function"
    },
    {
      "inputs": [
        {
          "internalType": "address",
          "name": "_productAddress",
          "type": "address"
        }
      ],
      "name": "getCompleteTraceabilityReport",
      "outputs": [
        {
          "internalType": "string",
          "name": "productName",
          "type": "string"
        },
        {
          "internalType": "address",
          "name": "farmer",
          "type": "address"
        },
        {
          "components": [
            {
              "internalType": "address",
              "name": "stakeholderAddress",
              "type": "address"
            },
            {
              "internalType": "enum Stakeholder.StakeholderRole",
              "name": "role",
              "type": "uint8"
            },
            {
              "internalType": "string",
              "name": "businessName",
              "type": "string"
            },
            {
              "internalType": "string",
              "name": "businessLicense",
              "type": "string"
            },
            {
              "internalType": "string",
              "name": "location",
              "type": "string"
            },
            {
              "internalType": "string",
              "name": "certifications",
              "type": "string"
            },
            {
              "internalType": "bool",
              "name": "isActive",
              "type": "bool"
            },
            {
              "internalType": "uint256",
              "name": "registeredAt",
              "type": "uint256"
            },
            {
              "internalType": "uint256",
              "name": "lastActivity",
              "type": "uint256"
            }
          ],
          "internalType": "struct PublicVerification.StakeholderInfo",
          "name": "farmerInfo",
          "type": "tuple"
        },
        {
          "components": [
            {
              "internalType": "address",
              "name": "stakeholderAddress",
              "type": "address"
            },
            {
              "internalType": "enum Stakeholder.StakeholderRole",
              "name": "role",
              "type": "uint8"
            },
            {
              "internalType": "string",
              "name": "businessName",
              "type": "string"
            },
            {
              "internalType": "string",
              "name": "businessLicense",
              "type": "string"
            },
            {
              "internalType": "string",
              "name": "location",
              "type": "string"
            },
            {
              "internalType": "string",
              "name": "certifications",
              "type": "string"
            },
            {
              "internalType": "bool",
              "name": "isActive",
              "type": "bool"
            },
            {
              "internalType": "uint256",
              "name": "registeredAt",
              "type": "uint256"
            },
            {
              "internalType": "uint256",
              "name": "lastActivity",
              "type": "uint256"
            }
          ],
          "internalType": "struct PublicVerification.StakeholderInfo",
          "name": "processorInfo",
          "type": "tuple"
        },
        {
          "components": [
            {
              "internalType": "address",
              "name": "stakeholderAddress",
              "type": "address"
            },
            {
              "internalType": "enum Stakeholder.StakeholderRole",
              "name": "role",
              "type": "uint8"
            },
            {
              "internalType": "string",
              "name": "businessName",
              "type": "string"
            },
            {
              "internalType": "string",
              "name": "businessLicense",
              "type": "string"
            },
            {
              "internalType": "string",
              "name": "location",
              "type": "string"
            },
            {
              "internalType": "string",
              "name": "certifications",
              "type": "string"
            },
            {
              "internalType": "bool",
              "name": "isActive",
              "type": "bool"
            },
            {
              "internalType": "uint256",
              "name": "registeredAt",
              "type": "uint256"
            },
            {
              "internalType": "uint256",
              "name": "lastActivity",
              "type": "uint256"
            }
          ],
          "internalType": "struct PublicVerification.StakeholderInfo",
          "name": "distributorInfo",
          "type": "tuple"
        },
        {
          "components": [
            {
              "internalType": "address",
              "name": "stakeholderAddress",
              "type": "address"
            },
            {
              "internalType": "enum Stakeholder.StakeholderRole",
              "name": "role",
              "type": "uint8"
            },
            {
              "internalType": "string",
              "name": "businessName",
              "type": "string"
            },
            {
              "internalType": "string",
              "name": "businessLicense",
              "type": "string"
            },
            {
              "internalType": "string",
              "name": "location",
              "type": "string"
            },
            {
              "internalType": "string",
              "name": "certifications",
              "type": "string"
            },
            {
              "internalType": "bool",
              "name": "isActive",
              "type": "bool"
            },
            {
              "internalType": "uint256",
              "name": "registeredAt",
              "type": "uint256"
            },
            {
              "internalType": "uint256",
              "name": "lastActivity",
              "type": "uint256"
            }
          ],
          "internalType": "struct PublicVerification.StakeholderInfo",
          "name": "retailerInfo",
          "type": "tuple"
        },
        {
          "internalType": "bool",
          "name": "isFullyTraced",
          "type": "bool"
        },
        {
          "internalType": "bool",
          "name": "hasShipment",
          "type": "bool"
        },
        {
          "internalType": "address",
          "name": "shipmentAddress",
          "type": "address"
        },
        {
          "components": [
            {
              "internalType": "uint256",
              "name": "timestamp",
              "type": "uint256"
            },
            {
              "internalType": "enum Shipment.ShipmentStatus",
              "name": "status",
              "type": "uint8"
            },
            {
              "internalType": "address",
              "name": "updater",
              "type": "address"
            },
            {
              "internalType": "string",
              "name": "trackingInfo",
              "type": "string"
            },
            {
              "internalType": "string",
              "name": "location",
              "type": "string"
            }
          ],
          "internalType": "struct Shipment.ShipmentUpdate[]",
          "name": "shipmentHistory",
          "type": "tuple[]"
        }
      ],
      "stateMutability": "view",
      "type": "function"
    },
    {
      "inputs": [
        {
          "internalType": "address",
          "name": "_shipmentAddress",
          "type": "address"
        }
      ],
      "name": "getShipmentInfo",
      "outputs": [
        {
          "internalType": "address",
          "name": "product",
          "type": "address"
        },
        {
          "internalType": "address",
          "name": "sender",
          "type": "address"
        },
        {
          "internalType": "address",
          "name": "receiver",
          "type": "address"
        },
        {
          "internalType": "string",
          "name": "trackingNumber",
          "type": "string"
        },
        {
          "internalType": "string",
          "name": "transportMode",
          "type": "string"
        },
        {
          "internalType": "enum Shipment.ShipmentStatus",
          "name": "status",
          "type": "uint8"
        },
        {
          "internalType": "uint256",
          "name": "createdAt",
          "type": "uint256"
        },
        {
          "internalType": "uint256",
          "name": "lastUpdated",
          "type": "uint256"
        },
        {
          "internalType": "bool",
          "name": "isActive",
          "type": "bool"
        }
      ],
      "stateMutability": "view",
      "type": "function"
    },
    {
      "inputs": [
        {
          "internalType": "address",
          "name": "_productAddress",
          "type": "address"
        }
      ],
      "name": "getTraceabilityReport",
      "outputs": [
        {
          "internalType": "string",
          "name": "productName",
          "type": "string"
        },
        {
          "internalType": "address",
          "name": "farmer",
          "type": "address"
        },
        {
          "components": [
            {
              "internalType": "address",
              "name": "stakeholderAddress",
              "type": "address"
            },
            {
              "internalType": "enum Stakeholder.StakeholderRole",
              "name": "role",
              "type": "uint8"
            },
            {
              "internalType": "string",
              "name": "businessName",
              "type": "string"
            },
            {
              "internalType": "string",
              "name": "businessLicense",
              "type": "string"
            },
            {
              "internalType": "string",
              "name": "location",
              "type": "string"
            },
            {
              "internalType": "string",
              "name": "certifications",
              "type": "string"
            },
            {
              "internalType": "bool",
              "name": "isActive",
              "type": "bool"
            },
            {
              "internalType": "uint256",
              "name": "registeredAt",
              "type": "uint256"
            },
            {
              "internalType": "uint256",
              "name": "lastActivity",
              "type": "uint256"
            }
          ],
          "internalType": "struct PublicVerification.StakeholderInfo",
          "name": "farmerInfo",
          "type": "tuple"
        },
        {
          "components": [
            {
              "internalType": "address",
              "name": "stakeholderAddress",
              "type": "address"
            },
            {
              "internalType": "enum Stakeholder.StakeholderRole",
              "name": "role",
              "type": "uint8"
            },
            {
              "internalType": "string",
              "name": "businessName",
              "type": "string"
            },
            {
              "internalType": "string",
              "name": "businessLicense",
              "type": "string"
            },
            {
              "internalType": "string",
              "name": "location",
              "type": "string"
            },
            {
              "internalType": "string",
              "name": "certifications",
              "type": "string"
            },
            {
              "internalType": "bool",
              "name": "isActive",
              "type": "bool"
            },
            {
              "internalType": "uint256",
              "name": "registeredAt",
              "type": "uint256"
            },
            {
              "internalType": "uint256",
              "name": "lastActivity",
              "type": "uint256"
            }
          ],
          "internalType": "struct PublicVerification.StakeholderInfo",
          "name": "processorInfo",
          "type": "tuple"
        },
        {
          "components": [
            {
              "internalType": "address",
              "name": "stakeholderAddress",
              "type": "address"
            },
            {
              "internalType": "enum Stakeholder.StakeholderRole",
              "name": "role",
              "type": "uint8"
            },
            {
              "internalType": "string",
              "name": "businessName",
              "type": "string"
            },
            {
              "internalType": "string",
              "name": "businessLicense",
              "type": "string"
            },
            {
              "internalType": "string",
              "name": "location",
              "type": "string"
            },
            {
              "internalType": "string",
              "name": "certifications",
              "type": "string"
            },
            {
              "internalType": "bool",
              "name": "isActive",
              "type": "bool"
            },
            {
              "internalType": "uint256",
              "name": "registeredAt",
              "type": "uint256"
            },
            {
              "internalType": "uint256",
              "name": "lastActivity",
              "type": "uint256"
            }
          ],
          "internalType": "struct PublicVerification.StakeholderInfo",
          "name": "distributorInfo",
          "type": "tuple"
        },
        {
          "components": [
            {
              "internalType": "address",
              "name": "stakeholderAddress",
              "type": "address"
            },
            {
              "internalType": "enum Stakeholder.StakeholderRole",
              "name": "role",
              "type": "uint8"
            },
            {
              "internalType": "string",
              "name": "businessName",
              "type": "string"
            },
            {
              "internalType": "string",
              "name": "businessLicense",
              "type": "string"
            },
            {
              "internalType": "string",
              "name": "location",
              "type": "string"
            },
            {
              "internalType": "string",
              "name": "certifications",
              "type": "string"
            },
            {
              "internalType": "bool",
              "name": "isActive",
              "type": "bool"
            },
            {
              "internalType": "uint256",
              "name": "registeredAt",
              "type": "uint256"
            },
            {
              "internalType": "uint256",
              "name": "lastActivity",
              "type": "uint256"
            }
          ],
          "internalType": "struct PublicVerification.StakeholderInfo",
          "name": "retailerInfo",
          "type": "tuple"
        },
        {
          "internalType": "bool",
          "name": "isFullyTraced",
          "type": "bool"
        }
      ],
      "stateMutability": "view",
      "type": "function"
    },
    {
      "inputs": [
        {
          "internalType": "address",
          "name": "_productAddress",
          "type": "address"
        },
        {
          "internalType": "string",
          "name": "_auditResult",
          "type": "string"
        }
      ],
      "name": "performAudit",
      "outputs": [],
      "stateMutability": "nonpayable",
      "type": "function"
    },
    {
      "inputs": [],
      "name": "registry",
      "outputs": [
        {
          "internalType": "contract Registry",
          "name": "",
          "type": "address"
        }
      ],
      "stateMutability": "view",
      "type": "function"
    },
    {
      "inputs": [],
      "name": "stakeholderRegistry",
      "outputs": [
        {
          "internalType": "contract StakeholderRegistry",
          "name": "",
          "type": "address"
        }
      ],
      "stateMutability": "view",
      "type": "function"
    },
    {
      "inputs": [
        {
          "internalType": "string",
          "name": "_trackingNumber",
          "type": "string"
        }
      ],
      "name": "trackShipmentByTrackingNumber",
      "outputs": [
        {
          "internalType": "address",
          "name": "shipmentAddress",
          "type": "address"
        },
        {
          "internalType": "address",
          "name": "productAddress",
          "type": "address"
        },
        {
          "internalType": "enum Product.ProductStage",
          "name": "productStage",
          "type": "uint8"
        },
        {
          "internalType": "enum Shipment.ShipmentStatus",
          "name": "shipmentStatus",
          "type": "uint8"
        },
        {
          "internalType": "string",
          "name": "productName",
          "type": "string"
        },
        {
          "internalType": "string",
          "name": "statusDescription",
          "type": "string"
        },
        {
          "internalType": "bool",
          "name": "isProductValid",
          "type": "bool"
        },
        {
          "internalType": "bool",
          "name": "isShipmentValid",
          "type": "bool"
        }
      ],
      "stateMutability": "view",
      "type": "function"
    },
    {
      "inputs": [
        {
          "internalType": "address",
          "name": "_productAddress",
          "type": "address"
        }
      ],
      "name": "verifyCompleteSupplyChain",
      "outputs": [
        {
          "internalType": "bool",
          "name": "isValid",
          "type": "bool"
        },
        {
          "internalType": "string",
          "name": "details",
          "type": "string"
        }
      ],
      "stateMutability": "nonpayable",
      "type": "function"
    },
    {
      "inputs": [
        {
          "internalType": "address",
          "name": "_productAddress",
          "type": "address"
        }
      ],
      "name": "verifyProductAuthenticity",
      "outputs": [
        {
          "internalType": "bool",
          "name": "isAuthentic",
          "type": "bool"
        },
        {
          "internalType": "string",
          "name": "details",
          "type": "string"
        }
      ],
      "stateMutability": "nonpayable",
      "type": "function"
    }
  ],
  "bytecode": "0x6080346200009657601f62002ab038819003918201601f19168301916001600160401b038311848410176200009b57808492604094855283398101031262000096576200005a60206200005283620000b1565b9201620000b1565b600080546001600160a01b039384166001600160a01b031991821617909155600180549290931691161790556040516129e99081620000c78239f35b600080fd5b634e487b7160e01b600052604160045260246000fd5b51906001600160a01b0382168203620000965756fe608080604052600436101561001357600080fd5b60003560e01c90816323feda0a14610e075750806345ce151514610de65780634d0d16b314610db1578063500bc5b014610c3557806360d69d7214610c125780636a8b2bd7146107755780637b1039991461074e578063b36e609f146106af578063bf3fa54d1461044b578063c31fc219146104045763cb21551c1461009857600080fd5b346102ab576020806003193601126102ab5760043567ffffffffffffffff81116102ab576100d8906100dd6001600160a01b039283923690600401610f86565b6128a5565b1691821561039a5760405190631c43118360e01b82528082600481875afa9182156102b757600092610363575b5060405192631006976960e11b84528184600481885afa9384156102b757600094610334575b50604051927f903ac798000000000000000000000000000000000000000000000000000000008452600084600481895afa9384156102b757600094610317575b501691604051906316fd755360e21b82528282600481875afa9182156102b7576000926102e8575b50604051946306fdde0360e01b8652600086600481885afa9586156102b7576000966102c3575b5060405194632bb3cb4560e21b86528486600481845afa9586156102b75760009661027b575b50600782101561025a5760048214948515610270575b604051988952880152600583101561025a57869561022961023a926102489560408a0152606089019061106a565b610100806080890152870190610e64565b9085820360a0870152610e64565b91151560c08401521560e08301520390f35b634e487b7160e01b600052602160045260246000fd5b6005831495506101fb565b9095508481813d83116102b0575b6102938183610f48565b810103126102ab576102a490611077565b94386101e5565b600080fd5b503d610289565b6040513d6000823e3d90fd5b6102e19196503d806000833e6102d98183610f48565b810190611e08565b94386101bf565b610309919250833d8511610310575b6103018183610f48565b810190611098565b9038610198565b503d6102f7565b61032d9194503d806000833e6102d98183610f48565b9238610170565b610355919450823d841161035c575b61034d8183610f48565b810190611acc565b9238610130565b503d610343565b9080925081813d8311610393575b61037b8183610f48565b810103126102ab5761038c90611084565b903861010a565b503d610371565b6084906040519062461bcd60e51b82526004820152602d60248201527f496e76616c696420747261636b696e67206e756d626572206f7220736869706d60448201527f656e74206e6f7420666f756e64000000000000000000000000000000000000006064820152fd5b346102ab5760203660031901126102ab5760043567ffffffffffffffff81116102ab5761043a6100d86020923690600401610f86565b6001600160a01b0360405191168152f35b346102ab576020806003193601126102ab57610465610e2b565b906001600160a01b039182828160015416926024604051809481937ff7bde1da00000000000000000000000000000000000000000000000000000000835216958660048301525afa9081156102b75760009161067a575b501561063657906000600492604051938480927f608ff4050000000000000000000000000000000000000000000000000000000082525afa80156102b757600092600080600087600092600097600095600097600099610577575b5083906040519c8d9c168c5216908a0152166040880152610120806060890152870161054291610e64565b868103608088015261055391610e64565b9360a086016105619161106a565b60c085015260e084015215156101008301520390f35b9a50509750505050505050503d806000843e6105938184610f48565b8201610120838203126102ab576105a983611084565b6105b4838501611084565b936105c160408201611084565b92606082015167ffffffffffffffff908181116102ab57826105e49185016110b0565b9160808401519182116102ab576105fc9184016110b0565b60a08301519160078310156102ab57889060c0850151978261062661010060e08901519801611077565b979a989294959996979890610517565b6064826040519062461bcd60e51b82526004820152601760248201527f536869706d656e74206e6f7420726567697374657265640000000000000000006044820152fd5b90508281813d83116106a8575b6106918183610f48565b810103126102ab576106a290611077565b846104bc565b503d610687565b346102ab5760203660031901126102ab5761072660e06107346107426107186106de6106d9610e2b565b611ee8565b98959a936001600160a01b0361070460409994979399519d8d8f9e8f9081520190610e64565b921660208c01528a820360408c0152610fcd565b9088820360608a0152610fcd565b908682036080880152610fcd565b9084820360a0860152610fcd565b90151560c08301520390f35b346102ab5760003660031901126102ab5760206001600160a01b0360015416604051908152f35b346102ab5760203660031901126102ab5761078e610e2b565b610796611dc1565b5061079f611dc1565b506107a8611dc1565b506107b1611dc1565b50600090606090604051907fb36e609f0000000000000000000000000000000000000000000000000000000082526001600160a01b0381166004830152600082602481305afa80156102b757600094600090600080600095600097600096610b36575b506108266001600160a01b0391612772565b16938461096e575b9897969493929190604051998a99610140808c528b0161084d91610e64565b906001600160a01b031660208b015289810360408b015261086d91610fcd565b88810360608a015261087e91610fcd565b94608095888103878a015261089291610fcd565b9360a094888103868a01526108a691610fcd565b92151560c0880152151560e087015261010086015284810361012086015283519182825260208201908360051b830160200195602001946000935b8585106108ee5788880389f35b919395975091939560208061095a600193601f198682030189528b51908151815261091f848301518583019061106a565b6001600160a01b0360408301511660408201528761094a60608401518b60608501528b840190610e64565b9201519088818403910152610e64565b9901950195019290918897969495926108e1565b6040517f1d60a29a000000000000000000000000000000000000000000000000000000008152909860019450600082600481895afa9182156102b7576000926109ba575b50509761082e565b9091503d90816000823e6109ce8282610f48565b60208183810103126102ab5780519067ffffffffffffffff82116102ab57828101601f8383010112156102ab578181015191610a0983612689565b94610a176040519687610f48565b838652602086019185840160208660051b8387010101116102ab57602081850101925b60208660051b83870101018410610a5957505050505050508a806109b2565b835167ffffffffffffffff81116102ab5760a0868401820189880103601f1901126102ab5760405191610a8b83610ea5565b8684018201602081015184526040015160078110156102ab576020840152610ab88583868a010101611084565b604084015260808285890101015167ffffffffffffffff81116102ab57610aeb9060208b8a019185888c010101016110b0565b8584015260a0828589010101519067ffffffffffffffff82116102ab57602093610b24898680969581968f8b90850194010101016110b0565b60808201528152019401939050610a3a565b965098505050935050503d806000833e610b508183610f48565b81019360e0828603126102ab57815167ffffffffffffffff908181116102ab5786610b7c9185016110b0565b93610b8960208501611084565b9660408501518381116102ab5781610ba29187016125a9565b92878601518181116102ab5782610bba9188016125a9565b9060808701518181116102ab5783610bd39189016125a9565b9260a08801519182116102ab57610c0360c0610bfc610826936001600160a01b03958c016125a9565b9901611077565b989a9592939798969150610814565b346102ab5760203660031901126102ab57602061043a610c30610e2b565b612772565b346102ab5760403660031901126102ab57610c4e610e2b565b60243567ffffffffffffffff81116102ab57610c6e903690600401610f86565b906001600160a01b0380600054169160405180937f75c81b7b00000000000000000000000000000000000000000000000000000000825233600483015281602460209687935afa9081156102b757600091610d7c575b5015610d1257907fe8862bff108980a0995d14137b0b1cdfd57056831c5bb5935aedce1a46a96adc91610d0260405195604087526040870190610e64565b93429086015216928033930390a3005b6084836040519062461bcd60e51b82526004820152602f60248201527f4f6e6c792072656769737465726564207374616b65686f6c646572732063616e60448201527f20706572666f726d2061756469747300000000000000000000000000000000006064820152fd5b90508381813d8311610daa575b610d938183610f48565b810103126102ab57610da490611077565b85610cc4565b503d610d89565b346102ab5760203660031901126102ab57610dd2610dcd610e2b565b6111e9565b90610de260405192839283610e89565b0390f35b346102ab5760203660031901126102ab57610dd2610e02610e2b565b611ae4565b346102ab5760003660031901126102ab576020906001600160a01b03600054168152f35b600435906001600160a01b03821682036102ab57565b60005b838110610e545750506000910152565b8181015183820152602001610e44565b90602091610e7d81518092818552858086019101610e41565b601f01601f1916010190565b604090610ea29392151581528160208201520190610e64565b90565b60a0810190811067ffffffffffffffff821117610ec157604052565b634e487b7160e01b600052604160045260246000fd5b610120810190811067ffffffffffffffff821117610ec157604052565b6060810190811067ffffffffffffffff821117610ec157604052565b6020810190811067ffffffffffffffff821117610ec157604052565b6040810190811067ffffffffffffffff821117610ec157604052565b90601f8019910116810190811067ffffffffffffffff821117610ec157604052565b67ffffffffffffffff8111610ec157601f01601f191660200190565b81601f820112156102ab57803590610f9d82610f6a565b92610fab6040519485610f48565b828452602083830101116102ab57816000926020809301838601378301015290565b906001600160a01b0382511681526020820151600481101561025a5760208201526110466110346110226110106040860151610120806040880152860190610e64565b60608601518582036060870152610e64565b60808501518482036080860152610e64565b60a084015183820360a0850152610e64565b9160c0810151151560c083015260e081015160e08301526101008091015191015290565b90600782101561025a5752565b519081151582036102ab57565b51906001600160a01b03821682036102ab57565b908160209103126102ab575160058110156102ab5790565b81601f820112156102ab5780516110c681610f6a565b926110d46040519485610f48565b818452602082840101116102ab57610ea29160208085019101610e41565b91908281039261014084126102ab57604080519260c084019567ffffffffffffffff9685811088821117610ec1578352849661112d85611084565b8652602085015163ffffffff811681036102ab576020870152838501519081116102ab5760a09261115f9186016110b0565b8386015260608401516060860152607f1901126102ab5760a0918161012092519061118982610ea5565b6080830151825284830151602083015260c08301519082015260e08201516060820152610100820151608082015260808501520151910152565b906020828203126102ab57815167ffffffffffffffff81116102ab57610ea292016110f2565b906001600160a01b03809216604092835190428252602091837f5b24ec9325290e90f98603e1cea596aeced3764cd98cf986481806902c417cac843393a3845190632bb3cb4560e21b825260049183818481885afa60009181611a95575b506112f55750505060607f973665348f42bfc7c7a342c88470083764bb1751a06ac27bbbeff69a4284648e9185519561127f87610ef4565b602887527f50726f64756374206e6f7420666f756e64206f7220766572696669636174696f828801527f6e206661696c6564000000000000000000000000000000000000000000000000818801528051928392600084528301526112e66060830188610e64565b9042908301520390a260009190565b156119fc57600190865161130881610f10565b6000815292875190630d811fcf60e41b8252858282818a5afa9182156119f1576000926119ba575b50826000541690895192847f30044bcc000000000000000000000000000000000000000000000000000000009182865216828501526024936000858201528881604481875afa90811561165357600091611985575b5015611944575b8a516316fd755360e21b8152888184818d5afa8c811561193a578b87918a9460009461191b575b5084806118fd575b6117c7575b84806117a9575b611687575b5050508161165e575b5061151d575b505050505060001461148e575060607f973665348f42bfc7c7a342c88470083764bb1751a06ac27bbbeff69a4284648e9185519561141887610ef4565b603287527f50726f647563742069732061757468656e74696320616e6420616c6c20737461828801527f6b65686f6c6465727320766572696669656400000000000000000000000000008188015280519283926001845283015261147f6060830188610e64565b9042908301520390a260019190565b937f973665348f42bfc7c7a342c88470083764bb1751a06ac27bbbeff69a4284648e918161150460376060945180997f50726f6475637420646174612076616c69642062757420000000000000000000868301526114f481518092888686019101610e41565b810103601781018a520188610f48565b8051928392600084528301526112e66060830188610e64565b8a5192632df9fd5160e01b845260038385015260008486818d5afa958615611653578994600097611630575b5063ffffffff8588015116151596876115b1575b50505050505050611573575b38808080806113db565b50506000845161158281610f2c565b601d81527f52657461696c657220726567697374726174696f6e20696e76616c69640000008382015290611569565b60449495969750906002915116968d51978896879586528501528301525afa908115611625576000916115ed575b50153884818080808061155d565b908482813d831161161e575b6116038183610f48565b8101031261161b575061161590611077565b386115df565b80fd5b503d6115f9565b87513d6000823e3d90fd5b61164c91973d8091833e6116448183610f48565b8101906111c3565b9538611549565b8c513d6000823e3d90fd5b905060058110156116735760031115386113d5565b84602184634e487b7160e01b600052526000fd5b6000929394505192838092632df9fd5160e01b82526002898301525afa90811561178557600091611790575b508663ffffffff8b830151161515918261171c575b50506116d9575b8690858b8e6113cc565b96509450600094858b516116ec81610f2c565b8981527f4469737472696275746f7220726567697374726174696f6e20696e76616c69648a8201529790506116cf565b518e5185815291168582015260038782015290508981604481885afa90811561178557600091611750575b501586386116c8565b908a82813d831161177e575b6117668183610f48565b8101031261161b575061177890611077565b38611747565b503d61175c565b8d513d6000823e3d90fd5b6117a3913d8091833e6116448183610f48565b386116b3565b50505050905060058110156116735780858b8e60028b9510156113c7565b91929350600090825193848092632df9fd5160e01b825260018a8301525afa80156118d9578c926000916118e4575b508863ffffffff8d8301511615159182611866575b505061181c575b88929187916113c0565b985050955060008096858b8a5161183281610f2c565b601e81527f50726f636573736f7220726567697374726174696f6e20696e76616c696400008d8201529a9150919250611812565b925092505051168c5190838252848201526001868201528c8a82604481895afa80156118d9578c9260009161189f575b5015883861180b565b925090508a82813d81116118d2575b6118b88183610f48565b8101031261161b57508c6118cc8c92611077565b38611896565b503d6118ae565b50513d6000823e3d90fd5b6118f7913d8091833e6116448183610f48565b386117f6565b50505050905060058110156116735780858b8e60018b9510156113bb565b6119339194508d803d10610310576103018183610f48565b92386113b3565b513d6000823e3d90fd5b95509350600093895161195681610f2c565b601b81527f4661726d657220726567697374726174696f6e20696e76616c69640000000000888201529561138c565b908982813d83116119b3575b61199b8183610f48565b8101031261161b57506119ad90611077565b38611385565b503d611991565b90918682813d83116119ea575b6119d18183610f48565b8101031261161b57506119e390611084565b9038611330565b503d6119c7565b89513d6000823e3d90fd5b505060607f973665348f42bfc7c7a342c88470083764bb1751a06ac27bbbeff69a4284648e91855195611a2e87610ef4565b602287527f50726f64756374206461746120696e7465677269747920636f6d70726f6d6973828801527f6564000000000000000000000000000000000000000000000000000000000000818801528051928392600084528301526112e66060830188610e64565b90918582813d8311611ac5575b611aac8183610f48565b8101031261161b5750611abe90611077565b9038611247565b503d611aa2565b908160209103126102ab575160078110156102ab5790565b906040918251907f4d0d16b30000000000000000000000000000000000000000000000000000000082526001600160a01b0380821691826004850152600093848160248183305af1908115611db75785908692611d61575b5015611d585750611b4c90612772565b16918215611cf557845192631006976960e11b84526020938481600481855afa908115611ceb578391611cce575b506007811015611cba5760048114908115611caf575b5015611c2157917f7373756573000000000000000000000000000000000000000000000000000000927fabaa20b5bf33f95d0ec3e91871efc88e95690b75be065f906fe7d560fe3a25988780518581524288820152a3937f50726f647563742076616c69642062757420736869706d656e74206861732069815193611c1485610ef4565b6025855284015282015290565b90507fabaa20b5bf33f95d0ec3e91871efc88e95690b75be065f906fe7d560fe3a2598858051600181524286820152a37f6564207375636365737366756c6c7900000000000000000000000000000000006001937f50726f6475637420616e6420736869706d656e7420626f746820766572696669815193611ca285610ef4565b602f855284015282015290565b600591501438611b90565b602483634e487b7160e01b81526021600452fd5b611ce59150853d871161035c5761034d8183610f48565b38611b7a565b87513d85823e3d90fd5b5050506001917f746120617661696c61626c650000000000000000000000000000000000000000815191611d2883610ef4565b602c83527f50726f647563742076657269666965642c206e6f20736869706d656e74206461602084015282015290565b95505050509190565b9150503d8086833e611d738183610f48565b81018782820312611db357611d8782611077565b9160208101519067ffffffffffffffff8211611daf57611da89291016110b0565b9038611b3c565b8780fd5b8580fd5b87513d87823e3d90fd5b60405190611dce82610ed7565b6000610100838281528260208201526060604082015260608082015260606080820152606060a08201528260c08201528260e08201520152565b906020828203126102ab57815167ffffffffffffffff81116102ab57610ea292016110b0565b91610120838303126102ab57611e4383611084565b92602081015160048110156102ab579260408201519167ffffffffffffffff928381116102ab5782611e769183016110b0565b9360608201518481116102ab5783611e8f9184016110b0565b9360808301518181116102ab5784611ea89185016110b0565b9360a08401519182116102ab57611ec09184016110b0565b91611ecd60c08201611077565b9161010060e083015192015190565b600482101561025a5752565b611ef0611dc1565b50611ef9611dc1565b50611f02611dc1565b50611f0b611dc1565b506040517f3820f3610000000000000000000000000000000000000000000000000000000081526000816004816001600160a01b0386165afa91600090600084600094600096612512575b50611f87575050505050611f68611dc1565b90604051611f7581610f10565b60008152916000918180918190600090565b604051956306fdde0360e01b87526000876004816001600160a01b0387165afa9687156102b7576000976124f5575b5060405196630d811fcf60e41b88526020886004816001600160a01b0388165afa9788156102b7576000986124b9575b50611fef611dc1565b96611ff8611dc1565b96612001611dc1565b9661200a611dc1565b96602082019163ffffffff8351166123f2575b5063ffffffff602088015116612325575b602083019263ffffffff845116612252575b50602084019363ffffffff85511661216e575b509060206001600160a01b0393926004604051809681936316fd755360e21b8352165afa9283156102b757600093612147575b505163ffffffff1615159586612115575b50856120e3575b50846120b0575b505096959493929190565b90919350600581101561025a57600210908115916120d2575b509138806120a5565b63ffffffff915051161515386120c9565b909450600585101561025a576001851190811591612104575b50933861209e565b63ffffffff915051161515386120fc565b909550600582101561025a578115908115612133575b509438612097565b63ffffffff9150602001511615153861212b565b63ffffffff9193506121679060203d602011610310576103018183610f48565b9290612086565b929190975060006001600160a01b0380825416945116602460405180968193632d1542e760e21b835260048301525afa80156102b7576001600160a01b0393602091600091600080600080600092600094600096600098612218575b506121e8908d6040519a6121dd8c610ed7565b168a528a8a01611edc565b60408801526060870152608086015260a0850152151560c084015260e08301526101008201529891929350612053565b96505050505050506121e8925061224291503d806000833e61223a8183610f48565b810190611e2e565b97989096919592949291906121ca565b90985060006001600160a01b0380825416925116602460405180948193632d1542e760e21b835260048301525afa80156102b7576000916000806000806000926000946000966000986122f3575b506122c6906001600160a01b036040519a6122ba8c610ed7565b168a5260208a01611edc565b60408801526060870152608086015260a0850152151560c084015260e08301526101008201529738612040565b96505050505050506122c6925061231591503d806000833e61223a8183610f48565b97989096919592949291906122a0565b98506001600160a01b036000541660006001600160a01b03885116602460405180948193632d1542e760e21b835260048301525afa80156102b7576000916000806000806000926000946000966000986123c0575b50612394906001600160a01b036040519a6122ba8c610ed7565b60408801526060870152608086015260a0850152151560c084015260e08301526101008201529861202e565b965050505050505061239492506123e291503d806000833e61223a8183610f48565b979890969195929492919061237a565b909a5060006001600160a01b0380825416925116602460405180948193632d1542e760e21b835260048301525afa80156102b757600091600080600080600092600094600096600098612487575b5061245a906001600160a01b036040519a6122ba8c610ed7565b60408801526060870152608086015260a0850152151560c084015260e0830152610100820152993861201d565b965050505050505061245a92506124a991503d806000833e61223a8183610f48565b9798909691959294929190612440565b9097506020813d6020116124ed575b816124d560209383610f48565b810103126102ab576124e690611084565b9638611fe6565b3d91506124c8565b61250b9197503d806000833e6102d98183610f48565b9538611fb6565b945094505090503d806000843e6125298184610f48565b8201906080838303126102ab57825167ffffffffffffffff908181116102ab57836125559186016110f2565b9360208101518281116102ab578461256e9183016110f2565b9360408201518381116102ab57816125879184016110f2565b9260608301519081116102ab5761259e92016110f2565b939290939438611f56565b919091610120818403126102ab57604051906125c482610ed7565b81936125cf82611084565b8352602082015160048110156102ab57602084015260408201519067ffffffffffffffff918281116102ab57816126079185016110b0565b604085015260608301518281116102ab57816126249185016110b0565b606085015260808301518281116102ab57816126419185016110b0565b608085015260a08301519182116102ab5761265d9183016110b0565b60a083015261266e60c08201611077565b60c083015260e081015160e083015261010080910151910152565b67ffffffffffffffff8111610ec15760051b60200190565b60209081818403126102ab5780519067ffffffffffffffff82116102ab57019180601f840112156102ab5782516126d781612689565b936126e56040519586610f48565b818552838086019260051b8201019283116102ab578301905b82821061270c575050505090565b83809161271884611084565b8152019101906126fe565b60001981146127325760010190565b634e487b7160e01b600052601160045260246000fd5b805182101561275c5760209160051b010190565b634e487b7160e01b600052603260045260246000fd5b6001600160a01b03600190808254166040938451948580936312536b5b60e21b8252600097889160049384915afa93841561289b578794612877575b5086865b6127c1575b5050505050505090565b845181101561287257856127d58287612748565b511683518091631c43118360e01b8252818560209384935afa9182918b93612836575b505061280e575061280890612723565b866127b2565b8616848716146128215761280890612723565b9496505050506128319250612748565b511690565b9080929350813d831161286b575b61284e8183610f48565b810103126128675761285f90611084565b9038806127f8565b8980fd5b503d612844565b6127b7565b6128949194503d8089833e61288c8183610f48565b8101906126a1565b92386127ae565b82513d89823e3d90fd5b6001600160a01b0360019080825416604090815194859283926312536b5b60e21b8452600097889160049586915afa9384156129a957879461298d575b5086865b6128f4575050505050505090565b84518110156128725783888761290a8489612748565b51168451928380927f526ff16f0000000000000000000000000000000000000000000000000000000082525afa899181612971575b50612954575061294e90612723565b866128e6565b805160208092012090845190850120146128215761294e90612723565b6129869192503d808c833e6102d98183610f48565b903861293f565b6129a29194503d8089833e61288c8183610f48565b92386128e2565b81513d89823e3d90fdfea264697066735822122015933ee9216e6a3dae6f8e0da9a416234dcf11b73d28a9330fd5fb87b492e83b64736f6c63430008130033",
  "linkReferences": {},
  "deployedLinkReferences": {}
}