{
  "_format": "hh-sol-artifact-1",
  "contractName": "PublicVerification",
  "sourceName": "src/SmartContracts/PublicVerification.sol",
  "abi": [
    {
      "inputs": [
        {
          "internalType": "address",
          "name": "_stakeholderRegistryAddress",
          "type": "address"
        },
        {
          "internalType": "address",
          "name": "_registryAddress",
          "type": "address"
        }
      ],
      "stateMutability": "nonpayable",
      "type": "constructor"
    },
    {
      "anonymous": false,
      "inputs": [
        {
          "indexed": true,
          "internalType": "address",
          "name": "auditor",
          "type": "address"
        },
        {
          "indexed": true,
          "internalType": "address",
          "name": "productAddress",
          "type": "address"
        },
        {
          "indexed": false,
          "internalType": "string",
          "name": "auditResult",
          "type": "string"
        },
        {
          "indexed": false,
          "internalType": "uint256",
          "name": "timestamp",
          "type": "uint256"
        }
      ],
      "name": "AuditPerformed",
      "type": "event"
    },
    {
      "anonymous": false,
      "inputs": [
        {
          "indexed": true,
          "internalType": "address",
          "name": "productAddress",
          "type": "address"
        },
        {
          "indexed": true,
          "internalType": "address",
          "name": "verifier",
          "type": "address"
        },
        {
          "indexed": false,
          "internalType": "uint256",
          "name": "timestamp",
          "type": "uint256"
        }
      ],
      "name": "ProductVerificationRequested",
      "type": "event"
    },
    {
      "anonymous": false,
      "inputs": [
        {
          "indexed": true,
          "internalType": "address",
          "name": "shipmentAddress",
          "type": "address"
        },
        {
          "indexed": true,
          "internalType": "address",
          "name": "productAddress",
          "type": "address"
        },
        {
          "indexed": false,
          "internalType": "bool",
          "name": "isValid",
          "type": "bool"
        },
        {
          "indexed": false,
          "internalType": "uint256",
          "name": "timestamp",
          "type": "uint256"
        }
      ],
      "name": "ShipmentVerificationPerformed",
      "type": "event"
    },
    {
      "anonymous": false,
      "inputs": [
        {
          "indexed": true,
          "internalType": "address",
          "name": "productAddress",
          "type": "address"
        },
        {
          "indexed": false,
          "internalType": "bool",
          "name": "isAuthentic",
          "type": "bool"
        },
        {
          "indexed": false,
          "internalType": "string",
          "name": "details",
          "type": "string"
        },
        {
          "indexed": false,
          "internalType": "uint256",
          "name": "timestamp",
          "type": "uint256"
        }
      ],
      "name": "VerificationResult",
      "type": "event"
    },
    {
      "inputs": [
        {
          "internalType": "address",
          "name": "_productAddress",
          "type": "address"
        }
      ],
      "name": "findShipmentByProduct",
      "outputs": [
        {
          "internalType": "address",
          "name": "",
          "type": "address"
        }
      ],
      "stateMutability": "view",
      "type": "function"
    },
    {
      "inputs": [
        {
          "internalType": "string",
          "name": "_trackingNumber",
          "type": "string"
        }
      ],
      "name": "findShipmentByTrackingNumber",
      "outputs": [
        {
          "internalType": "address",
          "name": "",
          "type": "address"
        }
      ],
      "stateMutability": "view",
      "type": "function"
    },
    {
      "inputs": [
        {
          "internalType": "address",
          "name": "_productAddress",
          "type": "address"
        }
      ],
      "name": "getCompleteTraceabilityReport",
      "outputs": [
        {
          "internalType": "string",
          "name": "productName",
          "type": "string"
        },
        {
          "internalType": "address",
          "name": "farmer",
          "type": "address"
        },
        {
          "components": [
            {
              "internalType": "address",
              "name": "stakeholderAddress",
              "type": "address"
            },
            {
              "internalType": "enum StakeholderManager.StakeholderRole",
              "name": "role",
              "type": "uint8"
            },
            {
              "internalType": "string",
              "name": "businessName",
              "type": "string"
            },
            {
              "internalType": "string",
              "name": "businessLicense",
              "type": "string"
            },
            {
              "internalType": "string",
              "name": "location",
              "type": "string"
            },
            {
              "internalType": "string",
              "name": "certifications",
              "type": "string"
            },
            {
              "internalType": "bool",
              "name": "isActive",
              "type": "bool"
            },
            {
              "internalType": "uint256",
              "name": "registeredAt",
              "type": "uint256"
            },
            {
              "internalType": "uint256",
              "name": "lastActivity",
              "type": "uint256"
            }
          ],
          "internalType": "struct PublicVerification.StakeholderInfo",
          "name": "farmerInfo",
          "type": "tuple"
        },
        {
          "components": [
            {
              "internalType": "address",
              "name": "stakeholderAddress",
              "type": "address"
            },
            {
              "internalType": "enum StakeholderManager.StakeholderRole",
              "name": "role",
              "type": "uint8"
            },
            {
              "internalType": "string",
              "name": "businessName",
              "type": "string"
            },
            {
              "internalType": "string",
              "name": "businessLicense",
              "type": "string"
            },
            {
              "internalType": "string",
              "name": "location",
              "type": "string"
            },
            {
              "internalType": "string",
              "name": "certifications",
              "type": "string"
            },
            {
              "internalType": "bool",
              "name": "isActive",
              "type": "bool"
            },
            {
              "internalType": "uint256",
              "name": "registeredAt",
              "type": "uint256"
            },
            {
              "internalType": "uint256",
              "name": "lastActivity",
              "type": "uint256"
            }
          ],
          "internalType": "struct PublicVerification.StakeholderInfo",
          "name": "processorInfo",
          "type": "tuple"
        },
        {
          "components": [
            {
              "internalType": "address",
              "name": "stakeholderAddress",
              "type": "address"
            },
            {
              "internalType": "enum StakeholderManager.StakeholderRole",
              "name": "role",
              "type": "uint8"
            },
            {
              "internalType": "string",
              "name": "businessName",
              "type": "string"
            },
            {
              "internalType": "string",
              "name": "businessLicense",
              "type": "string"
            },
            {
              "internalType": "string",
              "name": "location",
              "type": "string"
            },
            {
              "internalType": "string",
              "name": "certifications",
              "type": "string"
            },
            {
              "internalType": "bool",
              "name": "isActive",
              "type": "bool"
            },
            {
              "internalType": "uint256",
              "name": "registeredAt",
              "type": "uint256"
            },
            {
              "internalType": "uint256",
              "name": "lastActivity",
              "type": "uint256"
            }
          ],
          "internalType": "struct PublicVerification.StakeholderInfo",
          "name": "distributorInfo",
          "type": "tuple"
        },
        {
          "components": [
            {
              "internalType": "address",
              "name": "stakeholderAddress",
              "type": "address"
            },
            {
              "internalType": "enum StakeholderManager.StakeholderRole",
              "name": "role",
              "type": "uint8"
            },
            {
              "internalType": "string",
              "name": "businessName",
              "type": "string"
            },
            {
              "internalType": "string",
              "name": "businessLicense",
              "type": "string"
            },
            {
              "internalType": "string",
              "name": "location",
              "type": "string"
            },
            {
              "internalType": "string",
              "name": "certifications",
              "type": "string"
            },
            {
              "internalType": "bool",
              "name": "isActive",
              "type": "bool"
            },
            {
              "internalType": "uint256",
              "name": "registeredAt",
              "type": "uint256"
            },
            {
              "internalType": "uint256",
              "name": "lastActivity",
              "type": "uint256"
            }
          ],
          "internalType": "struct PublicVerification.StakeholderInfo",
          "name": "retailerInfo",
          "type": "tuple"
        },
        {
          "internalType": "bool",
          "name": "isFullyTraced",
          "type": "bool"
        },
        {
          "internalType": "bool",
          "name": "hasShipment",
          "type": "bool"
        },
        {
          "internalType": "address",
          "name": "shipmentAddress",
          "type": "address"
        },
        {
          "components": [
            {
              "internalType": "uint256",
              "name": "timestamp",
              "type": "uint256"
            },
            {
              "internalType": "enum Shipment.ShipmentStatus",
              "name": "status",
              "type": "uint8"
            },
            {
              "internalType": "address",
              "name": "updater",
              "type": "address"
            },
            {
              "internalType": "string",
              "name": "trackingInfo",
              "type": "string"
            },
            {
              "internalType": "string",
              "name": "location",
              "type": "string"
            }
          ],
          "internalType": "struct Shipment.ShipmentUpdate[]",
          "name": "shipmentHistory",
          "type": "tuple[]"
        }
      ],
      "stateMutability": "view",
      "type": "function"
    },
    {
      "inputs": [
        {
          "internalType": "address",
          "name": "_shipmentAddress",
          "type": "address"
        }
      ],
      "name": "getShipmentInfo",
      "outputs": [
        {
          "internalType": "address",
          "name": "product",
          "type": "address"
        },
        {
          "internalType": "address",
          "name": "sender",
          "type": "address"
        },
        {
          "internalType": "address",
          "name": "receiver",
          "type": "address"
        },
        {
          "internalType": "string",
          "name": "trackingNumber",
          "type": "string"
        },
        {
          "internalType": "string",
          "name": "transportMode",
          "type": "string"
        },
        {
          "internalType": "enum Shipment.ShipmentStatus",
          "name": "status",
          "type": "uint8"
        },
        {
          "internalType": "uint256",
          "name": "createdAt",
          "type": "uint256"
        },
        {
          "internalType": "uint256",
          "name": "lastUpdated",
          "type": "uint256"
        },
        {
          "internalType": "bool",
          "name": "isActive",
          "type": "bool"
        }
      ],
      "stateMutability": "view",
      "type": "function"
    },
    {
      "inputs": [
        {
          "internalType": "address",
          "name": "_productAddress",
          "type": "address"
        }
      ],
      "name": "getTraceabilityReport",
      "outputs": [
        {
          "internalType": "string",
          "name": "productName",
          "type": "string"
        },
        {
          "internalType": "address",
          "name": "farmer",
          "type": "address"
        },
        {
          "components": [
            {
              "internalType": "address",
              "name": "stakeholderAddress",
              "type": "address"
            },
            {
              "internalType": "enum StakeholderManager.StakeholderRole",
              "name": "role",
              "type": "uint8"
            },
            {
              "internalType": "string",
              "name": "businessName",
              "type": "string"
            },
            {
              "internalType": "string",
              "name": "businessLicense",
              "type": "string"
            },
            {
              "internalType": "string",
              "name": "location",
              "type": "string"
            },
            {
              "internalType": "string",
              "name": "certifications",
              "type": "string"
            },
            {
              "internalType": "bool",
              "name": "isActive",
              "type": "bool"
            },
            {
              "internalType": "uint256",
              "name": "registeredAt",
              "type": "uint256"
            },
            {
              "internalType": "uint256",
              "name": "lastActivity",
              "type": "uint256"
            }
          ],
          "internalType": "struct PublicVerification.StakeholderInfo",
          "name": "farmerInfo",
          "type": "tuple"
        },
        {
          "components": [
            {
              "internalType": "address",
              "name": "stakeholderAddress",
              "type": "address"
            },
            {
              "internalType": "enum StakeholderManager.StakeholderRole",
              "name": "role",
              "type": "uint8"
            },
            {
              "internalType": "string",
              "name": "businessName",
              "type": "string"
            },
            {
              "internalType": "string",
              "name": "businessLicense",
              "type": "string"
            },
            {
              "internalType": "string",
              "name": "location",
              "type": "string"
            },
            {
              "internalType": "string",
              "name": "certifications",
              "type": "string"
            },
            {
              "internalType": "bool",
              "name": "isActive",
              "type": "bool"
            },
            {
              "internalType": "uint256",
              "name": "registeredAt",
              "type": "uint256"
            },
            {
              "internalType": "uint256",
              "name": "lastActivity",
              "type": "uint256"
            }
          ],
          "internalType": "struct PublicVerification.StakeholderInfo",
          "name": "processorInfo",
          "type": "tuple"
        },
        {
          "components": [
            {
              "internalType": "address",
              "name": "stakeholderAddress",
              "type": "address"
            },
            {
              "internalType": "enum StakeholderManager.StakeholderRole",
              "name": "role",
              "type": "uint8"
            },
            {
              "internalType": "string",
              "name": "businessName",
              "type": "string"
            },
            {
              "internalType": "string",
              "name": "businessLicense",
              "type": "string"
            },
            {
              "internalType": "string",
              "name": "location",
              "type": "string"
            },
            {
              "internalType": "string",
              "name": "certifications",
              "type": "string"
            },
            {
              "internalType": "bool",
              "name": "isActive",
              "type": "bool"
            },
            {
              "internalType": "uint256",
              "name": "registeredAt",
              "type": "uint256"
            },
            {
              "internalType": "uint256",
              "name": "lastActivity",
              "type": "uint256"
            }
          ],
          "internalType": "struct PublicVerification.StakeholderInfo",
          "name": "distributorInfo",
          "type": "tuple"
        },
        {
          "components": [
            {
              "internalType": "address",
              "name": "stakeholderAddress",
              "type": "address"
            },
            {
              "internalType": "enum StakeholderManager.StakeholderRole",
              "name": "role",
              "type": "uint8"
            },
            {
              "internalType": "string",
              "name": "businessName",
              "type": "string"
            },
            {
              "internalType": "string",
              "name": "businessLicense",
              "type": "string"
            },
            {
              "internalType": "string",
              "name": "location",
              "type": "string"
            },
            {
              "internalType": "string",
              "name": "certifications",
              "type": "string"
            },
            {
              "internalType": "bool",
              "name": "isActive",
              "type": "bool"
            },
            {
              "internalType": "uint256",
              "name": "registeredAt",
              "type": "uint256"
            },
            {
              "internalType": "uint256",
              "name": "lastActivity",
              "type": "uint256"
            }
          ],
          "internalType": "struct PublicVerification.StakeholderInfo",
          "name": "retailerInfo",
          "type": "tuple"
        },
        {
          "internalType": "bool",
          "name": "isFullyTraced",
          "type": "bool"
        }
      ],
      "stateMutability": "view",
      "type": "function"
    },
    {
      "inputs": [
        {
          "internalType": "address",
          "name": "_productAddress",
          "type": "address"
        },
        {
          "internalType": "string",
          "name": "_auditResult",
          "type": "string"
        }
      ],
      "name": "performAudit",
      "outputs": [],
      "stateMutability": "nonpayable",
      "type": "function"
    },
    {
      "inputs": [],
      "name": "registry",
      "outputs": [
        {
          "internalType": "contract Registry",
          "name": "",
          "type": "address"
        }
      ],
      "stateMutability": "view",
      "type": "function"
    },
    {
      "inputs": [],
      "name": "stakeholderRegistry",
      "outputs": [
        {
          "internalType": "contract StakeholderRegistry",
          "name": "",
          "type": "address"
        }
      ],
      "stateMutability": "view",
      "type": "function"
    },
    {
      "inputs": [
        {
          "internalType": "string",
          "name": "_trackingNumber",
          "type": "string"
        }
      ],
      "name": "trackShipmentByTrackingNumber",
      "outputs": [
        {
          "internalType": "address",
          "name": "shipmentAddress",
          "type": "address"
        },
        {
          "internalType": "address",
          "name": "productAddress",
          "type": "address"
        },
        {
          "internalType": "enum Product.ProductStage",
          "name": "productStage",
          "type": "uint8"
        },
        {
          "internalType": "enum Shipment.ShipmentStatus",
          "name": "shipmentStatus",
          "type": "uint8"
        },
        {
          "internalType": "string",
          "name": "productName",
          "type": "string"
        },
        {
          "internalType": "string",
          "name": "statusDescription",
          "type": "string"
        },
        {
          "internalType": "bool",
          "name": "isProductValid",
          "type": "bool"
        },
        {
          "internalType": "bool",
          "name": "isShipmentValid",
          "type": "bool"
        }
      ],
      "stateMutability": "view",
      "type": "function"
    },
    {
      "inputs": [
        {
          "internalType": "address",
          "name": "_productAddress",
          "type": "address"
        }
      ],
      "name": "verifyCompleteSupplyChain",
      "outputs": [
        {
          "internalType": "bool",
          "name": "isValid",
          "type": "bool"
        },
        {
          "internalType": "string",
          "name": "details",
          "type": "string"
        }
      ],
      "stateMutability": "nonpayable",
      "type": "function"
    },
    {
      "inputs": [
        {
          "internalType": "address",
          "name": "_productAddress",
          "type": "address"
        }
      ],
      "name": "verifyProductAuthenticity",
      "outputs": [
        {
          "internalType": "bool",
          "name": "isAuthentic",
          "type": "bool"
        },
        {
          "internalType": "string",
          "name": "details",
          "type": "string"
        }
      ],
      "stateMutability": "nonpayable",
      "type": "function"
    }
  ],
  "bytecode": "0x6080346200009657601f62002a9438819003918201601f19168301916001600160401b038311848410176200009b57808492604094855283398101031262000096576200005a60206200005283620000b1565b9201620000b1565b600080546001600160a01b039384166001600160a01b031991821617909155600180549290931691161790556040516129cd9081620000c78239f35b600080fd5b634e487b7160e01b600052604160045260246000fd5b51906001600160a01b0382168203620000965756fe608080604052600436101561001357600080fd5b60003560e01c90816323feda0a14610e045750806345ce151514610de35780634d0d16b314610dae578063500bc5b014610c3257806360d69d7214610c0f5780636a8b2bd7146107725780637b1039991461074b578063b36e609f146106ac578063bf3fa54d14610448578063c31fc219146104015763cb21551c1461009857600080fd5b346102ac576020806003193601126102ac5760043567ffffffffffffffff81116102ac576100d8906100dd6001600160a01b039283923690600401610f83565b612889565b1690811561039757604051631c43118360e01b81528381600481865afa9081156102b857600091610362575b5060405191631006976960e11b83528483600481875afa9283156102b857600093610333575b50604051917f903ac798000000000000000000000000000000000000000000000000000000008352600083600481885afa9283156102b857600093610316575b501690604051906316fd755360e21b82528582600481865afa9182156102b8576000926102e7575b506040516306fdde0360e01b8152600081600481875afa9081156102b8576000916102c4575b5060405194632bb3cb4560e21b86528786600481885afa9586156102b85760009661027c575b506007811015610266576004811493841561025b575b61023b929161022a9161024996976040519b8c9b8c528b015261021b81610fca565b60408a01526060890190611071565b610100806080890152870190610e61565b9085820360a0870152610e61565b91151560c08401521560e08301520390f35b6005821494506101f9565b634e487b7160e01b600052602160045260246000fd5b9095508781813d83116102b1575b6102948183610f45565b810103126102ac576102a59061107e565b94386101e3565b600080fd5b503d61028a565b6040513d6000823e3d90fd5b6102e191503d806000833e6102d98183610f45565b810190611de6565b386101bd565b610308919250863d881161030f575b6103008183610f45565b81019061109f565b9038610197565b503d6102f6565b61032c9193503d806000833e6102d98183610f45565b913861016f565b610354919350853d871161035b575b61034c8183610f45565b810190611aaa565b913861012f565b503d610342565b90508381813d8311610390575b6103798183610f45565b810103126102ac5761038a9061108b565b38610109565b503d61036f565b6084836040519062461bcd60e51b82526004820152602d60248201527f496e76616c696420747261636b696e67206e756d626572206f7220736869706d60448201527f656e74206e6f7420666f756e64000000000000000000000000000000000000006064820152fd5b346102ac5760203660031901126102ac5760043567ffffffffffffffff81116102ac576104376100d86020923690600401610f83565b6001600160a01b0360405191168152f35b346102ac576020806003193601126102ac57610462610e28565b906001600160a01b039182828160015416926024604051809481937ff7bde1da00000000000000000000000000000000000000000000000000000000835216958660048301525afa9081156102b857600091610677575b501561063357906000600492604051938480927f608ff4050000000000000000000000000000000000000000000000000000000082525afa80156102b857600092600080600087600092600097600095600097600099610574575b5083906040519c8d9c168c5216908a0152166040880152610120806060890152870161053f91610e61565b868103608088015261055091610e61565b9360a0860161055e91611071565b60c085015260e084015215156101008301520390f35b9a50509750505050505050503d806000843e6105908184610f45565b8201610120838203126102ac576105a68361108b565b6105b183850161108b565b936105be6040820161108b565b92606082015167ffffffffffffffff908181116102ac57826105e19185016110b7565b9160808401519182116102ac576105f99184016110b7565b60a08301519160078310156102ac57889060c0850151978261062361010060e0890151980161107e565b979a989294959996979890610514565b6064826040519062461bcd60e51b82526004820152601760248201527f536869706d656e74206e6f7420726567697374657265640000000000000000006044820152fd5b90508281813d83116106a5575b61068e8183610f45565b810103126102ac5761069f9061107e565b846104b9565b503d610684565b346102ac5760203660031901126102ac5761072360e061073161073f6107156106db6106d6610e28565b611eba565b98959a936001600160a01b0361070160409994979399519d8d8f9e8f9081520190610e61565b921660208c01528a820360408c0152610fd4565b9088820360608a0152610fd4565b908682036080880152610fd4565b9084820360a0860152610fd4565b90151560c08301520390f35b346102ac5760003660031901126102ac5760206001600160a01b0360015416604051908152f35b346102ac5760203660031901126102ac5761078b610e28565b610793611d9f565b5061079c611d9f565b506107a5611d9f565b506107ae611d9f565b50600090606090604051907fb36e609f0000000000000000000000000000000000000000000000000000000082526001600160a01b0381166004830152600082602481305afa80156102b857600094600090600080600095600097600096610b33575b506108236001600160a01b0391612756565b16938461096b575b9897969493929190604051998a99610140808c528b0161084a91610e61565b906001600160a01b031660208b015289810360408b015261086a91610fd4565b88810360608a015261087b91610fd4565b94608095888103878a015261088f91610fd4565b9360a094888103868a01526108a391610fd4565b92151560c0880152151560e087015261010086015284810361012086015283519182825260208201908360051b830160200195602001946000935b8585106108eb5788880389f35b9193959750919395602080610957600193601f198682030189528b51908151815261091c8483015185830190611071565b6001600160a01b0360408301511660408201528761094760608401518b60608501528b840190610e61565b9201519088818403910152610e61565b9901950195019290918897969495926108de565b6040517f1d60a29a000000000000000000000000000000000000000000000000000000008152909860019450600082600481895afa9182156102b8576000926109b7575b50509761082b565b9091503d90816000823e6109cb8282610f45565b60208183810103126102ac5780519067ffffffffffffffff82116102ac57828101601f8383010112156102ac578181015191610a068361266d565b94610a146040519687610f45565b838652602086019185840160208660051b8387010101116102ac57602081850101925b60208660051b83870101018410610a5657505050505050508a806109af565b835167ffffffffffffffff81116102ac5760a0868401820189880103601f1901126102ac5760405191610a8883610ea2565b8684018201602081015184526040015160078110156102ac576020840152610ab58583868a01010161108b565b604084015260808285890101015167ffffffffffffffff81116102ac57610ae89060208b8a019185888c010101016110b7565b8584015260a0828589010101519067ffffffffffffffff82116102ac57602093610b21898680969581968f8b90850194010101016110b7565b60808201528152019401939050610a37565b965098505050935050503d806000833e610b4d8183610f45565b81019360e0828603126102ac57815167ffffffffffffffff908181116102ac5786610b799185016110b7565b93610b866020850161108b565b9660408501518381116102ac5781610b9f91870161258d565b92878601518181116102ac5782610bb791880161258d565b9060808701518181116102ac5783610bd091890161258d565b9260a08801519182116102ac57610c0060c0610bf9610823936001600160a01b03958c0161258d565b990161107e565b989a9592939798969150610811565b346102ac5760203660031901126102ac576020610437610c2d610e28565b612756565b346102ac5760403660031901126102ac57610c4b610e28565b60243567ffffffffffffffff81116102ac57610c6b903690600401610f83565b906001600160a01b0380600054169160405180937f75c81b7b00000000000000000000000000000000000000000000000000000000825233600483015281602460209687935afa9081156102b857600091610d79575b5015610d0f57907fe8862bff108980a0995d14137b0b1cdfd57056831c5bb5935aedce1a46a96adc91610cff60405195604087526040870190610e61565b93429086015216928033930390a3005b6084836040519062461bcd60e51b82526004820152602f60248201527f4f6e6c792072656769737465726564207374616b65686f6c646572732063616e60448201527f20706572666f726d2061756469747300000000000000000000000000000000006064820152fd5b90508381813d8311610da7575b610d908183610f45565b810103126102ac57610da19061107e565b85610cc1565b503d610d86565b346102ac5760203660031901126102ac57610dcf610dca610e28565b6111f0565b90610ddf60405192839283610e86565b0390f35b346102ac5760203660031901126102ac57610dcf610dff610e28565b611ac2565b346102ac5760003660031901126102ac576020906001600160a01b03600054168152f35b600435906001600160a01b03821682036102ac57565b60005b838110610e515750506000910152565b8181015183820152602001610e41565b90602091610e7a81518092818552858086019101610e3e565b601f01601f1916010190565b604090610e9f9392151581528160208201520190610e61565b90565b60a0810190811067ffffffffffffffff821117610ebe57604052565b634e487b7160e01b600052604160045260246000fd5b610120810190811067ffffffffffffffff821117610ebe57604052565b6060810190811067ffffffffffffffff821117610ebe57604052565b6020810190811067ffffffffffffffff821117610ebe57604052565b6040810190811067ffffffffffffffff821117610ebe57604052565b90601f8019910116810190811067ffffffffffffffff821117610ebe57604052565b67ffffffffffffffff8111610ebe57601f01601f191660200190565b81601f820112156102ac57803590610f9a82610f67565b92610fa86040519485610f45565b828452602083830101116102ac57816000926020809301838601378301015290565b6005111561026657565b906001600160a01b0382511681526020820151610ff081610fca565b602082015261104d61103b6110296110176040860151610120806040880152860190610e61565b60608601518582036060870152610e61565b60808501518482036080860152610e61565b60a084015183820360a0850152610e61565b9160c0810151151560c083015260e081015160e08301526101008091015191015290565b9060078210156102665752565b519081151582036102ac57565b51906001600160a01b03821682036102ac57565b908160209103126102ac575160058110156102ac5790565b81601f820112156102ac5780516110cd81610f67565b926110db6040519485610f45565b818452602082840101116102ac57610e9f9160208085019101610e3e565b91908281039261014084126102ac57604080519260c084019567ffffffffffffffff9685811088821117610ebe57835284966111348561108b565b8652602085015163ffffffff811681036102ac576020870152838501519081116102ac5760a0926111669186016110b7565b8386015260608401516060860152607f1901126102ac5760a0918161012092519061119082610ea2565b6080830151825284830151602083015260c08301519082015260e08201516060820152610100820151608082015260808501520151910152565b906020828203126102ac57815167ffffffffffffffff81116102ac57610e9f92016110f9565b906001600160a01b03809216604092835190428252602091837f5b24ec9325290e90f98603e1cea596aeced3764cd98cf986481806902c417cac843393a3845190632bb3cb4560e21b825260049183818481885afa60009181611a73575b506112fc5750505060607f973665348f42bfc7c7a342c88470083764bb1751a06ac27bbbeff69a4284648e9185519561128687610ef1565b602887527f50726f64756374206e6f7420666f756e64206f7220766572696669636174696f828801527f6e206661696c6564000000000000000000000000000000000000000000000000818801528051928392600084528301526112ed6060830188610e61565b9042908301520390a260009190565b156119da57600190865161130f81610f0d565b6000815292875190630d811fcf60e41b8252858282818a5afa9182156119cf57600092611998575b50826000541690895192847f30044bcc0000000000000000000000000000000000000000000000000000000091828652168285015260249386858201528881604481875afa90811561165957600091611963575b5015611922575b8a516316fd755360e21b8152888184818d5afa8c8115611918578b87918a946000946118f9575b5084806118e5575b6117af575b848061179b575b611679575b50505081611664575b50611523575b5050505050600014611494575060607f973665348f42bfc7c7a342c88470083764bb1751a06ac27bbbeff69a4284648e9185519561141e87610ef1565b603287527f50726f647563742069732061757468656e74696320616e6420616c6c20737461828801527f6b65686f6c646572732076657269666965640000000000000000000000000000818801528051928392600184528301526114856060830188610e61565b9042908301520390a260019190565b937f973665348f42bfc7c7a342c88470083764bb1751a06ac27bbbeff69a4284648e918161150a60376060945180997f50726f6475637420646174612076616c69642062757420000000000000000000868301526114fa81518092888686019101610e3e565b810103601781018a520188610f45565b8051928392600084528301526112ed6060830188610e61565b8a5192632df9fd5160e01b845260038385015260008486818d5afa958615611659578994600097611636575b5063ffffffff8588015116151596876115b7575b50505050505050611579575b38808080806113e1565b50506000845161158881610f29565b601d81527f52657461696c657220726567697374726174696f6e20696e76616c6964000000838201529061156f565b60449495969750906003915116968d51978896879586528501528301525afa90811561162b576000916115f3575b501538848180808080611563565b908482813d8311611624575b6116098183610f45565b81010312611621575061161b9061107e565b386115e5565b80fd5b503d6115ff565b87513d6000823e3d90fd5b61165291973d8091833e61164a8183610f45565b8101906111ca565b953861154f565b8c513d6000823e3d90fd5b6003915061167181610fca565b1015386113db565b6000929394505192838092632df9fd5160e01b82526002898301525afa90811561177757600091611782575b508663ffffffff8b830151161515918261170e575b50506116cb575b8690858b8e6113d2565b96509450600094858b516116de81610f29565b8981527f4469737472696275746f7220726567697374726174696f6e20696e76616c69648a8201529790506116c1565b90915051168c51908382528482015283868201528981604481885afa90811561177757600091611742575b501586386116ba565b908a82813d8311611770575b6117588183610f45565b81010312611621575061176a9061107e565b38611739565b503d61174e565b8d513d6000823e3d90fd5b611795913d8091833e61164a8183610f45565b386116a5565b506117a584610fca565b60028410156113cd565b91929350600090825193848092632df9fd5160e01b825260018a8301525afa80156118c1578c926000916118cc575b508863ffffffff8d830151161515918261184e575b5050611804575b88929187916113c6565b985050955060008096858b8a5161181a81610f29565b601e81527f50726f636573736f7220726567697374726174696f6e20696e76616c696400008d8201529a91509192506117fa565b925092505051168c5190838252848201526002868201528c8a82604481895afa80156118c1578c92600091611887575b501588386117f3565b925090508a82813d81116118ba575b6118a08183610f45565b8101031261162157508c6118b48c9261107e565b3861187e565b503d611896565b50513d6000823e3d90fd5b6118df913d8091833e61164a8183610f45565b386117de565b506118ef84610fca565b60018410156113c1565b6119119194508d803d1061030f576103008183610f45565b92386113b9565b513d6000823e3d90fd5b95509350600093895161193481610f29565b601b81527f4661726d657220726567697374726174696f6e20696e76616c696400000000008882015295611392565b908982813d8311611991575b6119798183610f45565b81010312611621575061198b9061107e565b3861138b565b503d61196f565b90918682813d83116119c8575b6119af8183610f45565b8101031261162157506119c19061108b565b9038611337565b503d6119a5565b89513d6000823e3d90fd5b505060607f973665348f42bfc7c7a342c88470083764bb1751a06ac27bbbeff69a4284648e91855195611a0c87610ef1565b602287527f50726f64756374206461746120696e7465677269747920636f6d70726f6d6973828801527f6564000000000000000000000000000000000000000000000000000000000000818801528051928392600084528301526112ed6060830188610e61565b90918582813d8311611aa3575b611a8a8183610f45565b810103126116215750611a9c9061107e565b903861124e565b503d611a80565b908160209103126102ac575160078110156102ac5790565b906040918251907f4d0d16b30000000000000000000000000000000000000000000000000000000082526001600160a01b0380821691826004850152600093848160248183305af1908115611d955785908692611d3f575b5015611d365750611b2a90612756565b16918215611cd357845192631006976960e11b84526020938481600481855afa908115611cc9578391611cac575b506007811015611c985760048114908115611c8d575b5015611bff57917f7373756573000000000000000000000000000000000000000000000000000000927fabaa20b5bf33f95d0ec3e91871efc88e95690b75be065f906fe7d560fe3a25988780518581524288820152a3937f50726f647563742076616c69642062757420736869706d656e74206861732069815193611bf285610ef1565b6025855284015282015290565b90507fabaa20b5bf33f95d0ec3e91871efc88e95690b75be065f906fe7d560fe3a2598858051600181524286820152a37f6564207375636365737366756c6c7900000000000000000000000000000000006001937f50726f6475637420616e6420736869706d656e7420626f746820766572696669815193611c8085610ef1565b602f855284015282015290565b600591501438611b6e565b602483634e487b7160e01b81526021600452fd5b611cc39150853d871161035b5761034c8183610f45565b38611b58565b87513d85823e3d90fd5b5050506001917f746120617661696c61626c650000000000000000000000000000000000000000815191611d0683610ef1565b602c83527f50726f647563742076657269666965642c206e6f20736869706d656e74206461602084015282015290565b95505050509190565b9150503d8086833e611d518183610f45565b81018782820312611d9157611d658261107e565b9160208101519067ffffffffffffffff8211611d8d57611d869291016110b7565b9038611b1a565b8780fd5b8580fd5b87513d87823e3d90fd5b60405190611dac82610ed4565b6000610100838281528260208201526060604082015260608082015260606080820152606060a08201528260c08201528260e08201520152565b906020828203126102ac57815167ffffffffffffffff81116102ac57610e9f92016110b7565b91610120838303126102ac57611e218361108b565b92602081015160058110156102ac579260408201519167ffffffffffffffff928381116102ac5782611e549183016110b7565b9360608201518481116102ac5783611e6d9184016110b7565b9360808301518181116102ac5784611e869185016110b7565b9360a08401519182116102ac57611e9e9184016110b7565b91611eab60c0820161107e565b9161010060e083015192015190565b611ec2611d9f565b50611ecb611d9f565b50611ed4611d9f565b50611edd611d9f565b506040517f3820f361000000000000000000000000000000000000000000000000000000008152600460008282816001600160a01b0387165afa926000916000856000956000976124f6575b50611f5b57505050505050611f3c611d9f565b90604051611f4981610f0d565b60008152916000918180918190600090565b9091929394956040516306fdde0360e01b815260008185816001600160a01b0389165afa9081156102b8576000916124db575b5060405197630d811fcf60e41b895260208986816001600160a01b038a165afa9889156102b85760009961249f575b50611fc6611d9f565b97611fcf611d9f565b97611fd8611d9f565b97611fe1611d9f565b97602083019263ffffffff8451166123ce575b5063ffffffff6020890151166122f8575b602084019363ffffffff855116612228575b50602085019463ffffffff865116612144575b506001600160a01b03939291602091604051809681936316fd755360e21b8352165afa9283156102b85760009361211d575b505163ffffffff16151595866120eb575b50856120b9575b5084612086575b505096959493929190565b60029192945061209581610fca565b11908115916120a8575b5091388061207b565b63ffffffff9150511615153861209f565b9094506120c585610fca565b60018511908115916120da575b509338612074565b63ffffffff915051161515386120d2565b9095506120f782610fca565b8115908115612109575b50943861206d565b63ffffffff91506020015116151538612101565b63ffffffff91935061213d9060203d60201161030f576103008183610f45565b929061205c565b93929190985060006001600160a01b038082541695511660248b6040519788938492632d1542e760e21b84528301525afa9081156102b8576001600160a01b03946020926000916000806000806000926000946000966000986121f2575b508d604051996121b18b610ed4565b1689526121bd81610fca565b8a89015260408801526060870152608086015260a0850152151560c084015260e083015261010082015299915091929361202a565b97505050505050505061221891503d806000833e6122108183610f45565b810190611e0c565b96909591949293929190386121a2565b90995060006001600160a01b038082541692511660248c6040519485938492632d1542e760e21b84528301525afa80156102b8576000916000806000806000926000946000966000986122ca575b506001600160a01b036040519961228c8b610ed4565b16895261229881610fca565b602089015260408801526060870152608086015260a0850152151560c084015260e08301526101008201529838612017565b9750505050505050506122e891503d806000833e6122108183610f45565b9690959194929392919038612276565b99506001600160a01b036000541660006001600160a01b0389511660248d6040519485938492632d1542e760e21b84528301525afa80156102b8576000916000806000806000926000946000966000986123a0575b506001600160a01b03604051996123638b610ed4565b16895261236f81610fca565b602089015260408801526060870152608086015260a0850152151560c084015260e083015261010082015299612005565b9750505050505050506123be91503d806000833e6122108183610f45565b969095919492939291903861234d565b909b5060008c60246001600160a01b0380845416945116916040519485938492632d1542e760e21b84528301525afa80156102b857600091600080600080600092600094600096600098612471575b506001600160a01b03604051996124338b610ed4565b16895261243f81610fca565b602089015260408801526060870152608086015260a0850152151560c084015260e08301526101008201529a38611ff4565b97505050505050505061248f91503d806000833e6122108183610f45565b969095919492939291903861241d565b9098506020813d6020116124d3575b816124bb60209383610f45565b810103126102ac576124cc9061108b565b9738611fbd565b3d91506124ae565b6124f091503d806000833e6102d98183610f45565b38611f8e565b955095505091503d806000853e61250d8185610f45565b8301916080848403126102ac57835167ffffffffffffffff908181116102ac57846125399187016110f9565b9460208101518281116102ac57856125529183016110f9565b9460408201518381116102ac578161256b9184016110f9565b9260608301519081116102ac5761258292016110f9565b949390949538611f29565b919091610120818403126102ac57604051906125a882610ed4565b81936125b38261108b565b8352602082015160058110156102ac57602084015260408201519067ffffffffffffffff918281116102ac57816125eb9185016110b7565b604085015260608301518281116102ac57816126089185016110b7565b606085015260808301518281116102ac57816126259185016110b7565b608085015260a08301519182116102ac576126419183016110b7565b60a083015261265260c0820161107e565b60c083015260e081015160e083015261010080910151910152565b67ffffffffffffffff8111610ebe5760051b60200190565b60209081818403126102ac5780519067ffffffffffffffff82116102ac57019180601f840112156102ac5782516126bb8161266d565b936126c96040519586610f45565b818552838086019260051b8201019283116102ac578301905b8282106126f0575050505090565b8380916126fc8461108b565b8152019101906126e2565b60001981146127165760010190565b634e487b7160e01b600052601160045260246000fd5b80518210156127405760209160051b010190565b634e487b7160e01b600052603260045260246000fd5b6001600160a01b03600190808254166040938451948580936312536b5b60e21b8252600097889160049384915afa93841561287f57879461285b575b5086865b6127a5575b5050505050505090565b845181101561285657856127b9828761272c565b511683518091631c43118360e01b8252818560209384935afa9182918b9361281a575b50506127f257506127ec90612707565b86612796565b861684871614612805576127ec90612707565b949650505050612815925061272c565b511690565b9080929350813d831161284f575b6128328183610f45565b8101031261284b576128439061108b565b9038806127dc565b8980fd5b503d612828565b61279b565b6128789194503d8089833e6128708183610f45565b810190612685565b9238612792565b82513d89823e3d90fd5b6001600160a01b0360019080825416604090815194859283926312536b5b60e21b8452600097889160049586915afa93841561298d578794612971575b5086865b6128d8575050505050505090565b8451811015612856578388876128ee848961272c565b51168451928380927f526ff16f0000000000000000000000000000000000000000000000000000000082525afa899181612955575b50612938575061293290612707565b866128ca565b805160208092012090845190850120146128055761293290612707565b61296a9192503d808c833e6102d98183610f45565b9038612923565b6129869194503d8089833e6128708183610f45565b92386128c6565b81513d89823e3d90fdfea26469706673582212208323a3db143948489221ccf8e30df8d5fb7b44e0ece87b3be2ae5db6b9f2eaf064736f6c63430008130033",
  "linkReferences": {},
  "deployedLinkReferences": {}
}