{
  "_format": "hh-sol-artifact-1",
  "contractName": "Product",
  "sourceName": "src/SmartContracts/Product.sol",
  "abi": [
    {
      "inputs": [
        {
          "internalType": "string",
          "name": "_name",
          "type": "string"
        },
        {
          "internalType": "string",
          "name": "_description",
          "type": "string"
        },
        {
          "internalType": "uint256",
          "name": "_minCTemperature",
          "type": "uint256"
        },
        {
          "internalType": "uint256",
          "name": "_maxCTemperature",
          "type": "uint256"
        },
        {
          "internalType": "string",
          "name": "_location",
          "type": "string"
        },
        {
          "internalType": "string",
          "name": "_farmData",
          "type": "string"
        },
        {
          "internalType": "address",
          "name": "_stakeholderRegistry",
          "type": "address"
        },
        {
          "internalType": "address",
          "name": "_temperatureFeed",
          "type": "address"
        },
        {
          "internalType": "address",
          "name": "_humidityFeed",
          "type": "address"
        },
        {
          "internalType": "address",
          "name": "_rainfallFeed",
          "type": "address"
        },
        {
          "internalType": "address",
          "name": "_windSpeedFeed",
          "type": "address"
        },
        {
          "internalType": "address",
          "name": "_priceFeed",
          "type": "address"
        }
      ],
      "stateMutability": "nonpayable",
      "type": "constructor"
    },
    {
      "anonymous": false,
      "inputs": [
        {
          "indexed": false,
          "internalType": "uint256",
          "name": "currentPrice",
          "type": "uint256"
        },
        {
          "indexed": false,
          "internalType": "uint256",
          "name": "alertThreshold",
          "type": "uint256"
        },
        {
          "indexed": false,
          "internalType": "string",
          "name": "priceMovement",
          "type": "string"
        },
        {
          "indexed": false,
          "internalType": "uint32",
          "name": "timestamp",
          "type": "uint32"
        }
      ],
      "name": "PriceAlert",
      "type": "event"
    },
    {
      "anonymous": false,
      "inputs": [
        {
          "indexed": true,
          "internalType": "enum Product.ProductStage",
          "name": "stage",
          "type": "uint8"
        },
        {
          "indexed": true,
          "internalType": "address",
          "name": "stakeholder",
          "type": "address"
        },
        {
          "indexed": false,
          "internalType": "string",
          "name": "data",
          "type": "string"
        },
        {
          "indexed": false,
          "internalType": "uint32",
          "name": "timestamp",
          "type": "uint32"
        },
        {
          "components": [
            {
              "internalType": "int256",
              "name": "temperature",
              "type": "int256"
            },
            {
              "internalType": "uint256",
              "name": "humidity",
              "type": "uint256"
            },
            {
              "internalType": "uint256",
              "name": "rainfall",
              "type": "uint256"
            },
            {
              "internalType": "uint256",
              "name": "windSpeed",
              "type": "uint256"
            },
            {
              "internalType": "uint256",
              "name": "timestamp",
              "type": "uint256"
            }
          ],
          "indexed": false,
          "internalType": "struct Weather.WeatherData",
          "name": "weatherData",
          "type": "tuple"
        },
        {
          "indexed": false,
          "internalType": "uint256",
          "name": "marketPrice",
          "type": "uint256"
        }
      ],
      "name": "ProductStageUpdated",
      "type": "event"
    },
    {
      "anonymous": false,
      "inputs": [
        {
          "indexed": false,
          "internalType": "string",
          "name": "alertType",
          "type": "string"
        },
        {
          "indexed": false,
          "internalType": "string",
          "name": "message",
          "type": "string"
        },
        {
          "components": [
            {
              "internalType": "int256",
              "name": "temperature",
              "type": "int256"
            },
            {
              "internalType": "uint256",
              "name": "humidity",
              "type": "uint256"
            },
            {
              "internalType": "uint256",
              "name": "rainfall",
              "type": "uint256"
            },
            {
              "internalType": "uint256",
              "name": "windSpeed",
              "type": "uint256"
            },
            {
              "internalType": "uint256",
              "name": "timestamp",
              "type": "uint256"
            }
          ],
          "indexed": false,
          "internalType": "struct Weather.WeatherData",
          "name": "weatherData",
          "type": "tuple"
        },
        {
          "indexed": false,
          "internalType": "uint32",
          "name": "timestamp",
          "type": "uint32"
        }
      ],
      "name": "WeatherAlert",
      "type": "event"
    },
    {
      "inputs": [],
      "name": "createdAt",
      "outputs": [
        {
          "internalType": "uint32",
          "name": "",
          "type": "uint32"
        }
      ],
      "stateMutability": "view",
      "type": "function"
    },
    {
      "inputs": [],
      "name": "currentStage",
      "outputs": [
        {
          "internalType": "enum Product.ProductStage",
          "name": "",
          "type": "uint8"
        }
      ],
      "stateMutability": "view",
      "type": "function"
    },
    {
      "inputs": [],
      "name": "dataHash",
      "outputs": [
        {
          "internalType": "bytes32",
          "name": "",
          "type": "bytes32"
        }
      ],
      "stateMutability": "view",
      "type": "function"
    },
    {
      "inputs": [],
      "name": "description",
      "outputs": [
        {
          "internalType": "string",
          "name": "",
          "type": "string"
        }
      ],
      "stateMutability": "view",
      "type": "function"
    },
    {
      "inputs": [],
      "name": "estimatedPrice",
      "outputs": [
        {
          "internalType": "uint256",
          "name": "",
          "type": "uint256"
        }
      ],
      "stateMutability": "view",
      "type": "function"
    },
    {
      "inputs": [],
      "name": "farmer",
      "outputs": [
        {
          "internalType": "address",
          "name": "",
          "type": "address"
        }
      ],
      "stateMutability": "view",
      "type": "function"
    },
    {
      "inputs": [],
      "name": "getProductInfo",
      "outputs": [
        {
          "internalType": "string",
          "name": "productName",
          "type": "string"
        },
        {
          "internalType": "string",
          "name": "productDescription",
          "type": "string"
        },
        {
          "internalType": "address",
          "name": "productFarmer",
          "type": "address"
        },
        {
          "internalType": "uint32",
          "name": "productCreatedAt",
          "type": "uint32"
        },
        {
          "internalType": "enum Product.ProductStage",
          "name": "productCurrentStage",
          "type": "uint8"
        },
        {
          "internalType": "bool",
          "name": "productIsActive",
          "type": "bool"
        },
        {
          "internalType": "uint256",
          "name": "productEstimatedPrice",
          "type": "uint256"
        },
        {
          "internalType": "string",
          "name": "productLocation",
          "type": "string"
        }
      ],
      "stateMutability": "view",
      "type": "function"
    },
    {
      "inputs": [],
      "name": "getProductJourney",
      "outputs": [
        {
          "components": [
            {
              "internalType": "address",
              "name": "stakeholder",
              "type": "address"
            },
            {
              "internalType": "uint32",
              "name": "timestamp",
              "type": "uint32"
            },
            {
              "internalType": "string",
              "name": "data",
              "type": "string"
            },
            {
              "internalType": "bytes32",
              "name": "dataHash",
              "type": "bytes32"
            },
            {
              "components": [
                {
                  "internalType": "int256",
                  "name": "temperature",
                  "type": "int256"
                },
                {
                  "internalType": "uint256",
                  "name": "humidity",
                  "type": "uint256"
                },
                {
                  "internalType": "uint256",
                  "name": "rainfall",
                  "type": "uint256"
                },
                {
                  "internalType": "uint256",
                  "name": "windSpeed",
                  "type": "uint256"
                },
                {
                  "internalType": "uint256",
                  "name": "timestamp",
                  "type": "uint256"
                }
              ],
              "internalType": "struct Weather.WeatherData",
              "name": "weatherAtStage",
              "type": "tuple"
            },
            {
              "internalType": "uint256",
              "name": "marketPriceAtStage",
              "type": "uint256"
            }
          ],
          "internalType": "struct Product.StageData",
          "name": "farmStage",
          "type": "tuple"
        },
        {
          "components": [
            {
              "internalType": "address",
              "name": "stakeholder",
              "type": "address"
            },
            {
              "internalType": "uint32",
              "name": "timestamp",
              "type": "uint32"
            },
            {
              "internalType": "string",
              "name": "data",
              "type": "string"
            },
            {
              "internalType": "bytes32",
              "name": "dataHash",
              "type": "bytes32"
            },
            {
              "components": [
                {
                  "internalType": "int256",
                  "name": "temperature",
                  "type": "int256"
                },
                {
                  "internalType": "uint256",
                  "name": "humidity",
                  "type": "uint256"
                },
                {
                  "internalType": "uint256",
                  "name": "rainfall",
                  "type": "uint256"
                },
                {
                  "internalType": "uint256",
                  "name": "windSpeed",
                  "type": "uint256"
                },
                {
                  "internalType": "uint256",
                  "name": "timestamp",
                  "type": "uint256"
                }
              ],
              "internalType": "struct Weather.WeatherData",
              "name": "weatherAtStage",
              "type": "tuple"
            },
            {
              "internalType": "uint256",
              "name": "marketPriceAtStage",
              "type": "uint256"
            }
          ],
          "internalType": "struct Product.StageData",
          "name": "processingStage",
          "type": "tuple"
        },
        {
          "components": [
            {
              "internalType": "address",
              "name": "stakeholder",
              "type": "address"
            },
            {
              "internalType": "uint32",
              "name": "timestamp",
              "type": "uint32"
            },
            {
              "internalType": "string",
              "name": "data",
              "type": "string"
            },
            {
              "internalType": "bytes32",
              "name": "dataHash",
              "type": "bytes32"
            },
            {
              "components": [
                {
                  "internalType": "int256",
                  "name": "temperature",
                  "type": "int256"
                },
                {
                  "internalType": "uint256",
                  "name": "humidity",
                  "type": "uint256"
                },
                {
                  "internalType": "uint256",
                  "name": "rainfall",
                  "type": "uint256"
                },
                {
                  "internalType": "uint256",
                  "name": "windSpeed",
                  "type": "uint256"
                },
                {
                  "internalType": "uint256",
                  "name": "timestamp",
                  "type": "uint256"
                }
              ],
              "internalType": "struct Weather.WeatherData",
              "name": "weatherAtStage",
              "type": "tuple"
            },
            {
              "internalType": "uint256",
              "name": "marketPriceAtStage",
              "type": "uint256"
            }
          ],
          "internalType": "struct Product.StageData",
          "name": "distributionStage",
          "type": "tuple"
        },
        {
          "components": [
            {
              "internalType": "address",
              "name": "stakeholder",
              "type": "address"
            },
            {
              "internalType": "uint32",
              "name": "timestamp",
              "type": "uint32"
            },
            {
              "internalType": "string",
              "name": "data",
              "type": "string"
            },
            {
              "internalType": "bytes32",
              "name": "dataHash",
              "type": "bytes32"
            },
            {
              "components": [
                {
                  "internalType": "int256",
                  "name": "temperature",
                  "type": "int256"
                },
                {
                  "internalType": "uint256",
                  "name": "humidity",
                  "type": "uint256"
                },
                {
                  "internalType": "uint256",
                  "name": "rainfall",
                  "type": "uint256"
                },
                {
                  "internalType": "uint256",
                  "name": "windSpeed",
                  "type": "uint256"
                },
                {
                  "internalType": "uint256",
                  "name": "timestamp",
                  "type": "uint256"
                }
              ],
              "internalType": "struct Weather.WeatherData",
              "name": "weatherAtStage",
              "type": "tuple"
            },
            {
              "internalType": "uint256",
              "name": "marketPriceAtStage",
              "type": "uint256"
            }
          ],
          "internalType": "struct Product.StageData",
          "name": "retailStage",
          "type": "tuple"
        }
      ],
      "stateMutability": "view",
      "type": "function"
    },
    {
      "inputs": [
        {
          "internalType": "enum Product.ProductStage",
          "name": "_stage",
          "type": "uint8"
        }
      ],
      "name": "getStageData",
      "outputs": [
        {
          "components": [
            {
              "internalType": "address",
              "name": "stakeholder",
              "type": "address"
            },
            {
              "internalType": "uint32",
              "name": "timestamp",
              "type": "uint32"
            },
            {
              "internalType": "string",
              "name": "data",
              "type": "string"
            },
            {
              "internalType": "bytes32",
              "name": "dataHash",
              "type": "bytes32"
            },
            {
              "components": [
                {
                  "internalType": "int256",
                  "name": "temperature",
                  "type": "int256"
                },
                {
                  "internalType": "uint256",
                  "name": "humidity",
                  "type": "uint256"
                },
                {
                  "internalType": "uint256",
                  "name": "rainfall",
                  "type": "uint256"
                },
                {
                  "internalType": "uint256",
                  "name": "windSpeed",
                  "type": "uint256"
                },
                {
                  "internalType": "uint256",
                  "name": "timestamp",
                  "type": "uint256"
                }
              ],
              "internalType": "struct Weather.WeatherData",
              "name": "weatherAtStage",
              "type": "tuple"
            },
            {
              "internalType": "uint256",
              "name": "marketPriceAtStage",
              "type": "uint256"
            }
          ],
          "internalType": "struct Product.StageData",
          "name": "",
          "type": "tuple"
        }
      ],
      "stateMutability": "view",
      "type": "function"
    },
    {
      "inputs": [],
      "name": "isActive",
      "outputs": [
        {
          "internalType": "bool",
          "name": "",
          "type": "bool"
        }
      ],
      "stateMutability": "view",
      "type": "function"
    },
    {
      "inputs": [],
      "name": "location",
      "outputs": [
        {
          "internalType": "string",
          "name": "",
          "type": "string"
        }
      ],
      "stateMutability": "view",
      "type": "function"
    },
    {
      "inputs": [],
      "name": "markAsConsumed",
      "outputs": [],
      "stateMutability": "nonpayable",
      "type": "function"
    },
    {
      "inputs": [],
      "name": "maxCTemperature",
      "outputs": [
        {
          "internalType": "uint256",
          "name": "",
          "type": "uint256"
        }
      ],
      "stateMutability": "view",
      "type": "function"
    },
    {
      "inputs": [],
      "name": "minCTemperature",
      "outputs": [
        {
          "internalType": "uint256",
          "name": "",
          "type": "uint256"
        }
      ],
      "stateMutability": "view",
      "type": "function"
    },
    {
      "inputs": [],
      "name": "name",
      "outputs": [
        {
          "internalType": "string",
          "name": "",
          "type": "string"
        }
      ],
      "stateMutability": "view",
      "type": "function"
    },
    {
      "inputs": [],
      "name": "oracleFeeds",
      "outputs": [
        {
          "internalType": "contract AggregatorV3Interface",
          "name": "temperatureFeed",
          "type": "address"
        },
        {
          "internalType": "contract AggregatorV3Interface",
          "name": "humidityFeed",
          "type": "address"
        },
        {
          "internalType": "contract AggregatorV3Interface",
          "name": "rainfallFeed",
          "type": "address"
        },
        {
          "internalType": "contract AggregatorV3Interface",
          "name": "windSpeedFeed",
          "type": "address"
        },
        {
          "internalType": "contract AggregatorV3Interface",
          "name": "priceFeed",
          "type": "address"
        }
      ],
      "stateMutability": "view",
      "type": "function"
    },
    {
      "inputs": [
        {
          "internalType": "enum Product.ProductStage",
          "name": "",
          "type": "uint8"
        }
      ],
      "name": "productStages",
      "outputs": [
        {
          "internalType": "address",
          "name": "stakeholder",
          "type": "address"
        },
        {
          "internalType": "uint32",
          "name": "timestamp",
          "type": "uint32"
        },
        {
          "internalType": "string",
          "name": "data",
          "type": "string"
        },
        {
          "internalType": "bytes32",
          "name": "dataHash",
          "type": "bytes32"
        },
        {
          "components": [
            {
              "internalType": "int256",
              "name": "temperature",
              "type": "int256"
            },
            {
              "internalType": "uint256",
              "name": "humidity",
              "type": "uint256"
            },
            {
              "internalType": "uint256",
              "name": "rainfall",
              "type": "uint256"
            },
            {
              "internalType": "uint256",
              "name": "windSpeed",
              "type": "uint256"
            },
            {
              "internalType": "uint256",
              "name": "timestamp",
              "type": "uint256"
            }
          ],
          "internalType": "struct Weather.WeatherData",
          "name": "weatherAtStage",
          "type": "tuple"
        },
        {
          "internalType": "uint256",
          "name": "marketPriceAtStage",
          "type": "uint256"
        }
      ],
      "stateMutability": "view",
      "type": "function"
    },
    {
      "inputs": [],
      "name": "stakeholderRegistry",
      "outputs": [
        {
          "internalType": "contract StakeholderRegistry",
          "name": "",
          "type": "address"
        }
      ],
      "stateMutability": "view",
      "type": "function"
    },
    {
      "inputs": [
        {
          "internalType": "string",
          "name": "_distributionData",
          "type": "string"
        }
      ],
      "name": "updateDistributionStage",
      "outputs": [],
      "stateMutability": "nonpayable",
      "type": "function"
    },
    {
      "inputs": [
        {
          "internalType": "string",
          "name": "_processingData",
          "type": "string"
        }
      ],
      "name": "updateProcessingStage",
      "outputs": [],
      "stateMutability": "nonpayable",
      "type": "function"
    },
    {
      "inputs": [
        {
          "internalType": "string",
          "name": "_retailData",
          "type": "string"
        }
      ],
      "name": "updateRetailStage",
      "outputs": [],
      "stateMutability": "nonpayable",
      "type": "function"
    },
    {
      "inputs": [],
      "name": "verifyProduct",
      "outputs": [
        {
          "internalType": "bool",
          "name": "isValid",
          "type": "bool"
        }
      ],
      "stateMutability": "view",
      "type": "function"
    }
  ],
  "bytecode": "0x60a0806040523462000de25762003ab3803803809162000020828562000e1f565b833981016101808282031262000de25781516001600160401b03811162000de257816200004f91840162000e68565b60208301519092906001600160401b03811162000de257826200007491830162000e68565b60408201516060830151608084015191939092916001600160401b03811162000de25785620000a591830162000e68565b60a082015190956001600160401b03821162000de257620000c891830162000e68565b94620000d760c0830162000ec3565b620000e560e0840162000ec3565b91620000f5610100850162000ec3565b9562000105610120860162000ec3565b97620001246101606200011c610140890162000ec3565b970162000ec3565b968b511562000d9d5780511562000d4c5783511562000d08578b516001600160401b03811162000a0057600054600181811c9116801562000cfd575b6020821014620009df57601f811162000ca9575b50806020601f821160011462000c305760009162000c24575b508160011b916000199060031b1c1916176000555b8051906001600160401b03821162000a005760015490600182811c9216801562000c19575b6020831014620009df5781601f84931162000bb8575b50602090601f831160011462000b3a5760009262000b2e575b50508160011b916000199060031b1c1916176001555b6002556003558051906001600160401b03821162000a005760045490600182811c9216801562000b23575b6020831014620009df5781601f84931162000ab1575b50602090601f831160011462000a225760009262000a16575b50508160011b916000199060031b1c1916176004555b600580544260a01b63ffffffff60a01b166001600160d01b031982163265ffffffffffff60a01b19161717600160c81b17909155604051895191999091620002fe9160209184918c9190620002d990829085870190870162000e43565b620002ef82518093868085880101910162000e43565b82010103808452018262000e1f565b80516020909101206006556001600160a01b03908116608090815260405194821696928216959382169492821693909116918691906200033e8162000de7565b868152836020820152846040820152856060820152015260018060a01b03199384600954161760095583600a541617600a5582600b541617600b5581600c541617600c55600d541617600d556200039462000ed8565b506200039f62000f05565b620003a96200125d565b91826007556040516020810190620003dc6020828551620003ce8187858a0162000e43565b810103808452018262000e1f565b519020604051949091906001600160401b0360c087019081119087111762000a005760c0860160409081524260a090811b63ffffffff60a01b9081166001600160d01b03199094163265ffffffffffff60a01b19161793909317600160c81b176001600160a01b038181168a5290821c63ffffffff166020808b01918252938a0195865260608a01969096526080890187905281890188905260008052600890925287517f5eff886ea0ce6ca488a3d6e336d6c0f75f46d19b42c06ce5ee98e42c96d256c7805496516001600160c01b0319909716919093161794901b909116929092178255518051906001600160401b03821162000a00576001830154600181811c91168015620009f5575b6020821014620009df57601f81116200098f575b50602090601f83116001146200091157958260089360a093620005c79960009262000905575b50508160011b916000199060031b1c19161760018501555b606081015160028501556080808201518051600387015560208101516004870155604081015160058701556060810151600687015501516007850155015191015580516105dc811280918115620008f8575b50620007cb575b506020810151610fa0811080918115620007be575b50620006ad575b50611388604082015111620005f5575b50620012aa565b6040516124ed90816200154682396080518181816104a901528181610e290152818161141e01526114c20152f35b61018060008051602062003a338339815191529162000699604051916101008352600861010084015267149052539190531360c21b610120840152610140602084015260176101408401527f4865617679207261696e66616c6c206465746563746564000000000000000000610160840152604083019060808091805184526020810151602085015260408101516040850152606081015160608501520151910152565b63ffffffff421660e0820152a138620005c0565b15620007785760008051602062003a338339815191526200072c604051620006d58162000e03565b601081526f48756d696469747920746f6f206c6f7760801b60208201525b604051918291610100835260086101008401526748554d494449545960c01b610120840152610140602084015261014083019062001283565b62000762604083018660808091805184526020810151602085015260408101516040850152606081015160608501520151910152565b63ffffffff421660e08301520390a138620005b0565b60008051602062003a338339815191526200072c6040516200079a8162000e03565b6011815270090eadad2c8d2e8f240e8dede40d0d2ced607b1b6020820152620006f3565b61177091501138620005a9565b15620008a65760008051602062003a338339815191526200085a604051620007f38162000e03565b601381527f54656d706572617475726520746f6f206c6f770000000000000000000000000060208201525b6040519182916101008352600b6101008401526a54454d504552415455524560a81b610120840152610140602084015261014083019062001283565b62000890604083018660808091805184526020810151602085015260408101516040850152606081015160608501520151910152565b63ffffffff421660e08301520390a13862000594565b60008051602062003a338339815191526200085a604051620008c88162000e03565b601481527f54656d706572617475726520746f6f206869676800000000000000000000000060208201526200081e565b6109c4915013386200058d565b01519050388062000523565b906001840160005260206000209160005b601f19851681106200097657508360a093620005c79993600193600897601f198116106200095c575b505050811b0160018501556200053b565b015160001960f88460031b161c191690553880806200094b565b9192602060018192868501518155019401920162000922565b600184016000526020600020601f840160051c81019160208510620009d4575b601f0160051c01905b818110620009c75750620004fd565b60008155600101620009b8565b9091508190620009af565b634e487b7160e01b600052602260045260246000fd5b90607f1690620004e9565b634e487b7160e01b600052604160045260246000fd5b01519050388062000266565b6004600090815293507f8a35acfbc15ff81a39ae7d344fd709f28e8600b4aa8c65c6b64bfe7fe36bd19b91905b601f198416851062000a95576001945083601f1981161062000a7b575b505050811b016004556200027c565b015160001960f88460031b161c1916905538808062000a6c565b8181015183556020948501946001909301929091019062000a4f565b60046000529091507f8a35acfbc15ff81a39ae7d344fd709f28e8600b4aa8c65c6b64bfe7fe36bd19b601f840160051c81016020851062000b1b575b90849392915b601f830160051c8201811062000b0b5750506200024d565b6000815585945060010162000af3565b508062000aed565b91607f169162000237565b015190503880620001f6565b60016000908152935060008051602062003a7383398151915291905b601f198416851062000b9c576001945083601f1981161062000b82575b505050811b016001556200020c565b015160001960f88460031b161c1916905538808062000b73565b8181015183556020948501946001909301929091019062000b56565b600160005290915060008051602062003a73833981519152601f840160051c81016020851062000c11575b90849392915b601f830160051c8201811062000c01575050620001dd565b6000815585945060010162000be9565b508062000be3565b91607f1691620001c7565b90508d0151386200018d565b6000808052925060008051602062003a53833981519152908f5b601f198416851062000c90576001945083601f1981161062000c76575b505050811b01600055620001a2565b015160001960f88460031b161c1916905538808f62000c67565b8101518255602093840193600190920191018f62000c4a565b6000805260008051602062003a53833981519152601f830160051c81016020841062000cf5575b601f830160051c8201811062000ce857505062000174565b6000815560010162000cd0565b508062000cd0565b90607f169062000160565b606460405162461bcd60e51b815260206004820152602060248201527f50726f64756374206c6f636174696f6e2063616e6e6f7420626520656d7074796044820152fd5b60405162461bcd60e51b815260206004820152602360248201527f50726f64756374206465736372697074696f6e2063616e6e6f7420626520656d60448201526270747960e81b6064820152608490fd5b60405162461bcd60e51b815260206004820152601c60248201527f50726f64756374206e616d652063616e6e6f7420626520656d707479000000006044820152606490fd5b600080fd5b60a081019081106001600160401b0382111762000a0057604052565b604081019081106001600160401b0382111762000a0057604052565b601f909101601f19168101906001600160401b0382119082101762000a0057604052565b60005b83811062000e575750506000910152565b818101518382015260200162000e46565b81601f8201121562000de25780516001600160401b03811162000a00576040519262000e9f601f8301601f19166020018562000e1f565b8184526020828401011162000de25762000ec0916020808501910162000e43565b90565b51906001600160a01b038216820362000de257565b6040519062000ee78262000de7565b60006080838281528260208201528260408201528260608201520152565b62000f0f62000ed8565b506009546001600160a01b0390811680156200116f5781600a541662000f4a83600b541693600c54169262000f4362000ed8565b50620011f6565b9260409081519384938492633fabe5a360e21b9182855260a097889160049889915afa938415620010f85760009462001146575b5060008412620011035790868693928651978880928582525afa958615620010f857600096620010cf575b50600086126200108c5786908386518094819382525afa958615620010815760009662001046575b50506000851262001003575081519462000feb8662000de7565b85526020850152830152606082015242608082015290565b606490602084519162461bcd60e51b8352820152601760248201527f496e76616c69642077696e6420737065656420646174610000000000000000006044820152fd5b6200106b929650803d1062001079575b62001062818362000e1f565b810190620011bf565b505050905093388062000fd1565b503d62001056565b84513d6000823e3d90fd5b845162461bcd60e51b8152602081850152601560248201527f496e76616c6964207261696e66616c6c206461746100000000000000000000006044820152606490fd5b620010eb919650873d8911620010795762001062818362000e1f565b5050509050943862000fa9565b85513d6000823e3d90fd5b845162461bcd60e51b8152602081880152601560248201527f496e76616c69642068756d6964697479206461746100000000000000000000006044820152606490fd5b62001162919450873d8911620010795762001062818362000e1f565b5050509050923862000f7e565b50506040516200117f8162000de7565b6107d081526113886020820152600060408201526103e8606082015263ffffffff4216608082015290565b51906001600160501b038216820362000de257565b908160a091031262000de257620011d681620011aa565b9160208201519160408101519162000ec0608060608401519301620011aa565b604051633fabe5a360e21b81529060a090829060049082906001600160a01b03165afa90811562001251576000916200122d575090565b62001249915060a03d8111620010795762001062818362000e1f565b505050905090565b6040513d6000823e3d90fd5b600d546001600160a01b031680156200127b5762000ec090620011f6565b506207a12090565b906020916200129e8151809281855285808601910162000e43565b601f01601f1916010190565b60ff60055460c01c166005811015620015075780156200153357620012ce6200125d565b60001982019182116200151d57600582101562001507576000918252602091600883526040936008858320015491600a830463ffffffff421693818101808211620014f3578611156200147a575060c060008051602062003a938339815191529188519087825288820152608089820152601560808201527f4f5241434c455f50524943455f494e435245415345000000000000000000000060a0820152856060820152a15b6014840490818584119386856000146200146857620013939162001537565b11620013a3575b50505050505050565b60008051602062003a93833981519152966200141593608092506000146200142b578051620013d28162000e03565b601881527f53544147455f50524943455f41424f56455f4f5241434c45000000000000000088820152925b81519788978852870152850152608084019062001283565b9060608301520390a1388080808080806200139a565b8051620014388162000e03565b601881527f53544147455f50524943455f42454c4f575f4f5241434c4500000000000000008882015292620013fd565b90620014749162001537565b62001393565b81620014869162001537565b851062001495575b5062001374565b60c060008051602062003a938339815191529188519087825288820152608089820152601560808201527f4f5241434c455f50524943455f4445435245415345000000000000000000000060a0820152856060820152a1386200148e565b634e487b7160e01b84526011600452602484fd5b634e487b7160e01b600052602160045260246000fd5b634e487b7160e01b600052601160045260246000fd5b5050565b919082039182116200151d5756fe6080604052600436101561001257600080fd5b60003560e01c806306fdde031461183e5780630822a1b7146114865780631b3012a31461146857806322f3e2d41461144257806323feda0a146113fe5780632bbc2643146113ab5780632df9fd5114611350578063311cbc91146113325780633820f36114611201578063516f279e146111e55780635539d8bb146111c75780635abb2fda14610ded5780635bf5d54c14610dc05780637284e41614610d90578063aecf2d1414610ca6578063af23e74f14610470578063b7697e3614610452578063bca9f2591461037f578063cf09e0d014610358578063d811fcf014610331578063df1ea5e6146101c85763fc72a3851461010e57600080fd5b346101c35760003660031901126101c3576101676005546101bf60ff8260c01c166007549261013b61190a565b9360ff610146611a5e565b926101756101526119c5565b94604051998a99610100808c528b0190611bbb565b9089820360208b0152611bbb565b946001600160a01b038216604089015263ffffffff8260a01c16606089015261019d81611caa565b608088015260c81c16151560a086015260c085015283820360e0850152611bbb565b0390f35b600080fd5b346101c35760003660031901126101c357600554600360ff8260c01c166101ee81611caa565b036102ed5760ff60c01b19780400000000000000000000000000000000000000000000000091161760055563ffffffff42166102bb60405161022f81611894565b600081526000602082015260006040820152600060608201528260808201526040519260106101008086528501527f50726f6475637420636f6e73756d6564000000000000000000000000000000006101208501526020840152604083019060808091805184526020810151602085015260408101516040850152606081015160608501520151910152565b600060e082015260047f834b586f2b321f90c8a3532f67ff7ea82946afdcb59302eea07ee17ae9d2fda06101403393a3005b606460405162461bcd60e51b815260206004820152601f60248201527f50726f64756374206d7573742062652061742072657461696c207374616765006044820152fd5b346101c35760003660031901126101c35760206001600160a01b0360055416604051908152f35b346101c35760003660031901126101c357602063ffffffff60055460a01c16604051908152f35b346101c35760203660031901126101c35760043560058110156101c3576103a581611caa565b600052600860205263ffffffff60406000208054906103c660018201611af4565b61044860028301549261041060086103e060038401611cca565b9201549360405197876001600160a01b038a9916895260a01c166020880152610140806040890152870190611bbb565b936060860152608085019060808091805184526020810151602085015260408101516040850152606081015160608501520151910152565b6101208301520390f35b346101c35760003660031901126101c3576020600354604051908152f35b346101c35761047e36611be0565b90604051630c0112f360e21b8152336004820152600360248201526020816044816001600160a01b037f0000000000000000000000000000000000000000000000000000000000000000165afa8015610c9a576104e391600091610c6b575b50611d1e565b6005549060ff8260c01c166104f781611caa565b60018101809111610c555761050e90600314611d69565b610519831515611db4565b610521611e7c565b5061052a611ee0565b91780300000000000000000000000000000000000000000000000060ff60c01b196105536121fe565b921617600555806007556040516020810190858483376105836020828881016000838201520380845201826118e8565b519020604051610592816118b0565b33815263ffffffff421660208201526105aa86611dff565b916105b860405193846118e8565b86835236878601116101c357868560208501376000602088850101526040820192835260608201528460808201528260a0820152600360005260086020526040600020916001600160a01b0382511683549077ffffffffffffffffffffffffffffffffffffffffffffffff1963ffffffff60a01b602086015160a01b169216171783555180519067ffffffffffffffff8211610c3f5761065b600185015461185a565b601f8111610bf8575b50602090601f8311600114610b5d576003979593837f834b586f2b321f90c8a3532f67ff7ea82946afdcb59302eea07ee17ae9d2fda098969460089460a094600092610b52575b5050600019828c1b1c1916600191821b17908501555b6060810151600285015560808082015180518b87015560208101516004870155604081015160058701556060810151600687015501516007850155015191015582516105dc811280918115610b46575b506109f4575b506020830151610fa08110809181156109e8575b50610896575b506113886040840151116107c1575b61074981612221565b6107a96040519387610100808752860152876101209485870137600084898701015263ffffffff42166020860152604085019060808091805184526020810151602085015260408101516040850152606081015160608501520151910152565b60e08301523394601f01601f191682018290030190a3005b7f15ec3cc1e26a8fb9d2f31caedd129c736758c59d5994eea541e32f61e785b8f661018060405160086101008083528201527f5241494e46414c4c00000000000000000000000000000000000000000000000061012082015260176101408060208401528201527f4865617679207261696e66616c6c206465746563746564000000000000000000610160820152610884604082018760808091805184526020810151602085015260408101516040850152606081015160608501520151910152565b63ffffffff421660e0820152a1610740565b15610989577f15ec3cc1e26a8fb9d2f31caedd129c736758c59d5994eea541e32f61e785b8f661093f6040516108cb816118cc565b601081527f48756d696469747920746f6f206c6f770000000000000000000000000000000060208201525b60405191829160086101008085528401527f48554d4944495459000000000000000000000000000000000000000000000000610120840152610140806020850152830190611bbb565b610974604083018860808091805184526020810151602085015260408101516040850152606081015160608501520151910152565b63ffffffff421660e08301520390a186610731565b7f15ec3cc1e26a8fb9d2f31caedd129c736758c59d5994eea541e32f61e785b8f661093f6040516109b9816118cc565b601181527f48756d696469747920746f6f206869676800000000000000000000000000000060208201526108f6565b6117709150118861072b565b15610ae7577f15ec3cc1e26a8fb9d2f31caedd129c736758c59d5994eea541e32f61e785b8f6610a9d604051610a29816118cc565b601381527f54656d706572617475726520746f6f206c6f770000000000000000000000000060208201525b604051918291600b6101008085528401527f54454d5045524154555245000000000000000000000000000000000000000000610120840152610140806020850152830190611bbb565b610ad2604083018860808091805184526020810151602085015260408101516040850152606081015160608501520151910152565b63ffffffff421660e08301520390a186610717565b7f15ec3cc1e26a8fb9d2f31caedd129c736758c59d5994eea541e32f61e785b8f6610a9d604051610b17816118cc565b601481527f54656d706572617475726520746f6f20686967680000000000000000000000006020820152610a54565b6109c491501388610711565b015190508c806106ab565b906001850160005260206000209160005b601f1985168110610be057509360018460089460a09460039c9a987f834b586f2b321f90c8a3532f67ff7ea82946afdcb59302eea07ee17ae9d2fda09c9a98601f19811610610bc8575b505050811b0160018501556106c1565b0151600019838e1b60f8161c191690558c8080610bb8565b91926020600181928685015181550194019201610b6e565b600185016000526020600020601f840160051c810160208510610c38575b601f830160051c82018110610c2c575050610664565b60008155600101610c16565b5080610c16565b634e487b7160e01b600052604160045260246000fd5b634e487b7160e01b600052601160045260246000fd5b610c8d915060203d602011610c93575b610c8581836118e8565b810190611d06565b846104dd565b503d610c7b565b6040513d6000823e3d90fd5b346101c35760003660031901126101c35760018060008260ff60055460c01c16905b610cda575b6020836040519015158152f35b610ce381611caa565b808211610d8b57610cf382611caa565b610cfc82611caa565b81600052602060088152610d136040600020611e1b565b9063ffffffff8183015116610d38575b50506000198214610c55578380920191610cc8565b606090604083015190610d6a604051918281610d5d8183019687815193849201611b98565b81010380845201826118e8565b51902091015103610d7c578480610d23565b50505050602060008280610ccd565b610ccd565b346101c35760003660031901126101c3576101bf610dac611a5e565b604051918291602083526020830190611bbb565b346101c35760003660031901126101c357602060ff60055460c01c1660405190610de981611caa565b8152f35b346101c357610dfb36611be0565b9060405190630c0112f360e21b8252336004830152600460248301526001600160a01b0391602081604481867f0000000000000000000000000000000000000000000000000000000000000000165afa8015610c9a57610e62916000916111a85750611d1e565b60055460ff8160c01c16610e7581611caa565b60018101809111610c5557610e8c90600214611d69565b610e97841515611db4565b610e9f611e7c565b50610ea8611ee0565b92780200000000000000000000000000000000000000000000000060ff60c01b19610ed16121fe565b93161760055581600755604051602081019086858337610f016020828981016000838201520380845201826118e8565b51902060405190610f11826118b0565b3382526020820163ffffffff42168152610f2a88611dff565b91610f3860405193846118e8565b88835236898801116101c35788876020850137600060208a850101526040840192835260608401528660808401528460a08401526002600052600860205260406000209383511677ffffffffffffffffffffffffffffffffffffffffffffffff1963ffffffff60a01b8654935160a01b169216171783555180519067ffffffffffffffff8211610c3f57610fcf600185015461185a565b601f8111611161575b50602090601f83116001146110c5576002979593837f834b586f2b321f90c8a3532f67ff7ea82946afdcb59302eea07ee17ae9d2fda098969460089460a0946000926110ba575b50508160011b916000199060031b1c19161760018501555b6060810151898501556080808201518051600387015560208101516004870155604081015160058701556060810151600687015501516007850155015191015582516105dc811280918115610b4657506109f457506020830151610fa08110809181156109e8575061089657506113886040840151116107c15761074981612221565b015190508c8061101f565b906001850160005260206000209160005b601f198516811061114957509360018460089460a09460029c9a987f834b586f2b321f90c8a3532f67ff7ea82946afdcb59302eea07ee17ae9d2fda09c9a98601f19811610611130575b505050811b016001850155611037565b015160001960f88460031b161c191690558c8080611120565b919260206001819286850151815501940192016110d6565b600185016000526020600020601f840160051c8101602085106111a1575b601f830160051c82018110611195575050610fd8565b6000815560010161117f565b508061117f565b6111c1915060203d602011610c9357610c8581836118e8565b856104dd565b346101c35760003660031901126101c3576020600754604051908152f35b346101c35760003660031901126101c3576101bf610dac6119c5565b346101c35760003660031901126101c35761121a611ea7565b50611223611ea7565b5061122c611ea7565b50611235611ea7565b50600860205260036000526113087fad67d757c34507f157cacfa2e3153e9f260a2244f30428821be7be64587ac55f6101bf7f6add646517a5b0f6793cd5891b7937d28a5b2981a5d88ebc7cd776088fea90416113247f625b35f5e76f098dd7c3a05b10e2e5e78a4a01228d60c3b143426cdf36d264556113166112f36112ed6112e76112e17f5eff886ea0ce6ca488a3d6e336d6c0f75f46d19b42c06ce5ee98e42c96d256c7611e1b565b98611e1b565b95611e1b565b92611e1b565b93604051978897608089526080890190611c2a565b908782036020890152611c2a565b908582036040870152611c2a565b908382036060850152611c2a565b346101c35760003660031901126101c3576020600254604051908152f35b346101c35760203660031901126101c35760043560058110156101c357611375611ea7565b5061137f81611caa565b60005260086020526101bf6113976040600020611e1b565b604051918291602083526020830190611c2a565b346101c35760003660031901126101c35760a06001600160a01b0380600954169080600a54169080600b541681600c541691600d5416926040519485526020850152604084015260608301526080820152f35b346101c35760003660031901126101c35760206040516001600160a01b037f0000000000000000000000000000000000000000000000000000000000000000168152f35b346101c35760003660031901126101c357602060ff60055460c81c166040519015158152f35b346101c35760003660031901126101c3576020600654604051908152f35b346101c35761149436611be0565b9060405190630c0112f360e21b8252336004830152600260248301526001600160a01b0391602081604481867f0000000000000000000000000000000000000000000000000000000000000000165afa8015610c9a576114fb916000916111a85750611d1e565b60055460ff8160c01c1661150e81611caa565b60018101809111610c555761152590600114611d69565b611530841515611db4565b611538611e7c565b50611541611ee0565b92780100000000000000000000000000000000000000000000000060ff60c01b1961156a6121fe565b9316176005558160075560405160208101908685833761159a6020828981016000838201520380845201826118e8565b519020604051906115aa826118b0565b3382526020820163ffffffff421681526115c388611dff565b916115d160405193846118e8565b88835236898801116101c35788876020850137600060208a850101526040840192835260608401528660808401528460a08401526001600052600860205260406000209383511677ffffffffffffffffffffffffffffffffffffffffffffffff1963ffffffff60a01b8654935160a01b169216171783555180519067ffffffffffffffff8211610c3f57611668600185015461185a565b601f81116117f7575b50602090601f831160011461175d576001979593837f834b586f2b321f90c8a3532f67ff7ea82946afdcb59302eea07ee17ae9d2fda098969460089460a094600092611752575b5050600019600383901b1c1916908a1b17848a01555b606081015160028501556080808201518051600387015560208101516004870155604081015160058701556060810151600687015501516007850155015191015582516105dc811280918115610b4657506109f457506020830151610fa08110809181156109e8575061089657506113886040840151116107c15761074981612221565b015190508c806116b8565b906001850160005260206000209160005b601f19851681106117df57509360018460089460a094839c9a987f834b586f2b321f90c8a3532f67ff7ea82946afdcb59302eea07ee17ae9d2fda09c9a98601f198116106117c6575b505050811b01898501556116ce565b015160001960f88460031b161c191690558c80806117b7565b9192602060018192868501518155019401920161176e565b600185016000526020600020601f840160051c810160208510611837575b601f830160051c8201811061182b575050611671565b60008155600101611815565b5080611815565b346101c35760003660031901126101c3576101bf610dac61190a565b90600182811c9216801561188a575b602083101461187457565b634e487b7160e01b600052602260045260246000fd5b91607f1691611869565b60a0810190811067ffffffffffffffff821117610c3f57604052565b60c0810190811067ffffffffffffffff821117610c3f57604052565b6040810190811067ffffffffffffffff821117610c3f57604052565b90601f8019910116810190811067ffffffffffffffff821117610c3f57604052565b6040519060008281549161191d8361185a565b808352926001908181169081156119a35750600114611946575b50611944925003836118e8565b565b600080805291507f290decd9548b62a8d60345a988386fc84ba6bc95484008f6362f93160ef3e5635b8483106119885750611944935050810160200138611937565b81935090816020925483858a0101520191019091859261196f565b90506020925061194494915060ff191682840152151560051b82010138611937565b60405190600082600454916119d98361185a565b808352926001908181169081156119a357506001146119ff5750611944925003836118e8565b6004600090815291507f8a35acfbc15ff81a39ae7d344fd709f28e8600b4aa8c65c6b64bfe7fe36bd19b5b848310611a435750611944935050810160200138611937565b81935090816020925483858a01015201910190918592611a2a565b60405190600082600191825492611a748461185a565b808452938181169081156119a35750600114611a975750611944925003836118e8565b600081815291507fb10e2d527612073b26eecdfd717e6a320cf44b4afac2b0732d9fcbe2b7fa0cf65b848310611ad95750611944935050810160200138611937565b81935090816020925483858a01015201910190918592611ac0565b9060405191826000825492611b088461185a565b908184526001948581169081600014611b755750600114611b32575b5050611944925003836118e8565b9093915060005260209081600020936000915b818310611b5d57505061194493508201013880611b24565b85548884018501529485019487945091830191611b45565b91505061194494506020925060ff191682840152151560051b8201013880611b24565b60005b838110611bab5750506000910152565b8181015183820152602001611b9b565b90602091611bd481518092818552858086019101611b98565b601f01601f1916010190565b9060206003198301126101c35760043567ffffffffffffffff928382116101c357806023830112156101c35781600401359384116101c357602484830101116101c3576024019190565b906001600160a01b03825116815263ffffffff602083015116602082015261012060a0611c666040850151610140806040870152850190611bbb565b60608086015185820152608080870151805182880152602081015160a0880152604081015160c08801529182015160e0870152015161010085015293015191015290565b60051115611cb457565b634e487b7160e01b600052602160045260246000fd5b90604051611cd781611894565b608060048294805484526001810154602085015260028101546040850152600381015460608501520154910152565b908160209103126101c3575180151581036101c35790565b15611d2557565b606460405162461bcd60e51b815260206004820152601c60248201527f4e6f74207265676973746572656420666f72207468697320726f6c65000000006044820152fd5b15611d7057565b606460405162461bcd60e51b815260206004820152601860248201527f496e76616c6964207374616765207472616e736974696f6e00000000000000006044820152fd5b15611dbb57565b606460405162461bcd60e51b815260206004820152601660248201527f537472696e672063616e6e6f7420626520656d707479000000000000000000006044820152fd5b67ffffffffffffffff8111610c3f57601f01601f191660200190565b90604051611e28816118b0565b60a06008829463ffffffff81546001600160a01b0381168652841c166020850152611e5560018201611af4565b604085015260028101546060850152611e7060038201611cca565b60808501520154910152565b60405190611e8982611894565b60006080838281528260208201528260408201528260608201520152565b60405190611eb4826118b0565b600060a08382815282602082015260606040820152826060820152611ed7611e7c565b60808201520152565b611ee8611e7c565b506001600160a01b03806009541680156121265781600a5416611f1d83600b541693600c541692611f17611e7c565b506121ab565b9260409081519384938492633fabe5a360e21b9182855260a097889160049889915afa9384156120b457600094612102575b50600084126120bf5790868693928651978880928582525afa9586156120b457600096612090575b506000861261204d5786908386518094819382525afa9586156120425760009661200e575b505060008512611fcb5750815194611fb386611894565b85526020850152830152606082015242608082015290565b606490602084519162461bcd60e51b8352820152601760248201527f496e76616c69642077696e6420737065656420646174610000000000000000006044820152fd5b61202e929650803d1061203b575b61202681836118e8565b810190612176565b5050509050933880611f9c565b503d61201c565b84513d6000823e3d90fd5b606483602087519162461bcd60e51b8352820152601560248201527f496e76616c6964207261696e66616c6c206461746100000000000000000000006044820152fd5b6120a8919650873d891161203b5761202681836118e8565b50505090509438611f77565b85513d6000823e3d90fd5b606486602087519162461bcd60e51b8352820152601560248201527f496e76616c69642068756d6964697479206461746100000000000000000000006044820152fd5b61211a919450873d891161203b5761202681836118e8565b50505090509238611f4f565b505060405161213481611894565b6107d081526113886020820152600060408201526103e8606082015263ffffffff4216608082015290565b519069ffffffffffffffffffff821682036101c357565b908160a09103126101c35761218a8161215f565b916020820151916040810151916121a860806060840151930161215f565b90565b60a06001600160a01b0391600460405180948193633fabe5a360e21b8352165afa908115610c9a576000916121de575090565b6121f6915060a03d811161203b5761202681836118e8565b505050905090565b6001600160a01b03600d54168015612219576121a8906121ab565b506207a12090565b60ff60055460c01c1661223381611caa565b80156124a6576122416121fe565b61224a82611caa565b6000198201918211610c555761225f82611caa565b61226882611caa565b6000918252602091600883526040936008858320015491600a830463ffffffff4216938181018082116124925786111561240d575060c07f30514ef0585706987fdf2ac825879e457cbbe8d1d5be093d17ca674c51f8919d9188519087825288820152608089820152601560808201527f4f5241434c455f50524943455f494e435245415345000000000000000000000060a0820152856060820152a15b6014840490818584119386856000146123fe57612322916124aa565b11612331575b50505050505050565b7f30514ef0585706987fdf2ac825879e457cbbe8d1d5be093d17ca674c51f8919d966123af93608092506000146123c457805161236d816118cc565b601881527f53544147455f50524943455f41424f56455f4f5241434c45000000000000000088820152925b815197889788528701528501526080840190611bbb565b9060608301520390a138808080808080612328565b80516123cf816118cc565b601881527f53544147455f50524943455f42454c4f575f4f5241434c4500000000000000008882015292612398565b90612408916124aa565b612322565b81612417916124aa565b8510612424575b50612306565b60c07f30514ef0585706987fdf2ac825879e457cbbe8d1d5be093d17ca674c51f8919d9188519087825288820152608089820152601560808201527f4f5241434c455f50524943455f4445435245415345000000000000000000000060a0820152856060820152a13861241e565b602484634e487b7160e01b81526011600452fd5b5050565b91908203918211610c555756fea26469706673582212201573bf779254a1f660c3154ad863a26f0e31110372cfc9788404395dc884db2964736f6c6343000813003315ec3cc1e26a8fb9d2f31caedd129c736758c59d5994eea541e32f61e785b8f6290decd9548b62a8d60345a988386fc84ba6bc95484008f6362f93160ef3e563b10e2d527612073b26eecdfd717e6a320cf44b4afac2b0732d9fcbe2b7fa0cf630514ef0585706987fdf2ac825879e457cbbe8d1d5be093d17ca674c51f8919d",
  "linkReferences": {},
  "deployedLinkReferences": {}
}