{
  "_format": "hh-sol-artifact-1",
  "contractName": "StakeholderFactory",
  "sourceName": "src/SmartContracts/StakeholderFactory.sol",
  "abi": [
    {
      "inputs": [
        {
          "internalType": "address",
          "name": "_stakeholderManager",
          "type": "address"
        }
      ],
      "stateMutability": "nonpayable",
      "type": "constructor"
    },
    {
      "anonymous": false,
      "inputs": [
        {
          "indexed": true,
          "internalType": "address",
          "name": "stakeholderAddress",
          "type": "address"
        },
        {
          "indexed": true,
          "internalType": "enum StakeholderManager.StakeholderRole",
          "name": "role",
          "type": "uint8"
        },
        {
          "indexed": false,
          "internalType": "string",
          "name": "businessName",
          "type": "string"
        },
        {
          "indexed": false,
          "internalType": "string",
          "name": "businessLicense",
          "type": "string"
        },
        {
          "indexed": false,
          "internalType": "uint256",
          "name": "timestamp",
          "type": "uint256"
        }
      ],
      "name": "StakeholderCreated",
      "type": "event"
    },
    {
      "inputs": [],
      "name": "admin",
      "outputs": [
        {
          "internalType": "address",
          "name": "",
          "type": "address"
        }
      ],
      "stateMutability": "view",
      "type": "function"
    },
    {
      "inputs": [
        {
          "internalType": "address",
          "name": "_stakeholderAddress",
          "type": "address"
        },
        {
          "internalType": "enum StakeholderManager.StakeholderRole",
          "name": "_role",
          "type": "uint8"
        },
        {
          "internalType": "string",
          "name": "_businessName",
          "type": "string"
        },
        {
          "internalType": "string",
          "name": "_businessLicense",
          "type": "string"
        },
        {
          "internalType": "string",
          "name": "_location",
          "type": "string"
        },
        {
          "internalType": "string",
          "name": "_certifications",
          "type": "string"
        }
      ],
      "name": "createStakeholder",
      "outputs": [
        {
          "internalType": "address",
          "name": "",
          "type": "address"
        }
      ],
      "stateMutability": "nonpayable",
      "type": "function"
    },
    {
      "inputs": [],
      "name": "stakeholderManager",
      "outputs": [
        {
          "internalType": "contract StakeholderManager",
          "name": "",
          "type": "address"
        }
      ],
      "stateMutability": "view",
      "type": "function"
    }
  ],
  "bytecode": "0x60803461007c57601f6105b638819003918201601f19168301916001600160401b038311848410176100815780849260209460405283398101031261007c57516001600160a01b0381169081900361007c5760018060a01b0319908160005416176000553390600154161760015560405161051e90816100988239f35b600080fd5b634e487b7160e01b600052604160045260246000fdfe608060408181526004918236101561001657600080fd5b600092833560e01c91826360415a37146103cb575081636576ac9a1461007d575063f851a4401461004657600080fd5b3461007957816003193601126100795760209073ffffffffffffffffffffffffffffffffffffffff600154169051908152f35b5080fd5b919050346103c7576003199260c0368501126102825782359273ffffffffffffffffffffffffffffffffffffffff918285168095036102825760249081359360058510156100795760449367ffffffffffffffff85358181116103c3576100e7903690840161044c565b9560649081358381116103bf57610101903690860161044c565b966084358481116103bb57610119903690870161044c565b9360a4359081116103bb57610131903690870161044c565b9580600154163303610355578c15610315578951156102d557885115610296578d8c9460c08f99989794958e6101c5976101b5968e541699519c8d9b7fbc2d66a5000000000000000000000000000000000000000000000000000000008d528c01528a01528801526101a660c488018d6104a8565b918783030190870152896104a8565b908d8583030160848601526104a8565b9a828c030160a48301528185816101df60209e8f976104a8565b03925af1801561028c5790879493929161024d575b50507f911a77830f2ec6e622d60ef9607829ee1a8a3cf2b9d57ec96288978427a768ad9161023f6102329287519384936060855260608501906104a8565b908382038b8501526104a8565b42878301520390a351908152f35b90919293508781813d8311610285575b61026781836103fb565b810103126100795751801515036102825790818693926101f4565b80fd5b503d61025d565b86513d84823e3d90fd5b50849160207f427573696e657373206c6963656e73652063616e6e6f7420626520656d70747992818e519562461bcd60e51b8752860152840152820152fd5b508491601d7f427573696e657373206e616d652063616e6e6f7420626520656d7074790000009260208e519562461bcd60e51b8752860152840152820152fd5b508491601b7f496e76616c6964207374616b65686f6c646572206164647265737300000000009260208e519562461bcd60e51b8752860152840152820152fd5b8b5162461bcd60e51b81526020818801526021818401527f4f6e6c792061646d696e2063616e2063616c6c20746869732066756e6374696f818501527f6e0000000000000000000000000000000000000000000000000000000000000081860152608490fd5b8780fd5b8680fd5b8480fd5b8280fd5b84903461007957816003193601126100795773ffffffffffffffffffffffffffffffffffffffff60209254168152f35b90601f8019910116810190811067ffffffffffffffff82111761041d57604052565b7f4e487b7100000000000000000000000000000000000000000000000000000000600052604160045260246000fd5b81601f820112156104a35780359067ffffffffffffffff821161041d5760405192610481601f8401601f1916602001856103fb565b828452602083830101116104a357816000926020809301838601378301015290565b600080fd5b919082519283825260005b8481106104d4575050826000602080949584010152601f8019910116010190565b6020818301810151848301820152016104b356fea26469706673582212202094fc7270b6c5b31f69fc15a89658f9d812776756993dd80c7e08560eb5e52664736f6c63430008130033",
  "linkReferences": {},
  "deployedLinkReferences": {}
}